:020000041004E6
:1000000000600020BD1104106B1104106D1104106C
:10001000AA5555AA45554C420000000000000000BA
:100020000000000000000000000000006F1104103C
:10003000000000000000000071110410D93E0410FF
:10004000E93E0410731104100000000000000000DD
:10005000E13E0410BD3F0410D13E04107D11041098
:100060000000000000000000000000000000000090
:10007000000000007F110410613F04108111041082
:10008000000000007511041077110410791104109C
:10009000593F04107B1104106711041069110410FA
:1000A0000000000000000000000000000000000050
:1000B0000000000000000000000000000000000040
:1000C000F0B543464C4655465E466746F8B40E4C7E
:1000D0006B4623600D4C20680D4C20600D4C206851
:1000E0000D4C20600D4C20680D4C2060BFF34F8FED
:1000F00030BF054C2468A546F8BC9846A146AA46E0
:10010000B346BC46F0BDC0460800002004ED00E048
:100110008413002024ED00E07813002000E200E0CA
:100120008813002002780B78002A03D001300131B7
:100130009A42F7D0D01A70470023C25C0133002ADC
:10014000FBD1581E7047000002B4714649084900AF
:10015000095C49008E4402BC7047C0460022430837
:100160008B4274D303098B425FD3030A8B4244D37F
:10017000030B8B4228D3030C8B420DD3FF220902C1
:1001800012BA030C8B4202D31212090265D0030B80
:100190008B4219D300E0090AC30B8B4201D3CB0376
:1001A000C01A5241830B8B4201D38B03C01A5241B8
:1001B000430B8B4201D34B03C01A5241030B8B42BA
:1001C00001D30B03C01A5241C30A8B4201D3CB02A5
:1001D000C01A5241830A8B4201D38B02C01A52418A
:1001E000430A8B4201D34B02C01A5241030A8B428D
:1001F00001D30B02C01A5241CDD2C3098B4201D3A5
:10020000CB01C01A524183098B4201D38B01C01A22
:10021000524143098B4201D34B01C01A5241030999
:100220008B4201D30B01C01A5241C3088B4201D348
:10023000CB00C01A524183088B4201D38B00C01AF5
:10024000524143088B4201D34B00C01A5241411A1C
:1002500000D20146524110467047FFE701B5002029
:1002600000F0F0F802BDC0460029F7D076E77047ED
:1002700003460B437FD4002243088B4274D3030907
:100280008B425FD3030A8B4244D3030B8B4228D3A8
:10029000030C8B420DD3FF22090212BA030C8B42CE
:1002A00002D31212090265D0030B8B4219D300E06E
:1002B000090AC30B8B4201D3CB03C01A5241830BF3
:1002C0008B4201D38B03C01A5241430B8B4201D3A3
:1002D0004B03C01A5241030B8B4201D30B03C01ACC
:1002E0005241C30A8B4201D3CB02C01A5241830A46
:1002F0008B4201D38B02C01A5241430A8B4201D375
:100300004B02C01A5241030A8B4201D30B02C01A9E
:100310005241CDD2C3098B4201D3CB01C01A524105
:1003200083098B4201D38B01C01A524143098B428E
:1003300001D34B01C01A524103098B4201D30B0177
:10034000C01A5241C3088B4201D3CB00C01A52419C
:1003500083088B4201D38B00C01A524143088B4261
:1003600001D34B00C01A5241411A00D201465241FA
:10037000104670475DE0CA0F00D04942031000D319
:100380004042534000229C4603098B422DD3030A6E
:100390008B4212D3FC22890112BA030A8B420CD37E
:1003A000890192118B4208D3890192118B4204D3A7
:1003B00089013AD0921100E08909C3098B4201D327
:1003C000CB01C01A524183098B4201D38B01C01A61
:1003D000524143098B4201D34B01C01A52410309D8
:1003E0008B4201D30B01C01A5241C3088B4201D387
:1003F000CB00C01A524183088B4201D38B00C01A34
:100400005241D9D243088B4201D34B00C01A52410A
:10041000411A00D20146634652415B10104601D397
:100420004042002B00D54942704763465B1000D321
:10043000404201B5002000F005F802BD0029F8D0C7
:1004400016E770477047C046437802781B021A438C
:100450008378C0781B041343000618437047C046D6
:10046000030A4B70030C8B70030E0870CB7070473F
:1004700003005A7800781202024398781979000430
:100480000243D878000610435A7912020A43997938
:1004900009040A43D979090611437047030A5370C6
:1004A000030C9370030ED3700B0A53710B0C9371F2
:1004B0000B0E10701171D3717047C046024A136859
:1004C000013313607047C04610030020C021074A63
:1004D000074B08485360036A09061B021B0A0B43BB
:1004E00003620023936007331360704710E000E05D
:1004F0007E3E000000ED00E00E4AD3691B061B0F94
:100500004370D9B2D3690C4A1B071B0F83700B4B86
:100510001B68436093420BD102230370002901D171
:1005200001234370064B9B8A01339B008360704715
:100530000123F2E70000904041A000022800904013
:1005400000001040F0B5070085B001AC0E0020009F
:100550001500FFF7D1FF23783B7063783370A378E1
:100560002B7005B0F0BD10B504F09DFB10BD10B5AB
:1005700004F0B4FB10BD10B504F086FB10BD00689C
:1005800070470078C0B270470022014B1A60704774
:1005900014000020014A024B1A607047CCBCECFCEE
:1005A00014000020024A138ADB07FCD57047C046BE
:1005B00000001040084B10B51A68084B9A4209D148
:1005C0003F22074B40061A81000C2E3A98611A8090
:1005D000FFF7E8FF10BDC04614000020CCBCECFCC7
:1005E00000001040084B10B51A68084B9A4209D118
:1005F0003F22074B80081A810C3A986119641A80CF
:10060000FFF7D0FF10BDC04614000020CCBCECFCAE
:1006100000001040034B1B8A1840431E9841C0B293
:100620007047C046000010400379F7B50168002B01
:1006300030D18022D20553688B435360202580221D
:10064000002106686D42D20533000124CB402342CD
:100650000DD00379CCB20193072924D80F238F0042
:10066000BB40D46A9C43019BBB401C43D462013114
:1006700004351A29E8D180234279DB05012A39D1D2
:10068000DA683243DA608279012A36D19A681643F1
:100690009E60F7BD062BD1D1002380220371D205C5
:1006A00053680B43C9E72700083F072F08D80F27D7
:1006B000019BAF40AB40146BBC4323431363D6E7AD
:1006C000103C072C0AD82F000F23203FBB40546B4F
:1006D0009C43019BBB401C435463C8E72F000F237E
:1006E000403FBB40148F9C43019BBB401C43A4B2C2
:1006F0001487BCE7DA68B243C4E79A68B2439A60E9
:10070000C7E78023DB05D86370478023DB051864C7
:1007100070478022D20513685840106070478023CC
:100720004268DB050168012A0FD11A690A431A6180
:1007300080238168DB050268012909D19969114389
:10074000996159699143596170471A698A43EEE783
:10075000002907D1D24399691140996159690A402A
:100760005A61F1E759690A43FAE78023DB05DA6940
:10077000002902D01043D86170478243DA61FBE759
:100780008022D205936A1843906270478023DB056C
:100790005B6A1840431E9841C0B27047012270B591
:1007A00003880D00934303804979040008002388DF
:1007B0000232274E10404003334003432380254B31
:1007C0004900C85A2968244B4843181A234B9942B8
:1007D00029D84900FFF7C2FC3022238893432380A5
:1007E000C023626892B29B02134363606368EA8825
:1007F0009B0A9B0213430322062180B2636020857B
:100800002B791A40238852008B43134323802A7A82
:100810000823012A18D12288134323800123228828
:100820001343238070BD0E4B9942DFD85143FFF72D
:1008300095FC3022238893431A001023134323800E
:100840006268802392B2CEE722889A432280E5E74D
:10085000FF9FFFFFC22900200024F400A0860100B2
:10086000801A060001230288002902D01343038066
:1008700070479A430280FBE78A880B881343CA8833
:1008800013430A8913434A8849895200C9030A431A
:100890001343C3607047C36A002A02D01943C16280
:1008A00070478B43C362FBE701747047007EC0B2A0
:1008B0007047802302881343038070478023028897
:1008C0005B00134303807047406B0840411E884122
:1008D000C0B27047816370471022038B30B59343D9
:1008E0000383038B921893430383037D193A934345
:1008F0000375037D3132934303750A780324038B18
:10090000802A23D1A34303838023028B5B001343FC
:10091000802207250383CB780374038B134303835F
:100920008B888380CB880381038B934303834B782D
:10093000047D2B40AC431C4304758A783821037D29
:100940002A40D2008B431343037530BD2240A3439A
:1009500013430383038B014A1340D9E7FFFEFFFFD4
:100960008023028B012902D11343038370479A43EA
:100970000283FBE7002908D10123018B1A400F33C2
:10098000120199430A43028370470129FCD1038B6A
:100990000A401F3152018B431A43F4E70901037FD8
:1009A000012A03D11943C9B2017770478B430377FA
:1009B000FBE70130C37F1943C1777047C023802212
:1009C0001B06197852420A437F211A701A780A408E
:1009D0001A707047C02301211B061A780A431A7047
:1009E0001A788A431A707047C0231B06186880075C
:1009F000C00F7047024B1868431E9841C0B2704741
:100A0000000400C030B50300012811D0022811D025
:100A10000120032B0BD1084A08000B0020301D6871
:100A20005C1A0433A5508342F9D10020106230BD16
:100A3000024AF1E7024AEFE7B40400C06C0400C0C8
:100A4000900400C0030001280FD002280FD001201D
:100A5000032B09D1074B1A00C91A20321878C85441
:100A600001339342FAD100207047034BF3E7034B65
:100A7000F1E7C046B40400C06C0400C0900400C09C
:100A8000410010B50D48FFF769FB0D4B421E9A421D
:100A900011D80223FF280AD80138C0B2094A0A49EE
:100AA0001374136800020B401843106010BD5B0004
:100AB000DBB24008EEE702230120EFE70024F40058
:100AC000FFFD000000004040FF00FFFF70B5040084
:100AD00001264068FFF7D4FF0420104B21785A68A4
:100AE0003140890082430A435A604022A578186841
:100AF0003540AD019043284318608020E1781A68A2
:100B00003140C90182430A431A6061781A6861382A
:100B1000014082430A431A6070BDC0460000404055
:100B2000054B02225968002802D00A435A607047D8
:100B300091435960FBE7C04600004040044B1A7DDA
:100B4000002902D010431875704782431A75FBE7DD
:100B500000004040014B98607047C0460000404094
:100B60000322044902400B68034852051840104311
:100B70000860704700004040FFFF9FFF024AD37F9C
:100B80008343D3777047C0460100404003220449A5
:100B900002400B680348D2051840104308607047B4
:100BA00000004040FFFF7FFE014B18867047C046A3
:100BB00000004040064B002804D01A6805490A404E
:100BC0001A60704780221968D2040A43F8E7C046C9
:100BD00000004040FFFFFFFB044B1A6A012902D1CD
:100BE00010431862704782431A62FBE7000090408E
:100BF000054B0122196B002802D00A431A63704783
:100C000091431963FBE7C04600003040F8B54A4CF9
:100C10000500236B01681B0700D56DE009014748FB
:100C2000FFF79CFAC3099AB2A284454ADB0101305E
:100C30001340C01A400880B23F2802D93F233F38F2
:100C40001840032760263F4BC0B218703E4B2A79EC
:100C500018783A405201B043104318700120697966
:100C6000227F39404901B2430A432277AA79197891
:100C70000240BA400730814311431970217F8143FC
:100C80000A432277EA79002A38D102211A788A4366
:100C90001A70227F8A43012022772A7A216B16005C
:100CA000C2402A4F06407602394031432163216B0E
:100CB000274E0240314012020A432263697A226BB6
:100CC0000E00C140234F06403A40B6033243226330
:100CD000226B214E01403240C90311432163AA7A9D
:100CE000197802400F301201814311431970237F9C
:100CF00083431A432277F8BDC90090E7022A0CD13A
:100D00000420197811431970197881431970217FD3
:100D10000A432277227F8243BDE702211A780A43E1
:100D20001A700422187810431870207F014321772D
:100D3000217F0A43AFE7C046000030400000127A2E
:100D400080FF7F00280030402C003040FFFDFFFF77
:100D5000FFFEFFFFFFBFFFFFFF7FFFFF044B1A8F68
:100D6000002902D010431887704782431A87FBE797
:100D700000003040024BC005C00D18807047C046CF
:100D800000003040014B1888C0B27047000030406E
:100D9000054B002805DA5B681840431E9841C0B235
:100DA00070471B8BF8E7C04600003040034B9B8F19
:100DB0001840431E9841C0B27047C0460000304002
:100DC0000722024038200449D2000B7883431800E0
:100DD000104308707047C04634003040F0B5837847
:100DE0000178002B33D040784AB28001002A1BDA08
:100DF0000F230B40083B1B4A9B089B009B18FF22BC
:100E0000032517000D40ED00AF400240AA40DE6907
:100E1000BE433243DA611F224B0911401E3A8A4019
:100E200011499B00CA50F0BDFF270F4B920892005A
:100E3000D21803233C00C0250B40DB009C40384007
:100E40009840AD005659A64330435051E3E71F2365
:100E50004A090B40012199401300034A20339B00AB
:100E6000D150E0E700ED00E000E100E070B50121C5
:100E700086B006000920FFF7AFFE00F083F81C4B98
:100E800001388000C3580024019300F07BF8194B0F
:100E90000138800001ADC35828002B71AC716C7112
:100EA000FFF7C2FB00F06EF8134B01388000C35807
:100EB000019300F067F8114B01388000C3582800F7
:100EC0002B71FFF7B1FB0125032303A803714371C5
:100ED00003728471C471447285720396FFF796FEA3
:100EE0002000FFF76DFF2800FFF782FE06B070BDFF
:100EF000D0A10510CCA10510C8A10510C4A10510F2
:100F0000042313B5040001A80370013B43708470EF
:100F1000FFF764FF21001020FFF720FF13BD000042
:100F20000B4A10B513680B49002B00D111608024C7
:100F30001368640118180919884205D90C22012088
:100F4000054B40421A6010BD10601800FBE7C04618
:100F500014130020140300206029002010B503F0B2
:100F6000A2FE10BD10B503F09EFE10BD10B50A0024
:100F7000002103F0B3FE10BD0122014B1A7070472F
:100F800018130020014B1878C0B2704718130020C6
:100F900010B50CF04FF910BD10B50BF065FD10BD8C
:100FA00010B50CF01BF810BD7FB50BAE368808AC41
:100FB00009AD2D88248803960A9E01950296009417
:100FC0000CF028FA7FBD7FB508AC20CC0AAE24789F
:100FD00036780194029600950CF05EF904B070BD6D
:100FE00010B505F021F910BD10B50DF053FE10BD80
:100FF00001207047F0B58DB012AC247809930A94A3
:1010000013AC248818AB1B880B9415AD14AC16AE2A
:1010100017AF24882D8836883F8806930B9B059749
:1010200001930A9B0496009303950294099B04F094
:10103000E1FA0DB0F0BD10B504F095FB10BD10B590
:1010400004F0A8FE10BD10B505F022F810BD10B5D3
:1010500010F074F810BD10B50DF01CFD10BD10B5EA
:101060000DF024F810BD10B505F0B4F810BD10B5A2
:1010700005F0B8F810BD10B509F074FD10BD10B53D
:1010800012F094FF10BD10B512F078FD10BD10B530
:1010900013F086F810BD10B512F098FD10BD10B514
:1010A0000CF0F6FA10BD10B509F032FB10BD10B50A
:1010B0000CF00CFD10BD10B50CF03AFB10BD10B5D6
:1010C0000CF04EFC10BD0120704710B508F0B0FBCD
:1010D00010BD10B515F072F810BD10B515F040F840
:1010E00010BD10B515F022F810BD10B515F02CFA92
:1010F00010BD0120704710B515F080FA10BD10B575
:1011000015F066FA10BD10B513F02EFD10BD10B528
:1011100013F04AFD10BD10B513F0D8FD10BD10B589
:1011200013F09EFC10BD10B513F0BAFC10BD10B545
:1011300013F0E0FC10BD10B513F04CFD10BD10B560
:1011400013F06AFD10BD10B512F076FD10BD10B59C
:1011500012F045FD10BD10B513F04CF810BD10B5E0
:1011600012F060FF10BD70477047704770477047BE
:1011700070477047704770477047704770477047B7
:1011800070470000002210B5084B1A60084B1B7A0C
:10119000934209D1074B1B89052B05D9064B013218
:1011A0001A70FEF7A6FFFEE7012010BD1400002014
:1011B00000009040000010480C00002070B5FFF7C0
:1011C000E1FF012817D1002314481549154C1A18BE
:1011D0008A4216D3002314481449154C1A188A421F
:1011E00013D30021134B144A934212D30021134B03
:1011F000134A93420FD3134B83F3088802F014FA77
:1012000070BDE55804331560E1E7E5580433156017
:10121000E4E702C3E8E702C3EBE7C0467029002019
:1012200058300020C8B70510080000203400002006
:101230009CB70510C0000020CC020020CC0200208A
:101240007029002000600020002210B5104B995C2E
:10125000C9B2002917D11C2A14DC02202124985479
:10126000501C1C54901C193C1C54901D19549B1864
:10127000802290219BB252021343C905CB60CB68F8
:101280001342FCD110BD995C01315218D2B2DEE795
:10129000191300200023F0B5144AD45CE4B2002CEA
:1012A0001ED1192B0FDC02253B275E1CD554975508
:1012B0005E199055DE1C955535261D1D56555D1D34
:1012C00006335155D45402223B24094B1A705C70EA
:1012D0009870DA7033321A71002259719A71F0BD28
:1012E000D45C01341B19DBB2D7E7C04619130020C8
:1012F0007C13002070B58AB003AC06000D001922E3
:101300003D49200003F0CFFC6846FFF7F5F8002EBA
:1013100059D04023A3732C33E372113B2375374B11
:10132000374A1B68190C914208D17020E17D1B01DE
:101330008143E175E17D03400B43E375314B1B684D
:10134000190C914208D1302061791B0181436171F0
:10135000617903400B4363712B4B1B68190C91425D
:1013600007D10321E27D0B408A43E275E27D1343FE
:10137000E3750422E37A69469343E3726B465B7834
:10138000897893400B43112B08DDE37D1A43E27506
:10139000E07AE17DC0B2C9B2FFF77CFF80239022E2
:1013A0002404240C5B021C43D205D460D16819428A
:1013B000FCD16B466A465B7892781B011343112B74
:1013C00001DDFFF741FF114B1A8B002AFCD00122EF
:1013D0001A8316329A8100221A61954207D090230F
:1013E0001021DB0518691A6942400A42FBD0084AFD
:1013F000084B1A600AB070BD74A10510E807001010
:1014000055AA0000E4070010B007001000001048C3
:10141000CCBCECFC140000200822C021F8B53F4BE6
:101420003F4D9A803F4A0904136AFF202B400B432B
:10143000C0211362136A09061B021B0A0B431362C5
:10144000C02292009446384B64469A58374E8243E5
:101450003F38024360461A501A58C02032400002FA
:1014600002431A51C122FF2792009C58BC433F3FC0
:101470003C439C509C583F37344004439C509C58FC
:101480002C409C509C582402240A0C439C50083247
:10149000944664469A58324002431A511A59C0245D
:1014A0002A402404224364461A511A591202120A8D
:1014B0000A431A51C4229200944664469A58324014
:1014C00002431A511A59C0242A4024042243644674
:1014D0001A511A591202120A0A431A51C5229200CD
:1014E0009C58BC432700C0242743C0249F509F58CA
:1014F00024043E4030439850985805402C439C505B
:1015000098580002000A0143995001210800FFF792
:10151000F1FE074A074B1A6262B6F8BD00001040A0
:10152000FFFF00FF00ED00E000E100E0FF00FFFF33
:1015300066000E000000904000B50300032923D888
:101540000800C522FEF700FE022123251B21197089
:1015500000215A70D5225971B43199711A39D97153
:1015600047311972D0395972293199729531D9722E
:101570004F399A701973303A1239DA705973A33AA5
:1015800038391A719973DA7300BD3B21DFE73C21CA
:10159000DDE73D21DBE700002A23F0B58BB006AC88
:1015A00023709B336370D523A370A523E3700023BE
:1015B0006371B433A3719A23E371E123237211237E
:1015C00063723A23A372CF23E372802323736E23C3
:1015D000022563733623764E102221003000A37358
:1015E0002571E573FEF7BFFF724A734B31001B781C
:1015F00028000092012204F0F0F8071E06D0022015
:101600006E4900F019FB47200BB0F0BD2B2323706F
:101610009A336370D523A370A523E370B423A37119
:101620009A23E371E1232372112363723A23A37295
:10163000CF23E372802323736E2363733623604EBC
:101640006071102221003000A3732571E573FEF74D
:101650008AFF584B320018885A4B04970593102381
:1016600002970393019700950F3B290004F096F829
:10167000071EC4D12C23237099336370D523A37024
:10168000A523E370B423A3719A23E371E1232372AA
:10169000112363723A23A372CF23E372802323734F
:1016A0006E23637336236071102221003000A37310
:1016B0002571E573FEF757FF3E4B32001888424B09
:1016C00004970593102302970393019700950C3B11
:1016D000290004F063F8071E00D090E72D23237043
:1016E00098336370D523A370A523E370B423A3714B
:1016F0009A23E371E1232372112363723A23A372C5
:10170000CF23E372802323736E23637336236071C8
:10171000102221003000A3732571E573FEF723FF2B
:10172000244B32001888294B049705931023029705
:101730000393019700950F3B290004F02FF8071E33
:1017400000D05CE72E23237097336370D523A370FA
:10175000A523E370B423A3719A23E371E1232372D9
:10176000112363723A23A372CF23E372802323737E
:101770006E23637336236071102221003000A3733F
:101780002571E573FEF7EFFE0A4B32001888104B07
:1017900004970593102302970393019700950F3B3D
:1017A000290003F0FBFF002800D028E72CE7C04603
:1017B00038190020FA140020CA29002001A20510BF
:1017C000001500201019002014190020FE1400201C
:1017D000481900201A23F0B58BB006AC2370BB3338
:1017E000A370A523E37000236371B433A3719A231C
:1017F000E371E1232372112363723A23A372CF238F
:10180000E372802323736E2302256373C527362377
:10181000284E102221003000A37367702571E573F4
:10182000FEF7A1FE244A254B31005B782800009288
:10183000012203F0D2FF061E06D00220204900F04C
:10184000FBF947200BB0F0BD1B232370BA33A37004
:10185000A523E370B423A3719A23E371E1232372D8
:10186000112363723A23A372CF23E372802323737D
:101870006E23637336236770124F6071102221004C
:101880003800A3732571E573FEF76DFE0A4B3A002D
:1018900018880D4B04960593102303930F3B029376
:1018A0001D33009301960B3B290003F077FF0028BE
:1018B000C3D1C7E7381900208C130020CA290020A3
:1018C000D4A1051000150020121500203A23F0B510
:1018D0008BB006AC2370C5236370D523A370A523FA
:1018E000E37000236371B433A3719A23E371E1239E
:1018F0002372112363723A23A372CF23E3728023EE
:1019000023736E230225637336235F4E102221005A
:101910003000A3732571E573FEF725FE5B4A5C4B2F
:1019200031009B7828000092012203F056FF061E2A
:1019300006D00220574900F07FF947200BB0F0BDD8
:101940003B2323708A336370D523A370A523E370F0
:10195000B423A3719A23E371E123237211236372E9
:101960003A23A372CF23E372802323736E2363731E
:101970003623494F6071102221003800A37325716E
:10198000E573FEF7F0FD414B3A001888434B04968F
:101990000593102303930F3B02931D33019600938D
:1019A00029000B3B03F0FAFE061EC2D13C23237034
:1019B00089336370D523A370A523E370B423A37187
:1019C0009A23E371E1232372112363723A23A372F2
:1019D000CF23E372802323736E23637336236071F6
:1019E000102221003800A3732571E573FEF7BBFDBB
:1019F000264B3A0018882A4B04960593102303932C
:101A00000F3B02930D33019600932900053303F039
:101A1000C5FE061E00D08CE73D232370883363701B
:101A2000D523A370A523E370B423A3719A23E37194
:101A3000E1232372112363723A23A372CF23E3724B
:101A4000802323736E236373362360711022210079
:101A50003800A3732571E573FEF785FD0B4B3A0043
:101A60001888104B04960593102303930F3B0293A1
:101A70000D33009301960633290003F08FFE0028F2
:101A800000D056E75AE7C046381900201819002040
:101A9000CA290020E9A10510001500201219002014
:101AA00060140020681400201FB504000D4800F0E9
:101AB000DBF80D4B1A880D4B19880D4B1888132332
:101AC00003940024029300930194123B03F0C8FE98
:101AD000A04204D00220074900F0AEF8472004B02D
:101AE00010BDC046D6A205101219002018190020FA
:101AF0003A130020F6A205107FB500221D4B1E4DA3
:101B000003AC1988227028880123009403F09EFEFC
:101B10001A49061E28D11A49200003F0E7F8194B8C
:101B20002888198832000094042303F08FFE164998
:101B3000021E19D1154B28881B782370144B198865
:101B40000094012303F082FE1249021E0CD1124BB5
:101B500028881B782370114B19880094012303F007
:101B600075FE002804D00E49022000F065F84720D9
:101B700004B070BD10190020FA14002017A205103F
:101B800041A205101419002046A2051010150020CE
:101B9000FE14002075A205101A1900204819002013
:101BA000A4A2051000230B4A13600B4A13700B4AC2
:101BB00013700B4A13700B4B0B4A5A600B4A9A6016
:101BC0000B4ADA600B4A1A610B4A5A610B4A9A6156
:101BD0007047C04664140020F8140020FC14002054
:101BE0006A1400206C14002020A305102FA30510F8
:101BF0003FA305104EA305105EA305106CA30510AE
:101C0000094B01201B68002B0CD1084B1B78002BC3
:101C100008D1074B1B78002B04D1064B1878431EC4
:101C20009841C0B27047C04664140020F8140020E8
:101C3000FC1400206A14002010B50C00074B800033
:101C4000C05800F011F8064800F00EF8200000F02F
:101C50000BF8044800F008F810BDC0466C140020D2
:101C6000DBAF051020A5051010B501F096FC10BDE6
:101C7000F7B50500134801F090FC05240F262B5DF5
:101C80001A0911003731092A01D8303211003340C6
:101C90001A0001A801703732092B01D830331A001D
:101CA000002342708370671E01F077FC002C05D082
:101CB000054801F072FC3C007B1CE0D1034801F0B8
:101CC0006CFCF7BD2DAD0510DAAF051020A5051091
:101CD000F0B50E0085B001AF04000B2211493800A9
:101CE00002F0E1FF3500002C03DA2D23751C337060
:101CF000644220000A210135FEF7BAFA0028F9D122
:101D0000287020000A21FEF799FB7B5C013D200032
:101D10002B700A21FEF7ACFA041EF2D1300005B098
:101D2000F0BDC0465EA605101FB501A9FFF7D0FFA4
:101D300001A801F032FC05B000BD000070B5040040
:101D4000134801F02AFC134801F027FC2078FFF724
:101D5000EBFF114801F021FC6078FFF7E5FF0F4829
:101D600001F01BFC6068FFF7DFFF25000C4801F065
:101D700014FC08351B340B4801F00FFC28780135A2
:101D8000FFF7D2FFA542F6D1074801F006FC70BD6F
:101D900069A6051072A6051077A605107CA6051089
:101DA00083A605108DA405108DA6051070B504003E
:101DB000104801F0F2FB104801F0EFFB2078FFF72C
:101DC000B3FF0E4801F0E9FB6078FFF7ADFF0C4868
:101DD00001F0E3FBA51C15340A4801F0DEFB28786E
:101DE0000135FFF7A1FFA542F6D1074801F0D5FB69
:101DF00070BDC046DCA605109DA60510E5A6051021
:101E0000F1A605108DA405108EA60510F8B50500E5
:101E10001B4801F0C2FB1B4801F0BFFB6878FFF7CD
:101E200083FF194801F0B9FBA878FFF77DFF2F0069
:101E3000164801F0B2FBEC1C1637154E300001F0CD
:101E4000ACFB20780134FFF76FFFBC42F5D111489D
:101E50002F0001F0A2FB2937300001F09EFB207813
:101E60000134FFF761FFA742F6D10B4801F095FB63
:101E70002878FFF759FF094801F08FFBF8BDC046ED
:101E800091A6051098A60510A3A60510F1A60510A9
:101E90008DA40510B4A60510C6A6051020A5051032
:101EA000F0B5CD4C8DB000AF210002F027FFCB493B
:101EB0000600FEF737F9002809D1C94801F06DFB8B
:101EC000C84801F06AFBC84801F067FB48E0C74911
:101ED0003000FEF727F9002801D1C548F4E7C549CD
:101EE0003000FEF71FF9002816D1012302003B75D0
:101EF0007875B8611423FB181B1801301A72132867
:101F0000F8D143233B77BC337B77EF3BBB7704337C
:101F1000F81801F003FD23E0B7493000FEF702F99D
:101F2000051E20D101F09EF8B44801F036FBB448FC
:101F300001F033FB0626B34801F02FFB2800FFF722
:101F4000F3FEB148092D00DD200001F026FB300032
:101F50006843AE4B0135C018FFF78AFE202DEAD149
:101F6000BD460DB0F0BDAA493000FEF7DBF80028F1
:101F700038D1092302003B75063B7B75B8611423F9
:101F8000FB181B1801301A721328F8D12100002009
:101F900002F0B4FE002801D19E4895E702F06EFEE3
:101FA00021003877002002F0A9FE0028F4D09A4DD5
:101FB0000124290002F0A2FE002801D11423A7E782
:101FC000072C0DD01022002102F076FF1423FB18FD
:101FD0001B19187229000020013402F08FFEEBE774
:101FE0008E4871E78E493000FEF79CF8051E75D1CA
:101FF0006B462100FB6002F081FE002803D1894876
:1020000001F0CBFA57E002F039FEC3B20600864871
:102010001F2BF5D82100280002F070FE0028EED01A
:1020200002F02CFEB8603B7A210028007B6002F0B1
:1020300065FE041EE3D07D4801F0AFFAFF231E4089
:102040003000FFF771FE7A4801F0A7FA06235E43DD
:102050006E4BF6183000FFF70BFE764801F09DFA44
:10206000FF23B8681840FFF75FFE734801F095FA48
:10207000200001F092FA5C4801F08FFA142379688D
:10208000F818FFF759FA2000FEF756F86B4640089B
:102090000730C008C0001B1A9D46BB602000FEF739
:1020A0004BF8A8420AD814234008C1B2FB18BA68FA
:1020B000300000F0E9FAFB689D4651E7102200214C
:1020C000635DB8183B7463195B78B9747B7402F074
:1020D000F3FEBA686B10D0540235DFE75749300081
:1020E000FEF720F8051E00D0B6E06B462100FB602D
:1020F000B86102F003FE002801D1514880E70A22AE
:10210000290002F0D9FEC0B238750B2801D94D481C
:1021100076E72100280002F0F1FD0028EDD00A2228
:10212000002102F0C9FE21007875002002F0E6FDD2
:10213000041EE2D0444801F030FA387DFFF7F4FD88
:10214000424801F02AFA787DFFF7EEFD404801F0A1
:1021500024FA200001F021FA234801F01EFA2000A1
:10216000FDF7EAFF6A464608F31DDB08DB00D31AD9
:102170009D462000BB60FDF7DFFF272810D93548BA
:102180003EE710220021635DB8183B7463195B7849
:10219000B9747B7402F090FEBA686B10D0540235AB
:1021A0002000FDF7C9FFA842EBD8002319009E428A
:1021B0000BD81422BA18D21811720133132BF6D18E
:1021C0000133F81801F0AAFB75E7BA68D05C142255
:1021D000BA18D2181072F0E78DA4051079A3051073
:1021E00081A3051041A2051020A505109BA3051091
:1021F000A0A3051060A4051067A4051070A4051025
:102200007EA40510B8A505108CA40510E4260020B6
:102210008FA4051097A405107AA60510B2A4051086
:10222000BFA40510C6A405100FA5051022A5051012
:102230003FA5051047A5051052A505105EA5051080
:1022400066A5051091A50510A4A50510BDA505104E
:10225000CAA50510D4A5051030493000FDF762FF6E
:10226000051E25D12E4801F098F92E4801F095F968
:102270002D4801F092F92D48FFF756FD2C4801F04A
:102280008CF91C262B4801F088F92800FFF74CFD3B
:102290002948092D00DD200001F07FF93000684356
:1022A000264B0135C018FFF749FD202DEAD157E62E
:1022B00023493000FDF736FF051E25D1214801F0E6
:1022C0006CF9184801F069F9174801F066F91E48E1
:1022D000FFF72AFD164801F060F92926154801F09C
:1022E0005CF92800FFF720FD1348092D00DD2000D0
:1022F00001F053F930006843144B0135C018FFF763
:1023000085FD202DEAD12BE611493000FDF70AFFAB
:10231000002801D10F48D7E50F48D5E5E2A5051003
:10232000EEA505107EA40510FDA5051000E0071020
:1023300020A50510B8A505108CA40510701E00205E
:102340000FA6051019A6051000D007104C19002083
:1023500026A6051047A605104BA6051010B5FEF7DA
:102360000BFEE1204002FEF781FD0120FEF7C8FDD3
:102370000148FFF779FC10BDFCA6051070B5434A73
:1023800086B00621002003F092FA002803D04049CD
:102390000220FFF751FC0521012003F084FA03F02D
:1023A00051FA3C49041E25D13B4B3C4D3C4E019318
:1023B000010000962B001022052003F048F9041EAE
:1023C00009D002203749FFF737FC2000FFF7ACFCAB
:1023D000200006B070BD32881026334B2988039345
:1023E000029601900096030003F03AFA0400051EDD
:1023F00004D02E490220FFF71FFCE9E72C4B0121F6
:1024000003930723049002900093020003000196B7
:10241000080003F035F92749041EEBD12648FFF7E1
:1024200023FCFFF7B9F8041E08D12448FFF71CFC71
:10243000FFF7D0F9041E03D02149DBE72149D9E792
:102440002148FFF711FCFFF741FA041E01D01F4994
:10245000D0E71F48FFF708FC1E4B1C78002CB7D0B4
:102460001D4800F0D9FE8021C9012B002A00080078
:10247000FEF7E1FD041E05D018490220FFF7DCFB42
:102480002C00A5E71648FFF7EFFBA1E7DC290020A9
:102490000FA9051032A90510F428002010290020EA
:1024A000FA28002049A90510222900205FA905105B
:1024B00040E2010087A90510B7A90510DBA90510A6
:1024C00039AA0510FCA9051019AA051078AA05104B
:1024D00055AA0510F8250020CE29002097AA05103E
:1024E000C5AA051010B51148FFF7BEFB1048FFF74D
:1024F000BFFB104803F024FA002806D00E49022042
:10250000FFF79AFB01220D4B1A70FFF737FF0028E7
:1025100007D00B490220FFF78FFB0122074B1A70EF
:1025200010BD0848FFF7A0FBFAE7C04699A80510C0
:10253000DC29002018A70510B2A80510FC14002003
:10254000DAA80510F0A80510092330B501248FB0D2
:1025500009AD134A2B70631ED35C2B550134112C2B
:10256000F9D10021080007F0FBFA0020F022C82171
:10257000069005900490039002950194009003004A
:10258000D200C90003F0C4F8002805D00549022094
:10259000FFF752FB0FB030BD0348FFF765FBF9E7CB
:1025A00022290020DBAB0510FDAB051010B503F0B0
:1025B000D0F8041E05D005490220FFF73DFB20009E
:1025C00010BD0348FFF750FBF9E7C04625AC0510E6
:1025D0004BAC0510FA2210B5D20088B02821069223
:1025E00005923C2202910191802104920022C901AE
:1025F0000300039200920800FEF7FCFC041E06D0C4
:102600000D490220FFF718FB200008B010BD0B4851
:10261000FFF72AFB0A4C0B4B1B78002B07D1002C31
:1026200001D1FF34F0E703F047F9013CF3E76342DF
:102630005C416442E4B2E7E7F9AA05101AAB051061
:10264000A08601003913002070B50C4D47242B786B
:10265000002B11D00A4B1321188880B203F087F8A1
:10266000041E06D007490220FFF7E6FA04E003F053
:1026700023F92B78002BFAD1200070BD39130020EC
:102680003A13002077AC0510F0B5060089B0524827
:102690001C0002910392FFF7E7FA504F3B78002BA2
:1026A00000D17DE04E48FFF7DFFA4E4D3B78002B1E
:1026B00008D0002D02D1FFF7C7FF05E003F0FCF8BA
:1026C000013DF3E7002DF6D03000FFF783FF051E34
:1026D00000D076E004AE102221003000FDF743FF69
:1026E00027004148FFF7C0FA10372078FFF71CFB9E
:1026F00001343E48FFF7B8FABC42F6D13C4F3800EF
:10270000FFF7B2FA3B4B3C4A1888012180B2009691
:10271000022303F083F8394C2388002B43D0384838
:10272000FFF7A2FA3748FFF79FFA208880B2FFF739
:10273000FBFA3548FFF798FA0298FFF7F5FA3348A5
:10274000FFF792FA039E039B029AF31A9A422DDC3A
:102750003800FFF789FA274B029A1888218880B23F
:10276000013189B2039B03F09AF8061E09D028496B
:102770000220FFF761FA3000FFF7D6FA3800FFF7C2
:1027800073FA244A1378002B18D000231370238087
:10279000FFF75AFF2048FFF767FA280009B0F0BD9D
:1027A000FFF704FF90E703F087F8B4E73078FFF70E
:1027B000BBFA0E48FFF758FA0136C4E703F07CF87D
:1027C000DFE7FFF7C1FE15490220FFF735FA3000B9
:1027D000FFF74EFA0125E0E730AB05103913002072
:1027E00043AB0510A08601005EAB05108DA405105B
:1027F00020A505103A130020FFFF00003E13002023
:1028000068AB0510E7A7051073AB051056A50510BA
:1028100082AB05103C130020A7AB0510BFAB051021
:1028200010B50248FFF720FA10BDC04658A70510A2
:1028300010B50248FFF718FA10BDC0464CA70510A6
:1028400001220A4B10B51A70094B0A481980FFF78C
:102850000BFA0298FFF70CFA0023074A0299C95CA9
:10286000D1540133062BF9D110BDC04639130020D5
:102870003A13002089A805102C19002000230121FB
:10288000054A10B51370054A05481170054A1380B2
:10289000FFF7EAF910BDC04639130020CD2900200A
:1028A00050A805103A13002010B504000348FFF7A4
:1028B000DBF9200002F0ACFF10BDC0462FA80510C8
:1028C000F7B50400074816001F000D00FFF7CCF90C
:1028D00000230197009629001A00200002F0D1FF82
:1028E000F7BDC04638A8051070B53B4888B01D003C
:1028F0000E000C9CFFF7B8F9384B1B8801339E4241
:1029000006D122001321012001F0BCFA08B070BDED
:10291000334B1B8801339E4244D12278637801A84F
:1029200002704370092A15D0E278A37812021A4384
:1029300023791B041A4363791B0613434360002366
:10294000284CE15CC21801331172132BF9D100F04D
:10295000E5FFDBE700224260012B0CD1A278224B7D
:102960001A70E278214B1A702279214B1A70627921
:10297000204B1A70E3E7022BE1D1A27963791202AE
:102980001A43E3791B041A43237A1B0613431A4A9A
:102990001360A278144B1A70E278184B1A702279DF
:1029A000174BE6E7174B1B8801339E4207D10023E4
:1029B0000C4AAB42AADAE15CD1540133F9E7124B7D
:1029C0001B8801339E42A1D10023104AAB429DDAFD
:1029D000E15CD1540133F9E787A7051012150020F7
:1029E00068140020E0280020122900200F29002070
:1029F000F6280020F728002014290020F8280020BD
:102A0000F92800201219002060140020FC28002062
:102A100010B50C1E0CD00A490220FFF70DF9094829
:102A2000FFF722F92000FFF77FF90748FFF71CF9AD
:102A30000648FFF719F90122054B1A7010BDC04670
:102A4000F1A7051010A8051020A505101DA8051058
:102A50003C130020F8B516001F0013480D00FFF7C7
:102A600003F91248FFF700F93000FFF75DF93C0069
:102A7000E31B9E420FDC0E4C2000FFF7F5F80D48DB
:102A8000FFF7F2F82800FFF74FF92000FFF7ECF806
:102A9000094B1D80F8BD0948FFF7E6F82078FFF7DD
:102AA00043F90134E4E7C04699A70510D8A70510FB
:102AB00020A50510E5A705103E1300208DA40510E4
:102AC00010B50248FFF7D0F810BDC04642A8051067
:102AD000F7B514240E000D0044430C19A54200D193
:102AE000F7BD2B78002B17D1B11C06226846FDF7E5
:102AF0003AFD0A48FFF7B8F86846FFF7B9F8084FFB
:102B00006846390000F0A6FB002805D00548FFF70D
:102B1000ABF8380000F080FB1435DFE75EA8051045
:102B2000CE29002065A8051070B586B0022842D1D4
:102B30002248FFF799F80622214904A802F0B3F8C9
:102B4000204E04A8310000F085FB041E33D11E483E
:102B5000FFF78AF83000FFF78BF81C4D335D2B55DB
:102B60000134062CFAD100F013FB2A0021000020CA
:102B700002F09DFE002803D015490220FFF75CF803
:102B8000144B00201A88144B1988144B019003939E
:102B9000102302930093030002F062FE002803D08A
:102BA0000F490220FFF748F80021280000F0A4FA9E
:102BB00000220C4B1A7006B070BDC04667A7051006
:102BC0008DA10510CE29002076A70510DC29002054
:102BD0000FA90510FA280020102900202229002022
:102BE0005FA90510F8250020012110B50800FDF7A8
:102BF000F3FF10BD07B506236A461371002300904A
:102C0000684693715371FDF70FFD07BD30B5002481
:102C1000050087B001A80471847144710195FDF726
:102C200003FD03A8039504940594FDF778FD0121A5
:102C30002800FDF79AFD07B030BD07B504236A46AA
:102C4000137100230090684693715371FDF7ECFCFB
:102C500007BD07B501236A4613710023009068463B
:102C600093715371FDF7E0FC07BD07B505236A4674
:102C7000137100230090684693715371FDF7D4FCE3
:102C800007BD00000023802030B5184A85B01370BE
:102C9000174A0121C0001370FDF79EFF1020FFF7B7
:102CA000CCFF2020FFF7C9FF1248FEF7DDFF01A986
:102CB0000A00114B31CB31C2104C01252000FDF729
:102CC0006DFD01212000FDF7CDFD6A460E2368460B
:102CD00013700B3B53709570FEF780F82A0008497B
:102CE0002000FDF7D8FD05B030BDC04620290020EA
:102CF000192900209BAC051094A105100000A040EC
:102D000020809F53F0B50E0087B0009001931B48C0
:102D10000CAB17001D783400FDF7CBFDA31B9F42C1
:102D200024DC6A46128803AC6280802200235201B0
:102D30002380E280A3809D421ED08023DB0123817B
:102D40008021012209030D486781FDF7A4FD2100C0
:102D50000A48FDF791FD0122094B1A70019A012AD8
:102D600002D11A78002AFCD107B0F0BD21780348BF
:102D7000FDF79AFD0134D1E72581E1E70000A0408D
:102D800020290020F0B5070089B008000F21029328
:102D90000026012369440870140038001A000096C8
:102DA000FFF7B0FF802305A95B01CB8080230125BD
:102DB000DB010A480B810D804F808E804C81FDF72E
:102DC0005BFD074A0299074B1160074A1D7014709A
:102DD0001A78002AFCD109B0F0BDC0460000A0401E
:102DE0001C290020192900201829002070B5002472
:102DF000094B1C70094B1B789C4203DB0848FDF70C
:102E00005DFD70BD074B06481D68FDF74FFD2D1990
:102E100028700134EEE7C046192900201829002047
:102E20000000A0401C2900208021002210B5034B87
:102E3000090303481A70FDF72EFD10BD202900205C
:102E40000000A04010B51B48FDF79BFB1A4C2070FA
:102E50001A48FDF796FB1A4B18701A48FDF791FBBC
:102E6000194B18701948FEF7FFFE2078FEF75CFF3B
:102E70001748FEF7F9FE174B174AFF21136000238E
:102E80001648890004338B420ED10023144915489B
:102E90001A1DA42A0AD100F0FBF9FFF723FBFFF764
:102EA000F1FE00F08DFA10BDD050EBE7C8501300D2
:102EB000EEE7C04680EF07101A19002081EF0710D7
:102EC0001015002082EF071016190020A8AC05107D
:102ED00020A50510341900201415002064140020CA
:102EE000C0130020F8140020024B8000C1500020C5
:102EF0007047C04614150020024B8000C1500020CE
:102F00007047C046C0130020024B8000C3581868A9
:102F10007047C04614150020014B185C7047C0462E
:102F2000D4290020F7B53F4F3B78282B04D9FF2246
:102F30003D4B1A7028233B703C48FEF795FE012458
:102F40003B4D2800FDF71DFB0600FEF7EDFE394B5B
:102F5000B600F25813681460374A93422CD120000F
:102F6000FFF748FE354B013564009D42E9D13448F6
:102F7000FEF77AFE00210120FDF7F7FB0021022079
:102F8000FDF7F3FB002301A8037003334370023BFA
:102F900083700E24FDF722FF2A4BE018FDF7F1FAAB
:102FA000244B80001B581C6001341E2CF4D10025DA
:102FB0003B789D421BDBF7BD002B03D12000FFF7C0
:102FC00025FECFE7204A934203D12000FFF735FECC
:102FD000C8E71E4A934203D12000FFF73AFEC1E73B
:102FE0001B4A9342BED12000FFF73FFEBAE7194BC0
:102FF000EC1864002000FDF7C4FA0600601CFDF721
:10300000C0FA272E05D8144BB600F35818700135B6
:10301000CEE7FF22114B124906201A70FEF70CFE74
:10302000F5E7C04616190020F8140020B0AC0510D2
:1030300090EF071014150020FFFF00009EEF07100F
:1030400020A5051092EF0710F0FF0000F1FF00002F
:10305000F2FF0000D8F70308C01300206A14002014
:10306000BDAC051070B5104D104C601EFDF789FA0F
:1030700028702000FDF785FA6870601CFDF781FA62
:10308000A870A01CFDF77DFAE870E01CFDF779FA46
:103090002871201DFDF775FA054B08346871063557
:1030A0009C42E2D170BDC046E426002001C007105A
:1030B00001C10710062242430D4B13B5D21800235D
:1030C0006C46D15C19550133062BF9D1094B009997
:1030D000C018C4002000FDF785FA6B46201D9988B2
:1030E000FDF780FA0120FDF795FA0128FAD113BD0A
:1030F000E426002000F8000270B50D0004000D4821
:10310000FEF7B2FD2800FEF70FFE0B48FEF7ACFD00
:103110002000FEF7ADFD06216943084BC9180023C6
:10312000E25CCA540133062BFAD10122044B1A7017
:1031300070BDC04626AD05108DA40510E426002004
:10314000401300200F4810B5FEF78EFDFDF722FA60
:103150007820FDF72FFA0120FDF75CFA0128FAD15B
:103160000948FEF781FD002420000134E4B2FFF796
:10317000A1FF202CF8D1FDF707FA0448FEF774FDF3
:1031800010BDC04633AD05104BAD051063AD051045
:103190006223F7B51C4C1D4E23700A336370043B49
:1031A000A37001AD0633E370307806332900237134
:1031B000FEF78EFD32782B78092A21D830226271F1
:1031C000A371752302220F26E37111490C3B114DA7
:1031D0002372535D180907003737092801D83030AA
:1031E0000700334018000F703730092B01D83033F7
:1031F000180048700231013AEBD26423E373F7BD43
:1032000063716B78DCE7C046222900201A19002080
:103210002B290020DC29002013B50400684606F0A5
:1032200017FC002803D00A490220FEF705FD6B4673
:103230001B7823706B46DB7863706B469B79A370B9
:10324000E123E370613B23717E3B637113BDC04694
:10325000D4AC051010B50A7804780023944215D137
:1032600044784A78944211D184788A7894420DD176
:10327000C478CA78944209D104790A79944205D174
:10328000437948791B1A58424341DBB2180010BDFC
:103290007FB5002358211C4AD1540133102BFBD198
:1032A000FFF7E0FE06221949684601F0FCFC062201
:1032B000002102A801F012FD154E69463000FFF70B
:1032C000C9FF144D041E14D102A93000FFF7C2FF3C
:1032D000002810D0104AA35C2B550134062CFAD1DB
:1032E00001220E4B0E481A70FEF7BEFCFFF750FF8E
:1032F0007FBD0024EEE7335C2B5401300628FAD161
:103300000022064B1A70F1E722290020A0A1051027
:10331000E4260020DC290020E2290020F8250020F6
:1033200001AD0510F8B5050000240626094F31004F
:1033300061432800C919FFF78DFF002801D0E0B2D2
:10334000F8BD0134202CF2D102200349FEF774FCB1
:10335000FF20F5E7E4260020F3AC0510202807D96C
:1033600000230B704B708B70CB700B714B717047DF
:1033700006225043064BC25C18180A7043784B7003
:1033800083788B70C378CB7003790B714379EDE749
:10339000E426002070B501240600084D20002C70A2
:1033A000FDF702FC3000FDF7D5FB21002020FDF7E2
:1033B000C5FB2B78002BFCD170BDC0462129002015
:1033C0001FB501211020FDF707FC0120FFF735FC98
:1033D0000420FFF732FC0220FFF72FFC4D48FEF7D8
:1033E00043FC02A802004C4B12CB12C2FDF76EFB4D
:1033F0000020FDF7B5FB0120FDF7C8FB0120FDF71C
:10340000D9FB0120FDF78CFB0523012401A80370E3
:10341000023B43708470FDF7E1FC0620FFF7BAFF22
:103420000820FF30FFF7B6FF0820FF30FFF7B2FF9C
:1034300082204000FFF7AEFF1620FFF7ABFF200011
:10344000FFF7A8FF0420FF30FFF7A4FF8020400013
:10345000FFF7A0FF2C20FF30FFF79CFF2C20FF3050
:10346000FFF798FF0A20FF30FFF794FFFA240420AB
:10347000FFF790FFA4002948013CFEF7F5FB002C64
:10348000F9D12000FFF786FFB020FF30FFF782FF61
:103490003020FFF77FFF9D204000FFF77BFF61207A
:1034A000FFF778FF80204000FFF774FFD82040002E
:1034B000FFF770FF0220FF30FFF76CFF8420400011
:1034C000FFF768FF8220FFF765FF89204000FFF7C4
:1034D00061FF5020FFF75EFF8820FF30FFF75AFFA3
:1034E0001020FFF757FF0E4C0220013CFF30FFF782
:1034F00051FF002CF8D11320FFF74CFF084C10208F
:10350000013CFF30FFF746FF002CF8D11220FFF7F7
:1035100041FF1FBD69AD0510A8A1051021A505102B
:1035200080B50000002110B5024B20201970FDF776
:1035300005FB10BD2129002010B51020FDF736FC39
:10354000002400280AD104000C4A0D491378CC54F9
:103550000133137011E0FDF715FCC4B21020FDF724
:1035600017FC0028F7D00D2CEED10022034B0448A5
:1035700019781A704254FEF793FC10BDDD26002026
:103580007C28002010B504002020FDF701FC012854
:10359000FAD0A0B2FDF7EEFB10BD10B50400207804
:1035A000002800D110BDFFF7EDFF0134F7E7000060
:1035B00070B5174C2378002B06D0164B1D78002DC4
:1035C00002D1FEF7C1FF257000F06EFC00F022FC76
:1035D00000F0FEF9104B1B78DBB2002B16D10F4A1E
:1035E0001178012902D1137000F02CFB0C4B1A78D2
:1035F000012A03D100221A7000F062F9094B1A78EF
:10360000012A03D100221A70FFF79CFD70BDC0464D
:10361000CD290020F8250020391300204213002076
:10362000411300204013002010B5FDF7F5FEFEF712
:1036300095FEFCF74BFFFEF7B5FAFFF703FCFFF72B
:10364000D3FA00F0E9F900F005FEFFF76BFC00F09B
:1036500013FEFEF751FAFEF7D3FA002807D1074808
:10366000FEF702FB02F028F9FFF7A2FFFAE7044891
:10367000FEF7FAFA0348FEF7F7FAFEE776AD051013
:1036800096AD0510B0AD051010B502490420FEF747
:10369000D3FA10BDE6AD051010B503200249FEF7C0
:1036A000CBFAFF2010BDC04602AE051010B50320B6
:1036B0000249FEF7C1FAFF2010BDC0466CAE0510EE
:1036C00010B5132805D903200449FEF7B5FAFF20E9
:1036D00010BD034B1B6818184078F9E71DAE0510A4
:1036E000E026002070B50D0004001048FEF7BCFA7B
:1036F0002800FEF719FB0E48FEF7B6FA2000FEF789
:103700001DFB1C2169430B4B60785A1850702078C0
:10371000C854606808315060C8182100132208316D
:1037200001F0C1FA0122044B1A7070BD92AE05106F
:103730008DA40510701E002041130020FF2130B51C
:10374000074B0848084C0022197059705C609D189E
:1037500001322972132AFAD11C338342F3D130BDCE
:10376000701E0020F0210020FFFF0000F8B5134C70
:103770002000FCF706FF124E124BA519EB1818702B
:10378000601CFCF7FEFE104B2700EB181870201D84
:10379000FCF7F5FE0D4B1B37ED18286025000835AA
:1037A0002800FCF7EEFE074BEB180135F054BD4244
:1037B000F6D1074B1C349C42DAD1F8BD04E0071067
:1037C000701E0020FC1FF8EFFD1FF8EF0020F8EF3F
:1037D00084E3071000231900124A10B51360124A3F
:1037E00012481370124A13701A181C331170E02B10
:1037F000FAD1104B104A114813600123104C990064
:10380000132B0DDC54500133FF2BF8D100230D4A4C
:103810000D49D1500433302BFBD1FFF7A7FF10BD6A
:103820005050F0E7F42500206C1E0020FC250020FD
:10383000F0250020AD360410F42100209936041044
:10384000C1360410A42700208936041070B51C244A
:103850004443174D174B6619E0183188FCF7C2FE38
:10386000154B7168E018FCF7BDFE230000260833F5
:103870005D19124BE4180023102E01D0EB781B06C3
:10388000A9782A7809040B436978043609021143A0
:1038900020001943F6B2FCF7A5FE04350434142EBB
:1038A000E9D10120FCF7B6FE0128FAD170BDC0466F
:1038B000701E002004E0071008E007100CE007105D
:1038C0000F4810B5FEF7D0F9FCF764FE7C20FCF73A
:1038D00071FE0120FCF79EFE0128FAD10948FEF78F
:1038E000C3F9002420000134E4B2FFF7AFFF202C1D
:1038F000F8D1FCF749FE0448FEF7B6F910BDC04602
:10390000ABAE0510C6AE051063AD0510024B8000CE
:10391000C15000207047C046A4270020F7B51C27DF
:10392000134E144C337805007B431B5D0193002B31
:1039300004D011490120FEF77FF9F7BD0F48FEF7CB
:1039400093F92800FEF7FAF933785F43E4190ECDB6
:103950000EC40ECD0EC42B68236033780133DBB266
:1039600033703378072BE8D96B461B793370E4E763
:103970006C1E0020FC250020C1AD0510D6AD051041
:1039800003001C2010B55843024BC018FFF7C6FFB8
:1039900010BDC046701E002010B504000948FEF797
:1039A00063F92000FEF7CAF923780B2B05D8064AE5
:1039B0009B009B582000984710BD04490420FEF747
:1039C0003BF9F9E742AE0510A427002054AE0510DC
:1039D00070B51C250D4C0E4E23786B43985D002866
:1039E00013D020780B4B684380191860FFF7D4FF81
:1039F0000022237801205D432378AA550133DBB2EE
:103A000023702378072B00D9227070BDF025002089
:103A1000FC250020F425002010B5FFF7DBFE00F0A8
:103A20001DFA00F069F810BDFF2210B50B4B0C48D1
:103A300000211A705A709A705C180131E2701329D3
:103A4000FAD100215C180131A2751329FAD129336A
:103A50008342EDD10122034B1A7010BD4C19002096
:103A60006C1E002042130020F8B50024184BE0180B
:103A7000FCF787FD174E184BA5192870E018FCF7C6
:103A800080FD164B6870E018FCF77BFD144BA870A6
:103A9000E518144BE7182800FCF773FD124BEB18E0
:103AA0000135F054BD42F6D1104BE518104BE71824
:103AB0002800FCF766FD0F4BEB180135F054BD42B2
:103AC000F6D1A4232934DB009C42CFD1F8BDC046F7
:103AD00003D007104C19002004D0071005D00710A0
:103AE00007D007101AD00710FC2FF8EF1BD00710D3
:103AF0002ED00710FB2FF8EF10B5FFF7B5FF00230E
:103B00001900064A06481360064A1370064A1370E5
:103B10001A1815331170A82BFAD110BDE026002019
:103B2000D4270020F0210020DC260020F8B50C006E
:103B300005001448FEF798F82000FEF7F5F8124843
:103B4000FEF792F82800FEF761F929201326444376
:103B50002B780E4FE01CE3556A783B195A70AA780F
:103B6000E91C9A70C019320001F09DF8200029006C
:103B700016303200C019163101F095F80122044BBD
:103B80001A70F8BD79AF05108DA405104C190020EE
:103B900042130020F7B5292400264443254FE51C95
:103BA0003B1999785B7809041B021943E35DED1911
:103BB0001943214BE018FCF715FD204BE318019346
:103BC0000023102E01D0EB781B06A9782A7809046F
:103BD0000B4369780198090211431943FCF702FD70
:103BE000019B04360433F6B204350193142EE7D159
:103BF000230000251633FF18114BE4180023102D65
:103C000001D0FB781B06B9783A7809040B43797820
:103C100004350902114320001943EDB2FCF7E2FC20
:103C200004370434142DE9D10120FCF7F3FC0128FA
:103C3000FAD1F7BD4C19002003D0071007D00710A8
:103C40001BD007100F4810B5FEF70EF8FCF7A2FCCA
:103C50007A20FCF7AFFC0120FCF7DCFC0128FAD14C
:103C60000948FEF701F8002420000134E4B2FFF710
:103C700091FF202CF8D1FCF787FC0448FDF7F4FFF6
:103C800010BDC04690AF0510A9AF051063AD05107B
:103C900084B0F8B51527144C09932378134E7B4351
:103CA0009D5D069007910892002D07D010490120D4
:103CB000FDF7C2FFF8BC08BC04B018470D48FDF77B
:103CC000D3FF06A8FEF772F820783A00784306A9D9
:103CD000301800F0E8FF23780133DBB2237023783B
:103CE000072BE7D92570E5E7F0210020D427002035
:103CF000E1AE0510F6AE0510F8B5070000253B4E05
:103D000072783B789A4234D1B2787B789A4230D13B
:103D100000243748FDF7A8FF2800FEF705F8F31C3C
:103D2000BA1CD97C002955D0012927D118781178DF
:103D300088424FD02F48FDF797FFFF202040FDF726
:103D4000F3FF2D48FDF790FF3B199878FDF7ECFF46
:103D50002A48FDF789FF29236B43244AD3181C19ED
:103D6000E078FDF7E1FF2648FDF77EFF2548FDF7E7
:103D70007BFF01352936202DC2D1F8BD022913D190
:103D800018781178884225D31A48FDF76DFFFF2077
:103D90002040FDF7C9FF1848FDF766FF3B199878EA
:103DA000FDF7C2FF1848D4E7032913D1187811781A
:103DB00088420FD80F48FDF757FFFF202040FDF73E
:103DC000B3FF0D48FDF750FF3B199878FDF7ACFFA6
:103DD0000E48BEE7013401330132132CA1D10C4847
:103DE000FDF742FF3078FFF7CBFDC2E74C1900200A
:103DF00006AF051024AF05102CAF051034AF051029
:103E0000FEAC05106FAF051040AF051053AF0510A5
:103E100066AF051070B515250D4C0E4E23786B431B
:103E2000985D002813D020780B4B684380191860E8
:103E3000FFF762FF0022237801205D432378AA5513
:103E40000133DBB223702378072B00D9227070BDB9
:103E5000DC260020D4270020E026002000231900C3
:103E600003481A18013311700C2BFAD17047C04661
:103E7000EC140020024B8000C15000207047C04667
:103E80009013002070B504000D0016000448FDF7E3
:103E9000EBFE044BA40031002800E358984770BDA6
:103EA000CCAF05109013002010B50024074BE0B2F2
:103EB000E3181A78012A04D1002119700A00FFF7CB
:103EC000E1FF01340C2CF1D110BDC046EC140020F0
:103ED00010B506F0B3FC10BD10B5FCF7EFFA10BD3D
:103EE00010B5FFF729FB10BDF8B51648FDF7BCFE6D
:103EF0000124E6B23000FFF707F8134B421E05001D
:103F00009A421AD83000FFF707F8061E15D028008D
:103F1000FCF73CFC070001280FD12800FCF730FC1F
:103F20000A4B1A78002A05D000221A700848FDF7BB
:103F30009BFEF8BD074B9F55F8E70134092CD8D1FB
:103F4000F4E7C046C2AF0510EFFF000043130020A6
:103F500020A50510EC14002010B500F081FB10BD69
:103F6000802110B509031448FCF7AEFC00281AD0D4
:103F7000FEF75AFF802110480903FCF7ABFC8021B3
:103F80000D484905FCF7A6FC80210B480902FCF707
:103F90009BFC002806D0FEF729FF80210648090275
:103FA000FCF798FC10BD802103484905FCF78CFC08
:103FB0000028DDD1E8E7C0460000A04010B5FFF7BB
:103FC000B1FA2020FCF7DAFD10BD000030B50F4833
:103FD00089B00D00FDF748FE012302AC0C482370A8
:103FE000FFF7A0F900236070E95CE21801339170DB
:103FF000132BF9D16B46069A009206AA12791A7110
:104000000FCCFFF745FE09B030BDC046F0AF05103C
:104010002C19002010B5040086B00E48FDF724FED0
:1040200060786946FFF79AF969460B48FFF712F97D
:104030000834011E04D02000FDF736FD06B010BD87
:1040400002A8FDF779FA02AB220013216846FEF7B9
:104050001BFBF3E7DEAF0510DC29002010B5044997
:104060000120FFF707FF03490120FFF74FFC10BDB8
:10407000CD3F04101540041070B517488CB0FDF703
:10408000F3FD164D03AE2878330002220021FEF71F
:1040900079FE082306AC32782370073B6370A27068
:1040A000727804A9E2700E220A70F1324A708A70A6
:1040B000CA700A712878FA3A0093FEF723FE6B461D
:1040C0000A9A043400920AAA12791A7106980ECC40
:1040D000FFF7DEFD0CB070BD0FB0051038290020D1
:1040E000F0B50027050085B02D48FDF7BDFD2D4B2F
:1040F00002AE0222002118783300FEF743FE30782A
:1041000003AC607027707378A370FDF70DFE26482E
:10411000FDF7AAFD7078FDF707FE2448FDF7A4FD22
:104120006A78012A16D12B7A032B0ED9043B9A40C8
:1041300063785A4062701B4B0322187801232100D8
:104140000093FEF7DFFD05B0F0BD9A40A3785A401A
:10415000A270F0E70123022A0ED12A7A032A05D998
:10416000043A9340627813436370E4E793401A0083
:10417000A3781343A370DEE7032A0CD12A7A032A1B
:1041800005D9043A93401A0063789343ECE79340CF
:10419000A2789A43DCE7042ACDD16770A770CAE7FA
:1041A00002B00510382900208DA4051020A50510A7
:1041B00000232022084910B50B60084B08201A7014
:1041C000FEF792FE06490820FFF754FE0549082035
:1041D000FFF79CFB10BDC0463C2900203829002079
:1041E00079400410E140041070B5174B88B01B688B
:1041F000002B27D00124154D0722290004A800F028
:1042000052FD134E23003078072204A90094FEF7D4
:1042100079FDE91D072206A800F045FD307823004E
:10422000072206A90094FEF76DFD290005220E3134
:1042300002A800F038FD307823000094052202A97E
:10424000FEF760FD08B070BD3C290020B0A105104C
:104250003829002010B5FFF701FF00F0E1FA00F067
:1042600001FC00F0BFFA00F07FFB00F0B1F900F0B4
:10427000AFF8FFF79DFF10BD10B500F0BBF900F0DF
:10428000B5FC00F0B5F8FFF7AFFF10BDF0B54A4838
:104290008FB0FDF7E9FC03AE4848FDF7E5FC3300BD
:1042A0000122B4212920FEF76DFD0D2301226B446C
:1042B000B5212920FEF766FD0E2301226B44B621AD
:1042C0002920FEF75FFD0F2301226B44B72129202F
:1042D000FEF758FD0024305DFDF726FD3848FDF758
:1042E000C3FC08AD325D2B1901349A70042CF2D155
:1042F0003448FDF7B9FC00222B1901349A70132CB5
:10430000FAD10B2330482B700A3B6B70FDF7ACFCE5
:10431000A42304AC237033780022132B01D9143B5F
:10432000DAB2012762703B000222210029200097A7
:10433000FEF7E8FCA5232370737802226370210046
:104340003B0000972920FEF7DDFCA623327823707E
:104350005933991A132902DD13001433DBB20127F4
:10436000637021003B00009702222920FEF7CAFC5F
:10437000A723237073782100637002223B0000970B
:104380002920FEF7BFFC1148FDF76EFCE7233A0039
:10439000237021003B0000972920FEF7B3FC6B46F9
:1043A0000C9A043500920CAA12791A7108980ECD55
:1043B000FFF76EFC0FB0F0BD6CB005107AB00510C1
:1043C0008DA4051020A5051095B00510AFB00510FF
:1043D000002310B5044907200B60FEF785FD034953
:1043E0000B20FFF747FD10BD582900208D42041017
:1043F00070B54E4B88B01B68002B00D194E04C4840
:10440000FDF732FCA023012504AC237049488D3B05
:104410006370FDF729FC2B00022221000095292062
:10442000FEF770FCAC23444823706570FDF71CFC5C
:104430002B000222210000952920FEF763FC03AE29
:104440003E48FDF711FC2A003300B4212920FEF775
:1044500099FC0D232A006B44B5212920FEF792FC1C
:104460000E232A006B44B6212920FEF78BFC0F2374
:104470002A006B44B7212920FEF784FC0025705DDB
:10448000FDF752FC01352E48FDF7EEFB042DF6D169
:104490002C48FDF7E9FB2C48FDF7E6FBA42323702D
:1044A00033780022132B01D9143BDAB20125627054
:1044B0002B000222210029200095FEF723FCA523D2
:1044C000237073780222637021002B00009529204D
:1044D000FEF718FCA623327823705933991A132952
:1044E00002DD13001433DBB20125637002222B00BE
:1044F000210029200095FEF705FCA723237073787F
:104500000222637021002B0029200095FEF7FAFBA0
:104510000E48FDF7A9FBE7232A0023702100009530
:104520002B002920FEF7EEFB08B070BD58290020B3
:104530001CB0051034B0051054B005107AB0051049
:104540008DA4051020A5051095B00510AFB005107D
:1045500010B504001C48FDF787FB6278022A1CD0C6
:10456000032A2BD0012A17D10720184B197D81432C
:104570000A431A75217AFF22002901D00F224A43EB
:104580009A801A810122382152429A811A7D8A43E7
:10459000110008220A431A7510BD07220B490B7D32
:1045A00093431A00012313430B75227AFF23002A39
:1045B00001D00F2353438B800B81EDE70721034A82
:1045C000137D8B431375E7E7C4B005100000E0408E
:1045D00010B50549054B05200B60FEF785FC044925
:1045E0000A20FFF793F910BD34290020F1FF0000E5
:1045F000514504101FB5174A174B12689A4228D824
:10460000802001214001FCF7E7FA8023002402A961
:10461000CB7012487F338B80CB800C704C708C70C9
:10462000FCF75AF901210D48FCF79AF92100012203
:104630000A48FCF79FF9142301A803700134113BC9
:1046400043708470FCF7CAFB220008210348FCF782
:10465000A5F91FBD34290020FFEF00000000E04055
:10466000072210B505480821037D93430375037D98
:10467000313293430375FCF79CF910BD0000E04014
:1046800010B50248FDF7F0FA10BDC04675B105102F
:10469000F0B504008DB04048FDF7E6FA60780138C7
:1046A000052822D8FBF750FD03233B686E743B4876
:1046B000FDF7DAFA3A4B01AC1B7813222370394B21
:1046C00039491B786370394B1B78A3706B46D81D32
:1046D00000F0E9FA1A2036491322684400F0E3FAA0
:1046E000344B20001978FFF721FA0DB0F0BD3248A5
:1046F000FDF7BAFA314B01AC1B7813226370304BD3
:1047000029491B7803A823702E4B1B68029300F0E5
:10471000CAFA234B20001978FEF7E4FFE5E70025ED
:10472000277A002F06D1002DDFD127490520FDF77C
:1047300083FADAE7052301AEE21A927B9A55013B30
:10474000FAD22248FDF790FA2148FDF78DFA380099
:10475000FDF7EAFA1F48FDF787FA3000FDF788FAFF
:104760001C48FDF781FA073539003000FEF7C4FC1C
:104770000734152DD4D1B8E71748FDF775FAFFF7C0
:1047800053F9B2E71548FDF76FFAFEF7D7FFACE72C
:104790001348FDF769FAA8E7D3B00510E0B005109B
:1047A00012290020F6280020E0280020F728002009
:1047B000FC2800200F290020F5B00510F928002062
:1047C000F8280020142900200CB1051030B1051084
:1047D000B8A5051020A5051044B1051054B1051069
:1047E00066B1051010B504490920FFF743FB0349E2
:1047F0000920FFF78BF810BD814604109146041084
:1048000010B50248FDF730FA10BDC0468EB1051054
:1048100010B50248FDF728FA10BDC04682B1051058
:1048200010B5094B094902200B60FEF75DFB0849F2
:104830000220FEF761FB07490220FFF71BFB064938
:104840000220FFF763F810BDFFFF00004829002099
:1048500054290020014804101148041010B50248E2
:10486000FDF702FA10BDC046E2B1051010B5040014
:104870003348FDF7F9F96378022B22D0032B3FD0A0
:10488000012B17D1247A2F48FDF7EEF92000FDF710
:104890004BFA2D48FDF7E8F9032C0BD820002B4BE1
:1048A000FBF752FC02090B0D294A1068984201D00F
:1048B000FBF72FFF10BD274AF7E7274AF5E7274AFE
:1048C000F3E7247A2648FDF7CFF92000FDF72CFA0C
:1048D0001D48FDF7C9F9032CECD820001B4BFBF752
:1048E00033FC02090B0D1A4A10689842E2D0FBF71C
:1048F00008FFDFE7174AF7E7174AF5E7174AF3E734
:10490000247A1848FDF7B0F92000FDF70DFA0E489B
:10491000FDF7AAF9032CCDD820000C4BFBF714FCB3
:1049200002090B0D0A4A10689842C3D0FBF7EDFE4E
:10493000C0E7084AF7E7084AF5E7084AF3E7C04640
:104940009AB10510A8B1051020A50510FFFF0000C1
:10495000402900205C2900204C2900204429002007
:10496000BBB10510CEB1051070B5104B104E114DF6
:10497000114C124901200B6033602B602360FEF75D
:10498000B3FA31000220FEF7AFFA29000320FEF748
:10499000ABFA21000420FEF7A7FA09490720FFF728
:1049A00069FA08490720FEF7B1FF70BDFFFF00005C
:1049B0005C2900204C2900204429002040290020A7
:1049C0005D4804106D48041010B50248FDF74CF91D
:1049D00010BDC046DFB2051030B521488BB0FDF7E1
:1049E00043F9052303AD04AC237001222B00002101
:1049F0002B20FEF7C7F901222B78110063702B20C2
:104A00002B00FEF7BFF92B780122A37002212B00A7
:104A10002B20FEF7B7F92B780122E37003212B003E
:104A20002B20FEF7AFF92B780421237101222B00F4
:104A30002B20FEF7A7F92B78002163710423E218DD
:104A400001339170132BFAD16B46089A009208AA91
:104A500012791A710FCCFFF71BF90BB030BDC046AD
:104A6000F4B20510002310B5064906200B60FEF7CE
:104A70003BFA05490520FFF7FDF904490520FEF73B
:104A800045FF10BD50290020D9490410C949041020
:104A90000D23F0B501258BB006AC274E070023701F
:104AA00026480333039163703570FDF7DDF8022269
:104AB00021002B002B200095FEF724F90E2320481F
:104AC00023706770FDF7D0F82B00009502222100BB
:104AD0002B20FEF717F900232370013303995A1E88
:104AE0008A5CE254082BF8D101251648FDF7BCF882
:104AF000092221002B002B200095FEF703F90D233E
:104B00002370002310486370FDF7AEF82B2000954A
:104B10002B0002222100FEF7F5F80C48FDF7A4F85F
:104B20003178C9B20029FBD105AB01222B20FEF759
:104B300029F90BB0F0BDC04643130020A7B2051001
:104B4000B4B20510C3B20510CDB20510DAB205102B
:104B50000D2370B5012588B004AC060023701E48F3
:104B60000B336370FDF780F82B00022221000095C3
:104B70002B20FEF7C7F80E23184823706670FDF748
:104B800073F82B000222210000952B20FEF7BAF8C3
:104B900002AE1348FDF768F83300082200212B20ED
:104BA000FEF7F0F80025705DFDF7BEF801350D4801
:104BB000FDF75AF8082DF6D10D23237000230A487B
:104BC0006370FDF751F801230222009321002B208E
:104BD000FEF798F808B070BDA7B20510B4B2051082
:104BE00009B305108DA4051013B3051030B51B4B88
:104BF00085B01B68002B2ED01948FDF735F801ABA6
:104C0000012200212B20FEF7BDF800241548FDF7F6
:104C10002BF82000FDF788F8134D2800FDF724F845
:104C20001249E00009180134C0B2FFF731FF102C1F
:104C3000ECD100240E48FDF717F82000FDF774F8BA
:104C40002800FDF711F8E000C0B202A90134FFF717
:104C50007FFF102CEED105B030BDC046502900209A
:104C600070B2051088B2051020A50510F0B105102E
:104C70009CB2051010B500F01FF810BD10B50A2247
:104C8000002100F019F910BD30B50024A24201D175
:104C9000002005E0035D651C0C5DA34201D0181BDC
:104CA00030BD2C00F2E7002310B59A4200D110BDB0
:104CB000CC5CC4540133F8E710B5884202D98B1894
:104CC000984208D300239A4207D0CC5CC4540133E5
:104CD000F9E78B5C8354013AFBD210BD03008218C4
:104CE000934200D1704719700133F9E7031C0A7829
:104CF00001311A700133002AF9D17047F8B5134B0E
:104D000006001D680F00E8352C68002C16D15020D5
:104D100000F0F4F92860046044608460C4600461B9
:104D2000446184618462C462046344638463C463D1
:104D3000046444648464C464047744622A68390067
:104D40003000012300F004F8F8BDC046E829002037
:104D5000F0B5002804D11068002801D1F0BD200072
:104D60000E000578441C3778002F04D1002D10D197
:104D700015602800F2E70136BD42F4D1002BEED1D8
:104D800014600370EAE733000EE001351C00002FC9
:104D900002D10D002678631C2F78BE42F5D1002E7B
:104DA000F1D00024591E0C701360D7E7F0B51F0036
:104DB0000E0087B00590039102920C98347800F0B1
:104DC00097F9082200194378751C13400CD12D2C3B
:104DD0000CD101332C780193B51C002F0CD0102F6F
:104DE00014D1302C0AD011E02E00E6E701932B2CD1
:104DF000F3D12C78B51CF0E7302C2FD120222B7862
:104E00009343582B51D110276C780235019B294AC6
:104E100039009E183000FBF727FA30000491390062
:104E2000FBF79CF901210023494202008C4618003F
:104E300021003039092913D80C00A7421CDD591C68
:104E400009D06346824206D302D10499A14202DB13
:104E50000123784320182C780135E9E70A27D5E7A4
:104E600021004139192901D8373CE6E72100613991
:104E7000192901D8573CE0E75A1C08D1059A233379
:104E80001360029B3000002B0BD107B0F0BD019ADC
:104E9000002A00D04042029A002AF6D0039A002B42
:104EA00000D06A1E029B1A60EFE73024002FADD1BC
:104EB0000837ABE7FFFFFF7F37B51300064A050051
:104EC0001068046A002C00D1044C0A0000942900E8
:104ED000FFF76CFF3EBDC046E8290020DC2A002019
:104EE000F7B5254F0C00050000F028FB3800032221
:104EF000224E1138B368001B5B6839009343C01819
:104F00000193FBF72BF9441E7C43BC4204DA2800D2
:104F100000F01CFB0020FEBD0021280000F01EFB5D
:104F2000B368019A9B189842F1D16142280000F0C1
:104F300015FB431C10D10021280000F00FFBB268C4
:104F4000811A0F29E3DD0E4B1B68C01A0D4B186048
:104F500001230B435360DAE7B2680126019B280066
:104F60001B1B33435360074B1A68141B1C6000F073
:104F7000EDFA3000CFE7C04680000000482C00204A
:104F80005030002044130020F7B50D1E01902DD0A5
:104F900000F0D4FA012329009C4608394F68624684
:104FA0003B0066469343C8184568023295434A4A17
:104FB00037409668B0421AD15B19002F06D10868B5
:104FC000091A8D681B18C868E860856001201843BD
:104FD00048609160414A1268934204D3404B019863
:104FE0001968FFF77DFF019800F0B0FAF7BD0026C1
:104FF0004560B74209D10F683A4CC91BDB198F686D
:10500000A7422BD0CC68FC60A76047197C680127B9
:105010003C420BD15B198568002E21D1314CA54251
:105020001ED13E0051611161CD608D6001200500EF
:105030001D434D60CB50002ED5D12B4DAB4213D824
:10504000DB089D10A8405468DB00204350609A188C
:105050009368CA608B609160D960C4E76646D4E704
:10506000C068E8608560E1E75D0A042D12D8980900
:105070003830C600B618B5680327AE4225D10123E3
:1050800080108340506803435360CE608D60B160F0
:10509000E960A8E7142D02D828005B30E9E7542D19
:1050A00002D8180B6E30E4E7AA204000854202D8EF
:1050B000D80B7730DDE70D4E7E20B542D9D8980C5D
:1050C0007C30D6E7AD68AE4203D06A68BA439342FB
:1050D000F8D3EE68D9E7C046482C002054300020B1
:1050E00074130020502C0020FF0100005405000024
:1050F000EC300068704770477047000010B5034BF4
:105100000100186800F004F810BDC046E82900202E
:10511000F0B50D0085B00B350190162D08D9072389
:105120009D4306D50C23019A1360002005B0F0BD05
:1051300010258D42F6D3019800F000FAF823FF33D2
:10514000BA489D421FD82A000832821811005468BC
:105150000839EB088C4203D1D4680233A24229D02B
:1051600003236268A1689A431300E268E318CA60E7
:105170009160012259680A435A60019800F0E6F9EB
:1051800020000830D2E76A0A3F23002A03D0042A0D
:1051900028D8AB09383303229446D9000918CC68C3
:1051A0008C4206D066466268B243571B0F2F31DD32
:1051B000013B01330100046908318C424ED00322C7
:1051C000666896433200761B0F2E31DD0127631986
:1051D0003D433743656043610361D96099605F6017
:1051E000A650CAE7142A02D813005B33D3E7542A27
:1051F00002D82B0B6E33CEE7AA235B009A4202D86B
:10520000EB0B7733C7E78A497E238A42C3D8AB0CBE
:105210007C33C0E7E668002F08DBA368DE60B3607C
:105220000123A21851680B435360A6E73400B7E787
:1052300041610161002EF3DA7E498A4242D8D208E8
:10524000FF399610FF39B1404668D20031434160C2
:1052500010188268E060A2608460D4600122991016
:105260008A4072494868824200D997E0104205D1CD
:105270000324A343520004331042FBD09C46D800C1
:1052800008180290029CE468029EB44258D134008F
:10529000083402940124A444644603263442F1D124
:1052A0000324234274D14B6893434B6048685200F7
:1052B000824273D8002A71D063461042DED1043393
:1052C0005200FAE7560A042E16D891093831CF0059
:1052D0003E1803270296BC46B668029FB74227D104
:1052E000012289108A4041680A434260029AA660FE
:1052F000E2609460F460B1E7142E02D831005B31B3
:10530000E5E7542E02D8110B6E31E0E7AA214900DF
:105310008E4202D8D10B7731D9E7454F7E21BE426C
:10532000D5D8910C7C31D2E7B6680299B14204D04D
:105330006046716881438A42F6D3F2680292D5E7EB
:1053400003266768B74303977E1B0F2E11DD0122EA
:10535000631915436560E068A5680831E860324369
:105360008560CB608B60D96099605A603B00E650E5
:1053700003E7E768002E09DB0122039BE318596865
:105380000A435A60A368DF60BB60F6E63C007BE737
:1053900008388468013BA04282D087E703238F68E6
:1053A0007A689A430292954203D8521B0F2A00DD75
:1053B0009FE0029BFB1803931F4B1E681F4B103688
:1053C0001B687619013305D01D4B013B9E191C4B00
:1053D0005B421E403100019800F0C0F80400431CFD
:1053E0005FD0039B834202D9104B9F4259D1154B8A
:1053F0001A68B1181960124B5A1E039BA34227D199
:10540000134225D1029A094B921901269B68164333
:105410005E600C4B0C4A1B6811688B4200D913600C
:105420000A4A11688B423CD913603AE0482C0020AC
:1054300054050000FF0100007413002050300020CC
:1054400080000000441300206C1300207013002023
:105450002D4B1868013032D11C600720204002D04B
:105460000823181A2418294BA61918181640861B49
:105470003100019800F072F8431C01D12000002691
:10548000234A001B13689B1913600123214A8619C4
:105490001E43946066609742BBD0029A0F2A14D8CC
:1054A000636003221B4B9B685B6893435A1B9D42BE
:1054B00001D80F2A1DDC019800F048F835E6039B5F
:1054C000E31A5B1812490B60C7E70722029E0C3EE5
:1054D00096437A681340052233437B60BB195A60B8
:1054E0009A600F2E95D9390001980831FFF74CFDCD
:1054F0008FE701231800074928438C681343651977
:1055000060608D606B6038E65030002080000000E5
:1055100044130020482C002082B0002900D101A9AA
:10552000101E06D0002B06D013780B601078431E97
:10553000984102B0704702204042FAE710B5024895
:10554000FFF7D9FD10BDC0466829002010B50248FC
:10555000FFF7D2FD10BDC04668290020002370B5BA
:10556000064C050008002360FBF7DAFC431C03D15E
:105570002368002B00D02B6070BDC046602900203E
:105580000B1E04D0FF2A04D98A2303608B3B18002A
:1055900070470A700123FAE7F0B5054600200F4670
:1055A000079E059C174309D0202905D30127BF0377
:1055B000BA4201D8914201D94220F0BD1946214397
:1055C0000AD09C42F8D309498C4203D00849A41F51
:1055D0008C42F1D2062BEFD3002D03D0022D01D047
:1055E000032DE9D1032EE7D8F0BD0000FFFF000036
:1055F0007B0C0000FFB58DB0144618AAECCA0497C6
:105600006F466CC70A46014605A8179B04F0B4FA1A
:1056100000280AD108A84471012C08D0002C06D01B
:10562000022C04D0032C02D0422011B0F0BD09A8F6
:10563000062202301099FAF796FF08A91698087307
:10564000C0B20328F0D805A800F072FBEDE77CB5E6
:10565000069D079C002805D0860705D1460703D480
:10566000060701D442207CBD002903D0012901D0C6
:105670000229F7D10095019400F0B0FB7CBD000039
:10568000FFB58DB0179F169D1446060004D0012E5D
:1056900002D0422011B0F0BD0E98002801D00128A0
:1056A000F7D1E81F0A28F4D2102FF2D8AF42F0D376
:1056B0001898002801D00128EBD114491998884284
:1056C000E7D81A98002801D00128E2D1FBF711FD94
:1056D000012804D01098204306D01120DAE7022CCC
:1056E000D7D810980128D4D8684686700E99C17012
:1056F000047310994173057147711899C171199814
:10570000029068461A990FF053FEC3E73F420F001C
:10571000FFB587B0109D159E169C019302950094CD
:1057200007A807C81F463346FFF736FF00280ED1EB
:105730001398149903AA069443C2119812990190E0
:105740000095029107A807C83B4600F0D7FC0BB0B4
:10575000F0BD10B500F0EEFC040002D101200BF00A
:10576000C1FA204610BD10B500F0FAFC10BD10B50E
:105770000BF048FB10BD70B51C4613460D46012CBE
:1057800003D0022C03D0422070BD022200E0102280
:105790001946FAF7E8FE2C70002070BDF0B587B00E
:1057A0001C460B46054600A9023101A80C9F0D9E20
:1057B000FFF7E1FF00280ED16846058084828775D7
:1057C000C6750E9901760F994176109981766946D2
:1057D000119802F087F807B0F0BD70B586B0144696
:1057E0001D460A4603466946881C0A9EFFF7C3FF0A
:1057F000002804D1012C04D0022C02D0422006B093
:1058000070BD23462A466946304602F0B1FAF6E7F3
:1058100010B50022114602F05BFB10BD70B586B0DA
:105820000D46144606466946881C0A9AFFF7A3FFF0
:10583000002805D16B4622462946304600F09CFFE1
:1058400006B070BD10B502F06DFE10BD38B56D46E6
:10585000049C2A806B8023466A4603F007F938BD12
:10586000F0B585B084460AA8F0C868468581C6812F
:1058700003A8019002970094604603F02BF905B04D
:10588000F0BDFEB56C46099E089D208061802271A6
:105890006371E5806846029602F092FBFEBD10B58A
:1058A00001F05EFA10BD10B503F044FE10BD10B556
:1058B00003F062FE10BD000010B504F091FA1E4C1A
:1058C0004721206849014118097A002909D1A030EF
:1058D0000079C00729D004F00BF803F061FF10F045
:1058E000D1FE00F003F92068014640310A78C979F9
:1058F0008A4319D13E21095C002915D10F490A8834
:10590000120711D50922D2061269497A836AC900A1
:10591000591809231B02C018406D801A000200129A
:10592000814201DA0CF084FE10BD00F0C7FB02F0EA
:1059300093FC0DF00FFED0E7BC290020C000002032
:1059400010B5837F0122002492024168082B03D9FD
:105950004224914202D310E0914201D242240CE051
:10596000014634220648FAF7FEFD00F07FF80028D1
:1059700001DA482401E000F029F9204610BD0000BA
:10598000DC0200203EB5174D15482968827F084685
:10599000A0310A7300246030047644768476E122D4
:1059A000C2768022027702224277302008704C7043
:1059B00002AA01A96846FAF7C5FD68460078A22246
:1059C00001016846007A891C00020143684600799B
:1059D0000003014328681152A03004713EBD00004D
:1059E000DC020020BC29002070B504F0DDF90CF0C9
:1059F000D3F80AF083FD11F059FC04F0ABFB184C0E
:105A000018492068184D4018811001202A68C002EA
:105A10001018816661688908C166A16889080167F4
:105A20000FF054FC1D2029688001228B0818028782
:105A3000628B4287A28B4286628C8286204620300F
:105A400002783B204001081882750021017000F0A7
:105A5000C3FA03F0B3FE03F03BFE10F099FE70BDF5
:105A6000DC0200200000FCEFBC29002070B50025FE
:105A7000ED43FBF728FB01282ED000231849032211
:105A8000888BFF24401E10438A7F4D346243821866
:105A9000088B282460431218488B30246043121866
:105AA0000846203040782C24604310180D4A1818FE
:105AB00084184869A0420DD10B4884420AD90D6967
:105AC000FBF701FBC1B2284609F076F909F0A4FA08
:105AD000401B251A284670BDFF23B533CEE70000D2
