:020000041004E6
:1000000000600020650E04100D0E04100F0E041089
:10001000AA5555AA45554C420000000000000000BA
:10002000000000000000000000000000110E04109D
:100030000000000000000000130E0410452C041006
:10004000552C0410150E04100000000000000000E4
:100050004D2C0410170E04103D2C0410230E041018
:100060000000000000000000000000000000000090
:1000700000000000250E0410270E0410290E0410A5
:1000800000000000190E04101B0E04101D0E0410B9
:100090001F0E0410210E0410090E04100B0E041084
:1000A0000000000000000000000000000000000050
:1000B0000000000000000000000000000000000040
:1000C000F0B543464C4655465E466746F8B40E4C7E
:1000D0006B4623600D4C20680D4C20600D4C206851
:1000E0000D4C20600D4C20680D4C2060BFF34F8FED
:1000F00030BF054C2468A546F8BC9846A146AA46E0
:10010000B346BC46F0BDC0460800002004ED00E048
:100110005003002024ED00E04403002000E200E052
:100120005403002002780B78002A03D001300131FB
:100130009A42F7D0D01A7047002243088B4274D3FA
:1001400003098B425FD3030A8B4244D3030B8B42D8
:1001500028D3030C8B420DD3FF22090212BA030CE1
:100160008B4202D31212090265D0030B8B4219D3C2
:1001700000E0090AC30B8B4201D3CB03C01A5241E2
:10018000830B8B4201D38B03C01A5241430B8B422A
:1001900001D34B03C01A5241030B8B4201D30B0313
:1001A000C01A5241C30A8B4201D3CB02C01A52413A
:1001B000830A8B4201D38B02C01A5241430A8B42FD
:1001C00001D34B02C01A5241030A8B4201D30B02E6
:1001D000C01A5241CDD2C3098B4201D3CB01C01A00
:1001E000524183098B4201D38B01C01A524143090A
:1001F0008B4201D34B01C01A524103098B4201D3F8
:100200000B01C01A5241C3088B4201D3CB00C01A64
:10021000524183088B4201D38B00C01A52414308DC
:100220008B4201D34B00C01A5241411A00D2014601
:10023000524110467047FFE701B5002000F0F0F88A
:1002400002BDC0460029F7D076E7704703460B434E
:100250007FD4002243088B4274D303098B425FD3BF
:10026000030A8B4244D3030B8B4228D3030C8B42EB
:100270000DD3FF22090212BA030C8B4202D31212D1
:10028000090265D0030B8B4219D300E0090AC30BA6
:100290008B4201D3CB03C01A5241830B8B4201D353
:1002A0008B03C01A5241430B8B4201D34B03C01A3C
:1002B0005241030B8B4201D30B03C01A5241C30AB4
:1002C0008B4201D3CB02C01A5241830A8B4201D325
:1002D0008B02C01A5241430A8B4201D34B02C01A0F
:1002E0005241030A8B4201D30B02C01A5241CDD2B4
:1002F000C3098B4201D3CB01C01A524183098B42FF
:1003000001D38B01C01A524143098B4201D34B01E7
:10031000C01A524103098B4201D30B01C01A52414A
:10032000C3088B4201D3CB00C01A524183088B42D1
:1003300001D38B00C01A524143088B4201D34B00BA
:10034000C01A5241411A00D201465241104670472C
:100350005DE0CA0F00D04942031000D34042534031
:1003600000229C4603098B422DD3030A8B4212D3F1
:10037000FC22890112BA030A8B420CD38901921123
:100380008B4208D3890192118B4204D389013AD060
:10039000921100E08909C3098B4201D3CB01C01A35
:1003A000524183098B4201D38B01C01A5241430948
:1003B0008B4201D34B01C01A524103098B4201D336
:1003C0000B01C01A5241C3088B4201D3CB00C01AA3
:1003D000524183088B4201D38B00C01A5241D9D2BB
:1003E00043088B4201D34B00C01A5241411A00D23C
:1003F0000146634652415B10104601D34042002B38
:1004000000D54942704763465B1000D3404201B5B6
:10041000002000F005F802BD0029F8D016E770476B
:100420007047C046437802781B021A438378C0782D
:100430001B041343000618437047C046030A4B7061
:10044000030C8B70030E0870CB70704703005A7852
:100450000078120202439878197900040243D87890
:10046000000610435A7912020A43997909040A4393
:10047000D979090611437047030A5370030C93702E
:10048000030ED3700B0A53710B0C93710B0E10708B
:100490001171D3717047C046024A1368013313606B
:1004A0007047C04610030020C021074A074B084888
:1004B0005360036A09061B021B0A0B4303620023F5
:1004C000936007331360704710E000E0FE7C00008B
:1004D00000ED00E00E4AD3691B061B0F4370D9B232
:1004E000D3690C4A1B071B0F83700B4B1B684360BF
:1004F00093420BD102230370002901D101234370E1
:10050000064B9B8A01339B00836070470123F2E70F
:100510000000904041A000022800904000001040E0
:10052000F0B5070085B001AC0E0020001500FFF704
:10053000D1FF23783B7063783370A3782B7005B0BC
:10054000F0BD10B502F0A3FC10BD10B502F0BAFC6E
:1005500010BD10B502F08CFC10BD0078C0B2704721
:10056000024A138ADB07FCD57047C04600001040E2
:10057000084B10B51A68084B9A4209D13F22074B25
:1005800040061A81000C2E3A98611A80FFF7E8FFA6
:1005900010BDC04614000020CCBCECFC0000104094
:1005A000084B10B51A68084B9A4209D13F22074BF5
:1005B00080081A810C3A986119641A80FFF7D0FFFD
:1005C00010BDC04614000020CCBCECFC0000104064
:1005D0000379F7B50168002B30D18022D20553682A
:1005E0008B43536020258022002106686D42D2058E
:1005F00033000124CB4023420DD00379CCB20193C8
:10060000072924D80F238F00BB40D46A9C43019B49
:10061000BB401C43D462013104351A29E8D1802340
:100620004279DB05012A39D1DA683243DA6082790E
:10063000012A36D19A6816439E60F7BD062BD1D1A8
:10064000002380220371D20553680B43C9E72700BA
:10065000083F072F08D80F27019BAF40AB40146B12
:10066000BC4323431363D6E7103C072C0AD82F0062
:100670000F23203FBB40546B9C43019BBB401C435A
:100680005463C8E72F000F23403FBB40148F9C43A7
:10069000019BBB401C43A4B21487BCE7DA68B24399
:1006A000C4E79A68B2439A60C7E78023DB05012953
:1006B00001D1D86370471864FCE780234268DB05EA
:1006C0000168012A0FD11A690A431A6180238168DF
:1006D000DB050268012909D19969114399615969BA
:1006E0009143596170471A698A43EEE7002907D19F
:1006F000D24399691140996159690A405A61F1E7F9
:1007000059690A43FAE78023DB05DA69002902D038
:100710001043D86170478243DA61FBE78022D2053B
:10072000936A1843906270478023DB055B6A184028
:10073000431E9841C0B27047C02380221B0619781F
:1007400052420A437F211A701A780A401A70704781
:10075000C02301211B061A780A431A701A788A43AB
:100760001A707047C0231B0618688007C00F7047B7
:10077000024B1868431E9841C0B27047000400C085
:1007800030B50300012811D0022811D00120032B1D
:100790000BD1084A08000B0020301D685C1A043396
:1007A000A5508342F9D10020106230BD024AF1E722
:1007B000024AEFE7B40400C06C0400C0900400C01B
:1007C000030001280FD002280FD00120032B09D1EC
:1007D000074B1A00C91A20321878C85401339342C3
:1007E000FAD100207047034BF3E7034BF1E7C04613
:1007F000B40400C06C0400C0900400C0044B1A6A2A
:10080000012902D110431862704782431A62FBE744
:1008100000009040054B0122196B002802D00A43CA
:100820001A63704791431963FBE7C04600003040EC
:10083000F8B54A4C0500236B01681B0700D56DE035
:1008400009014748FFF778FCC3099AB2A284454AD8
:10085000DB0101301340C01A400880B23F2802D9A2
:100860003F233F381840032760263F4BC0B2187023
:100870003E4B2A7918783A405201B0431043187021
:1008800001206979227F39404901B2430A43227726
:10089000AA7919780240BA40073081431143197090
:1008A000217F81430A432277EA79002A38D1022145
:1008B0001A788A431A70227F8A43012022772A7A83
:1008C000216B1600C2402A4F064076023940314360
:1008D0002163216B274E0240314012020A432263FA
:1008E000697A226B0E00C140234F06403A40B6039E
:1008F00032432263226B214E01403240C90311432F
:100900002163AA7A197802400F3012018143114302
:100910001970237F83431A432277F8BDC90090E7FB
:10092000022A0CD1042019781143197019788143D7
:100930001970217F0A432277227F8243BDE702217B
:100940001A780A431A700422187810431870207F0E
:1009500001432177217F0A43AFE7C04600003040C2
:100960000000127A80FF7F00280030402C003040C9
:10097000FFFDFFFFFFFEFFFFFFBFFFFFFF7FFFFF4A
:10098000044B1A8F002902D0104318877047824306
:100990001A87FBE700003040024BC005C00D1880ED
:1009A0007047C04600003040014B1888C0B2704705
:1009B00000003040054B002805DA5B681840431EF4
:1009C0009841C0B270471B8BF8E7C046000030402A
:1009D000034B9B8F1840431E9841C0B27047C046DE
:1009E000000030400722024038200449D2000B7832
:1009F00083431800104308707047C04634003040ED
:100A0000F0B583780178002B33D040784AB280016A
:100A1000002A1BDA0F230B40083B1B4A9B089B0054
:100A20009B18FF22032517000D40ED00AF40024048
:100A3000AA40DE69BE433243DA611F224B091140EE
:100A40001E3A8A4011499B00CA50F0BDFF270F4B48
:100A500092089200D21803233C00C0250B40DB0013
:100A60009C4038409840AD005659A6433043505101
:100A7000E3E71F234A090B40012199401300034A71
:100A800020339B00D150E0E700ED00E000E100E002
:100A900010B5094C002801D0012805D000F07CF8E1
:100AA0000138C000205805E000F076F80138C00099
:100AB0002018406810BDC046087B051070B50121A4
:100AC00086B006000920FFF799FE00F065F81C4B80
:100AD00001388000C3580024019300F05DF8194BE1
:100AE0000138800001ADC35828002B71AC716C71C6
:100AF000FFF76EFD00F050F8134B01388000C3582B
:100B0000019300F049F8114B01388000C3582800C8
:100B10002B71FFF75DFD0125032303A803714371CA
:100B200003728471C471447285720396FFF780FE6C
:100B30002000FFF757FF2800FFF76CFE06B070BDDE
:100B4000047B0510007B0510FC7A0510F87A05106F
:100B5000042313B5040001A80370013B43708470A3
:100B6000FFF74EFF21001020FFF70AFF13BD10B55D
:100B700002F08DF910BD10B502F089F910BD10B565
:100B80000A00002102F09EF910BD00000122014B75
:100B90001A70704714030020014B1878C0B27047D8
:100BA0001403002010B50F4C01280AD0002801D0F2
:100BB00002280ED0FFF7F0FF431E0C2058432058A8
:100BC00006E0FFF7E9FF431E0C2058432018406859
:100BD00010BDFFF7E1FF431E0C205843201880682A
:100BE000F6E7C046107B051010B5FFF7DBFF0121CB
:100BF000FFF75BFD10BD10B5FFF7D4FF0021FFF735
:100C000054FD10BD13B5012104000800FFF7F6FDE7
:100C10002000FFF7C7FF6A4606230090137168465D
:100C2000053B93715371FFF7D3FC2000FFF7E3FFFF
:100C300013BD10B509F0A4FF10BD10B509F0BAFB43
:100C400010BD10B509F070FE10BD7FB50BAE368833
:100C500008AC09AD2D88248803960A9E019502965A
:100C600000940AF07DF87FBD7FB508AC20CC0AAEB9
:100C70002478367801940296009509F0B3FF04B009
:100C800070BD10B502F076FF10BD10B50BF0A8FCDA
:100C900010BD01207047F0B58DB012AC24780993D7
:100CA0000A9413AC248818AB1B880B9415AD14ACB4
:100CB00016AE17AF24882D8836883F8806930B9B85
:100CC000059701930A9B0496009303950294099B50
:100CD00002F036F90DB0F0BD10B502F0EAF910BD22
:100CE00010B502F0FDFC10BD10B502F077FE10BD8E
:100CF00010B50DF0C9FE10BD10B50BF071FB10BDA5
:100D000010B50AF079FE10BD10B502F009FF10BD54
:100D100010B502F00DFF10BD10B507F0C9FB10BDF6
:100D200010B510F0E9FD10BD10B510F0CDFB10BDF1
:100D300010B510F0DBFE10BD10B510F0EDFB10BDCE
:100D400010B50AF04BF910BD10B507F087F910BDCA
:100D500010B50AF061FB10BD10B50AF08FF910BD97
:100D600010B50AF0A3FA10BD0120704710B506F0C7
:100D700005FA10BD10B512F0C7FE10BD10B512F087
:100D800095FE10BD10B512F077FE10BD10B513F032
:100D900081F810BD0120704710B513F0D5F810BDD3
:100DA00010B513F0BBF810BD10B511F083FB10BDEA
:100DB00010B511F09FFB10BD10B511F02DFC10BD4A
:100DC00010B511F0F3FA10BD10B511F00FFB10BD06
:100DD00010B511F035FB10BD10B511F0A1FB10BD21
:100DE00010B511F0BFFB10BD10B510F0CBFB10BD5E
:100DF00010B510F09AFB10BD10B510F0A1FE10BD9B
:100E000010B510F0B5FD10BD7047704770477047C2
:100E1000704770477047704770477047704770471A
:100E2000704770477047704770470000002210B548
:100E3000084B1A60084B1B7A934209D1074B1B8958
:100E4000052B05D9064B01321A70FFF752F9FEE760
:100E5000012010BD14000020000090400000104848
:100E60000C00002070B5FFF7E1FF012817D1002327
:100E700014481549154C1A188A4216D300231448F1
:100E80001449154C1A188A4213D30021134B144AE3
:100E9000934212D30021134B134A93420FD3134BA7
:100EA00083F3088801F0B8FC70BDE5580433156081
:100EB000E1E7E55804331560E4E702C3E8E702C35D
:100EC000EBE7C046CC21002034220020208805100A
:100ED0000800002034000020F4870510C000002026
:100EE000CC020020CC020020CC2100200060002099
:100EF000002210B5104B995CC9B2002917D11C2AE9
:100F000014DC022021249854501C1C54901C193CC1
:100F10001C54901D19549B18802290219BB25202A0
:100F20001343C905CB60CB681342FCD110BD995C5B
:100F300001315218D2B2DEE7150300200023F0B5CC
:100F4000144AD45CE4B2002C1ED1192B0FDC02250C
:100F50003B275E1CD55497555E199055DE1C955560
:100F600035261D1D56555D1D06335155D45402229C
:100F70003B24094B1A705C709870DA7033321A7126
:100F8000002259719A71F0BDD45C01341B19DBB297
:100F9000D7E7C046150300204803002070B58AB08B
:100FA00003AC05000E0019224449200001F06FFF38
:100FB0006846FFF78FFA002D62D04423404AA3739E
:100FC000117A433B0B4313724C23E3722C3B237285
:100FD00092336374573B23753A4B3B4A1B68190C99
:100FE000914208D17020E17D1B018143E175E17DD3
:100FF00003400B43E375354B1B68190C914208D134
:10100000302061791B0181436171617903400B4399
:1010100063712F4B1B68190C914207D10321E27DAC
:101020000B408A43E275E27D1343E3750422E37AC1
:1010300069469343E3726B465B78897893400B4330
:10104000112B08DDE37D1A43E275E07AE17DC0B241
:10105000C9B2FFF773FF802390222404240C5B02A3
:101060001C43D205D460D1681942FCD16B466A4654
:101070005B7892781B011343112B01DDFFF738FFDA
:10108000144B1A8B002AFCD001221A8316329A8143
:1010900000221A61964207D090231021DB051869BF
:1010A0001A6942400A42FBD0002D02D015220A4B99
:1010B0001A700A4A0A4B1A600AB070BDC07A05104D
:1010C00000002040E807001055AA0000E4070010C7
:1010D000B0070010000010480000C040CCBCECFC81
:1010E000140000200822C021F8B53F4B3F4D9A80E4
:1010F0003F4A0904136AFF202B400B43C0211362AF
:10110000136A09061B021B0A0B431362C0229200DA
:101110009446384B64469A58374E82433F380243D0
:1011200060461A501A58C0203240000202431A5139
:10113000C122FF2792009C58BC433F3F3C439C5038
:101140009C583F37344004439C509C582C409C5042
:101150009C582402240A0C439C500832944664464E
:101160009A58324002431A511A59C0242A40240482
:10117000224364461A511A591202120A0A431A519A
:10118000C4229200944664469A58324002431A514F
:101190001A59C0242A402404224364461A511A5979
:1011A0001202120A0A431A51C52292009C58BC43EB
:1011B0002700C0242743C0249F509F5824043E404A
:1011C00030439850985805402C439C509858000242
:1011D000000A0143995001210800FFF7DFFE074A8A
:1011E000074B1A6262B6F8BD00001040FFFF00FF17
:1011F00000ED00E000E100E0FF00FFFF66000E00F0
:10120000000090402A23F0B58BB006AC23709B33CE
:101210006370D523A370A523E37000236371B433F7
:10122000A3719A23E371E1232372112363723A239A
:10123000A372CF23E372802323736E23022563738B
:101240003623764E102221003000A3732571E573FA
:10125000FFF777F9724A734B31001B782800009230
:10126000012201F060FF071E06D002206E4900F047
:101270000BFB47200BB0F0BD2B2323709A33637018
:10128000D523A370A523E370B423A3719A23E3713C
:10129000E1232372112363723A23A372CF23E372F3
:1012A000802323736E2363733623604E6071102294
:1012B00021003000A3732571E573FFF742F9584B05
:1012C000320018885A4B0497059310230297039312
:1012D000019700950F3B290001F006FF071EC4D1BE
:1012E0002C23237099336370D523A370A523E37057
:1012F000B423A3719A23E371E12323721123637250
:101300003A23A372CF23E372802323736E23637384
:1013100036236071102221003000A3732571E5731C
:10132000FFF70FF93E4B32001888424B04970593A4
:10133000102302970393019700950C3B290001F0BD
:10134000D3FE071E00D090E72D23237098336370DF
:10135000D523A370A523E370B423A3719A23E3716B
:10136000E1232372112363723A23A372CF23E37222
:10137000802323736E236373362360711022210050
:101380003000A3732571E573FFF7DBF8244B3200BF
:101390001888294B0497059310230297039301970C
:1013A00000950F3B290001F09FFE071E00D05CE76F
:1013B0002E23237097336370D523A370A523E37086
:1013C000B423A3719A23E371E1232372112363727F
:1013D0003A23A372CF23E372802323736E236373B4
:1013E00036236071102221003000A3732571E5734C
:1013F000FFF7A7F80A4B32001888104B04970593A3
:10140000102302970393019700950F3B290001F0E9
:101410006BFE002800D028E72CE7C046F00800202B
:10142000B20400201D220020497B0510B8040020D2
:10143000C8080020CC080020B604002000090020C5
:101440001A23F0B58BB006AC2370BB33A370A52371
:10145000E37000236371B433A3719A23E371E12332
:101460002372112363723A23A372CF23E372802382
:1014700023736E2302256373C5273623284E10225B
:1014800021003000A37367702571E573FFF759F8E9
:10149000244A254B31005B7828000092012201F09C
:1014A00042FE061E06D00220204900F0EDF947203A
:1014B0000BB0F0BD1B232370BA33A370A523E370D8
:1014C000B423A3719A23E371E1232372112363727E
:1014D0003A23A372CF23E372802323736E236373B3
:1014E00036236770124F6071102221003800A373F9
:1014F0002571E573FFF725F80A4B3A0018880D4B64
:1015000004960593102303930F3B02931D3300931E
:1015100001960B3B290001F0E7FD0028C3D1C7E786
:10152000F0080020580300201D2200201C7B05101D
:10153000B8040020CA0400203A23F0B58BB006ACF2
:101540002370C5236370D523A370A523E370002304
:101550006371B433A3719A23E371E12323721123DE
:1015600063723A23A372CF23E372802323736E2323
:101570000225637336235F4E102221003000A373CF
:101580002571E573FEF7DDFF5B4A5C4B31009B780C
:1015900028000092012201F0C6FD061E06D002209E
:1015A000574900F071F947200BB0F0BD3B23237081
:1015B0008A336370D523A370A523E370B423A3718A
:1015C0009A23E371E1232372112363723A23A372F6
:1015D000CF23E372802323736E2363733623494F33
:1015E0006071102221003800A3732571E573FEF7A6
:1015F000A8FF414B3A001888434B049605931023EB
:1016000003930F3B02931D330196009329000B3B7C
:1016100001F06AFD061EC2D13C232370893363703A
:10162000D523A370A523E370B423A3719A23E37198
:10163000E1232372112363723A23A372CF23E3724F
:10164000802323736E23637336236071102221007D
:101650003800A3732571E573FEF773FF264B3A003C
:1016600018882A4B04960593102303930F3B02938B
:101670000D33019600932900053301F035FD061E58
:1016800000D08CE73D23237088336370D523A3708B
:10169000A523E370B423A3719A23E371E12323729A
:1016A000112363723A23A372CF23E372802323733F
:1016B0006E23637336236071102221003800A373F8
:1016C0002571E573FEF73DFF0B4B3A001888104B70
:1016D00004960593102303930F3B02930D3300935D
:1016E00001960633290001F0FFFC002800D056E7E0
:1016F0005AE7C046F0080020D00800201D22002034
:10170000317B0510B8040020CA0800202404002002
:101710002C0400201FB504000D4800F011F90D4BFA
:101720001A880D4B19880D4B188813230394002435
:10173000029300930194123B01F038FDA04204D0C3
:101740000220074900F0A0F8472004B010BDC046B1
:101750001E7C0510CA080020D00800203C03002091
:101760003E7C05107FB500221D4B1E4D03AC198831
:10177000227028880123009401F00EFD1A49061EEC
:1017800028D11A49200001F0A5FB194B2888198897
:1017900032000094042301F0FFFC1649021E19D107
:1017A000154B28881B782370144B1988009401234B
:1017B00001F0F2FC1249021E0CD1124B28881B7852
:1017C0002370114B19880094012301F0E5FC0028D7
:1017D00004D00E49022000F057F8472004B070BD35
:1017E000C8080020B20400205F7B0510897B05102B
:1017F000CC0800208E7B0510C8040020B604002011
:10180000BD7B0510D208002000090020EC7B0510EC
:101810000023094A1360094A1370094A1370094BDF
:10182000094A5A60094A9A60094ADA60094A1A6103
:10183000094A5A617047C04628040020B0040020BD
:10184000B404002030040020687C0510777C05106B
:10185000877C0510967C0510A67C0510074B01209F
:101860001B68002B08D1064B1B78002B04D1054BBD
:101870001878431E9841C0B27047C0462804002023
:10188000B0040020B404002010B50C00074B800009
:10189000C05800F055F8064800F052F8200000F05B
:1018A0004FF8044800F04CF810BDC046300400204A
:1018B000297D0510DE83051030B51B498DB004006D
:1018C000FEF730FC002809D1184800F084FF1848C2
:1018D00000F081FF174800F07EFF20E0164920004D
:1018E000FEF720FC00281CD10122010005AB1A7074
:1018F000587058601A18013011721328FAD1432217
:1019000069461A72BC325A72EF3A9A7209AA31CAFF
:1019100031C1186859689A68DB6801F03FF80DB06A
:1019200030BD0648D4E7C046B47C0510BC7C051029
:10193000897B0510DE830510D67C0510DD7C051043
:1019400010B500F048FF10BDF7B50500134800F0D2
:1019500042FF05240F262B5D1A0911003731092A91
:1019600001D83032110033401A0001A8017037321B
:10197000092B01D830331A00002342708370671E90
:1019800000F029FF002C05D0054800F024FF3C00A2
:101990007B1CE0D1034800F01EFFF7BD227D05103F
:1019A000287D0510DE830510F0B50E0085B001AF6F
:1019B00004000B221149380001F069FA3500002CAF
:1019C00003DA2D23751C3370644220000A2101358F
:1019D000FEF73CFC0028F9D1287020000A21FEF710
:1019E0001BFD7B5C013D20002B700A21FEF72EFCC5
:1019F000041EF2D1300005B0F0BDC046EF7C0510EA
:101A00001FB501A9FFF7D0FF01A800F0E4FE05B063
:101A100000BD000070B50400134800F0DCFE134860
:101A200000F0D9FE2078FFF7EBFF114800F0D3FE5D
:101A30006078FFF7E5FF0F4800F0CDFE6068FFF724
:101A4000DFFF25000C4800F0C6FE08351B340B48AC
:101A500000F0C1FE28780135FFF7D2FFA542F6D18C
:101A6000074800F0B8FE70BDFA7C0510037D051034
:101A7000087D05100D7D0510147D05101C840510D2
:101A80001E7D051070B50400104800F0A4FE10483B
:101A900000F0A1FE2078FFF7B3FF0E4800F09BFE98
:101AA0006078FFF7ADFF0C4800F095FEA51C1534DB
:101AB0000A4800F090FE28780135FFF7A1FFA54203
:101AC000F6D1074800F087FE70BDC0462C7D05109A
:101AD000357D05103B7D0510477D05101C840510E4
:101AE0001F7D051010B5FFF751F80020FFF78AF8A9
:101AF0000120FFF787F80220FFF784F80020FFF7A6
:101B00007AF80120FFF777F80220FFF774F8E12058
:101B10004002FEF7D3FF0120FFF71AF80148FFF754
:101B20000FFF10BD527D0510012130B5080087B0B0
:101B3000FEF764FE0020FEF7ABFF002401AB01902E
:101B400018001C719C715C71FEF742FD6B466A4681
:101B500001251C700323684653709570FEF750FFF3
:101B60002000FEF795FF039003A804940595FEF767
:101B7000A4FD2000FEF78CFFFEF7D0FD2000FEF74D
:101B800087FF2900FEF7BFFD07B030BD70B5434A9F
:101B900086B00621002001F030FB002803D0404928
:101BA0000220FFF771FE0421012001F022FB01F069
:101BB000EFFA3C49041E25D13B4B3C4D3C4E019372
:101BC000010000962B001022052001F0E6F9041E0A
:101BD00009D002203749FFF757FE2000FFF710FF1A
:101BE000200006B070BD32881026334B298803933D
:101BF000029601900096030001F0D8FA0400051E39
:101C000004D02E490220FFF73FFEE9E72C4B0121CB
:101C100003930723049002900093020003000196AF
:101C2000080001F0D3F92749041EEBD12648FFF73D
:101C300087FEFFF7E7FA041E08D12448FFF780FE6D
:101C4000FFF7FEFB041E03D02149DBE72149D9E75A
:101C50002148FFF775FEFFF76FFC041E01D01F49F6
:101C6000D0E71F48FFF76CFE1E4B1C78002CB7D046
:101C70001D4800F0ABFC8021C9012B002A000800A0
:101C8000FFF72AF8041E05D018490220FFF7FCFDD3
:101C90002C00A5E71648FFF753FEA1E727220020F6
:101CA000FA8005101D810510900E00206E0F002097
:101CB000980E002034810510780F00204A8105100D
:101CC00040E2010072810510A2810510C681051055
:101CD00024820510E7810510048205106382051037
:101CE00040820510940E00202122002082820510DF
:101CF000B082051010B51148FFF722FE1048FFF71B
:101D000023FE104801F0C2FA002806D00E49022036
:101D1000FFF7BAFD01220D4B1A70FFF737FF0028BD
:101D200007D00B490220FFF7AFFD0122074B1A70C5
:101D300010BD0848FFF704FEFAE7C046FA7E05101A
:101D400027220020707D0510137F0510B4040020A9
:101D50003B7F0510517F0510092330B501248FB05A
:101D600009AD134A2B70631ED35C2B550134112C23
:101D7000F9D10021080005F099FB0020F022C821CC
:101D80000690059004900390029501940090030042
:101D9000D200C90001F062F9002805D005490220EF
:101DA000FFF772FD0FB030BD0348FFF7C9FDF9E73B
:101DB000780F00203A8005105C80051010B501F006
:101DC0006EF9041E05D005490220FFF75DFD2000D5
:101DD00010BD0348FFF7B4FDF9E7C0468480051045
:101DE000AA800510FA2210B5D20088B028210692E8
:101DF00005923C2202910191802104920022C901A6
:101E00000300039200920800FEF745FF041E06D06F
:101E10000D490220FFF738FD200008B010BD0B4827
:101E2000FFF78EFD0A4C0B4B1B68002B07D1002CD3
:101E300001D1FF34F0E701F0E5F9013CF3E763423B
:101E40005C416442E4B2E7E7707F0510917F0510C2
:101E5000A08601003803002070B50C4D47242B6884
:101E6000002B11D00A4B1321188880B201F025F9FC
:101E7000041E06D007490220FFF706FD04E001F02A
:101E8000C1F92B68002BFAD1200070BD3803002067
:101E90003C030020D6800510F0B505008DB0394810
:101EA00003911700FFF74CFD374E3368002B56D0D7
:101EB0003648FFF745FD364C3368002B08D0002C20
:101EC00002D1FFF7C9FF05E001F09CF9013CF3E7FF
:101ED000002CF6D02800FFF785FF002848D11022FB
:101EE0002C4904AD08A800F0D2FF102208A9280050
:101EF000FEF727FB2848FFF723FD284C0223208804
:101F0000274A80B20095012101F02EF9254B1A884D
:101F1000002A27D000221A802088198880B2013137
:101F200089B23B00039A01F060F9041E09D01E49F2
:101F30000220FFF7A9FC2000FFF762FD1B48FFF716
:101F4000FFFC1B4B1A78002A0FD000221A70FFF7F3
:101F500083FF1848FFF7F4FC00200DB0F0BDFFF739
:101F60002DFFB7E701F04EF9D0E701F04BF9E8E7B4
:101F7000FFF7F2FE10490220FFF786FC2800FFF76A
:101F8000E3FCE6E7A77F051038030020BA7F0510C1
:101F9000A0860100D97A0510D57F05103C030020EA
:101FA000FFFF000040030020DF7F0510DE830510E7
:101FB0003E030020228005100480051010B5024861
:101FC000FFF7BEFC10BDC046B07D051010B502483D
:101FD000FFF7B6FC10BDC046A47D051001220A4BD8
:101FE00010B51A60094B0A481980FFF7A9FC02983E
:101FF000FFF7AAFC0023074A0299C95CD1540133B8
:10200000062BF9D110BDC046380300203C03002048
:10201000EA7E0510E408002000230121054A10B5DE
:102020001360054A05481170054A1380FFF788FCC4
:1020300010BDC0463803002020220020B17E0510CC
:102040003C03002010B504000348FFF779FC200092
:1020500001F084F810BDC046907E0510F7B504006D
:10206000074816001F000D00FFF76AFC00230197C8
:10207000009629001A00200001F0A9F8F7BDC0461B
:10208000997E051070B546488CB01D000E00109C5E
:10209000FFF756FC434B1B8801339E4211D1217838
:1020A0002200132909D91321012000F0B5FD3E4972
:1020B0000120FFF7E9FB0CB070BD012000F0ACFD82
:1020C000F9E73A4B1B8801339E424CD12578607862
:1020D00005AB092D1FD0E178A278090211432279BE
:1020E00012041143627912060A435A600022304EEC
:1020F000B45C991801320C72132AF9D169461D702B
:10210000587009AA31CA31C1186859689A68DB68E1
:1021100000F044FCCFE700225A6001280CD1A178DE
:10212000244A1170E178244A11702179234A1170F0
:102130006179234A1170D9E70228D7D1A179627950
:1021400009021143E27912041143227A12060A436A
:102150001C490A60A178174A1170E1781A4A117077
:1021600021791A4AE6E71A4B1B8801339E4207D1B0
:1021700000230F4AAB429EDAE15CD1540133F9E708
:10218000144B1B8801339E4200D094E70023124A6F
:10219000AB4200DB8FE7E15CD1540133F8E7C04686
:1021A000DF7D0510CA040020F17D05102C040020FD
:1021B0007C0E0020700F00206D0F0020920E00207A
:1021C000930E0020740F0020950E0020960E002024
:1021D000CA080020240400209A0E002010B50C1E0E
:1021E0000CD00A490220FFF74FFB0948FFF7A8FB74
:1021F0002000FFF705FC0748FFF7A2FB0648FFF7A2
:102200009FFB0122054B1A7010BDC046527E05107F
:10221000717E0510DE8305107E7E05103E030020D2
:10222000F8B515001E000E480F00FFF789FB0D489A
:10223000FFF786FB2800FFF7E3FB3400A31B9D425A
:1022400005DC0948FFF77CFB084B1F80F8BD0848F8
:10225000FFF776FB2078FFF7D3FB0134EEE7C046AB
:10226000067E0510457E0510DE8305104003002024
:102270001C84051010B50248FFF762FB10BDC04674
:10228000A37E0510F7B514240E000D0044430C196D
:10229000A54200D1F7BD2B78002B17D1B11C062227
:1022A0006846FEF74EF90A48FFF74AFB6846FFF713
:1022B0004BFB084F6846390000F0A6F9002805D00E
:1022C0000548FFF73DFB380000F080F91435DFE7E3
:1022D000BF7E051021220020C67E051070B586B095
:1022E000022841D12148FFF72BFB2149062210315A
:1022F00004A800F0CCFD1F4D04A8290000F084F9CB
:10230000041E31D11C48FFF71BFB2800FFF71CFB04
:102310001A4E2B5D33550134062CFAD100F012F918
:1023200032002100002000F068FF002803D014498B
:102330000220FFF7A9FA134B00201A88124B1988C4
:10234000124B01900393102302930093030000F0BB
:102350002DFF002803D00E490220FFF795FA00F068
:10236000E9F800220B4B1A7006B070BDBF7D051056
:10237000D97A051021220020CE7D051027220020C9
:10238000FA800510980E00206E0F0020780F0020B4
:102390004A810510940E002010B51448FEF7DDF8B0
:1023A000134B18701348FEF7D8F8134B18701348E6
:1023B000FEF7D3F8124B134A1870134BFF2113602A
:1023C00000231248890004338B420AD100231049AC
:1023D00010481A1DA42A06D100F034F9FFF78AFC30
:1023E00010BDD050EFE7C8501300F2E780EF0710A0
:1023F000D208002081EF0710C804002082EF0710E8
:10240000CE080020CC040020EC0800202804002086
:1024100084030020B0040020024B8000C150002043
:102420007047C046CC040020024B8000C150002001
:102430007047C04684030020044B8000C3581868CE
:10244000034B1B68984200D102487047CC0400201F
:1024500028040020FFFF0000F8B51B4E3378282B1E
:1024600004D9FF22194B1A70282333700127184C06
:102470002000FEF772F8174D8000435901341F60A9
:10248000154B7F009C42F3D10E24144BE018FEF74D
:1024900064F880002B581C6001341E2CF5D10025F7
:1024A00033789D4200DBF8BD0D4BEC186400200032
:1024B000FEF753F80700601CFEF74FF8094BBF000A
:1024C000FB5801351870EBE7CE080020B00400205F
:1024D00090EF0710CC0400209EEF071092EF07103A
:1024E000D8F703088403002037B505000E480C0018
:1024F000FFF726FA062262430C4BD21800236846E7
:10250000E95C1954D1540133062BF8D1084B0099DA
:10251000E418E4002000FEF743F86B46201D99887C
:10252000FEF73EF837BDC04636830510AD0E0020DD
:1025300050F7000210B500210148FFF7D5FF10BD8C
:10254000272200206223F7B51C4C1D4E23700A334E
:102550006370043BA37001AD0633E370307806333B
:1025600029002371FFF720FA32782B78092A21D825
:1025700030226271A371752302220F26E371114983
:102580000C3B114D2372535D18090700373709289A
:1025900001D830300700334018000F703730092B56
:1025A00001D83033180048700231013AEBD264236D
:1025B000E373F7BD63716B78DCE7C046780F0020EA
:1025C000D2080020810F00202722002013B504002C
:1025D000684604F0E3FE002803D00A490220FFF712
:1025E00053F96B461B7823706B46DB7863706B4640
:1025F0009B79A370E123E370613B23717E3B6371A0
:1026000013BDC046E482051010B50A780478002393
:10261000944215D144784A78944211D184788A78CA
:1026200094420DD1C478CA78944209D104790A79C8
:10263000944205D1437948791B1A58424341DBB291
:10264000180010BD73B500235821254AD154013319
:10265000102BFBD1234D244C2E00601EFDF77DFF77
:1026600028702000FDF779FF6870601CFDF775FF8A
:10267000A870A01CFDF771FFE870E01CFDF76DFF6E
:102680002871201DFDF769FF184B08346871063565
:102690009C42E2D106221649684600F0F8FB6946E2
:1026A0003000FFF7B1FF134A00280FD00023124873
:1026B000195CD1540133062BFAD101220F4B10487B
:1026C0001A70FFF73DF9FFF73DFF73BD335C1354FC
:1026D00001300628FAD10022084B1A70F3E7C046F1
:1026E000780F0020AD0E002081BA071081BB0710C3
:1026F000EF7A0510272200202D220020940E0020C2
:1027000011830510F8B5050000240626094F310095
:1027100061432800C919FFF777FF002801D0E0B214
:10272000F8BD0134202CF2D102200349FFF7ACF8A8
:10273000FF20F5E7AD0E002003830510202807D900
:1027400000230B704B708B70CB700B714B7170470B
:1027500006225043064BC25C18180A7043784B702F
:1027600083788B70C378CB7003790B714379EDE775
:10277000AD0E002010B51020FEF72AF90024002825
:102780000AD104000C4A0D491378CC54013313705C
:1027900011E0FEF709F9C4B21020FEF70BF900288A
:1027A000F7D00D2CEED10022034B044819781A7093
:1027B0004254FFF781F810BDEC0D0020180E0020E8
:1027C00010B504002020FEF7F5F80128FAD0A0B2D9
:1027D000FEF7E2F810BD10B504002078002800D103
:1027E00010BDFFF7EDFF0134F7E7000070B5084CAE
:1027F0002378002B06D0074B1D78002D02D1FFF760
:10280000ABFA257000F064F900F036F970BDC046EF
:1028100020220020940E002010B5FEF763FCFFF785
:1028200061F9FFF781F9FDF73FFEFEF7F1FFFFF7D2
:10283000B3FD00F045F900F077FAFFF70DFEFEF763
:1028400091FFFFF70BF8002802D10230FEF7CCF918
:1028500000F0D8FCFFF7CAFFFAE7000010B5024904
:102860000420FFF711F810BD7283051010B5032086
:102870000249FFF709F8FF2010BDC0468E830510FE
:1028800010B503200249FEF7FFFFFF2010BDC04630
:10289000F883051010B5132805D903200449FEF765
:1028A000F3FFFF2010BD034B1B6818184078F9E7B1
:1028B000A98305100C210020F8B500240F4BE01867
:1028C000FDF74BFE0E4E0F4BA5192870E018FDF7D3
:1028D00044FE0D4B6870E5180C4BE7182800FDF717
:1028E0003CFE0B4BEB180135F054BD42F6D1E02312
:1028F0001C349B009C42E1D1F8BDC04680E4071027
:10290000081A002081E4071083E4071096E40710FA
:10291000851BF8EF00231900124A10B51360124A04
:1029200012481370124A13701A181C331170E02BDE
:10293000FAD1104B104A114813600123104C990032
:10294000132B0DDC54500133FF2BF8D100230D4A1B
:102950000D49D1500433282BFBD1FFF7ADFF10BD3B
:102960005050F0E7080D0020040900200C0D002055
:10297000040D002081280410080900206D2804108F
:1029800095280410F00D00205D280410024B8000F3
:10299000C15000207047C046F00D002084B0F8B54B
:1029A0001C27164D09932B78154C7B431E5D069012
:1029B00007910892002E07D012490120FEF764FF0C
:1029C000F8BC08BC04B018470F48FEF7B9FF06A8CA
:1029D000FFF720F82B7806AA7B43E31813CA13C32A
:1029E00013CA13C312681A602B780133DBB22B7041
:1029F0002B78072BE4D92E70E2E7C04604090020AB
:102A00000C0D00204D8305106283051070B5050084
:102A1000002401263300A3406A68E0B21A4205D0C0
:102A2000044AA300D35898472B1918720134132C69
:102A3000F0D170BD0809002010B504000B48FEF766
:102A40007FFF2000FEF7E6FF2000FFF7DFFF23787F
:102A5000092B05D8064A9B009B582000984710BDBB
:102A600004490420FEF710FFF9E7C046CE830510A5
:102A7000F00D0020E083051070B51C250D4C0E4EA6
:102A800023786B43985D002813D020780B4B684364
:102A900080191860FFF7D0FF0022237801205D43E2
:102AA0002378AA550133DBB223702378072B00D992
:102AB000227070BD040D00200C0D0020080D0020B8
:102AC00010B5FFF727FF00F09DF800F04DF810BD9E
:102AD00000207047F8B51C4C2000FDF73EFD1B4E52
:102AE0001B4BA519EB181870601CFDF736FD194B30
:102AF0002700EB181870A01CFDF72FFD164B173799
:102B0000EB181870E01CFDF728FD144BED18287029
:102B1000251D2800FDF721FD0D4BEB180135F05464
:102B2000BD42F6D1250027001C352F372800FDF7C0
:102B300014FD0B4BEB180135F054BD42F6D1094B97
:102B40002A349C42C8D1F8BD80C40710880F0020E9
:102B5000803BF8EF813BF8EF823BF8EF833BF8EFE7
:102B60007B3BF8EF00CF071010B5FFF7B3FF002352
:102B70001900064A06481360064A1370064A137085
:102B80001A1816331170B02BFAD110BD0C21002089
:102B900010210020082100200921002084B0F8B570
:102BA0001627144C09932378134E7B439D5D0690A2
:102BB00007910892002D07D010490120FEF764FE0E
:102BC000F8BC08BC04B018470D48FEF7B9FE06A8CB
:102BD000FEF758FF20783A00784306A9301800F035
:102BE00056F923780133DBB223702378072BE7D91A
:102BF0002570E5E708210020102100201E84051023
:102C00003384051070470000024B8000C150002043
:102C10007047C0465C03002070B504000D0016002C
:102C20000448FEF78DFE044BA40031002800E35851
:102C3000984770BD438405105C03002010B505F073
:102C4000A3FA10BD10B5FDF727FC10BD10B5FFF7B6
:102C500091FD10BD70B50024E6B23000FFF7ECFB2B
:102C6000094B050098420BD0FDF75EFD012807D106
:102C70002800FDF753FD002230001100FFF7CCFFC4
:102C800001340A2CE8D170BDFFFF000030B50F48B9
:102C900089B00D00FEF754FE012302AC0C482370EE
:102CA000FFF730FD00236070E95CE218013391709A
:102CB000132BF9D16B46069A009206AA12791A7163
:102CC0000FCCFFF76BFF09B030BDC046668405101E
:102CD000E408002013B504000A48FEF731FE6078CE
:102CE0000834002803D12000FEF714FD13BD694607
:102CF000FFF724FD044B22001B8813216846FFF7D1
:102D0000CBF8F3E754840510CA04002010B5044939
:102D10000120FFF779FF03490120FFF737FE10BDBF
:102D20008D2C0410D52C041010B5FFF7EFFF00F028
:102D300071F800F08DF800F04FF810BD10B50248A2
:102D4000FEF7FEFD10BDC046C5840510F7B50400B2
:102D50001B48FEF7F5FD6378022B2ED0032B05D020
:102D6000012B29D11748FEF7EBFD25E0260015368B
:102D7000257A002D20D005236946E21A927B5A5409
:102D8000013BF9D21048FEF7DBFD1048FEF7D8FDF5
:102D90002800FEF735FE0E4F07343800FEF7D0FD51
:102DA0006846FEF7D1FD3800FEF7CAFD29006846E7
:102DB000FFF79AFBB442DBD1F7BD0648D3E7C04624
:102DC000788405109984051085840510427D0510CE
:102DD000DE830510AE84051010B504490920FFF705
:102DE00013FF03490920FFF7D1FD10BD3D2D04104D
:102DF0004D2D041010B50248FEF7A2FD10BDC046CF
:102E0000DE84051010B50248FEF79AFD10BDC046DD
:102E1000D284051010B5094B094902200B60FFF759
:102E2000FBFA08490220FFF7FFFA07490220FFF7E3
:102E3000EBFE06490220FFF7A9FD10BDFFFF0000D1
:102E4000C0210020C8210020F52D0410052E0410FB
:102E500010B50349034B05200B60FFF7DDFA10BDE9
:102E6000C4210020FFFF000010B500F019F810BDCC
:102E700030B50024A24201D1002005E0035D651CAD
:102E80000C5DA34201D0181B30BD2C00F2E70023DB
:102E900010B59A4200D110BDCC5CC4540133F8E7A0
:102EA00010B5884202D98B18984208D300239A4261
:102EB00007D0CC5CC4540133F9E78B5C8354013AEE
:102EC000FBD210BD03008218934200D170471970E5
:102ED0000133F9E7031C0A7801311A700133002A23
:102EE000F9D17047F0B5054600200F46079E059CB6
:102EF000174309D0202905D30127BF03BA4201D8BF
:102F0000914201D94220F0BD194621430AD09C428A
:102F1000F8D309498C4203D00849A41F8C42F1D24E
:102F2000062BEFD3002D03D0022D01D0032DE9D1C4
:102F3000032EE7D8F0BD0000FFFF00007B0C00006F
:102F4000FFB58DB0144618AAECCA04976F466CC73B
:102F50000A46014605A8179B04F0B4FA00280AD1D6
:102F600008A84471012C08D0002C06D0022C04D0F3
:102F7000032C02D0422011B0F0BD09A80622023075
:102F80001099FDF7DEFA08A916980873C0B2032855
:102F9000F0D805A800F072FBEDE77CB5069D079C14
:102FA000002805D0860705D1460703D4060701D4BB
:102FB00042207CBD002903D0012901D00229F7D18C
:102FC0000095019400F0B0FB7CBD0000FFB58DB012
:102FD000179F169D1446060004D0012E02D04220F1
:102FE00011B0F0BD0E98002801D00128F7D1E81FDC
:102FF0000A28F4D2102FF2D8AF42F0D31898002844
:1030000001D00128EBD1144919988842E7D81A98C1
:10301000002801D00128E2D1FDF7BCFE012804D030
:103020001098204306D01120DAE7022CD7D8109848
:103030000128D4D8684686700E99C170047310991F
:103040004173057147711899C171199802906846CA
:103050001A990FF053FEC3E73F420F00FFB587B048
:10306000109D159E169C01930295009407A807C811
:103070001F463346FFF736FF00280ED113981499E8
:1030800003AA069443C211981299019000950291E7
:1030900007A807C83B4600F0D7FC0BB0F0BD10B541
:1030A00000F0EEFC040002D101200BF0C1FA204632
:1030B00010BD10B500F0FAFC10BD10B50BF048FBC8
:1030C00010BD70B51C4613460D46012C03D0022CD2
:1030D00003D0422070BD022200E010221946FDF705
:1030E00030FA2C70002070BDF0B587B01C460B463E
:1030F000054600A9023101A80C9F0D9EFFF7E1FFD4
:1031000000280ED16846058084828775C6750E99A1
:1031100001760F994176109981766946119802F0EF
:1031200087F807B0F0BD70B586B014461D460A4654
:1031300003466946881C0A9EFFF7C3FF002804D196
:10314000012C04D0022C02D0422006B070BD2346D0
:103150002A466946304602F0B1FAF6E710B5002279
:10316000114602F05BFB10BD70B586B00D461446EB
:1031700006466946881C0A9AFFF7A3FF002805D176
:103180006B4622462946304600F09CFF06B070BDD3
:1031900010B502F06DFE10BD38B56D46049C2A8056
:1031A0006B8023466A4603F007F938BDF0B585B059
:1031B00084460AA8F0C868468581C68103A80190A4
:1031C00002970094604603F02BF905B0F0BDFEB500
:1031D0006C46099E089D2080618022716371E580A4
:1031E0006846029602F092FBFEBD10B501F05EFA51
:1031F00010BD10B503F044FE10BD10B503F062FE23
:1032000010BD000010B504F091FA1E4C4721206853
:1032100049014118097A002909D1A0300079C00775
:1032200029D004F00BF803F061FF10F0D1FE00F09C
:1032300003F92068014640310A78C9798A4319D1D7
:103240003E21095C002915D10F490A88120711D5C2
:103250000922D2061269497A836AC90059180923DA
:103260001B02C018406D801A00020012814201DA70
:103270000CF084FE10BD00F0C7FB02F093FC0DF0D3
:103280000FFED0E718220020C000002010B5837F79
:103290000122002492024168082B03D94224914262
:1032A00002D310E0914201D242240CE001463422C4
:1032B0000648FDF746F900F07FF8002801DA4824B7
:1032C00001E000F029F9204610BD0000DC020020DA
:1032D0003EB5174D15482968827F0846A0310A730C
:1032E00000246030047644768476E122C27680221F
:1032F000027702224277302008704C7002AA01A99E
:103300006846FDF70DF968460078A222010168467B
:10331000007A891C000201436846007900030143DA
:1033200028681152A03004713EBD0000DC0200206C
:103330001822002070B504F0DDF90CF0D3F80AF083
:1033400083FD11F059FC04F0ABFB184C18492068C0
:10335000184D4018811001202A68C002101881669B
:1033600061688908C166A168890801670FF054FC8B
:103370001D2029688001228B08180287628B4287F2
:10338000A28B4286628C82862046203002783B20C7
:103390004001081882750021017000F0C3FA03F0A3
:1033A000B3FE03F03BFE10F099FE70BDDC0200207E
:1033B0000000FCEF1822002070B50025ED43FDF75A
:1033C000D3FC01282ED0002318490322888BFF2428
:1033D000401E10438A7F4D3462438218088B282494
:1033E00060431218488B302460431218084620307E
:1033F00040782C24604310180D4A18188418486926
:10340000A0420DD10B4884420AD90D69FDF7ACFCEE
:10341000C1B2284609F076F909F0A4FA401B251A32
:10342000284670BDFF23B533CEE70000DC02002044
:1034300035190000540A0000F8B52C4F3C68206E86
:103440005C34401C002814D0002529480023C07B90
:1034500000283ED00926F6062648002D1CD0002163
:103460000A460B464169521C994204D1002902D0F8
:1034700004E00125E9E7204B9A42F2D3216000697C
:1034800060603069A1680002090E000A0906014364
:10349000A16000F033F81DE03169A2680902090A51
:1034A000150E08D0018BC90712D04169216000694F
:1034B0006060E37210E0881A00027D2300121B0393
:1034C000984205DD100E00060843A06000F016F8D3
:1034D000F8BD6360002DFBD003CC0CF079FCFA2022
:1034E0000CF066FC39688862F8BD000018220020E4
:1034F000FC0200200000104888130000044900204E
:1035000008610448012100686030C1717047000003
:103510000000104818220020F8B50626374840253C
:103520000560374800270780A9050920C0064160CB
:10353000344A91600168016033490C694A6903218A
:10354000601E08430021401CFCF7FFFFFDF70CFC48
:10355000C1B2204609F0D6F809F004FA09F00EFAD3
:10356000FDF7DAFB294917208881294CFA222068C7
:103570000146403047708A6228210170FDF789FBBF
:10358000012805D1206810224030017811430170D4
:10359000FDF700FC012805D1206880224030017829
:1035A000114301702068A421095CC90704D00146B9
:1035B00040310A782A4303E0014640310A78324319
:1035C0000A700021C9430166FDF7B6F8FFF780FED7
:1035D000FFF7B0FE206801212030017707214177F5
:1035E000012003F04DFC06F00FFEFFF725FF034816
:1035F0008038056002210160F8BD000080E100E034
:10360000C000002040000048DC02002000001048FC
:103610001822002038B5184A14682246BA32AE344F
:10362000A378DD0701D001290AD05B070CD5012959
:103630000AD0217949070BD5E17A002905D007E0A6
:10364000E07880210843E07038BD0121E1725080AC
:1036500020794106090FF7D07821084069460870A3
:10366000002048706A460221422000F0B9FB207910
:1036700087210840207138BD18220020F8B5054682
:10368000002768460770154846260468AE3420793E
:103690008006800F03D00021084608F06FF8A0785C
:1036A000400718D520794C21084214D10023287EE8
:1036B0006A4619460AF030FE00280DD168460078A7
:1036C00028762F74284607F021FF060003D12079C1
:1036D0004021084320713046F8BD00001822002028
:1036E00038B51048002104680846AE3408F046F8A2
:1036F000694648702079C10704D001216A461170DB
:1037000088432071C0B2810705D502216A46117035
:10371000FD210840207102216A46084600F060FB46
:1037200038BD000018220020FFB50C4678A103C95F
:1037300095B001910090002108A801730321C902EE
:1037400068464186012108A8734E01743568174602
:10375000AE3513F0B5FA002808D17049306840182A
:103760000BF002F8A878002802D0462019B0F0BD6E
:103770000BA81599FDF7C8FA0028F7D1072010A962
:103780000871012C05D0022C0AD0002C0ED042204A
:10379000ECE708A8017B1020014308A8017305E0AD
:1037A00011A90BA8FDF76DFA0028DFD110A8027946
:1037B00001230CA9284601F081FF00287ED10222B6
:1037C00029461898FCF7BDFE298868468181152195
:1037D000490201820784012686734E2108A8817060
:1037E0000024C470067107214171867103A902A8E3
:1037F00001F01EFD002861D1022202A91E98FCF7EB
:10380000A0FE082F02D26846478502E008206946DC
:10381000488569460C850B4628880AAA098902F062
:10382000CBFD00286DD13E496846018202270784FE
:1038300008A8847103A902A801F0FAFC002860D14D
:10384000022202A91F98FCF77CFE684604706946B4
:1038500044704F850B4628880AAA098902F0ACFDFE
:1038600000284ED108A8007BC00723D02C49684609
:10387000C91C01820821018408A88770047103A96A
:1038800002A801F0D5FC00283BD1FF216846C17198
:103890008171C17081704170017044710471694619
:1038A000082048850B4628880AAA098902F084FD69
:1038B000002826D108A8007B800600E021E022D560
:1038C0002988684681811649A5310182068486735C
:1038D00008A88770C470047107214171847103A91D
:1038E00002A801F0A5FC00280BD169460E700C85DA
:1038F0004E850B4628880AAA098902F05DFD00283A
:1039000001D0472032E708A8007BA87000202DE7EF
:10391000626C75656E72672118220020DE06000059
:10392000012A0000034800210068AE30C170817098
:10393000704700001822002070B50D4B1C68AE3493
:103940002379DD0612D45B0710D533280ED1E07A37
:1039500002280BD10420107000205070C9B2022040
:1039600000F03EFA2079FB210840207170BD000074
:103970001822002038B50246174801240068AE30EE
:10398000022A1FD0052A03D0072A07D00B2A20D1EC
:10399000084609794088FFF73DFE1AE000790024C7
:1039A000020600D50124820703D1C20601D4800695
:1039B0000FD5084600216A461170694600F0FCF8F0
:1039C000044606E08178490703D50179FB221140BE
:1039D0000171204638BD00001822002010B50948AA
:1039E0000468AE34E07880070BD500200BF0D6FBDE
:1039F000022000F0CDF9E07801210843FD210840C4
:103A0000E07010BD182200201FB50E480468AE34C7
:103A1000E078010612D5A178C9070CD0800708D537
:103A2000042069460873684603F05CFF022000F03A
:103A3000AFF90020E0704006400EE070FDF768F935
:103A40001FBD000018220020F0B58DB00C4616A94D
:103A5000E0C90021089109910A910B9115990491EF
:103A600005A9E0C112A962C900930191134601465C
:103A7000039602952246012000F0D0F80DB0F0BD6B
:103A8000002000B58DB00A900B9008900990059029
:103A90000690079004900090019002900346024621
:103AA0000146039000F0BAF80DB000BDF0B5104C1F
:103AB0004625246885B0AE34A678760714D52679D5
:103AC000B3273E4210D10AF037FD05000CD1207912
:103AD0000221084320710620694608730520C002B0
:103AE0000290684603F0B0FE284605B0F0BD000025
:103AF000182200200949B22209681423525CBA3105
:103B00001A4208D0498800050905090D000D8142B7
:103B100001D10120704700207047000018220020CA
:103B200002780907090F0A4302700020704700005D
:103B300030B50E4885B005682C46AE352879BA34C4
:103B4000400711D5E87A01280ED1152149026846AF
:103B500041800121017060886B46054A00F008FB36
:103B6000002801D10220E87205B030BD18220020E3
:103B7000FFFF00007CB50446E1200D46800006F002
:103B800061F90BA103C900900191684603F06EFC36
:103B900001200CF0EFF9002801D047207CBD2078EF
:103BA0002021084320700920287000207CBD0000DF
:103BB0001F0200000000000030B5174B047A1B689C
:103BC000C268AE331B799D06AD0F04D1007804287E
:103BD00001D000200BE0012030BD401CC0B2155CBC
:103BE000012D08D01518203DED7F2818C0B2A04245
:103BF000F3D3087830BD401CDD070124C0B2002D8E
:103C000002D0105CC00703E09B07F2D5105C800770
:103C10000028EED00C70ECE718220020FFB595B01C
:103C20000E46054620210CA8FCF7A9FF00200490B1
:103C3000564800270468681EAE34042802D8A078CD
:103C4000C0070BD0062D02D0002D0AD002E0A078CC
:103C5000800703D5E0784006800E0AD0462019B0D0
:103C6000F0BDA0788007F9D0E0784006800EF5D04E
:103C70000FE0002D0DD0012D20D0022D28D0062DD3
:103C800033D0032D33D0042D37D0002E3BD042202B
:103C9000E5E700200BF082FA0028E0D1E078800709
:103CA00008D5042069460873684603F01BFE02200D
:103CB00000F06EF80120E0700020D0E7012EE6D081
:103CC000042EE4D01F980028E1D10627042008E044
:103CD000012EDCD0042EDAD01F980028D7D105277A
:103CE0000220E0700120049010E040200DE0022E40
:103CF00001D0032ECBD1082007E0012E01D0042EE5
:103D0000C5D1102001E004272020E07000230BAA79
:103D100019461E980AF000FB030002D000F0E4F8F8
:103D200032E01022002107A8FCF70FFC07A86C4620
:103D3000279B269A1F990FC42B463046189A17992D
:103D400000F088F80300E9D108A8017BC17025982C
:103D500003AC049B289A29990FC422AB07CB02928B
:103D60000091019039460CA8209B219A00F0C6F8DA
:103D70000300D3D107A80BF043FD0300CED10120EF
:103D80000BF00CFA0300C9D1184668E7182200208E
:103D900010B50446C1061148006803D51522BF219D
:103DA0000C4006E01B2189014118497EC90710D04B
:103DB00012222107890E08181121C9014018806FAD
:103DC0000023214610F0D4F9010004D0204610F061
:103DD000BBF9002010BD072010BD000018220020F4
:103DE000F8B5891ECDB20646A81C03210843401C25
:103DF0008308174817460068F10603D51C22BF2127
:103E00000E4008E01B2189014118497E090601D4B2
:103E10000020F8BD19223107890E08181121C901A7
:103E20004018806F314610F0A3F904000ED03978A5
:103E3000217179786171A5712A46B91CE01DFCF7E2
:103E400080FB2146304610F07FF9E1E70720F8BDFE
:103E500018220020F8B5224B224D1B68069C5B19E6
:103E6000009301239B03002814D0042812D00228B9
:103E700014D0032812D006239C461E461D460F462A
:103E8000174310D0914203D8A94201D39A420ED9C8
:103E90004220F8BD3025AC46602602E0A025AC46A5
:103EA000F0262025EBE761462180668001E0218035
:103EB000628020710798A0710898207209980028E4
:103EC00005D00146204606220930FCF73AFB0720C0
:103ED000607100982030807B60710020F8BD000088
:103EE0001822002004090000034881220068A03045
:103EF000417C11404174704718220020F8B50546F6
:103F00003D481E460068079F0024AE301346002936
:103F100005D002222A7001226A70A9700324002EA3
:103F200010D080788006800F0CD13019401C1F28DB
:103F300052D82E55641C281932461946FCF701FB4D
:103F4000A019C4B2002F0DD03819401C1F2843D827
:103F50002F55641CE4B228193A460699FCF7F1FA89
:103F6000E019C4B26846008C00281BD06846808CDB
:103F7000002817D0601D1F282ED805202855641C46
:103F8000E0B212212954401CC4B22819064602226C
:103F900008A9FCF7D6FAB01C022209A9FCF7D1FA4D
:103FA000241DE4B20C98002810D0E01C1F2813D860
:103FB00002202855641CE0B20A212954401CC0B2DA
:103FC0002918401CC4B208460BF0AAFE0B98002822
:103FD0000CD000191F2801D94220F8BD28190B9ACE
:103FE0000A99FCF7AEFA0B982018C4B2214628466D
:103FF0000BF062FBF8BD00001822002000B500F0B5
:1040000009F8002805D0852201699201114200D0EB
:10401000002000BD10B50D4900050B6805214902BF
:1040200059184A690021000DA0331B7B0AE04C019E
:10403000145B2405240D844202D14801801810BD70
:10404000491CC9B28B42F2D8002010BD18220020B2
:1040500004490A683B21490151180A7802430A7051
:104060007047000018220020FEB58C68CD88267BA2
:10407000012E01D00020FEBD4126052D01D01E706D
:1040800019E0247C0A2C00D01E70002A0DD089680B
:10409000052268460C31FCF754FA6D1E00AAA9B23D
:1040A00032200132FFF748FC05E000880A4601464D
:1040B000022000F021FD4120FEBD10B5102100F0CE
:1040C0009DF810BDFFB589B0074646261D78102221
:1040D000991C05A8FCF74BFD012D04D0022D02D040
:1040E00042200DB0F0BD3846FFF788FF040037D0FE
:1040F00020223946002009F085FE07002FD01948FC
:104100006946088001200490394620460B9B0A9A94
:104110000AF0A7F8060004D00021384609F0CEFEC8
:104120001EE00B98A081A068012D0FD0102205A9D8
:10413000FCF707FA25710121206949030843206132
:104140000948A061384600F093FF09E010220749B2
:10415000FCF7F7F9A068022205A90C30E8E764260D
:104160003046BEE703280000BB400410BC860510A3
:10417000FFB589B0074646251E781022991C05A870
:10418000FCF7F5FC012E04D0022E02D042200DB027
:10419000F0BD3846FFF732FF040024D02022394614
:1041A000002009F02FFE07001CD005AD04960FCDAE
:1041B0006D460FC5394620460B9B0A9A0AF051F806
:1041C000050004D00021384609F078FE0BE00121FB
:1041D00020694903084320610448A061384600F083
:1041E00047FF00E064252846D1E70000F1410410B4
:1041F00010B5502100F096F910BD0000F0B593B055
:104200000E4604460020694608760190E069079052
:10421000002827D0C788002F7DD0B006800F03D09C
:104220002088FFF767FC019006AB2046019A0799AA
:10423000FFF71AFF412861D0B81E80B2009007989E
:104240008068457B002D56D0F006F10703900029C9
:104250000FD0022F0DD329460098FBF7F3FF00295A
:1042600003D006E0412013B0F0BD062D17D0142D69
:1042700015D0B00708D5052F06D30321B807890745
:10428000C84201D1022048E070070ED5022F0CD39E
:1042900029460098FBF7D6FF002902D005E001204F
:1042A0003BE0082D0DD0062D0BD00398800F0ED0CB
:1042B000022F0CD329460098FBF7C4FF002902D037
:1042C00005E0042029E0072D08D0152D06D0B00602
:1042D00011D5012D04D0022D04D00CE008201CE0E3
:1042E000042500E01225022F05D929460098FBF786
:1042F000A9FF002910D041206946087601212069D4
:10430000490388432061019800287DD006AA012135
:104310003120FFF711FBF6E01020810706D57D491B
:10432000B8034018070CB800C01C0EE0C006009887
:10433000294604D5401CFBF785FF87B202E0FBF756
:1043400081FF0746781E6843801D81B205AB0222BB
:10435000079809F017FDF0064ED56946A089898AAD
:10436000884202D9206941065BD4002041E0072D34
:104370000AD068430B3082B21023A168079809F075
:1043800097FD002815D031E01022634908A8FCF7FA
:10439000D8F802980BABC100081A0B3081B2022288
:1043A000079809F0EFFC102208A8A168FCF7D1F8E3
:1043B000E7E7019800280ED002980CAB6843801DF7
:1043C00081B22A46079809F0DDFC0CAA2946332061
:1043D000FFF7B2FA0AE00798009002982B4668436C
:1043E000801CC2B22188022000F044FB0298401CCD
:1043F00080B20290B842BAD33820484F064207D064
:104400006946A089898A00E077E0884204D86EE096
:104410006846808AB8426AD02069410606D5F1060E
:1044200004D401218902084320616CE02188202204
:10443000002009F0E7FC050011D00521F20701205A
:10444000C902002A0DD06A4611800490908A3B462A
:10445000401C82B22946204609F0C8FE37E04520BC
:1044600001E7B20713D5207901280ED01020A268E9
:104470000290019200916846808A3B46401C82B2BD
:104480002946204609F023FE21E00220EFE77107CC
:1044900001D5234A04E00399890F0DD0204A521C0C
:1044A00069460A800490888AA389401C82B2294602
:1044B000204609F0D6FE0AE0B0060AD56846808A92
:1044C000A389401C82B22946204609F043FE642895
:1044D00008D0284600F0CCFD22883046079900F02D
:1044E0007CFB10E00021284609F0E8FCB7E72288B1
:1044F0003046079900F071FB00E76846027E21888C
:10450000022000F035FB0121E06909F0D7FC002012
:10451000E061A8E600C0FFFFBC860510FFFF0000B9
:1045200002280000F0B58BB00D4604460020694615
:1045300008710490E669002E16D0A806800F03D0FB
:104540002088FFF7D7FA049001AB31462046049A41
:10455000FFF78AFD412865D0E80708D02188324658
:10456000022000F04DFA5DE041200BB0F0BD68077D
:1045700005D521883246022000F008FA52E0A8074B
:1045800039D5F0886188814205D9218832460220D8
:1045900000F046F946E02069410604D50121890270
:1045A0000843206180E021882022002009F02AFCB5
:1045B00005001ED021883246022000F031F9A068A3
:1045C000801C00F005FB6188401E401886B2A06880
:1045D00000F0FEFA024633462946204609F0E2FD85
:1045E000284600F045FDA0683146801C00F0ECFA3A
:1045F00054E04520B9E7E80614D5F08841270228A1
:104600000ED9B168801E4D7B80B2854201D9012050
:1046100016E0002D04D02946FBF714FE00290FD028
:104620006846077101202169400381432161049894
:1046300000282DD001AA01213120FFF77DF92DE0BE
:1046400002900220002703901EE0049800280DD05D
:10465000039805AB001D81B22A46304609F092FB53
:1046600005AA29463320FFF767F907E0039800966B
:10467000C2B22B462188022000F0FCF903984019B1
:1046800080B27F1CBFB2039002988742DDD3C9E796
:10469000684602792188022000F06AFA0121E06967
:1046A00009F00CFC0020E06100205EE7FFB581B05E
:1046B000154607464624FFF7ADFC060028D00298B1
:1046C000002803D07088C01EA84201D242241FE0F7
:1046D00015483B210068490140180078000602D5C2
:1046E000642005B0F0BDE81C82B23946002009F014
:1046F00089FB07000ED0014600953046049B029AC4
:1047000009F0EAFD04000AD00021384609F0D6FB82
:104710002046E6E764248020FFF79AFCF8E7384655
:1047200000F0A6FCF4E7000018220020F7B50646CA
:1047300090790321401EC5B2E81C0843401C830841
:10474000174817460068F10603D52922BF210E40FD
:1047500008E01B2189014118C97EC90601D4002047
:10476000FEBD26223107890E08181121C901401803
:10477000806F31460FF0FCFC04000FD00198A08040
:10478000A808A07123462A4605213846083309F0B7
:10479000F9FA214630460FF0D7FCE0E70720FEBDCE
:1047A00018220020F7B5064690790321801EC5B275
:1047B000E81C0843401C8308184817460068F106A7
:1047C00003D52822BF210E4008E01B218901411892
:1047D000C97E090701D40020FEBD25223107890EBC
:1047E00008181121C9014018806F31460FF0C0FC34
:1047F000040011D00198A080B8682346407BA071C6
:10480000E5712A4606213846083309F0BBFA2146ED
:1048100030460FF099FCDEE70720FEBD182200208D
:10482000F7B5064690790321401EC5B2E81C08433F
:10483000401C8308164817460068F10603D52C2251
:10484000BF210E4008E01B2189014118C97E0906DD
:1048500001D40020FEBD29223107890E081811213C
:10486000C9014018806F31460FF082FC04000DD062
:104870000198A080A5712A4605213846E31D09F05C
:1048800081FA214630460FF05FFCE2E70720FEBDCB
:1048900018220020F7B5064690790321801EC5B284
:1048A000E81C0843401C8308184817460068F106B6
:1048B00003D52E22BF210E4008E01B21890141189B
:1048C000097F890701D40020FEBD2B223107890E04
:1048D00008181121C9014018806F31460FF048FCBB
:1048E000040011D00198A080B8682346407BA071D5
:1048F000E5712A4606213846083309F043FA214675
:1049000030460FF021FCDEE70720FEBD1822002014
:10491000F7B5064690790321801EC5B2281D0843CD
:10492000401C8308184817460068F10603D52A2260
:10493000BF210E4008E01B2189014118C97E89066C
:1049400001D40020FEBD27223107890E081811214D
:10495000C9014018806F31460FF00AFC040011D0E5
:104960000198A080B8682346407BA071E5712A4673
:1049700006213846083309F005FA214630460FF083
:10498000E3FBDEE70720FEBD18220020F7B5064650
:1049900090790321401EC5B2E81C0843401C8308DF
:1049A000164817460068F10603D52D22BF210E4098
:1049B00006E01B2189014118097FC90719D02A2265
:1049C0003107890E08181121C9014018806F31463E
:1049D0000FF0CEFB04000ED00198A080A5712A46EE
:1049E00005213846E31D09F0CDF9214630460FF088
:1049F000ABFB0020FEBD0720FEBD000018220020FA
:104A0000F7B5064690790321401EC5B2E81C08435D
:104A1000401C8308164817460068F10603D52B2270
:104A2000BF210E4008E01B2189014118C97E4906BB
:104A300001D40020FEBD28223107890E081811215B
:104A4000C9014018806F31460FF092FB04000DD071
:104A50000198A080A5712A4605213846E31D09F07A
:104A600091F9214630460FF06FFBE2E70720FEBDCB
:104A700018220020FFB59B1E0646DDB2681D0321EB
:104A80000843401C83081B4881B000681746F106A4
:104A900003D53622BF210E4009E01B2189014118B0
:104AA000497F890702D4002005B0F0BD33223107C9
:104AB000890E08181121C9014018806F31460FF086
:104AC00057FB040014D00298A0800A9823468068FF
:104AD0002A460830C0190079E0802572B91D0933D3
:104AE0000A9809F04FF9214630460FF02DFBDAE71E
:104AF0000720D9E718220020F8B5044690680F4631
:104B000001461546467B0E3102226846FBF719FD29
:104B1000A8680223057C1548E10603D53522BF218C
:104B20000C4009E01B22016892018918097F0906DF
:104B300001D40020F8BD322221070068890E081830
:104B40001121C9014018806F21460FF011FB0100AF
:104B500009D08F808E716A4612880A818D72204634
:104B60000FF0F2FAE5E70720F8BD00001822002058
:104B700070B50E4601230446C1061248154600686A
:104B800003D53422BF210C4006E01B2189014118C6
:104B9000497FC90711D031222107890E0818112138
:104BA000C9014018806F21460FF0E2FA010006D0DB
:104BB0008E808D7120460FF0C7FA002070BD07204F
:104BC00070BD0000182200200170090A4170704772
:104BD00001784078000208437047134610B5020779
:104BE000920F05D00A4619460220FFF791FE10BD2C
:104BF000820605D50A4619460220FFF7D3FD10BDEF
:104C0000820705D50A4619460220FFF78FFD10BD21
:104C1000C007FCD00A4619460220FFF73BFE10BD34
:104C2000F8B5069C1F4615460646002C13D0A06812
:104C300002220D30FBF785FCE81E82B23B460721BD
:104C4000204609F08FF9E580A068012E05D01D21CE
:104C500001730020F8BD4720F8BD1B21F8E70000D4
:104C6000F1B5FFB08BB00124600205900027CC485D
:104C700007970168E320C000081803908A98C74D81
:104C80000005000D0AAA05A90BF0E9FD0690002811
:104C900072D104260AA805994218203AD27F0B2A1D
:104CA00023D00026002004900AA88119022201A81E
:104CB0000291FBF746FC6846818809AB08AA039875
:104CC00001F074FD012817D002287DD06846808845
:104CD000854200D30546844200D920460446029806
:104CE0008078012871D013363BE1491E761E3604C8
:104CF0000591360CCFD1D5E708980090002F79D1D7
:104D00000099022228310298FBF723FC00281ED1CB
:104D100000982030017B02988078814217D10128C9
:104D200008D10098029902220830C91CFBF711FC37
:104D3000002815D002988078022808D1009802999E
:104D400010220830C91CFBF704FC002808D000988A
:104D5000008DA84200D80546A04200D22046044655
:104D600002990AA88978012907D013360599B6B2A5
:104D70008E4204D3012707E005E1761DF6E781198D
:104D8000022201A8FBF7DDFB0399009808318E464B
:104D90002EE084466946026A8B8820300DE0918BB4
:104DA000994203D3012F7DD199427BD9A94200D8E2
:104DB0000D46A14200D30C4612688242EFD10498FE
:104DC000002817D1604601E015E0BFE0006870459B
:104DD0000ED0018D994203D3012F09D1994207D9F1
:104DE0008D4200D30D468C4200D80C46012F59D17C
:104DF0007045CED1BAE008980090002F72D100998A
:104E000002221C310298FBF7A4FB00281ED1009857
:104E10002030C17802988078814217D1012808D1CA
:104E20000098029902220830C91CFBF792FB002867
:104E30001AD002988078022808D10098029910228E
:104E40000830C91CFBF785FB00280DD00098808B2B
:104E5000A84200D80546A04200D220460446029847
:104E60008078012826D003E002988078012805D0B8
:104E700013360798B6B201281ED021E000984949A0
:104E80000089884216D18A98FFF7C4F80146009835
:104E900000F08AF80099098C484300998969401804
:104EA000022200E038E00299491DFBF74AFB01208D
:104EB0000790D4E7761DDCE7B61C0020B6B2079059
:104EC0000598864201D3012705E00AA8811902222C
:104ED00001A8FBF736FB039A009908320998096884
:104EE000944630E01AE086466A46938820300DE00A
:104EF0008A8B9A4203D3012F0ED19A420CD9AA422F
:104F000000D81546A24200D3144609688142EFD169
:104F1000049800282AD102E00120049026E070467F
:104F2000006860450FD0028D016A9A4203D3012FB9
:104F300009D19A4207D9954200D31546944200D828
:104F40001446012FE8D16045CDD10FE00298C0781A
:104F5000022805D102980079292801D1B61CB6B2E1
:104F6000761D0598B6B2864200D301270598811BAD
:104F7000042902D3864200D294E604980028FBD18B
:104F8000A54203D906987FB00CB0F0BD2246294651
:104F90008A9801F04FFC0690F5E70000FFFF000043
:104FA000182200200229000030B5024623239B5C12
:104FB0000020012B1AD112890D4B9A4216D10D4AAD
:104FC000052312685B02D318A0325B69127B0AE0EA
:104FD00045010C885D5B24052D05240D2D0DAC428B
:104FE00004D0401CC0B28242F2D8002030BD000084
:104FF0000229000018220020830810B50A48002169
:105000000268052040021018A0324069127B07E0B8
:105010004C01045B002C01D0994204D0491CC9B258
:105020008A42F5D8002010BD1822002010B5044691
:10503000022000F033F80D480021026805204002EC
:105040001018A0324369107B05E04A019A5A002AE1
:1050500004D0491CC9B28842F7D810BD48011C527F
:10506000C018026904210A43026110BD1822002001
:1050700010B504460146042002F034FE002809D091
:105080000548E3210068C900401821463C300FF074
:10509000CDFE432010BD00001822002004490A68FC
:1050A0003B21490151180A7802430A7070470000F9
:1050B0001822002000B51138C0B2FFF79DFF00286C
:1050C00004D00122016952051143016100BD0000B5
:1050D000F3B597B00D8848880590081D1DC80DAE22
:1050E0001DC68C8ACE8A087E1390C8692031019033
:1050F000087800904878049088780390C8780290E7
:105100000F7900F09BFE002817D101204002844255
:105110005FD8B4425DD8002F01D1B44259D114A94F
:10512000284601F071FB002806D115AA14990598AC
:1051300001F05AFB002802D0602019B0F0BD149D88
:1051400011A92846183009F063FB10A880880028B0
:1051500010D0284612A9203009F05AFB10A88388E5
:1051600000892A8D1818696A10188A8B904203D119
:105170006120E2E74820E0E715982C4B02899A422B
:1051800027D12322125C012A23D1006800681690DF
:10519000139801281FD16846808E29221202801A96
:1051A000030001F026FE0604180404070A18022C66
:1051B0000FD110E0072C0CD10DE0042C09D3E0072F
:1051C00007D1012F07D1A64203D3042E01D3F00744
:1051D00001D04220B1E702980B90039B049A0A93F6
:1051E00009920098019A0C970890069605940792E8
:1051F0000DA81DC8019002A81CC013980B46009072
:105200002A461699179800F0AFF9002895D16846FC
:105210000649808EFF31884205D01798018800200A
:105220000A4601F007FB002087E700000328000082
:10523000F3B5A5B008881A9088780C461190102212
:10524000091D13A8FBF793FCA08A1090A17D684666
:105250000172E07D0F90207E2090677EA07E1F90DF
:10526000002006460146129020A801810F20BB4C69
:105270002390E3212068C9004018199000F0DEFD5A
:1052800000280BD101211098490288425FD821A93A
:105290001A9801F0B9FA002802D0602027B0F0BDBA
:1052A0002198179009F058FA1A9988420CD102A84F
:1052B00001901698009013AD0ECD119809F010FAD8
:1052C000002801D06320E9E76846017A8806800F4C
:1052D00005D0012012902068A030007B4600C8074E
:1052E00003D01298401CB61C1290080603D51298E1
:1052F000401CB61C129017980DA918301D9009F08B
:1053000087FA6846129C808EA41CA04237D3179857
:105310000EA92030019009F07BFA6846018F002920
:105320000DD01798179A6B46406A9B8E128D5918AC
:10533000808B5118081AA04201D26120AEE717985D
:10534000846911982568012803D0022803D04220DF
:10535000A4E7052000E01320E0832A4639460F9891
:1053600009F00CFA422899D0199FE28B4037788BCC
:10537000398B411A109810188019814201DA48209F
:105380008CE70EA9019809F043FA6846008F0028BF
:10539000179802D0406A808B00E0008D2599401C50
:1053A0000880259801210088A08325980222008882
:1053B000401CA8836A482081204620301790C17085
:1053C0000021817081711998398B406D40186946B0
:1053D000A061097A0170A06929461C31401CFBF7C5
:1053E000B0F811980128A0697ED0102213A9C01C22
:1053F000FBF7A7F82846102213A90830FBF7A1F8FD
:10540000388B133038832E4620361198F070109860
:10541000E8831F98B07010982084109828841998F9
:10542000398B406D4018A8610021109AFBF78DF868
:10543000398B10980818388317990120087117992B
:105440000020487130716846007A810701D501213A
:10545000317101070227002902DA317939433171AC
:10546000410703D53179042211433171400603D538
:1054700030790821084330710F9870712098B0710D
:1054800021461D9809F0EDF92146019809F0CAF965
:1054900029461D9809F0E5F92946019809F0C2F955
:1054A0001298002841D068461A998181A18BC18148
:1054B00007844784012408A8047122A80A9008A838
:1054C0008473239941730F993820014008A8017310
:1054D0000721C173002505746846007AC00708D00B
:1054E00020486946088200E02AE003A924A8FFF7C3
:1054F000EFFD6846007A8006800F07D0194869469C
:10550000401E088203A924A8FFF7E2FD6846007A3E
:1055100000060AD5292109026846018208A84473B9
:10552000057303A924A8FFF7D3FD259801881298D5
:10553000401C081882B2002001F07CF90020ADE682
:10554000022213A9C01CFAF7FCFF2846022213A965
:105550000830FAF7F6FF388B401D53E71822002079
:105560000328000003290000FFB55248E322006829
:1055700087B0D2008218069210AA109B0126169FAF
:105580009288012B04D14C4B9A4201D1A030067B6A
:10559000069D34464035688B2B8B7C43C31A099893
:1055A00020300390A34222DA48200BB0F0BD232024
:1055B000405C012819D108896C46208098420CD0A3
:1055C0003D4C641EA04208D0641CA04205D0641C5F
:1055D000A04202D0A41CA04207D1374CFF3CA042FD
:1055E00001D0904201D16220DFE7096801E0292360
:1055F0001B0203988142DAD109981B998469189893
:10560000224609F0BBF84228CFD01C98012804D1CB
:105610001598874201D24220C7E71598E0832046BB
:1056200020301C990590817027840A98808B401C3B
:10563000A0831098012814D02046102211A9083008
:10564000FAF77FFF05991098C8700698298B406D6E
:105650004018A061298B384670430818288300251C
:105660000FE011A80FC808340FC4183CEAE7284619
:10567000A16978430818159A1799FAF762FF6D1C0B
:10568000EDB2B542F3D30599189848710599199868
:10569000087105991A98887109982146183009F0FF
:1056A000E0F82146039809F0BDF80798A18B018026
:1056B00000207AE71822002002290000FFB58FB0F1
:1056C00014460E78102205A8891CFBF750FA5048A2
:1056D000E3210068C900451800F0B0FB00281ED186
:1056E000002C57D0012E09D16846808A494988424A
:1056F00004D12846A968083081424BD12846103091
:1057000029690390814209D00AA9284609F080F846
:105710006846018D601E0D90814202D2482013B070
:10572000F0BD284608300CA9049009F071F86846CD
:10573000008E002814D0EF680AA93846183009F006
:1057400067F8384620300CA909F062F86846398DB0
:10575000008D09186846008E401C081887B200E0CA
:10576000012701200004C01BA04201D26120D6E71E
:105770002C69286801901298012802D0022803D0D1
:1057800008E00520C00200E023486085012E03D018
:10579000022E05D04220C2E720460830022202E055
:1057A00020460830102205A9FAF7CBFE20463146E4
:1057B0002030064601730F982146078027850398FD
:1057C00009F04FF82146049809F02CF827461837BD
:1057D000E7616662A76126620D9884B20BE02846F5
:1057E000019909F03EF83846019909F01BF828683C
:1057F000641EA4B20190002CF1D10F9801880D987D
:10580000081882B2002001F015F8002087E7000098
:10581000182200200118000001280000F7B50646F4
:1058200039480F460068E321C900441882B0304669
:10583000FEF7F0FB050064D02046243000900FF006
:105840000BFB00285DD1286900035AD500980FF0A2
:10585000BDFA044653E0A088B0424FD12022314621
:10586000002008F0CFFA06001CD0A068002F017BB2
:10587000427B19D0334604980FF0A8FE0020012186
:105880002A69C9048A432A6100282ED0692806D0D3
:105890003046FFF7EDFB2969102001432961002004
:1058A00005B0F0BD6420FBE70A2906D00C290AD018
:1058B0000E290ED0082912D023E032462146284670
:1058C00010F03AFFDBE732462146284610F070FB25
:1058D000D5E732462146284610F064FECFE732462F
:1058E0002146284610F0F6FCC9E7214600980FF043
:1058F000BAFA0121204608F0E1FAC9E72468002C31
:10590000A9D14120CCE7000018220020F0B56C4955
:1059100089B00A68E321C9005718068841886A4699
:1059200011800179079141790491C18801918068C2
:1059300003903046FEF76EFB04003ED0384624301C
:1059400006900FF089FA002830D1206980032DD508
:1059500006980FF03BFA054626E0A8880005000DE2
:10596000B04220D1A8680223007B0290032005905A
:1059700005226946284608F09BFA002813D10298B0
:10598000162801D105200590E9880598091A019883
:10599000814208D1059A03462846121D039908F052
:1059A00087FA00280AD02D68002DD6D13846183045
:1059B00007460FF051FA002840D065E0202231461A
:1059C000002008F01FFA060011D0012120694904C7
:1059D00088432061012707993F0600290AD06846BD
:1059E00002883346029904980FF0F0FD1DE0642010
:1059F00009B0F0BD3843206102983246122829468A
:105A0000204602D010F018FA01E010F0C0FF002884
:105A10000BD0692807D020691021B84308432061C2
:105A20003046FFF725FB0020E2E7294606980FF0F5
:105A30001AFA0121284608F041FAECE720694003F0
:105A400022D538460FF0C2F905461BE0A8880005AC
:105A5000000DB04215D1A868007B522801D0D22891
:105A60000FD1022305226946284608F021FA0028B2
:105A700007D107222846019B039908F019FA00284C
:105A800004D02D68002DE1D14120B1E7079800280E
:105A900008D1012021698006014321612946204661
:105AA00010F0DFFE01212069890488432061294626
:105AB00038460FF0D8F90121284608F0FFF9B2E77F
:105AC0001822002002460948E3210068C900411855
:105AD0008868083103E0038D934202D2006888424F
