:020000041004E6
:1000000000600020950E0410430E0410450E0410ED
:10001000AA5555AA45554C420000000000000000BA
:10002000000000000000000000000000470E041067
:100030000000000000000000490E041061310410AF
:10004000713104104B0E041000000000000000008D
:10005000693104104D0E041059310410570E04106C
:100060000000000000000000000000000000000090
:1000700000000000590E0410B1310410C131041009
:10008000000000004F0E0410510E0410530E041017
:10009000A9310410550E04103F0E0410410E041037
:1000A0000000000000000000000000000000000050
:1000B0000000000000000000000000000000000040
:1000C000F0B543464C4655465E466746F8B40E4C7E
:1000D0006B4623600D4C20680D4C20600D4C206851
:1000E0000D4C20600D4C20680D4C2060BFF34F8FED
:1000F00030BF054C2468A546F8BC9846A146AA46E0
:10010000B346BC46F0BDC0460800002004ED00E048
:100110008813002024ED00E07C13002000E200E0C2
:100120008C13002002780B78002A03D001300131B3
:100130009A42F7D0D01A70470023C25C0133002ADC
:10014000FBD1581E7047000002B4714649084900AF
:10015000095C49008E4402BC7047C0460022430837
:100160008B4274D303098B425FD3030A8B4244D37F
:10017000030B8B4228D3030C8B420DD3FF220902C1
:1001800012BA030C8B4202D31212090265D0030B80
:100190008B4219D300E0090AC30B8B4201D3CB0376
:1001A000C01A5241830B8B4201D38B03C01A5241B8
:1001B000430B8B4201D34B03C01A5241030B8B42BA
:1001C00001D30B03C01A5241C30A8B4201D3CB02A5
:1001D000C01A5241830A8B4201D38B02C01A52418A
:1001E000430A8B4201D34B02C01A5241030A8B428D
:1001F00001D30B02C01A5241CDD2C3098B4201D3A5
:10020000CB01C01A524183098B4201D38B01C01A22
:10021000524143098B4201D34B01C01A5241030999
:100220008B4201D30B01C01A5241C3088B4201D348
:10023000CB00C01A524183088B4201D38B00C01AF5
:10024000524143088B4201D34B00C01A5241411A1C
:1002500000D20146524110467047FFE701B5002029
:1002600000F0F0F802BDC0460029F7D076E77047ED
:1002700003460B437FD4002243088B4274D3030907
:100280008B425FD3030A8B4244D3030B8B4228D3A8
:10029000030C8B420DD3FF22090212BA030C8B42CE
:1002A00002D31212090265D0030B8B4219D300E06E
:1002B000090AC30B8B4201D3CB03C01A5241830BF3
:1002C0008B4201D38B03C01A5241430B8B4201D3A3
:1002D0004B03C01A5241030B8B4201D30B03C01ACC
:1002E0005241C30A8B4201D3CB02C01A5241830A46
:1002F0008B4201D38B02C01A5241430A8B4201D375
:100300004B02C01A5241030A8B4201D30B02C01A9E
:100310005241CDD2C3098B4201D3CB01C01A524105
:1003200083098B4201D38B01C01A524143098B428E
:1003300001D34B01C01A524103098B4201D30B0177
:10034000C01A5241C3088B4201D3CB00C01A52419C
:1003500083088B4201D38B00C01A524143088B4261
:1003600001D34B00C01A5241411A00D201465241FA
:10037000104670475DE0CA0F00D04942031000D319
:100380004042534000229C4603098B422DD3030A6E
:100390008B4212D3FC22890112BA030A8B420CD37E
:1003A000890192118B4208D3890192118B4204D3A7
:1003B00089013AD0921100E08909C3098B4201D327
:1003C000CB01C01A524183098B4201D38B01C01A61
:1003D000524143098B4201D34B01C01A52410309D8
:1003E0008B4201D30B01C01A5241C3088B4201D387
:1003F000CB00C01A524183088B4201D38B00C01A34
:100400005241D9D243088B4201D34B00C01A52410A
:10041000411A00D20146634652415B10104601D397
:100420004042002B00D54942704763465B1000D321
:10043000404201B5002000F005F802BD0029F8D0C7
:1004400016E770477047C046437802781B021A438C
:100450008378C0781B041343000618437047C046D6
:10046000030A4B70030C8B70030E0870CB7070473F
:1004700003005A7800781202024398781979000430
:100480000243D878000610435A7912020A43997938
:1004900009040A43D979090611437047030A5370C6
:1004A000030C9370030ED3700B0A53710B0C9371F2
:1004B0000B0E10701171D3717047C046024A136859
:1004C000013313607047C04610030020C021074A63
:1004D000074B08485360036A09061B021B0A0B43BB
:1004E00003620023936007331360704710E000E05D
:1004F0007E3E000000ED00E00E4AD3691B061B0F94
:100500004370D9B2D3690C4A1B071B0F83700B4B86
:100510001B68436093420BD102230370002901D171
:1005200001234370064B9B8A01339B008360704715
:100530000123F2E70000904041A000022800904013
:1005400000001040F0B5070085B001AC0E0020009F
:100550001500FFF7D1FF23783B7063783370A378E1
:100560002B7005B0F0BD10B503F095F810BD10B5B7
:1005700003F0ACF810BD10B503F07EF810BD0078A4
:10058000C0B27047024A138ADB07FCD57047C046E9
:1005900000001040084B10B51A68084B9A4209D168
:1005A0003F22074B40061A81000C2E3A98611A80B0
:1005B000FFF7E8FF10BDC04614000020CCBCECFCE7
:1005C00000001040084B10B51A68084B9A4209D138
:1005D0003F22074B80081A810C3A986119641A80EF
:1005E000FFF7D0FF10BDC04614000020CCBCECFCCF
:1005F000000010400379F7B50168002B30D180224C
:10060000D20553688B435360202580220021066861
:100610006D42D20533000124CB4023420DD0037933
:10062000CCB20193072924D80F238F00BB40D46A92
:100630009C43019BBB401C43D462013104351A2901
:10064000E8D180234279DB05012A39D1DA683243C7
:10065000DA608279012A36D19A6816439E60F7BD26
:10066000062BD1D1002380220371D20553680B439E
:10067000C9E72700083F072F08D80F27019BAF4085
:10068000AB40146BBC4323431363D6E7103C072CE9
:100690000AD82F000F23203FBB40546B9C43019B83
:1006A000BB401C435463C8E72F000F23403FBB40AF
:1006B000148F9C43019BBB401C43A4B21487BCE72E
:1006C000DA68B243C4E79A68B2439A60C7E7802306
:1006D000DB05D86370478023DB05186470478022F0
:1006E000D20513685840106070478022D205936A83
:1006F0001843906270478023DB055B6A1840431EF5
:100700009841C0B2704700001022038B30B593436C
:100710000383038B921893430383037D193A934316
:100720000375037D3132934303750A780324038BE9
:10073000802A23D1A34303838023028B5B001343CE
:10074000802207250383CB780374038B1343038331
:100750008B888380CB880381038B934303834B78FF
:10076000047D2B40AC431C4304758A783821037DFB
:100770002A40D2008B431343037530BD2240A3436C
:1007800013430383038B014A1340D9E7FFFEFFFFA6
:100790008023028B012902D11343038370479A43BC
:1007A0000283FBE7002908D10123018B1A400F3394
:1007B000120199430A43028370470129FCD1038B3C
:1007C0000A401F3152018B431A43F4E70901037FAA
:1007D000012A03D11943C9B2017770478B430377CC
:1007E000FBE70130C37F1943C1777047C0238022E4
:1007F0001B06197852420A437F211A701A780A4060
:100800001A707047C02301211B061A780A431A7018
:100810001A788A431A707047C0231B06186880072D
:10082000C00F7047024B1868431E9841C0B2704712
:10083000000400C030B50300012811D0022811D0F7
:100840000120032B0BD1084A08000B0020301D6843
:100850005C1A0433A5508342F9D10020106230BDE8
:10086000024AF1E7024AEFE7B40400C06C0400C09A
:10087000900400C0030001280FD002280FD00120EF
:10088000032B09D1074B1A00C91A20321878C85413
:1008900001339342FAD100207047034BF3E7034B37
:1008A000F1E7C046B40400C06C0400C0900400C06E
:1008B000044B1A6A012902D110431862704782431F
:1008C0001A62FBE700009040054B0122196B0028DB
:1008D00002D00A431A63704791431963FBE7C0468D
:1008E00000003040F8B54A4C0500236B01681B0737
:1008F00000D56DE009014748FFF730FCC3099AB203
:10090000A284454ADB0101301340C01A400880B27E
:100910003F2802D93F233F381840032760263F4B2A
:10092000C0B218703E4B2A7918783A405201B04351
:100930001043187001206979227F39404901B24380
:100940000A432277AA7919780240BA4007308143D6
:1009500011431970217F81430A432277EA79002AE3
:1009600038D102211A788A431A70227F8A430120E3
:1009700022772A7A216B1600C2402A4F064076025F
:10098000394031432163216B274E0240314012022E
:100990000A432263697A226B0E00C140234F06404E
:1009A0003A40B60332432263226B214E014032406B
:1009B000C90311432163AA7A197802400F3012014A
:1009C000814311431970237F83431A432277F8BD73
:1009D000C90090E7022A0CD104201978114319703C
:1009E000197881431970217F0A432277227F82433D
:1009F000BDE702211A780A431A70042218781043BE
:100A00001870207F01432177217F0A43AFE7C0465A
:100A1000000030400000127A80FF7F002800304044
:100A20002C003040FFFDFFFFFFFEFFFFFFBFFFFF79
:100A3000FF7FFFFF044B1A8F002902D01043188755
:100A4000704782431A87FBE700003040024BC00525
:100A5000C00D18807047C04600003040014B188818
:100A6000C0B2704700003040054B002805DA5B68D3
:100A70001840431E9841C0B270471B8BF8E7C04630
:100A800000003040034B9B8F1840431E9841C0B27A
:100A90007047C04600003040072202403820044919
:100AA000D2000B7883431800104308707047C0468B
:100AB00034003040F0B583780178002B33D0407893
:100AC0004AB28001002A1BDA0F230B40083B1B4A65
:100AD0009B089B009B18FF22032517000D40ED008B
:100AE000AF400240AA40DE69BE433243DA611F22B2
:100AF0004B0911401E3A8A4011499B00CA50F0BD73
:100B0000FF270F4B92089200D21803233C00C02508
:100B10000B40DB009C4038409840AD005659A6433E
:100B200030435051E3E71F234A090B40012199400C
:100B30001300034A20339B00D150E0E700ED00E0B2
:100B400000E100E070B5012186B006000920FFF742
:100B5000AFFE00F083F81C4B01388000C35800241E
:100B6000019300F07BF8194B0138800001ADC358A8
:100B700028002B71AC716C71FFF73CFD00F06EF832
:100B8000134B01388000C358019300F067F8114BF4
:100B900001388000C35828002B71FFF72BFD012579
:100BA000032303A80371437103728471C4714472F7
:100BB00085720396FFF796FE2000FFF76DFF280071
:100BC000FFF782FE06B070BD988B0510948B051060
:100BD000908B05108C8B0510042313B5040001A81D
:100BE0000370013B43708470FFF764FF2100102005
:100BF000FFF720FF13BD00000B4A10B513680B4927
:100C0000002B00D1116080241368640118180919A1
:100C1000884205D90C220120054B40421A6010BDC4
:100C200010601800FBE7C0461413002014030020D6
:100C30003829002010B502F02EFD10BD10B502F0CD
:100C40002AFD10BD10B50A00002102F03FFD10BDC5
:100C50000122014B1A70704718130020014B1878BD
:100C6000C0B270471813002010B50AF0DBFF10BDAA
:100C700010B50AF0F1FB10BD10B50AF0A7FE10BDCB
:100C80007FB50BAE368808AC09AD2D882488039655
:100C90000A9E0195029600940BF0B4F87FBD7FB5D3
:100CA00008AC20CC0AAE24783678019402960095E0
:100CB0000AF0EAFF04B070BD10B503F0ADFF10BD3F
:100CC00010B50CF0DFFC10BD01207047F0B58DB001
:100CD00012AC247809930A9413AC248818AB1B88AF
:100CE0000B9415AD14AC16AE17AF24882D8836883A
:100CF0003F8806930B9B059701930A9B04960093EC
:100D000003950294099B03F06DF90DB0F0BD10B589
:100D100003F021FA10BD10B503F034FD10BD10B57D
:100D200003F0AEFE10BD10B50EF000FF10BD10B503
:100D30000CF0A8FB10BD10B50BF0B0FE10BD10B547
:100D400003F040FF10BD10B503F044FF10BD10B517
:100D500008F000FC10BD10B511F020FE10BD10B55C
:100D600011F004FC10BD10B511F012FF10BD10B54C
:100D700011F024FC10BD10B50BF082F910BD10B5B8
:100D800008F0BEF910BD10B50BF098FB10BD10B502
:100D90000BF0C6F910BD10B50BF0DAFA10BD01204A
:100DA000704710B507F03CFA10BD10B513F0FEFE09
:100DB00010BD10B513F0CCFE10BD10B513F0AEFE93
:100DC00010BD10B514F0B8F810BD0120704710B573
:100DD00014F00CF910BD10B514F0F2F810BD10B5F8
:100DE00012F0BAFB10BD10B512F0D6FB10BD10B555
:100DF00012F064FC10BD10B512F02AFB10BD10B546
:100E000012F046FB10BD10B512F06CFB10BD10B512
:100E100012F0D8FB10BD10B512F0F6FB10BD10B5E6
:100E200011F002FC10BD10B511F0D1FB10BD10B5D2
:100E300011F0D8FE10BD10B511F0ECFD10BD7047DB
:100E400070477047704770477047704770477047EA
:100E5000704770477047704770470000002210B518
:100E6000084B1A60084B1B7A934209D1074B1B8928
:100E7000052B05D9064B01321A70FFF73AF9FEE748
:100E8000012010BD14000020000090400000104818
:100E90000C00002070B5FFF7E1FF012817D10023F7
:100EA00014481549154C1A188A4216D300231448C1
:100EB0001449154C1A188A4213D30021134B144AB3
:100EC000934212D30021134B134A93420FD3134B77
:100ED00083F3088801F0C2FE70BDE5580433156045
:100EE000E1E7E55804331560E4E702C3E8E702C32D
:100EF000EBE7C0464829002020300020009D051067
:100F00000800002034000020D49C0510C000002000
:100F1000CC020020CC0200204829002000600020E4
:100F2000002210B5104B995CC9B2002917D11C2AB8
:100F300014DC022021249854501C1C54901C193C91
:100F40001C54901D19549B18802290219BB2520270
:100F50001343C905CB60CB681342FCD110BD995C2B
:100F600001315218D2B2DEE7191300200023F0B588
:100F7000144AD45CE4B2002C1ED1192B0FDC0225DC
:100F80003B275E1CD55497555E199055DE1C955530
:100F900035261D1D56555D1D06335155D45402226C
:100FA0003B24094B1A705C709870DA7033321A71F6
:100FB000002259719A71F0BDD45C01341B19DBB267
:100FC000D7E7C046191300208013002070B58AB0FF
:100FD00003AC06000D0019223D49200002F05BFB26
:100FE0006846FFF789FA002E59D04023A3732C33AB
:100FF000E372113B2375374B374A1B68190C91423A
:1010000008D17020E17D1B018143E175E17D034042
:101010000B43E375314B1B68190C914208D130200A
:1010200061791B0181436171617903400B436371F5
:101030002B4B1B68190C914207D10321E27D0B4019
:101040008A43E275E27D1343E3750422E37A69463D
:101050009343E3726B465B78897893400B43112B83
:1010600008DDE37D1A43E275E07AE17DC0B2C9B2E2
:10107000FFF77CFF802390222404240C5B021C4396
:10108000D205D460D1681942FCD16B466A465B78C0
:1010900092781B011343112B01DDFFF741FF114B28
:1010A0001A8B002AFCD001221A8316329A81002260
:1010B0001A61954207D090231021DB0518691A693F
:1010C00042400A42FBD0084A084B1A600AB070BD81
:1010D000648B0510E807001055AA0000E407001013
:1010E000B007001000001048CCBCECFC140000203D
:1010F0000822C021F8B53F4B3F4D9A803F4A090472
:10110000136AFF202B400B43C0211362136A0906A8
:101110001B021B0A0B431362C02292009446384BF9
:1011200064469A58374E82433F38024360461A500D
:101130001A58C0203240000202431A51C122FF2730
:1011400092009C58BC433F3F3C439C509C583F37C7
:10115000344004439C509C582C409C509C58240282
:10116000240A0C439C500832944664469A583240F4
:1011700002431A511A59C0242A40240422436446C7
:101180001A511A591202120A0A431A51C422920021
:10119000944664469A58324002431A511A59C02460
:1011A0002A402404224364461A511A591202120A90
:1011B0000A431A51C52292009C58BC432700C02400
:1011C0002743C0249F509F5824043E4030439850EA
:1011D000985805402C439C5098580002000A01433F
:1011E000995001210800FFF7F1FE074A074B1A62E8
:1011F00062B6F8BD00001040FFFF00FF00ED00E008
:1012000000E100E0FF00FFFF66000E0000009040DC
:1012100000B50300032923D80800C522FEF794FF78
:10122000022123251B21197000215A70D5225971E2
:10123000B43199711A39D97147311972D03959724B
:10124000293199729531D9724F399A701973303AA0
:101250001239DA705973A33A38391A719973DA73FB
:1012600000BD3B21DFE73C21DDE73D21DBE700005E
:101270002A23F0B58BB006AC23709B336370D52363
:10128000A370A523E37000236371B433A3719A2381
:10129000E371E1232372112363723A23A372CF23F4
:1012A000E372802323736E23022563733623764E05
:1012B000102221003000A3732571E573FFF753F965
:1012C000724A734B31001B7828000092012202F011
:1012D0007CFF071E06D002206E4900F019FB472054
:1012E0000BB0F0BD2B2323709A336370D523A3700A
:1012F000A523E370B423A3719A23E371E12323723E
:10130000112363723A23A372CF23E37280232373E2
:101310006E2363733623604E60711022210030000B
:10132000A3732571E573FFF71EF9584B3200188837
:101330005A4B049705931023029703930197009546
:101340000F3B290002F022FF071EC4D12C2323707B
:1013500099336370D523A370A523E370B423A371DD
:101360009A23E371E1232372112363723A23A37258
:10137000CF23E372802323736E236373362360715C
:10138000102221003000A3732571E573FFF7EBF8FD
:101390003E4B32001888424B049705931023029766
:1013A0000393019700950C3B290002F0EFFE071E06
:1013B00000D090E72D23237098336370D523A3705A
:1013C000A523E370B423A3719A23E371E12323726D
:1013D000112363723A23A372CF23E3728023237312
:1013E0006E23637336236071102221003000A373D3
:1013F0002571E573FFF7B7F8244B32001888294BA5
:1014000004970593102302970393019700950F3BD0
:10141000290002F0BBFE071E00D05CE72E232370DC
:1014200097336370D523A370A523E370B423A3710E
:101430009A23E371E1232372112363723A23A37287
:10144000CF23E372802323736E236373362360718B
:10145000102221003000A3732571E573FFF783F894
:101460000A4B32001888104B0497059310230297FB
:101470000393019700950F3B290002F087FE002897
:1014800000D028E72CE7C0462C190020EE140020DD
:1014900099290020C98B0510F4140020041900209C
:1014A00008190020F21400203C1900201A23F0B57E
:1014B0008BB006AC2370BB33A370A523E37000236D
:1014C0006371B433A3719A23E371E123237211236F
:1014D00063723A23A372CF23E372802323736E23B4
:1014E00002256373C5273623284E102221003000C1
:1014F000A37367702571E573FFF735F8244A254B10
:1015000031005B7828000092012202F05EFE061E88
:1015100006D00220204900F0FBF947200BB0F0BDB7
:101520001B232370BA33A370A523E370B423A371E4
:101530009A23E371E1232372112363723A23A37286
:10154000CF23E372802323736E2363733623677084
:10155000124F6071102221003800A3732571E573CA
:10156000FFF701F80A4B3A0018880D4B04960593D3
:10157000102303930F3B02931D33009301960B3B03
:10158000290002F003FE0028C3D1C7E72C19002070
:1015900090130020992900209C8B0510F414002042
:1015A000061500203A23F0B58BB006AC2370C52396
:1015B0006370D523A370A523E37000236371B43354
:1015C000A3719A23E371E1232372112363723A23F7
:1015D000A372CF23E372802323736E2302256373E8
:1015E00036235F4E102221003000A3732571E5736E
:1015F000FEF7B9FF5B4A5C4B31009B7828000092F4
:10160000012202F0E2FD061E06D00220574900F03A
:101610007FF947200BB0F0BD3B2323708A33637002
:10162000D523A370A523E370B423A3719A23E37198
:10163000E1232372112363723A23A372CF23E3724F
:10164000802323736E2363733623494F6071102206
:1016500021003800A3732571E573FEF784FF414B29
:101660003A001888434B04960593102303930F3BCD
:1016700002931D330196009329000B3B02F086FD77
:10168000061EC2D13C23237089336370D523A37017
:10169000A523E370B423A3719A23E371E12323729A
:1016A000112363723A23A372CF23E372802323733F
:1016B0006E23637336236071102221003800A373F8
:1016C0002571E573FEF74FFF264B3A0018882A4B29
:1016D00004960593102303930F3B02930D33019659
:1016E00000932900053302F051FD061E00D08CE75F
:1016F0003D23237088336370D523A370A523E37043
:10170000B423A3719A23E371E1232372112363723B
:101710003A23A372CF23E372802323736E23637370
:1017200036236071102221003800A3732571E57300
:10173000FEF719FF0B4B3A001888104B04960593DF
:10174000102303930F3B02930D330093019606334E
:10175000290002F01BFD002800D056E75AE7C046DA
:101760002C1900200C19002099290020B18B05109C
:10177000F4140020061900206014002068140020D2
:101780001FB504000D4800F0DBF80D4B1A880D4B17
:1017900019880D4B18881323039400240293009397
:1017A0000194123B02F054FDA04204D002200749EC
:1017B00000F0AEF8472004B010BDC0469E8C051066
:1017C000061900200C19002040130020BE8C0510C3
:1017D0007FB500221D4B1E4D03AC1988227028884E
:1017E0000123009402F02AFD1A49061E28D11A4945
:1017F000200001F073FF194B2888198832000094EB
:10180000042302F01BFD1649021E19D1154B28882E
:101810001B782370144B19880094012302F00EFDED
:101820001249021E0CD1124B28881B782370114BD1
:1018300019880094012302F001FD002804D00E490C
:10184000022000F065F8472004B070BD04190020A4
:10185000EE140020DF8B0510098C051008190020FC
:101860000E8C051004150020F21400203D8C05108C
:101870000E1900203C1900206C8C051000230B4A27
:1018800013600B4A13700B4A13700B4A13700B4B07
:101890000B4A5A600B4A9A600B4ADA600B4A1A618B
:1018A0000B4A5A610B4A9A617047C0466414002083
:1018B000EC140020F01400206A1400206C140020A6
:1018C000E88C0510F78C0510078D0510168D051096
:1018D000268D0510348D0510094B01201B68002B47
:1018E0000CD1084B1B78002B08D1074B1B78002B21
:1018F00004D1064B1878431E9841C0B27047C046C9
:1019000064140020EC140020F01400206A1400205D
:1019100010B50C00074B8000C05800F011F80648C5
:1019200000F00EF8200000F00BF8044800F008F872
:1019300010BDC0466C140020DF8F0510D08E05103E
:1019400010B501F06AF910BDF7B50500134801F0B4
:1019500064F905240F262B5D1A0911003731092A75
:1019600001D83032110033401A0001A8017037321B
:10197000092B01D830331A00002342708370671E90
:1019800001F04BF9002C05D0054801F046F93C0068
:101990007B1CE0D1034801F040F9F7BDD88F05105A
:1019A000DE8F0510D08E0510F0B50E0085B001AFAA
:1019B00004000B221149380001F06DFE3500002CA7
:1019C00003DA2D23751C3370644220000A2101358F
:1019D000FEF74EFC0028F9D1287020000A21FEF7FE
:1019E0002DFD7B5C013D20002B700A21FEF740FCA1
:1019F000041EF2D1300005B0F0BDC046A58F051021
:101A00001FB501A9FFF7D0FF01A801F006F905B045
:101A100000BD0000F0B5CD4C8DB000AF210001F04D
:101A200065FECB490600FEF77DFB002809D1C948B9
:101A300001F0F3F8C84801F0F0F8C84801F0EDF8FB
:101A400048E0C7493000FEF76DFB002801D1C548CA
:101A5000F4E7C5493000FEF765FB002816D10123E5
:101A600002003B757875B8611423FB181B18013010
:101A70001A721328F8D143233B77BC337B77EF3BB3
:101A8000BB770433F81801F0B5F923E0B74930000B
:101A9000FEF748FB051E20D100F032FFB44801F0EC
:101AA000BCF8B44801F0B9F80626B34801F0B5F81F
:101AB0002800FFF7A5FFB148092D00DD200001F047
:101AC000ACF830006843AE4B0135C018FFF73CFF5F
:101AD000202DEAD1BD460DB0F0BDAA493000FEF779
:101AE00021FB002838D1092302003B75063B7B759A
:101AF000B8611423FB181B1801301A721328F8D18F
:101B00002100002001F0F2FD002801D19E4895E758
:101B100001F0ACFD21003877002001F0E7FD00283E
:101B2000F4D09A4D0124290001F0E0FD002801D1F4
:101B30001423A7E7072C0DD01022002101F0B4FEDA
:101B40001423FB181B19187229000020013401F01E
:101B5000CDFDEBE78E4871E78E493000FEF7E2FAE3
:101B6000051E75D16B462100FB6001F0BFFD00280A
:101B700003D1894801F051F857E001F077FDC3B275
:101B8000060086481F2BF5D82100280001F0AEFD85
:101B90000028EED001F06AFDB8603B7A21002800F1
:101BA0007B6001F0A3FD041EE3D07D4801F035F811
:101BB000FF231E403000FFF723FF7A4801F02DF885
:101BC00006235E436E4BF6183000FFF7BDFE7648E5
:101BD00001F023F8FF23B8681840FFF711FF73489E
:101BE00001F01BF8200001F018F85C4801F015F82E
:101BF00014237968F818FFF70BFB2000FEF79CFA16
:101C00006B4640080730C008C0001B1A9D46BB60E9
:101C10002000FEF791FAA8420AD814234008C1B266
:101C2000FB18BA68300000F0D3FAFB689D4651E714
:101C300010220021635DB8183B7463195B78B97496
:101C40007B7401F031FEBA686B10D0540235DFE7C7
:101C500057493000FEF766FA051E00D0B6E06B4625
:101C60002100FB60B86101F041FD002801D151481D
:101C700080E70A22290001F017FEC0B238750A2851
:101C800001D94D4876E72100280001F02FFD0028FA
:101C9000EDD00A22002101F007FE21007875002016
:101CA00001F024FD041EE2D0444800F0B6FF387D68
:101CB000FFF7A6FE424800F0B0FF787DFFF7A0FED8
:101CC000404800F0AAFF200000F0A7FF234800F0E2
:101CD000A4FF2000FEF730FA6A464608F31DDB0831
:101CE000DB00D31A9D462000BB60FEF725FA2728AB
:101CF00010D935483EE710220021635DB8183B74C7
:101D000063195B78B9747B7401F0CEFDBA686B100F
:101D1000D05402352000FEF70FFAA842EBD800237A
:101D200019009E420BD81422BA18D218117201332E
:101D3000132BF6D10133F81801F05CF875E7BA6897
:101D4000D05C1422BA18D2181072F0E73D8E05103C
:101D5000418D0510498D0510098C0510D08E051098
:101D6000638D0510688D0510108E0510178E0510F7
:101D7000208E05102E8E0510688F05103C8E0510E4
:101D8000AD2100203F8E0510478E05105E9705108F
:101D9000628E05106F8E0510768E0510BF8E0510B1
:101DA000D28E0510EF8E0510F78E0510028F0510EC
:101DB0000E8F0510168F0510418F0510548F0510DA
:101DC0006D8F05107A8F0510848F0510004835E659
:101DD000928F051070B50400134800F01EFF1348E1
:101DE00000F01BFF2078FFF70BFE114800F015FFF5
:101DF0006078FFF705FE0F4800F00FFF6068FFF7FF
:101E0000FFFD25000C4800F008FF08351B340B4887
:101E100000F003FF28780135FFF7F2FDA542F6D167
:101E2000074800F0FAFE70BDB08F0510B98F05109D
:101E3000BE8F0510C38F0510CA8F05103D8E05108B
:101E4000D48F051070B50400104800F0E6FE10486D
:101E500000F0E3FE2078FFF7D3FD0E4800F0DDFE32
:101E60006078FFF7CDFD0C4800F0D7FEA51C1534B7
:101E70000A4800F0D2FE28780135FFF7C1FDA542DF
:101E8000F6D1074800F0C9FE70BDC046E28F0510CC
:101E9000EB8F0510F18F0510FD8F05103D8E05109D
:101EA000D58F051010B5FEF7D3FEE1204002FEF7F6
:101EB00049FE0120FEF790FE0148FFF741FD10BDED
:101EC0000890051070B5434A86B00621002002F044
:101ED000E6F9002803D040490220FFF719FD05214B
:101EE000012002F0D8F902F0A5F93C49041E25D1E1
:101EF0003B4B3C4D3C4E0193010000962B001022C1
:101F0000052002F09CF8041E09D002203749FFF793
:101F1000FFFC2000FFF774FD200006B070BD328882
:101F20001026334B298803930296019000960300F4
:101F300002F08EF90400051E04D02E490220FFF79E
:101F4000E7FCE9E72C4B012103930723049002905F
:101F50000093020003000196080002F089F8274967
:101F6000041EEBD12648FFF7EBFCFFF781F9041EB6
:101F700008D12448FFF7E4FCFFF798FA041E03D0C9
:101F80002149DBE72149D9E72148FFF7D9FCFFF7D1
:101F900009FB041E01D01F49D0E71F48FFF7D0FC02
:101FA0001E4B1C78002CB7D01D4800F047FD802147
:101FB000C9012B002A000800FEF7A9FE041E05D067
:101FC00018490220FFF7A4FC2C00A5E71648FFF7EC
:101FD000B7FCA1E7A32900200F920510329205104B
:101FE00014230020302300201A23002049920510DA
:101FF000382300205F92051040E20100879205100F
:10200000B7920510DB92051039930510FC9205106C
:10201000199305107893051055930510C8200020DA
:102020009D29002097930510C593051010B5114800
:10203000FFF786FC1048FFF787FC104802F078F99C
:10204000002806D00E490220FFF762FC01220D4B4A
:102050001A70FFF737FF002807D00B490220FFF75F
:1020600057FC0122074B1A7010BD0848FFF768FCA7
:10207000FAE7C04699910510A32900202490051085
:10208000B2910510F0140020DA910510F0910510BE
:10209000092330B501248FB009AD134A2B70631E9C
:1020A000D35C2B550134112CF9D10021080006F026
:1020B0004FFA0020F022C82106900590049003906A
:1020C0000295019400900300D200C90002F018F8B4
:1020D000002805D005490220FFF71AFC0FB030BDDB
:1020E0000348FFF72DFCF9E738230020C1940510C1
:1020F000E394051010B502F024F8041E05D005493C
:102100000220FFF705FC200010BD0348FFF718FC74
:10211000F9E7C0460B95051031950510FA2210B568
:10212000D20088B02821069205923C2202910191AA
:10213000802104920022C90103000392009208004A
:10214000FEF7C4FD041E06D00D490220FFF7E0FB98
:10215000200008B010BD0B48FFF7F2FB0A4C0B4BF8
:102160001B68002B07D1002C01D1FF34F0E702F0EF
:102170009BF8013CF3E763425C416442E4B2E7E769
:10218000F99305101A940510A08601003C13002055
:1021900070B50C4D47242B68002B11D00A4B13212E
:1021A000188880B201F0DBFF041E06D00749022028
:1021B000FFF7AEFB04E002F077F82B68002BFAD1B2
:1021C000200070BD3C130020401300205D950510D9
:1021D000F0B5060089B03F481C0002910392FFF75A
:1021E000AFFB3D4F3B68002B60D03C48FFF7A8FB9E
:1021F0003B4D3B68002B08D0002D02D1FFF7C8FFF4
:1022000005E002F051F8013DF3E7002DF6D0300073
:10221000FFF784FF002852D104AD102221002800CE
:10222000FEF7A1F926002F48FFF78AFB1036207829
:10223000FFF7E6FB01342C48FFF782FBB442F6D1EE
:102240002A4C2000FFF77CFB294E02233088294AC4
:1022500080B20095012101F0D9FF274B1A88002A8E
:1022600027D000221A803088198880B2013189B2C3
:10227000039B029A02F00BF8051E09D01F490220A9
:10228000FFF746FB2800FFF7BBFB2000FFF758FBDA
:102290001B4B1A78002A0FD000221A70FFF778FF24
:1022A0001848FFF74DFB002009B0F0BDFFF722FFF3
:1022B000ADE701F0F9FFD0E701F0F6FFE8E7FFF73F
:1022C000E7FE11490220FFF723FB3000FFF73CFB3C
:1022D000E6E7C046309405103C13002043940510F7
:1022E000A08601005E9405103D8E0510D08E05106D
:1022F00040130020FFFF00004413002068940510E5
:1023000042130020A99405108D94051010B50248C1
:10231000FFF716FB10BDC0466490051010B50248CB
:10232000FFF70EFB10BDC0465890051001220A4B66
:1023300010B51A60094B0A481980FFF701FB029893
:10234000FFF702FB0023074A0299C95CD15401330D
:10235000062BF9D110BDC0463C13002040130020CD
:10236000899105102019002000230121054A10B58C
:102370001360054A05481170054A1380FFF7E0FA1B
:1023800010BDC0463C1300209C2900205091051030
:102390004013002010B504000348FFF7D1FA2000D5
:1023A00001F02EFF10BDC0462F910510F7B50400B7
:1023B000074816001F000D00FFF7C2FA002301971F
:1023C000009629001A00200001F053FFF7BDC04617
:1023D0003891051070B53B4888B01D000E000C9C6C
:1023E000FFF7AEFA384B1B8801339E4206D122001C
:1023F0001321012000F09EFE08B070BD334B1B88F6
:1024000001339E4244D12278637801A80270437060
:10241000092A15D0E278A37812021A4323791B0403
:102420001A4363791B06134343600023284CE15C85
:10243000C21801331172132BF9D100F0DBFCDBE77A
:1024400000224260012B0CD1A278224B1A70E27854
:10245000214B1A702279214B1A706279204B1A7025
:10246000E3E7022BE1D1A279637912021A43E379FF
:102470001B041A43237A1B0613431A4A1360A278DB
:10248000144B1A70E278184B1A702279174BE6E752
:10249000174B1B8801339E4207D100230C4AAB42E5
:1024A000AADAE15CD1540133F9E7124B1B880133FE
:1024B0009E42A1D10023104AAB429DDAE15CD15487
:1024C0000133F9E7939005100615002068140020E9
:1024D00000230020322300202F2300201623002079
:1024E0001723002034230020182300201923002064
:1024F00006190020601400201C23002010B50C1EBB
:102500000CD00A490220FFF703FA0948FFF718FA2E
:102510002000FFF775FA0748FFF712FA0648FFF7A1
:102520000FFA0122054B1A7010BDC046F19005103C
:1025300010910510D08E05101D910510421300203A
:10254000F8B515001E000E480F00FFF7F9F90D4809
:10255000FFF7F6F92800FFF753FA3400A31B9D425A
:1025600005DC0948FFF7ECF9084B1F80F8BD084867
:10257000FFF7E6F92078FFF743FA0134EEE7C046AB
:10258000A5900510E4900510D08E0510441300208E
:102590003D8E051010B50248FFF7D2F910BDC046B8
:1025A00042910510F7B514240E000D0044430C1998
:1025B000A54200D1F7BD2B78002B17D1B11C062204
:1025C0006846FDF7D0FF0A48FFF7BAF96846FFF7FB
:1025D000BBF9084F6846390000F04EFA002805D0D4
:1025E0000548FFF7ADF9380000F028FA1435DFE7A9
:1025F0005E9105109D2900206591051070B586B08B
:10260000022840D12148FFF79BF90622204904A85F
:1026100001F041F81F4D04A8290000F02DFA041E16
:1026200031D11D48FFF78CF92800FFF78DF91B4EBB
:102630002B5D33550134062CFAD100F0BBF9320082
:102640002100002001F02BFE002803D014490220B5
:10265000FFF75EF9134B00201A88134B1988134BB0
:1026600001900393102302930093030001F0F0FD07
:10267000002803D00E490220FFF74AF900F092F932
:1026800000220C4B1A7006B070BDC0467390051046
:102690007D8B05109D29002082900510A329002024
:1026A0000F9205101A230020302300203823002029
:1026B0005F920510C8200020012110B50800FEF728
:1026C000F7F810BD07B506236A4613710023009082
:1026D000684693715371FDF78DFF07BD07B504235D
:1026E0006A46137100230090684693715371FDF799
:1026F00081FF07BD07B501236A46137100230090CF
:10270000684693715371FDF775FF07BD07B5052343
:102710006A46137100230090684693715371FDF768
:1027200069FF07BD10B51948FDF729FF184C207047
:102730001848FDF724FF184B18701848FDF71FFFC5
:10274000174B18701748FFF7FBF82078FFF758F978
:102750001548FFF7F5F8154B154AFF2113600023C4
:102760001448890004338B420AD1002312491348CC
:102770001A1DA42A06D100F09DF9FFF757FC10BDE1
:10278000D050EFE7C8501300F2E7C04680EF0710C3
:102790000E19002081EF07100415002082EF0710AA
:1027A0000A19002081950510D08E051028190020E7
:1027B0000815002064140020C0130020EC14002031
:1027C000024B8000C15000207047C0460815002011
:1027D000024B8000C15000207047C046C01300204B
:1027E000044B8000C3581868034B1B68984200D103
:1027F000024870470815002064140020FFFF000005
:10280000F8B5314B1B78282B05D9FF222F4B1A70B6
:1028100028232D4A137001242D4E3000FDF7AFFE02
:102820000500FFF7EDF82B4FAD00EB592A4A1B6866
:1028300093421BD12000FFF745FF7B5901361C60F6
:10284000264B64009E42E8D10E24254BE018FDF78C
:1028500096FE80003B581C6001341E2CF5D10025EB
:10286000FF27194B1B789D4215DBF8BD1D4A93428B
:1028700003D12000FFF732FFDFE71B4A934203D169
:102880002000FFF737FFD8E7184A9342D5D1200040
:10289000FFF73CFFD1E7164BEC1864002000FDF772
:1028A0006EFE0600601CFDF76AFE272E05D8114B50
:1028B000B600F35818700135D3E70F4B0F490620C7
:1028C0001F70FFF725F8F6E70A190020EC14002026
:1028D00090EF071008150020FFFF00009EEF071083
:1028E00092EF0710F0FF0000F1FF0000F2FF000080
:1028F000D8F70308C01300206A140020899505103A
:1029000070B5104D104C601EFDF739FE2870200088
:10291000FDF735FE6870601CFDF731FEA870A01C45
:10292000FDF72DFEE870E01CFDF729FE2871201D43
:10293000FDF725FE054B0834687106359C42E2D14F
:1029400070BDC046AD21002081BA071081BB0710C1
:1029500073B5114E050030000C00FEF7F1FF0622A2
:1029600062430E4BD21800236846E95C1954D154D7
:102970000133062BF8D13000009DFEF7E1FF084B34
:102980002900E418E4002000FDF71CFE6B46201D22
:102990009988FDF717FE73BDF2950510AD21002053
:1029A00050F7000210B500210148FFF7D1FF10BD1C
:1029B000A32900206223F7B51C4C1D4E23700A3357
:1029C0006370043BA37001AD0633E37030780633C7
:1029D00029002371FEF7E8FF32782B78092A21D8E5
:1029E00030226271A371752302220F26E37111490F
:1029F0000C3B114D2372535D180907003737092826
:102A000001D830300700334018000F703730092BE1
:102A100001D83033180048700231013AEBD26423F8
:102A2000E373F7BD63716B78DCE7C04638230020A1
:102A30000E19002041230020A329002013B5040013
:102A4000684605F0FDFC002803D00A490220FEF785
:102A50005FFF6B461B7823706B46DB7863706B46B9
:102A60009B79A370E123E370613B23717E3B63712B
:102A700013BDC046A095051010B50A780478002350
:102A8000944215D144784A78944211D184788A7856
:102A900094420DD1C478CA78944209D104790A7954
:102AA000944205D1437948791B1A58424341DBB21D
:102AB000180010BD7FB5002358211C4AD1540133A2
:102AC000102BFBD1FFF71CFF06221949684600F0C6
:102AD000E2FD0622002102A800F0F8FD154E69462D
:102AE0003000FFF7C9FF144D041E14D102A93000B5
:102AF000FFF7C2FF002810D0104AA35C2B55013409
:102B0000062CFAD101220E4B0E481A70FEF718FF60
:102B1000FFF750FF7FBD0024EEE7335C2B540130FC
:102B20000628FAD10022064B1A70F1E7382300205C
:102B3000838B0510AD210020A3290020A9290020A6
:102B4000C8200020CD950510F8B505000024062604
:102B5000094F310061432800C919FFF78DFF002894
:102B600001D0E0B2F8BD0134202CF2D1022003499B
:102B7000FEF7CEFEFF20F5E7AD210020BF95051042
:102B8000202807D900230B704B708B70CB700B7112
:102B90004B71704706225043064BC25C18180A70EE
:102BA00043784B7083788B70C378CB7003790B714B
:102BB0004379EDE7AD21002010B51020FDF762FF4D
:102BC000002400280AD104000C4A0D491378CC5483
:102BD0000133137011E0FDF741FFC4B21020FDF77F
:102BE00043FF0028F7D00D2CEED10022034B044800
:102BF00019781A704254FEF70DFF10BDAC21002069
:102C00009C22002010B504002020FDF72DFF012894
:102C1000FAD0A0B2FDF71AFF10BD10B5040020785D
:102C2000002800D110BDFFF7EDFF0134F7E70000E9
:102C300070B5084C2378002B06D0074B1D78002D6B
:102C400002D1FFF725FA257000F046FA00F046F9A8
:102C500070BDC0469C290020C820002010B5FEF79A
:102C600047FAFFF71FF9FDF731FCFEF707FEFFF704
:102C700059FDFFF721FD00F055F900F0FBFAFFF7D1
:102C8000BFFD00F005FBFEF7A3FDFEF725FE0028C3
:102C900007D10648FEF754FE01F006FBFFF7C8FF18
:102CA000FAE70348FEF74CFEFEE7C046099605101A
:102CB0002996051010B502490420FEF729FE10BD23
:102CC0006896051010B503200249FEF721FEFF208B
:102CD00010BDC0468496051010B503200249FEF7CA
:102CE00017FEFF2010BDC046EE96051010B5132844
:102CF00005D903200449FEF70BFEFF2010BD034B4E
:102D00001B6818184078F9E79F9605106C2800207A
:102D1000F8B500240F4BE018FDF731FC0E4E0F4BB9
:102D2000A5192870E018FDF72AFC0D4B6870E5180E
:102D30000C4BE7182800FDF722FC0B4BEB18013574
:102D4000F054BD42F6D1E0231C349B009C42E1D1FB
:102D5000F8BDC04680E407104419002081E4071044
:102D600083E4071096E40710851BF8EF0023190091
:102D7000124A10B51360124A12481370124A1370A7
:102D80001A181C331170E02BFAD1104B104A11485D
:102D900013600123104C9900132B0DDC54500133A8
:102DA000FF2BF8D100230D4A0D49D15004332C2BB1
:102DB000FBD1FFF7ADFF10BD5050F0E7C42000205D
:102DC00040190020CC200020C0200020D92C041065
:102DD000C41C0020C52C0410ED2C0410702200200F
:102DE000B52C0410024B8000C15000207047C04633
:102DF00070220020F7B51C27134E144C33780500C1
:102E00007B431B5D0193002B04D011490120FEF789
:102E10007FFDF7BD0F48FEF793FD2800FEF7DAFFB0
:102E200033785F43E4190ECD0EC40ECD0EC42B686B
:102E3000236033780133DBB233703378072BE8D962
:102E40006B461B793370E4E740190020CC2000204A
:102E5000439605105896051003001C2010B55843E2
:102E6000024BC018FFF7C6FF10BDC0464419002032
:102E700070B50500002401263300A3406A68E0B263
:102E80001A4205D0044AA300D35898472B19187248
:102E90000134132CF0D170BDC41C002010B5040007
:102EA0000B48FEF74DFD2000FEF794FF2000FFF7D2
:102EB000DFFF23780A2B05D8064A9B009B58200089
:102EC000984710BD04490420FEF722FDF9E7C046EB
:102ED000C496051070220020D696051070B51C25EA
:102EE0000D4C0E4E23786B43985D002813D020784C
:102EF0000B4B684380191860FFF7D0FF002223783E
:102F000001205D432378AA550133DBB22370237877
:102F1000072B00D9227070BDC0200020CC200020DB
:102F2000C420002010B5FFF721FF00F0F9F800F0F1
:102F300049F810BDF8B50024184BE018FDF71FFB49
:102F4000174E184BA5192870E018FDF718FB164B03
:102F50006870E018FDF713FB144BA870E518144BCC
:102F6000E7182800FDF70BFB124BEB180135F05466
:102F7000BD42F6D1104BE518104BE7182800FDF7BD
:102F8000FEFA0F4BEB180135F054BD42F6D1A423E5
:102F90002934DB009C42CFD1F8BDC04680C4071065
:102FA0004823002081C4071082C4071084C407107E
:102FB00097C407107F3BF8EF9CC40710AFC40710FD
:102FC0007A3BF8EF10B5FFF7B5FF00231900064A6A
:102FD00006481360064A1370064A13701A18153310
:102FE0001170A82BFAD110BD6C2800207028002089
:102FF000682800206928002084B0F8B51527144CF3
:1030000009932378134E7B439D5D069007910892A8
:10301000002D07D010490120FEF77AFCF8BC08BC4F
:1030200004B018470D48FEF78BFC06A8FEF70AFF10
:1030300020783A00784306A9301800F02CFB23785A
:103040000133DBB223702378072BE7D92570E5E73E
:103050006828002070280020149705102997051073
:10306000F8B5A42605000024F60019482A7823188C
:103070005978914211D19A786B789A420DD12F00EC
:10308000144AAB1C1537D17C002911D0012908D175
:1030900011788C4619788C450AD02934B442E4D191
:1030A000F8BD02290CD111788C4619788C45F4D9D9
:1030B00001330132BB42E6D1005DFFF7CDFEECE704
:1030C0000329F5D111788C4619788C45F0D3E4E7C3
:1030D000482300204B23002070B515250D4C0E4EC3
:1030E00023786B43985D002813D020780B4B6843FE
:1030F00080191860FFF7B4FF0022237801205D4398
:103100002378AA550133DBB223702378072B00D92B
:10311000227070BD69280020702800206C280020D3
:1031200070470000024B8000C15000207047C0462D
:103130009413002070B504000D0016000448FEF73B
:10314000FFFB044BA40031002800E358984770BDF2
:103150004F9705109413002010B506F067F810BDC6
:1031600010B5FDF7ABF910BD10B5FFF725FD10BD8B
:1031700070B50024E6B23000FFF732FB094B0500C2
:1031800098420BD0FDF7B7FA012807D12800FDF7C8
:10319000ACFA002230001100FFF7CCFF01340B2CF9
:1031A000E8D170BDFFFF000010B500F0FDF810BDC4
:1031B00010B50248FEF7C4FB10BDC0464497051089
:1031C00010B50248FEF7BCFB10BDC046399705108C
:1031D00030B50F4889B00D00FEF7B2FB012302ACF9
:1031E0000C482370FFF7B0FC00236070E95CE21824
:1031F00001339170132BF9D16B46069A009206AAFF
:1032000012791A710FCCFFF7F7FE09B030BDC04636
:10321000729705102019002010B5040086B00D48E3
:10322000FEF78EFB60780834002804D12000FEF7FA
:10323000A7FA06B010BD6946FFF7A2FC02A800215C
:10324000FDF7E6FF02AB220013216846FEF7C0FF40
:10325000EFE7C0466097051010B504490120FFF75D
:1032600061FF03490120FFF7BDFD10BDD1310410FE
:103270001932041010B5FFF7EFFF00F013F900F05A
:10328000E5F900F0F1F800F0B1F900F045F810BDF3
:1032900010B500F053F810BD10B504001C48FEF73F
:1032A0004FFB6278022A1CD0032A2BD0012A17D1A7
:1032B0000720184B197D81430A431A75217AFF2292
:1032C000002901D00F224A439A801A810122382115
:1032D00052429A811A7D8A43110008220A431A75C4
:1032E00010BD07220B490B7D93431A0001231343A2
:1032F0000B75227AFF23002A01D00F2353438B80C2
:103300000B81EDE70721034A137D8B431375E7E734
:10331000849705100000E04010B50549054B0520D5
:103320000B60FFF74DFA04490A20FFF75BFD10BD63
:1033300018290020F1FF0000993204101FB5174A28
:10334000174B12689A4228D8802001214001FDF7CE
:10335000AFFA8023002402A9CB7012487F338B8000
:10336000CB800C704C708C70FDF7CEF901210D48AC
:10337000FDF70EFA210001220A48FDF713FA142383
:1033800001A803700134113B43708470FDF792FB78
:10339000220008210348FDF719FA1FBD1829002053
:1033A000FFEF00000000E040072210B505480821AB
:1033B000037D93430375037D313293430375FDF71A
:1033C00010FA10BD0000E04010B50248FEF7B8FA50
:1033D00010BDC046E0970510F7B504001C48FEF785
:1033E000AFFA6378022B30D0032B05D0012B2BD101
:1033F0001848FEF7A5FA27E00025267A002E01D10D
:10340000002D21D105236946E21A927B5A54013BD3
:10341000F9D21148FEF794FA1048FEF791FA3000FD
:10342000FEF7EEFA0E4F07353800FEF789FA6846C8
:10343000FEF78AFA3800FEF783FA31006846FFF794
:1034400087FA0734152DD8D1F7BD0648D1E7C04615
:1034500093970510B4970510A0970510688F051075
:10346000D08E0510C997051010B504490920FFF743
:1034700059FE03490920FFF7B5FC10BDC9330410FC
:10348000D933041010B50248FEF75AFA10BDC046F1
:10349000F997051010B50248FEF752FA10BDC04664
:1034A000ED97051010B5094B094902200B60FFF795
:1034B00087F908490220FFF78BF907490220FFF737
:1034C00031FE06490220FFF78DFC10BDFFFF000012
:1034D000242900203029002085340410953404105C
:1034E00010B50248FEF72CFA10BDC0464D980510E5
:1034F00010B504003348FEF723FA6378022B22D07C
:10350000032B3FD0012B17D1247A2F48FEF718FA4E
:103510002000FEF775FA2D48FEF712FA032C0BD89F
:1035200020002B4BFCF710FE02090B0D294A1068F6
:10353000984201D0FDF7D3F810BD274AF7E7274A94
:10354000F5E7274AF3E7247A2648FEF7F9F9200041
:10355000FEF756FA1D48FEF7F3F9032CECD82000CD
:103560001B4BFCF7F1FD02090B0D1A4A106898423B
:10357000E2D0FDF7ACF8DFE7174AF7E7174AF5E7BF
:10358000174AF3E7247A1848FEF7DAF92000FEF725
:1035900037FA0E48FEF7D4F9032CCDD820000C4B97
:1035A000FCF7D2FD02090B0D0A4A10689842C3D0FD
:1035B000FDF791F8C0E7084AF7E7084AF5E7084A37
:1035C000F3E7C0460598051013980510D08E051036
:1035D000FFFF00001C29002034290020282900209A
:1035E00020290020269805103998051070B5104B39
:1035F000104E114D114C124901200B6033602B60AD
:103600002360FFF7DDF831000220FFF7D9F8290029
:103610000320FFF7D5F821000420FFF7D1F809496E
:103620000720FFF77FFD08490720FFF7DBFB70BD90
:10363000FFFF000034290020282900202029002035
:103640001C290020E1340410F134041010B50349A2
:10365000034B05200B60FFF7B3F810BD2C290020A9
:10366000FFFF000010B500F01FF810BD10B50A22D2
:10367000002100F019F910BD30B50024A24201D19B
:10368000002005E0035D651C0C5DA34201D0181B02
:1036900030BD2C00F2E7002310B59A4200D110BDD6
:1036A000CC5CC4540133F8E710B5884202D98B18BA
:1036B000984208D300239A4207D0CC5CC45401330B
:1036C000F9E78B5C8354013AFBD210BD03008218EA
:1036D000934200D1704719700133F9E7031C0A784F
:1036E00001311A700133002AF9D17047F8B5134B34
:1036F00006001D680F00E8352C68002C16D15020FC
:1037000000F0F4F92860046044608460C4600461DF
:10371000446184618462C462046344638463C463F7
:10372000046444648464C464047744622A6839008D
:103730003000012300F004F8F8BDC046B029002095
:10374000F0B5002804D11068002801D1F0BD200098
:103750000E000578441C3778002F04D1002D10D1BD
:1037600015602800F2E70136BD42F4D1002BEED1FE
:1037700014600370EAE733000EE001351C00002FEF
:1037800002D10D002678631C2F78BE42F5D1002EA1
:10379000F1D00024591E0C701360D7E7F0B51F005C
:1037A0000E0087B00590039102920C98347800F0D7
:1037B00097F9082200194378751C13400CD12D2C61
:1037C0000CD101332C780193B51C002F0CD0102F95
:1037D00014D1302C0AD011E02E00E6E701932B2CF7
:1037E000F3D12C78B51CF0E7302C2FD120222B7888
:1037F0009343582B51D110276C780235019B294AED
:1038000039009E183000FCF72FFD3000049139007C
:10381000FCF7A4FC01210023494202008C46180059
:1038200021003039092913D80C00A7421CDD591C8E
:1038300009D06346824206D302D10499A14202DB39
:103840000123784320182C780135E9E70A27D5E7CA
:1038500021004139192901D8373CE6E721006139B7
:10386000192901D8573CE0E75A1C08D1059A23339F
:103870001360029B3000002B0BD107B0F0BD019A02
:10388000002A00D04042029A002AF6D0039A002B68
:1038900000D06A1E029B1A60EFE73024002FADD1E2
:1038A0000837ABE7FFFFFF7F37B51300064A050077
:1038B0001068046A002C00D1044C0A00009429000E
:1038C000FFF76CFF3EBDC046B0290020A42A0020AF
:1038D000F7B5254F0C00050000F028FB3800032247
:1038E000224E1138B368001B5B6839009343C0183F
:1038F0000193FCF733FC441E7C43BC4204DA2800ED
:1039000000F01CFB0020FEBD0021280000F01EFB83
:10391000B368019A9B189842F1D16142280000F0E7
:1039200015FB431C10D10021280000F00FFBB268EA
:10393000811A0F29E3DD0E4B1B68C01A0D4B18606E
:1039400001230B435360DAE7B2680126019B28008C
:103950001B1B33435360074B1A68141B1C6000F099
:10396000EDFA3000CFE7C04680000000102C0020A8
:103970001830002048130020F7B50D1E01902DD0FF
:1039800000F0D4FA012329009C4608394F686246AA
:103990003B0066469343C8184568023295434A4A3D
:1039A00037409668B0421AD15B19002F06D10868DB
:1039B000091A8D681B18C868E860856001201843E3
:1039C00048609160414A1268934204D3404B019889
:1039D0001968FFF77DFF019800F0B0FAF7BD0026E7
:1039E0004560B74209D10F683A4CC91BDB198F6893
:1039F000A7422BD0CC68FC60A76047197C680127E0
:103A00003C420BD15B198568002E21D1314CA54277
:103A10001ED13E0051611161CD608D600120050015
:103A20001D434D60CB50002ED5D12B4DAB4213D84A
:103A3000DB089D10A8405468DB00204350609A18B2
:103A40009368CA608B609160D960C4E76646D4E72A
:103A5000C068E8608560E1E75D0A042D12D8980926
:103A60003830C600B618B5680327AE4225D1012309
:103A700080108340506803435360CE608D60B16016
:103A8000E960A8E7142D02D828005B30E9E7542D3F
:103A900002D8180B6E30E4E7AA204000854202D815
:103AA000D80B7730DDE70D4E7E20B542D9D8980C83
:103AB0007C30D6E7AD68AE4203D06A68BA43934221
:103AC000F8D3EE68D9E7C046102C00201C30002047
:103AD00078130020182C0020FF010000540500007E
:103AE000EC300068704770477047000010B5034B1A
:103AF0000100186800F004F810BDC046B02900208D
:103B0000F0B50D0085B00B350190162D08D90723AF
:103B10009D4306D50C23019A1360002005B0F0BD2B
:103B200010258D42F6D3019800F000FAF823FF33F8
:103B3000BA489D421FD82A000832821811005468E2
:103B40000839EB088C4203D1D4680233A24229D051
:103B500003236268A1689A431300E268E318CA600D
:103B60009160012259680A435A60019800F0E6F911
:103B700020000830D2E76A0A3F23002A03D0042A33
:103B800028D8AB09383303229446D9000918CC68E9
:103B90008C4206D066466268B243571B0F2F31DD58
:103BA000013B01330100046908318C424ED00322ED
:103BB000666896433200761B0F2E31DD01276319AC
:103BC0003D433743656043610361D96099605F603D
:103BD000A650CAE7142A02D813005B33D3E7542A4D
:103BE00002D82B0B6E33CEE7AA235B009A4202D891
:103BF000EB0B7733C7E78A497E238A42C3D8AB0CE5
:103C00007C33C0E7E668002F08DBA368DE60B360A2
:103C10000123A21851680B435360A6E73400B7E7AD
:103C200041610161002EF3DA7E498A4242D8D2080E
:103C3000FF399610FF39B1404668D20031434160E8
:103C400010188268E060A2608460D460012299103C
:103C50008A4072494868824200D997E0104205D1F3
:103C60000324A343520004331042FBD09C46D800E7
:103C700008180290029CE468029EB44258D13400B5
:103C8000083402940124A444644603263442F1D14A
:103C90000324234274D14B6893434B60486852001D
:103CA000824273D8002A71D063461042DED10433B9
:103CB0005200FAE7560A042E16D891093831CF007F
:103CC0003E1803270296BC46B668029FB74227D12A
:103CD000012289108A4041680A434260029AA66024
:103CE000E2609460F460B1E7142E02D831005B31D9
:103CF000E5E7542E02D8110B6E31E0E7AA21490006
:103D00008E4202D8D10B7731D9E7454F7E21BE4292
:103D1000D5D8910C7C31D2E7B6680299B14204D073
:103D20006046716881438A42F6D3F2680292D5E711
:103D300003266768B74303977E1B0F2E11DD012210
:103D4000631915436560E068A5680831E86032438F
:103D50008560CB608B60D96099605A603B00E6500B
:103D600003E7E768002E09DB0122039BE31859688B
:103D70000A435A60A368DF60BB60F6E63C007BE75D
:103D800008388468013BA04282D087E703238F680C
:103D90007A689A430292954203D8521B0F2A00DD9B
:103DA0009FE0029BFB1803931F4B1E681F4B1036AE
:103DB0001B687619013305D01D4B013B9E191C4B26
:103DC0005B421E403100019800F0C0F80400431C23
:103DD0005FD0039B834202D9104B9F4259D1154BB0
:103DE0001A68B1181960124B5A1E039BA34227D1BF
:103DF000134225D1029A094B921901269B6816435A
:103E00005E600C4B0C4A1B6811688B4200D9136032
:103E10000A4A11688B423CD913603AE0102C00200A
:103E200054050000FF010000781300201830002026
:103E3000800000004813002070130020741300203D
:103E40002D4B1868013032D11C600720204002D071
:103E50000823181A2418294BA61918181640861B6F
:103E60003100019800F072F8431C01D120000026B7
:103E7000234A001B13689B1913600123214A8619EA
:103E80001E43946066609742BBD0029A0F2A14D8F2
:103E9000636003221B4B9B685B6893435A1B9D42E4
:103EA00001D80F2A1DDC019800F048F835E6039B85
:103EB000E31A5B1812490B60C7E70722029E0C3E0B
:103EC00096437A681340052233437B60BB195A60DE
:103ED0009A600F2E95D9390001980831FFF74CFDF3
:103EE0008FE701231800074928438C68134365199D
:103EF00060608D606B6038E6183000208000000044
:103F000048130020102C002082B0002900D101A904
:103F1000101E06D0002B06D013780B601078431EBD
:103F2000984102B0704702204042FAE710B50248BB
:103F3000FFF7D9FD10BDC0464029002010B502484A
:103F4000FFF7D2FD10BDC04640290020002370B508
:103F5000064C050008002360FCF74EFE431C03D10D
:103F60002368002B00D02B6070BDC046382900208C
:103F70000B1E04D0FF2A04D98A2303608B3B180050
:103F800070470A700123FAE7F0B5054600200F4696
:103F9000079E059C174309D0202905D30127BF039D
:103FA000BA4201D8914201D94220F0BD19462143BD
:103FB0000AD09C42F8D309498C4203D00849A41F77
:103FC0008C42F1D2062BEFD3002D03D0022D01D06D
:103FD000032DE9D1032EE7D8F0BD0000FFFF00005C
:103FE0007B0C0000FFB58DB0144618AAECCA0497EC
:103FF0006F466CC70A46014605A8179B04F0B4FA41
:1040000000280AD108A84471012C08D0002C06D041
:10401000022C04D0032C02D0422011B0F0BD09A81C
:10402000062202301099FCF79EFA08A91698087328
:10403000C0B20328F0D805A800F072FBEDE77CB50C
:10404000069D079C002805D0860705D1460703D4A6
:10405000060701D442207CBD002903D0012901D0EC
:104060000229F7D10095019400F0B0FB7CBD00005F
:10407000FFB58DB0179F169D1446060004D0012E83
:1040800002D0422011B0F0BD0E98002801D00128C6
:10409000F7D1E81F0A28F4D2102FF2D8AF42F0D39C
:1040A0001898002801D00128EBD1144919988842AA
:1040B000E7D81A98002801D00128E2D1FCF785FE44
:1040C000012804D01098204306D01120DAE7022CF2
:1040D000D7D810980128D4D8684686700E99C17038
:1040E000047310994173057147711899C17119983A
:1040F000029068461A990FF053FEC3E73F420F0043
:10410000FFB587B0109D159E169C019302950094F3
:1041100007A807C81F463346FFF736FF00280ED111
:104120001398149903AA069443C211981299019006
:104130000095029107A807C83B4600F0D7FC0BB0DA
:10414000F0BD10B500F0EEFC040002D101200BF030
:10415000C1FA204610BD10B500F0FAFC10BD10B534
:104160000BF048FB10BD70B51C4613460D46012CE4
:1041700003D0022C03D0422070BD022200E01022A6
:104180001946FCF7F0F92C70002070BDF0B587B02F
:104190001C460B46054600A9023101A80C9F0D9E46
:1041A000FFF7E1FF00280ED16846058084828775FD
:1041B000C6750E9901760F994176109981766946F8
:1041C000119802F087F807B0F0BD70B586B01446BC
:1041D0001D460A4603466946881C0A9EFFF7C3FF30
:1041E000002804D1012C04D0022C02D0422006B0B9
:1041F00070BD23462A466946304602F0B1FAF6E71A
:1042000010B50022114602F05BFB10BD70B586B000
:104210000D46144606466946881C0A9AFFF7A3FF16
:10422000002805D16B4622462946304600F09CFF07
:1042300006B070BD10B502F06DFE10BD38B56D460C
:10424000049C2A806B8023466A4603F007F938BD38
:10425000F0B585B084460AA8F0C868468581C68155
:1042600003A8019002970094604603F02BF905B073
:10427000F0BDFEB56C46099E089D208061802271CC
:104280006371E5806846029602F092FBFEBD10B5B0
:1042900001F05EFA10BD10B503F044FE10BD10B57C
:1042A00003F062FE10BD000010B504F091FA1E4C40
:1042B0004721206849014118097A002909D1A03015
:1042C0000079C00729D004F00BF803F061FF10F06B
:1042D000D1FE00F003F92068014640310A78C9791F
:1042E0008A4319D13E21095C002915D10F490A885A
:1042F000120711D50922D2061269497A836AC900C8
:10430000591809231B02C018406D801A00020012C0
:10431000814201DA0CF084FE10BD00F0C7FB02F010
:1043200093FC0DF00FFED0E794290020C000002080
:1043300010B5837F0122002492024168082B03D923
:104340004224914202D310E0914201D242240CE077
:10435000014634220648FCF706F900F07FF80028F1
:1043600001DA482401E000F029F9204610BD0000E0
:10437000DC0200203EB5174D15482968827F0846AB
:10438000A0310A7300246030047644768476E122FA
:10439000C2768022027702224277302008704C7069
:1043A00002AA01A96846FCF7CDF868460078A22267
:1043B00001016846007A891C0002014368460079C1
:1043C0000003014328681152A03004713EBD000073
:1043D000DC0200209429002070B504F0DDF90CF017
:1043E000D3F80AF083FD11F059FC04F0ABFB184C34
:1043F00018492068184D4018811001202A68C00211
:104400001018816661688908C166A168890801671A
:104410000FF054FC1D2029688001228B08180287A8
:10442000628B4287A28B4286628C82862046203035
:1044300002783B204001081882750021017000F0CD
:10444000C3FA03F0B3FE03F03BFE10F099FE70BD1B
:10445000DC0200200000FCEF9429002070B500254C
:10446000ED43FCF79CFC01282ED0002318490322C1
:10447000888BFF24401E10438A7F4D34624382188C
:10448000088B282460431218488B3024604312188C
:104490000846203040782C24604310180D4A181824
:1044A00084184869A0420DD10B4884420AD90D698D
:1044B000FCF775FCC1B2284609F076F909F0A4FAB8
:1044C000401B251A284670BDFF23B533CEE70000F8
:1044D000DC02002035190000540A0000F8B52C4F0A
:1044E0003C68206E5C34401C002814D0002529480C
:1044F0000023C07B00283ED00926F6062648002D62
:104500001CD000210A460B464169521C994204D135
:10451000002902D004E00125E9E7204B9A42F2D3BA
:104520002160006960603069A1680002090E000A1C
:1045300009060143A16000F033F81DE03169A2686B
:104540000902090A150E08D0018BC90712D041696A
:10455000216000696060E37210E0881A00027D2328
:1045600000121B03984205DD100E00060843A060F0
:1045700000F016F8F8BD6360002DFBD003CC0CF002
:1045800079FCFA200CF066FC39688862F8BD0000FE
:1045900094290020FC02002000001048881300002D
:1045A0000449002008610448012100686030C1719D
:1045B000704700000000104894290020F8B5062636
:1045C000374840250560374800270780A90509209E
:1045D000C0064160344A91600168016033490C694A
:1045E0004A690321601E08430021401CFBF7BFFFFE
:1045F000FCF7D5FBC1B2204609F0D6F809F004FA61
:1046000009F00EFAFCF7A3FB294917208881294CF1
:10461000FA2220680146403047708A6228210170E2
:10462000FCF752FB012805D12068102240300178A8
:1046300011430170FCF7C9FB012805D120688022D5
:1046400040300178114301702068A421095CC9073A
:1046500004D0014640310A782A4303E00146403144
:104660000A7832430A700021C9430166FCF7BEF89C
:10467000FFF780FEFFF7B0FE2068012120300177B0
:1046800007214177012003F04DFC06F00FFEFFF7F4
:1046900025FF03488038056002210160F8BD000055
:1046A00080E100E0C000002040000048DC02002063
:1046B000000010489429002038B5184A1468224692
:1046C000BA32AE34A378DD0701D001290AD05B07E6
:1046D0000CD501290AD0217949070BD5E17A0029A7
:1046E00005D007E0E07880210843E07038BD012163
:1046F000E172508020794106090FF7D078210840F7
:1047000069460870002048706A460221422000F085
:10471000B9FB207987210840207138BD94290020F9
:10472000F8B5054600276846077015484626046810
:10473000AE3420798006800F03D00021084608F0AF
:104740006FF8A078400718D520794C21084214D181
:104750000023287E6A4619460AF030FE00280DD153
:104760006846007828762F74284607F021FF060057
:1047700003D120794021084320713046F8BD000064
:104780009429002038B51048002104680846AE344A
:1047900008F046F8694648702079C10704D0012125
:1047A0006A46117088432071C0B2810705D5022185
:1047B0006A461170FD210840207102216A460846B0
:1047C00000F060FB38BD000094290020FFB50C46C6
:1047D00078A103C995B001910090002108A8017348
:1047E0000321C90268464186012108A8734E01745D
:1047F00035681746AE3513F0B5FA002808D1704970
:10480000306840180BF002F8A878002802D0462043
:1048100019B0F0BD0BA81599FCF791FA0028F7D153
:10482000072010A90871012C05D0022C0AD0002CF9
:104830000ED04220ECE708A8017B1020014308A815
:10484000017305E011A90BA8FCF736FA0028DFD1A7
:1048500010A8027901230CA9284601F081FF002845
:104860007ED1022229461898FBF77DFE29886846EA
:1048700081811521490201820784012686734E2118
:1048800008A881700024C4700671072141718671E7
:1048900003A902A801F01EFD002861D1022202A98D
:1048A0001E98FBF760FE082F02D26846478502E09B
:1048B00008206946488569460C850B4628880AAA5F
:1048C000098902F0CBFD00286DD13E49684601827E
:1048D0000227078408A8847103A902A801F0FAFC42
:1048E000002860D1022202A91F98FBF73CFE68460F
:1048F0000470694644704F850B4628880AAA0989C6
:1049000002F0ACFD00284ED108A8007BC00723D0E0
:104910002C496846C91C01820821018408A88770B7
:10492000047103A902A801F0D5FC00283BD1FF21A6
:104930006846C1718171C1708170417001704471AC
:1049400004716946082048850B4628880AAA098907
:1049500002F084FD002826D108A8007B800600E034
:1049600021E022D52988684681811649A531018236
:104970000684867308A88770C4700471072141718A
:10498000847103A902A801F0A5FC00280BD1694697
:104990000E700C854E850B4628880AAA098902F0FC
:1049A0005DFD002801D0472032E708A8007BA870F1
:1049B00000202DE7626C75656E72672194290020D6
:1049C000DE060000012A0000034800210068AE3026
:1049D000C1708170704700009429002070B50D4BA4
:1049E0001C68AE342379DD0612D45B0710D533285A
:1049F0000ED1E07A02280BD10420107000205070F4
:104A0000C9B2022000F03EFA2079FB210840207153
:104A100070BD00009429002038B5024617480124D3
:104A20000068AE30022A1FD0052A03D0072A07D01B
:104A30000B2A20D1084609794088FFF73DFE1AE08D
:104A400000790024020600D50124820703D1C206A2
:104A500001D480060FD5084600216A4611706946C8
:104A600000F0FCF8044606E08178490703D5017997
:104A7000FB2211400171204638BD0000942900201E
:104A800010B509480468AE34E07880070BD50020E3
:104A90000BF0D6FB022000F0CDF9E07801210843AD
:104AA000FD210840E07010BD942900201FB50E487C
:104AB0000468AE34E078010612D5A178C9070CD09D
:104AC000800708D5042069460873684603F05CFF38
:104AD000022000F0AFF90020E0704006400EE070C8
:104AE000FCF731F91FBD000094290020F0B58DB00E
:104AF0000C4616A9E0C90021089109910A910B9171
:104B00001599049105A9E0C112A962C90093019108
:104B100013460146039602952246012000F0D0F884
:104B20000DB0F0BD002000B58DB00A900B9008903C
:104B300009900590069007900490009001900290D3
:104B4000034602460146039000F0BAF80DB000BDDE
:104B5000F0B5104C4625246885B0AE34A6787607AB
:104B600014D52679B3273E4210D10AF037FD05004F
:104B70000CD1207902210843207106206946087370
:104B80000520C0020290684603F0B0FE284605B03A
:104B9000F0BD0000942900200949B22209681423BD
:104BA000525CBA311A4208D0498800050905090D3E
:104BB000000D814201D101207047002070470000A4
:104BC0009429002002780907090F0A430270002087
:104BD0007047000030B50E4885B005682C46AE35EC
:104BE0002879BA34400711D5E87A01280ED1152169
:104BF0004902684641800121017060886B46054A80
:104C000000F008FB002801D10220E87205B030BD99
:104C100094290020FFFF00007CB50446E1200D46EA
:104C2000800006F061F90BA103C90090019168466C
:104C300003F06EFC01200CF0EFF9002801D04720B2
:104C40007CBD207820210843207009202870002096
:104C50007CBD00001F0200000000000030B5174BB3
:104C6000047A1B68C268AE331B799D06AD0F04D170
:104C70000078042801D000200BE0012030BD401C4A
:104C8000C0B2155C012D08D01518203DED7F281805
:104C9000C0B2A042F3D3087830BD401CDD07012428
:104CA000C0B2002D02D0105CC00703E09B07F2D514
:104CB000105C80070028EED00C70ECE794290020EF
:104CC000FFB595B00E46054620210CA8FBF7BAFFAC
:104CD00000200490564800270468681EAE3404285B
:104CE00002D8A078C0070BD0062D02D0002D0AD024
:104CF00002E0A078800703D5E0784006800E0AD055
:104D0000462019B0F0BDA0788007F9D0E0784006C1
:104D1000800EF5D00FE0002D0DD0012D20D0022DFA
:104D200028D0062D33D0032D33D0042D37D0002EBC
:104D30003BD04220E5E700200BF082FA0028E0D1CA
:104D4000E078800708D5042069460873684603F0B8
:104D50001BFE022000F06EF80120E0700020D0E77A
:104D6000012EE6D0042EE4D01F980028E1D10627BA
:104D7000042008E0012EDCD0042EDAD01F98002891
:104D8000D7D105270220E0700120049010E04020D8
:104D90000DE0022E01D0032ECBD1082007E0012E1A
:104DA00001D0042EC5D1102001E004272020E0709E
:104DB00000230BAA19461E980AF000FB030002D03C
:104DC00000F0E4F832E01022002107A8FBF7CFFB47
:104DD00007A86C46279B269A1F990FC42B4630467E
:104DE000189A179900F088F80300E9D108A8017B08
:104DF000C170259803AC049B289A29990FC422AB53
:104E000007CB02920091019039460CA8209B219A71
:104E100000F0C6F80300D3D107A80BF043FD030050
:104E2000CED101200BF00CFA0300C9D1184668E777
:104E30009429002010B50446C1061148006803D526
:104E40001522BF210C4006E01B2189014118497E33
:104E5000C90710D012222107890E08181121C90193
:104E60004018806F0023214610F0D4F9010004D0CF
:104E7000204610F0BBF9002010BD072010BD000037
:104E800094290020F8B5891ECDB20646A81C03213E
:104E90000843401C8308174817460068F10603D5ED
:104EA0001C22BF210E4008E01B2189014118497EC8
:104EB000090601D40020F8BD19223107890E08180F
:104EC0001121C9014018806F314610F0A3F9040088
:104ED0000ED03978217179786171A5712A46B91C93
:104EE000E01DFBF740FB2146304610F07FF9E1E77B
:104EF0000720F8BD94290020F8B5224B224D1B68ED
:104F0000069C5B19009301239B03002814D00428FE
:104F100012D0022814D0032812D006239C461E4625
:104F20001D460F46174310D0914203D8A94201D322
:104F30009A420ED94220F8BD3025AC46602602E0E8
:104F4000A025AC46F0262025EBE76146218066804F
:104F500001E02180628020710798A071089820727A
:104F60000998002805D00146204606220930FBF7A3
:104F7000FAFA0720607100982030807B6071002071
:104F8000F8BD000094290020040900000348812294
:104F90000068A030417C1140417470479429002082
:104FA000F8B505463D481E460068079F0024AE3010
:104FB0001346002905D002222A7001226A70A970C6
:104FC0000324002E10D080788006800F0CD1301979
:104FD000401C1F2852D82E55641C281932461946E9
:104FE000FBF7C1FAA019C4B2002F0DD03819401C2C
:104FF0001F2843D82F55641CE4B228193A46069955
:10500000FBF7B1FAE019C4B26846008C00281BD047
:105010006846808C002817D0601D1F282ED80520D8
:105020002855641CE0B212212954401CC4B228192E
:105030000646022208A9FBF796FAB01C022209A92B
:10504000FBF791FA241DE4B20C98002810D0E01C64
:105050001F2813D802202855641CE0B20A212954C5
:10506000401CC0B22918401CC4B208460BF0AAFE6E
:105070000B9800280CD000191F2801D94220F8BD38
:1050800028190B9A0A99FBF76EFA0B982018C4B2EC
:10509000214628460BF062FBF8BD00009429002051
:1050A00000B500F009F8002805D0852201699201B9
:1050B000114200D0002000BD10B50D4900050B685D
:1050C0000521490259184A690021000DA0331B7BB4
:1050D0000AE04C01145B2405240D844202D14801EE
:1050E000801810BD491CC9B28B42F2D8002010BDF7
:1050F0009429002004490A683B21490151180A7883
:1051000002430A707047000094290020FEB58C68A5
:10511000CD88267B012E01D00020FEBD4126052D25
:1051200001D01E7019E0247C0A2C00D01E70002AC9
:105130000DD08968052268460C31FBF714FA6D1E04
:1051400000AAA9B232200132FFF748FC05E000882E
:105150000A460146022000F021FD4120FEBD10B5A7
:10516000102100F09DF810BDFFB589B00746462616
:105170001D781022991C05A8FBF75CFD012D04D0B9
:10518000022D02D042200DB0F0BD3846FFF788FF57
:10519000040037D020223946002009F085FE0700A0
:1051A0002FD01948694608800120049039462046CE
:1051B0000B9B0A9A0AF0A7F8060004D00021384693
:1051C00009F0CEFE1EE00B98A081A068012D0FD043
:1051D000102205A9FBF7C7F92571012120694903B0
:1051E000084320610948A061384600F093FF09E0B8
:1051F00010220749FBF7B7F9A068022205A90C3075
:10520000E8E764263046BEE7032800005F5104103B
:105210009C9B0510FFB589B0074646251E781022D5
:10522000991C05A8FBF706FD012E04D0022E02D022
:1052300042200DB0F0BD3846FFF732FF040024D005
:1052400020223946002009F02FFE07001CD005ADB2
:1052500004960FCD6D460FC5394620460B9B0A9A22
:105260000AF051F8050004D00021384609F078FE14
:105270000BE0012120694903084320610448A06133
:10528000384600F047FF00E064252846D1E70000DB
:105290009552041010B5502100F096F910BD000091
:1052A000F0B593B00E46044600206946087601909A
:1052B000E0690790002827D0C788002F7DD0B0066E
:1052C000800F03D02088FFF767FC019006AB2046D3
:1052D000019A0799FFF71AFF412861D0B81E80B2E2
:1052E000009007988068457B002D56D0F006F107A6
:1052F000039000290FD0022F0DD329460098FAF70A
:10530000B3FF002903D006E0412013B0F0BD062D05
:1053100017D0142D15D0B00708D5052F06D30321BB
:10532000B8078907C84201D1022048E070070ED5AE
:10533000022F0CD329460098FAF796FF002902D0D5
:1053400005E001203BE0082D0DD0062D0BD0039881
:10535000800F0ED0022F0CD329460098FAF784FF55
:10536000002902D005E0042029E0072D08D0152DE2
:1053700006D0B00611D5012D04D0022D04D00CE0CA
:1053800008201CE0042500E01225022F05D929463B
:105390000098FAF769FF002910D041206946087685
:1053A00001212069490388432061019800287DD0AC
:1053B00006AA01213120FFF711FBF6E0102081073A
:1053C00006D57D49B8034018070CB800C01C0EE094
:1053D000C0060098294604D5401CFAF745FF87B25D
:1053E00002E0FAF741FF0746781E6843801D81B24C
:1053F00005AB0222079809F017FDF0064ED5694665
:10540000A089898A884202D9206941065BD400209C
:1054100041E0072D0AD068430B3082B21023A16807
:10542000079809F097FD002815D031E01022634954
:1054300008A8FBF798F802980BABC100081A0B30CC
:1054400081B20222079809F0EFFC102208A8A16897
:10545000FBF791F8E7E7019800280ED002980CAB13
:105460006843801D81B22A46079809F0DDFC0CAA2A
:1054700029463320FFF7B2FA0AE007980090029815
:105480002B466843801CC2B22188022000F044FBF6
:105490000298401C80B20290B842BAD33820484FDC
:1054A000064207D06946A089898A00E077E08842F1
:1054B00004D86EE06846808AB8426AD02069410606
:1054C00006D5F10604D401218902084320616CE06D
:1054D00021882022002009F0E7FC050011D00521D9
:1054E000F2070120C902002A0DD06A4611800490FB
:1054F000908A3B46401C82B22946204609F0C8FEED
:1055000037E0452001E7B20713D5207901280ED0F6
:105510001020A2680290019200916846808A3B4662
:10552000401C82B22946204609F023FE21E00220D9
:10553000EFE7710701D5234A04E00399890F0DD0E5
:10554000204A521C69460A800490888AA389401C1C
:1055500082B22946204609F0D6FE0AE0B0060AD5F6
:105560006846808AA389401C82B22946204609F0F9
:1055700043FE642808D0284600F0CCFD228830463F
:10558000079900F07CFB10E00021284609F0E8FCB8
:10559000B7E722883046079900F071FB00E76846BC
:1055A000027E2188022000F035FB0121E06909F02C
:1055B000D7FC0020E061A8E600C0FFFF9C9B05101F
:1055C000FFFF000002280000F0B58BB00D46044636
:1055D0000020694608710490E669002E16D0A806DE
:1055E000800F03D02088FFF7D7FA049001AB314633
:1055F0002046049AFFF78AFD412865D0E80708D0C5
:1056000021883246022000F04DFA5DE041200BB0C7
:10561000F0BD680705D521883246022000F008FA5F
:1056200052E0A80739D5F0886188814205D92188E0
:105630003246022000F046F946E02069410604D5D2
:10564000012189020843206180E021882022002076
:1056500009F02AFC05001ED021883246022000F005
:1056600031F9A068801C00F005FB6188401E4018DD
:1056700086B2A06800F0FEFA02463346294620466C
:1056800009F0E2FD284600F045FDA0683146801C87
:1056900000F0ECFA54E04520B9E7E80614D5F088AC
:1056A000412702280ED9B168801E4D7B80B2854209
:1056B00001D9012016E0002D04D02946FAF7D4FDC7
:1056C00000290FD0684607710120216940038143FA
:1056D0002161049800282DD001AA01213120FFF773
:1056E0007DF92DE002900220002703901EE004982F
:1056F00000280DD0039805AB001D81B22A46304624
:1057000009F092FB05AA29463320FFF767F907E065
:1057100003980096C2B22B462188022000F0FCF9C3
:105720000398401980B27F1CBFB203900298874251
:10573000DDD3C9E7684602792188022000F06AFAC1
:105740000121E06909F00CFC0020E06100205EE727
:10575000FFB581B0154607464624FFF7ADFC0600AD
:1057600028D00298002803D07088C01EA84201D219
:1057700042241FE015483B21006849014018007889
:10578000000602D5642005B0F0BDE81C82B239469F
:10579000002009F089FB07000ED001460095304635
:1057A000049B029A09F0EAFD04000AD00021384661
:1057B00009F0D6FB2046E6E764248020FFF79AFC38
:1057C000F8E7384600F0A6FCF4E700009429002032
:1057D000F7B5064690790321401EC5B2E81C084380
:1057E000401C8308174817460068F10603D5292294
:1057F000BF210E4008E01B2189014118C97EC9065E
:1058000001D40020FEBD26223107890E081811217F
:10581000C9014018806F31460FF0FCFC04000FD026
:105820000198A080A808A07123462A460521384681
:10583000083309F0F9FA214630460FF0D7FCE0E7CB
:105840000720FEBD94290020F7B506469079032174
:10585000801EC5B2E81C0843401C83081848174640
:105860000068F10603D52822BF210E4008E01B2165
:1058700089014118C97E090701D40020FEBD2522F7
:105880003107890E08181121C9014018806F31466F
:105890000FF0C0FC040011D00198A080B868234626
:1058A000407BA071E5712A4606213846083309F08D
:1058B000BBFA214630460FF099FCDEE70720FEBD1B
:1058C00094290020F7B5064690790321401EC5B201
:1058D000E81C0843401C8308164817460068F10678
:1058E00003D52C22BF210E4008E01B21890141185D
:1058F000C97E090601D40020FEBD29223107890E88
:1059000008181121C9014018806F31460FF082FC40
:1059100004000DD00198A080A5712A4605213846C3
:10592000E31D09F081FA214630460FF05FFCE2E703
:105930000720FEBD94290020F7B506469079032183
:10594000801EC5B2E81C0843401C8308184817464F
:105950000068F10603D52E22BF210E4008E01B216E
:1059600089014118097F890701D40020FEBD2B223F
:105970003107890E08181121C9014018806F31467E
:105980000FF048FC040011D00198A080B8682346AD
:10599000407BA071E5712A4606213846083309F09C
:1059A00043FA214630460FF021FCDEE70720FEBD1A
:1059B00094290020F7B5064690790321801EC5B2D0
:1059C000281D0843401C8308184817460068F10644
:1059D00003D52A22BF210E4008E01B21890141186E
:1059E000C97E890601D40020FEBD27223107890E19
:1059F00008181121C9014018806F31460FF00AFCC8
:105A0000040011D00198A080B8682346407BA071A3
:105A1000E5712A4606213846083309F005FA214681
:105A200030460FF0E3FBDEE70720FEBD942900209F
:105A3000F7B5064690790321401EC5B2E81C08431D
:105A4000401C8308164817460068F10603D52D222E
:105A5000BF210E4006E01B2189014118097FC907BB
:105A600019D02A223107890E08181121C9014018BE
:105A7000806F31460FF0CEFB04000ED00198A0805D
:105A8000A5712A4605213846E31D09F0CDF92146C6
:105A900030460FF0ABFB0020FEBD0720FEBD00002E
:105AA00094290020F7B5064690790321401EC5B21F
:105AB000E81C0843401C8308164817460068F10696
:105AC00003D52B22BF210E4008E01B21890141187C
:105AD000C97E490601D40020FEBD28223107890E67
