:020000041004E6
:1000000000600020190E0410C10D0410C30D04106F
:10001000AA5555AA45554C420000000000000000BA
:10002000000000000000000000000000C50D0410EA
:100030000000000000000000C70D0410052F041090
:10004000152F0410C90D041000000000000000006E
:100050000D2F0410CB0D0410FD2E0410D70D04102D
:100060000000000000000000000000000000000090
:1000700000000000D90D0410DB0D0410DD0D04108C
:1000800000000000CD0D0410CF0D0410D10D0410A0
:10009000D30D0410D50D0410BD0D0410BF0D0410B8
:1000A0000000000000000000000000000000000050
:1000B0000000000000000000000000000000000040
:1000C000F0B543464C4655465E466746F8B40E4C7E
:1000D0006B4623600D4C20680D4C20600D4C206851
:1000E0000D4C20600D4C20680D4C2060BFF34F8FED
:1000F00030BF054C2468A546F8BC9846A146AA46E0
:10010000B346BC46F0BDC0460800002004ED00E048
:100110008813002024ED00E07C13002000E200E0C2
:100120008C13002002780B78002A03D001300131B3
:100130009A42F7D0D01A70470023C25C0133002ADC
:10014000FBD1581E7047000002B4714649084900AF
:10015000095C49008E4402BC7047C0460022430837
:100160008B4274D303098B425FD3030A8B4244D37F
:10017000030B8B4228D3030C8B420DD3FF220902C1
:1001800012BA030C8B4202D31212090265D0030B80
:100190008B4219D300E0090AC30B8B4201D3CB0376
:1001A000C01A5241830B8B4201D38B03C01A5241B8
:1001B000430B8B4201D34B03C01A5241030B8B42BA
:1001C00001D30B03C01A5241C30A8B4201D3CB02A5
:1001D000C01A5241830A8B4201D38B02C01A52418A
:1001E000430A8B4201D34B02C01A5241030A8B428D
:1001F00001D30B02C01A5241CDD2C3098B4201D3A5
:10020000CB01C01A524183098B4201D38B01C01A22
:10021000524143098B4201D34B01C01A5241030999
:100220008B4201D30B01C01A5241C3088B4201D348
:10023000CB00C01A524183088B4201D38B00C01AF5
:10024000524143088B4201D34B00C01A5241411A1C
:1002500000D20146524110467047FFE701B5002029
:1002600000F0F0F802BDC0460029F7D076E77047ED
:1002700003460B437FD4002243088B4274D3030907
:100280008B425FD3030A8B4244D3030B8B4228D3A8
:10029000030C8B420DD3FF22090212BA030C8B42CE
:1002A00002D31212090265D0030B8B4219D300E06E
:1002B000090AC30B8B4201D3CB03C01A5241830BF3
:1002C0008B4201D38B03C01A5241430B8B4201D3A3
:1002D0004B03C01A5241030B8B4201D30B03C01ACC
:1002E0005241C30A8B4201D3CB02C01A5241830A46
:1002F0008B4201D38B02C01A5241430A8B4201D375
:100300004B02C01A5241030A8B4201D30B02C01A9E
:100310005241CDD2C3098B4201D3CB01C01A524105
:1003200083098B4201D38B01C01A524143098B428E
:1003300001D34B01C01A524103098B4201D30B0177
:10034000C01A5241C3088B4201D3CB00C01A52419C
:1003500083088B4201D38B00C01A524143088B4261
:1003600001D34B00C01A5241411A00D201465241FA
:10037000104670475DE0CA0F00D04942031000D319
:100380004042534000229C4603098B422DD3030A6E
:100390008B4212D3FC22890112BA030A8B420CD37E
:1003A000890192118B4208D3890192118B4204D3A7
:1003B00089013AD0921100E08909C3098B4201D327
:1003C000CB01C01A524183098B4201D38B01C01A61
:1003D000524143098B4201D34B01C01A52410309D8
:1003E0008B4201D30B01C01A5241C3088B4201D387
:1003F000CB00C01A524183088B4201D38B00C01A34
:100400005241D9D243088B4201D34B00C01A52410A
:10041000411A00D20146634652415B10104601D397
:100420004042002B00D54942704763465B1000D321
:10043000404201B5002000F005F802BD0029F8D0C7
:1004400016E770477047C046437802781B021A438C
:100450008378C0781B041343000618437047C046D6
:10046000030A4B70030C8B70030E0870CB7070473F
:1004700003005A7800781202024398781979000430
:100480000243D878000610435A7912020A43997938
:1004900009040A43D979090611437047030A5370C6
:1004A000030C9370030ED3700B0A53710B0C9371F2
:1004B0000B0E10701171D3717047C046024A136859
:1004C000013313607047C04610030020C021074A63
:1004D000074B08485360036A09061B021B0A0B43BB
:1004E00003620023936007331360704710E000E05D
:1004F0007E3E000000ED00E00E4AD3691B061B0F94
:100500004370D9B2D3690C4A1B071B0F83700B4B86
:100510001B68436093420BD102230370002901D171
:1005200001234370064B9B8A01339B008360704715
:100530000123F2E70000904041A000022800904013
:1005400000001040F0B5070085B001AC0E0020009F
:100550001500FFF7D1FF23783B7063783370A378E1
:100560002B7005B0F0BD10B502F0B5FE10BD10B592
:1005700002F0CCFE10BD10B502F09EFE10BD00785A
:10058000C0B27047024A138ADB07FCD57047C046E9
:1005900000001040084B10B51A68084B9A4209D168
:1005A0003F22074B40061A81000C2E3A98611A80B0
:1005B000FFF7E8FF10BDC04614000020CCBCECFCE7
:1005C00000001040084B10B51A68084B9A4209D138
:1005D0003F22074B80081A810C3A986119641A80EF
:1005E000FFF7D0FF10BDC04614000020CCBCECFCCF
:1005F000000010400379F7B50168002B30D180224C
:10060000D20553688B435360202580220021066861
:100610006D42D20533000124CB4023420DD0037933
:10062000CCB20193072924D80F238F00BB40D46A92
:100630009C43019BBB401C43D462013104351A2901
:10064000E8D180234279DB05012A39D1DA683243C7
:10065000DA608279012A36D19A6816439E60F7BD26
:10066000062BD1D1002380220371D20553680B439E
:10067000C9E72700083F072F08D80F27019BAF4085
:10068000AB40146BBC4323431363D6E7103C072CE9
:100690000AD82F000F23203FBB40546B9C43019B83
:1006A000BB401C435463C8E72F000F23403FBB40AF
:1006B000148F9C43019BBB401C43A4B21487BCE72E
:1006C000DA68B243C4E79A68B2439A60C7E7802306
:1006D000DB05D86370478023DB05186470478023EF
:1006E000DB05012901D1D86370471864FCE780223B
:1006F000D20513685840106070478022D205936A73
:100700001843906270478023DB055B6A1840431EE4
:100710009841C0B27047C02380221B06197852420C
:100720000A437F211A701A780A401A707047C02352
:1007300001211B061A780A431A701A788A431A7024
:100740007047C0231B0618688007C00F7047000061
:10075000024B1868431E9841C0B27047000400C0A5
:1007600030B50300012811D0022811D00120032B3D
:100770000BD1084A08000B0020301D685C1A0433B6
:10078000A5508342F9D10020106230BD024AF1E742
:10079000024AEFE7B40400C06C0400C0900400C03B
:1007A000030001280FD002280FD00120032B09D10C
:1007B000074B1A00C91A20321878C85401339342E3
:1007C000FAD100207047034BF3E7034BF1E7C04633
:1007D000B40400C06C0400C0900400C0044B1A6A4A
:1007E000012902D110431862704782431A62FBE765
:1007F00000009040054B0122196B002802D00A43EB
:100800001A63704791431963FBE7C046000030400C
:10081000F8B54A4C0500236B01681B0700D56DE055
:1008200009014748FFF79AFCC3099AB2A284454AD6
:10083000DB0101301340C01A400880B23F2802D9C2
:100840003F233F381840032760263F4BC0B2187043
:100850003E4B2A7918783A405201B0431043187041
:1008600001206979227F39404901B2430A43227746
:10087000AA7919780240BA400730814311431970B0
:10088000217F81430A432277EA79002A38D1022165
:100890001A788A431A70227F8A43012022772A7AA3
:1008A000216B1600C2402A4F064076023940314380
:1008B0002163216B274E0240314012020A4322631A
:1008C000697A226B0E00C140234F06403A40B603BE
:1008D00032432263226B214E01403240C90311434F
:1008E0002163AA7A197802400F3012018143114323
:1008F0001970237F83431A432277F8BDC90090E71C
:10090000022A0CD1042019781143197019788143F7
:100910001970217F0A432277227F8243BDE702219B
:100920001A780A431A700422187810431870207F2E
:1009300001432177217F0A43AFE7C04600003040E2
:100940000000127A80FF7F00280030402C003040E9
:10095000FFFDFFFFFFFEFFFFFFBFFFFFFF7FFFFF6A
:10096000044B1A8F002902D0104318877047824326
:100970001A87FBE700003040024BC005C00D18800D
:100980007047C04600003040014B1888C0B2704725
:1009900000003040054B002805DA5B681840431E14
:1009A0009841C0B270471B8BF8E7C046000030404A
:1009B000034B9B8F1840431E9841C0B27047C046FE
:1009C000000030400722024038200449D2000B7852
:1009D00083431800104308707047C046340030400D
:1009E000F0B583780178002B33D040784AB280018B
:1009F000002A1BDA0F230B40083B1B4A9B089B0075
:100A00009B18FF22032517000D40ED00AF40024068
:100A1000AA40DE69BE433243DA611F224B0911400E
:100A20001E3A8A4011499B00CA50F0BDFF270F4B68
:100A300092089200D21803233C00C0250B40DB0033
:100A40009C4038409840AD005659A6433043505121
:100A5000E3E71F234A090B40012199401300034A91
:100A600020339B00D150E0E700ED00E000E100E022
:100A700070B5012186B006000920FFF7AFFE00F037
:100A800083F81C4B01388000C3580024019300F008
:100A90007BF8194B0138800001ADC35828002B7139
:100AA000AC716C71FFF7A6FD00F06EF8134B0138C6
:100AB0008000C358019300F067F8114B01388000A3
:100AC000C35828002B71FFF795FD0125032303A8C8
:100AD0000371437103728471C47144728572039609
:100AE000FFF796FE2000FFF76DFF2800FFF782FE5C
:100AF00006B070BDD8870510D4870510D0870510C3
:100B0000CC870510042313B5040001A80370013B32
:100B100043708470FFF764FF21001020FFF720FF6F
:100B200013BD00000B4A10B513680B49002B00D110
:100B3000116080241368640118180919884205D9C6
:100B40000C220120054B40421A6010BD10601800B5
:100B5000FBE7C04614130020140300202C290020BA
:100B600010B502F0B8FB10BD10B502F0B4FB10BD1B
:100B700010B50A00002102F0C9FB10BD0122014B93
:100B80001A70704718130020014B1878C0B27047D4
:100B90001813002010B50F4C01280AD0002801D0EE
:100BA00002280ED0FFF7F0FF431E0C2058432058B8
:100BB00006E0FFF7E9FF431E0C2058432018406869
:100BC00010BDFFF7E1FF431E0C205843201880683A
:100BD000F6E7C046DC87051010B5FFF7DBFF012103
:100BE000FFF77DFD10BD10B50AF03CFE10BD10B53D
:100BF0000AF052FA10BD10B50AF008FD10BD7FB51D
:100C00000BAE368808AC09AD2D88248803960A9E61
:100C10000195029600940AF015FF7FBD7FB508ACE0
:100C200020CC0AAE247836780194029600950AF01A
:100C30004BFE04B070BD10B503F00EFE10BD10B534
:100C40000CF040FB10BD01207047F0B58DB012AC28
:100C5000247809930A9413AC248818AB1B880B944E
:100C600015AD14AC16AE17AF24882D8836883F8892
:100C700006930B9B059701930A9B0496009303959B
:100C80000294099B02F0CEFF0DB0F0BD10B503F049
:100C900082F810BD10B503F095FB10BD10B503F040
:100CA0000FFD10BD10B50EF061FD10BD10B50CF0BC
:100CB00009FA10BD10B50BF011FD10BD10B503F011
:100CC000A1FD10BD10B503F0A5FD10BD10B508F0D5
:100CD00061FA10BD10B511F081FC10BD10B511F016
:100CE00065FA10BD10B511F073FD10BD10B511F00F
:100CF00085FA10BD10B50AF0E3FF10BD10B508F07D
:100D00001FF810BD10B50BF0F9F910BD10B50BF0C0
:100D100027F810BD10B50BF03BF910BD012070474E
:100D200010B507F09DF810BD10B513F05FFD10BDB4
:100D300010B513F02DFD10BD10B513F00FFD10BD53
:100D400010B513F019FF10BD0120704710B513F056
:100D50006DFF10BD10B513F053FF10BD10B512F0AC
:100D60001BFA10BD10B512F037FA10BD10B512F015
:100D7000C5FA10BD10B512F08BF910BD10B512F008
:100D8000A7F910BD10B512F0CDF910BD10B512F0D5
:100D900039FA10BD10B512F057FA10BD10B511F0A8
:100DA00063FA10BD10B511F032FA10BD10B511F094
:100DB00039FD10BD10B511F04DFC10BD70477047E6
:100DC000704770477047704770477047704770476B
:100DD0007047704770477047704770477047000012
:100DE000002210B5084B1A60084B1B7A934209D1B8
:100DF000074B1B89052B05D9064B01321A70FFF7EB
:100E000078F9FEE7012010BD14000020000090409A
:100E1000000010480C00002070B5FFF7E1FF01282A
:100E200017D1002314481549154C1A188A4216D3B5
:100E3000002314481449154C1A188A4213D3002170
:100E4000134B144A934212D30021134B134A93427B
:100E50000FD3134B83F3088801F0CEFD70BDE55826
:100E600004331560E1E7E55804331560E4E702C395
:100E7000E8E702C3EBE7C0463C290020143000201D
:100E8000249805100800002034000020F897051071
:100E9000C0000020CC020020CC0200203C29002011
:100EA00000600020002210B5104B995CC9B20029E7
:100EB00017D11C2A14DC022021249854501C1C54E5
:100EC000901C193C1C54901D19549B188022902191
:100ED0009BB252021343C905CB60CB681342FCD1CD
:100EE00010BD995C01315218D2B2DEE7191300200F
:100EF0000023F0B5144AD45CE4B2002C1ED1192BA7
:100F00000FDC02253B275E1CD55497555E19905582
:100F1000DE1C955535261D1D56555D1D0633515554
:100F2000D45402223B24094B1A705C709870DA701A
:100F300033321A71002259719A71F0BDD45C0134B8
:100F40001B19DBB2D7E7C04619130020801300201D
:100F500070B58AB003AC06000D0019223D4920008F
:100F600002F0B9F96846FFF7C7FA002E59D04023BE
:100F7000A3732C33E372113B2375374B374A1B683D
:100F8000190C914208D17020E17D1B018143E1756C
:100F9000E17D03400B43E375314B1B68190C914213
:100FA00008D1302061791B0181436171617903406F
:100FB0000B4363712B4B1B68190C914207D1032122
:100FC000E27D0B408A43E275E27D1343E375042220
:100FD000E37A69469343E3726B465B788978934082
:100FE0000B43112B08DDE37D1A43E275E07AE17DC6
:100FF000C0B2C9B2FFF77CFF802390222404240CE6
:101000005B021C43D205D460D1681942FCD16B4607
:101010006A465B7892781B011343112B01DDFFF7C1
:1010200041FF114B1A8B002AFCD001221A83163281
:101030009A8100221A61954207D090231021DB0586
:1010400018691A6942400A42FBD0084A084B1A60E4
:101050000AB070BDA4870510E807001055AA00006B
:10106000E4070010B007001000001048CCBCECFCF6
:10107000140000200822C021F8B53F4B3F4D9A8054
:101080003F4A0904136AFF202B400B43C02113621F
:10109000136A09061B021B0A0B431362C02292004B
:1010A0009446384B64469A58374E82433F38024341
:1010B00060461A501A58C0203240000202431A51AA
:1010C000C122FF2792009C58BC433F3F3C439C50A9
:1010D0009C583F37344004439C509C582C409C50B3
:1010E0009C582402240A0C439C50083294466446BF
:1010F0009A58324002431A511A59C0242A402404F3
:10110000224364461A511A591202120A0A431A510A
:10111000C4229200944664469A58324002431A51BF
:101120001A59C0242A402404224364461A511A59E9
:101130001202120A0A431A51C52292009C58BC435B
:101140002700C0242743C0249F509F5824043E40BA
:1011500030439850985805402C439C5098580002B2
:10116000000A0143995001210800FFF7F1FE074AE8
:10117000074B1A6262B6F8BD00001040FFFF00FF87
:1011800000ED00E000E100E0FF00FFFF66000E0060
:101190000000904000291DD1B4221B2382711A3A0D
:1011A000C27147320272D03A42722932037082729F
:1011B000AA3395324370C27210334F3A8370027370
:1011C000303B123AC3704273A33B383A037141710A
:1011D0008273C373704700002A23F0B58BB006AC4E
:1011E00023709B336370D523A370A523E370002382
:1011F0006371B433A3719A23E371E1232372112342
:1012000063723A23A372CF23E372802323736E2386
:10121000022563733623764E102221003000A3731B
:101220002571E573FFF79FF9724A734B31001B7804
:1012300028000092012202F0E8FD071E06D00220DD
:101240006E4900F00BFB47200BB0F0BD2B23237041
:101250009A336370D523A370A523E370B423A371DD
:101260009A23E371E1232372112363723A23A37259
:10127000CF23E372802323736E2363733623604E80
:101280006071102221003000A3732571E573FFF710
:101290006AF9584B320018885A4B0497059310236B
:1012A00002970393019700950F3B290002F08EFDF2
:1012B000071EC4D12C23237099336370D523A370E8
:1012C000A523E370B423A3719A23E371E12323726E
:1012D000112363723A23A372CF23E3728023237313
:1012E0006E23637336236071102221003000A373D4
:1012F0002571E573FFF737F93E4B32001888424BF2
:1013000004970593102302970393019700950C3BD4
:10131000290002F05BFD071E00D090E72D2323700B
:1013200098336370D523A370A523E370B423A3710E
:101330009A23E371E1232372112363723A23A37288
:10134000CF23E372802323736E236373362360718C
:10135000102221003000A3732571E573FFF703F914
:10136000244B32001888294B0497059310230297C9
:101370000393019700950F3B290002F027FD071EFC
:1013800000D05CE72E23237097336370D523A370BE
:10139000A523E370B423A3719A23E371E12323729D
:1013A000112363723A23A372CF23E3728023237342
:1013B0006E23637336236071102221003000A37303
:1013C0002571E573FFF7CFF80A4B32001888104BF0
:1013D00004970593102302970393019700950F3B01
:1013E000290002F0F3FC002800D028E72CE7C046D3
:1013F00028190020EA1400208D29002015880510E6
:10140000F01400200019002004190020EE14002020
:10141000381900201A23F0B58BB006AC2370BB330B
:10142000A370A523E37000236371B433A3719A23DF
:10143000E371E1232372112363723A23A372CF2352
:10144000E372802323736E2302256373C52736233B
:10145000284E102221003000A37367702571E573B8
:10146000FFF781F8244A254B31005B782800009271
:10147000012202F0CAFC061E06D00220204900F01C
:10148000EDF947200BB0F0BD1B232370BA33A370D6
:10149000A523E370B423A3719A23E371E12323729C
:1014A000112363723A23A372CF23E3728023237341
:1014B0006E23637336236770124F60711022210010
:1014C0003800A3732571E573FFF74DF80A4B3A0016
:1014D00018880D4B04960593102303930F3B02933A
:1014E0001D33009301960B3B290002F06FFC00288E
:1014F000C3D1C7E728190020901300208D290020B0
:10150000E8870510F0140020021500203A23F0B5FA
:101510008BB006AC2370C5236370D523A370A523BD
:10152000E37000236371B433A3719A23E371E12361
:101530002372112363723A23A372CF23E3728023B1
:1015400023736E230225637336235F4E102221001E
:101550003000A3732571E573FFF705F85B4A5C4B18
:1015600031009B7828000092012202F04EFC061EFA
:1015700006D00220574900F071F947200BB0F0BDAA
:101580003B2323708A336370D523A370A523E370B4
:10159000B423A3719A23E371E123237211236372AD
:1015A0003A23A372CF23E372802323736E236373E2
:1015B0003623494F6071102221003800A373257132
:1015C000E573FEF7D0FF414B3A001888434B049671
:1015D0000593102303930F3B02931D330196009351
:1015E00029000B3B02F0F2FB061EC2D13C23237004
:1015F00089336370D523A370A523E370B423A3714B
:101600009A23E371E1232372112363723A23A372B5
:10161000CF23E372802323736E23637336236071B9
:10162000102221003800A3732571E573FEF79BFF9C
:10163000264B3A0018882A4B0496059310230393EF
:101640000F3B02930D33019600932900053302F0FE
:10165000BDFB061E00D08CE73D23237088336370EA
:10166000D523A370A523E370B423A3719A23E37158
:10167000E1232372112363723A23A372CF23E3720F
:10168000802323736E23637336236071102221003D
:101690003800A3732571E573FEF765FF0B4B3A0025
:1016A0001888104B04960593102303930F3B029365
:1016B0000D33009301960633290002F087FB0028C2
:1016C00000D056E75AE7C046281900200819002024
:1016D0008D290020FD870510F0140020021900203C
:1016E0005C140020641400201FB504000D4800F0B5
:1016F000CDF80D4B1A880D4B19880D4B1888132304
:1017000003940024029300930194123B02F0C0FB67
:10171000A04204D00220074900F0A0F8472004B0FE
:1017200010BDC046EA8805100219002008190020E3
:10173000401300200A8905107FB500221D4B1E4D65
:1017400003AC1988227028880123009402F096FBCC
:101750001A49061E28D11A49200001F0DFFD194B55
:101760002888198832000094042302F087FB164968
:10177000021E19D1154B28881B782370144B198829
:101780000094012302F07AFB1249021E0CD1124B85
:1017900028881B782370114B19880094012302F0CC
:1017A0006DFB002804D00E49022000F057F84720B6
:1017B00004B070BD00190020EA1400202B88051029
:1017C00055880510041900205A88051000150020BE
:1017D000EE140020898805100A190020381900200D
:1017E000B88805100023094A1360094A1370094A92
:1017F0001370094B094A5A60094A9A60094ADA602B
:10180000094A1A61094A5A617047C04660140020AB
:10181000E8140020EC14002068140020348905101E
:1018200043890510538905106289051072890510D6
:10183000074B01201B68002B08D1064B1B78002B9F
:1018400004D1054B1878431E9841C0B27047C0467A
:1018500060140020E8140020EC14002010B50C00E7
:10186000074B8000C05800F011F8064800F00EF851
:10187000200000F00BF8044800F008F810BDC04646
:1018800068140020768B0510EB8A051010B501F066
:1018900092F810BDF7B50500134801F08CF8052447
:1018A0000F262B5D1A0911003731092A01D8303271
:1018B000110033401A0001A801703732092B01D8FA
:1018C00030331A00002342708370671E01F073F8F2
:1018D000002C05D0054801F06EF83C007B1CE0D1DF
:1018E000034801F068F8F7BD6F8B0510758B051084
:1018F000EB8A0510F0B50E0085B001AF04000B2295
:101900001149380001F0E7FC3500002C03DA2D23E3
:10191000751C3370644220000A210135FEF7A8FCD3
:101920000028F9D1287020000A21FEF787FD7B5C92
:10193000013D20002B700A21FEF79AFC041EF2D113
:10194000300005B0F0BDC0463C8B05101FB501A9A5
:10195000FFF7D0FF01A801F02EF805B000BD000090
:10196000F0B5944E8FB004AF310001F0DFFC924926
:101970000400FEF7D7FB002809D1904801F01BF8BE
:101980008F4801F018F88F4801F015F851E08E49A2
:101990002000FEF7C7FB002801D18C48F4E78C49F2
:1019A0002000FEF7BFFB00281FD1012302003B737C
:1019B000787338610C23FB181B1801301A72132836
:1019C000F8D143233B75BC337B75EF3BBB750433C8
:1019D0000822BA18D3186A4613CB13C2F8683969BB
:1019E0007A69BB6901F0CAF823E07A492000FEF762
:1019F00099FB051E20D100F051FE774800F0DBFF77
:101A0000764800F0D8FF0624754800F0D4FF28007F
:101A1000FFF79CFF7348092D00DD300000F0CBFF7D
:101A200020006843704B0135C018FFF733FF202DAD
:101A3000EAD1BD460BB0F0BD6C492000FEF772FB49
:101A4000002838D1092302003B73063B7B733861C1
:101A50000C23FB181B1801301A721328F8D131001F
:101A6000002001F063FC002801D161488CE701F0FF
:101A70001DFC31003875002001F058FC0028F4D01E
:101A80005C4D0124290001F051FC002801D11423F0
:101A90009EE7072C0DD01022002101F025FD0C231C
:101AA000FB181B19187229000020013401F03EFCBC
:101AB000EBE7514868E720005049FEF733FB041E6E
:101AC00076D16B4631007B6001F030FC002805D1F7
:101AD0004B4800F070FF7B689D46AAE701F0E6FBEB
:101AE000C3B205001F2B01D94648F2E731002000A0
:101AF00001F01CFC0028EBD001F0D8FB310038606D
:101B0000200001F013FC061EE2D03F4800F053FF16
:101B1000FF231D402800FFF719FF3C4800F04BFF52
:101B200006235D43304BED182800FFF7B3FE38481D
:101B300000F041FFFF2338681840FFF707FF3548E2
:101B400000F039FF300000F036FF1E4800F033FF90
:101B50000C230021F818FFF71DFB3000FEF7ECFA0C
:101B60006B4640080730C008C0001B1A9D4604ABF6
:101B70003B603000FEF7E0FAA04208D80C23400892
:101B8000C1B2FB183A68280000F046FAA3E7335DBB
:101B900000213B7233195B7810227B720823F818FE
:101BA000B97201F0A1FC3A686310D0540234E0E746
:101BB0001948E9E6588A05108089051088890510BA
:101BC00055880510EB8A0510A2890510A789051014
:101BD0002B8A0510328A05103B8A0510498A0510A8
:101BE0001C910510578A0510A92100205A8A05105A
:101BF000628A05108F9205107D8A05108A8A051069
:101C0000918A0510DA8A0510ED8A05100A8B0510F5
:101C1000128B05101D8B0510298B051070B5040063
:101C2000134800F0C8FE134800F0C5FE2078FFF707
:101C30008DFE114800F0BFFE6078FFF787FE0F4869
:101C400000F0B9FE6068FFF781FE25000C4800F047
:101C5000B2FE08351B340B4800F0ADFE2878013584
:101C6000FFF774FEA542F6D1074800F0A4FE70BD50
:101C7000478B0510508B0510558B05105A8B05109E
:101C8000618B0510588A05106B8B051070B5040028
:101C9000104800F090FE104800F08DFE2078FFF70D
:101CA00055FE0E4800F087FE6078FFF74FFE0C48A7
:101CB00000F081FEA51C15340A4800F07CFE28784F
:101CC0000135FFF743FEA542F6D1074800F073FE49
:101CD00070BDC046798B0510828B0510888B05106E
:101CE000948B0510588A05106C8B051010B5FEF703
:101CF00045FFE1204002FEF7BBFE0120FEF702FF98
:101D00000148FFF7C3FD10BD9F8B051070B5434A16
:101D100086B00621002002F0E2F8002803D04049F6
:101D20000220FFF79BFD0421012002F0D4F802F00D
:101D3000A1F83C49041E25D13B4B3C4D3C4E019340
:101D4000010000962B001022052001F098FF041ED0
:101D500009D002203749FFF781FD2000FFF7F6FD8B
:101D6000200006B070BD32881026334B29880393BB
:101D7000029601900096030002F08AF80400051E06
:101D800004D02E490220FFF769FDE9E72C4B012121
:101D9000039307230490029000930200030001962E
:101DA000080001F085FF2749041EEBD12648FFF704
:101DB0006DFDFFF711FA041E08D12448FFF766FDF8
:101DC000FFF728FB041E03D02149DBE72149D9E7AF
:101DD0002148FFF75BFDFFF799FB041E01D01F4967
:101DE000D0E71F48FFF752FD1E4B1C78002CB7D0E0
:101DF0001D4800F0F1FC8021C9012B002A000800D9
:101E0000FEF744FF041E05D018490220FFF726FD07
:101E10002C00A5E71648FFF739FDA1E79729002018
:101E2000A78D0510CA8D05100C2300202823002043
:101E300012230020E18D051030230020F78D0510BE
:101E400040E201001F8E05104F8E0510738E0510A5
:101E5000D18E0510948E0510B18E0510108F0510CF
:101E6000ED8E0510C4200020912900202F8F051031
:101E70005D8F051010B51148FFF708FD1048FFF7FA
:101E800009FD104802F074F8002806D00E4902201F
:101E9000FFF7E4FC01220D4B1A70FFF737FF002813
:101EA00007D00B490220FFF7D9FC0122074B1A701B
:101EB00010BD0848FFF7EAFCFAE7C046318D05106F
:101EC00097290020BC8B05104A8D0510EC140020CA
:101ED000728D0510888D0510092330B501248FB04F
:101EE00009AD134A2B70631ED35C2B550134112CA2
:101EF000F9D10021080006F04BF90020F022C8219A
:101F000006900590049003900295019400900300C0
:101F1000D200C90001F014FF002805D005490220B5
:101F2000FFF79CFC0FB030BD0348FFF7AFFCF9E7AB
:101F300030230020599005107B90051010B501F05A
:101F400020FF041E05D005490220FFF787FC200072
:101F500010BD0348FFF79AFCF9E7C046A3900510AF
:101F6000C9900510FA2210B5D20088B02821069237
:101F700005923C2202910191802104920022C90124
:101F80000300039200920800FEF75FFE041E06D0D5
:101F90000D490220FFF762FC200008B010BD0B487D
:101FA000FFF774FC0A4C0B4B1B68002B07D1002C6D
:101FB00001D1FF34F0E701F097FF013CF3E7634202
:101FC0005C416442E4B2E7E7918F0510B28F0510DF
:101FD000A08601003C13002070B50C4D47242B68EF
:101FE000002B11D00A4B1321188880B201F0D7FEC4
:101FF000041E06D007490220FFF730FC04E001F080
:1020000073FF2B68002BFAD1200070BD3C13002019
:1020100040130020F5900510F0B5050089B0374851
:10202000039302911700FFF731FC354E3368002B04
:1020300051D03448FFF72AFC334C3368002B08D0CA
:10204000002C02D1FFF7C8FF05E001F04DFF013C75
:10205000F3E7002CF6D02800FFF784FF002843D1D7
:1020600004AC102203992000FEF77DFA2748FFF701
:102070000DFC274D02232888264A80B200940121B6
:1020800001F0E4FE244B1A88002A27D000221A808F
:102090002888198880B2013189B23B00029A01F088
:1020A00016FF041E09D01D490220FFF7D7FB2000B0
:1020B000FFF74CFC1A48FFF7E9FB1A4B1A78002A85
:1020C0000FD000221A70FFF787FF1748FFF7DEFBDB
:1020D000002009B0F0BDFFF731FFBCE701F004FFBD
:1020E000D0E701F001FFE8E7FFF7F6FE0F49022015
:1020F000FFF7B4FB2800FFF7CDFBE6E7C88F05101C
:102100003C130020DB8F0510A0860100F68F051020
:1021100040130020FFFF0000441300200090051032
:10212000EB8A051042130020419005102590051000
:1021300010B50248FFF7AAFB10BDC046FC8B051086
:1021400010B50248FFF7A2FB10BDC046F08B05108A
:1021500001220A4B10B51A60094B0A481980FFF793
:1021600095FB0298FFF796FB0023074A0299C95C8A
:10217000D1540133062BF9D110BDC0463C130020C9
:1021800040130020218D05101C190020002301217F
:10219000054A10B51360054A05481170054A1380B9
:1021A000FFF774FB10BDC0463C13002090290020AF
:1021B000E88C05104013002010B504000348FFF719
:1021C00065FB200001F03CFE10BDC046C78C051029
:1021D000F7B50400074816001F000D00FFF756FB77
:1021E00000230197009629001A00200001F061FEEB
:1021F000F7BDC046D08C051070B540488CB01D00AE
:102200000E00109CFFF742FB3D4B1B8801339E42A2
:1022100006D122001321012000F05EFE0CB070BD3B
:10222000384B1B8801339E424CD12578607805AB32
:10223000092D1FD0E178A2780902114322791204F6
:102240001143627912060A435A6000222E4EB45C92
:10225000991801320C72132AF9D169461D70587011
:1022600009AA31CA31C1186859689A68DB6800F058
:1022700085FCD3E700225A6001280CD1A178234ABB
:102280001170E178224A11702179224A1170617926
:10229000214A1170D9E70228D7D1A17962790902C0
:1022A0001143E27912041143227A12060A431B49B0
:1022B0000A60A178154A1170E178194A11702179E4
:1022C000184AE6E7184B1B8801339E4207D10023CA
:1022D0000D4AAB42A2DAE15CD1540133F9E7134B6A
:1022E0001B8801339E4299D10023114AAB4200DB87
:1022F00094E7E15CD1540133F8E7C0462B8C05101C
:102300000215002064140020F82200202A23002057
:10231000272300200E2300200F2300202C23002041
:102320001023002011230020021900205C1400203B
:102330001423002010B50C1E0CD00A490220FFF710
:102340008DFA0948FFF7A2FA2000FFF7FFFA0748C5
:10235000FFF79CFA0648FFF799FA0122054B1A701D
:1023600010BDC046898C0510A88C0510EB8A05109D
:10237000B58C051042130020F8B515001E000E485C
:102380000F00FFF783FA0D48FFF780FA2800FFF7E8
:10239000DDFA3400A31B9D4205DC0948FFF776FAFD
:1023A000084B1F80F8BD0848FFF770FA2078FFF748
:1023B000CDFA0134EEE7C0463D8C05107C8C05104B
:1023C000EB8A051044130020588A051010B5024806
:1023D000FFF75CFA10BDC046DA8C0510F7B514247F
:1023E0000E000D0044430C19A54200D1F7BD2B7817
:1023F000002B17D1B11C06226846FEF7B4F80A4834
:10240000FFF744FA6846FFF745FA084F6846390077
:1024100000F000FA002805D00548FFF737FA380029
:1024200000F0DAF91435DFE7F68C05109129002069
:10243000FD8C051070B586B0022840D12148FFF709
:1024400025FA0622204904A800F045FF1F4D04A8E4
:10245000290000F0DFF9041E31D11D48FFF716FAFC
:102460002800FFF717FA1B4E2B5D33550134062C5D
:10247000FAD100F06DF932002100002001F02FFDAB
:10248000002803D014490220FFF7E8F9134B00207D
:102490001A88134B1988134B01900393102302934E
:1024A0000093030001F0F4FC002803D00E49022041
:1024B000FFF7D4F900F044F900220C4B1A7006B073
:1024C00070BDC0460B8C0510BD87051091290020FA
:1024D0001A8C051097290020A78D051012230020C3
:1024E0002823002030230020F78D0510C420002071
:1024F000012110B50800FEF771F910BD07B50623DC
:102500006A46137100230090684693715371FEF779
:1025100071F807BD10B51948FEF731F8184C207056
:102520001848FEF72CF8184B18701848FEF727F8D3
:10253000174B18701748FFF7A9F92078FFF706FA2C
:102540001548FFF7A3F9154B154AFF211360002327
:102550001448890004338B420AD1002312491348DE
:102560001A1DA42A06D100F073F9FFF783FC10BDF1
:10257000D050EFE7C8501300F2E7C04680EF0710D5
:102580000A19002081EF07100015002082EF0710C4
:102590000619002019910510EB8A05102419002056
:1025A0000415002060140020BC130020E814002053
:1025B000024B8000C15000207047C0460415002027
:1025C000024B8000C15000207047C046BC13002061
:1025D000044B8000C3581868034B1B68984200D115
:1025E000024870470415002060140020FFFF00001F
:1025F000F8B5214B1B78282B05D9FF221F4B1A70E9
:1026000028231D4A137001251D4C2000FDF7B7FF3C
:102610001C4F8600F2591C4B12689A4202D12800C6
:10262000FFF76CFFBB5901341D60184B6D009C42D5
:10263000EBD10E24164BE018FDF7A1FF80003B58AC
:102640001C6001341E2CF5D100250B4B1B789D42DC
:1026500000DBF8BD0F4BEC1864002000FDF78FFF86
:102660000600601CFDF78BFF272E03D80A4BB6002F
:10267000F35818700135E8E706190020E814002027
:1026800090EF071004150020FFFF00009EEF0710D9
:1026900092EF0710D8F70308BC13002070B5104D57
:1026A000104C601EFDF76BFF28702000FDF767FFE0
:1026B0006870601CFDF763FFA870A01CFDF75FFF4A
:1026C000E870E01CFDF75BFF2871201DFDF757FF48
:1026D000054B0834687106359C42E2D170BDC04696
:1026E000A921002081BA071081BB071073B5114ED4
:1026F000050030000C00FFF7C9F8062262430E4BBC
:10270000D21800236846E95C1954D1540133062BD2
:10271000F8D13000009DFFF7B9F8084B2900E41804
:10272000E4002000FDF74EFF6B46201D9988FDF761
:1027300049FF73BD73910510A921002050F70002D5
:1027400010B500210148FFF7D1FF10BD97290020E7
:102750006223F7B51C4C1D4E23700A336370043B93
:10276000A37001AD0633E37030780633290023717E
:10277000FFF7C0F832782B78092A21D8302262710D
:10278000A371752302220F26E37111490C3B114DF1
:102790002372535D180907003737092801D83030F4
:1027A0000700334018000F703730092B01D8303341
:1027B000180048700231013AEBD26423E373F7BD8D
:1027C00063716B78DCE7C046302300200A190020D3
:1027D000392300209729002013B50400684605F02E
:1027E0004FFC002803D00A490220FFF737F86B4658
:1027F0001B7823706B46DB7863706B469B79A37004
:10280000E123E370613B23717E3B637113BDC046DE
:102810002191051010B50A7804780023944215D14F
:1028200044784A78944211D184788A7894420DD1C0
:10283000C478CA78944209D104790A79944205D1BE
:10284000437948791B1A58424341DBB2180010BD46
:102850007FB5002358211C4AD1540133102BFBD1E2
:10286000FFF71CFF06221949684600F034FD0622D6
:10287000002102A800F04AFD154E69463000FFF71E
:10288000C9FF144D041E14D102A93000FFF7C2FF86
:10289000002810D0104AA35C2B550134062CFAD125
:1028A00001220E4B0E481A70FEF7F0FFFFF750FFA3
:1028B0007FBD0024EEE7335C2B5401300628FAD1AB
:1028C0000022064B1A70F1E730230020C387051061
:1028D000A9210020972900209D290020C420002044
:1028E0004E910510F8B5050000240626094F310069
:1028F00061432800C919FFF78DFF002801D0E0B21D
:10290000F8BD0134202CF2D102200349FEF7A6FFC6
:10291000FF20F5E7A921002040910510202807D9C4
:1029200000230B704B708B70CB700B714B71704729
:1029300006225043064BC25C18180A7043784B704D
:1029400083788B70C378CB7003790B714379EDE793
:10295000A921002010B51020FEF72AF80024002835
:102960000AD104000C4A0D491378CC54013313707A
:1029700011E0FEF709F8C4B21020FEF70BF80028AA
:10298000F7D00D2CEED10022034B044819781A70B1
:102990004254FEF7E5FF10BDA8210020942200203C
:1029A00010B504002020FDF7F5FF0128FAD0A0B2F1
:1029B000FDF7E2FF10BD10B504002078002800D11B
:1029C00010BDFFF7EDFF0134F7E7000070B5084CCC
:1029D0002378002B06D0074B1D78002D02D1FFF77E
:1029E0007BFA257000F04AFA00F04AF970BDC04643
:1029F00090290020C420002010B5FEF73BFBFFF714
:102A000075F9FDF763FDFEF7EDFEFFF783FDFFF7B8
:102A10006FFD00F059F900F0EBFAFFF7E9FDFEF762
:102A20008BFEFEF705FF002802D10230FEF7D4F836
:102A300001F05AFAFFF7CAFFFAE7000010B50249A1
:102A40000420FEF70BFF10BDAF91051010B5032059
:102A50000249FEF703FFFF2010BDC046CB910510D1
:102A600010B503200249FEF7F9FEFF2010BDC04655
:102A70003592051010B5132805D903200449FEF737
:102A8000EDFEFF2010BD034B1B6818184078F9E7D6
:102A9000E691051064280020F8B500240F4BE018DB
:102AA000FDF76DFD0E4E0F4BA5192870E018FDF7D0
:102AB00066FD0D4B6870E5180C4BE7182800FDF714
:102AC0005EFD0B4BEB180135F054BD42F6D1E0230F
:102AD0001C349B009C42E1D1F8BDC04680E4071045
:102AE0004019002081E4071083E4071096E40710E2
:102AF000851BF8EF00231900124A10B51360124A23
:102B000012481370124A13701A181C331170E02BFC
:102B1000FAD1104B104A114813600123104C990050
:102B2000132B0DDC54500133FF2BF8D100230D4A39
:102B30000D49D1500433282BFBD1FFF7ADFF10BD59
:102B40005050F0E7C02000203C190020C820002091
:102B5000BC200020612A0410C01C00204D2A041053
:102B6000752A04106C2200203D2A0410024B8000BC
:102B7000C15000207047C0466C22002084B0F8B5D8
:102B80001C27164D09932B78154C7B431E5D069030
:102B900007910892002E07D012490120FEF75EFE31
:102BA000F8BC08BC04B018470F48FEF76FFE06A833
:102BB000FFF734F82B7806AA7B43E31813CA13C334
:102BC00013CA13C312681A602B780133DBB22B705F
:102BD0002B78072BE4D92E70E2E7C0463C19002081
:102BE000C82000208A9105109F9105101C23F0B584
:102BF0005843074A85B01418230069461033E0CBC8
:102C0000E0C1043480580ECCFFF7B8FF05B0F0BD2A
:102C10004019002070B50500002401263300A340B0
:102C20006A68E0B21A4205D0044AA300D358984714
:102C30002B1918720134132CF0D170BDC01C002068
:102C400010B504000B48FEF721FE2000FEF7E6FF5A
:102C50002000FFF7DFFF2378092B05D8064A9B00E9
:102C60009B582000984710BD04490420FEF7F6FD4C
:102C7000F9E7C0460B9205106C2200201D9205104A
:102C800070B51C250D4C0E4E23786B43985D0028C3
:102C900013D020780B4B684380191860FFF7D0FFE2
:102CA0000022237801205D432378AA550133DBB24B
:102CB00023702378072B00D9227070BDBC20002020
:102CC000C8200020C020002010B5FFF713FF00F03F
:102CD000F9F800F049F810BDF8B50024184BE018D9
:102CE000FDF74DFC174E184BA5192870E018FDF79D
:102CF00046FC164B6870E018FDF741FC144BA870B9
:102D0000E518144BE7182800FDF739FC124BEB18B7
:102D10000135F054BD42F6D1104BE518104BE718C1
:102D20002800FDF72CFC0F4BEB180135F054BD4289
:102D3000F6D1A4232934DB009C42CFD1F8BDC04694
:102D400080C407104023002081C4071082C40710EC
:102D500084C4071097C407107F3BF8EF9CC407108A
:102D6000AFC407107A3BF8EF10B5FFF7B5FF0023AB
:102D70001900064A06481360064A1370064A137083
:102D80001A1815331170A82BFAD110BD6428002031
:102D900068280020602800206128002084B0F8B551
:102DA0001527144C09932378134E7B439D5D0690A1
:102DB00007910892002D07D010490120FEF74EFD23
:102DC000F8BC08BC04B018470D48FEF75FFD06A824
:102DD000FEF75CFF20783A00784306A9301800F02F
:102DE0007AFA23780133DBB223702378072BE7D9F3
:102DF0002570E5E760280020682800205B92051018
:102E000070920510F8B5A42605000024F6001948B4
:102E10002A7823185978914211D19A786B789A427E
:102E20000DD12F00144AAB1C1537D17C002911D0CD
:102E3000012908D111788C4619788C450AD029349B
:102E4000B442E4D1F8BD02290CD111788C4619782E
:102E50008C45F4D901330132BB42E6D1005DFFF766
:102E6000C5FEECE70329F5D111788C4619788C451D
:102E7000F0D3E4E7402300204323002070B515255C
:102E80000D4C0E4E23786B43985D002813D02078AC
:102E90000B4B684380191860FFF7B4FF00222378BA
:102EA00001205D432378AA550133DBB223702378D8
:102EB000072B00D9227070BD6128002068280020EF
:102EC0006428002070470000024B8000C1500020A1
:102ED0007047C0469413002070B504000D00160022
:102EE0000448FEF7D3FC044BA40031002800E3584B
:102EF000984770BD809205109413002010B505F01E
:102F0000B5FF10BD10B5FDF7D9FA10BD10B5FFF72C
:102F100021FD10BD70B50024E6B23000FFF758FB6C
:102F2000094B050098420BD0FDF7EDFB012807D1B6
:102F30002800FDF7E2FB002230001100FFF7CCFF74
:102F400001340A2CE8D170BDFFFF000030B50F48F6
:102F500089B00D00FEF79AFC012302AC0C482370E7
:102F6000FFF7C0FC00236070E95CE2180133917048
:102F7000132BF9D16B46069A009206AA12791A71A0
:102F80000FCCFFF70BFF09B030BDC046A392051070
:102F90001C19002010B5040086B00D48FEF776FC21
:102FA00060780834002804D12000FEF79DFB06B0AD
:102FB00010BD6946FFF7B2FC02A80021FEF7EAF84F
:102FC00002AB220013216846FFF726F8EFE7C04660
:102FD0009192051010B504490120FFF775FF0349D0
:102FE0000120FFF7C3FD10BD4D2F0410952F0410D5
:102FF00010B5FFF7EFFF00F075F800F047F900F0AB
:1030000053F800F013F910BD10B50248FEF73EFC6E
:1030100010BDC04602930510F7B504001C48FEF72A
:1030200035FC6378022B30D0032B05D0012B2BD13C
:103030001848FEF72BFC27E00025267A002E01D148
:10304000002D21D105236946E21A927B5A54013B97
:10305000F9D21148FEF71AFC1048FEF717FC3000B1
:10306000FEF774FC0E4F07353800FEF70FFC68467C
:10307000FEF710FC3800FEF709FC31006846FFF748
:1030800035FB0734152DD8D1F7BD0648D1E7C0462A
:10309000B5920510D6920510C29205101C9105102C
:1030A000EB8A0510EB92051010B504490920FFF7D3
:1030B0000BFF03490920FFF759FD10BD093004102B
:1030C0001930041010B50248FEF7E0FB10BDC046F1
:1030D0001B93051010B50248FEF7D8FB10BDC04683
:1030E0000F93051010B5094B094902200B60FFF73B
:1030F0005FFA08490220FFF763FA07490220FFF749
:10310000E3FE06490220FFF731FD10BDFFFF00007E
:103110001829002024290020C5300410D5300410BF
:1031200010B50248FEF7B2FB10BDC0466F93051004
:1031300010B504003348FEF7A9FB6378022B22D0B8
:10314000032B3FD0012B17D1247A2F48FEF79EFB8B
:103150002000FEF7FBFB2D48FEF798FB032C0BD855
:1031600020002B4BFCF7F0FF02090B0D294A1068D9
:10317000984201D0FDF7BBFA10BD274AF7E7274A6E
:10318000F5E7274AF3E7247A2648FEF77FFB20007D
:10319000FEF7DCFB1D48FEF779FB032CECD8200082
:1031A0001B4BFCF7D1FF02090B0D1A4A106898421D
:1031B000E2D0FDF78CFADFE7174AF7E7174AF5E7A1
:1031C000174AF3E7247A1848FEF760FB2000FEF761
:1031D000BDFB0E48FEF75AFB032CCDD820000C4B4C
:1031E000FCF7B2FF02090B0D0A4A10689842C3D0DF
:1031F000FDF771FAC0E7084AF7E7084AF5E7084A19
:10320000F3E7C0462793051035930510EB8A0510A8
:10321000FFFF000010290020282900201C29002081
:1032200014290020489305105B93051070B5104BCE
:10323000104E114D114C124901200B6033602B6070
:103240002360FFF7B5F931000220FFF7B1F929003B
:103250000320FFF7ADF921000420FFF7A9F9094980
:103260000720FFF731FE08490720FFF77FFC70BDFC
:10327000FFFF0000282900201C290020142900201D
:1032800010290020213104103131041010B50349F8
:10329000034B05200B60FFF78BF910BD20290020A0
:1032A000FFFF000010B500F01FF810BD10B50A2296
:1032B000002100F019F910BD30B50024A24201D15F
:1032C000002005E0035D651C0C5DA34201D0181BC6
:1032D00030BD2C00F2E7002310B59A4200D110BD9A
:1032E000CC5CC4540133F8E710B5884202D98B187E
:1032F000984208D300239A4207D0CC5CC4540133CF
:10330000F9E78B5C8354013AFBD210BD03008218AD
:10331000934200D1704719700133F9E7031C0A7812
:1033200001311A700133002AF9D17047F8B5134BF7
:1033300006001D680F00E8352C68002C16D15020BF
:1033400000F0F4F92860046044608460C4600461A3
:10335000446184618462C462046344638463C463BB
:10336000046444648464C464047744622A68390051
:103370003000012300F004F8F8BDC046A429002065
:10338000F0B5002804D11068002801D1F0BD20005C
:103390000E000578441C3778002F04D1002D10D181
:1033A00015602800F2E70136BD42F4D1002BEED1C2
:1033B00014600370EAE733000EE001351C00002FB3
:1033C00002D10D002678631C2F78BE42F5D1002E65
:1033D000F1D00024591E0C701360D7E7F0B51F0020
:1033E0000E0087B00590039102920C98347800F09B
:1033F00097F9082200194378751C13400CD12D2C25
:103400000CD101332C780193B51C002F0CD0102F58
:1034100014D1302C0AD011E02E00E6E701932B2CBA
:10342000F3D12C78B51CF0E7302C2FD120222B784B
:103430009343582B51D110276C780235019B294AB0
:1034400039009E183000FCF70FFF3000049139005E
:10345000FCF784FE01210023494202008C4618003B
:1034600021003039092913D80C00A7421CDD591C52
:1034700009D06346824206D302D10499A14202DBFD
:103480000123784320182C780135E9E70A27D5E78E
:1034900021004139192901D8373CE6E7210061397B
:1034A000192901D8573CE0E75A1C08D1059A233363
:1034B0001360029B3000002B0BD107B0F0BD019AC6
:1034C000002A00D04042029A002AF6D0039A002B2C
:1034D00000D06A1E029B1A60EFE73024002FADD1A6
:1034E0000837ABE7FFFFFF7F37B51300064A05003B
:1034F0001068046A002C00D1044C0A0000942900D2
:10350000FFF76CFF3EBDC046A4290020982A00208A
:10351000F7B5254F0C00050000F028FB380003220A
:10352000224E1138B368001B5B6839009343C01802
:103530000193FCF713FE441E7C43BC4204DA2800CE
:1035400000F01CFB0020FEBD0021280000F01EFB47
:10355000B368019A9B189842F1D16142280000F0AB
:1035600015FB431C10D10021280000F00FFBB268AE
:10357000811A0F29E3DD0E4B1B68C01A0D4B186032
:1035800001230B435360DAE7B2680126019B280050
:103590001B1B33435360074B1A68141B1C6000F05D
:1035A000EDFA3000CFE7C04680000000042C002078
:1035B0000C30002048130020F7B50D1E01902DD0CF
:1035C00000F0D4FA012329009C4608394F6862466E
:1035D0003B0066469343C8184568023295434A4A01
:1035E00037409668B0421AD15B19002F06D108689F
:1035F000091A8D681B18C868E860856001201843A7
:1036000048609160414A1268934204D3404B01984C
:103610001968FFF77DFF019800F0B0FAF7BD0026AA
:103620004560B74209D10F683A4CC91BDB198F6856
:10363000A7422BD0CC68FC60A76047197C680127A3
:103640003C420BD15B198568002E21D1314CA5423B
:103650001ED13E0051611161CD608D6001200500D9
:103660001D434D60CB50002ED5D12B4DAB4213D80E
:10367000DB089D10A8405468DB00204350609A1876
:103680009368CA608B609160D960C4E76646D4E7EE
:10369000C068E8608560E1E75D0A042D12D89809EA
:1036A0003830C600B618B5680327AE4225D10123CD
:1036B00080108340506803435360CE608D60B160DA
:1036C000E960A8E7142D02D828005B30E9E7542D03
:1036D00002D8180B6E30E4E7AA204000854202D8D9
:1036E000D80B7730DDE70D4E7E20B542D9D8980C47
:1036F0007C30D6E7AD68AE4203D06A68BA439342E5
:10370000F8D3EE68D9E7C046042C00201030002022
:10371000781300200C2C0020FF010000540500004D
:10372000EC300068704770477047000010B5034BDD
:103730000100186800F004F810BDC046A42900205C
:10374000F0B50D0085B00B350190162D08D9072373
:103750009D4306D50C23019A1360002005B0F0BDEF
:1037600010258D42F6D3019800F000FAF823FF33BC
:10377000BA489D421FD82A000832821811005468A6
:103780000839EB088C4203D1D4680233A24229D015
:1037900003236268A1689A431300E268E318CA60D1
:1037A0009160012259680A435A60019800F0E6F9D5
:1037B00020000830D2E76A0A3F23002A03D0042AF7
:1037C00028D8AB09383303229446D9000918CC68AD
:1037D0008C4206D066466268B243571B0F2F31DD1C
:1037E000013B01330100046908318C424ED00322B1
:1037F000666896433200761B0F2E31DD0127631970
:103800003D433743656043610361D96099605F6000
:10381000A650CAE7142A02D813005B33D3E7542A10
:1038200002D82B0B6E33CEE7AA235B009A4202D854
:10383000EB0B7733C7E78A497E238A42C3D8AB0CA8
:103840007C33C0E7E668002F08DBA368DE60B36066
:103850000123A21851680B435360A6E73400B7E771
:1038600041610161002EF3DA7E498A4242D8D208D2
:10387000FF399610FF39B1404668D20031434160AC
:1038800010188268E060A2608460D4600122991000
:103890008A4072494868824200D997E0104205D1B7
:1038A0000324A343520004331042FBD09C46D800AB
:1038B00008180290029CE468029EB44258D1340079
:1038C000083402940124A444644603263442F1D10E
:1038D0000324234274D14B6893434B6048685200E1
:1038E000824273D8002A71D063461042DED104337D
:1038F0005200FAE7560A042E16D891093831CF0043
:103900003E1803270296BC46B668029FB74227D1ED
:10391000012289108A4041680A434260029AA660E7
:10392000E2609460F460B1E7142E02D831005B319C
:10393000E5E7542E02D8110B6E31E0E7AA214900C9
:103940008E4202D8D10B7731D9E7454F7E21BE4256
:10395000D5D8910C7C31D2E7B6680299B14204D037
:103960006046716881438A42F6D3F2680292D5E7D5
:1039700003266768B74303977E1B0F2E11DD0122D4
:10398000631915436560E068A5680831E860324353
:103990008560CB608B60D96099605A603B00E650CF
:1039A00003E7E768002E09DB0122039BE31859684F
:1039B0000A435A60A368DF60BB60F6E63C007BE721
:1039C00008388468013BA04282D087E703238F68D0
:1039D0007A689A430292954203D8521B0F2A00DD5F
:1039E0009FE0029BFB1803931F4B1E681F4B103672
:1039F0001B687619013305D01D4B013B9E191C4BEA
:103A00005B421E403100019800F0C0F80400431CE6
:103A10005FD0039B834202D9104B9F4259D1154B73
:103A20001A68B1181960124B5A1E039BA34227D182
:103A3000134225D1029A094B921901269B6816431D
:103A40005E600C4B0C4A1B6811688B4200D91360F6
:103A50000A4A11688B423CD913603AE0042C0020DA
:103A600054050000FF010000781300200C300020F6
:103A70008000000048130020701300207413002001
:103A80002D4B1868013032D11C600720204002D035
:103A90000823181A2418294BA61918181640861B33
:103AA0003100019800F072F8431C01D1200000267B
:103AB000234A001B13689B1913600123214A8619AE
:103AC0001E43946066609742BBD0029A0F2A14D8B6
:103AD000636003221B4B9B685B6893435A1B9D42A8
:103AE00001D80F2A1DDC019800F048F835E6039B49
:103AF000E31A5B1812490B60C7E70722029E0C3ECF
:103B000096437A681340052233437B60BB195A60A1
:103B10009A600F2E95D9390001980831FFF74CFDB6
:103B20008FE701231800074928438C681343651960
:103B300060608D606B6038E60C3000208000000013
:103B400048130020042C002082B0002900D101A9D4
:103B5000101E06D0002B06D013780B601078431E81
:103B6000984102B0704702204042FAE710B502487F
:103B7000FFF7D9FD10BDC0463429002010B502481A
:103B8000FFF7D2FD10BDC04634290020002370B5D8
:103B9000064C050008002360FCF7C4FF431C03D15A
:103BA0002368002B00D02B6070BDC0462C2900205C
:103BB0000B1E04D0FF2A04D98A2303608B3B180014
:103BC00070470A700123FAE7F0B5054600200F465A
:103BD000079E059C174309D0202905D30127BF0361
:103BE000BA4201D8914201D94220F0BD1946214381
:103BF0000AD09C42F8D309498C4203D00849A41F3B
:103C00008C42F1D2062BEFD3002D03D0022D01D030
:103C1000032DE9D1032EE7D8F0BD0000FFFF00001F
:103C20007B0C0000FFB58DB0144618AAECCA0497AF
:103C30006F466CC70A46014605A8179B04F0B4FA04
:103C400000280AD108A84471012C08D0002C06D005
:103C5000022C04D0032C02D0422011B0F0BD09A8E0
:103C6000062202301099FCF77EFC08A9169808730A
:103C7000C0B20328F0D805A800F072FBEDE77CB5D0
:103C8000069D079C002805D0860705D1460703D46A
:103C9000060701D442207CBD002903D0012901D0B0
:103CA0000229F7D10095019400F0B0FB7CBD000023
:103CB000FFB58DB0179F169D1446060004D0012E47
:103CC00002D0422011B0F0BD0E98002801D001288A
:103CD000F7D1E81F0A28F4D2102FF2D8AF42F0D360
:103CE0001898002801D00128EBD11449199888426E
:103CF000E7D81A98002801D00128E2D1FDF724F86E
:103D0000012804D01098204306D01120DAE7022CB5
:103D1000D7D810980128D4D8684686700E99C170FB
:103D2000047310994173057147711899C1711998FD
:103D3000029068461A990FF053FEC3E73F420F0006
:103D4000FFB587B0109D159E169C019302950094B7
:103D500007A807C81F463346FFF736FF00280ED1D5
:103D60001398149903AA069443C2119812990190CA
:103D70000095029107A807C83B4600F0D7FC0BB09E
:103D8000F0BD10B500F0EEFC040002D101200BF0F4
:103D9000C1FA204610BD10B500F0FAFC10BD10B5F8
:103DA0000BF048FB10BD70B51C4613460D46012CA8
:103DB00003D0022C03D0422070BD022200E010226A
:103DC0001946FCF7D0FB2C70002070BDF0B587B011
:103DD0001C460B46054600A9023101A80C9F0D9E0A
:103DE000FFF7E1FF00280ED16846058084828775C1
:103DF000C6750E9901760F994176109981766946BC
:103E0000119802F087F807B0F0BD70B586B014467F
:103E10001D460A4603466946881C0A9EFFF7C3FFF3
:103E2000002804D1012C04D0022C02D0422006B07C
:103E300070BD23462A466946304602F0B1FAF6E7DD
:103E400010B50022114602F05BFB10BD70B586B0C4
:103E50000D46144606466946881C0A9AFFF7A3FFDA
:103E6000002805D16B4622462946304600F09CFFCB
:103E700006B070BD10B502F06DFE10BD38B56D46D0
:103E8000049C2A806B8023466A4603F007F938BDFC
:103E9000F0B585B084460AA8F0C868468581C68119
:103EA00003A8019002970094604603F02BF905B037
:103EB000F0BDFEB56C46099E089D20806180227190
:103EC0006371E5806846029602F092FBFEBD10B574
:103ED00001F05EFA10BD10B503F044FE10BD10B540
:103EE00003F062FE10BD000010B504F091FA1E4C04
:103EF0004721206849014118097A002909D1A030D9
:103F00000079C00729D004F00BF803F061FF10F02E
:103F1000D1FE00F003F92068014640310A78C979E2
:103F20008A4319D13E21095C002915D10F490A881D
:103F3000120711D50922D2061269497A836AC9008B
:103F4000591809231B02C018406D801A0002001284
:103F5000814201DA0CF084FE10BD00F0C7FB02F0D4
:103F600093FC0DF00FFED0E788290020C000002050
:103F700010B5837F0122002492024168082B03D9E7
:103F80004224914202D310E0914201D242240CE03B
:103F9000014634220648FCF7E6FA00F07FF80028D4
:103FA00001DA482401E000F029F9204610BD0000A4
:103FB000DC0200203EB5174D15482968827F08466F
:103FC000A0310A7300246030047644768476E122BE
:103FD000C2768022027702224277302008704C702D
:103FE00002AA01A96846FCF7ADFA68460078A22249
:103FF00001016846007A891C000201436846007985
:104000000003014328681152A03004713EBD000036
:10401000DC0200208829002070B504F0DDF90CF0E6
:10402000D3F80AF083FD11F059FC04F0ABFB184CF7
:1040300018492068184D4018811001202A68C002D4
:104040001018816661688908C166A16889080167DE
:104050000FF054FC1D2029688001228B081802876C
:10406000628B4287A28B4286628C828620462030F9
:1040700002783B204001081882750021017000F091
:10408000C3FA03F0B3FE03F03BFE10F099FE70BDDF
:10409000DC0200200000FCEF8829002070B500251C
:1040A000ED43FCF73BFE01282ED0002318490322E4
:1040B000888BFF24401E10438A7F4D346243821850
:1040C000088B282460431218488B30246043121850
:1040D0000846203040782C24604310180D4A1818E8
:1040E00084184869A0420DD10B4884420AD90D6951
:1040F000FCF714FEC1B2284609F076F909F0A4FADB
:10410000401B251A284670BDFF23B533CEE70000BB
:10411000DC02002035190000540A0000F8B52C4FCD
:104120003C68206E5C34401C002814D000252948CF
:104130000023C07B00283ED00926F6062648002D25
:104140001CD000210A460B464169521C994204D1F9
:10415000002902D004E00125E9E7204B9A42F2D37E
:104160002160006960603069A1680002090E000AE0
:1041700009060143A16000F033F81DE03169A2682F
:104180000902090A150E08D0018BC90712D041692E
:10419000216000696060E37210E0881A00027D23EC
:1041A00000121B03984205DD100E00060843A060B4
:1041B00000F016F8F8BD6360002DFBD003CC0CF0C6
:1041C00079FCFA200CF066FC39688862F8BD0000C2
:1041D00088290020FC0200200000104888130000FD
:1041E0000449002008610448012100686030C17161
:1041F000704700000000104888290020F8B5062606
:10420000374840250560374800270780A905092061
:10421000C0064160344A91600168016033490C690D
:104220004A690321601E08430021401CFCF79FF9E6
:10423000FCF774FDC1B2204609F0D6F809F004FA83
:1042400009F00EFAFCF742FD294917208881294C14
:10425000FA2220680146403047708A6228210170A6
:10426000FCF7F1FC012805D12068102240300178CC
:1042700011430170FCF768FD012805D120688022F8
:1042800040300178114301702068A421095CC907FE
:1042900004D0014640310A782A4303E00146403108
:1042A0000A7832430A700021C9430166FCF733FAE9
:1042B000FFF780FEFFF7B0FE206801212030017774
:1042C00007214177012003F04DFC06F00FFEFFF7B8
:1042D00025FF03488038056002210160F8BD000019
:1042E00080E100E0C000002040000048DC02002027
:1042F000000010488829002038B5184A1468224662
:10430000BA32AE34A378DD0701D001290AD05B07A9
:104310000CD501290AD0217949070BD5E17A00296A
:1043200005D007E0E07880210843E07038BD012126
:10433000E172508020794106090FF7D078210840BA
:1043400069460870002048706A460221422000F049
:10435000B9FB207987210840207138BD88290020C9
:10436000F8B50546002768460770154846260468D4
:10437000AE3420798006800F03D00021084608F073
:104380006FF8A078400718D520794C21084214D145
:104390000023287E6A4619460AF030FE00280DD117
:1043A0006846007828762F74284607F021FF06001B
:1043B00003D120794021084320713046F8BD000028
:1043C0008829002038B51048002104680846AE341A
:1043D00008F046F8694648702079C10704D00121E9
:1043E0006A46117088432071C0B2810705D5022149
:1043F0006A461170FD210840207102216A46084674
:1044000000F060FB38BD000088290020FFB50C4695
:1044100078A103C995B001910090002108A801730B
:104420000321C90268464186012108A8734E017420
:1044300035681746AE3513F0B5FA002808D1704933
:10444000306840180BF002F8A878002802D0462007
:1044500019B0F0BD0BA81599FCF730FC0028F7D176
:10446000072010A90871012C05D0022C0AD0002CBD
:104470000ED04220ECE708A8017B1020014308A8D9
:10448000017305E011A90BA8FCF7D5FB0028DFD1CB
:1044900010A8027901230CA9284601F081FF002809
:1044A0007ED1022229461898FCF75DF829886846D3
:1044B00081811521490201820784012686734E21DC
:1044C00008A881700024C4700671072141718671AB
:1044D00003A902A801F01EFD002861D1022202A951
:1044E0001E98FCF740F8082F02D26846478502E084
:1044F00008206946488569460C850B4628880AAA23
:10450000098902F0CBFD00286DD13E496846018241
:104510000227078408A8847103A902A801F0FAFC05
:10452000002860D1022202A91F98FCF71CF86846F7
:104530000470694644704F850B4628880AAA098989
:1045400002F0ACFD00284ED108A8007BC00723D0A4
:104550002C496846C91C01820821018408A887707B
:10456000047103A902A801F0D5FC00283BD1FF216A
:104570006846C1718171C170817041700170447170
:1045800004716946082048850B4628880AAA0989CB
:1045900002F084FD002826D108A8007B800600E0F8
:1045A00021E022D52988684681811649A5310182FA
:1045B0000684867308A88770C4700471072141714E
:1045C000847103A902A801F0A5FC00280BD169465B
:1045D0000E700C854E850B4628880AAA098902F0C0
:1045E0005DFD002801D0472032E708A8007BA870B5
:1045F00000202DE7626C75656E72672188290020A6
:10460000DE060000012A0000034800210068AE30E9
:10461000C1708170704700008829002070B50D4B73
:104620001C68AE342379DD0612D45B0710D533281D
:104630000ED1E07A02280BD10420107000205070B7
:10464000C9B2022000F03EFA2079FB210840207117
:1046500070BD00008829002038B5024617480124A3
:104660000068AE30022A1FD0052A03D0072A07D0DF
:104670000B2A20D1084609794088FFF73DFE1AE051
:1046800000790024020600D50124820703D1C20666
:1046900001D480060FD5084600216A46117069468C
:1046A00000F0FCF8044606E08178490703D501795B
:1046B000FB2211400171204638BD000088290020EE
:1046C00010B509480468AE34E07880070BD50020A7
:1046D0000BF0D6FB022000F0CDF9E0780121084371
:1046E000FD210840E07010BD882900201FB50E484C
:1046F0000468AE34E078010612D5A178C9070CD061
:10470000800708D5042069460873684603F05CFFFB
:10471000022000F0AFF90020E0704006400EE0708B
:10472000FCF7D0FA1FBD000088290020F0B58DB03D
:104730000C4616A9E0C90021089109910A910B9134
:104740001599049105A9E0C112A962C900930191CC
:1047500013460146039602952246012000F0D0F848
:104760000DB0F0BD002000B58DB00A900B90089000
:104770000990059006900790049000900190029097
:10478000034602460146039000F0BAF80DB000BDA2
:10479000F0B5104C4625246885B0AE34A67876076F
:1047A00014D52679B3273E4210D10AF037FD050013
:1047B0000CD1207902210843207106206946087334
:1047C0000520C0020290684603F0B0FE284605B0FE
:1047D000F0BD0000882900200949B222096814238D
:1047E000525CBA311A4208D0498800050905090D02
:1047F000000D814201D10120704700207047000068
:104800008829002002780907090F0A430270002056
:104810007047000030B50E4885B005682C46AE35AF
:104820002879BA34400711D5E87A01280ED115212C
:104830004902684641800121017060886B46054A43
:1048400000F008FB002801D10220E87205B030BD5D
:1048500088290020FFFF00007CB50446E1200D46BA
:10486000800006F061F90BA103C900900191684630
:1048700003F06EFC01200CF0EFF9002801D0472076
:104880007CBD20782021084320700920287000205A
:104890007CBD00001F0200000000000030B5174B77
:1048A000047A1B68C268AE331B799D06AD0F04D134
:1048B0000078042801D000200BE0012030BD401C0E
:1048C000C0B2155C012D08D01518203DED7F2818C9
:1048D000C0B2A042F3D3087830BD401CDD070124EC
:1048E000C0B2002D02D0105CC00703E09B07F2D5D8
:1048F000105C80070028EED00C70ECE788290020BF
:10490000FFB595B00E46054620210CA8FCF730F9FE
:1049100000200490564800270468681EAE3404281E
:1049200002D8A078C0070BD0062D02D0002D0AD0E7
:1049300002E0A078800703D5E0784006800E0AD018
:10494000462019B0F0BDA0788007F9D0E078400685
:10495000800EF5D00FE0002D0DD0012D20D0022DBE
:1049600028D0062D33D0032D33D0042D37D0002E80
:104970003BD04220E5E700200BF082FA0028E0D18E
:10498000E078800708D5042069460873684603F07C
:104990001BFE022000F06EF80120E0700020D0E73E
:1049A000012EE6D0042EE4D01F980028E1D106277E
:1049B000042008E0012EDCD0042EDAD01F98002855
:1049C000D7D105270220E0700120049010E040209C
:1049D0000DE0022E01D0032ECBD1082007E0012EDE
:1049E00001D0042EC5D1102001E004272020E07062
:1049F00000230BAA19461E980AF000FB030002D000
:104A000000F0E4F832E01022002107A8FBF7AFFD28
:104A100007A86C46279B269A1F990FC42B46304641
:104A2000189A179900F088F80300E9D108A8017BCB
:104A3000C170259803AC049B289A29990FC422AB16
:104A400007CB02920091019039460CA8209B219A35
:104A500000F0C6F80300D3D107A80BF043FD030014
:104A6000CED101200BF00CFA0300C9D1184668E73B
:104A70008829002010B50446C1061148006803D5F6
:104A80001522BF210C4006E01B2189014118497EF7
:104A9000C90710D012222107890E08181121C90157
:104AA0004018806F0023214610F0D4F9010004D093
:104AB000204610F0BBF9002010BD072010BD0000FB
:104AC00088290020F8B5891ECDB20646A81C03210E
:104AD0000843401C8308174817460068F10603D5B1
:104AE0001C22BF210E4008E01B2189014118497E8C
:104AF000090601D40020F8BD19223107890E0818D3
:104B00001121C9014018806F314610F0A3F904004B
:104B10000ED03978217179786171A5712A46B91C56
:104B2000E01DFBF720FD2146304610F07FF9E1E75C
:104B30000720F8BD88290020F8B5224B224D1B68BC
:104B4000069C5B19009301239B03002814D00428C2
:104B500012D0022814D0032812D006239C461E46E9
:104B60001D460F46174310D0914203D8A94201D3E6
:104B70009A420ED94220F8BD3025AC46602602E0AC
:104B8000A025AC46F0262025EBE761462180668013
:104B900001E02180628020710798A071089820723E
:104BA0000998002805D00146204606220930FBF767
:104BB000DAFC0720607100982030807B6071002053
:104BC000F8BD000088290020040900000348812264
:104BD0000068A030417C1140417470478829002052
:104BE000F8B505463D481E460068079F0024AE30D4
:104BF0001346002905D002222A7001226A70A9708A
:104C00000324002E10D080788006800F0CD130193C
:104C1000401C1F2852D82E55641C281932461946AC
:104C2000FBF7A1FCA019C4B2002F0DD03819401C0D
:104C30001F2843D82F55641CE4B228193A46069918
:104C4000FBF791FCE019C4B26846008C00281BD029
:104C50006846808C002817D0601D1F282ED805209C
:104C60002855641CE0B212212954401CC4B22819F2
:104C70000646022208A9FBF776FCB01C022209A90D
:104C8000FBF771FC241DE4B20C98002810D0E01C46
:104C90001F2813D802202855641CE0B20A21295489
:104CA000401CC0B22918401CC4B208460BF0AAFE32
:104CB0000B9800280CD000191F2801D94220F8BDFC
:104CC00028190B9A0A99FBF74EFC0B982018C4B2CE
:104CD000214628460BF062FBF8BD00008829002021
:104CE00000B500F009F8002805D08522016992017D
:104CF000114200D0002000BD10B50D4900050B6821
:104D00000521490259184A690021000DA0331B7B77
:104D10000AE04C01145B2405240D844202D14801B1
:104D2000801810BD491CC9B28B42F2D8002010BDBA
:104D30008829002004490A683B21490151180A7852
:104D400002430A707047000088290020FEB58C6875
:104D5000CD88267B012E01D00020FEBD4126052DE9
:104D600001D01E7019E0247C0A2C00D01E70002A8D
:104D70000DD08968052268460C31FBF7F4FB6D1EE7
:104D800000AAA9B232200132FFF748FC05E00088F2
:104D90000A460146022000F021FD4120FEBD10B56B
:104DA000102100F09DF810BDFFB589B007464626DA
:104DB0001D781022991C05A8FBF7D2FE012D04D006
:104DC000022D02D042200DB0F0BD3846FFF788FF1B
:104DD000040037D020223946002009F085FE070064
:104DE0002FD0194869460880012004903946204692
:104DF0000B9B0A9A0AF0A7F8060004D00021384657
:104E000009F0CEFE1EE00B98A081A068012D0FD006
:104E1000102205A9FBF7A7FB257101212069490391
:104E2000084320610948A061384600F093FF09E07B
:104E300010220749FBF797FBA068022205A90C3056
:104E4000E8E764263046BEE7032800009F4D0410C3
:104E5000C0960510FFB589B0074646251E7810227A
:104E6000991C05A8FBF77CFE012E04D0022E02D06F
:104E700042200DB0F0BD3846FFF732FF040024D0C9
:104E800020223946002009F02FFE07001CD005AD76
:104E900004960FCD6D460FC5394620460B9B0A9AE6
:104EA0000AF051F8050004D00021384609F078FED8
:104EB0000BE0012120694903084320610448A061F7
:104EC000384600F047FF00E064252846D1E700009F
:104ED000D54E041010B5502100F096F910BD000019
:104EE000F0B593B00E46044600206946087601905E
:104EF000E0690790002827D0C788002F7DD0B00632
:104F0000800F03D02088FFF767FC019006AB204696
:104F1000019A0799FFF71AFF412861D0B81E80B2A5
:104F2000009007988068457B002D56D0F006F10769
:104F3000039000290FD0022F0DD329460098FBF7CC
:104F400093F9002903D006E0412013B0F0BD062DEF
:104F500017D0142D15D0B00708D5052F06D303217F
:104F6000B8078907C84201D1022048E070070ED572
:104F7000022F0CD329460098FBF776F9002902D0BE
:104F800005E001203BE0082D0DD0062D0BD0039845
:104F9000800F0ED0022F0CD329460098FBF764F93E
:104FA000002902D005E0042029E0072D08D0152DA6
:104FB00006D0B00611D5012D04D0022D04D00CE08E
:104FC00008201CE0042500E01225022F05D92946FF
:104FD0000098FBF749F9002910D04120694608766E
:104FE00001212069490388432061019800287DD070
:104FF00006AA01213120FFF711FBF6E010208107FE
:1050000006D57D49B8034018070CB800C01C0EE057
:10501000C0060098294604D5401CFBF725F987B245
:1050200002E0FBF721F90746781E6843801D81B234
:1050300005AB0222079809F017FDF0064ED5694628
:10504000A089898A884202D9206941065BD4002060
:1050500041E0072D0AD068430B3082B21023A168CB
:10506000079809F097FD002815D031E01022634918
:1050700008A8FBF778FA02980BABC100081A0B30AE
:1050800081B20222079809F0EFFC102208A8A1685B
:10509000FBF771FAE7E7019800280ED002980CABF5
:1050A0006843801D81B22A46079809F0DDFC0CAAEE
:1050B00029463320FFF7B2FA0AE0079800900298D9
:1050C0002B466843801CC2B22188022000F044FBBA
:1050D0000298401C80B20290B842BAD33820484FA0
:1050E000064207D06946A089898A00E077E08842B5
:1050F00004D86EE06846808AB8426AD020694106CA
:1051000006D5F10604D401218902084320616CE030
:1051100021882022002009F0E7FC050011D005219C
:10512000F2070120C902002A0DD06A4611800490BE
:10513000908A3B46401C82B22946204609F0C8FEB0
:1051400037E0452001E7B20713D5207901280ED0BA
:105150001020A2680290019200916846808A3B4626
:10516000401C82B22946204609F023FE21E002209D
:10517000EFE7710701D5234A04E00399890F0DD0A9
:10518000204A521C69460A800490888AA389401CE0
:1051900082B22946204609F0D6FE0AE0B0060AD5BA
:1051A0006846808AA389401C82B22946204609F0BD
:1051B00043FE642808D0284600F0CCFD2288304603
:1051C000079900F07CFB10E00021284609F0E8FC7C
:1051D000B7E722883046079900F071FB00E7684680
:1051E000027E2188022000F035FB0121E06909F0F0
:1051F000D7FC0020E061A8E600C0FFFFC0960510C4
:10520000FFFF000002280000F0B58BB00D460446F9
:105210000020694608710490E669002E16D0A806A1
:10522000800F03D02088FFF7D7FA049001AB3146F6
:105230002046049AFFF78AFD412865D0E80708D088
:1052400021883246022000F04DFA5DE041200BB08B
:10525000F0BD680705D521883246022000F008FA23
:1052600052E0A80739D5F0886188814205D92188A4
:105270003246022000F046F946E02069410604D596
:10528000012189020843206180E02188202200203A
:1052900009F02AFC05001ED021883246022000F0C9
:1052A00031F9A068801C00F005FB6188401E4018A1
:1052B00086B2A06800F0FEFA024633462946204630
:1052C00009F0E2FD284600F045FDA0683146801C4B
:1052D00000F0ECFA54E04520B9E7E80614D5F08870
:1052E000412702280ED9B168801E4D7B80B28542CD
:1052F00001D9012016E0002D04D02946FAF7B4FFA9
:1053000000290FD0684607710120216940038143BD
:105310002161049800282DD001AA01213120FFF736
:105320007DF92DE002900220002703901EE00498F2
:1053300000280DD0039805AB001D81B22A463046E7
:1053400009F092FB05AA29463320FFF767F907E029
:1053500003980096C2B22B462188022000F0FCF987
:105360000398401980B27F1CBFB203900298874215
:10537000DDD3C9E7684602792188022000F06AFA85
:105380000121E06909F00CFC0020E06100205EE7EB
:10539000FFB581B0154607464624FFF7ADFC060071
:1053A00028D00298002803D07088C01EA84201D2DD
:1053B00042241FE015483B2100684901401800784D
:1053C000000602D5642005B0F0BDE81C82B2394663
:1053D000002009F089FB07000ED0014600953046F9
:1053E000049B029A09F0EAFD04000AD00021384625
:1053F00009F0D6FB2046E6E764248020FFF79AFCFC
:10540000F8E7384600F0A6FCF4E700008829002001
:10541000F7B5064690790321401EC5B2E81C084343
:10542000401C8308174817460068F10603D5292257
:10543000BF210E4008E01B2189014118C97EC90621
:1054400001D40020FEBD26223107890E0818112143
:10545000C9014018806F31460FF0FCFC04000FD0EA
:105460000198A080A808A07123462A460521384645
:10547000083309F0F9FA214630460FF0D7FCE0E78F
:105480000720FEBD88290020F7B506469079032144
:10549000801EC5B2E81C0843401C83081848174604
:1054A0000068F10603D52822BF210E4008E01B2129
:1054B00089014118C97E090701D40020FEBD2522BB
:1054C0003107890E08181121C9014018806F314633
:1054D0000FF0C0FC040011D00198A080B8682346EA
:1054E000407BA071E5712A4606213846083309F051
:1054F000BBFA214630460FF099FCDEE70720FEBDDF
:1055000088290020F7B5064690790321401EC5B2D0
:10551000E81C0843401C8308164817460068F1063B
:1055200003D52C22BF210E4008E01B218901411820
:10553000C97E090601D40020FEBD29223107890E4B
:1055400008181121C9014018806F31460FF082FC04
:1055500004000DD00198A080A5712A460521384687
:10556000E31D09F081FA214630460FF05FFCE2E7C7
:105570000720FEBD88290020F7B506469079032153
:10558000801EC5B2E81C0843401C83081848174613
:105590000068F10603D52E22BF210E4008E01B2132
:1055A00089014118097F890701D40020FEBD2B2203
:1055B0003107890E08181121C9014018806F314642
:1055C0000FF048FC040011D00198A080B868234671
:1055D000407BA071E5712A4606213846083309F060
:1055E00043FA214630460FF021FCDEE70720FEBDDE
:1055F00088290020F7B5064690790321801EC5B2A0
:10560000281D0843401C8308184817460068F10607
:1056100003D52A22BF210E4008E01B218901411831
:10562000C97E890601D40020FEBD27223107890EDC
:1056300008181121C9014018806F31460FF00AFC8B
:10564000040011D00198A080B8682346407BA07167
:10565000E5712A4606213846083309F005FA214645
:1056600030460FF0E3FBDEE70720FEBD882900206F
:10567000F7B5064690790321401EC5B2E81C0843E1
:10568000401C8308164817460068F10603D52D22F2
:10569000BF210E4006E01B2189014118097FC9077F
:1056A00019D02A223107890E08181121C901401882
:1056B000806F31460FF0CEFB04000ED00198A08021
:1056C000A5712A4605213846E31D09F0CDF921468A
:1056D00030460FF0ABFB0020FEBD0720FEBD0000F2
:1056E00088290020F7B5064690790321401EC5B2EF
:1056F000E81C0843401C8308164817460068F1065A
:1057000003D52B22BF210E4008E01B21890141183F
:10571000C97E490601D40020FEBD28223107890E2A
:1057200008181121C9014018806F31460FF092FB13
:1057300004000DD00198A080A5712A4605213846A5
:10574000E31D09F091F9214630460FF06FFBE2E7C7
:105750000720FEBD88290020FFB59B1E0646DDB24E
:10576000681D03210843401C83081B4881B0006862
:105770001746F10603D53622BF210E4009E01B2152
:1057800089014118497F890702D4002005B0F0BD86
:1057900033223107890E08181121C9014018806F82
:1057A00031460FF057FB040014D00298A0800A98ED
:1057B000234680682A460830C0190079E0802572A7
:1057C000B91D09330A9809F04FF9214630460FF008
:1057D0002DFBDAE70720D9E788290020F8B5044631
:1057E00090680F4601461546467B0E3102226846F8
:1057F000FAF7B9FEA8680223057C1548E10603D52F
:105800003522BF210C4009E01B2201689201891852
:10581000097F090601D40020F8BD32222107006863
:10582000890E08181121C9014018806F21460FF018
:1058300011FB010009D08F808E716A4612880A819F
:105840008D7220460FF0F2FAE5E70720F8BD000060
:105850008829002070B50E4601230446C10612486F
:105860001546006803D53422BF210C4006E01B21F9
:1058700089014118497FC90711D031222107890EBA
:1058800008181121C9014018806F21460FF0E2FA73
:10589000010006D08E808D7120460FF0C7FA0020DF
:1058A00070BD072070BD0000882900200170090A22
:1058B00041707047017840780002084370471346F2
:1058C00010B50207920F05D00A4619460220FFF7CD
:1058D00091FE10BD820605D50A4619460220FFF743
:1058E000D3FD10BD820705D50A4619460220FFF7F1
:1058F0008FFD10BDC007FCD00A4619460220FFF7F5
:105900003BFE10BDF8B5069C1F4615460646002C0A
:1059100013D0A06802220D30FAF725FEE81E82B2ED
:105920003B460721204609F08FF9E580A068012E4B
:1059300005D01D2101730020F8BD4720F8BD1B21B3
:10594000F8E70000F1B5FFB08BB0012460020590CC
:105950000027CC4807970168E320C000081803908F
:105960008A98C74D0005000D0AAA05A90BF0E9FDAC
:105970000690002872D104260AA805994218203AF8
:10598000D27F0B2A23D00026002004900AA8811978
:10599000022201A80291FAF7E6FD6846818809AB68
:1059A00008AA039801F074FD012817D002287DD0C1
:1059B00068468088854200D30546844200D9204647
:1059C000044602988078012871D013363BE1491EC5
:1059D000761E36040591360CCFD1D5E70898009095
:1059E000002F79D10099022228310298FAF7C3FDDD
:1059F00000281ED100982030017B029880788142D7
:105A000017D1012808D10098029902220830C91C38
:105A1000FAF7B1FD002815D002988078022808D145
:105A20000098029910220830C91CFAF7A4FD00283A
:105A300008D00098008DA84200D80546A04200D2A8
:105A40002046044602990AA88978012907D013360E
:105A50000599B6B28E4204D3012707E005E1761D11
:105A6000F6E78119022201A8FAF77DFD0399009853
:105A700008318E462EE084466946026A8B882030C3
:105A80000DE0918B994203D3012F7DD199427BD9AF
:105A9000A94200D80D46A14200D30C4612688242AA
:105AA000EFD10498002817D1604601E015E0BFE06F
:105AB000006870450ED0018D994203D3012F09D1A2
:105AC000994207D98D4200D30D468C4200D80C462E
:105AD000012F59D17045CED1BAE008980090002F1F
