:020000041004E6
:10000000006000205D0E0410050E0410070E0410A1
:10001000AA5555AA45554C420000000000000000BA
:10002000000000000000000000000000090E0410A5
:1000300000000000000000000B0E04105D22041000
:100040006D2204100D0E04100000000000000000DE
:10005000652204100F0E0410552204101B0E04100C
:100060000000000000000000000000000000000090
:10007000000000001D0E04101F0E0410210E0410BD
:1000800000000000110E0410130E0410150E0410D1
:10009000170E0410190E0410010E0410030E0410A4
:1000A0000000000000000000000000000000000050
:1000B0000000000000000000000000000000000040
:1000C000F0B543464C4655465E466746F8B40E4C7E
:1000D0006B4623600D4C20680D4C20600D4C206851
:1000E0000D4C20600D4C20680D4C2060BFF34F8FED
:1000F00030BF054C2468A546F8BC9846A146AA46E0
:10010000B346BC46F0BDC0460800002004ED00E048
:100110005003002024ED00E04403002000E200E052
:100120005403002002780B78002A03D001300131FB
:100130009A42F7D0D01A7047002243088B4274D3FA
:1001400003098B425FD3030A8B4244D3030B8B42D8
:1001500028D3030C8B420DD3FF22090212BA030CE1
:100160008B4202D31212090265D0030B8B4219D3C2
:1001700000E0090AC30B8B4201D3CB03C01A5241E2
:10018000830B8B4201D38B03C01A5241430B8B422A
:1001900001D34B03C01A5241030B8B4201D30B0313
:1001A000C01A5241C30A8B4201D3CB02C01A52413A
:1001B000830A8B4201D38B02C01A5241430A8B42FD
:1001C00001D34B02C01A5241030A8B4201D30B02E6
:1001D000C01A5241CDD2C3098B4201D3CB01C01A00
:1001E000524183098B4201D38B01C01A524143090A
:1001F0008B4201D34B01C01A524103098B4201D3F8
:100200000B01C01A5241C3088B4201D3CB00C01A64
:10021000524183088B4201D38B00C01A52414308DC
:100220008B4201D34B00C01A5241411A00D2014601
:10023000524110467047FFE701B5002000F0F0F88A
:1002400002BDC0460029F7D076E7704703460B434E
:100250007FD4002243088B4274D303098B425FD3BF
:10026000030A8B4244D3030B8B4228D3030C8B42EB
:100270000DD3FF22090212BA030C8B4202D31212D1
:10028000090265D0030B8B4219D300E0090AC30BA6
:100290008B4201D3CB03C01A5241830B8B4201D353
:1002A0008B03C01A5241430B8B4201D34B03C01A3C
:1002B0005241030B8B4201D30B03C01A5241C30AB4
:1002C0008B4201D3CB02C01A5241830A8B4201D325
:1002D0008B02C01A5241430A8B4201D34B02C01A0F
:1002E0005241030A8B4201D30B02C01A5241CDD2B4
:1002F000C3098B4201D3CB01C01A524183098B42FF
:1003000001D38B01C01A524143098B4201D34B01E7
:10031000C01A524103098B4201D30B01C01A52414A
:10032000C3088B4201D3CB00C01A524183088B42D1
:1003300001D38B00C01A524143088B4201D34B00BA
:10034000C01A5241411A00D201465241104670472C
:100350005DE0CA0F00D04942031000D34042534031
:1003600000229C4603098B422DD3030A8B4212D3F1
:10037000FC22890112BA030A8B420CD38901921123
:100380008B4208D3890192118B4204D389013AD060
:10039000921100E08909C3098B4201D3CB01C01A35
:1003A000524183098B4201D38B01C01A5241430948
:1003B0008B4201D34B01C01A524103098B4201D336
:1003C0000B01C01A5241C3088B4201D3CB00C01AA3
:1003D000524183088B4201D38B00C01A5241D9D2BB
:1003E00043088B4201D34B00C01A5241411A00D23C
:1003F0000146634652415B10104601D34042002B38
:1004000000D54942704763465B1000D3404201B5B6
:10041000002000F005F802BD0029F8D016E770476B
:100420007047C046437802781B021A438378C0782D
:100430001B041343000618437047C046030A4B7061
:10044000030C8B70030E0870CB70704703005A7852
:100450000078120202439878197900040243D87890
:10046000000610435A7912020A43997909040A4393
:10047000D979090611437047030A5370030C93702E
:10048000030ED3700B0A53710B0C93710B0E10708B
:100490001171D3717047C046024A1368013313606B
:1004A0007047C04610030020C021074A074B084888
:1004B0005360036A09061B021B0A0B4303620023F5
:1004C000936007331360704710E000E0FE7C00008B
:1004D00000ED00E00E4AD3691B061B0F4370D9B232
:1004E000D3690C4A1B071B0F83700B4B1B684360BF
:1004F00093420BD102230370002901D101234370E1
:10050000064B9B8A01339B00836070470123F2E70F
:100510000000904041A000022800904000001040E0
:10052000F0B5070085B001AC0E0020001500FFF704
:10053000D1FF23783B7063783370A3782B7005B0BC
:10054000F0BD10B501F0E3FE10BD10B501F0FAFEEC
:1005500010BD10B501F0CCFE10BD0078C0B27047E0
:10056000024A138ADB07FCD57047C04600001040E2
:10057000084B10B51A68084B9A4209D13F22074B25
:1005800040061A81000C2E3A98611A80FFF7E8FFA6
:1005900010BDC04614000020CCBCECFC0000104094
:1005A000084B10B51A68084B9A4209D13F22074BF5
:1005B00080081A810C3A986119641A80FFF7D0FFFD
:1005C00010BDC04614000020CCBCECFC0000104064
:1005D0000379F7B50168002B30D18022D20553682A
:1005E0008B43536020258022002106686D42D2058E
:1005F00033000124CB4023420DD00379CCB20193C8
:10060000072924D80F238F00BB40D46A9C43019B49
:10061000BB401C43D462013104351A29E8D1802340
:100620004279DB05012A39D1DA683243DA6082790E
:10063000012A36D19A6816439E60F7BD062BD1D1A8
:10064000002380220371D20553680B43C9E72700BA
:10065000083F072F08D80F27019BAF40AB40146B12
:10066000BC4323431363D6E7103C072C0AD82F0062
:100670000F23203FBB40546B9C43019BBB401C435A
:100680005463C8E72F000F23403FBB40148F9C43A7
:10069000019BBB401C43A4B21487BCE7DA68B24399
:1006A000C4E79A68B2439A60C7E78023DB05012953
:1006B00001D1D86370471864FCE780234268DB05EA
:1006C0000168012A0FD11A690A431A6180238168DF
:1006D000DB050268012909D19969114399615969BA
:1006E0009143596170471A698A43EEE7002907D19F
:1006F000D24399691140996159690A405A61F1E7F9
:1007000059690A43FAE78023DB05DA69002902D038
:100710001043D86170478243DA61FBE78022D2053B
:10072000936A1843906270478023DB055B6A184028
:10073000431E9841C0B27047C02380221B0619781F
:1007400052420A437F211A701A780A401A70704781
:10075000C02301211B061A780A431A701A788A43AB
:100760001A707047C0231B0618688007C00F7047B7
:10077000024B1868431E9841C0B27047000400C085
:1007800030B50300012811D0022811D00120032B1D
:100790000BD1084A08000B0020301D685C1A043396
:1007A000A5508342F9D10020106230BD024AF1E722
:1007B000024AEFE7B40400C06C0400C0900400C01B
:1007C000030001280FD002280FD00120032B09D1EC
:1007D000074B1A00C91A20321878C85401339342C3
:1007E000FAD100207047034BF3E7034BF1E7C04613
:1007F000B40400C06C0400C0900400C0044B1A6A2A
:10080000012902D110431862704782431A62FBE744
:1008100000009040054B0122196B002802D00A43CA
:100820001A63704791431963FBE7C04600003040EC
:10083000F8B54A4C0500236B01681B0700D56DE035
:1008400009014748FFF778FCC3099AB2A284454AD8
:10085000DB0101301340C01A400880B23F2802D9A2
:100860003F233F381840032760263F4BC0B2187023
:100870003E4B2A7918783A405201B0431043187021
:1008800001206979227F39404901B2430A43227726
:10089000AA7919780240BA40073081431143197090
:1008A000217F81430A432277EA79002A38D1022145
:1008B0001A788A431A70227F8A43012022772A7A83
:1008C000216B1600C2402A4F064076023940314360
:1008D0002163216B274E0240314012020A432263FA
:1008E000697A226B0E00C140234F06403A40B6039E
:1008F00032432263226B214E01403240C90311432F
:100900002163AA7A197802400F3012018143114302
:100910001970237F83431A432277F8BDC90090E7FB
:10092000022A0CD1042019781143197019788143D7
:100930001970217F0A432277227F8243BDE702217B
:100940001A780A431A700422187810431870207F0E
:1009500001432177217F0A43AFE7C04600003040C2
:100960000000127A80FF7F00280030402C003040C9
:10097000FFFDFFFFFFFEFFFFFFBFFFFFFF7FFFFF4A
:10098000044B1A8F002902D0104318877047824306
:100990001A87FBE700003040024BC005C00D1880ED
:1009A0007047C04600003040014B1888C0B2704705
:1009B00000003040054B002805DA5B681840431EF4
:1009C0009841C0B270471B8BF8E7C046000030402A
:1009D000034B9B8F1840431E9841C0B27047C046DE
:1009E000000030400722024038200449D2000B7832
:1009F00083431800104308707047C04634003040ED
:100A0000F0B583780178002B33D040784AB280016A
:100A1000002A1BDA0F230B40083B1B4A9B089B0054
:100A20009B18FF22032517000D40ED00AF40024048
:100A3000AA40DE69BE433243DA611F224B091140EE
:100A40001E3A8A4011499B00CA50F0BDFF270F4B48
:100A500092089200D21803233C00C0250B40DB0013
:100A60009C4038409840AD005659A6433043505101
:100A7000E3E71F234A090B40012199401300034A71
:100A800020339B00D150E0E700ED00E000E100E002
:100A900010B5094C002801D0012805D000F07CF8E1
:100AA0000138C000205805E000F076F80138C00099
:100AB0002018406810BDC046786E051070B5012141
:100AC00086B006000920FFF799FE00F065F81C4B80
:100AD00001388000C3580024019300F05DF8194BE1
:100AE0000138800001ADC35828002B71AC716C71C6
:100AF000FFF76EFD00F050F8134B01388000C3582B
:100B0000019300F049F8114B01388000C3582800C8
:100B10002B71FFF75DFD0125032303A803714371CA
:100B200003728471C471447285720396FFF780FE6C
:100B30002000FFF757FF2800FFF76CFE06B070BDDE
:100B4000746E0510706E05106C6E0510686E0510E1
:100B5000042313B5040001A80370013B43708470A3
:100B6000FFF74EFF21001020FFF70AFF13BD10B55D
:100B700001F0CDFB10BD10B501F0C9FB10BD10B5E3
:100B80000A00002101F0DEFB10BD00000122014B34
:100B90001A70704714030020014B1878C0B27047D8
:100BA0001403002010B50F4C01280AD0002801D0F2
:100BB00002280ED0FFF7F0FF431E0C2058432058A8
:100BC00006E0FFF7E9FF431E0C2058432018406859
:100BD00010BDFFF7E1FF431E0C205843201880682A
:100BE000F6E7C046806E051010B5FFF7DBFF012168
:100BF000FFF75BFD10BD10B5FFF7D4FF0021FFF735
:100C000054FD10BD13B5012104000800FFF7F6FDE7
:100C10002000FFF7C7FF6A4606230090137168465D
:100C2000053B93715371FFF7D3FC2000FFF7E3FFFF
:100C300013BD10B509F0A8F910BD10B508F0BEFD40
:100C400010BD10B509F074F810BD7FB50BAE368835
:100C500008AC09AD2D88248803960A9E019502965A
:100C6000009409F081FA7FBD7FB508AC20CC0AAEB4
:100C70002478367801940296009509F0B7F904B00B
:100C800070BD10B502F08EF910BD10B50AF0ACFEC3
:100C900010BD01207047F0B58DB012AC24780993D7
:100CA0000A9413AC248818AB1B880B9415AD14ACB4
:100CB00016AE17AF24882D8836883F8806930B9B85
:100CC000059701930A9B0496009303950294099B50
:100CD00001F076FB0DB0F0BD10B501F03DFF10BD89
:100CE00010B502F0B7F810BD10B50DF0BDF810BD8D
:100CF00010B50AF079FD10BD10B50AF081F810BDED
:100D000010B502F025F910BD10B502F029F910BD9B
:100D100010B506F0D1FD10BD10B50FF0A5FF10BD48
:100D200010B50FF089FD10BD10B510F097F810BD8B
:100D300010B50FF0A9FD10BD10B509F053FB10BDA3
:100D400010B506F08FFB10BD10B509F069FD10BDA0
:100D500010B509F097FB10BD10B509F0ABFC10BD44
:100D60000120704710B505F011FC10BD10B512F050
:100D700083F810BD10B512F051F810BD10B512F087
:100D800033F810BD10B512F03DFA10BD01207047C8
:100D900010B512F091FA10BD10B512F077FA10BD2F
:100DA00010B510F03FFD10BD10B510F05BFD10BD8B
:100DB00010B510F0E9FD10BD10B510F0AFFC10BD7E
:100DC00010B510F0CBFC10BD10B510F0F1FC10BD4B
:100DD00010B510F05DFD10BD10B510F07BFD10BD1D
:100DE00010B50FF087FD10BD10B50FF056FD10BD0A
:100DF00010B510F05DF810BD10B50FF071FF10BD0B
:100E0000704770477047704770477047704770472A
:100E1000704770477047704770477047704770471A
:100E200070470000002210B5084B1A60084B1B7A6F
:100E3000934209D1074B1B89052B05D9064B01327B
:100E40001A70FFF756F9FEE7012010BD14000020CC
:100E500000009040000010480C00002070B5FFF723
:100E6000E1FF012817D1002314481549154C1A1821
:100E70008A4216D3002314481449154C1A188A4282
:100E800013D30021134B144A934212D30021134B66
:100E9000134A93420FD3134B83F3088801F088F968
:100EA00070BDE55804331560E1E7E558043315607B
:100EB000E4E702C3E8E702C3EBE7C04628230020CB
:100EC0008C2300204078051008000020340000200A
:100ED00014780510C0000020CC020020CC020020B5
:100EE0002823002000600020002210B5104B995CE0
:100EF000C9B2002917D11C2A14DC022021249854DD
:100F0000501C1C54901C193C1C54901D19549B18C7
:100F1000802290219BB252021343C905CB60CB685B
:100F20001342FCD110BD995C01315218D2B2DEE7F8
:100F3000150300200023F0B5144AD45CE4B2002C61
:100F40001ED1192B0FDC02253B275E1CD55497556B
:100F50005E199055DE1C955535261D1D56555D1D97
:100F600006335155D45402223B24094B1A705C704D
:100F70009870DA7033321A71002259719A71F0BD8B
:100F8000D45C01341B19DBB2D7E7C046150300203F
:100F90004803002070B58AB003AC05000E0019228A
:100FA0004449200001F0B3F96846FFF793FA002D99
:100FB00062D04423404AA373117A433B0B4313721C
:100FC0004C23E3722C3B237292336374573B23759B
:100FD0003A4B3B4A1B68190C914208D17020E17DC5
:100FE0001B018143E175E17D03400B43E375354B04
:100FF0001B68190C914208D1302061791B01814393
:101000006171617903400B4363712F4B1B68190CAD
:10101000914207D10321E27D0B408A43E275E27DD4
:101020001343E3750422E37A69469343E3726B4604
:101030005B78897893400B43112B08DDE37D1A43DD
:10104000E275E07AE17DC0B2C9B2FFF773FF802399
:1010500090222404240C5B021C43D205D460D16886
:101060001942FCD16B466A465B7892781B011343A8
:10107000112B01DDFFF738FF144B1A8B002AFCD02F
:1010800001221A8316329A8100221A61964207D0F1
:1010900090231021DB0518691A6942400A42FBD0EF
:1010A000002D02D015220A4B1A700A4A0A4B1A6008
:1010B0000AB070BD386E051000002040E80700102F
:1010C00055AA0000E4070010B00700100000104807
:1010D0000000C040CCBCECFC140000200822C02161
:1010E000F8B53F4B3F4D9A803F4A0904136AFF20F1
:1010F0002B400B43C0211362136A09061B021B0A13
:101100000B431362C02292009446384B64469A58AF
:10111000374E82433F38024360461A501A58C02067
:101120003240000202431A51C122FF2792009C580C
:10113000BC433F3F3C439C509C583F3734400443A2
:101140009C509C582C409C509C582402240A0C43D0
:101150009C500832944664469A58324002431A51D1
:101160001A59C0242A402404224364461A511A59A9
:101170001202120A0A431A51C4229200944664468B
:101180009A58324002431A511A59C0242A40240462
:10119000224364461A511A591202120A0A431A517A
:1011A000C52292009C58BC432700C0242743C0247A
:1011B0009F509F5824043E40304398509858054013
:1011C0002C439C5098580002000A01439950012179
:1011D0000800FFF7DFFE074A074B1A6262B6F8BD48
:1011E00000001040FFFF00FF00ED00E000E100E024
:1011F000FF00FFFF66000E00000090402A23F0B5BC
:101200008BB006AC23709B336370D523A370A523EA
:10121000E37000236371B433A3719A23E371E12374
:101220002372112363723A23A372CF23E3728023C4
:1012300023736E23022563733623764E102221001A
:101240003000A3732571E573FFF77BF9724A734B86
:1012500031001B7828000092012201F0A0F9071E3E
:1012600006D002206E4900F0D5FA47200BB0F0BD41
:101270002B2323709A336370D523A370A523E370C7
:10128000B423A3719A23E371E123237211236372C0
:101290003A23A372CF23E372802323736E236373F5
:1012A0003623604E6071102221003000A373257137
:1012B000E573FFF746F9584B320018885A4B0497EC
:1012C0000593102302970393019700950F3B290084
:1012D00001F046F9071EC4D12C23237099336370A3
:1012E000D523A370A523E370B423A3719A23E371DC
:1012F000E1232372112363723A23A372CF23E37293
:10130000802323736E2363733623607110222100C0
:101310003000A3732571E573FFF713F93E4B3200DC
:101320001888424B04970593102302970393019763
:1013300000950C3B290001F013F9071E00D090E73F
:101340002D23237098336370D523A370A523E370F6
:10135000B423A3719A23E371E123237211236372EF
:101360003A23A372CF23E372802323736E23637324
:1013700036236071102221003000A3732571E573BC
:10138000FFF7DFF8244B32001888294B04970593A8
:10139000102302970393019700950F3B290001F05A
:1013A000DFF8071E00D05CE72E23237097336370AD
:1013B000D523A370A523E370B423A3719A23E3710B
:1013C000E1232372112363723A23A372CF23E372C2
:1013D000802323736E2363733623607110222100F0
:1013E0003000A3732571E573FFF7ABF80A4B3200A9
:1013F0001888104B049705931023029703930197C5
:1014000000950F3B290001F0ABF8002800D028E739
:101410002CE7C046C80800208A0400207923002059
:10142000B96E051090040020A0080020A408002038
:101430008E040020D80800201A23F0B58BB006AC2B
:101440002370BB33A370A523E37000236371B4330F
:10145000A3719A23E371E1232372112363723A2368
:10146000A372CF23E372802323736E230225637359
:10147000C5273623284E102221003000A373677041
:101480002571E573FFF75DF8244A254B31005B7841
:1014900028000092012201F082F8061E06D00220E8
:1014A000204900F0B7F947200BB0F0BD1B23237093
:1014B000BA33A370A523E370B423A3719A23E37115
:1014C000E1232372112363723A23A372CF23E372C1
:1014D000802323736E23637336236770124F60710A
:1014E000102221003800A3732571E573FFF729F856
:1014F0000A4B3A0018880D4B04960593102303936A
:101500000F3B02931D33009301960A3B290001F023
:1015100027F80028C3D1C7E7C808002058030020D7
:10152000792300208C6E051090040020A204002076
:101530003A23F0B58BB006AC2370C5236370D52376
:10154000A370A523E37000236371B433A3719A23BE
:10155000E371E1232372112363723A23A372CF2331
:10156000E372802323736E230225637336235E4E5A
:10157000102221003000A3732571E573FEF7E1FF0F
:101580005A4A5B4B31009B7828000092012201F0FF
:1015900006F8061E06D00220564900F03BF9472007
:1015A0000BB0F0BD3B232370C5236370D523A3701C
:1015B000A523E370B423A3719A23E371E12323727B
:1015C000112363723A23A372CF23E3728023237320
:1015D0006E2363733623484F607110222100380058
:1015E000A3732571E573FEF7ACFF404B3A001888F2
:1015F000424B04960593102303930E3302960196F3
:10160000009329000A3B00F0ABFF061EC3D13B2329
:101610002370C5236370D523A370A523E370B4237F
:10162000A3719A23E371E1232372112363723A2396
:10163000A372CF23E372802323736E236373362355
:101640006071102221003800A3732571E573FEF745
:1016500078FF264B3A001888294B049605931023EF
:101660000393023B0296019600932900063300F093
:1016700077FF061E00D08EE73B232370C5236370DF
:10168000D523A370A523E370B423A3719A23E37138
:10169000E1232372112363723A23A372CF23E372EF
:1016A000802323736E23637336236071102221001D
:1016B0003800A3732571E573FEF743FF0B4B3A0027
:1016C0001888104B04960593102303930F3B029345
:1016D0000D33009301960633290000F041FF0028E6
:1016E00000D058E75CE7C046C8080020A8080020E2
:1016F00079230020A16E051090040020A20800208C
:10170000FC030020040400207FB500221D4B1E4D69
:1017100003AC1988227028880123009400F078FF18
:101720001A49061E28D11A49200000F013FE194B51
:101730002888198832000094042300F069FF1649B4
:10174000021E19D1154B28881B782370144B198859
:101750000094012300F05CFF1249021E0CD1124BD1
:1017600028881B782370114B19880094012300F0FE
:101770004FFF002804D00E49022000F04BF847200C
:1017800004B070BDA00800208A040020CF6E0510B0
:10179000F96E0510A4080020FE6E0510A0040020BC
:1017A0008E0400202D6F0510AA080020D808002004
:1017B0005C6F05100023064A1360064A1370064A40
:1017C0001370064B064A5A60064A9A607047C04634
:1017D00000040020880400208C040020080400205D
:1017E0008E6F05109D6F0510074B01201B68002BA5
:1017F00008D1064B1B78002B04D1054B1878431EEB
:101800009841C0B27047C046000400208804002000
:101810008C04002010B50C00074B8000C05800F06D
:1018200051F8064800F04EF8200000F04BF804484C
:1018300000F048F810BDC04608040020F96F0510FC
:101840006D72051030B5194991B00400FEF76AFCBD
:10185000002809D1164800F090FC164800F08DFCD5
:10186000154800F08AFC1CE014492000FEF75AFCE1
:10187000002818D164236A4607AC6370613B237269
:1018800040336372BC33A372EF3BE3720BAB23CBE9
:1018900023C203CB03C207980899099A0A9B00F058
:1018A00001FD11B030BD0648D8E7C046AD6F051048
:1018B000B56F0510F96E05106D720510CF6F05102C
:1018C000D66F051010B500F058FC10BDF0B50E0035
:1018D00085B001AF04000B221149380000F017FD5C
:1018E0003500002C03DA2D23751C33706442200070
:1018F0000A210135FEF7AAFC0028F9D12870200042
:101900000A21FEF789FD7B5C013D20002B700A2136
:10191000FEF79CFC041EF2D1300005B0F0BDC046BD
:10192000FC6F05101FB501A9FFF7D0FF01A800F05B
:1019300024FC05B000BD000070B50600094800F0A9
:101940001CFC0024305DFFF7EDFF651C052C05D065
:10195000054800F012FC2C00062DF3D1034800F0DE
:101960000CFC70BDE86F0510F86F05106D72051066
:1019700010B5FFF70BF90020FFF744F90120FFF73E
:1019800041F90220FFF73EF90020FFF734F901206A
:10199000FFF731F90220FFF72EF9E1204002FFF7AF
:1019A0008DF80120FFF7D4F80148FFF78BFF10BD39
:1019B00007700510012130B5080087B0FEF71EFF43
:1019C0000020FFF765F8002401AB019018001C719E
:1019D0009C715C71FEF7FCFD6B466A4601251C702C
:1019E0000323684653709570FFF70AF82000FFF74D
:1019F0004FF8039003A804940595FEF75EFE2000BF
:101A0000FFF746F8FEF78AFE2000FFF741F82900AD
:101A1000FEF779FE07B030BD70B5364A88B00621B2
:101A2000002000F026FE002803D033490220FFF7F3
:101A3000F1FE0421012000F018FE00F0E5FD2F4921
:101A4000041E47D11A251E236D446B4407AE019333
:101A5000010000962B000722052000F0DEFC041E8A
:101A600009D002202649FFF7D5FE2000FFF75AFFD4
:101A7000200008B070BD29880725224B32880393C7
:101A8000029501900095030000F0CCFD1E49041E54
:101A900020D11E4B01210393102304900290019347
:101AA000020003000095080000F0D0FC1849041E55
:101AB00010D11848FFF706FFFFF7A0FB041E08D15E
:101AC0001548FFF7FFFEFFF7B7FC041E06D01349C9
:101AD00000E013490220FFF79DFEC9E71148FFF718
:101AE000F1FEFFF725FD1049041EF3D10F48FFF763
:101AF000E9FEBDE77C230020477305106A730510DB
:101B000081730510822300209773051040E20100C5
:101B1000BF730510EF730510137405107174051071
:101B20003474051051740510B07405108D740510CF
:101B300010B51148FFF7C6FE1048FFF7FDFE10482C
:101B400000F0E0FD002806D00E490220FFF762FEFB
:101B500001220D4B1A70FFF75FFF002807D00B49D9
:101B60000220FFF757FE0122074B1A7010BD0848EC
:101B7000FFF7A8FEFAE7C046487105107C23002055
:101B800024700510617105108C0400208971051006
:101B90009F710510092330B501248BB008AD134A9D
:101BA0002B70631ED35C2B550134082CF9D1002116
:101BB000080004F07FFE0020F022C8210690059066
:101BC000049003900295019400900300D200C90094
:101BD00000F084FC002805D005490220FFF71AFE1A
:101BE0000BB030BD0348FFF76DFEF9E782230020FC
:101BF00087720510A972051010B500F090FC041E44
:101C000005D005490220FFF705FE200010BD03485E
:101C1000FFF758FEF9E7C046D1720510F7720510BC
:101C2000FA2210B5D20088B02821069205923C22F3
:101C300002910191802104920022C90103000392C4
:101C400000920800FFF727F8041E06D0084902207A
:101C5000FFF7E0FD200008B010BD0648FFF732FE98
:101C6000054B1B68002BF5D100F008FDF8E7C046D6
:101C7000BE710510DF7105103803002070B50C4DE2
:101C800047242B68002B11D00A4B1321188880B2EF
:101C900000F04FFC041E06D007490220FFF7BAFDF2
:101CA00004E000F0EBFC2B68002BFAD1200070BDA3
:101CB000380300203C0300202373051070B5050095
:101CC00086B03A48FFF7FEFD394E3368002B5AD0F4
:101CD0003848FFF7F7FD384C3368002B08D0002C4C
:101CE00002D1FFF7CBFF05E000F0C8FC013CF3E7B1
:101CF000002CF6D02800FFF793FF00284CD11022CB
:101D00002E4902A800F003FB2D4D102202A9280045
:101D1000FEF717FC2B48FFF7D5FD2B4C022320883C
:101D20002A4A80B20095012100F05AFC28490B880C
:101D3000002B2BD00022274B0A809A540132182AFC
:101D4000FBD12088098880B2013189B2043A00F0C1
:101D50007AFC041E09D020490220FFF75BFD200019
:101D6000FFF7E0FD1D48FFF7ADFD1D4B1A78002A77
:101D70000FD000221A70FFF781FF1A48FFF7A2FD6B
:101D8000002006B070BDFFF737FFB3E700F076FC28
:101D9000CCE700F073FCE8E7FFF7FCFE12490220F5
:101DA000FFF738FD2800FFF7C7FDE6E7F4710510DF
:101DB0003803002007720510A0860100516E05103F
:101DC000580D0020227205103C030020FFFF000088
:101DD00040030020400D00202C7205106D7205108C
:101DE0003E0300206F7205105172051010B50248B5
:101DF000FFF768FD10BDC0466470051010B50248BD
:101E0000FFF760FD10BDC046587005100122134B4E
:101E100010B5029C1A60124B12481980FFF752FD50
:101E2000207800F09FF9607800F09CF9A07800F02D
:101E300099F9E07800F096F9207900F093F960794B
:101E400000F090F90D2000F08DF90023064AE15CC6
:101E5000D1540133062BFAD110BDC04638030020FF
:101E60003C0300203E710510BC0800200023012126
:101E7000054A10B51360054A05481170054A1380DC
:101E8000FFF720FD10BDC046380300208923002045
:101E9000307105103C0300201FB504000C48FFF70B
:101EA00011FDAA2203AB1A700A4A11880A4A108847
:101EB00000930022012300F0ABFB002803D0074968
:101EC0000220FFF7A7FC200000F084FB1FBDC046E6
:101ED0000F710510DA08002058030020CF6E05109E
:101EE000F7B50400074816001F000D00FFF7EAFCD5
:101EF00000230197009629001A00200000F0A7FB9C
:101F0000F7BDC0461871051070B507481C000D00DC
:101F1000FFF7D8FC054B1B88AB4204D1E1B2049A11
:101F2000012000F085F970BD73700510A204002037
:101F300010B50C1E0CD00A490220FFF76BFC0948B3
:101F4000FFF7C0FC2000FFF7EDFC0748FFF7BAFCE5
:101F50000648FFF7B7FC0122054B1A7010BDC046BA
:101F6000D1700510F07005106D720510FD70051030
:101F70003E030020F8B515001E000E480F00FFF7C5
:101F8000A1FC0D48FFF79EFC2800FFF7CBFC3400B6
:101F9000A31B9D4205DC0948FFF794FC084B1F80FA
:101FA000F8BD0848FFF78EFC2078FFF7BBFC013432
:101FB000EEE7C04685700510C47005106D720510FF
:101FC00040030020FA6F051010B50248FFF77AFCB5
:101FD00010BDC0462271051000230F4A10B51370C2
:101FE0000E4A0F4913700F4A0F4813700F4A1160C1
:101FF000FF21890004338B4208D100230C490D488E
:102000001A1DA42A04D1FFF793FD10BDD050F1E7AB
:10201000C8501300F4E7C046AA080020A00400201E
:10202000C4080020A608002000040020A40400200A
:102030005C03002088040020044B8000C058044B3F
:102040001B68984200D103487047C046A404002092
:1020500000040020FFFF0000F8B52248FEF77DFADB
:10206000214B18702148FEF778FA214B187021484F
:10207000FEF773FA204E3070282804D9FF221F4B38
:102080001A702823337001271D4C2000FEF765FAD3
:102090001C4D8000435901341F601B4B7F009C4244
:1020A000F3D10E24194BE018FEF757FA80002B5895
:1020B0001C6001341E2CF5D1002533789D4200DBD5
:1020C000F8BD134BEC1864002000FEF746FA070039
:1020D000601CFEF742FA0F4BBF00FB580135187029
:1020E000EBE7C04680EF0710AA08002081EF071039
:1020F000A004002082EF0710A6080020880400201A
:1021000090EF0710A40400209EEF071092EF071035
:10211000D8F703085C03002010B51020FEF758FC28
:10212000002400280AD104000C4A0D491378CC542D
:102130000133137011E0FEF737FCC4B21020FEF734
:1021400039FC0028F7D00D2CEED10022034B0448B7
:1021500019781A704254FFF775FB10BDDC08002097
:10216000DD08002010B504002020FEF723FC012824
:10217000FAD0A0B2FEF710FC10BD10B50400207814
:10218000002800D110BDFFF7EDFF0134F7E7000094
:1021900010B5064C2378002B03D0FFF7FBFC00237F
:1021A000237000F043F800F021F810BD89230020CF
:1021B00010B5FEF793FFFFF7DBFBFFF7FBFBFEF726
:1021C00073F9FFF7F7FAFFF707FFFFF745FFFFF790
:1021D0009BFAFFF709FB002802D10230FEF704FD4D
:1021E00000F04CFAFFF7D4FFFAE7000070B50C4C92
:1021F0000C4D23785B015B5D002B0FD00A482378E0
:10220000FFF760FB002223785B015A5523780133E6
:10221000DBB223702378092B00D9227070BDC04631
:10222000E81D0020EC1D0020CF7405107047000051
:1022300070B504000D0016000448FFF743FB044B83
:10224000A40031002800E358984770BDE0740510E1
:102250004409002010B505F09BF910BD10B5FEF73C
:102260001BF910BD10B5FFF757FF10BD70B5002466
:10227000E6B23000FFF7E0FE094B050098420BD0B4
:10228000FEF752FA012807D12800FEF747FA00228C
:1022900030001100FFF7CCFF0134092CE8D170BDEC
:1022A000FFFF000084B007B504900C480793059128
:1022B0000692FFF707FB06220949684600F027F857
:1022C00004AA117A1922074B6A441B886846FFF753
:1022D000F5FC03B008BC04B01847C046F174051003
:1022E000616E0510A204002010B500F019F810BDB1
:1022F00030B50024A24201D1002005E0035D651C39
:102300000C5DA34201D0181B30BD2C00F2E7002366
:1023100010B59A4200D110BDCC5CC4540133F8E72B
:1023200010B5884202D98B18984208D300239A42EC
:1023300007D0CC5CC4540133F9E78B5C8354013A79
:10234000FBD210BD03008218934200D17047197070
:102350000133F9E7031C0A7801311A700133002AAE
:10236000F9D17047F0B5054600200F46079E059C41
:10237000174309D0202905D30127BF03BA4201D84A
:10238000914201D94220F0BD194621430AD09C4216
:10239000F8D309498C4203D00849A41F8C42F1D2DA
:1023A000062BEFD3002D03D0022D01D0032DE9D150
:1023B000032EE7D8F0BD0000FFFF00007B0C0000FB
:1023C000FFB58DB0144618AAECCA04976F466CC7C7
:1023D0000A46014605A8179B04F078FA00280AD19E
:1023E00008A84471012C08D0002C06D0022C04D07F
:1023F000032C02D0422011B0F0BD09A80622023001
:102400001099FEF79EF808A916980873C0B2032821
:10241000F0D805A800F06EFBEDE77CB5069D079CA3
:10242000002805D0860705D1460703D4060701D446
:1024300042207CBD002903D0012901D00229F7D117
:102440000095019400F0ACFB7CBD0000FFB58DB0A1
:10245000179F169D1446060004D0012E02D042207C
:1024600011B0F0BD0E98002801D00128F7D1E81F67
:102470000A28F4D2102FF2D8AF42F0D318980028CF
:1024800001D00128EBD1144919988842E7D81A984D
:10249000002801D00128E2D1FEF778FC012804D001
:1024A0001098204306D01120DAE7022CD7D81098D4
:1024B0000128D4D8684686700E99C17004731099AB
:1024C0004173057147711899C17119980290684656
:1024D0001A990FF0CBFDC3E73F420F00FFB587B05D
:1024E000109D159E169C01930295009407A807C89D
:1024F0001F463346FFF736FF00280ED11398149974
:1025000003AA069443C21198129901900095029172
:1025100007A807C83B4600F0D3FC0BB0F0BD10B5D0
:1025200000F0EAFC040002D101200BF071FA204611
:1025300010BD10B50BF0FCFA10BD70B51C4613466B
:102540000D46012C03D0022C03D0422070BD022284
:1025500000E010221946FDF7F4FF2C70002070BD3A
:10256000F0B587B01C460B46054600A9023101A80C
:102570000C9F0D9EFFF7E1FF00280ED168460580F5
:1025800084828775C6750E9901760F9941761099E8
:1025900081766946119802F053F807B0F0BD70B526
:1025A00086B014461D460A4603466946881C0A9EA4
:1025B000FFF7C3FF002804D1012C04D0022C02D065
:1025C000422006B070BD23462A466946304602F0D6
:1025D0007DFAF6E710B50022114602F027FB10BD88
:1025E00070B586B00D46144606466946881C0A9AA0
:1025F000FFF7A3FF002805D16B4622462946304647
:1026000000F06CFF06B070BD10B502F039FE10BDD1
:1026100038B56D46049C2A806B8023466A4603F0D9
:10262000D3F838BDF0B585B084460AA8F0C868462E
:102630008581C68103A8019002970094604603F04B
:10264000F7F805B0F0BD10B501F071FA10BDFEB598
:102650006C46099E089D2080618022716371E5802F
:102660006846029602F05AFBFEBD10B503F010FE5C
:1026700010BD10B503F02EFE10BD000010B504F023
:1026800059FA1E4C4721206849014118097A00294E
:1026900009D1A0300079C00729D003F0D7FF03F09B
:1026A0002DFF10F04DFE00F003F920680146403187
:1026B0000A78C9798A4319D13E21095C002915D1CC
:1026C0000F490A88120711D50922D2061269497AE0
:1026D000836AC900591809231B02C018406D801A6B
:1026E00000020012814201DA0CF000FE10BD00F081
:1026F000C7FB02F05FFC0DF08BFDD0E774230020D8
:10270000C000002010B5837F01220024920241689E
:10271000082B03D94224914202D310E0914201D206
:1027200042240CE0014634220648FDF70AFF00F07F
:102730007FF8002801DA482401E000F029F920465A
:1027400010BD0000DC0200203EB5174D1548296879
:10275000827F0846A0310A730024603004764476F4
:102760008476E122C27680220277022242773020EC
:1027700008704C7002AA01A96846FDF7D1FE6846B0
:102780000078A22201016846007A891C00020143F8
:10279000684600790003014328681152A030047193
:1027A0003EBD0000DC0200207423002070B504F060
:1027B000A5F90CF087F80AF04BFD11F0D9FB04F0F5
:1027C00073FB184C18492068184D401881100120DF
:1027D0002A68C0021018816661688908C166A1680C
:1027E000890801670FF0D0FB1D2029688001228B2A
:1027F00008180287628B4287A28B4286628C82868F
:102800002046203002783B204001081882750021C4
:10281000017000F0C3FA03F07FFE03F007FE10F032
:1028200015FE70BDDC0200200000FCEF74230020C8
:1028300070B50025ED43FEF793FA01282ED0002352
:1028400018490322888BFF24401E10438A7F4D3491
:1028500062438218088B282460431218488B302466
:10286000604312180846203040782C24604310182A
:102870000D4A181884184869A0420DD10B488442AB
:102880000AD90D69FEF76CFAC1B2284609F03EF983
:1028900009F06CFA401B251A284670BDFF23B5339A
:1028A000CEE70000DC02002035190000540A0000C9
:1028B000F8B52C4F3C68206E5C34401C002814D0C6
:1028C000002529480023C07B00283ED00926F606B3
:1028D0002648002D1CD000210A460B464169521C97
:1028E000994204D1002902D004E00125E9E7204BF8
:1028F0009A42F2D32160006960603069A1680002E9
:10290000090E000A09060143A16000F033F81DE03A
:102910003169A2680902090A150E08D0018BC9079E
:1029200012D04169216000696060E37210E0881A8A
:1029300000027D2300121B03984205DD100E0006E5
:102940000843A06000F016F8F8BD6360002DFBD0CE
:1029500003CC0CF0F5FBFA200CF0E2FB396888623E
:10296000F8BD000074230020FC0200200000104885
:102970008813000004490020086104480121006810
:102980006030C171704700000000104874230020BF
:10299000F8B50626374840250560374800270780E8
:1029A000A9050920C0064160344A916001680160B0
:1029B00033490C694A690321601E08430021401C09
:1029C000FDF7C3FDFEF7CCF9C1B2204609F09EF831
:1029D00009F0CCF909F0D6F9FEF79AF92949172040
:1029E0008881294CFA2220680146403047708A626B
:1029F00028210170FEF74DF9012805D12068102229
:102A00004030017811430170FEF7C0F9012805D16B
:102A10002068802240300178114301702068A42191
:102A2000095CC90704D0014640310A782A4303E013
:102A3000014640310A7832430A700021C9430166D9
:102A4000FDF77AFEFFF780FEFFF7B0FE2068012158
:102A50002030017707214177012003F019FC06F0AF
:102A6000D7FDFFF725FF034880380560022101608C
:102A7000F8BD000080E100E0C000002040000048F8
:102A8000DC020020000010487423002038B5184AEA
:102A900014682246BA32AE34A378DD0701D001298A
:102AA0000AD05B070CD501290AD0217949070BD53B
:102AB000E17A002905D007E0E07880210843E07042
:102AC00038BD0121E172508020794106090FF7D00D
:102AD0007821084069460870002048706A46022143
:102AE000422000F095FB207987210840207138BDF5
:102AF00074230020F8B5054600276846077015487E
:102B000046260468AE3420798006800F03D0002169
:102B1000084608F037F8A078400718D520794C21EE
:102B2000084214D10023287E6A4619460AF012FE94
:102B300000280DD16846007828762F74284607F0C3
:102B4000E9FE060003D12079402108432071304678
:102B5000F8BD00007423002038B510480021046837
:102B60000846AE3408F00EF8694648702079C1076F
:102B700004D001216A46117088432071C0B28107D8
:102B800005D502216A461170FD21084020710221FD
:102B90006A46084600F03CFB38BD00007423002064
:102BA000FFB50C4678A103C995B0019100900021B2
:102BB00008A801730321C90268464186012108A8BB
:102BC000734E017435681746AE3513F035FA002898
:102BD00008D17049306840180AF0B6FFA87800287C
:102BE00002D0462019B0F0BD0BA81599FEF788F861
:102BF0000028F7D1072010A90871012C05D0022C5C
:102C00000AD0002C0ED04220ECE708A8017B10204F
:102C1000014308A8017305E011A90BA8FEF731F8DC
:102C20000028DFD110A8027901230CA9284601F061
:102C30004DFF00287ED1022229461898FDF781FC1D
:102C4000298868468181152149020182078401266D
:102C500086734E2108A881700024C4700671072174
:102C60004171867103A902A801F0EAFC002861D134
:102C7000022202A91E98FDF764FC082F02D26846C2
:102C8000478502E008206946488569460C850B4661
:102C900028880AAA098902F097FD00286DD13E49CB
:102CA000684601820227078408A8847103A902A844
:102CB00001F0C6FC002860D1022202A91F98FDF78E
:102CC00040FC68460470694644704F850B4628886E
:102CD0000AAA098902F078FD00284ED108A8007BD5
:102CE000C00723D02C496846C91C018208210184F1
:102CF00008A88770047103A902A801F0A1FC0028AC
:102D00003BD1FF216846C1718171C17081704170F2
:102D10000170447104716946082048850B46288873
:102D20000AAA098902F050FD002826D108A8007BD4
:102D3000800600E021E022D5298868468181164975
:102D4000A53101820684867308A88770C470047157
:102D500007214171847103A902A801F071FC0028C8
:102D60000BD169460E700C854E850B4628880AAA41
:102D7000098902F029FD002801D0472032E708A880
:102D8000007BA87000202DE7626C75656E7267216C
:102D900074230020DE060000012A00000348002101
:102DA0000068AE30C170817070470000742300204D
:102DB00070B50D4B1C68AE342379DD0612D45B0769
:102DC00010D533280ED1E07A02280BD104201070E0
:102DD00000205070C9B2022000F01AFA2079FB21BD
:102DE0000840207170BD00007423002038B50246F1
:102DF000174801240068AE30022A1FD0052A03D0EC
:102E0000072A07D00B2A20D1084609794088FFF706
:102E10003DFE1AE000790024020600D50124820755
:102E200003D1C20601D480060FD5084600216A46A8
:102E30001170694600F0D8F8044606E08178490729
:102E400003D50179FB2211400171204638BD0000F5
:102E50007423002010B509480468AE34E078800778
:102E60000BD500200BF08AFB022000F0A9F9E078D6
:102E700001210843FD210840E07010BD74230020AB
:102E80001FB50E480468AE34E078010612D5A1786B
:102E9000C9070CD0800708D5042069460873684626
:102EA00003F024FF022000F08BF90020E0704006C0
:102EB000400EE070FDF728FF1FBD000074230020C6
:102EC000F0B58DB00C4616A9E0C900210891099112
:102ED0000A910B911599049105A9E0C112A962C943
:102EE0000093019113460146039602952246012064
:102EF00000F0ACF80DB0F0BD002000B58DB00A9028
:102F00000B9008900990059006900790049000900F
:102F100001900290034602460146039000F096F8A5
:102F20000DB000BD0949B22209681423525CBA31C0
:102F30001A4208D0498800050905090D000D814293
:102F400001D1012070470020704700007423002049
:102F500002780907090F0A43027000207047000039
:102F600030B50E4885B005682C46AE352879BA34A0
:102F7000400711D5E87A01280ED11521490268468B
:102F800041800121017060886B46054A00F0FCFA1F
:102F9000002801D10220E87205B030BD7423002062
:102FA000FFFF00007CB50446E1200D46800006F0DE
:102FB0004DF90BA103C900900191684603F05AFC3A
:102FC00001200CF08FF9002801D047207CBD20782B
:102FD0002021084320700920287000207CBD0000BB
:102FE0001F0200000000000030B5174B047A1B6878
:102FF000C268AE331B799D06AD0F04D1007804285A
:1030000001D000200BE0012030BD401CC0B2155C97
:10301000012D08D01518203DED7F2818C0B2A04220
:10302000F3D3087830BD401CDD070124C0B2002D69
:1030300002D0105CC00703E09B07F2D5105C80074C
:103040000028EED00C70ECE774230020FFB595B09B
:103050000E46054620210CA8FDF791FD00200490A6
:10306000564800270468681EAE34042802D8A078A9
:10307000C0070BD0062D02D0002D0AD002E0A078A8
:10308000800703D5E0784006800E0AD0462019B0AC
:10309000F0BDA0788007F9D0E0784006800EF5D02A
:1030A0000FE0002D0DD0012D20D0022D28D0062DAF
:1030B00033D0032D33D0042D37D0002E3BD0422007
:1030C000E5E700200BF05AFA0028E0D1E07880070D
:1030D00008D5042069460873684603F007FE0220FD
:1030E00000F06EF80120E0700020D0E7012EE6D05D
:1030F000042EE4D01F980028E1D10627042008E020
:10310000012EDCD0042EDAD01F980028D7D1052755
:103110000220E0700120049010E040200DE0022E1B
:1031200001D0032ECBD1082007E0012E01D0042EC0
:10313000C5D1102001E004272020E07000230BAA55
:1031400019461E980AF006FB030002D000F0E4F8CE
:1031500032E01022002107A8FDF7F7F907A86C4616
:10316000279B269A1F990FC42B463046189A179909
:1031700000F088F80300E9D108A8017BC170259808
:1031800003AC049B289A29990FC422AB07CB029267
:103190000091019039460CA8209B219A00F0C6F8B6
:1031A0000300D3D107A80BF01BFD0300CED10120F3
:1031B0000BF0E4F90300C9D1184668E77423002036
:1031C00010B50446C1061148006803D51522BF2179
:1031D0000C4006E01B2189014118497EC90710D027
:1031E00012222107890E08181121C9014018806F89
:1031F0000023214610F074F9010004D0204610F09D
:103200005BF9002010BD072010BD000074230020D2
:10321000F8B5891ECDB20646A81C03210843401C00
:103220008308174817460068F10603D51C22BF2102
:103230000E4008E01B2189014118497E090601D48E
:103240000020F8BD19223107890E08181121C90183
:103250004018806F314610F043F904000ED03978E1
:10326000217179786171A5712A46B91CE01DFDF7BD
:1032700068F92146304610F01FF9E1E70720F8BD54
:1032800074230020F8B5224B224D1B68069C5B1965
:10329000009301239B03002814D0042812D0022895
:1032A00014D0032812D006239C461E461D460F4606
:1032B000174310D0914203D8A94201D39A420ED9A4
:1032C0004220F8BD3025AC46602602E0A025AC4681
:1032D000F0262025EBE761462180668001E0218011
:1032E000628020710798A0710898207209980028C0
:1032F00005D00146204606220930FDF722F90720B5
:10330000607100982030807B60710020F8BD000063
:103310007423002004090000034881220068A030C3
:10332000417C11404174704774230020F8B5054674
:103330003D481E460068079F0024AE301346002912
:1033400005D002222A7001226A70A9700324002E7F
:1033500010D080788006800F0CD13019401C1F28B7
:1033600052D82E55641C281932461946FDF7E9F843
:10337000A019C4B2002F0DD03819401C1F2843D803
:103380002F55641CE4B228193A460699FDF7D9F87E
:10339000E019C4B26846008C00281BD06846808CB7
:1033A000002817D0601D1F282ED805202855641C22
:1033B000E0B212212954401CC4B228190646022248
:1033C00008A9FDF7BEF8B01C022209A9FDF7B9F85B
:1033D000241DE4B20C98002810D0E01C1F2813D83C
:1033E00002202855641CE0B20A212954401CC0B2B6
:1033F0002918401CC4B208460BF058FE0B98002850
:103400000CD000191F2801D94220F8BD28190B9AA9
:103410000A99FDF796F80B982018C4B22146284661
:103420000BF03AFBF8BD00007423002000B500F05B
:1034300009F8002805D0852201699201114200D0C7
:10344000002000BD10B50D4900050B68052149029B
:1034500059184A690021000DA0331B7B0AE04C017A
:10346000145B2405240D844202D14801801810BD4C
:10347000491CC9B28B42F2D8002010BD7423002031
:10348000FEB58C68CD88267B012E01D00020FEBDC4
:103490004126052D01D01E7019E0247C0A2C00D095
:1034A0001E70002A0DD08968052268460C31FDF790
:1034B00048F86D1E00AAA9B232200132FFF778FC4D
:1034C00005E000880A460146022000F01DFD41206B
:1034D000FEBD10B5102100F09DF810BDFFB589B0FC
:1034E000074646261D781022991C05A8FDF73FFBCC
:1034F000012D04D0022D02D042200DB0F0BD38467F
:10350000FFF794FF040037D020223946002009F04D
:103510007DFE07002FD019486946088001200490DD
:10352000394620460B9B0A9A0AF09FF8060004D001
:103530000021384609F0C6FE1EE00B98A081A06865
:10354000012D0FD0102205A9FCF7FBFF25710121E9
:1035500020694903084320610948A061384600F00A
:103560008FFF09E010220749FCF7EBFFA068022259
:1035700005A90C30E8E764263046BEE703280000C2
:10358000D3340410DC760510FFB589B00746462514
:103590001E781022991C05A8FDF7E9FA012E04D027
:1035A000022E02D042200DB0F0BD3846FFF73EFF9C
:1035B000040024D020223946002009F027FE07000D
:1035C0001CD005AD04960FCD6D460FC5394620467B
:1035D0000B9B0A9A0AF049F8050004D000213846EE
:1035E00009F070FE0BE001212069490308432061C6
:1035F0000448A061384600F043FF00E064252846F7
:10360000D1E700000936041010B5502100F096F9FA
:1036100010BD0000F0B593B00E4604460020694688
:1036200008760190E0690790002827D0C788002F0E
:103630007DD0B006800F03D02088FFF773FC019087
:1036400006AB2046019A0799FFF71AFF412861D07F
:10365000B81E80B2009007988068457B002D56D038
:10366000F006F107039000290FD0022F0DD3294651
:103670000098FCF7E7FD002903D006E0412013B0D5
:10368000F0BD062D17D0142D15D0B00708D5052F85
:1036900006D30321B8078907C84201D1022048E0B8
:1036A00070070ED5022F0CD329460098FCF7CAFDEF
:1036B000002902D005E001203BE0082D0DD0062DA9
:1036C0000BD00398800F0ED0022F0CD32946009800
:1036D000FCF7B8FD002902D005E0042029E0072D01
:1036E00008D0152D06D0B00611D5012D04D0022D1D
:1036F00004D00CE008201CE0042500E01225022F75
:1037000005D929460098FCF79DFD002910D04120DD
:1037100069460876012120694903884320610198A0
:1037200000287DD006AA01213120FFF741FBF6E0F9
:103730001020810706D57D49B8034018070CB80052
:10374000C01C0EE0C0060098294604D5401CFCF7BA
:1037500079FD87B202E0FCF775FD0746781E6843E5
:10376000801D81B205AB0222079809F00FFDF0061B
:103770004ED56946A089898A884202D920694106C6
:103780005BD4002041E0072D0AD068430B3082B2A1
:103790001023A168079809F08FFD002815D031E0AB
:1037A0001022634908A8FCF7CCFE02980BABC100BD
:1037B000081A0B3081B20222079809F0E7FC1022A8
:1037C00008A8A168FCF7C5FEE7E7019800280ED01D
:1037D00002980CAB6843801D81B22A46079809F015
:1037E000D5FC0CAA29463320FFF7E2FA0AE0079835
:1037F000009002982B466843801CC2B221880220A8
:1038000000F040FB0298401C80B20290B842BAD34C
:103810003820484F064207D06946A089898A00E0CF
:1038200077E0884204D86EE06846808AB8426AD061
:103830002069410606D5F10604D401218902084316
:1038400020616CE021882022002009F0DFFC0500C7
:1038500011D00521F2070120C902002A0DD06A46C5
:1038600011800490908A3B46401C82B22946204633
:1038700009F0C0FE37E0452001E7B20713D52079F3
:1038800001280ED01020A268029001920091684693
:10389000808A3B46401C82B22946204609F01BFE26
:1038A00021E00220EFE7710701D5234A04E00399E4
:1038B000890F0DD0204A521C69460A800490888ADC
:1038C000A389401C82B22946204609F0CEFE0AE0B8
:1038D000B0060AD56846808AA389401C82B2294670
:1038E000204609F03BFE642808D0284600F0C8FDB9
:1038F00022883046079900F078FB10E00021284626
:1039000009F0E0FCB7E722883046079900F06DFB2C
:1039100000E76846027E2188022000F031FB012189
:10392000E06909F0CFFC0020E061A8E600C0FFFFDD
:10393000DC760510FFFF000002280000F0B58BB018
:103940000D4604460020694608710490E669002E81
:1039500016D0A806800F03D02088FFF7E3FA049062
:1039600001AB31462046049AFFF78AFD412865D015
:10397000E80708D021883246022000F049FA5DE0CD
:1039800041200BB0F0BD680705D5218832460220E2
:1039900000F004FA52E0A80739D5F0886188814226
:1039A00005D921883246022000F042F946E020691C
:1039B000410604D5012189020843206180E0218865
:1039C0002022002009F022FC05001ED0218832466A
:1039D000022000F02DF9A068801C00F001FB618836
:1039E000401E401886B2A06800F0FAFA024633463C
:1039F0002946204609F0DAFD284600F041FDA0687E
:103A00003146801C00F0E8FA54E04520B9E7E806AA
:103A100014D5F088412702280ED9B168801E4D7B4D
:103A200080B2854201D9012016E0002D04D029463C
:103A3000FCF708FC00290FD06846077101202169B6
:103A4000400381432161049800282DD001AA01215F
:103A50003120FFF7ADF92DE00290022000270390FE
:103A60001EE0049800280DD0039805AB001D81B21C
:103A70002A46304609F08AFB05AA29463320FFF77B
:103A800097F907E003980096C2B22B4621880220DE
:103A900000F0F8F90398401980B27F1CBFB2039080
:103AA00002988742DDD3C9E768460279218802205F
:103AB00000F066FA0121E06909F004FC0020E061F1
:103AC00000205EE7FFB581B01F4606464625FFF79A
:103AD000ADFC040020D020223146002009F096FBE6
:103AE000060018D0014600972046039B029A09F071
:103AF000F7FD050004D00021304609F0E3FB0BE0A0
:103B0000012120694903084320610548A06130462E
:103B100000F0B6FC00E06425284605B0F0BD0000CA
:103B2000253B041010B56021FFF708FF10BD10B54C
:103B30001C4613462246FFF7C5FF10BDF7B50646E3
:103B400090790321401EC5B2E81C0843401C83083D
:103B5000174817460068F10603D52922BF210E40F9
:103B600008E01B2189014118C97EC90601D4002043
:103B7000FEBD26223107890E08181121C9014018FF
:103B8000806F31460FF0ACFC04000FD00198A0808C
:103B9000A808A07123462A4605213846083309F0B3
:103BA000F5FA214630460FF087FCE0E70720FEBD1E
:103BB00074230020F7B5064690790321801EC5B214
:103BC000E81C0843401C8308184817460068F106A3
:103BD00003D52822BF210E4008E01B21890141188E
:103BE000C97E090701D40020FEBD25223107890EB8
:103BF00008181121C9014018806F31460FF070FC80
:103C0000040011D00198A080B8682346407BA071C1
:103C1000E5712A4606213846083309F0B7FA2146ED
:103C200030460FF049FCDEE70720FEBD742300207C
:103C3000F7B5064690790321401EC5B2E81C08433B
:103C4000401C8308164817460068F10603D52C224D
:103C5000BF210E4008E01B2189014118C97E0906D9
:103C600001D40020FEBD29223107890E0818112138
:103C7000C9014018806F31460FF032FC04000DD0AE
:103C80000198A080A5712A4605213846E31D09F058
:103C90007DFA214630460FF00FFCE2E70720FEBD1B
:103CA00074230020F7B5064690790321801EC5B223
:103CB000E81C0843401C8308184817460068F106B2
:103CC00003D52E22BF210E4008E01B218901411897
:103CD000097F890701D40020FEBD2B223107890E00
:103CE00008181121C9014018806F31460FF0F8FB08
:103CF000040011D00198A080B8682346407BA071D1
:103D0000E5712A4606213846083309F03FFA214674
:103D100030460FF0D1FBDEE70720FEBD7423002004
:103D2000F7B5064690790321801EC5B2281D0843C9
:103D3000401C8308184817460068F10603D52A225C
:103D4000BF210E4008E01B2189014118C97E890668
:103D500001D40020FEBD27223107890E0818112149
:103D6000C9014018806F31460FF0BAFB040011D032
:103D70000198A080B8682346407BA071E5712A466F
:103D800006213846083309F001FA214630460FF083
:103D900093FBDEE70720FEBD74230020F7B506463F
:103DA00090790321401EC5B2E81C0843401C8308DB
:103DB000164817460068F10603D52D22BF210E4094
:103DC00006E01B2189014118097FC90719D02A2261
:103DD0003107890E08181121C9014018806F31463A
:103DE0000FF07EFB04000ED00198A080A5712A463A
:103DF00005213846E31D09F0C9F9214630460FF088
:103E00005BFB0020FEBD0720FEBD000074230020E8
:103E1000F7B5064690790321401EC5B2E81C084359
:103E2000401C8308164817460068F10603D52B226C
:103E3000BF210E4008E01B2189014118C97E4906B7
:103E400001D40020FEBD28223107890E0818112157
:103E5000C9014018806F31460FF042FB04000DD0BD
:103E60000198A080A5712A4605213846E31D09F076
:103E70008DF9214630460FF01FFBE2E70720FEBD1B
:103E800074230020FFB59B1E0646DDB2681D03218A
:103E90000843401C83081B4881B000681746F106A0
:103EA00003D53622BF210E4009E01B2189014118AC
:103EB000497F890702D4002005B0F0BD33223107C5
:103EC000890E08181121C9014018806F31460FF082
:103ED00007FB040014D00298A0800A98234680684B
:103EE0002A460830C0190079E0802572B91D0933CF
:103EF0000A9809F04BF9214630460FF0DDFADAE76F
:103F00000720D9E774230020F8B5044690680F46CF
:103F100001461546467B0E3102226846FCF711FB2E
:103F2000A8680223057C1548E10603D53522BF2188
:103F30000C4009E01B22016892018918097F0906DB
:103F400001D40020F8BD322221070068890E08182C
:103F50001121C9014018806F21460FF0C1FA0100FC
:103F600009D08F808E716A4612880A818D72204630
:103F70000FF0A2FAE5E70720F8BD00007423002047
:103F800070B50E4601230446C10612481546006866
:103F900003D53422BF210C4006E01B2189014118C2
:103FA000497FC90711D031222107890E0818112134
:103FB000C9014018806F21460FF092FA010006D027
:103FC0008E808D7120460FF077FA002070BD07209B
:103FD00070BD0000742300200170090A4170704711
:103FE00001784078000208437047134610B5020775
:103FF000920F05D00A4619460220FFF791FE10BD28
:10400000820605D50A4619460220FFF7D3FD10BDEA
:10401000820705D50A4619460220FFF78FFD10BD1D
:10402000C007FCD00A4619460220FFF73BFE10BD30
:10403000F8B5069C1F4615460646002C13D0A0680E
:1040400002220D30FCF77DFAE81E82B23B460721C2
:10405000204609F08BF9E580A068012E05D01D21CE
:1040600001730020F8BD4720F8BD1B21F8E70000D0
:10407000F1B5FFB08BB00124600205900027CC4859
:1040800007970168E320C000081803908A98C74D7D
:104090000005000D0AAA05A90BF099FD069000285D
:1040A00072D104260AA805994218203AD27F0B2A19
:1040B00023D00026002004900AA88119022201A81A
:1040C0000291FCF73EFA6846818809AB08AA03987A
:1040D00001F074FD012817D002287DD06846808841
:1040E000854200D30546844200D920460446029802
:1040F0008078012871D013363BE1491E761E3604C4
:104100000591360CCFD1D5E708980090002F79D1D2
:104110000099022228310298FCF71BFA00281ED1D0
:1041200000982030017B02988078814217D10128C5
:1041300008D10098029902220830C91CFCF709FA3C
:10414000002815D002988078022808D1009802999A
:1041500010220830C91CFCF7FCF9002808D0009890
:10416000008DA84200D80546A04200D22046044651
:1041700002990AA88978012907D013360599B6B2A1
:104180008E4204D3012707E005E1761DF6E7811989
:10419000022201A8FCF7D5F90399009808318E4650
:1041A0002EE084466946026A8B8820300DE0918BB0
:1041B000994203D3012F7DD199427BD9A94200D8DE
:1041C0000D46A14200D30C4612688242EFD10498FA
:1041D000002817D1604601E015E0BFE00068704597
:1041E0000ED0018D994203D3012F09D1994207D9ED
:1041F0008D4200D30D468C4200D80C46012F59D178
:104200007045CED1BAE008980090002F72D1009985
:1042100002221C310298FCF79CF900281ED100985C
:104220002030C17802988078814217D1012808D1C6
:104230000098029902220830C91CFCF78AF900286C
:104240001AD002988078022808D10098029910228A
:104250000830C91CFCF77DF900280DD00098808B30
:10426000A84200D80546A04200D220460446029843
:104270008078012826D003E002988078012805D0B4
:1042800013360798B6B201281ED021E0009849499C
:104290000089884216D18A98FFF7D4F80146009821
:1042A00000F08AF80099098C484300998969401800
:1042B000022200E038E00299491DFCF742F9012092
:1042C0000790D4E7761DDCE7B61C0020B6B2079055
:1042D0000598864201D3012705E00AA88119022228
:1042E00001A8FCF72EF9039A009908320998096889
:1042F000944630E01AE086466A46938820300DE006
:104300008A8B9A4203D3012F0ED19A420CD9AA422A
:1043100000D81546A24200D3144609688142EFD165
:10432000049800282AD102E00120049026E070467B
:10433000006860450FD0028D016A9A4203D3012FB5
:1043400009D19A4207D9954200D31546944200D824
:104350001446012FE8D16045CDD10FE00298C07816
:10436000022805D102980079292801D1B61CB6B2DD
:10437000761D0598B6B2864200D301270598811BA9
:10438000042902D3864200D294E604980028FBD187
:10439000A54203D906987FB00CB0F0BD224629464D
:1043A0008A9801F04FFC0690F5E70000FFFF00003F
:1043B000742300200229000030B5024623239B5CB1
:1043C0000020012B1AD112890D4B9A4216D10D4AA9
:1043D000052312685B02D318A0325B69127B0AE0E6
:1043E00045010C885D5B24052D05240D2D0DAC4287
:1043F00004D0401CC0B28242F2D8002030BD000080
:104400000229000074230020830810B50A48002107
:104410000268052040021018A0324069127B07E0B4
:104420004C01045B002C01D0994204D0491CC9B254
:104430008A42F5D8002010BD7423002010B5044630
:10444000022000F033F80D480021026805204002E8
:104450001018A0324369107B05E04A019A5A002ADD
:1044600004D0491CC9B28842F7D810BD48011C527B
:10447000C018026904210A43026110BD74230020A0
:1044800010B504460146042002F030FE002809D091
:104490000548E3210068C900401821463C300FF070
:1044A00081FE432010BD00007423002004490A68E7
:1044B0003B21490151180A7802430A7070470000F5
:1044C0007423002000B51138C0B2FFF79DFF00280B
:1044D00004D00122016952051143016100BD0000B1
:1044E000F3B597B00D8848880590081D1DC80DAE1E
:1044F0001DC68C8ACE8A087E1390C869203101902F
:10450000087800904878049088780390C8780290E2
:104510000F7900F09BFE002817D101204002844251
:104520005FD8B4425DD8002F01D1B44259D114A94B
:10453000284601F071FB002806D115AA14990598A8
:1045400001F05AFB002802D0602019B0F0BD149D84
:1045500011A92846183009F04BFB10A880880028C4
:1045600010D0284612A9203009F042FB10A88388F9
:1045700000892A8D1818696A10188A8B904203D115
:104580006120E2E74820E0E715982C4B02899A4227
:1045900027D12322125C012A23D1006800681690DB
:1045A000139801281FD16846808E29221202801A92
:1045B000030001F026FE0604180404070A18022C62
:1045C0000FD110E0072C0CD10DE0042C09D3E0072B
:1045D00007D1012F07D1A64203D3042E01D3F00740
:1045E00001D04220B1E702980B90039B049A0A93F2
:1045F00009920098019A0C970890069605940792E4
:104600000DA81DC8019002A81CC013980B4600906D
:104610002A461699179800F0AFF9002895D16846F8
:104620000649808EFF31884205D017980188002006
:104630000A4601F007FB002087E70000032800007E
:10464000F3B5A5B008881A9088780C46119010220E
:10465000091D13A8FCF78BFAA08A1090A17D68466B
:104660000172E07D0F90207E2090677EA07E1F90DB
:10467000002006460146129020A801810F20BB4C65
:104680002390E3212068C9004018199000F0DEFD56
:1046900000280BD101211098490288425FD821A936
:1046A0001A9801F0B9FA002802D0602027B0F0BDB6
:1046B0002198179009F040FA1A9988420CD102A863
:1046C00001901698009013AD0ECD119809F0F8F9ED
:1046D000002801D06320E9E76846017A8806800F48
:1046E00005D0012012902068A030007B4600C8074A
:1046F00003D01298401CB61C1290080603D51298DD
:10470000401CB61C129017980DA918301D9009F086
:104710006FFA6846129C808EA41CA04237D317986B
:104720000EA92030019009F063FA6846018F002934
:104730000DD01798179A6B46406A9B8E128D5918A8
:10474000808B5118081AA04201D26120AEE7179859
:10475000846911982568012803D0022803D04220DB
:10476000A4E7052000E01320E0832A4639460F988D
:1047700009F0F4F9422899D0199FE28B4037788BE1
:10478000398B411A109810188019814201DA48209B
:104790008CE70EA9019809F02BFA6846008F0028D3
:1047A000179802D0406A808B00E0008D2599401C4C
:1047B0000880259801210088A0832598022200887E
:1047C000401CA8836A482081204620301790C17081
:1047D0000021817081711998398B406D40186946AC
:1047E000A061097A0170A06929461C31401CFBF7C1
:1047F000A8FE11980128A0697ED0102213A9C01C20
:10480000FBF79FFE2846102213A90830FBF799FEFC
:10481000388B133038832E4620361198F07010985C
:10482000E8831F98B07010982084109828841998F5
:10483000398B406D4018A8610021109AFBF785FE66
:10484000398B109808183883179901200871179927
:104850000020487130716846007A810701D5012136
:10486000317101070227002902DA317939433171A8
:10487000410703D53179042211433171400603D534
:1048800030790821084330710F9870712098B07109
:1048900021461D9809F0D5F92146019809F0B2F991
:1048A00029461D9809F0CDF92946019809F0AAF981
:1048B0001298002841D068461A998181A18BC18144
:1048C00007844784012408A8047122A80A9008A834
:1048D0008473239941730F993820014008A801730C
:1048E0000721C173002505746846007AC00708D007
:1048F00020486946088200E02AE003A924A8FFF7BF
:10490000EFFD6846007A8006800F07D01948694697
:10491000401E088203A924A8FFF7E2FD6846007A3A
:1049200000060AD5292109026846018208A84473B5
:10493000057303A924A8FFF7D3FD259801881298D1
:10494000401C081882B2002001F07CF90020ADE67E
:10495000022213A9C01CFBF7F4FD2846022213A96A
:104960000830FBF7EEFD388B401D53E77423002021
:104970000328000003290000FFB55248E322006825
:1049800087B0D2008218069210AA109B0126169FAB
:104990009288012B04D14C4B9A4201D1A030067B66
:1049A000069D34464035688B2B8B7C43C31A09988F
:1049B00020300390A34222DA48200BB0F0BD232020
:1049C000405C012819D108896C46208098420CD09F
:1049D0003D4C641EA04208D0641CA04205D0641C5B
:1049E000A04202D0A41CA04207D1374CFF3CA042F9
:1049F00001D0904201D16220DFE7096801E029235C
:104A00001B0203988142DAD109981B99846918988E
:104A1000224609F0A3F84228CFD01C98012804D1DF
:104A20001598874201D24220C7E71598E0832046B7
:104A300020301C990590817027840A98808B401C37
:104A4000A0831098012814D02046102211A9083004
:104A5000FBF777FD05991098C8700698298B406D73
:104A60004018A061298B3846704308182883002518
:104A70000FE011A80FC808340FC4183CEAE7284615
:104A8000A16978430818159A1799FBF75AFD6D1C10
:104A9000EDB2B542F3D30599189848710599199864
:104AA000087105991A98887109982146183009F0FB
:104AB000C8F82146039809F0A5F80798A18B018052
:104AC00000207AE77423002002290000FFB58FB090
:104AD00014460E78102205A8891CFCF748F85048A7
:104AE000E3210068C900451800F0B0FB00281ED182
:104AF000002C57D0012E09D16846808A4949884246
:104B000004D12846A968083081424BD1284610308C
:104B100029690390814209D00AA9284609F068F85A
:104B20006846018D601E0D90814202D2482013B06C
:104B3000F0BD284608300CA9049009F059F86846E1
:104B4000008E002814D0EF680AA93846183009F002
:104B50004FF8384620300CA909F04AF86846398DDC
:104B6000008D09186846008E401C081887B200E0C6
:104B7000012701200004C01BA04201D26120D6E71A
:104B80002C69286801901298012802D0022803D0CD
:104B900008E00520C00200E023486085012E03D014
:104BA000022E05D04220C2E720460830022202E051
:104BB00020460830102205A9FBF7C3FC20463146E9
:104BC0002030064601730F982146078027850398F9
:104BD00009F037F82146049809F014F827461837E9
:104BE000E7616662A76126620D9884B20BE02846F1
:104BF000019909F026F83846019909F003F8286868
:104C0000641EA4B20190002CF1D10F9801880D9878
:104C1000081882B2002001F015F8002087E7000094
:104C2000742300200118000001280000F7B5064693
:104C300039480F460068E321C900441882B0304665
:104C4000FEF700FC050064D02046243000900FF0F1
:104C5000BFFA00285DD1286900035AD500980FF0EB
:104C600071FA044653E0A088B0424FD12022314669
:104C7000002008F0CBFA06001CD0A068002F017BB2
:104C8000427B19D0334604980FF05CFE00200121CE
:104C90002A69C9048A432A6100282ED0692806D0CF
:104CA0003046FFF7EDFB2969102001432961002000
:104CB00005B0F0BD6420FBE70A2906D00C290AD014
:104CC0000E290ED0082912D023E03246214628466C
:104CD00010F0EEFEDBE732462146284610F024FBBA
:104CE000D5E732462146284610F018FECFE7324677
:104CF0002146284610F0AAFCC9E7214600980FF08B
:104D00006EFA0121204608F0DDFAC9E72468002C7C
:104D1000A9D14120CCE7000074230020F0B56C49F4
:104D200089B00A68E321C9005718068841886A4695
:104D300011800179079141790491C18801918068BE
:104D400003903046FEF77EFB04003ED03846243008
:104D500006900FF03DFA002830D1206980032DD550
:104D600006980FF0EFF9054626E0A8880005000D2B
:104D7000B04220D1A8680223007B02900320059056
:104D800005226946284608F097FA002813D10298B0
:104D9000162801D105200590E9880598091A01987F
:104DA000814208D1059A03462846121D039908F04E
:104DB00083FA00280AD02D68002DD6D13846183045
:104DC00007460FF005FA002840D065E02022314662
:104DD000002008F01BFA060011D0012120694904C7
:104DE00088432061012707993F0600290AD06846B9
:104DF00002883346029904980FF0A4FD1DE0642058
:104E000009B0F0BD38432061029832461228294685
:104E1000204602D010F0CCF901E010F074FF002819
:104E20000BD0692807D020691021B84308432061BE
:104E30003046FFF725FB0020E2E7294606980FF0F1
:104E4000CEF90121284608F03DFAECE7206940033D
:104E500022D538460FF076F905461BE0A8880005F4
:104E6000000DB04215D1A868007B522801D0D2288D
:104E70000FD1022305226946284608F01DFA0028B2
:104E800007D107222846019B039908F015FA00284C
:104E900004D02D68002DE1D14120B1E7079800280A
:104EA00008D101202169800601432161294620465D
:104EB00010F093FE0121206989048843206129466E
:104EC00038460FF08CF90121284608F0FBF9B2E7CB
:104ED0007423002002460948E3210068C9004118F4
:104EE0008868083103E0038D934202D2006888424B
:104EF000F9D1884200D100207047000074230020BF
:104F0000034610B50F48E3210068C90041188868BE
:104F1000083103E0148D9C4203D8104602688A428F
:104F2000F8D18A420CD1018D994209D20146026A18
:104F300020318A4203D0416A898B994200D20020F5
:104F400010BD000074230020024610B50B48120566
:104F5000016805204002081843690020120DA031A5
:104F6000097B07E044011C5B2405240D944203D017
:104F7000401CC0B28142F5D810BD0000742300204F
:104F8000F7B50546174601980FF0DCF82E050446E4
:104F9000360D0CE0A0882568B04207D12146019863
:104FA0000FF01DF93946204608F08CF92C46002CEC
:104FB000F0D1FEBDF0B58BB0002064490290E32033
:104FC0000A68C000141872B610464030C579022332
:104FD0001D43C57162B625464035287AC0077DD08D
:104FE000052040021018002647694AE071017A5AEC
:104FF000002A44D0C919069109694A021FD48A02BD
:1050000027D5022104910699012309880905090D74
:1050100003911B2189014118C97E89070FD51121F0
:10502000C901083040182322806F02210EF058FA7F
:10503000010004D0039A8A8004980EF03DFA069885
:1050400000880090069800F083F800980CF08DFF1F
:1050500015E0480713D5069800880005000D0CF0F0
:1050600060FF002805D1069800880005000DFEF7B6
:10507000FFFF069904200969814306980161761CA7
:10508000F6B23248AC210068095CB142AED800F0FB
:1050900001FF2046243006460FF09AF8012802D07E
:1050A000012000F0F9FD204618300FF091F801289A
:1050B00002D0002000F0F0FD3C3420460FF088F8CC
:1050C00001280FD002A920460FF0ABF80420029966
:1050D00002F00CF80028F0D0204600E034E00299FD
:1050E0000FF04DF8287A00062ED530460FF070F8F4
:1050F000012829D1002008F065F8A98B233149093E
:10510000491CC9B2FBF79EF800281DD00F4D04467C
:1051100028681121C901083040184226012338228D
:10512000806F31460EF0DCF901000DD000228A803C
:10513000CC8030460EF0C0F93B212A684901511855
:105140000A78802082430A700BB0F0BD74230020DF
:10515000F0B504463C48E3210068C9004518218A9F
:1051600085B089041AD5022104911B2189014118B7
:10517000497F412627880123C9070FD01121C90182
:10518000083040183122806F02210EF0A9F9010089
:1051900004D08F808E7104980EF08EF929462088F5
:1051A00001221831FFF7ECFE294620880122303118
:1051B000FFF7E6FE2946208801222431FFF7E0FEB2
:1051C0002946208800223C31FFF7DAFE20880005BE
:1051D000000DFFF7B9FE85002946113168460173BD
:1051E00001F084FD294612316846017301F07EFD0D
:1051F000294613316846017301F078FD684614357D
:10520000057301F073FD208800F028FA208801055D
:105210000D48090D0268052040021018028F9142C6
:1052200001D100210187E069002802D0012108F0A6
:1052300049F8202200212046A568FBF786F91720AF
:10524000A560608005B0F0BD7423002010B50B4848
:10525000E3210068C90044184034207AC00709D00F
:10526000002007F0AFFF217A890701D5002803D07D
:10527000002010BD472010BD642010BD7423002005
:10528000F0B55FA099B000685E491590E322086808
:10529000D2008418052252028218526925464035F0
:1052A00014922A7AD20702D0622019B0F0BDAA8BDC
:1052B00001235B029A4201D9AB8303E0172A01D292
:1052C0001722AA83149AA0301392067B0DE0761E53
:1052D000F6B2139871010F18B8680F903846202263
:1052E0000021FBF732F90F98B860002EEFD120466D
:1052F0000830E0606460A060246008301390606152
:105300002061FF22002108300EF031FF2046FF22ED
:10531000002124300EF02BFF2046AA7F00213030E0
:105320000EF025FF2046FF2200213C300EF01FFF2B
:1053300000222A7210461721324B05E0149E4701C5
:10534000BE19401C7180C0B21E68A036367B8642F2
:10535000F4D8002028832F8C688C0026149008E055
:105360002820E16C70430918204608F04BFC761C9D
:10537000B6B2BE42F4D3002608E03020216D70435F
:105380000918139808F03EFC761CB6B214988642B1
:10539000F3D30120FFF78AF80124684604701A4904
:1053A00041802346042269460CA8FFF78FFB0028A2
:1053B00022D16846018E8182144901830426068524
:1053C0008475202108A881720024C4720473072107
:1053D0004173847305A90DA8FFF732F900280BD19A
:1053E000684604874687818E15AB0EAA008E00F0B2
:1053F000EBF9002800D158E700202872472054E735
:105400000000FFFF7423002001180000052A00009F
:10541000F8B504467D480E460068E321C9004718E8
:105420004820C05DC0077BD0B088FEF70BF805466A
:10543000012C02D0002C75D0E6E0002D0CD028699C
:1054400041074AD4B268F188147B0029F4D062067F
:105450000CD56888884201D20121B2E0D22C01D05B
:10546000522CF9D13846314618303FE0A106890E5A
:105470001E293ED81E2C21D101071FD508218843A3
:1054800028612988012008F0A5FB0121304607F09A
:1054900019FF5E4811210068C901083040184224F4
:1054A0002D8801233922806F21460EF019F8010062
:1054B00003D08D8020460DF0FFFFA5E0E1070AD064
:1054C0001D2C10D01B2C0ED0410529D4012189029E
:1054D0000843EE6192E0C00601D54520F8BD298859
:1054E000002008F065FB3846314624300EF05AFEA5
:1054F0008AE029882022002007F088FE05000FD0CE
:105500000121304607F0DEFE2B4600222146062010
:105510000FF018FA2846FEF7B3FF75E000E001E04F
:105520004120F8BDB068047B1D2C3AD01B2C41D023
:105530000021304607F0C6FE032C46D0052C44D08F
:10554000072C42D0092C40D00B2C3ED00D2C3CD047
:105550000F2C3AD0112C38D0132C36D0172C34D035
:10556000192C32D0012C30D0022C35D0042C33D061
:10557000062C31D0082C2FD00A2C2DD00C2C2BD05F
:105580000E2C29D0102C27D0122C25D0162C23D04D
:10559000182C21D0522C1FD0D22C1DD01E2C2FD035
:1055A00032E0002D03D02988012008F001FB3146AC
:1055B000022001E03146012000F05EFD002823D0EA
:1055C0000021304607F07EFE1EE02969102081434D
:1055D00029612988002015E0286940218843286135
:1055E000010511D5FF2101310843286129880220D6
:1055F00008F0DEFA01212869C9028843286103E026
:105600002988032008F0E6FA0020F8BD7423002062
:1056100010B5114AE3231268DB00D2184032127A27
:10562000D20706D002280AD0052804D00B2810D1B2
:1056300001E0412010BD4888FEF700FF09E04888DE
:10564000FDF700FF002804D00122016992051143F3
:105650000161002010BD000074230020F1B5FFB0EF
:1056600085B0472001900020694608805348E32117
:105670000068C90047188498FDF7E4FE02900028EE
:1056800074D0B96808374FE0684600880D4604AC0E
:1056900020186B460222283100F0A4FD68460088DD
:1056A000294620186B4601222C3100F09BFD2E4626
:1056B0002036307B69460128098804A809D04018A3
:1056C0006B4610222946083100F08CFD01902C6AAF
:1056D00027E040186B460222F4E76946098804A8CF
:1056E000401821466B4602221C3100F07BFD6946C2
:1056F000098804A8401821466B460122233100F096
:1057000071FD2320005D69460128098804A830D076
:10571000401821466B461022083100F063FD0190CD
:105720002468B442D9D12968B942ADD10198002882
:105730001CD16846008881070AD0214A011D11400A
:105740006A4611800A1A04A908180B21FAF7FDFE0F
:10575000029800880CF0E5FB002807D18498694680
:105760000005000D04AA09880AF062F97FB006B0AE
:10577000F0BD401821466B460222083100F032FD90
:10578000019020890F498842CAD120460299FEF72C
:1057900013FE4000A16903906A460918128804A804
:1057A00080186B46022200F01DFD0190A16903984C
:1057B000022208180021FAF7C8FEB1E7742300207E
:1057C000FCFF000002290000F0B5074617480E460E
:1057D00000683B2149014018007885B01D461446F9
:1057E000C00706D003A9384600F016FA00280AD1EF
:1057F00002E0472005B0F0BD04AA3046039900F04E
:10580000FBF9002801D06020F4E704992288608821
:105810000968002A00D0088C32466E4631C6032340
:105820003946002000F004F8E4E70000742300206B
:10583000FFB5002099B0239A0B9012900546149062
:10584000064615901C46DB480B460068E321C9005C
:10585000411803910021229F0891099151880691D6
:1058600011880A913B21490140180078C00706D0F1
:105870000FA9184600F0D0F900280AD102E047200D
:105880001DB0F0BD10AA0F991B9800F0B5F90028C3
:1058900001D06020F4E71998002803D0600701D5F3
:1058A000012000E000201390A007800F1C901098AA
:1058B00017902030C078012840D11798BE4B01893D
:1058C0009942F9D11798069904680A98228C4118D0
:1058D000914233D82046203016908078012816D087
:1058E000E08B04901798806900788006800F7DD047
:1058F000039840301890007A800777D51C980028CC
:10590000F5D0AD4F0F99FF372031206814E0BA422F
:1059100014D3B942DDD80497E4E70389A64A934239
:1059200003D12322125C012A08D0BB4203D12322D7
:10593000125C012A03D000688842EED134E1059060
:105940000028FBD09B48052102684902511849698B
:105950000027009162E0780100990390085A010540
:105960005AD01999002901D0884255D105997A0059
:105970008B69511C595C9A5C0902891889B20D9196
:10598000890749D0022205990FF05AF8002804D05F
:105990001998002840D0652072E7002008A9C85552
:1059A0001C98C00718D0179880690078C00613D5D6
:1059B0000D98C00710D00120C8550543009A0398E0
:1059C00080184088159A904206D91590009A03983D
:1059D000105A0005000D14901C9880071CD51798CC
:1059E00080690078800617D50D9800E084E0800774
:1059F00012D50220CA5D05430243CA550099039897
:105A0000401840881599884206D915900099039846
:105A1000085A0005000D14907F1CFFB2654800680D
:105A2000A030037BBB4296D8002D65D01898007A31
:105A300000065FD45F4801680520400208184169EC
:105A400000201BE042018E5A360515D0AE070BD55B
:105A500056183669B7070DD408AF3F5CBF0703D5AA
:105A6000360701D546200BE7EE0705D05218127C09
:105A7000D20701D0432003E7401CC0B28342E1D8E3
:105A80001598C01E86B20498864200D90646A8071B
:105A90000FD520220020149907F0B8FB129000289F
:105AA0007DD0F01C82B20021129800F0EDF80028A1
:105AB00011D1E80720D020220020149907F0A6FB7E
:105AC0000B90002807D0F01C82B200210B9800F048
:105AD000DBF8002810D08020FEF7E8FC12980028A0
