:020000041004E6
:10000000006000205D0E0410050E0410070E0410A1
:10001000AA5555AA45554C420000000000000000BA
:10002000000000000000000000000000090E0410A5
:1000300000000000000000000B0E04108B200410D4
:100040009D2004100D0E04100000000000000000B0
:10005000932004100F0E0410832004101B0E0410B4
:100060000000000000000000000000000000000090
:10007000000000001D0E04101F0E0410210E0410BD
:1000800000000000110E0410130E0410150E0410D1
:10009000170E0410190E0410010E0410030E0410A4
:1000A0000000000000000000000000000000000050
:1000B0000000000000000000000000000000000040
:1000C000F0B543464C4655465E466746F8B40E4C7E
:1000D0006B4623600D4C20680D4C20600D4C206851
:1000E0000D4C20600D4C20680D4C2060BFF34F8FED
:1000F00030BF054C2468A546F8BC9846A146AA46E0
:10010000B346BC46F0BDC0460800002004ED00E048
:100110005003002024ED00E04403002000E200E052
:100120005403002002780B78002A03D001300131FB
:100130009A42F7D0D01A7047002243088B4274D3FA
:1001400003098B425FD3030A8B4244D3030B8B42D8
:1001500028D3030C8B420DD3FF22090212BA030CE1
:100160008B4202D31212090265D0030B8B4219D3C2
:1001700000E0090AC30B8B4201D3CB03C01A5241E2
:10018000830B8B4201D38B03C01A5241430B8B422A
:1001900001D34B03C01A5241030B8B4201D30B0313
:1001A000C01A5241C30A8B4201D3CB02C01A52413A
:1001B000830A8B4201D38B02C01A5241430A8B42FD
:1001C00001D34B02C01A5241030A8B4201D30B02E6
:1001D000C01A5241CDD2C3098B4201D3CB01C01A00
:1001E000524183098B4201D38B01C01A524143090A
:1001F0008B4201D34B01C01A524103098B4201D3F8
:100200000B01C01A5241C3088B4201D3CB00C01A64
:10021000524183088B4201D38B00C01A52414308DC
:100220008B4201D34B00C01A5241411A00D2014601
:10023000524110467047FFE701B5002000F0F0F88A
:1002400002BDC0460029F7D076E7704703460B434E
:100250007FD4002243088B4274D303098B425FD3BF
:10026000030A8B4244D3030B8B4228D3030C8B42EB
:100270000DD3FF22090212BA030C8B4202D31212D1
:10028000090265D0030B8B4219D300E0090AC30BA6
:100290008B4201D3CB03C01A5241830B8B4201D353
:1002A0008B03C01A5241430B8B4201D34B03C01A3C
:1002B0005241030B8B4201D30B03C01A5241C30AB4
:1002C0008B4201D3CB02C01A5241830A8B4201D325
:1002D0008B02C01A5241430A8B4201D34B02C01A0F
:1002E0005241030A8B4201D30B02C01A5241CDD2B4
:1002F000C3098B4201D3CB01C01A524183098B42FF
:1003000001D38B01C01A524143098B4201D34B01E7
:10031000C01A524103098B4201D30B01C01A52414A
:10032000C3088B4201D3CB00C01A524183088B42D1
:1003300001D38B00C01A524143088B4201D34B00BA
:10034000C01A5241411A00D201465241104670472C
:100350005DE0CA0F00D04942031000D34042534031
:1003600000229C4603098B422DD3030A8B4212D3F1
:10037000FC22890112BA030A8B420CD38901921123
:100380008B4208D3890192118B4204D389013AD060
:10039000921100E08909C3098B4201D3CB01C01A35
:1003A000524183098B4201D38B01C01A5241430948
:1003B0008B4201D34B01C01A524103098B4201D336
:1003C0000B01C01A5241C3088B4201D3CB00C01AA3
:1003D000524183088B4201D38B00C01A5241D9D2BB
:1003E00043088B4201D34B00C01A5241411A00D23C
:1003F0000146634652415B10104601D34042002B38
:1004000000D54942704763465B1000D3404201B5B6
:10041000002000F005F802BD0029F8D016E770476B
:100420007047C046437802781B021A438378C0782D
:100430001B041343000618437047C046030A4B7061
:10044000030C8B70030E0870CB70704703005A7852
:100450000078120202439878197900040243D87890
:10046000000610435A7912020A43997909040A4393
:10047000D979090611437047030A5370030C93702E
:10048000030ED3700B0A53710B0C93710B0E10708B
:100490001171D3717047C046024A1368013313606B
:1004A0007047C04610030020C021074A074B084888
:1004B0005360036A09061B021B0A0B4303620023F5
:1004C000936007331360704710E000E0FE7C00008B
:1004D00000ED00E00E4AD3691B061B0F4370D9B232
:1004E000D3690C4A1B071B0F83700B4B1B684360BF
:1004F00093420BD102230370002901D101234370E1
:10050000064B9B8A01339B00836070470123F2E70F
:100510000000904041A000022800904000001040E0
:10052000F0B5070085B001AC0E0020001500FFF704
:10053000D1FF23783B7063783370A3782B7005B0BC
:10054000F0BD10B501F0B7FE10BD10B501F0CEFE44
:1005500010BD10B501F0A0FE10BD0078C0B270470C
:10056000024A138ADB07FCD57047C04600001040E2
:10057000084B10B51A68084B9A4209D13F22074B25
:1005800040061A81000C2E3A98611A80FFF7E8FFA6
:1005900010BDC04614000020CCBCECFC0000104094
:1005A000084B10B51A68084B9A4209D13F22074BF5
:1005B00080081A810C3A986119641A80FFF7D0FFFD
:1005C00010BDC04614000020CCBCECFC0000104064
:1005D0000379F7B50168002B30D18022D20553682A
:1005E0008B43536020258022002106686D42D2058E
:1005F00033000124CB4023420DD00379CCB20193C8
:10060000072924D80F238F00BB40D46A9C43019B49
:10061000BB401C43D462013104351A29E8D1802340
:100620004279DB05012A39D1DA683243DA6082790E
:10063000012A36D19A6816439E60F7BD062BD1D1A8
:10064000002380220371D20553680B43C9E72700BA
:10065000083F072F08D80F27019BAF40AB40146B12
:10066000BC4323431363D6E7103C072C0AD82F0062
:100670000F23203FBB40546B9C43019BBB401C435A
:100680005463C8E72F000F23403FBB40148F9C43A7
:10069000019BBB401C43A4B21487BCE7DA68B24399
:1006A000C4E79A68B2439A60C7E78023DB05012953
:1006B00001D1D86370471864FCE780234268DB05EA
:1006C0000168012A0FD11A690A431A6180238168DF
:1006D000DB050268012909D19969114399615969BA
:1006E0009143596170471A698A43EEE7002907D19F
:1006F000D24399691140996159690A405A61F1E7F9
:1007000059690A43FAE78023DB05DA69002902D038
:100710001043D86170478243DA61FBE78022D2053B
:10072000936A1843906270478023DB055B6A184028
:10073000431E9841C0B27047C02380221B0619781F
:1007400052420A437F211A701A780A401A70704781
:10075000C02301211B061A780A431A701A788A43AB
:100760001A707047C0231B0618688007C00F7047B7
:10077000024B1868431E9841C0B27047000400C085
:1007800030B50300012811D0022811D00120032B1D
:100790000BD1084A08000B0020301D685C1A043396
:1007A000A5508342F9D10020106230BD024AF1E722
:1007B000024AEFE7B40400C06C0400C0900400C01B
:1007C000030001280FD002280FD00120032B09D1EC
:1007D000074B1A00C91A20321878C85401339342C3
:1007E000FAD100207047034BF3E7034BF1E7C04613
:1007F000B40400C06C0400C0900400C0044B1A6A2A
:10080000012902D110431862704782431A62FBE744
:1008100000009040054B0122196B002802D00A43CA
:100820001A63704791431963FBE7C04600003040EC
:10083000F8B54A4C0500236B01681B0700D56DE035
:1008400009014748FFF778FCC3099AB2A284454AD8
:10085000DB0101301340C01A400880B23F2802D9A2
:100860003F233F381840032760263F4BC0B2187023
:100870003E4B2A7918783A405201B0431043187021
:1008800001206979227F39404901B2430A43227726
:10089000AA7919780240BA40073081431143197090
:1008A000217F81430A432277EA79002A38D1022145
:1008B0001A788A431A70227F8A43012022772A7A83
:1008C000216B1600C2402A4F064076023940314360
:1008D0002163216B274E0240314012020A432263FA
:1008E000697A226B0E00C140234F06403A40B6039E
:1008F00032432263226B214E01403240C90311432F
:100900002163AA7A197802400F3012018143114302
:100910001970237F83431A432277F8BDC90090E7FB
:10092000022A0CD1042019781143197019788143D7
:100930001970217F0A432277227F8243BDE702217B
:100940001A780A431A700422187810431870207F0E
:1009500001432177217F0A43AFE7C04600003040C2
:100960000000127A80FF7F00280030402C003040C9
:10097000FFFDFFFFFFFEFFFFFFBFFFFFFF7FFFFF4A
:10098000044B1A8F002902D0104318877047824306
:100990001A87FBE700003040024BC005C00D1880ED
:1009A0007047C04600003040014B1888C0B2704705
:1009B00000003040054B002805DA5B681840431EF4
:1009C0009841C0B270471B8BF8E7C046000030402A
:1009D000034B9B8F1840431E9841C0B27047C046DE
:1009E000000030400722024038200449D2000B7832
:1009F00083431800104308707047C04634003040ED
:100A0000F0B583780178002B33D040784AB280016A
:100A1000002A1BDA0F230B40083B1B4A9B089B0054
:100A20009B18FF22032517000D40ED00AF40024048
:100A3000AA40DE69BE433243DA611F224B091140EE
:100A40001E3A8A4011499B00CA50F0BDFF270F4B48
:100A500092089200D21803233C00C0250B40DB0013
:100A60009C4038409840AD005659A6433043505101
:100A7000E3E71F234A090B40012199401300034A71
:100A800020339B00D150E0E700ED00E000E100E002
:100A900010B5094C002801D0012805D000F07CF8E1
:100AA0000138C000205805E000F076F80138C00099
:100AB0002018406810BDC0460C6E051070B50121AD
:100AC00086B006000920FFF799FE00F065F81C4B80
:100AD00001388000C3580024019300F05DF8194BE1
:100AE0000138800001ADC35828002B71AC716C71C6
:100AF000FFF76EFD00F050F8134B01388000C3582B
:100B0000019300F049F8114B01388000C3582800C8
:100B10002B71FFF75DFD0125032303A803714371CA
:100B200003728471C471447285720396FFF780FE6C
:100B30002000FFF757FF2800FFF76CFE06B070BDDE
:100B4000086E0510046E0510006E0510FC6D051092
:100B5000042313B5040001A80370013B43708470A3
:100B6000FFF74EFF21001020FFF70AFF13BD10B55D
:100B700001F0A1FB10BD10B501F09DFB10BD10B53B
:100B80000A00002101F0B2FB10BD00000122014B60
:100B90001A70704714030020014B1878C0B27047D8
:100BA0001403002010B50F4C01280AD0002801D0F2
:100BB00002280ED0FFF7F0FF431E0C2058432058A8
:100BC00006E0FFF7E9FF431E0C2058432018406859
:100BD00010BDFFF7E1FF431E0C205843201880682A
:100BE000F6E7C046146E051010B5FFF7DBFF0121D4
:100BF000FFF75BFD10BD10B5FFF7D4FF0021FFF735
:100C000054FD10BD13B5012104000800FFF7F6FDE7
:100C10002000FFF7C7FF6A4606230090137168465D
:100C2000053B93715371FFF7D3FC2000FFF7E3FFFF
:100C300013BD10B509F08CF910BD10B508F0A2FD78
:100C400010BD10B509F058F810BD7FB50BAE368851
:100C500008AC09AD2D88248803960A9E019502965A
:100C6000009409F065FA7FBD7FB508AC20CC0AAED0
:100C70002478367801940296009509F09BF904B027
:100C800070BD10B502F062F910BD10B50AF090FE0B
:100C900010BD01207047F0B58DB012AC24780993D7
:100CA0000A9413AC248818AB1B880B9415AD14ACB4
:100CB00016AE17AF24882D8836883F8806930B9B85
:100CC000059701930A9B0496009303950294099B50
:100CD00001F04AFB0DB0F0BD10B501F011FF10BDE1
:100CE00010B502F08BF810BD10B50DF087F810BDEF
:100CF00010B50AF05DFD10BD10B50AF065F810BD25
:100D000010B502F0F9F810BD10B502F0FDF810BDF5
:100D100010B506F0B5FD10BD10B50FF06FFF10BD9A
:100D200010B50FF053FD10BD10B510F061F810BDF7
:100D300010B50FF073FD10BD10B509F037FB10BDF5
:100D400010B506F073FB10BD10B509F04DFD10BDD8
:100D500010B509F07BFB10BD10B509F08FFC10BD7C
:100D60000120704710B505F0F5FB10BD10B512F06D
:100D70004DF810BD10B512F01BF810BD10B511F0F4
:100D8000FDFF10BD10B512F007FA10BD012070472D
:100D900010B512F05BFA10BD10B512F041FA10BD9B
:100DA00010B510F009FD10BD10B510F025FD10BDF7
:100DB00010B510F0B3FD10BD10B510F079FC10BDEA
:100DC00010B510F095FC10BD10B510F0BBFC10BDB7
:100DD00010B510F027FD10BD10B510F045FD10BD89
:100DE00010B50FF051FD10BD10B50FF020FD10BD76
:100DF00010B510F027F810BD10B50FF03BFF10BD77
:100E0000704770477047704770477047704770472A
:100E1000704770477047704770477047704770471A
:100E200070470000002210B5084B1A60084B1B7A6F
:100E3000934209D1074B1B89052B05D9064B01327B
:100E40001A70FFF756F9FEE7012010BD14000020CC
:100E500000009040000010480C00002070B5FFF723
:100E6000E1FF012817D1002314481549154C1A1821
:100E70008A4216D3002314481449154C1A188A4282
:100E800013D30021134B144A934212D30021134B66
:100E9000134A93420FD3134B83F3088801F0D4F81D
:100EA00070BDE55804331560E1E7E558043315607B
:100EB000E4E702C3E8E702C3EBE7C04610200020E6
:100EC00074200020D877051008000020340000208E
:100ED000AC770510C0000020CC020020CC0200201E
:100EE0001020002000600020002210B5104B995CFB
:100EF000C9B2002917D11C2A14DC022021249854DD
:100F0000501C1C54901C193C1C54901D19549B18C7
:100F1000802290219BB252021343C905CB60CB685B
:100F20001342FCD110BD995C01315218D2B2DEE7F8
:100F3000150300200023F0B5144AD45CE4B2002C61
:100F40001ED1192B0FDC02253B275E1CD55497556B
:100F50005E199055DE1C955535261D1D56555D1D97
:100F600006335155D45402223B24094B1A705C704D
:100F70009870DA7033321A71002259719A71F0BD8B
:100F8000D45C01341B19DBB2D7E7C046150300203F
:100F90004803002070B58AB003AC05000E0019228A
:100FA0004449200001F087F96846FFF793FA002DC5
:100FB00062D04423404AA373117A433B0B4313721C
:100FC0004C23E3722C3B237292336374573B23759B
:100FD0003A4B3B4A1B68190C914208D17020E17DC5
:100FE0001B018143E175E17D03400B43E375354B04
:100FF0001B68190C914208D1302061791B01814393
:101000006171617903400B4363712F4B1B68190CAD
:10101000914207D10321E27D0B408A43E275E27DD4
:101020001343E3750422E37A69469343E3726B4604
:101030005B78897893400B43112B08DDE37D1A43DD
:10104000E275E07AE17DC0B2C9B2FFF773FF802399
:1010500090222404240C5B021C43D205D460D16886
:101060001942FCD16B466A465B7892781B011343A8
:10107000112B01DDFFF738FF144B1A8B002AFCD02F
:1010800001221A8316329A8100221A61964207D0F1
:1010900090231021DB0518691A6942400A42FBD0EF
:1010A000002D02D015220A4B1A700A4A0A4B1A6008
:1010B0000AB070BDCC6D051000002040E80700109C
:1010C00055AA0000E4070010B00700100000104807
:1010D0000000C040CCBCECFC140000200822C02161
:1010E000F8B53F4B3F4D9A803F4A0904136AFF20F1
:1010F0002B400B43C0211362136A09061B021B0A13
:101100000B431362C02292009446384B64469A58AF
:10111000374E82433F38024360461A501A58C02067
:101120003240000202431A51C122FF2792009C580C
:10113000BC433F3F3C439C509C583F3734400443A2
:101140009C509C582C409C509C582402240A0C43D0
:101150009C500832944664469A58324002431A51D1
:101160001A59C0242A402404224364461A511A59A9
:101170001202120A0A431A51C4229200944664468B
:101180009A58324002431A511A59C0242A40240462
:10119000224364461A511A591202120A0A431A517A
:1011A000C52292009C58BC432700C0242743C0247A
:1011B0009F509F5824043E40304398509858054013
:1011C0002C439C5098580002000A01439950012179
:1011D0000800FFF7DFFE074A074B1A6262B6F8BD48
:1011E00000001040FFFF00FF00ED00E000E100E024
:1011F000FF00FFFF66000E00000090402A23F0B5BC
:101200008BB006AC23709B336370D523A370A523EA
:10121000E37000236371B433A3719A23E371E12374
:101220002372112363723A23A372CF23E3728023C4
:1012300023736E23022563733623764E102221001A
:101240003000A3732571E573FFF77BF9724A734B86
:1012500031001B7828000092012201F074F9071E6A
:1012600006D002206E4900F02DFA47200BB0F0BDE9
:101270002B2323709A336370D523A370A523E370C7
:10128000B423A3719A23E371E123237211236372C0
:101290003A23A372CF23E372802323736E236373F5
:1012A0003623604E6071102221003000A373257137
:1012B000E573FFF746F9584B320018885A4B0497EC
:1012C0000593102302970393019700950F3B290084
:1012D00001F01AF9071EC4D12C23237099336370CF
:1012E000D523A370A523E370B423A3719A23E371DC
:1012F000E1232372112363723A23A372CF23E37293
:10130000802323736E2363733623607110222100C0
:101310003000A3732571E573FFF713F93E4B3200DC
:101320001888424B04970593102302970393019763
:1013300000950C3B290001F0E7F8071E00D090E76C
:101340002D23237098336370D523A370A523E370F6
:10135000B423A3719A23E371E123237211236372EF
:101360003A23A372CF23E372802323736E23637324
:1013700036236071102221003000A3732571E573BC
:10138000FFF7DFF8244B32001888294B04970593A8
:10139000102302970393019700950F3B290001F05A
:1013A000B3F8071E00D05CE72E23237097336370D9
:1013B000D523A370A523E370B423A3719A23E3710B
:1013C000E1232372112363723A23A372CF23E372C2
:1013D000802323736E2363733623607110222100F0
:1013E0003000A3732571E573FFF7ABF80A4B3200A9
:1013F0001888104B049705931023029703930197C5
:1014000000950F3B290001F07FF8002800D028E765
:101410002CE7C046C0080020860400206120002080
:10142000396E05108C040020A0080020A2080020BE
:101430008A040020D00800201A23F0B58BB006AC37
:101440002370AB336370D523A370A523E37000230F
:101450006371B433A3719A23E371E12323721123DF
:1014600063723A23A372CF23E372802323736E2324
:10147000022563733623464E102221003000A373E9
:101480002571E573FFF75DF8424A434B31005B7805
:1014900028000092012201F056F84049071E6CD145
:1014A0001B232370AA336370D523A370A523E37095
:1014B000B423A3719A23E371E1232372112363728E
:1014C0003A23A372CF23E372802323736E236373C3
:1014D0003623334E6071102221003000A373257132
:1014E000E573FFF72EF82B4B290018882D4B049736
:1014F0000593102303930F3B02931D330197009331
:1015000032000A3B01F000F82749071E35D11C23A1
:101510002370A9336370D523A370A523E370B4238C
:10152000A3719A23E371E1232372112363723A2397
:10153000A372CF23E372802323736E236373362356
:101540006071102221003000A3732571E573FEF74E
:10155000F8FF104B32001888144B049705931023A2
:1015600003930C3B02930E3300930197023329003F
:1015700000F0CAFF002808D00D49280000F0A2F8AA
:1015800002200C4900F09EF847200BB0F0BDC04689
:10159000C008002058030020612000207C6E051048
:1015A0008C040020A0040020206E0510D20800202A
:1015B000226E0510246E05107FB500221D4B1E4DB6
:1015C00003AC1988227028880123009400F0F4FFEE
:1015D0001A49061E28D11A49200000F08FFE194B27
:1015E0002888198832000094042300F0E5FF16498A
:1015F000021E19D1154B28881B782370144B1988AB
:101600000094012300F0D8FF1249021E0CD1124BA6
:1016100028881B782370114B19880094012300F04F
:10162000CBFF002804D00E49022000F04BF84720E1
:1016300004B070BDA0080020860400204F6E051085
:10164000796E0510A20800207E6E05109C04002013
:101650008A040020AD6E0510A5080020D0080020E7
:10166000DC6E05100023064A1360064A1370064A12
:101670001370064B064A5A60064A9A607047C04685
:10168000FC030020840400208804002004040020BF
:101690000E6F05101D6F0510074B01201B68002BF6
:1016A00008D1064B1B78002B04D1054B1878431E3C
:1016B0009841C0B27047C046FC030020840400205B
:1016C0008804002010B50C00074B8000C05800F0C3
:1016D00051F8064800F04EF8200000F04BF804489E
:1016E00000F048F810BDC04604040020796F0510D2
:1016F000ED71051030B5194991B00400FEF712FDE7
:10170000002809D1164800F088FC164800F085FC36
:10171000154800F082FC1CE014492000FEF702FD91
:10172000002818D164236A4607AC6370613B2372BA
:1017300040336372BC33A372EF3BE3720BAB23CB3A
:1017400023C203CB03C207980899099A0A9B00F0A9
:101750007BFD11B030BD0648D8E7C0462D6F05109F
:10176000356F0510796E0510ED7105104F6F05107E
:10177000566F051010B500F050FC10BDF0B50E000E
:1017800085B001AF04000B221149380000F093FD31
:101790003500002C03DA2D23751C337064422000C1
:1017A0000A210135FEF752FD0028F9D128702000EA
:1017B0000A21FEF731FE7B5C013D20002B700A21DF
:1017C000FEF744FD041EF2D1300005B0F0BDC04666
:1017D0007C6F05101FB501A9FFF7D0FF01A800F02D
:1017E0001CFC05B000BD000070B50600094800F003
:1017F00014FC0024305DFFF7EDFF651C052C05D0BF
:10180000054800F00AFC2C00062DF3D1034800F037
:1018100004FC70BD686F0510786F0510ED71051040
:1018200010B5FFF7B3F90020FFF7ECF90120FFF73F
:10183000E9F90220FFF7E6F90020FFF7DCF90120C3
:10184000FFF7D9F90220FFF7D6F9E1204002FFF7B0
:1018500035F90120FFF77CF90148FFF78BFF10BD38
:10186000876F0510012130B5080087B0FEF7C6FF6D
:101870000020FFF70DF9002401AB019018001C7146
:101880009C715C71FEF7A4FE6B466A4601251C70D4
:101890000323684653709570FFF7B2F82000FFF7F6
:1018A000F7F8039003A804940595FEF706FF2000BF
:1018B000FFF7EEF8FEF732FF2000FFF7E9F8290006
:1018C000FEF721FF07B030BD70B5324A88B006215F
:1018D000002000F0A2FE002803D02F490220FFF7CD
:1018E000F1FE0421012000F094FE00F061FE2B497E
:1018F000041E4AD11A251E236D446B4407AE019382
:10190000010000962B000722052000F05AFD041E5E
:1019100009D002202249FFF7D5FE2000FFF75AFF29
:10192000200008B070BD298807251E4B328803931C
:10193000029501900095030000F048FE1A49041E2C
:1019400023D11A4B01210393102304900290019399
:10195000020003000095080000F04CFD1449041E2D
:1019600013D11448FFF706FFFFF748FC041E0BD104
:101970001148FFF7FFFEFFF75FFD1049041E04D179
:101980000F48FFF7F7FECBE70E490220FFF79AFE5C
:10199000C6E7C04663200020C7720510EA72051032
:1019A00001730510692000201773051040E2010043
:1019B0003F7305106F73051093730510F1730510D5
:1019C000D1730510B473051010B51148FFF7D2FE9E
:1019D0001048FFF709FF104800F068FE002806D005
:1019E0000E490220FFF76EFE01220D4B1A70FFF721
:1019F0006BFF002807D00B490220FFF763FE01228E
:101A0000074B1A7010BD0848FFF7B4FEFAE7C0464E
:101A1000C870051063200020A46F0510E170051048
:101A200088040020097105101F710510092330B5C5
:101A300001248BB008AD134A2B70631ED35C2B5569
:101A40000134082CF9D10021080004F017FF002010
:101A5000F022C8210690059004900390029501940D
:101A600000900300D200C90000F00CFD002805D052
:101A700005490220FFF726FE0BB030BD0348FFF7F3
:101A800079FEF9E769200020077205102972051018
:101A900010B500F018FD041E05D005490220FFF71F
:101AA00011FE200010BD0348FFF764FEF9E7C046B1
:101AB0005172051077720510FA2210B5D20088B065
:101AC0002821069205923C220291019180210492E4
:101AD0000022C9010300039200920800FFF7DBF81F
:101AE000041E06D008490220FFF7ECFD200008B0D4
:101AF00010BD0648FFF73EFE054B1B68002BF5D1D5
:101B000000F090FDF8E7C0463E7105105F710510CA
:101B10003803002070B50C4D47242B68002B11D0E2
:101B20000A4B1321188880B200F0D7FC041E06D09F
:101B300007490220FFF7C6FD04E000F073FD2B68A3
:101B4000002BFAD1200070BD380300203C03002098
:101B5000A372051070B5050086B03E48FFF70AFE77
:101B60003D4E3368002B62D03C48FFF703FE3C4CEF
:101B70003368002B08D0002C02D1FFF7CBFF05E023
:101B800000F050FD013CF3E7002CF6D02800FFF7F1
:101B900093FF061E54D11022324902A800F08BFB9D
:101BA000314C102202A92000FEF7CBFC2F48FFF792
:101BB000E1FD2F4D02232E802E4E2F4A3088012129
:101BC00080B2009400F0E0FC2C4B1B78002B31D04D
:101BD000FA24A400013CA4B200F024FD002CF9D1A9
:101BE000274B1C550134182CFBD13088298880B232
:101BF000013189B2142200F008FD041E09D02149E8
:101C00000220FFF75FFD2000FFF7E4FD1E48FFF70D
:101C1000B1FD1E4B1A78002A0FD000221A70FFF770
:101C200079FF1B48FFF7A6FD002006B070BDFFF747
:101C30002FFFABE700F0F6FCC6E700F0F3FCE8E7A7
:101C4000FFF7F4FE13490220FFF73CFD2800FFF7E1
:101C5000CBFDE6E77471051038030020877105108D
:101C6000A0860100E56D051066090020A27105102F
:101C7000400300203C030020FFFF00003E03002043
:101C80004E090020AC710510ED7105103F030020D6
:101C9000EF710510D171051010B50248FFF76AFD0C
:101CA00010BDC046E46F051010B50248FFF762FD95
:101CB00010BDC046D86F05100122134B10B5029C11
:101CC0001A60124B12481980FFF754FD207800F07B
:101CD00099F9607800F096F9A07800F093F9E0782F
:101CE00000F090F9207900F08DF9607900F08AF920
:101CF0000D2000F087F90023064AE15CD15401333E
:101D0000062BFAD110BDC046380300203C0300204A
:101D1000BE700510B608002000230121054A10B549
:101D20001360054A05481170054A1380FFF722FD2C
:101D300010BDC0463803002070200020B070051090
:101D40003C03002010B504000348FFF713FD2000FA
:101D500000F014FC10BDC0468F700510F7B50400EC
:101D6000074816001F000D00FFF704FD0023019730
:101D7000009629001A00200000F039FCF7BDC0468B
:101D80009870051010B51C000348FFF7F3FCE0B293
:101D9000029900F03BFA10BDF36F051010B50C1E50
:101DA0000CD00A490220FFF78DFC0948FFF7E2FC3E
:101DB0002000FFF70FFD0748FFF7DCFC0648FFF7A0
:101DC000D9FC0122054B1A7010BDC0465170051098
:101DD00070700510ED7105107D7005103F03002037
:101DE000F8B515001E000F480F00FFF7C3FC0E48A2
:101DF000FFF7C0FC2800FFF7EDFC3400A31B9D4259
:101E000008DC0A48FFF7B6FC0122094B1F80094B8A
:101E10001A70F8BD0848FFF7ADFC2078FFF7DAFC30
:101E20000134EBE70570051044700510ED710510E5
:101E3000400300203E0300207A6F051010B50248D1
:101E4000FFF798FC10BDC046A270051000230F4A92
:101E500010B513700E4A0F4913700F4A0F481370D4
:101E60000F4A1160FF21890004338B4208D10023FF
:101E70000C490D481A1DA42A04D1FFF7A5FD10BD79
:101E8000D050F1E7C8501300F4E7C046A508002081
:101E90009C040020BC080020A4080020FC030020B3
:101EA000A40400205C03002084040020F8B522482C
:101EB000FEF753FB214B18702148FEF74EFB214BD8
:101EC00018702148FEF749FB204E3070282804D9AD
:101ED000FF221F4B1A702823337001271D4C20004E
:101EE000FEF73BFB1C4D8000435901341F601B4B28
:101EF0007F009C42F3D10E24194BE018FEF72DFB16
:101F000080002B581C6001341E2CF5D1002533783D
:101F10009D4200DBF8BD134BEC1864002000FEF777
:101F20001CFB0700601CFEF718FB0F4BBF00FB58A3
:101F300001351870EBE7C04680EF0710A5080020B8
:101F400081EF07109C04002082EF0710A4080020F6
:101F50008404002090EF0710A40400209EEF0710D7
:101F600092EF0710D8F703085C030020002230B579
:101F7000104B01781C788C4215D145785C78A542CD
:101F800011D185789C78A5420DD1C578DC78A54221
:101F900009D105791C79A54205D145795C79A5421D
:101FA00001D1D0B230BD01320633322AE2D1FF2056
:101FB000F8E7C0467609002010B51020FEF708FDAE
:101FC000002400280AD104000C4A0D491378CC548F
:101FD0000133137011E0FEF7E7FCC4B21020FEF7E6
:101FE000E9FC0028F7D00D2CEED10022034B044869
:101FF00019781A704254FFF77DFB10BDD4080020F9
:10200000D508002010B504002020FEF7D3FC0128DD
:10201000FAD0A0B2FEF7C0FC10BD10B504002078C5
:10202000002800D110BDFFF7EDFF0134F7E70000F5
:1020300010B5044C2378002B03D0FFF7F7FC0023E6
:10204000237010BD7020002010B5FFF747F8FFF790
:10205000E7FBFFF707FCFEF727FAFFF703FBFFF7A5
:10206000F5FEFFF723FFFFF7A7FAFFF715FB0028A0
:1020700002D10230FEF7B8FD00F0D4FAFFF7D8FF26
:10208000FAE710B505F068FA10BD10B5FEF704FACE
:1020900010BD10B5FFF790FF10BD000070B5144DD6
:1020A000144C2868A0420FD0C0B2FEF7F1FCFEF736
:1020B0003BFB012808D12868C0B2FEF7E9FCFEF717
:1020C0002DFB00F0E3F870BD0B4D2868A042FAD05C
:1020D000C0B2FEF7DDFCFEF727FB0128F3D128682C
:1020E000C0B2FEF7D5FCFEF719FB00F0D0F8EAE726
:1020F00004200020FFFF00000820002084B070B5FD
:1021000007931B23254D06922A78254E53439C5D49
:1021100004900591002C07D022490120FFF7D2FA44
:1021200070BC08BC04B018471F48FFF723FB1F48CA
:10213000FFF720FB04AB1878FFF74CFB1C48FFF7B8
:1021400019FB04AB5878FFF745FB1A48FFF712FB61
:102150001948FFF70FFB04AB9B789C4213DB174831
:10216000FFF708FB1B22287804A95043301800F021
:10217000A2F82B780133DBB22B702B78092BCFD947
:1021800000232B70CCE704AB1B19D878FFF722FB98
:102190000B48FFF7EFFA0134DDE7C046A20A002042
:1021A000A40A00200D740510227405103274051065
:1021B0003F7405104B7405105574051057740510C5
:1021C0007A6F0510F0B5040089B00E480D001600B6
:1021D000FFF7D0FA0C48FFF7C9FE002301A9AB4274
:1021E0000ADB012348700B708D701B22200000F069
:1021F00062F8200009B0F0BDF75CCA18D77001334F
:10220000EDE7C0465A740510B608002030B50D0041
:1022100004008DB00B48FFF7ADFA210005A82A0095
:10222000FFF7D0FF6A4609AB03CB03C219881180C0
:102230009B78937005980699079A089BFFF75EFFB5
:102240000DB030BD6E74051084B007B504900C4815
:10225000079305910692FFF78DFA06220949684611
:1022600000F029F804AA117A1922074B6A441B8846
:102270006846FFF76FFC03B008BC04B01847C046BF
:102280008A740510F56D0510A00400207047704792
:1022900010B500F019F810BD30B50024A24201D1EC
:1022A000002005E0035D651C0C5DA34201D0181BF6
:1022B00030BD2C00F2E7002310B59A4200D110BDCA
:1022C000CC5CC4540133F8E710B5884202D98B18AE
:1022D000984208D300239A4207D0CC5CC4540133FF
:1022E000F9E78B5C8354013AFBD210BD03008218DE
:1022F000934200D1704719700133F9E7031C0A7843
:1023000001311A700133002AF9D17047F0B5054642
:1023100000200F46079E059C174309D0202905D3AE
:102320000127BF03BA4201D8914201D94220F0BD32
:10233000194621430AD09C42F8D309498C4203D064
:102340000849A41F8C42F1D2062BEFD3002D03D0F5
:10235000022D01D0032DE9D1032EE7D8F0BD0000F6
:10236000FFFF00007B0C0000FFB58DB0144618AADB
:10237000ECCA04976F466CC70A46014605A8179B2E
:1023800004F088FA00280AD108A84471012C08D06A
:10239000002C06D0022C04D0032C02D0422011B015
:1023A000F0BD09A8062202301099FEF7CAF808A964
:1023B00016980873C0B20328F0D805A800F06EFB89
:1023C000EDE77CB5069D079C002805D0860705D162
:1023D000460703D4060701D442207CBD002903D060
:1023E000012901D00229F7D10095019400F0ACFB3E
:1023F0007CBD0000FFB58DB0179F169D14460600EA
:1024000004D0012E02D0422011B0F0BD0E98002859
:1024100001D00128F7D1E81F0A28F4D2102FF2D8F2
:10242000AF42F0D31898002801D00128EBD114490D
:1024300019988842E7D81A98002801D00128E2D1DB
:10244000FEF7A4FC012804D01098204306D01120E8
:10245000DAE7022CD7D810980128D4D868468670BD
:102460000E99C170047310994173057147711899E1
:10247000C1711998029068461A990FF0C1FDC3E71F
:102480003F420F00FFB587B0109D159E169C01932B
:102490000295009407A807C81F463346FFF736FF8A
:1024A00000280ED11398149903AA069443C21198D8
:1024B000129901900095029107A807C83B4600F0C9
:1024C000D3FC0BB0F0BD10B500F0EAFC040002D163
:1024D00001200BF067FA204610BD10B50BF0F2FAA0
:1024E00010BD70B51C4613460D46012C03D0022CBE
:1024F00003D0422070BD022200E010221946FEF7F0
:1025000020F82C70002070BDF0B587B01C460B463B
:10251000054600A9023101A80C9F0D9EFFF7E1FFBF
:1025200000280ED16846058084828775C6750E998D
:1025300001760F994176109981766946119802F0DB
:1025400063F807B0F0BD70B586B014461D460A4664
:1025500003466946881C0A9EFFF7C3FF002804D182
:10256000012C04D0022C02D0422006B070BD2346BC
:102570002A466946304602F08DFAF6E710B5002289
:10258000114602F037FB10BD70B586B00D461446FB
:1025900006466946881C0A9AFFF7A3FF002805D162
:1025A0006B4622462946304600F078FF06B070BDE3
:1025B00010B502F049FE10BD38B56D46049C2A8066
:1025C0006B8023466A4603F0E3F838BDF0B585B06A
:1025D00084460AA8F0C868468581C68103A8019090
:1025E00002970094604603F007F905B0F0BDFEB510
:1025F0006C46099E089D2080618022716371E58090
:102600006846029602F06EFBFEBD10B501F03AFA84
:1026100010BD10B503F020FE10BD10B503F03EFE56
:1026200010BD000010B504F069FA1E4C4721206867
:1026300049014118097A002909D1A0300079C00761
:1026400029D003F0E7FF03F03DFF10F043FE00F058
:1026500003F92068014640310A78C9798A4319D1C3
:102660003E21095C002915D10F490A88120711D5AE
:102670000922D2061269497A836AC90059180923C6
:102680001B02C018406D801A00020012814201DA5C
:102690000CF0F6FD10BD00F0C7FB02F06FFC0DF072
:1026A00081FDD0E75C200020C000002010B5837FB2
:1026B0000122002492024168082B03D9422491424E
:1026C00002D310E0914201D242240CE001463422B0
:1026D0000648FDF736FF00F07FF8002801DA4824AD
:1026E00001E000F029F9204610BD0000DC020020C6
:1026F0003EB5174D15482968827F0846A0310A73F8
:1027000000246030047644768476E122C27680220A
:10271000027702224277302008704C7002AA01A989
:102720006846FDF7FDFE68460078A2220101684672
:10273000007A891C000201436846007900030143C6
:1027400028681152A03004713EBD0000DC02002058
:102750005C20002070B504F0B5F90CF07DF80AF0AB
:102760005BFD11F0CFFB04F083FB184C1849206887
:10277000184D4018811001202A68C0021018816687
:1027800061688908C166A168890801670FF0C6FB06
:102790001D2029688001228B08180287628B4287DE
:1027A000A28B4286628C82862046203002783B20B3
:1027B0004001081882750021017000F0C3FA03F08F
:1027C0008FFE03F017FE10F00BFE70BDDC02002040
:1027D0000000FCEF5C20002070B50025ED43FEF703
:1027E000BFFA01282ED0002318490322888BFF242A
:1027F000401E10438A7F4D3462438218088B282480
:1028000060431218488B3024604312180846203069
:1028100040782C24604310180D4A18188418486911
:10282000A0420DD10B4884420AD90D69FEF798FAEF
:10283000C1B2284609F04EF909F07CFA401B251A6E
:10284000284670BDFF23B533CEE70000DC02002030
:1028500035190000540A0000F8B52C4F3C68206E72
:102860005C34401C002814D0002529480023C07B7C
:1028700000283ED00926F6062648002D1CD000214F
:102880000A460B464169521C994204D1002902D0E4
:1028900004E00125E9E7204B9A42F2D32160006968
:1028A00060603069A1680002090E000A0906014350
:1028B000A16000F033F81DE03169A2680902090A3D
:1028C000150E08D0018BC90712D04169216000693B
:1028D0006060E37210E0881A00027D2300121B037F
:1028E000984205DD100E00060843A06000F016F8BF
:1028F000F8BD6360002DFBD003CC0CF0EBFBFA209D
:102900000CF0D8FB39688862F8BD00005C2000201C
:10291000FC02002000001048881300000449002039
:1029200008610448012100686030C17170470000EF
:10293000000010485C200020F8B5062637484025E6
:102940000560374800270780A9050920C0064160B7
:10295000344A91600168016033490C694A69032176
:10296000601E08430021401CFDF7EFFDFEF7F8F95B
:10297000C1B2204609F0AEF809F0DCF909F0E6F939
:10298000FEF7C6F9294917208881294CFA222068C8
:102990000146403047708A6228210170FEF779F9BC
:1029A000012805D1206810224030017811430170C0
:1029B000FEF7ECF9012805D120688022403001782B
:1029C000114301702068A421095CC90704D00146A5
:1029D00040310A782A4303E0014640310A78324305
:1029E0000A700021C9430166FDF7A6FEFFF780FECD
:1029F000FFF7B0FE206801212030017707214177E1
:102A0000012003F029FC06F0E7FDFFF725FF03484E
:102A10008038056002210160F8BD000080E100E01F
:102A2000C000002040000048DC02002000001048E8
:102A30005C20002038B5184A14682246BA32AE34F9
:102A4000A378DD0701D001290AD05B070CD5012945
:102A50000AD0217949070BD5E17A002905D007E092
:102A6000E07880210843E07038BD0121E172508098
:102A700020794106090FF7D078210840694608708F
:102A8000002048706A460221422000F095FB207920
:102A900087210840207138BD5C200020F8B505462C
:102AA000002768460770154846260468AE3420792A
:102AB0008006800F03D00021084608F047F8A07870
:102AC000400718D520794C21084214D10023287ED4
:102AD0006A4619460AF008FE00280DD168460078BB
:102AE00028762F74284607F0F9FE060003D12079D6
:102AF0004021084320713046F8BD00005C200020D2
:102B000038B51048002104680846AE3408F01EF8B5
:102B1000694648702079C10704D001216A461170C6
:102B200088432071C0B2810705D502216A46117021
:102B3000FD210840207102216A46084600F03CFB56
:102B400038BD00005C200020FFB50C4678A103C909
:102B500095B001910090002108A801730321C902DA
:102B600068464186012108A8734E017435681746EE
:102B7000AE3513F02BFA002808D1704930684018A0
:102B80000AF0ACFFA878002802D0462019B0F0BDAA
:102B90000BA81599FEF7B4F80028F7D1072010A963
:102BA0000871012C05D0022C0AD0002C0ED0422036
:102BB000ECE708A8017B1020014308A8017305E099
:102BC00011A90BA8FEF75DF80028DFD110A8027943
:102BD00001230CA9284601F05DFF00287ED10222C6
:102BE00029461898FDF7ADFC298868468181152192
:102BF000490201820784012686734E2108A881704C
:102C00000024C470067107214171867103A902A8CE
:102C100001F0FAFC002861D1022202A91E98FDF7FA
:102C200090FC082F02D26846478502E008206946DA
:102C3000488569460C850B4628880AAA098902F04E
:102C4000A7FD00286DD13E4968460182022707840E
:102C500008A8847103A902A801F0D6FC002860D15D
:102C6000022202A91F98FDF76CFC684604706946B1
:102C700044704F850B4628880AAA098902F088FD0E
:102C800000284ED108A8007BC00723D02C496846F5
:102C9000C91C01820821018408A88770047103A956
:102CA00002A801F0B1FC00283BD1FF216846C171A8
:102CB0008171C17081704170017044710471694605
:102CC000082048850B4628880AAA098902F060FD79
:102CD000002826D108A8007B800600E021E022D54C
:102CE0002988684681811649A53101820684867348
:102CF00008A88770C470047107214171847103A909
:102D000002A801F081FC00280BD169460E700C85E9
:102D10004E850B4628880AAA098902F039FD002849
:102D200001D0472032E708A8007BA87000202DE7DB
:102D3000626C75656E7267215C200020DE06000003
:102D4000012A0000034800210068AE30C170817084
:102D5000704700005C20002070B50D4B1C68AE343D
:102D60002379DD0612D45B0710D533280ED1E07A23
:102D700002280BD10420107000205070C9B202202C
:102D800000F01AFA2079FB210840207170BD000084
:102D90005C20002038B50246174801240068AE3098
:102DA000022A1FD0052A03D0072A07D00B2A20D1D8
:102DB000084609794088FFF73DFE1AE000790024B3
:102DC000020600D50124820703D1C20601D4800681
:102DD0000FD5084600216A461170694600F0D8F800
:102DE000044606E08178490703D50179FB221140AA
:102DF0000171204638BD00005C20002010B5094854
:102E00000468AE34E07880070BD500200BF080FB1F
:102E1000022000F0A9F9E07801210843FD210840D3
:102E2000E07010BD5C2000201FB50E480468AE3471
:102E3000E078010612D5A178C9070CD0800708D523
:102E4000042069460873684603F034FF022000F04E
:102E50008BF90020E0704006400EE070FDF754FF53
:102E60001FBD00005C200020F0B58DB00C4616A9F7
:102E7000E0C90021089109910A910B9115990491DB
:102E800005A9E0C112A962C9009301911346014648
:102E9000039602952246012000F0ACF80DB0F0BD7B
:102EA000002000B58DB00A900B9008900990059015
:102EB000069007900490009001900290034602460D
:102EC0000146039000F096F80DB000BD0949B2220A
:102ED00009681423525CBA311A4208D049880005A7
:102EE0000905090D000D814201D101207047002024
:102EF000704700005C20002002780907090F0A4390
:102F0000027000207047000030B50E4885B005689B
:102F10002C46AE352879BA34400711D5E87A012815
:102F20000ED1152149026846418001210170608857
:102F30006B46054A00F008FB002801D10220E87228
:102F400005B030BD5C200020FFFF00007CB50446CA
:102F5000E1200D46800006F05DF90BA103C9009049
:102F60000191684603F06AFC01200CF085F9002805
:102F700001D047207CBD2078202108432070092003
:102F8000287000207CBD00001F020000000000002F
:102F900030B5174B047A1B68C268AE331B799D06A7
:102FA000AD0F04D10078042801D000200BE00120EF
:102FB00030BD401CC0B2155C012D08D01518203D55
:102FC000ED7F2818C0B2A042F3D3087830BD401C72
:102FD000DD070124C0B2002D02D0105CC00703E061
:102FE0009B07F2D5105C80070028EED00C70ECE750
:102FF0005C200020FFB595B00E46054620210CA8A8
:10300000FDF7BDFD00200490564800270468681EA7
:10301000AE34042802D8A078C0070BD0062D02D009
:10302000002D0AD002E0A078800703D5E0784006A2
:10303000800E0AD0462019B0F0BDA0788007F9D0E4
:10304000E0784006800EF5D00FE0002D0DD0012D68
:1030500020D0022D28D0062D33D0032D33D0042DBF
:1030600037D0002E3BD04220E5E700200BF050FA8D
:103070000028E0D1E078800708D50420694608736D
:10308000684603F017FE022000F06EF80120E070A1
:103090000020D0E7012EE6D0042EE4D01F980028AF
:1030A000E1D10627042008E0012EDCD0042EDAD07E
:1030B0001F980028D7D105270220E0700120049036
:1030C00010E040200DE0022E01D0032ECBD10820CD
:1030D00007E0012E01D0042EC5D1102001E0042705
:1030E0002020E07000230BAA19461E980AF0FCFA73
:1030F000030002D000F0E4F832E01022002107A81B
:10310000FDF723FA07A86C46279B269A1F990FC440
:103110002B463046189A179900F088F80300E9D139
:1031200008A8017BC170259803AC049B289A2999B3
:103130000FC422AB07CB02920091019039460CA834
:10314000209B219A00F0C6F80300D3D107A80BF00A
:1031500011FD0300CED101200BF0DAF90300C9D133
:10316000184668E75C20002010B50446C1061148E7
:10317000006803D51522BF210C4006E01B21890100
:103180004118497EC90710D012222107890E08185C
:103190001121C9014018806F0023214610F06AF9FF
:1031A000010004D0204610F051F9002010BD072086
:1031B00010BD00005C200020F8B5891ECDB2064687
:1031C000A81C03210843401C8308174817460068C1
:1031D000F10603D51C22BF210E4008E01B21890106
:1031E0004118497E090601D40020F8BD1922310793
:1031F000890E08181121C9014018806F314610F05E
:1032000039F904000ED03978217179786171A5718E
:103210002A46B91CE01DFDF794F92146304610F00E
:1032200015F9E1E70720F8BD5C200020F8B5224B36
:10323000224D1B68069C5B19009301239B03002809
:1032400014D0042812D0022814D0032812D0062348
:103250009C461E461D460F46174310D0914203D888
:10326000A94201D39A420ED94220F8BD3025AC467E
:10327000602602E0A025AC46F0262025EBE761465B
:103280002180668001E02180628020710798A07112
:10329000089820720998002805D001462046062289
:1032A0000930FDF74EF90720607100982030807BCF
:1032B00060710020F8BD00005C20002004090000BF
:1032C000034881220068A030417C1140417470475E
:1032D0005C200020F8B505463D481E460068079F63
:1032E0000024AE301346002905D002222A700122A4
:1032F0006A70A9700324002E10D080788006800F99
:103300000CD13019401C1F2852D82E55641C281986
:1033100032461946FDF715F9A019C4B2002F0DD099
:103320003819401C1F2843D82F55641CE4B22819B3
:103330003A460699FDF705F9E019C4B26846008CD3
:1033400000281BD06846808C002817D0601D1F28DD
:103350002ED805202855641CE0B212212954401CA7
:10336000C4B228190646022208A9FDF7EAF8B01CE3
:10337000022209A9FDF7E5F8241DE4B20C98002803
:1033800010D0E01C1F2813D802202855641CE0B27E
:103390000A212954401CC0B22918401CC4B2084656
:1033A0000BF04EFE0B9800280CD000191F2801D9F5
:1033B0004220F8BD28190B9A0A99FDF7C2F80B981C
:1033C0002018C4B2214628460BF030FBF8BD00009F
:1033D0005C20002000B500F009F8002805D0852207
:1033E00001699201114200D0002000BD10B50D49C5
:1033F00000050B680521490259184A690021000D92
:10340000A0331B7B0AE04C01145B2405240D84428D
:1034100002D14801801810BD491CC9B28B42F2D8B4
:10342000002010BD5C20002004490A683B214901AE
:1034300051180A7802430A70704700005C2000208F
:10344000FEB58C68CD88267B012E01D00020FEBD04
:103450004126052D01D01E7019E0247C0A2C00D0D5
:103460001E70002A0DD08968052268460C31FDF7D0
:1034700068F86D1E00AAA9B232200132FFF76CFC79
:1034800005E000880A460146022000F021FD4120A7
:10349000FEBD10B5102100F09DF810BDFFB589B03C
:1034A000074646261D781022991C05A8FDF75FFBEC
:1034B000012D04D0022D02D042200DB0F0BD3846BF
:1034C000FFF788FF040037D020223946002009F09A
:1034D00081FE07002FD0194869460880012004901A
:1034E000394620460B9B0A9A0AF0A3F8060004D03E
:1034F0000021384609F0CAFE1EE00B98A081A068A2
:10350000012D0FD0102205A9FDF71BF8257101210F
:1035100020694903084320610948A061384600F04A
:1035200093FF09E010220749FDF70BF8A06802227B
:1035300005A90C30E8E764263046BEE70328000002
:103540009334041074760510FFB589B007464625FC
:103550001E781022991C05A8FDF709FB012E04D046
:10356000022E02D042200DB0F0BD3846FFF732FFE8
:10357000040024D020223946002009F02BFE070049
:103580001CD005AD04960FCD6D460FC539462046BB
:103590000B9B0A9A0AF04DF8050004D0002138462A
:1035A00009F074FE0BE00121206949030843206102
:1035B0000448A061384600F047FF00E06425284633
:1035C000D1E70000C935041010B5502100F096F97C
:1035D00010BD0000F0B593B00E46044600206946C9
:1035E00008760190E0690790002827D0C788002F4F
:1035F0007DD0B006800F03D02088FFF767FC0190D4
:1036000006AB2046019A0799FFF71AFF412861D0BF
:10361000B81E80B2009007988068457B002D56D078
:10362000F006F107039000290FD0022F0DD3294691
:103630000098FCF707FE002903D006E0412013B0F4
:10364000F0BD062D17D0142D15D0B00708D5052FC5
:1036500006D30321B8078907C84201D1022048E0F8
:1036600070070ED5022F0CD329460098FCF7EAFD0F
:10367000002902D005E001203BE0082D0DD0062DE9
:103680000BD00398800F0ED0022F0CD32946009840
:10369000FCF7D8FD002902D005E0042029E0072D21
:1036A00008D0152D06D0B00611D5012D04D0022D5D
:1036B00004D00CE008201CE0042500E01225022FB5
:1036C00005D929460098FCF7BDFD002910D04120FE
:1036D00069460876012120694903884320610198E1
:1036E00000287DD006AA01213120FFF735FBF6E046
:1036F0001020810706D57D49B8034018070CB80093
:10370000C01C0EE0C0060098294604D5401CFCF7FA
:1037100099FD87B202E0FCF795FD0746781E6843E5
:10372000801D81B205AB0222079809F013FDF00657
:103730004ED56946A089898A884202D92069410606
:103740005BD4002041E0072D0AD068430B3082B2E1
:103750001023A168079809F093FD002815D031E0E7
:103760001022634908A8FCF7ECFE02980BABC100DD
:10377000081A0B3081B20222079809F0EBFC1022E4
:1037800008A8A168FCF7E5FEE7E7019800280ED03D
:1037900002980CAB6843801D81B22A46079809F055
:1037A000D9FC0CAA29463320FFF7D6FA0AE007987D
:1037B000009002982B466843801CC2B221880220E8
:1037C00000F044FB0298401C80B20290B842BAD389
:1037D0003820484F064207D06946A089898A00E010
:1037E00077E0884204D86EE06846808AB8426AD0A2
:1037F0002069410606D5F10604D401218902084357
:1038000020616CE021882022002009F0E3FC050003
:1038100011D00521F2070120C902002A0DD06A4605
:1038200011800490908A3B46401C82B22946204673
:1038300009F0C4FE37E0452001E7B20713D520792F
:1038400001280ED01020A2680290019200916846D3
:10385000808A3B46401C82B22946204609F01FFE62
:1038600021E00220EFE7710701D5234A04E0039924
:10387000890F0DD0204A521C69460A800490888A1C
:10388000A389401C82B22946204609F0D2FE0AE0F4
:10389000B0060AD56846808AA389401C82B22946B0
:1038A000204609F03FFE642808D0284600F0CCFDF1
:1038B00022883046079900F07CFB10E00021284662
:1038C00009F0E4FCB7E722883046079900F071FB65
:1038D00000E76846027E2188022000F035FB0121C6
:1038E000E06909F0D3FC0020E061A8E600C0FFFF1A
:1038F00074760510FFFF000002280000F0B58BB0C1
:103900000D4604460020694608710490E669002EC1
:1039100016D0A806800F03D02088FFF7D7FA0490AE
:1039200001AB31462046049AFFF78AFD412865D055
:10393000E80708D021883246022000F04DFA5DE009
:1039400041200BB0F0BD680705D521883246022022
:1039500000F008FA52E0A80739D5F0886188814262
:1039600005D921883246022000F046F946E0206958
:10397000410604D5012189020843206180E02188A5
:103980002022002009F026FC05001ED021883246A6
:10399000022000F031F9A068801C00F005FB61886E
:1039A000401E401886B2A06800F0FEFA0246334678
:1039B0002946204609F0DEFD284600F045FDA068B6
:1039C0003146801C00F0ECFA54E04520B9E7E806E7
:1039D00014D5F088412702280ED9B168801E4D7B8E
:1039E00080B2854201D9012016E0002D04D029467D
:1039F000FCF728FC00290FD06846077101202169D7
:103A0000400381432161049800282DD001AA01219F
:103A10003120FFF7A1F92DE002900220002703904A
:103A20001EE0049800280DD0039805AB001D81B25C
:103A30002A46304609F08EFB05AA29463320FFF7B7
:103A40008BF907E003980096C2B22B46218802202A
:103A500000F0FCF90398401980B27F1CBFB20390BC
:103A600002988742DDD3C9E768460279218802209F
:103A700000F06AFA0121E06909F008FC0020E06129
:103A800000205EE7FFB581B0154607464624FFF7E4
:103A9000ADFC060028D00298002803D07088C01E14
:103AA000A84201D242241FE015483B210068490189
:103AB00040180078000602D5642005B0F0BDE81C6F
:103AC00082B23946002009F085FB07000ED001467E
:103AD00000953046049B029A09F0E6FD04000AD0E6
:103AE0000021384609F0D2FB2046E6E76424802016
:103AF000FFF79AFCF8E7384600F0A6FCF4E7000070
:103B00005C200020F7B5064690790321401EC5B21F
:103B1000E81C0843401C8308174817460068F10654
:103B200003D52922BF210E4008E01B21890141183D
:103B3000C97EC90601D40020FEBD26223107890EA8
:103B400008181121C9014018806F31460FF092FC0E
:103B500004000FD00198A080A808A07123462A462F
:103B600005213846083309F0F5FA214630460FF0B2
:103B70006DFCE0E70720FEBD5C200020F7B506469F
:103B800090790321801EC5B2E81C0843401C8308BD
:103B9000184817460068F10603D52822BF210E40B9
:103BA00008E01B2189014118C97E090701D40020C2
:103BB000FEBD25223107890E08181121C9014018C0
:103BC000806F31460FF056FC040011D00198A080A0
:103BD000B8682346407BA071E5712A460621384625
:103BE000083309F0B7FA214630460FF02FFCDEE724
:103BF0000720FEBD5C200020F7B506469079032122
:103C0000401EC5B2E81C0843401C830816481746EE
:103C10000068F10603D52C22BF210E4008E01B21CD
:103C200089014118C97E090601D40020FEBD292260
:103C30003107890E08181121C9014018806F3146DB
:103C40000FF018FC04000DD00198A080A5712A4641
:103C500005213846E31D09F07DFA214630460FF074
:103C6000F5FBE2E70720FEBD5C200020F7B5064625
:103C700090790321801EC5B2E81C0843401C8308CC
:103C8000184817460068F10603D52E22BF210E40C2
:103C900008E01B2189014118097F890701D4002010
:103CA000FEBD2B223107890E08181121C9014018C9
:103CB000806F31460FF0DEFB040011D00198A08028
:103CC000B8682346407BA071E5712A460621384634
:103CD000083309F03FFA214630460FF0B7FBDEE724
:103CE0000720FEBD5C200020F7B506469079032131
:103CF000801EC5B2281D0843401C8308184817467B
:103D00000068F10603D52A22BF210E4008E01B21DE
:103D100089014118C97E890601D40020FEBD2722F1
:103D20003107890E08181121C9014018806F3146EA
:103D30000FF0A0FB040011D00198A080B8682346C2
:103D4000407BA071E5712A4606213846083309F008
:103D500001FA214630460FF079FBDEE70720FEBD71
:103D60005C200020F7B5064690790321401EC5B2BD
:103D7000E81C0843401C8308164817460068F106F3
:103D800003D52D22BF210E4006E01B2189014118D9
:103D9000097FC90719D02A223107890E0818112175
:103DA000C9014018806F31460FF064FB04000ED04B
:103DB0000198A080A5712A4605213846E31D09F027
:103DC000C9F9214630460FF041FB0020FEBD072017
:103DD000FEBD00005C200020F7B506469079032167
:103DE000401EC5B2E81C0843401C8308164817460D
:103DF0000068F10603D52B22BF210E4008E01B21ED
:103E000089014118C97E490601D40020FEBD28223F
:103E10003107890E08181121C9014018806F3146F9
:103E20000FF028FB04000DD00198A080A5712A4650
:103E300005213846E31D09F08DF9214630460FF083
:103E400005FBE2E70720FEBD5C200020FFB59B1EBE
:103E50000646DDB2681D03210843401C83081B4849
:103E600081B000681746F10603D53622BF210E4007
:103E700009E01B2189014118497F890702D40020EC
:103E800005B0F0BD33223107890E08181121C90190
:103E90004018806F31460FF0EDFA040014D00298FC
:103EA000A0800A98234680682A460830C019007905
:103EB000E0802572B91D09330A9809F04BF92146B3
:103EC00030460FF0C3FADAE70720D9E75C2000207C
:103ED000F8B5044690680F4601461546467B0E31FC
:103EE00002226846FCF72DFBA8680223057C1548D2
:103EF000E10603D53522BF210C4009E01B220168F1
:103F000092018918097F090601D40020F8BD3222E8
:103F100021070068890E08181121C9014018806F17
:103F200021460FF0A7FA010009D08F808E716A46F2
:103F300012880A818D7220460FF088FAE5E7072083
:103F4000F8BD00005C20002070B50E460123044639
:103F5000C10612481546006803D53422BF210C4023
:103F600006E01B2189014118497FC90711D0312280
:103F70002107890E08181121C9014018806F2146B8
:103F80000FF078FA010006D08E808D7120460FF078
:103F90005DFA002070BD072070BD00005C2000208D
:103FA0000170090A417070470178407800020843A7
:103FB0007047134610B50207920F05D00A461946FE
:103FC0000220FFF791FE10BD820605D50A4619466C
:103FD0000220FFF7D3FD10BD820705D50A4619461A
:103FE0000220FFF78FFD10BDC007FCD00A4619461E
:103FF0000220FFF73BFE10BDF8B5069C1F46154694
:104000000646002C13D0A06802220D30FCF799FA66
:10401000E81E82B23B460721204609F08BF9E58075
:10402000A068012E05D01D2101730020F8BD472096
:10403000F8BD1B21F8E70000F1B5FFB08BB00124FB
:10404000600205900027CC4807970168E320C00074
:10405000081803908A98C74D0005000D0AAA05A903
:104060000BF07FFD0690002872D104260AA805995E
:104070004218203AD27F0B2A23D000260020049039
:104080000AA88119022201A80291FCF75AFA68468F
:10409000818809AB08AA039801F074FD012817D0A4
:1040A00002287DD068468088854200D30546844238
:1040B00000D92046044602988078012871D0133632
:1040C0003BE1491E761E36040591360CCFD1D5E76B
:1040D00008980090002F79D1009902222831029887
:1040E000FCF737FA00281ED100982030017B029897
:1040F0008078814217D1012808D1009802990222C4
:104100000830C91CFCF725FA002815D002988078E1
:10411000022808D10098029910220830C91CFCF727
:1041200018FA002808D00098008DA84200D805464B
:10413000A04200D22046044602990AA889780129A3
:1041400007D013360599B6B28E4204D3012707E093
:1041500005E1761DF6E78119022201A8FCF7F1F9C5
:104160000399009808318E462EE084466946026A1B
:104170008B8820300DE0918B994203D3012F7DD1A4
:1041800099427BD9A94200D80D46A14200D30C46E2
:1041900012688242EFD10498002817D1604601E0EE
:1041A00015E0BFE0006870450ED0018D994203D341
:1041B000012F09D1994207D98D4200D30D468C4277
:1041C00000D80C46012F59D17045CED1BAE00898DD
:1041D0000090002F72D1009902221C310298FCF746
:1041E000B8F900281ED100982030C1780298807854
:1041F000814217D1012808D1009802990222083083
:10420000C91CFCF7A6F900281AD002988078022869
:1042100008D10098029910220830C91CFCF799F9BE
:1042200000280DD00098808BA84200D80546A042F7
:1042300000D22046044602988078012826D003E068
:1042400002988078012805D013360798B6B2012865
:104250001ED021E0009849490089884216D18A98E9
:10426000FFF7C4F80146009800F08AF80099098C1D
:104270004843009989694018022200E038E0029919
:10428000491DFCF75EF901200790D4E7761DDCE7B5
:10429000B61C0020B6B207900598864201D30127CC
:1042A00005E00AA88119022201A8FCF74AF9039A3D
:1042B0000099083209980968944630E01AE0864669
:1042C0006A46938820300DE08A8B9A4203D3012FEF
:1042D0000ED19A420CD9AA4200D81546A24200D368
:1042E000144609688142EFD1049800282AD102E0DF
:1042F0000120049026E07046006860450FD0028DD2
:10430000016A9A4203D3012F09D19A4207D99542F3
:1043100000D31546944200D81446012FE8D16045D9
:10432000CDD10FE00298C078022805D1029800791B
:10433000292801D1B61CB6B2761D0598B6B28642C0
:1043400000D301270598811B042902D3864200D29D
:1043500094E604980028FBD1A54203D906987FB0C3
:104360000CB0F0BD224629468A9801F04FFC069019
:10437000F5E70000FFFF00005C200020022900009C
:1043800030B5024623239B5C0020012B1AD11289F1
:104390000D4B9A4216D10D4A052312685B02D318C1
:1043A000A0325B69127B0AE045010C885D5B240545
:1043B0002D05240D2D0DAC4204D0401CC0B282420C
:1043C000F2D8002030BD0000022900005C2000204F
:1043D000830810B50A480021026805204002101821
:1043E000A0324069127B07E04C01045B002C01D035
:1043F000994204D0491CC9B28A42F5D8002010BDA8
:104400005C20002010B50446022000F033F80D486F
:1044100000210268052040021018A0324369107B79
:1044200005E04A019A5A002A04D0491CC9B28842C0
:10443000F7D810BD48011C52C018026904210A4374
:10444000026110BD5C20002010B504460146042026
:1044500002F030FE002809D00548E3210068C900B9
:10446000401821463C300FF067FE432010BD00008D
:104470005C20002004490A683B21490151180A7850
:1044800002430A70704700005C20002000B511381C
:10449000C0B2FFF79DFF002804D001220169520538
:1044A0001143016100BD0000F3B597B00D88488845
:1044B0000590081D1DC80DAE1DC68C8ACE8A087ECB
:1044C0001390C869203101900878009048780490D2
:1044D00088780390C87802900F7900F09BFE00283E
:1044E00017D10120400284425FD8B4425DD8002F2A
:1044F00001D1B44259D114A9284601F071FB00281A
:1045000006D115AA1499059801F05AFB002802D08B
:10451000602019B0F0BD149D11A92846183009F08B
:1045200031FB10A88088002810D0284612A920301E
:1045300009F028FB10A8838800892A8D1818696A59
:1045400010188A8B904203D16120E2E74820E0E70F
:1045500015982C4B02899A4227D12322125C012AFA
:1045600023D1006800681690139801281FD168466F
:10457000808E29221202801A030001F026FE060412
:10458000180404070A18022C0FD110E0072C0CD1D4
:104590000DE0042C09D3E00707D1012F07D1A64273
:1045A00003D3042E01D3F00701D04220B1E70298D3
:1045B0000B90039B049A0A9309920098019A0C9716
:1045C00008900696059407920DA81DC8019002A8B0
:1045D0001CC013980B4600902A461699179800F0B5
:1045E000AFF9002895D168460649808EFF31884290
:1045F00005D01798018800200A4601F007FB00202B
:1046000087E7000003280000F3B5A5B008881A90DA
:1046100088780C4611901022091D13A8FCF7A7FA00
:10462000A08A1090A17D68460172E07D0F90207EE7
:104630002090677EA07E1F900020064601461290C3
:1046400020A801810F20BB4C2390E3212068C900E2
:104650004018199000F0DEFD00280BD101211098C0
:10466000490288425FD821A91A9801F0B9FA0028B6
:1046700002D0602027B0F0BD2198179009F026FAEB
:104680001A9988420CD102A801901698009013AD97
:104690000ECD119809F0DEF9002801D06320E9E77A
:1046A0006846017A8806800F05D0012012902068A4
:1046B000A030007B4600C80703D01298401CB61CEF
:1046C0001290080603D51298401CB61C1290179839
:1046D0000DA918301D9009F055FA6846129C808E7D
:1046E000A41CA04237D317980EA92030019009F0DE
:1046F00049FA6846018F00290DD01798179A6B4622
:10470000406A9B8E128D5918808B5118081AA0424E
:1047100001D26120AEE717988469119825680128B5
:1047200003D0022803D04220A4E7052000E0132094
:10473000E0832A4639460F9809F0DAF9422899D0E1
:10474000199FE28B4037788B398B411A10981018DB
:104750008019814201DA48208CE70EA9019809F0FE
:1047600011FA6846008F0028179802D0406A808BA3
:1047700000E0008D2599401C0880259801210088C3
:10478000A083259802220088401CA8836A482081C3
:10479000204620301790C1700021817081711998D6
:1047A000398B406D40186946A061097A0170A06993
:1047B00029461C31401CFBF7C4FE11980128A06952
:1047C0007ED0102213A9C01CFBF7BBFE2846102286
:1047D00013A90830FBF7B5FE388B133038832E460B
:1047E00020361198F0701098E8831F98B0701098D8
:1047F0002084109828841998398B406D4018A8613E
:104800000021109AFBF7A1FE398B10980818388305
:104810001799012008711799002048713071684676
:10482000007A810701D50121317101070227002992
:1048300002DA317939433171410703D531790422E4
:1048400011433171400603D5307908210843307196
:104850000F9870712098B07121461D9809F0BBF92E
:104860002146019809F098F929461D9809F0B3F9F5
:104870002946019809F090F91298002841D068461D
:104880001A998181A18BC18107844784012408A8DA
:10489000047122A80A9008A88473239941730F9980
:1048A0003820014008A801730721C1730025057451
:1048B0006846007AC00708D020486946088200E0B0
:1048C0002AE003A924A8FFF7EFFD6846007A8006D6
:1048D000800F07D019486946401E088203A924A802
:1048E000FFF7E2FD6846007A00060AD52921090291
:1048F0006846018208A84473057303A924A8FFF73A
:10490000D3FD259801881298401C081882B2002017
:1049100001F07CF90020ADE6022213A9C01CFBF7D0
:1049200010FE2846022213A90830FBF70AFE388B36
:10493000401D53E75C2000200328000003290000ED
:10494000FFB55248E322006887B0D2008218069271
:1049500010AA109B0126169F9288012B04D14C4B64
:104960009A4201D1A030067B069D34464035688BC3
:104970002B8B7C43C31A099820300390A34222DA80
:1049800048200BB0F0BD2320405C012819D10889D4
:104990006C46208098420CD03D4C641EA04208D04A
:1049A000641CA04205D0641CA04202D0A41CA042FA
:1049B00007D1374CFF3CA04201D0904201D1622088
:1049C000DFE7096801E029231B0203988142DAD15D
:1049D00009981B9984691898224609F089F8422899
:1049E000CFD01C98012804D11598874201D24220CB
:1049F000C7E71598E083204620301C990590817008
:104A000027840A98808B401CA0831098012814D01A
:104A10002046102211A90830FBF793FD0599109844
:104A2000C8700698298B406D4018A061298B3846C4
:104A300070430818288300250FE011A80FC8083418
:104A40000FC4183CEAE72846A16978430818159A6C
:104A50001799FBF776FD6D1CEDB2B542F3D30599BE
:104A60001898487105991998087105991A988871CC
:104A700009982146183009F0AEF82146039809F04C
:104A80008BF80798A18B018000207AE75C2000203A
:104A900002290000FFB58FB014460E78102205A839
:104AA000891CFCF764F85048E3210068C9004518E8
:104AB00000F0B0FB00281ED1002C57D0012E09D1E8
:104AC0006846808A4949884204D12846A968083046
:104AD00081424BD12846103029690390814209D088
:104AE0000AA9284609F04EF86846018D601E0D900F
:104AF000814202D2482013B0F0BD284608300CA9EC
:104B0000049009F03FF86846008E002814D0EF6842
:104B10000AA93846183009F035F8384620300CA973
:104B200009F030F86846398D008D09186846008E06
:104B3000401C081887B200E0012701200004C01BB8
:104B4000A04201D26120D6E72C6928680190129812
:104B5000012802D0022803D008E00520C00200E0AE
:104B600023486085012E03D0022E05D04220C2E7E3
:104B700020460830022202E020460830102205A913
:104B8000FBF7DFFC204631462030064601730F98C4
:104B9000214607802785039809F01DF821460498CF
:104BA00008F0FAFF27461837E7616662A7612662B8
:104BB0000D9884B20BE02846019909F00CF83846AC
:104BC000019908F0E9FF2868641EA4B20190002C46
:104BD000F1D10F9801880D98081882B2002001F0D9
:104BE00015F8002087E700005C2000200118000075
:104BF00001280000F7B5064639480F460068E32152
:104C0000C900441882B03046FEF7F0FB050064D0BE
:104C10002046243000900FF0A5FA00285DD12869C5
:104C200000035AD500980FF057FA044653E0A088C5
:104C3000B0424FD120223146002008F0CBFA0600C6
:104C40001CD0A068002F017B427B19D0334604980A
:104C50000FF042FE002001212A69C9048A432A611B
:104C600000282ED0692806D03046FFF7EDFB2969D1
:104C7000102001432961002005B0F0BD6420FBE74E
:104C80000A2906D00C290AD00E290ED0082912D0E4
:104C900023E032462146284610F0D4FEDBE73246B8
:104CA0002146284610F00AFBD5E732462146284621
:104CB00010F0FEFDCFE732462146284610F090FC6A
:104CC000C9E7214600980FF054FA0121204608F068
:104CD000DDFAC9E72468002CA9D14120CCE7000007
:104CE0005C200020F0B56C4989B00A68E321C90056
:104CF0005718068841886A461180017907914179E1
:104D00000491C1880191806803903046FEF76EFBE4
:104D100004003ED03846243006900FF023FA0028D5
:104D200030D1206980032DD506980FF0D5F90546BE
:104D300026E0A8880005000DB04220D1A868022313
:104D4000007B02900320059005226946284608F062
:104D500097FA002813D10298162801D10520059052
:104D6000E9880598091A0198814208D1059A0346F5
:104D70002846121D039908F083FA00280AD02D68EE
:104D8000002DD6D13846183007460FF0EBF9002831
:104D900040D065E020223146002008F01BFA0600D2
:104DA00011D0012120694904884320610127079916
:104DB0003F0600290AD068460288334602990498C3
:104DC0000FF08AFD1DE0642009B0F0BD384320617A
:104DD0000298324612282946204602D010F0B2F935
:104DE00001E010F05AFF00280BD0692807D0206995
:104DF0001021B843084320613046FFF725FB00200F
:104E0000E2E7294606980FF0B4F90121284608F098
:104E10003DFAECE72069400322D538460FF05CF9F3
:104E200005461BE0A8880005000DB04215D1A86812
:104E3000007B522801D0D2280FD1022305226946D7
:104E4000284608F01DFA002807D107222846019BB2
:104E5000039908F015FA002804D02D68002DE1D13F
:104E60004120B1E70798002808D101202169800678
:104E7000014321612946204610F079FE0121206975
:104E8000890488432061294638460FF072F90121D0
:104E9000284608F0FBF9B2E75C20002002460948EA
:104EA000E3210068C90041188868083103E0038DD8
:104EB000934202D200688842F9D1884200D1002092
:104EC000704700005C200020034610B50F48E32126
:104ED0000068C90041188868083103E0148D9C42BD
:104EE00003D8104602688A42F8D18A420CD1018D5B
:104EF000994209D20146026A20318A4203D0416AAE
:104F0000898B994200D2002010BD00005C20002057
:104F1000024610B50B48120501680520400208182A
:104F200043690020120DA031097B07E044011C5B9E
:104F30002405240D944203D0401CC0B28142F5D810
:104F400010BD00005C200020F7B50546174601980B
:104F50000FF0C2F82E050446360D0CE0A088256837
:104F6000B04207D1214601980FF003F93946204697
:104F700008F08CF92C46002CF0D1FEBDF0B58BB0BA
:104F8000002064490290E3200A68C000141872B639
:104F900010464030C57902231D43C57162B62546CF
:104FA0004035287AC0077DD0052040021018002621
:104FB00047694AE071017A5A002A44D0C91906911A
:104FC00009694A021FD48A0227D502210491069951
:104FD000012309880905090D03911B218901411845
:104FE000C97E89070FD51121C90108304018232235
:104FF000806F02210EF03EFA010004D0039A8A80ED
:1050000004980EF023FA069800880090069800F0A5
:1050100083F800980CF073FF15E0480713D5069845
:1050200000880005000D0CF046FF002805D1069809
:1050300000880005000DFEF7FFFF069904200969AE
:10504000814306980161761CF6B23248AC210068B3
:10505000095CB142AED800F001FF2046243006467C
:105060000FF080F8012802D0012000F0F9FD204661
:1050700018300FF077F8012802D0002000F0F0FD82
:105080003C3420460FF06EF801280FD002A92046CC
:105090000FF091F80420029902F00CF80028F0D0EB
:1050A000204600E034E002990FF033F8287A000639
:1050B0002ED530460FF056F8012829D1002008F0EF
:1050C00065F8A98B23314909491CC9B2FBF7BAF825
:1050D00000281DD00F4D044628681121C901083051
:1050E0004018422601233822806F31460EF0C2F963
:1050F00001000DD000228A80CC8030460EF0A6F947
:105100003B212A68490151180A78802082430A709D
:105110000BB0F0BD5C200020F0B504463C48E32114
:105120000068C9004518218A85B089041AD5022172
:1051300004911B2189014118497F412627880123B9
:10514000C9070FD01121C901083040183122806FE2
:1051500002210EF08FF9010004D08F808E71049827
:105160000EF074F92946208801221831FFF7ECFE71
:105170002946208801223031FFF7E6FE29462088A3
:1051800001222431FFF7E0FE2946208800223C312D
:10519000FFF7DAFE20880005000DFFF7B9FE850055
:1051A000294611316846017301F084FD2946123108
:1051B0006846017301F07EFD29461331684601738C
:1051C00001F078FD68461435057301F073FD208801
:1051D00000F028FA208801050D48090D0268052015
:1051E00040021018028F914201D100210187E0692D
:1051F000002802D0012108F049F820220021204691
:10520000A568FBF7A2F91720A560608005B0F0BD86
:105210005C20002010B50B48E3210068C900441849
:105220004034207AC00709D0002007F0AFFF217A70
:10523000890701D5002803D0002010BD472010BDEC
:10524000642010BD5C200020F0B55FA099B000681C
:105250005E491590E3220868D200841805225202A4
:10526000821852692546403514922A7AD20702D014
:10527000622019B0F0BDAA8B01235B029A4201D9CA
:10528000AB8303E0172A01D21722AA83149AA03015
:105290001392067B0DE0761EF6B2139871010F187B
:1052A000B8680F90384620220021FBF74EF90F987E
:1052B000B860002EEFD120460830E0606460A06046
:1052C00024600830139060612061FF2200210830C3
:1052D0000EF017FF2046FF22002124300EF011FFB0
:1052E0002046AA7F002130300EF00BFF2046FF221F
:1052F00000213C300EF005FF00222A7210461721D3
:10530000324B05E0149E4701BE19401C7180C0B2AB
:105310001E68A036367B8642F4D8002028832F8C66
:10532000688C0026149008E02820E16C704309186E
:10533000204608F031FC761CB6B2BE42F4D30026FB
:1053400008E03020216D70430918139808F024FC00
:10535000761CB6B214988642F3D30120FFF78AF880
:105360000124684604701A49418023460422694694
:105370000CA8FFF78FFB002822D16846018E81829E
:1053800014490183042606858475202108A88172AA
:105390000024C472047307214173847305A90DA806
:1053A000FFF732F900280BD1684604874687818EC3
:1053B00015AB0EAA008E00F0EBF9002800D158E7DB
:1053C00000202872472054E70000FFFF5C200020E7
:1053D00001180000052A0000F8B504467D480E4675
:1053E0000068E321C90047184820C05DC0077BD092
:1053F000B088FDF7FBFF0546012C02D0002C75D0CC
:10540000E6E0002D0CD0286941074AD4B268F18843
:10541000147B0029F4D062060CD56888884201D23A
:105420000121B2E0D22C01D0522CF9D138463146BC
:1054300018303FE0A106890E1E293ED81E2C21D12E
:1054400001071FD50821884328612988012008F019
:105450008BFB0121304607F019FF5E4811210068DF
:10546000C9010830401842242D8801233922806F59
:1054700021460DF0FFFF010003D08D8020460DF086
:10548000E5FFA5E0E1070AD01D2C10D01B2C0ED0A3
:10549000410529D4012189020843EE6192E0C0064A
:1054A00001D54520F8BD2988002008F04BFB38467F
:1054B000314624300EF040FE8AE029882022002068
:1054C00007F088FE05000FD00121304607F0DEFE10
:1054D0002B460022214606200FF0FEF92846FEF753
:1054E000B3FF75E000E001E04120F8BDB068047B47
:1054F0001D2C3AD01B2C41D00021304607F0C6FEAF
:10550000032C46D0052C44D0072C42D0092C40D087
:105510000B2C3ED00D2C3CD00F2C3AD0112C38D077
:10552000132C36D0172C34D0192C32D0012C30D07B
:10553000022C35D0042C33D0062C31D0082C2FD09F
:105540000A2C2DD00C2C2BD00E2C29D0102C27D08F
:10555000122C25D0162C23D0182C21D0522C1FD041
:10556000D22C1DD01E2C2FD032E0002D03D0298844
:10557000012008F0E7FA3146022001E0314601201F
:1055800000F05EFD002823D00021304607F07EFEAB
:105590001EE029691020814329612988002015E037
:1055A0002869402188432861010511D5FF21013177
:1055B000084328612988022008F0C4FA01212869DB
:1055C000C9028843286103E02988032008F0CCFA47
:1055D0000020F8BD5C20002010B5114AE3231268BA
:1055E000DB00D2184032127AD20706D002280AD045
:1055F000052804D00B2810D101E0412010BD4888B7
:10560000FEF700FF09E04888FDF7F0FE002804D00F
:1056100001220169920511430161002010BD0000C3
:105620005C200020F1B5FFB085B04720019000203C
:10563000694608805348E3210068C90047188498E8
:10564000FDF7D4FE0290002874D0B96808374FE007
:10565000684600880D4604AC20186B4602222831AB
:1056600000F0A4FD68460088294620186B460122F8
:105670002C3100F09BFD2E462036307B69460128F8
:10568000098804A809D040186B4610222946083121
:1056900000F08CFD01902C6A27E040186B46022236
:1056A000F4E76946098804A8401821466B4602229F
:1056B0001C3100F07BFD6946098804A8401821468A
:1056C0006B460122233100F071FD2320005D694605
:1056D0000128098804A830D0401821466B461022C2
:1056E000083100F063FD01902468B442D9D12968E3
:1056F000B942ADD1019800281CD1684600888107C5
:105700000AD0214A011D11406A4611800A1A04A9D3
:1057100008180B21FAF719FF029800880CF0CBFB50
:10572000002807D1849869460005000D04AA09885D
:105730000AF048F97FB006B0F0BD401821466B462C
:105740000222083100F032FD019020890F49884281
:10575000CAD120460299FEF713FE4000A1690390CA
:105760006A460918128804A880186B46022200F0C5
:105770001DFD0190A1690398022208180021FAF783
:10578000E4FEB1E75C200020FCFF000002290000DD
:10579000F0B5074617480E4600683B2149014018FE
:1057A000007885B01D461446C00706D003A93846C8
:1057B00000F016FA00280AD102E0472005B0F0BD3B
:1057C00004AA3046039900F0FBF9002801D06020BC
:1057D000F4E70499228860880968002A00D0088CC0
:1057E00032466E4631C603233946002000F004F8E5
:1057F000E4E700005C200020FFB5002099B0239A68
:105800000B90129005461490064615901C46DB48F6
:105810000B460068E321C900411803910021229F33
:10582000089109915188069111880A913B214901FB
:1058300040180078C00706D00FA9184600F0D0F92C
:1058400000280AD102E047201DB0F0BD10AA0F9930
:105850001B9800F0B5F9002801D06020F4E71998F2
:10586000002803D0600701D5012000E0002013903C
:10587000A007800F1C90109817902030C078012846
:1058800040D11798BE4B01899942F9D117980699D2
:1058900004680A98228C4118914233D8204620305F
:1058A00016908078012816D0E08B049017988069B4
:1058B00000788006800F7DD0039840301890007AE1
:1058C000800777D51C980028F5D0AD4F0F99FF378A
:1058D0002031206814E0BA4214D3B942DDD80497CD
:1058E000E4E70389A64A934203D12322125C012AEA
:1058F00008D0BB4203D12322125C012A03D00068E6
:105900008842EED134E105900028FBD09B48052168
:1059100002684902511849690027009162E0780144
:1059200000990390085A01055AD01999002901D00D
:10593000884255D105997A008B69511C595C9A5C53
:105940000902891889B20D91890749D00222059967
:105950000FF040F8002804D01998002840D06520A6
:1059600072E7002008A9C8551C98C00718D01798DE
:1059700080690078C00613D50D98C00710D00120AB
:10598000C8550543009A039880184088159A90429C
:1059900006D91590009A0398105A0005000D14902E
:1059A0001C9880071CD5179880690078800617D549
:1059B0000D9800E084E0800712D50220CA5D0543FF
:1059C0000243CA55009903984018408815998842A7
:1059D00006D9159000990398085A0005000D1490F7
:1059E0007F1CFFB265480068A030037BBB4296D89D
:1059F000002D65D01898007A00065FD45F480168D2
:105A0000052040020818416900201BE042018E5A1F
:105A1000360515D0AE070BD556183669B7070DD425
:105A200008AF3F5CBF0703D5360701D546200BE71B
:105A3000EE0705D05218127CD20701D0432003E7AD
:105A4000401CC0B28342E1D81598C01E86B20498AB
:105A5000864200D90646A8070FD5202200201499B7
:105A600007F0B8FB129000287DD0F01C82B2002114
:105A7000129800F0EDF8002811D1E80720D020227C
:105A80000020149907F0A6FB0B90002807D0F01C0B
:105A900082B200210B9800F0DBF8002810D08020A3
:105AA000FEF7E8FC1298002802D0002107F0EEFB78
:105AB0000B98002802D0002107F0E8FB6420C3E621
:105AC000A1690A98069A08182499FAF73AFD1698D7
:105AD0008078012801D10498E083002D46D0274B1F
