:020000041004E6
:1000000000600020D10F04107F0F0410810F041036
:10001000AA5555AA45554C420000000000000000BA
:10002000000000000000000000000000830F04102A
:100030000000000000000000850F041019340410B7
:1000400029340410870F0410000000000000000095
:1000500021340410890F041011340410930F04107C
:100060000000000000000000000000000000000090
:1000700000000000950F041069340410970F04105D
:10008000000000008B0F04108D0F04108F0F041060
:1000900061340410910F04107B0F04107D0F0410C5
:1000A0000000000000000000000000000000000050
:1000B0000000000000000000000000000000000040
:1000C000F0B543464C4655465E466746F8B40E4C7E
:1000D0006B4623600D4C20680D4C20600D4C206851
:1000E0000D4C20600D4C20680D4C2060BFF34F8FED
:1000F00030BF054C2468A546F8BC9846A146AA46E0
:10010000B346BC46F0BDC0460800002004ED00E048
:100110008813002024ED00E07C13002000E200E0C2
:100120008C13002002780B78002A03D001300131B3
:100130009A42F7D0D01A70470023C25C0133002ADC
:10014000FBD1581E7047000002B4714649084900AF
:10015000095C49008E4402BC7047C0460022430837
:100160008B4274D303098B425FD3030A8B4244D37F
:10017000030B8B4228D3030C8B420DD3FF220902C1
:1001800012BA030C8B4202D31212090265D0030B80
:100190008B4219D300E0090AC30B8B4201D3CB0376
:1001A000C01A5241830B8B4201D38B03C01A5241B8
:1001B000430B8B4201D34B03C01A5241030B8B42BA
:1001C00001D30B03C01A5241C30A8B4201D3CB02A5
:1001D000C01A5241830A8B4201D38B02C01A52418A
:1001E000430A8B4201D34B02C01A5241030A8B428D
:1001F00001D30B02C01A5241CDD2C3098B4201D3A5
:10020000CB01C01A524183098B4201D38B01C01A22
:10021000524143098B4201D34B01C01A5241030999
:100220008B4201D30B01C01A5241C3088B4201D348
:10023000CB00C01A524183088B4201D38B00C01AF5
:10024000524143088B4201D34B00C01A5241411A1C
:1002500000D20146524110467047FFE701B5002029
:1002600000F0F0F802BDC0460029F7D076E77047ED
:1002700003460B437FD4002243088B4274D3030907
:100280008B425FD3030A8B4244D3030B8B4228D3A8
:10029000030C8B420DD3FF22090212BA030C8B42CE
:1002A00002D31212090265D0030B8B4219D300E06E
:1002B000090AC30B8B4201D3CB03C01A5241830BF3
:1002C0008B4201D38B03C01A5241430B8B4201D3A3
:1002D0004B03C01A5241030B8B4201D30B03C01ACC
:1002E0005241C30A8B4201D3CB02C01A5241830A46
:1002F0008B4201D38B02C01A5241430A8B4201D375
:100300004B02C01A5241030A8B4201D30B02C01A9E
:100310005241CDD2C3098B4201D3CB01C01A524105
:1003200083098B4201D38B01C01A524143098B428E
:1003300001D34B01C01A524103098B4201D30B0177
:10034000C01A5241C3088B4201D3CB00C01A52419C
:1003500083088B4201D38B00C01A524143088B4261
:1003600001D34B00C01A5241411A00D201465241FA
:10037000104670475DE0CA0F00D04942031000D319
:100380004042534000229C4603098B422DD3030A6E
:100390008B4212D3FC22890112BA030A8B420CD37E
:1003A000890192118B4208D3890192118B4204D3A7
:1003B00089013AD0921100E08909C3098B4201D327
:1003C000CB01C01A524183098B4201D38B01C01A61
:1003D000524143098B4201D34B01C01A52410309D8
:1003E0008B4201D30B01C01A5241C3088B4201D387
:1003F000CB00C01A524183088B4201D38B00C01A34
:100400005241D9D243088B4201D34B00C01A52410A
:10041000411A00D20146634652415B10104601D397
:100420004042002B00D54942704763465B1000D321
:10043000404201B5002000F005F802BD0029F8D0C7
:1004400016E770477047C046437802781B021A438C
:100450008378C0781B041343000618437047C046D6
:10046000030A4B70030C8B70030E0870CB7070473F
:1004700003005A7800781202024398781979000430
:100480000243D878000610435A7912020A43997938
:1004900009040A43D979090611437047030A5370C6
:1004A000030C9370030ED3700B0A53710B0C9371F2
:1004B0000B0E10701171D3717047C046024A136859
:1004C000013313607047C04610030020C021074A63
:1004D000074B08485360036A09061B021B0A0B43BB
:1004E00003620023936007331360704710E000E05D
:1004F0007E3E000000ED00E00E4AD3691B061B0F94
:100500004370D9B2D3690C4A1B071B0F83700B4B86
:100510001B68436093420BD102230370002901D171
:1005200001234370064B9B8A01339B008360704715
:100530000123F2E70000904041A000022800904013
:1005400000001040F0B5070085B001AC0E0020009F
:100550001500FFF7D1FF23783B7063783370A378E1
:100560002B7005B0F0BD10B503F00BFB10BD10B53E
:1005700003F022FB10BD10B503F0F4FA10BD0078B3
:10058000C0B27047024A138ADB07FCD57047C046E9
:1005900000001040084B10B51A68084B9A4209D168
:1005A0003F22074B40061A81000C2E3A98611A80B0
:1005B000FFF7E8FF10BDC04614000020CCBCECFCE7
:1005C00000001040084B10B51A68084B9A4209D138
:1005D0003F22074B80081A810C3A986119641A80EF
:1005E000FFF7D0FF10BDC04614000020CCBCECFCCF
:1005F000000010400379F7B50168002B30D180224C
:10060000D20553688B435360202580220021066861
:100610006D42D20533000124CB4023420DD0037933
:10062000CCB20193072924D80F238F00BB40D46A92
:100630009C43019BBB401C43D462013104351A2901
:10064000E8D180234279DB05012A39D1DA683243C7
:10065000DA608279012A36D19A6816439E60F7BD26
:10066000062BD1D1002380220371D20553680B439E
:10067000C9E72700083F072F08D80F27019BAF4085
:10068000AB40146BBC4323431363D6E7103C072CE9
:100690000AD82F000F23203FBB40546B9C43019B83
:1006A000BB401C435463C8E72F000F23403FBB40AF
:1006B000148F9C43019BBB401C43A4B21487BCE72E
:1006C000DA68B243C4E79A68B2439A60C7E7802306
:1006D000DB05D86370478023DB05186470478022F0
:1006E000D20513685840106070478022D205936A83
:1006F0001843906270478023DB055B6A1840431EF5
:100700009841C0B270470000012270B503880D0007
:100710009343038049790400080023880232274E5E
:1007200010404003334003432380254B4900C85AFF
:100730002968244B4843181A234B994229D8490069
:10074000FFF70CFD3022238893432380C023626887
:1007500092B29B02134363606368EA889B0A9B0220
:1007600013430322062180B2636020852B791A404F
:10077000238852008B43134323802A7A0823012ABB
:1007800018D1228813432380012322881343238016
:1007900070BD0E4B9942DFD85143FFF7DFFC30228A
:1007A000238893431A001023134323806268802315
:1007B00092B2CEE722889A432280E5E7FF9FFFFFAF
:1007C0009E2900200024F400A0860100801A060063
:1007D00001230288002902D01343038070479A4303
:1007E0000280FBE78A880B881343CA8813430A896F
:1007F00013434A8849895200C9030A431343C3601B
:100800007047C36A002A02D01943C16270478B4304
:10081000C362FBE701747047007EC0B2704780235B
:100820000288134303807047802302885B001343D0
:1008300003807047406B0840411E8841C0B270473A
:10084000816370471022038B30B593430383038B7E
:10085000921893430383037D193A93430375037DF1
:100860003132934303750A780324038B802A23D102
:10087000A34303838023028B5B001343802207255D
:100880000383CB780374038B134303838B888380A8
:10089000CB880381038B934303834B78047D2B40E8
:1008A000AC431C4304758A783821037D2A40D2006A
:1008B0008B431343037530BD2240A343134303838B
:1008C000038B014A1340D9E7FFFEFFFF8023028B11
:1008D000012902D11343038370479A430283FBE744
:1008E000002908D10123018B1A400F3312019943CB
:1008F0000A43028370470129FCD1038B0A401F3150
:1009000052018B431A43F4E70901037F012A03D103
:100910001943C9B2017770478B430377FBE7013076
:10092000C37F1943C1777047C02380221B06197803
:1009300052420A437F211A701A780A401A7070478F
:10094000C02301211B061A780A431A701A788A43B9
:100950001A707047C0231B0618688007C00F7047C5
:10096000024B1868431E9841C0B27047000400C093
:1009700030B50300012811D0022811D00120032B2B
:100980000BD1084A08000B0020301D685C1A0433A4
:10099000A5508342F9D10020106230BD024AF1E730
:1009A000024AEFE7B40400C06C0400C0900400C029
:1009B000030001280FD002280FD00120032B09D1FA
:1009C000074B1A00C91A20321878C85401339342D1
:1009D000FAD100207047034BF3E7034BF1E7C04621
:1009E000B40400C06C0400C0900400C0044B1A6A38
:1009F000012902D110431862704782431A62FBE753
:100A000000009040054B0122196B002802D00A43D8
:100A10001A63704791431963FBE7C04600003040FA
:100A2000F8B54A4C0500236B01681B0700D56DE043
:100A300009014748FFF792FBC3099AB2A284454ACD
:100A4000DB0101301340C01A400880B23F2802D9B0
:100A50003F233F381840032760263F4BC0B2187031
:100A60003E4B2A7918783A405201B043104318702F
:100A700001206979227F39404901B2430A43227734
:100A8000AA7919780240BA4007308143114319709E
:100A9000217F81430A432277EA79002A38D1022153
:100AA0001A788A431A70227F8A43012022772A7A91
:100AB000216B1600C2402A4F06407602394031436E
:100AC0002163216B274E0240314012020A43226308
:100AD000697A226B0E00C140234F06403A40B603AC
:100AE00032432263226B214E01403240C90311433D
:100AF0002163AA7A197802400F3012018143114311
:100B00001970237F83431A432277F8BDC90090E709
:100B1000022A0CD1042019781143197019788143E5
:100B20001970217F0A432277227F8243BDE7022189
:100B30001A780A431A700422187810431870207F1C
:100B400001432177217F0A43AFE7C04600003040D0
:100B50000000127A80FF7F00280030402C003040D7
:100B6000FFFDFFFFFFFEFFFFFFBFFFFFFF7FFFFF58
:100B7000044B1A8F002902D0104318877047824314
:100B80001A87FBE700003040024BC005C00D1880FB
:100B90007047C04600003040014B1888C0B2704713
:100BA00000003040054B002805DA5B681840431E02
:100BB0009841C0B270471B8BF8E7C0460000304038
:100BC000034B9B8F1840431E9841C0B27047C046EC
:100BD000000030400722024038200449D2000B7840
:100BE00083431800104308707047C04634003040FB
:100BF000F0B583780178002B33D040784AB2800179
:100C0000002A1BDA0F230B40083B1B4A9B089B0062
:100C10009B18FF22032517000D40ED00AF40024056
:100C2000AA40DE69BE433243DA611F224B091140FC
:100C30001E3A8A4011499B00CA50F0BDFF270F4B56
:100C400092089200D21803233C00C0250B40DB0021
:100C50009C4038409840AD005659A643304350510F
:100C6000E3E71F234A090B40012199401300034A7F
:100C700020339B00D150E0E700ED00E000E100E010
:100C800070B5012186B006000920FFF7AFFE00F025
:100C900083F81C4B01388000C3580024019300F0F6
:100CA0007BF8194B0138800001ADC35828002B7127
:100CB000AC716C71FFF79EFC00F06EF8134B0138BD
:100CC0008000C358019300F067F8114B0138800091
:100CD000C35828002B71FFF78DFC0125032303A8BF
:100CE0000371437103728471C471447285720396F7
:100CF000FFF796FE2000FFF76DFF2800FFF782FE4A
:100D000006B070BD909005108C900510889005106D
:100D100084900510042313B5040001A80370013B5F
:100D200043708470FFF764FF21001020FFF720FF5D
:100D300013BD00000B4A10B513680B49002B00D1FE
:100D4000116080241368640118180919884205D9B4
:100D50000C220120054B40421A6010BD10601800A3
:100D6000FBE7C04614130020140300203C29002098
:100D700010B502F006FF10BD10B502F002FF10BD65
:100D800010B50A00002102F017FF10BD0122014B2F
:100D90001A70704718130020014B1878C0B27047C2
:100DA0001813002010B50BF0B3F910BD10B50AF000
:100DB000C9FD10BD10B50BF07FF810BD7FB50BAEAF
:100DC000368808AC09AD2D88248803960A9E0195C3
:100DD000029600940BF08CFA7FBD7FB508AC20CC56
:100DE0000AAE247836780194029600950BF0C2F989
:100DF00004B070BD10B504F085F910BD10B50CF04D
:100E0000B7FE10BD01207047F0B58DB012AC24784C
:100E100009930A9413AC248818AB1B880B9415AD66
:100E200014AC16AE17AF24882D8836883F880693F9
:100E30000B9B059701930A9B0496009303950294DC
:100E4000099B03F045FB0DB0F0BD10B503F0F9FBB5
:100E500010BD10B503F00CFF10BD10B504F086F8FE
:100E600010BD10B50FF0D8F810BD10B50CF080FD16
:100E700010BD10B50CF088F810BD10B504F018F9CD
:100E800010BD10B504F01CF910BD10B508F0D8FD68
:100E900010BD10B511F0F8FF10BD10B511F0DCFD5C
:100EA00010BD10B512F0EAF810BD10B511F0FCFD40
:100EB00010BD10B50BF05AFB10BD10B508F096FB35
:100EC00010BD10B50BF070FD10BD10B50BF09EFB02
:100ED00010BD10B50BF0B2FC10BD0120704710B56D
:100EE00007F014FC10BD10B514F0D6F810BD10B505
:100EF00014F0A4F810BD10B514F086F810BD10B5AC
:100F000014F090FA10BD0120704710B514F0E4FA07
:100F100010BD10B514F0CAFA10BD10B512F092FD54
:100F200010BD10B512F0AEFD10BD10B512F03CFEB4
:100F300010BD10B512F002FD10BD10B512F01EFD6F
:100F400010BD10B512F044FD10BD10B512F0B0FD8B
:100F500010BD10B512F0CEFD10BD10B511F0DAFDC8
:100F600010BD10B511F0A9FD10BD10B512F0B0F80C
:100F700010BD10B511F0C4FF10BD70477047704729
:100F800070477047704770477047704770477047A9
:100F90007047704770477047002210B5084B1A60C1
:100FA000084B1B7A934209D1074B1B89052B05D9A6
:100FB000064B01321A70FFF79CF8FEE7012010BDC6
:100FC0001400002000009040000010480C00002099
:100FD00070B5FFF7E1FF012817D100231448154928
:100FE000154C1A188A4216D3002314481449154C7C
:100FF0001A188A4213D30021134B144A934212D376
:101000000021134B134A93420FD3134B83F30888E9
:1010100001F080FF70BDE55804331560E1E7E55845
:1010200004331560E4E702C3E8E702C3EBE7C04618
:101030004C2900202C300020E8A2051008000020D8
:1010400034000020BCA20510C0000020CC0200200B
:10105000CC0200204C29002000600020002210B5A6
:10106000104B995CC9B2002917D11C2A14DC02204C
:1010700021249854501C1C54901C193C1C54901D45
:1010800019549B18802290219BB252021343C90528
:10109000CB60CB681342FCD110BD995C0131521872
:1010A000D2B2DEE7191300200023F0B5144AD45C55
:1010B000E4B2002C1ED1192B0FDC02253B275E1C4D
:1010C000D55497555E199055DE1C955535261D1D36
:1010D00056555D1D06335155D45402223B24094B0D
:1010E0001A705C709870DA7033321A71002259717C
:1010F0009A71F0BDD45C01341B19DBB2D7E7C0464E
:10110000191300208013002070B58AB003AC0600CC
:101110000D0019223D49200002F033FD6846FFF71B
:10112000EBF9002E59D04023A3732C33E372113B0B
:101130002375374B374A1B68190C914208D1702030
:10114000E17D1B018143E175E17D03400B43E375C4
:10115000314B1B68190C914208D1302061791B0179
:1011600081436171617903400B4363712B4B1B68B1
:10117000190C914207D10321E27D0B408A43E275AD
:10118000E27D1343E3750422E37A69469343E372F5
:101190006B465B78897893400B43112B08DDE37D28
:1011A0001A43E275E07AE17DC0B2C9B2FFF77CFF75
:1011B000802390222404240C5B021C43D205D460BB
:1011C000D1681942FCD16B466A465B7892781B0164
:1011D0001343112B01DDFFF741FF114B1A8B002A3E
:1011E000FCD001221A8316329A8100221A6195429C
:1011F00007D090231021DB0518691A6942400A4282
:10120000FBD0084A084B1A600AB070BD5090051018
:10121000E807001055AA0000E4070010B00700100E
:1012200000001048CCBCECFC140000200822C021B7
:10123000F8B53F4B3F4D9A803F4A0904136AFF209F
:101240002B400B43C0211362136A09061B021B0AC1
:101250000B431362C02292009446384B64469A585E
:10126000374E82433F38024360461A501A58C02016
:101270003240000202431A51C122FF2792009C58BB
:10128000BC433F3F3C439C509C583F373440044351
:101290009C509C582C409C509C582402240A0C437F
:1012A0009C500832944664469A58324002431A5180
:1012B0001A59C0242A402404224364461A511A5958
:1012C0001202120A0A431A51C4229200944664463A
:1012D0009A58324002431A511A59C0242A40240411
:1012E000224364461A511A591202120A0A431A5129
:1012F000C52292009C58BC432700C0242743C02429
:101300009F509F5824043E403043985098580540C1
:101310002C439C5098580002000A01439950012127
:101320000800FFF7F1FE074A074B1A6262B6F8BDE4
:1013300000001040FFFF00FF00ED00E000E100E0D2
:10134000FF00FFFF66000E000000904000B50300A4
:10135000032923D80800C522FEF7F6FE0221232523
:101360001B21197000215A70D5225971B43199711D
:101370001A39D97147311972D03959722931997294
:101380009531D9724F399A701973303A1239DA702F
:101390005973A33A38391A719973DA7300BD3B2136
:1013A000DFE73C21DDE73D21DBE700002A23F0B544
:1013B0008BB006AC23709B336370D523A370A52339
:1013C000E37000236371B433A3719A23E371E123C3
:1013D0002372112363723A23A372CF23E372802313
:1013E00023736E23022563733623764E1022210069
:1013F0003000A3732571E573FFF7B5F8724A734B9C
:1014000031001B7828000092012203F054F9071ED6
:1014100006D002206E4900F019FB47200BB0F0BD4A
:101420002B2323709A336370D523A370A523E37015
:10143000B423A3719A23E371E1232372112363720E
:101440003A23A372CF23E372802323736E23637343
:101450003623604E6071102221003000A373257185
:10146000E573FFF780F8584B320018885A4B049701
:101470000593102302970393019700950F3B2900D2
:1014800003F0FAF8071EC4D12C232370993363703C
:10149000D523A370A523E370B423A3719A23E3712A
:1014A000E1232372112363723A23A372CF23E372E1
:1014B000802323736E23637336236071102221000F
:1014C0003000A3732571E573FFF74DF83E4B3200F2
:1014D0001888424B049705931023029703930197B2
:1014E00000950C3B290003F0C7F8071E00D090E7D9
:1014F0002D23237098336370D523A370A523E37045
:10150000B423A3719A23E371E1232372112363723D
:101510003A23A372CF23E372802323736E23637372
:1015200036236071102221003000A3732571E5730A
:10153000FFF719F8244B32001888294B04970593BC
:10154000102302970393019700950F3B290003F0A6
:1015500093F8071E00D05CE72E2323709733637047
:10156000D523A370A523E370B423A3719A23E37159
:10157000E1232372112363723A23A372CF23E37210
:10158000802323736E23637336236071102221003E
:101590003000A3732571E573FEF7E5FF0A4B3200B7
:1015A0001888104B04970593102302970393019713
:1015B00000950F3B290003F05FF8002800D028E7D2
:1015C0002CE7C0462C190020EE140020A62900208C
:1015D000C1900510F41400200419002008190020FF
:1015E000F21400203C1900201A23F0B58BB006AC91
:1015F0002370BB33A370A523E37000236371B4335E
:10160000A3719A23E371E1232372112363723A23B6
:10161000A372CF23E372802323736E2302256373A7
:10162000C5273623284E102221003000A37367708F
:101630002571E573FEF797FF244A254B31005B784F
:1016400028000092012203F036F8061E06D0022080
:10165000204900F0FBF947200BB0F0BD1B2323709D
:10166000BA33A370A523E370B423A3719A23E37163
:10167000E1232372112363723A23A372CF23E3720F
:10168000802323736E23637336236770124F607158
:10169000102221003800A3732571E573FEF763FF64
:1016A0000A4B3A0018880D4B0496059310230393B8
:1016B0000F3B02931D33009301960B3B290002F070
:1016C000DBFF0028C3D1C7E72C19002090130020AE
:1016D000A629002094900510F4140020061500207F
:1016E0003A23F0B58BB006AC2370C5236370D523C5
:1016F000A370A523E37000236371B433A3719A230D
:10170000E371E1232372112363723A23A372CF237F
:10171000E372802323736E230225637336235F4EA7
:10172000102221003000A3732571E573FEF71BFF23
:101730005B4A5C4B31009B7828000092012202F04A
:10174000BAFF061E06D00220574900F07FF9472055
:101750000BB0F0BD3B2323708A336370D523A37095
:10176000A523E370B423A3719A23E371E1232372C9
:10177000112363723A23A372CF23E372802323736E
:101780006E2363733623494F6071102221003800A5
:10179000A3732571E573FEF7E6FE414B3A00188806
:1017A000434B04960593102303930F3B02931D3381
:1017B0000196009329000B3B02F05EFF061EC2D18A
:1017C0003C23237089336370D523A370A523E37072
:1017D000B423A3719A23E371E1232372112363726B
:1017E0003A23A372CF23E372802323736E236373A0
:1017F00036236071102221003800A3732571E57330
:10180000FEF7B1FE264B3A0018882A4B0496059342
:10181000102303930F3B02930D330196009329008D
:10182000053302F029FF061E00D08CE73D2323700C
:1018300088336370D523A370A523E370B423A37109
:101840009A23E371E1232372112363723A23A37273
:10185000CF23E372802323736E2363733623607177
:10186000102221003800A3732571E573FEF77BFE7B
:101870000B4B3A001888104B0496059310230393E2
:101880000F3B02930D33009301960633290002F0BB
:10189000F3FE002800D056E75AE7C0462C19002076
:1018A0000C190020A6290020A9900510F41400208E
:1018B0000619002060140020681400201FB50400E1
:1018C0000D4800F0DBF80D4B1A880D4B19880D4BB5
:1018D0001888132303940024029300930194123B6D
:1018E00002F02CFFA04204D00220074900F0AEF81D
:1018F000472004B010BDC04696910510061900207F
:101900000C19002040130020B69105107FB500226D
:101910001D4B1E4D03AC19882270288801230094AA
:1019200002F002FF1A49061E28D11A49200002F0CF
:101930004BF9194B2888198832000094042302F0CF
:10194000F3FE1649021E19D1154B28881B78237007
:10195000144B19880094012302F0E6FE1249021E7E
:101960000CD1124B28881B782370114B19880094D6
:10197000012302F0D9FE002804D00E49022000F015
:1019800065F8472004B070BD04190020EE14002053
:10199000D790051001910510081900200691051037
:1019A00004150020F2140020359105100E190020B6
:1019B0003C1900206491051000230B4A13600B4A68
:1019C00013700B4A13700B4A13700B4B0B4A5A607F
:1019D0000B4A9A600B4ADA600B4A1A610B4A5A6149
:1019E0000B4A9A617047C04664140020EC14002032
:1019F000F01400206A1400206C140020E0910510FF
:101A0000EF910510FF9105100E9205101E92051022
:101A10002C920510094B01201B68002B0CD1084BA0
:101A20001B78002B08D1074B1B78002B04D1064BE9
:101A30001878431E9841C0B27047C0466414002015
:101A4000EC140020F01400206A14002010B50C00E3
:101A5000074B8000C05800F011F8064800F00EF85F
:101A6000200000F00BF8044800F008F810BDC04654
:101A70006C140020D7940510C893051010B501F020
:101A800028FA10BDF7B50500134801F022FA052425
:101A90000F262B5D1A0911003731092A01D830327F
:101AA000110033401A0001A801703732092B01D808
:101AB00030331A00002342708370671E01F009FA68
:101AC000002C05D0054801F004FA3C007B1CE0D155
:101AD000034801F0FEF9F7BDD0940510D694051027
:101AE000C8930510F0B50E0085B001AF04000B22BD
:101AF0001149380002F045F83500002C03DA2D2397
:101B0000751C3370644220000A210135FEF7B0FBDA
:101B10000028F9D1287020000A21FEF78FFC7B5C99
:101B2000013D20002B700A21FEF7A2FB041EF2D11A
:101B3000300005B0F0BDC0469D9405101FB501A949
:101B4000FFF7D0FF01A801F0C4F905B000BD000007
:101B5000F0B5CD4C8DB000AF210002F03DF8CB497F
:101B60000600FEF7DFFA002809D1C94801F0B1F9F3
:101B7000C84801F0AEF9C84801F0ABF948E0C749E0
:101B80003000FEF7CFFA002801D1C548F4E7C54977
:101B90003000FEF7C7FA002816D1012302003B757A
:101BA0007875B8611423FB181B1801301A721328BA
:101BB000F8D143233B77BC337B77EF3BBB770433D0
:101BC000F81801F073FA23E0B7493000FEF7AAFADB
:101BD000051E20D100F0F0FFB44801F07AF9B448B6
:101BE00001F077F90626B34801F073F92800FFF7F2
:101BF000A5FFB148092D00DD200001F06AF9300091
:101C00006843AE4B0135C018FFF73CFF202DEAD1E9
:101C1000BD460DB0F0BDAA493000FEF783FA00289A
:101C200038D1092302003B75063B7B75B86114234C
:101C3000FB181B1801301A721328F8D1210000205C
:101C400001F0CAFF002801D19E4895E701F084FF0A
:101C500021003877002001F0BFFF0028F4D09A4D12
:101C60000124290001F0B8FF002801D11423A7E7BF
:101C7000072C0DD01022002102F08CF81423FB1841
:101C80001B19187229000020013401F0A5FFEBE7B1
:101C90008E4871E78E493000FEF744FA051E75D173
:101CA0006B462100FB6001F097FF002803D18948B3
:101CB00001F00FF957E001F04FFFC3B2060086486C
:101CC0001F2BF5D82100280001F086FF0028EED058
:101CD00001F042FFB8603B7A210028007B6001F0F0
:101CE0007BFF041EE3D07D4801F0F3F8FF231E4084
:101CF0003000FFF723FF7A4801F0EBF806235E433C
:101D00006E4BF6183000FFF7BDFE764801F0E1F8A3
:101D1000FF23B8681840FFF711FF734801F0D9F8A6
:101D2000200001F0D6F85C4801F0D3F8142379685C
:101D3000F818FFF70BFB2000FEF7FEF96B46400892
:101D40000730C008C0001B1A9D46BB602000FEF78C
:101D5000F3F9A8420AD814234008C1B2FB18BA68A4
:101D6000300000F0D3FAFB689D4651E710220021B5
:101D7000635DB8183B7463195B78B9747B7402F0C7
:101D800009F8BA686B10D0540235DFE757493000C4
:101D9000FEF7C8F9051E00D0B6E06B462100FB60D7
:101DA000B86101F019FF002801D1514880E70A22EB
:101DB000290001F0EFFFC0B238750A2801D94D485B
:101DC00076E72100280001F007FF0028EDD00A2265
:101DD000002101F0DFFF21007875002001F0FCFEFA
:101DE000041EE2D0444801F074F8387DFFF7A6FEE7
:101DF000424801F06EF8787DFFF7A0FE404801F000
:101E000068F8200001F065F8234801F062F820002E
:101E1000FEF792F96A464608F31DDB08DB00D31A89
:101E20009D462000BB60FEF787F9272810D935486A
:101E30003EE710220021635DB8183B7463195B789C
:101E4000B9747B7401F0A6FFBA686B10D0540235E8
:101E50002000FEF771F9A842EBD8002319009E423A
:101E60000BD81422BA18D21811720133132BF6D1E1
:101E70000133F81801F01AF975E7BA68D05C14223A
:101E8000BA18D2181072F0E7359305103992051080
:101E90004192051001910510C89305105B92051041
:101EA00060920510089305100F9305101893051004
:101EB000269305106094051034930510AD21002081
:101EC000379305103F930510B99405105A930510E8
:101ED000679305106E930510B7930510CA9305100C
:101EE000E7930510EF930510FA930510069405107B
:101EF0000E940510399405104C9405106594051046
:101F0000729405107C940510004835E68A940510FB
:101F100070B50400134800F0DCFF134800F0D9FF4F
:101F20002078FFF70BFE114800F0D3FF6078FFF731
:101F300005FE0F4800F0CDFF6068FFF7FFFD2500AC
:101F40000C4800F0C6FF08351B340B4800F0C1FFF9
:101F500028780135FFF7F2FDA542F6D1074800F0D9
:101F6000B8FF70BDA8940510B1940510B694051083
:101F7000BB940510C294051035930510CC94051040
:101F800070B50400104800F0A4FF104800F0A1FF55
:101F90002078FFF7D3FD0E4800F09BFF6078FFF735
:101FA000CDFD0C4800F095FFA51C15340A4800F043
:101FB00090FF28780135FFF7C1FDA542F6D107480B
:101FC00000F087FF70BDC046DA940510E394051059
:101FD000E9940510F594051035930510CD9405107E
:101FE00010B5FEF7D3FEE1204002FEF749FE0120C6
:101FF000FEF790FE0148FFF741FD10BD009505106A
:1020000070B5434A86B00621002002F0BEFB0028CE
:1020100003D040490220FFF719FD0521012002F0FD
:10202000B0FB02F07DFB3C49041E25D13B4B3C4DEF
:102030003C4E0193010000962B001022052002F077
:1020400074FA041E09D002203749FFF7FFFC200074
:10205000FFF774FD200006B070BD32881026334BA8
:1020600029880393029601900096030002F066FB14
:102070000400051E04D02E490220FFF7E7FCE9E723
:102080002C4B01210393072304900290009302003C
:1020900003000196080002F061FA2749041EEBD103
:1020A0002648FFF7EBFCFFF781F9041E08D124480E
:1020B000FFF7E4FCFFF798FA041E03D02149DBE7A1
:1020C0002149D9E72148FFF7D9FCFFF709FB041E96
:1020D00001D01F49D0E71F48FFF7D0FC1E4B1C78EA
:1020E000002CB7D01D4800F005FE8021C9012B004F
:1020F0002A000800FEF7A9FE041E05D01849022098
:10210000FFF7A4FC2C00A5E71648FFF7B7FCA1E7F2
:10211000B0290020079705102A97051014230020E6
:10212000302300201A230020419705103A23002075
:102130005797051040E201007F970510AF970510F3
:10214000D397051031980510F497051011980510D4
:10215000709805104D980510C8200020AA2900206D
:102160008F980510BD98051010B51148FFF786FC33
:102170001048FFF787FC104802F050FB002806D0FB
:102180000E490220FFF762FC01220D4B1A70FFF787
:1021900037FF002807D00B490220FFF757FC012228
:1021A000074B1A7010BD0848FFF768FCFAE7C046F5
:1021B00091960510B02900201C950510AA960510CF
:1021C000F0140020D2960510E8960510092330B5CA
:1021D00001248FB009AD134A2B70631ED35C2B55BD
:1021E0000134112CF9D10021080006F027FC002051
:1021F000F022C82106900590049003900295019466
:1022000000900300D200C90002F0F0F9002805D0C8
:1022100005490220FFF71AFC0FB030BD0348FFF755
:102220002DFCF9E73A230020B9990510DB99051038
:1022300010B502F0FCF9041E05D005490220FFF795
:1022400005FC200010BD0348FFF718FCF9E7C04665
:10225000039A0510299A0510FA2210B5D20088B009
:102260002821069205923C2202910191802104923C
:102270000022C9010300039200920800FEF7C4FD8A
:10228000041E06D00D490220FFF7E0FB200008B035
:1022900010BD0B48FFF7F2FB0A4C0B4B1B68002BE1
:1022A00007D1002C01D1FF34F0E702F073FA013CB2
:1022B000F3E763425C416442E4B2E7E7F19805105A
:1022C00012990510A08601003C13002070B50C4D3A
:1022D00047242B68002B11D00A4B1321188880B299
:1022E00002F0B3F9041E06D007490220FFF7AEFB47
:1022F00004E002F04FFA2B68002BFAD1200070BDE9
:102300003C13002040130020559A0510F0B506003C
:1023100089B03F481C0002910392FFF7AFFB3D4F8D
:102320003B68002B60D03C48FFF7A8FB3B4D3B6867
:10233000002B08D0002D02D1FFF7C8FF05E002F006
:1023400029FA013DF3E7002DF6D03000FFF784FFB6
:10235000002852D104AD102221002800FEF703F915
:1023600026002F48FFF78AFB10362078FFF7E6FBA0
:1023700001342C48FFF782FBB442F6D12A4C2000EE
:10238000FFF77CFB294E02233088294A80B2009552
:10239000012102F0B1F9274B1A88002A27D0002228
:1023A0001A803088198880B2013189B2039B029A61
:1023B00002F0E3F9051E09D01F490220FFF746FB92
:1023C0002800FFF7BBFB2000FFF758FB1B4B1A78D8
:1023D000002A0FD000221A70FFF778FF1848FFF785
:1023E0004DFB002009B0F0BDFFF722FFADE702F082
:1023F000D1F9D0E702F0CEF9E8E7FFF7E7FE11499F
:102400000220FFF723FB3000FFF73CFBE6E7C04666
:10241000289905103C1300203B990510A086010067
:102420005699051035930510C893051040130020E8
:10243000FFFF0000441300206099051042130020A4
:10244000A19905108599051010B50248FFF716FBF4
:1024500010BDC0465C95051010B50248FFF70EFB95
:1024600010BDC0465095051001220A4B10B51A60E8
:10247000094B0A481980FFF701FB0298FFF702FB9E
:102480000023074A0299C95CD1540133062BF9D1C4
:1024900010BDC0463C13002040130020819605105B
:1024A0002019002000230121054A10B51360054AB8
:1024B00005481170054A1380FFF7E0FA10BDC046C9
:1024C0003C130020A9290020489605104013002045
:1024D00010B504000348FFF7D1FA200002F006F916
:1024E00010BDC04627960510F7B504000748160032
:1024F0001F000D00FFF7C2FA002301970096290084
:102500001A00200002F02BF9F7BDC04630960510E6
:1025100070B53B4888B01D000E000C9CFFF7AEFA6A
:10252000384B1B8801339E4206D122001321012023
:1025300000F05CFF08B070BD334B1B8801339E4236
:1025400044D12278637801A802704370092A15D01B
:10255000E278A37812021A4323791B041A436379A1
:102560001B06134343600023284CE15CC21801336F
:102570001172132BF9D100F099FDDBE700224260C4
:10258000012B0CD1A278224B1A70E278214B1A70E1
:102590002279214B1A706279204B1A70E3E7022BE3
:1025A000E1D1A279637912021A43E3791B041A4339
:1025B000237A1B0613431A4A1360A278144B1A702D
:1025C000E278184B1A702279174BE6E7174B1B88F5
:1025D00001339E4207D100230C4AAB42AADAE15CE8
:1025E000D1540133F9E7124B1B8801339E42A1D12C
:1025F0000023104AAB429DDAE15CD1540133F9E784
:102600008B9505100615002068140020002300207B
:10261000322300202F230020162300201723002020
:10262000342300201823002019230020061900203D
:10263000601400201C23002010B50C1E0CD00A4989
:102640000220FFF703FA0948FFF718FA2000FFF706
:1026500075FA0748FFF712FA0648FFF70FFA01224A
:10266000054B1A7010BDC046E99505100896051077
:10267000C89305101596051042130020F8B51500F3
:102680001E000E480F00FFF7F9F90D48FFF7F6F9A5
:102690002800FFF753FA3400A31B9D4205DC0948CC
:1026A000FFF7ECF9084B1F80F8BD0848FFF7E6F983
:1026B0002078FFF743FA0134EEE7C0469D950510F8
:1026C000DC950510C89305104413002035930510C0
:1026D00010B50248FFF7D2F910BDC0463A96051072
:1026E000F7B514240E000D0044430C19A54200D187
:1026F000F7BD2B78002B17D1B11C06226846FDF7D9
:1027000032FF0A48FFF7BAF96846FFF7BBF9084FEE
:102710006846390000F00CFB002805D00548FFF79B
:10272000ADF9380000F0E6FA1435DFE756960510EB
:10273000AA2900205D96051070B586B0022840D108
:102740002148FFF79BF90622204904A801F019FA55
:102750001F4D04A8290000F0EBFA041E31D11D48DA
:10276000FFF78CF92800FFF78DF91B4E2B5D3355D1
:102770000134062CFAD100F079FA32002100002051
:1027800002F003F8002803D014490220FFF75EF995
:10279000134B00201A88134B1988134B0190039395
:1027A000102302930093030001F0C8FF002803D018
:1027B0000E490220FFF74AF900F050FA00220C4BB4
:1027C0001A7006B070BDC0466B9505106990051073
:1027D000AA2900207A950510B02900200797051036
:1027E0001A230020302300203A2300205797051099
:1027F000C8200020012110B50800FEF7F7F810BD31
:1028000007B506236A46137100230090684693714A
:102810005371FDF7EFFE07BD07B504236A46137138
:1028200000230090684693715371FDF7E3FE07BDE6
:1028300007B501236A46137100230090684693711F
:102840005371FDF7D7FE07BD07B505236A4613711F
:1028500000230090684693715371FDF7CBFE07BDCE
:102860000023802030B5184A85B01370174A012123
:10287000C0001370FEF7BAF81020FFF7CDFF20203C
:10288000FFF7CAFF1248FFF7F9F801A90A00114B38
:1028900031CB31C2104C01252000FDF735FF01215D
:1028A0002000FDF795FF6A460E23684613700B3B28
:1028B00053709570FEF79CF92A0008492000FDF737
:1028C000A0FF05B030BDC0463923002038230020CA
:1028D000799A0510709005100000A04020809F5349
:1028E000F0B50E0087B0009001931B480CAB1700A9
:1028F0001D783400FDF793FFA31B9F4224DC6A463A
:10290000128803AC62808022002352012380E2807F
:10291000A3809D421ED08023DB01238180210122E0
:1029200009030D486781FDF76CFF21000A48FDF798
:1029300059FF0122094B1A70019A012A02D11A7813
:10294000002AFCD107B0F0BD21780348FDF762FFF3
:102950000134D1E72581E1E70000A04039230020C0
:102960000B000F21F0B589B069440B7000250123DD
:10297000170000951A000600FFF7B2FF802305A993
:102980005B01CB8080230124DB0107480B810C8095
:102990004E808D804F81FDF725FF044B1C701A7807
:1029A000002AFCD109B0F0BD0000A040382300206F
:1029B0000022014B1A70704738230020802100222A
:1029C00010B5034B090303481A70FDF71AFF10BD39
:1029D000392300200000A04010B51A48FDF7CFFDB4
:1029E000194C20701948FDF7CAFD194B1870194889
:1029F000FDF7C5FD184B18701848FFF73FF8207811
:102A0000FFF79CF81648FFF739F8164B164AFF21D6
:102A1000136000231548890004338B420CD1002336
:102A2000134914481A1DA42A08D100F09FF9FFF792
:102A30009BFBFFF715FF10BDD050EDE7C85013000A
:102A4000F0E7C04680EF07100E19002081EF071055
:102A50000415002082EF07100A190020869A05103D
:102A6000C8930510281900200815002064140020C0
:102A7000C0130020EC140020024B8000C150002045
:102A80007047C04608150020024B8000C15000204E
:102A90007047C046C0130020044B8000C35818681C
:102AA000034B1B68984200D102487047081500206C
:102AB00064140020FFFF0000F8B5314B1B78282B71
:102AC00005D9FF222F4B1A7028232D4A1370012499
:102AD0002D4E3000FDF753FD0500FFF72FF82B4F6B
:102AE000AD00EB592A4A1B6893421BD12000FFF727
:102AF00087FE7B5901361C60264B64009E42E8D15C
:102B00000E24254BE018FDF73AFD80003B581C6071
:102B100001341E2CF5D10025FF27194B1B789D424F
:102B200015DBF8BD1D4A934203D12000FFF774FE68
:102B3000DFE71B4A934203D12000FFF779FED8E775
:102B4000184A9342D5D12000FFF77EFED1E7164BFD
:102B5000EC1864002000FDF712FD0600601CFDF774
:102B60000EFD272E05D8114BB600F358187001350D
:102B7000D3E70F4B0F4906201F70FEF767FFF6E7FC
:102B80000A190020EC14002090EF0710081500200F
:102B9000FFFF00009EEF071092EF0710F0FF00000C
:102BA000F1FF0000F2FF0000D8F70308C013002077
:102BB0006A1400208E9A051070B5104D104C601EDE
:102BC000FDF7DDFC28702000FDF7D9FC6870601C63
:102BD000FDF7D5FCA870A01CFDF7D1FCE870E01C47
:102BE000FDF7CDFC2871201DFDF7C9FC054B08340D
:102BF000687106359C42E2D170BDC046AD2100200F
:102C000081BA071081BB071073B5114E0500300063
:102C10000C00FEF733FF062262430E4BD21800234E
:102C20006846E95C1954D1540133062BF8D13000C1
:102C3000009DFEF723FF084B2900E418E400200064
:102C4000FDF7C0FC6B46201D9988FDF7BBFC73BDEA
:102C5000F79A0510AD21002050F7000210B50021B1
:102C60000148FFF7D1FF10BDB02900206223F7B55E
:102C70001C4C1D4E23700A336370043BA37001ADDE
:102C80000633E3703078063329002371FEF72AFFFC
:102C900032782B78092A21D830226271A3717523EA
:102CA00002220F26E37111490C3B114D2372535D33
:102CB000180907003737092801D83030070033409A
:102CC00018000F703730092B01D8303318004870C6
:102CD0000231013AEBD26423E373F7BD63716B7881
:102CE000DCE7C0463A2300200E19002043230020D1
:102CF000B029002013B50400684605F017FE00282F
:102D000003D00A490220FEF7A1FE6B461B78237010
:102D10006B46DB7863706B469B79A370E123E370AD
:102D2000613B23717E3B637113BDC046A59A0510BC
:102D300010B50A7804780023944215D144784A7873
:102D4000944211D184788A7894420DD1C478CA789B
:102D5000944209D104790A79944205D1437948799A
:102D60001B1A58424341DBB2180010BD7FB5002347
:102D700058211C4AD1540133102BFBD1FFF71CFF03
:102D800006221949684600F0FCFE0622002102A82E
:102D900000F012FF154E69463000FFF7C9FF144DD1
:102DA000041E14D102A93000FFF7C2FF002810D082
:102DB000104AA35C2B550134062CFAD101220E4B8C
:102DC0000E481A70FEF75AFEFFF750FF7FBD002431
:102DD000EEE7335C2B5401300628FAD10022064B73
:102DE0001A70F1E73A2300207C900510AD210020F5
:102DF000B0290020B6290020C8200020D29A051052
:102E0000F8B5050000240626094F3100614328006B
:102E1000C919FFF78DFF002801D0E0B2F8BD0134D9
:102E2000202CF2D102200349FEF710FEFF20F5E727
:102E3000AD210020C49A0510202807D900230B706B
:102E40004B708B70CB700B714B71704706225043E7
:102E5000064BC25C18180A7043784B7083788B70ED
:102E6000C378CB7003790B714379EDE7AD21002076
:102E700010B51020FDF7A4FE002400280AD104009C
:102E80000C4A0D491378CC540133137011E0FDF74F
:102E900083FEC4B21020FDF785FE0028F7D00D2C6C
:102EA000EED10022034B044819781A704254FEF701
:102EB0004FFE10BDAC2100209C22002010B5040064
:102EC0002020FDF76FFE0128FAD0A0B2FDF75CFECE
:102ED00010BD10B504002078002800D110BDFFF708
:102EE000EDFF0134F7E7000070B5084C2378002BA4
:102EF00006D0074B1D78002D02D1FFF767F925702A
:102F000000F046FA00F046F970BDC046A92900203D
:102F1000C820002010B5FEF789F9FFF761F8FDF72A
:102F2000D5FAFEF749FDFFF757FDFFF763FC00F008
:102F300055F900F033FBFFF7BFFD00F03DFBFEF756
:102F4000E5FCFEF767FD002807D10648FEF796FD71
:102F500001F020FCFFF7C8FFFAE70348FEF78EFDFB
:102F6000FEE7C0460E9B05102E9B051010B50249CA
:102F70000420FEF76BFD10BD6D9B051010B50320FE
:102F80000249FEF763FDFF2010BDC046899B051076
:102F900010B503200249FEF759FDFF2010BDC046C1
:102FA000F39B051010B5132805D903200449FEF73B
:102FB0004DFDFF2010BD034B1B6818184078F9E742
:102FC000A49B051070280020F8B500240F4BE018D2
:102FD000FDF7D5FA0E4E0F4BA5192870E018FDF736
:102FE000CEFA0D4B6870E5180C4BE7182800FDF77A
:102FF000C6FA0B4BEB180135F054BD42F6D1E02375
:103000001C349B009C42E1D1F8BDC04680E407100F
:103010004419002081E4071083E4071096E40710A8
:10302000851BF8EF00231900124A10B51360124AED
:1030300012481370124A13701A181C331170E02BC7
:10304000FAD1104B104A114813600123104C99001B
:10305000132B0DDC54500133FF2BF8D100230D4A04
:103060000D49D15004332C2BFBD1FFF7ADFF10BD20
:103070005050F0E7C420002040190020CC20002050
:10308000C0200020912F0410C41C00207D2F0410AC
:10309000A52F0410702200206D2F0410024B800019
:1030A000C15000207047C04670220020F7B51C2791
:1030B000134E144C337805007B431B5D0193002BAA
:1030C00004D011490120FEF7C1FCF7BD0F48FEF7FF
:1030D000D5FC2800FEF71CFF33785F43E4190ECDC2
:1030E0000EC40ECD0EC42B68236033780133DBB2DF
:1030F00033703378072BE8D96B461B793370E4E7DC
:1031000040190020CC200020489B05105D9B051035
:1031100003001C2010B55843024BC018FFF7C6FF30
:1031200010BDC0464419002070B5050000240126DA
:103130003300A3406A68E0B21A4205D0044AA300F3
:10314000D35898472B1918720134132CF0D170BD45
:10315000C41C002010B504000B48FEF78FFC2000B3
:10316000FEF7D6FE2000FFF7DFFF23780A2B05D8F5
:10317000064A9B009B582000984710BD0449042034
:10318000FEF764FCF9E7C046C99B051070220020D9
:10319000DB9B051070B51C250D4C0E4E23786B4340
:1031A000985D002813D020780B4B68438019186075
:1031B000FFF7D0FF0022237801205D432378AA5532
:1031C0000133DBB223702378072B00D9227070BD46
:1031D000C0200020CC200020C420002010B5FFF724
:1031E00021FF00F0F9F800F049F810BDF8B500240F
:1031F000184BE018FDF7C3F9174E184BA5192870A6
:10320000E018FDF7BCF9164B6870E018FDF7B7F948
:10321000144BA870E518144BE7182800FDF7AFF918
:10322000124BEB180135F054BD42F6D1104BE518A6
:10323000104BE7182800FDF7A2F90F4BEB180135EA
:10324000F054BD42F6D1A4232934DB009C42CFD1F7
:10325000F8BDC04680C407104C23002081C407106D
:1032600082C4071084C4071097C407107F3BF8EF8F
:103270009CC40710AFC407107A3BF8EF10B5FFF7F6
:10328000B5FF00231900064A06481360064A13706A
:10329000064A13701A1815331170A82BFAD110BDF5
:1032A00070280020742800206C2800206D28002041
:1032B00084B0F8B51527144C09932378134E7B433B
:1032C0009D5D069007910892002D07D010490120BE
:1032D000FEF7BCFBF8BC08BC04B018470D48FEF76D
:1032E000CDFB06A8FEF74CFE20783A00784306A9ED
:1032F000301800F046FC23780133DBB223702378CA
:10330000072BE7D92570E5E76C28002074280020FA
:10331000199C05102E9C0510F8B5A4260500002464
:10332000F60019482A7823185978914211D19A78D1
:103330006B789A420DD12F00144AAB1C1537D17C03
:10334000002911D0012908D111788C4619788C45B3
:103350000AD02934B442E4D1F8BD02290CD1117845
:103360008C4619788C45F4D901330132BB42E6D141
:10337000005DFFF7CDFEECE70329F5D111788C460F
:1033800019788C45F0D3E4E74C2300204F2300202C
:1033900070B515250D4C0E4E23786B43985D0028B3
:1033A00013D020780B4B684380191860FFF7B4FFE7
:1033B0000022237801205D432378AA550133DBB234
:1033C00023702378072B00D9227070BD6D28002050
:1033D000742800207028002070470000024B8000F5
:1033E000C15000207047C0469413002070B50400FF
:1033F0000D0016000448FEF741FB044BA400310009
:103400002800E358984770BD3E9C05109413002097
:1034100010B506F081F910BD10B5FDF74FF810BDDD
:1034200010B5FFF725FD10BD70B50024E6B23000E1
:10343000FFF732FB094B050098420BD0FDF75BF913
:10344000012807D12800FDF750F9002230001100B3
:10345000FFF7CCFF01340B2CE8D170BDFFFF00005B
:1034600010B500F037F910BD802110B509031E48D2
:10347000FDF7E0F900282FD0FFF7A0FA80211A48C5
:103480000903FDF7DDF9802117484905FDF7D8F953
:10349000802115480902FDF7CDF900281BD01348FB
:1034A000FEF7ECFA08241048FDF7B6F9FEF746FBE4
:1034B000013C0F48FEF7E2FA002CF4D10D48FEF76C
:1034C000DDFA0948FDF7B0F9FFF772FA80210648E6
:1034D0000902FDF7B5F910BD802103484905FDF744
:1034E000A9F90028C8D1D3E70000A040FF93051038
:1034F00035930510C893051030B50F4889B00D00FD
:10350000FEF7BCFA012302AC0C482370FFF778FCED
:1035100000236070E95CE21801339170132BF9D13C
:103520006B46069A009206AA12791A710FCCFFF721
:10353000BFFE09B030BDC046629C051020190020B6
:1035400010B5040086B00D48FEF798FA607808348C
:10355000002804D12000FEF7B1F906B010BD69467D
:10356000FFF76AFC02A80021FDF7F0FE02AB220083
:1035700013216846FEF7CAFEEFE7C046509C0510CF
:1035800010B504490120FFF729FF03490120FFF787
:1035900085FD10BDF93404104135041010B5FFF756
:1035A000EFFF00F015F900F0E7F900F0F3F800F094
:1035B000B3F900F047F810BD10B500F055F800F071
:1035C00089FA10BD10B504001C48FEF757FA62785E
:1035D000022A1CD0032A2BD0012A17D10720184B0E
:1035E000197D81430A431A75217AFF22002901D0EF
:1035F0000F224A439A801A810122382152429A812D
:103600001A7D8A43110008220A431A7510BD072249
:103610000B490B7D93431A00012313430B75227A48
:10362000FF23002A01D00F2353438B800B81EDE74A
:103630000721034A137D8B431375E7E7749C05103C
:103640000000E04010B50549054B05200B60FFF771
:1036500013FA04490A20FFF721FD10BD1C290020A0
:10366000F1FF0000C53504101FB5174A174B12684B
:103670009A4228D8802001214001FDF7B7F9802324
:10368000002402A9CB7012487F338B80CB800C7052
:103690004C708C70FDF7D6F801210D48FDF716F936
:1036A000210001220A48FDF71BF9142301A8037029
:1036B0000134113B43708470FDF79AFA220008210F
:1036C0000348FDF721F91FBD1C290020FFEF000072
:1036D0000000E040072210B505480821037D934310
:1036E0000375037D313293430375FDF718F910BD5F
:1036F0000000E04010B50248FEF7C0F910BDC0461A
:10370000D09C0510F7B504001C48FEF7B7F96378A4
:10371000022B30D0032B05D0012B2BD11848FEF7FC
:10372000ADF927E00025267A002E01D1002D21D108
:1037300005236946E21A927B5A54013BF9D211489B
:10374000FEF79CF91048FEF799F93000FEF7F6F9FC
:103750000E4F07353800FEF791F96846FEF792F9EB
:103760003800FEF78BF931006846FFF74DFA073451
:10377000152DD8D1F7BD0648D1E7C046839C05106A
:10378000A49C0510909C051060940510C89305102A
:10379000B99C051010B504490920FFF71FFE034925
:1037A0000920FFF77BFC10BDF53604100537041027
:1037B00010B50248FEF762F910BDC046E99C05103D
:1037C00010B50248FEF75AF910BDC046DD9C051041
:1037D00010B5094B094902200B60FFF74DF9084964
:1037E0000220FFF751F907490220FFF7F7FD0649CC
:1037F0000220FFF753FC10BDFFFF00002829002026
:1038000034290020B1370410C137041010B5024824
:10381000FEF734F910BDC0463D9D051010B50400FB
:103820003348FEF72BF96378022B22D0032B3FD0CD
:10383000012B17D1247A2F48FEF720F92000FEF73C
:103840007DF92D48FEF71AF9032C0BD820002B4BDD
:10385000FCF77AFC02090B0D294A1068984201D046
:10386000FCF73DFF10BD274AF7E7274AF5E7274A4F
:10387000F3E7247A2648FEF701F92000FEF75EF907
:103880001D48FEF7FBF8032CECD820001B4BFCF77F
:103890005BFC02090B0D1A4A10689842E2D0FCF753
:1038A00016FFDFE7174AF7E7174AF5E7174AF3E786
:1038B000247A1848FEF7E2F82000FEF73FF90E4898
:1038C000FEF7DCF8032CCDD820000C4BFCF73CFCB9
:1038D00002090B0D0A4A10689842C3D0FCF7FBFEA0
:1038E000C0E7084AF7E7084AF5E7084AF3E7C046A1
:1038F000F59C0510039D0510C8930510FFFF0000FF
:1039000020290020382900202C29002024290020EB
:10391000169D0510299D051070B5104B104E114DC8
:10392000114C124901200B6033602B602360FFF7BC
:10393000A3F831000220FFF79FF829000320FFF7CA
:103940009BF821000420FFF797F809490720FFF7AB
:1039500045FD08490720FFF7A1FB70BDFFFF0000F0
:10396000382900202C29002024290020202900208B
:103970000D3804101D38041010B50349034B062000
:103980000B60FFF779F810BD30290020F0FF000030
:103990000D23F0B5012687B002AC0700237026483E
:1039A00003330D006370FEF769F802222100330033
:1039B0002B200096FEF794FF0E232048237067709B
:1039C000FEF75CF833000096022221002B20FEF760
:1039D00087FF0023237001335A1EAA5CE254082B90
:1039E000F9D101251648FEF749F8210009222B00DC
:1039F0002B200095FEF774FF0D2323700023114840
:103A00006370FEF73BF821002B0002222B2000956B
:103A1000FEF766FF0C48FEF731F80C4C0C48013CF1
:103A2000FEF72CF8002CF9D1012221002B20FEF703
:103A300097FF07B0F0BDC046029E05100F9E05100F
:103A40001E9E0510289E0510359E051010270000AB
:103A5000C9930510F0B5182301250D2687B002ACD7
:103A60000700184863702670FEF708F821002B0045
:103A7000022200952B20FEF733FF0E2312482370FD
:103A80006770FDF7FBFF2B002100022200952B2021
:103A9000FEF726FF0D48FDF7F1FF082200212B203D
:103AA000FEF75EFF00230A4863702670FDF7E6FF0D
:103AB00000952B00022221002B20FEF711FF07B0FA
:103AC000F0BDC046029E05100F9E05103A9E0510DF
:103AD000289E051037B5174A174B12689A4228D806
:103AE0001648FDF7CBFF00241548FDF7C7FF20005F
:103AF000FEF724F8134D2800FDF7C0FF1249E0003F
:103B000009180134C0B2FFF743FF102CECD1002498
:103B10000E48FDF7B3FF2000FEF710F82800FDF770
:103B2000ADFFE000C0B269460134FFF793FF102CEF
:103B3000EED137BD30290020EFFF0000CB9D0510EE
:103B4000E39D0510C89305104B9D0510F79D0510CA
:103B500010B500F01FF810BD10B50A22002100F0CA
:103B600019F910BD30B50024A24201D1002005E0B2
:103B7000035D651C0C5DA34201D0181B30BD2C00F9
:103B8000F2E7002310B59A4200D110BDCC5CC454BA
:103B90000133F8E710B5884202D98B18984208D350
:103BA00000239A4207D0CC5CC4540133F9E78B5C04
:103BB0008354013AFBD210BD03008218934200D116
:103BC000704719700133F9E7031C0A7801311A7044
:103BD0000133002AF9D17047F8B5134B06001D6870
:103BE0000F00E8352C68002C16D1502000F0F4F9B5
:103BF0002860046044608460C4600461446184613E
:103C00008462C462046344638463C463046444647C
:103C10008464C464047744622A6839003000012354
:103C200000F004F8F8BDC046BC290020F0B500281B
:103C300004D11068002801D1F0BD20000E000578E5
:103C4000441C3778002F04D1002D10D115602800B6
:103C5000F2E70136BD42F4D1002BEED114600370BF
:103C6000EAE733000EE001351C00002F02D10D0001
:103C70002678631C2F78BE42F5D1002EF1D00024A7
:103C8000591E0C701360D7E7F0B51F000E0087B007
:103C90000590039102920C98347800F097F908226D
:103CA00000194378751C13400CD12D2C0CD1013315
:103CB0002C780193B51C002F0CD0102F14D1302C70
:103CC0000AD011E02E00E6E701932B2CF3D12C78DB
:103CD000B51CF0E7302C2FD120222B789343582BA2
:103CE00051D110276C780235019B294A39009E1862
:103CF0003000FCF7B9FA300004913900FCF72EFAD5
:103D000001210023494202008C461800210030396D
:103D1000092913D80C00A7421CDD591C09D06346A1
:103D2000824206D302D10499A14202DB01237843E7
:103D300020182C780135E9E70A27D5E72100413919
:103D4000192901D8373CE6E721006139192901D842
:103D5000573CE0E75A1C08D1059A23331360029BB5
:103D60003000002B0BD107B0F0BD019A002A00D023
:103D70004042029A002AF6D0039A002B00D06A1E15
:103D8000029B1A60EFE73024002FADD10837ABE774
:103D9000FFFFFF7F37B51300064A05001068046A6D
:103DA000002C00D1044C0A0000942900FFF76CFF9E
:103DB0003EBDC046BC290020B02A0020F7B5254FE3
:103DC0000C00050000F028FB38000322224E1138B9
:103DD000B368001B5B6839009343C0180193FCF77C
:103DE000BDF9441E7C43BC4204DA280000F01CFBF1
:103DF0000020FEBD0021280000F01EFBB368019AE0
:103E00009B189842F1D16142280000F015FB431C39
:103E100010D10021280000F00FFBB268811A0F2991
:103E2000E3DD0E4B1B68C01A0D4B186001230B43DA
:103E30005360DAE7B2680126019B28001B1B33435D
:103E40005360074B1A68141B1C6000F0EDFA300039
:103E5000CFE7C046800000001C2C0020243000204A
:103E600048130020F7B50D1E01902DD000F0D4FAB4
:103E7000012329009C4608394F6862463B0066468C
:103E80009343C8184568023295434A4A37409668BA
:103E9000B0421AD15B19002F06D10868091A8D6843
:103EA0001B18C868E860856001201843486091606D
:103EB000414A1268934204D3404B01981968FFF7B6
:103EC0007DFF019800F0B0FAF7BD00264560B742CB
:103ED00009D10F683A4CC91BDB198F68A7422BD058
:103EE000CC68FC60A76047197C6801273C420BD175
:103EF0005B198568002E21D1314CA5421ED13E00B0
:103F000051611161CD608D60012005001D434D6040
:103F1000CB50002ED5D12B4DAB4213D8DB089D10D2
:103F2000A8405468DB00204350609A189368CA6028
:103F30008B609160D960C4E76646D4E7C068E860EA
:103F40008560E1E75D0A042D12D898093830C60073
:103F5000B618B5680327AE4225D1012380108340EF
:103F6000506803435360CE608D60B160E960A8E79C
:103F7000142D02D828005B30E9E7542D02D8180B25
:103F80006E30E4E7AA204000854202D8D80B773093
:103F9000DDE70D4E7E20B542D9D8980C7C30D6E7AF
:103FA000AD68AE4203D06A68BA439342F8D3EE6874
:103FB000D9E7C0461C2C00202830002078130020B0
:103FC000242C0020FF01000054050000EC300068A4
:103FD000704770477047000010B5034B0100186828
:103FE00000F004F810BDC046BC290020F0B50D005B
:103FF00085B00B350190162D08D907239D4306D5B2
:104000000C23019A1360002005B0F0BD10258D42ED
:10401000F6D3019800F000FAF823FF33BA489D4226
:104020001FD82A0008328218110054680839EB089A
:104030008C4203D1D4680233A24229D003236268A0
:10404000A1689A431300E268E318CA6091600122F4
:1040500059680A435A60019800F0E6F920000830D8
:10406000D2E76A0A3F23002A03D0042A28D8AB09E2
:10407000383303229446D9000918CC688C4206D004
:1040800066466268B243571B0F2F31DD013B013397
:104090000100046908318C424ED0032266689643C1
:1040A0003200761B0F2E31DD012763193D43374364
:1040B000656043610361D96099605F60A650CAE79B
:1040C000142A02D813005B33D3E7542A02D82B0BEF
:1040D0006E33CEE7AA235B009A4202D8EB0B77330C
:1040E000C7E78A497E238A42C3D8AB0C7C33C0E73A
:1040F000E668002F08DBA368DE60B3600123A21826
:1041000051680B435360A6E73400B7E74161016192
:10411000002EF3DA7E498A4242D8D208FF3996103F
:10412000FF39B1404668D2003143416010188268BF
:10413000E060A2608460D460012299108A407249D4
:104140004868824200D997E0104205D10324A34376
:10415000520004331042FBD09C46D800081802904D
:10416000029CE468029EB44258D1340008340294A0
:104170000124A444644603263442F1D1032423429B
:1041800074D14B6893434B6048685200824273D8A5
:10419000002A71D063461042DED104335200FAE7A0
:1041A000560A042E16D891093831CF003E1803273D
:1041B0000296BC46B668029FB74227D101228910F9
:1041C0008A4041680A434260029AA660E2609460B5
:1041D000F460B1E7142E02D831005B31E5E7542ECC
:1041E00002D8110B6E31E0E7AA2149008E4202D8B5
:1041F000D10B7731D9E7454F7E21BE42D5D8910CFE
:104200007C31D2E7B6680299B14204D06046716849
:1042100081438A42F6D3F2680292D5E703266768A3
:10422000B74303977E1B0F2E11DD0122631915433F
:104230006560E068A5680831E86032438560CB605E
:104240008B60D96099605A603B00E65003E7E768ED
:10425000002E09DB0122039BE31859680A435A60C8
:10426000A368DF60BB60F6E63C007BE70838846843
:10427000013BA04282D087E703238F687A689A4384
:104280000292954203D8521B0F2A00DD9FE0029B49
:10429000FB1803931F4B1E681F4B10361B687619C3
:1042A000013305D01D4B013B9E191C4B5B421E4048
:1042B0003100019800F0C0F80400431C5FD0039B5C
:1042C000834202D9104B9F4259D1154B1A68B1183D
:1042D0001960124B5A1E039BA34227D1134225D1CA
:1042E000029A094B921901269B6816435E600C4B9B
:1042F0000C4A1B6811688B4200D913600A4A116886
:104300008B423CD913603AE01C2C0020540500007D
:10431000FF010000781300202430002080000000FE
:104320004813002070130020741300202D4B1868D0
:10433000013032D11C600720204002D00823181A17
:104340002418294BA61918181640861B310001980D
:1043500000F072F8431C01D120000026234A001B04
:1043600013689B1913600123214A86191E43946028
:1043700066609742BBD0029A0F2A14D8636003226A
:104380001B4B9B685B6893435A1B9D4201D80F2AC5
:104390001DDC019800F048F835E6039BE31A5B1832
:1043A00012490B60C7E70722029E0C3E96437A68CB
:1043B0001340052233437B60BB195A609A600F2E6D
:1043C00095D9390001980831FFF74CFD8FE701239B
:1043D0001800074928438C681343651960608D6095
:1043E0006B6038E624300020800000004813002075
:1043F0001C2C002082B0002900D101A9101E06D07B
:10440000002B06D013780B601078431E984102B041
:10441000704702204042FAE710B50248FFF7D9FD85
:1044200010BDC0464429002010B50248FFF7D2FD58
:1044300010BDC04644290020002370B5064C05007D
:1044400008002360FCF776FC431C03D12368002B93
:1044500000D02B6070BDC0463C2900200B1E04D04C
:10446000FF2A04D98A2303608B3B180070470A7027
:104470000123FAE7F0B5054600200F46079E059C8C
:10448000174309D0202905D30127BF03BA4201D819
:10449000914201D94220F0BD194621430AD09C42E5
:1044A000F8D309498C4203D00849A41F8C42F1D2A9
:1044B000062BEFD3002D03D0022D01D0032DE9D11F
:1044C000032EE7D8F0BD0000FFFF00007B0C0000CA
:1044D000FFB58DB0144618AAECCA04976F466CC796
:1044E0000A46014605A8179B04F0B4FA00280AD131
:1044F00008A84471012C08D0002C06D0022C04D04E
:10450000032C02D0422011B0F0BD09A806220230CF
:104510001099FCF728F808A916980873C0B2032868
:10452000F0D805A800F072FBEDE77CB5069D079C6E
:10453000002805D0860705D1460703D4060701D415
:1045400042207CBD002903D0012901D00229F7D1E6
:104550000095019400F0B0FB7CBD0000FFB58DB06C
:10456000179F169D1446060004D0012E02D042204B
:1045700011B0F0BD0E98002801D00128F7D1E81F36
:104580000A28F4D2102FF2D8AF42F0D3189800289E
:1045900001D00128EBD1144919988842E7D81A981C
:1045A000002801D00128E2D1FCF7ADFC012804D09D
:1045B0001098204306D01120DAE7022CD7D81098A3
:1045C0000128D4D8684686700E99C170047310997A
:1045D0004173057147711899C17119980290684625
:1045E0001A990FF053FEC3E73F420F00FFB587B0A3
:1045F000109D159E169C01930295009407A807C86C
:104600001F463346FFF736FF00280ED11398149942
:1046100003AA069443C21198129901900095029141
:1046200007A807C83B4600F0D7FC0BB0F0BD10B59B
:1046300000F0EEFC040002D101200BF0C1FA20468C
:1046400010BD10B500F0FAFC10BD10B50BF048FB22
:1046500010BD70B51C4613460D46012C03D0022C2C
:1046600003D0422070BD022200E010221946FBF761
:104670007AFF2C70002070BDF0B587B01C460B4649
:10468000054600A9023101A80C9F0D9EFFF7E1FF2E
:1046900000280ED16846058084828775C6750E99FC
:1046A00001760F994176109981766946119802F04A
:1046B00087F807B0F0BD70B586B014461D460A46AF
:1046C00003466946881C0A9EFFF7C3FF002804D1F1
:1046D000012C04D0022C02D0422006B070BD23462B
:1046E0002A466946304602F0B1FAF6E710B50022D4
:1046F000114602F05BFB10BD70B586B00D46144646
:1047000006466946881C0A9AFFF7A3FF002805D1D0
:104710006B4622462946304600F09CFF06B070BD2D
:1047200010B502F06DFE10BD38B56D46049C2A80B0
:104730006B8023466A4603F007F938BDF0B585B0B3
:1047400084460AA8F0C868468581C68103A80190FE
:1047500002970094604603F02BF905B0F0BDFEB55A
:104760006C46099E089D2080618022716371E580FE
:104770006846029602F092FBFEBD10B501F05EFAAB
:1047800010BD10B503F044FE10BD10B503F062FE7D
:1047900010BD000010B504F091FA1E4C47212068AE
:1047A00049014118097A002909D1A0300079C007D0
:1047B00029D004F00BF803F061FF10F0D1FE00F0F7
:1047C00003F92068014640310A78C9798A4319D132
:1047D0003E21095C002915D10F490A88120711D51D
:1047E0000922D2061269497A836AC9005918092335
:1047F0001B02C018406D801A00020012814201DACB
:104800000CF084FE10BD00F0C7FB02F093FC0DF02D
:104810000FFED0E798290020C000002010B5837F4C
:104820000122002492024168082B03D942249142BC
:1048300002D310E0914201D242240CE0014634221E
:104840000648FBF790FE00F07FF8002801DA4824C4
:1048500001E000F029F9204610BD0000DC02002034
:104860003EB5174D15482968827F0846A0310A7366
:1048700000246030047644768476E122C276802279
:10488000027702224277302008704C7002AA01A9F8
:104890006846FBF757FE68460078A2220101684689
:1048A000007A891C00020143684600790003014335
:1048B00028681152A03004713EBD0000DC020020C7
:1048C0009829002070B504F0DDF90CF0D3F80AF057
:1048D00083FD11F059FC04F0ABFB184C184920681B
:1048E000184D4018811001202A68C00210188166F6
:1048F00061688908C166A168890801670FF054FCE6
:104900001D2029688001228B08180287628B42874C
:10491000A28B4286628C82862046203002783B2021
:104920004001081882750021017000F0C3FA03F0FD
:10493000B3FE03F03BFE10F099FE70BDDC020020D8
:104940000000FCEF9829002070B50025ED43FCF72E
:10495000C4FA01282ED0002318490322888BFF2493
:10496000401E10438A7F4D3462438218088B2824EE
:1049700060431218488B30246043121808462030D8
:1049800040782C24604310180D4A18188418486980
:10499000A0420DD10B4884420AD90D69FCF79DFA5B
:1049A000C1B2284609F076F909F0A4FA401B251A8D
:1049B000284670BDFF23B533CEE70000DC0200209F
:1049C00035190000540A0000F8B52C4F3C68206EE1
:1049D0005C34401C002814D0002529480023C07BEB
:1049E00000283ED00926F6062648002D1CD00021BE
:1049F0000A460B464169521C994204D1002902D053
:104A000004E00125E9E7204B9A42F2D321600069D6
:104A100060603069A1680002090E000A09060143BE
:104A2000A16000F033F81DE03169A2680902090AAB
:104A3000150E08D0018BC90712D0416921600069A9
:104A40006060E37210E0881A00027D2300121B03ED
:104A5000984205DD100E00060843A06000F016F82D
:104A6000F8BD6360002DFBD003CC0CF079FCFA207C
:104A70000CF066FC39688862F8BD000098290020B7
:104A8000FC020020000010488813000004490020A8
:104A900008610448012100686030C171704700005E
:104AA0000000104898290020F8B506263748402510
:104AB0000560374800270780A9050920C006416026
:104AC000344A91600168016033490C694A690321E5
:104AD000601E08430021401CFBF749FDFCF7FDF96F
:104AE000C1B2204609F0D6F809F004FA09F00EFA2E
:104AF000FCF7CBF9294917208881294CFA22206834
:104B00000146403047708A6228210170FCF77AF92B
:104B1000012805D12068102240300178114301702E
:104B2000FCF7F1F9012805D1206880224030017896
:104B3000114301702068A421095CC90704D0014613
:104B400040310A782A4303E0014640310A78324373
:104B50000A700021C9430166FBF7E6FEFFF780FEFD
:104B6000FFF7B0FE2068012120300177072141774F
:104B7000012003F04DFC06F00FFEFFF725FF034870
:104B80008038056002210160F8BD000080E100E08E
:104B9000C000002040000048DC0200200000104857
:104BA0009829002038B5184A14682246BA32AE3423
:104BB000A378DD0701D001290AD05B070CD50129B4
:104BC0000AD0217949070BD5E17A002905D007E001
:104BD000E07880210843E07038BD0121E172508007
:104BE00020794106090FF7D07821084069460870FE
:104BF000002048706A460221422000F0B9FB20796B
:104C000087210840207138BD98290020F8B5054655
:104C1000002768460770154846260468AE34207998
:104C20008006800F03D00021084608F06FF8A078B6
:104C3000400718D520794C21084214D10023287E42
:104C40006A4619460AF030FE00280DD16846007801
:104C500028762F74284607F021FF060003D120791B
:104C60004021084320713046F8BD000098290020FB
:104C700038B51048002104680846AE3408F046F8FC
:104C8000694648702079C10704D001216A46117035
:104C900088432071C0B2810705D502216A46117090
:104CA000FD210840207102216A46084600F060FBA1
:104CB00038BD000098290020FFB50C4678A103C933
:104CC00095B001910090002108A801730321C90249
:104CD00068464186012108A8734E0174356817465D
:104CE000AE3513F0B5FA002808D170493068401885
:104CF0000BF002F8A878002802D0462019B0F0BDC9
:104D00000BA81599FCF7B9F80028F7D1072010A9CE
:104D10000871012C05D0022C0AD0002C0ED04220A4
:104D2000ECE708A8017B1020014308A8017305E007
:104D300011A90BA8FCF75EF80028DFD110A80279B2
:104D400001230CA9284601F081FF00287ED1022210
:104D500029461898FBF707FC2988684681811521A8
:104D6000490201820784012686734E2108A88170BA
:104D70000024C470067107214171867103A902A83D
:104D800001F01EFD002861D1022202A91E98FBF746
:104D9000EAFB082F02D26846478502E008206946F0
:104DA000488569460C850B4628880AAA098902F0BD
:104DB000CBFD00286DD13E49684601820227078459
:104DC00008A8847103A902A801F0FAFC002860D1A8
:104DD000022202A91F98FBF7C6FB684604706946C9
:104DE00044704F850B4628880AAA098902F0ACFD59
:104DF00000284ED108A8007BC00723D02C49684664
:104E0000C91C01820821018408A88770047103A9C4
:104E100002A801F0D5FC00283BD1FF216846C171F2
:104E20008171C17081704170017044710471694673
:104E3000082048850B4628880AAA098902F084FDC3
:104E4000002826D108A8007B800600E021E022D5BA
:104E50002988684681811649A531018206848673B6
:104E600008A88770C470047107214171847103A977
:104E700002A801F0A5FC00280BD169460E700C8534
:104E80004E850B4628880AAA098902F05DFD002894
:104E900001D0472032E708A8007BA87000202DE74A
:104EA000626C75656E72672198290020DE0600002D
:104EB000012A0000034800210068AE30C1708170F3
:104EC000704700009829002070B50D4B1C68AE3467
:104ED0002379DD0612D45B0710D533280ED1E07A92
:104EE00002280BD10420107000205070C9B202209B
:104EF00000F03EFA2079FB210840207170BD0000CF
:104F00009829002038B50246174801240068AE30C1
:104F1000022A1FD0052A03D0072A07D00B2A20D146
:104F2000084609794088FFF73DFE1AE00079002421
:104F3000020600D50124820703D1C20601D48006EF
:104F40000FD5084600216A461170694600F0FCF84A
:104F5000044606E08178490703D50179FB22114018
:104F60000171204638BD00009829002010B509487D
:104F70000468AE34E07880070BD500200BF0D6FB38
:104F8000022000F0CDF9E07801210843FD2108401E
:104F9000E07010BD982900201FB50E480468AE349B
:104FA000E078010612D5A178C9070CD0800708D592
:104FB000042069460873684603F05CFF022000F095
:104FC000AFF90020E0704006400EE070FBF759FF9B
:104FD0001FBD000098290020F0B58DB00C4616A921
:104FE000E0C90021089109910A910B91159904914A
:104FF00005A9E0C112A962C90093019113460146B7
:10500000039602952246012000F0D0F80DB0F0BDC5
:10501000002000B58DB00A900B9008900990059083
:10502000069007900490009001900290034602467B
:105030000146039000F0BAF80DB000BDF0B5104C79
:105040004625246885B0AE34A678760714D526792F
:10505000B3273E4210D10AF037FD05000CD120796C
:105060000221084320710620694608730520C0020A
:105070000290684603F0B0FE284605B0F0BD00007F
:10508000982900200949B22209681423525CBA31D8
:105090001A4208D0498800050905090D000D814212
:1050A00001D101207047002070470000982900209E
:1050B00002780907090F0A430270002070470000B8
:1050C00030B50E4885B005682C46AE352879BA341F
:1050D000400711D5E87A01280ED11521490268460A
:1050E00041800121017060886B46054A00F008FB91
:1050F000002801D10220E87205B030BD98290020B7
:10510000FFFF00007CB50446E1200D46800006F05C
:1051100061F90BA103C900900191684603F06EFC90
:1051200001200CF0EFF9002801D047207CBD207849
:105130002021084320700920287000207CBD000039
:105140001F0200000000000030B5174B047A1B68F6
:10515000C268AE331B799D06AD0F04D100780428D8
:1051600001D000200BE0012030BD401CC0B2155C16
:10517000012D08D01518203DED7F2818C0B2A0429F
:10518000F3D3087830BD401CDD070124C0B2002DE8
:1051900002D0105CC00703E09B07F2D5105C8007CB
:1051A0000028EED00C70ECE798290020FFB595B0F0
:1051B0000E46054620210CA8FBF7E2FD00200490D6
:1051C000564800270468681EAE34042802D8A07828
:1051D000C0070BD0062D02D0002D0AD002E0A07827
:1051E000800703D5E0784006800E0AD0462019B02B
:1051F000F0BDA0788007F9D0E0784006800EF5D0A9
:105200000FE0002D0DD0012D20D0022D28D0062D2D
:1052100033D0032D33D0042D37D0002E3BD0422085
:10522000E5E700200BF082FA0028E0D1E078800763
:1052300008D5042069460873684603F01BFE022067
:1052400000F06EF80120E0700020D0E7012EE6D0DB
:10525000042EE4D01F980028E1D10627042008E09E
:10526000012EDCD0042EDAD01F980028D7D10527D4
:105270000220E0700120049010E040200DE0022E9A
:1052800001D0032ECBD1082007E0012E01D0042E3F
:10529000C5D1102001E004272020E07000230BAAD4
:1052A00019461E980AF000FB030002D000F0E4F853
:1052B00032E01022002107A8FBF759F907A86C4635
:1052C000279B269A1F990FC42B463046189A179988
:1052D00000F088F80300E9D108A8017BC170259887
:1052E00003AC049B289A29990FC422AB07CB0292E6
:1052F0000091019039460CA8209B219A00F0C6F835
:105300000300D3D107A80BF043FD0300CED1012049
:105310000BF00CFA0300C9D1184668E79829002061
:1053200010B50446C1061148006803D51522BF21F7
:105330000C4006E01B2189014118497EC90710D0A5
:1053400012222107890E08181121C9014018806F07
:105350000023214610F0D4F9010004D0204610F0BB
:10536000BBF9002010BD072010BD000098290020C7
:10537000F8B5891ECDB20646A81C03210843401C7F
:105380008308174817460068F10603D51C22BF2181
:105390000E4008E01B2189014118497E090601D40D
:1053A0000020F8BD19223107890E08181121C90102
:1053B0004018806F314610F0A3F904000ED0397800
:1053C000217179786171A5712A46B91CE01DFBF73E
:1053D000CAF82146304610F07FF9E1E70720F8BD12
:1053E00098290020F8B5224B224D1B68069C5B19BA
:1053F000009301239B03002814D0042812D0022814
:1054000014D0032812D006239C461E461D460F4684
:10541000174310D0914203D8A94201D39A420ED922
:105420004220F8BD3025AC46602602E0A025AC46FF
:10543000F0262025EBE761462180668001E021808F
:10544000628020710798A07108982072099800283E
:1054500005D00146204606220930FBF784F80720D4
:10546000607100982030807B60710020F8BD0000E2
:105470009829002004090000034881220068A03018
:10548000417C11404174704798290020F8B50546C9
:105490003D481E460068079F0024AE301346002991
:1054A00005D002222A7001226A70A9700324002EFE
:1054B00010D080788006800F0CD13019401C1F2836
:1054C00052D82E55641C281932461946FBF74BF862
:1054D000A019C4B2002F0DD03819401C1F2843D882
:1054E0002F55641CE4B228193A460699FBF73BF89D
:1054F000E019C4B26846008C00281BD06846808C36
:10550000002817D0601D1F282ED805202855641CA0
:10551000E0B212212954401CC4B2281906460222C6
:1055200008A9FBF720F8B01C022209A9FBF71BF819
:10553000241DE4B20C98002810D0E01C1F2813D8BA
:1055400002202855641CE0B20A212954401CC0B234
:105550002918401CC4B208460BF0AAFE0B9800287C
:105560000CD000191F2801D94220F8BD28190B9A28
:105570000A99FAF7F8FF0B982018C4B2214628467A
:105580000BF062FBF8BD00009829002000B500F088
:1055900009F8002805D0852201699201114200D046
:1055A000002000BD10B50D4900050B68052149021A
:1055B00059184A690021000DA0331B7B0AE04C01F9
:1055C000145B2405240D844202D14801801810BDCB
:1055D000491CC9B28B42F2D8002010BD9829002086
:1055E00004490A683B21490151180A7802430A70AC
:1055F0007047000098290020FEB58C68CD88267B76
:10560000012E01D00020FEBD4126052D01D01E70C7
:1056100019E0247C0A2C00D01E70002A0DD0896865
:10562000052268460C31FAF79EFF6D1E00AAA9B24A
:1056300032200132FFF748FC05E000880A460146A7
:10564000022000F021FD4120FEBD10B5102100F028
:105650009DF810BDFFB589B0074646261D7810227B
:10566000991C05A8FBF784FB012D04D0022D02D064
:1056700042200DB0F0BD3846FFF788FF040037D058
:1056800020223946002009F085FE07002FD0194856
:105690006946088001200490394620460B9B0A9AEF
:1056A0000AF0A7F8060004D00021384609F0CEFE23
:1056B0001EE00B98A081A068012D0FD0102205A933
:1056C000FAF751FF25710121206949030843206140
:1056D0000948A061384600F093FF09E0102207490D
:1056E000FAF741FFA068022205A90C30E8E764261A
:1056F0003046BEE7032800004B56041084A1051075
:10570000FFB589B0074646251E781022991C05A8CA
:10571000FBF72EFB012E04D0022E02D042200DB04A
:10572000F0BD3846FFF732FF040024D0202239466E
:10573000002009F02FFE07001CD005AD04960FCD08
:105740006D460FC5394620460B9B0A9A0AF051F860
:10575000050004D00021384609F078FE0BE0012155
:1057600020694903084320610448A061384600F0DD
:1057700047FF00E064252846D1E700008157041068
:1057800010B5502100F096F910BD0000F0B593B0AF
:105790000E4604460020694608760190E0690790AD
:1057A000002827D0C788002F7DD0B006800F03D0F7
:1057B0002088FFF767FC019006AB2046019A079905
:1057C000FFF71AFF412861D0B81E80B200900798F9
:1057D0008068457B002D56D0F006F1070390002924
:1057E0000FD0022F0DD329460098FAF73DFD00296E
:1057F00003D006E0412013B0F0BD062D17D0142DC4
:1058000015D0B00708D5052F06D30321B80789079F
:10581000C84201D1022048E070070ED5022F0CD3F8
:1058200029460098FAF720FD002902D005E0012062
:105830003BE0082D0DD0062D0BD00398800F0ED025
:10584000022F0CD329460098FAF70EFD002902D04A
:1058500005E0042029E0072D08D0152D06D0B0065C
:1058600011D5012D04D0022D04D00CE008201CE03D
:10587000042500E01225022F05D929460098FAF7E1
:10588000F3FC002910D041206946087601212069E7
:10589000490388432061019800287DD006AA012190
:1058A0003120FFF711FBF6E01020810706D57D4976
:1058B000B8034018070CB800C01C0EE0C0060098E2
:1058C000294604D5401CFAF7CFFC87B202E0FAF76C
:1058D000CBFC0746781E6843801D81B205AB0222CF
:1058E000079809F017FDF0064ED56946A089898A08
:1058F000884202D9206941065BD4002041E0072D8F
:105900000AD068430B3082B21023A168079809F0CF
:1059100097FD002815D031E01022634908A8FAF756
:1059200022FE02980BABC100081A0B3081B2022292
:10593000079809F0EFFC102208A8A168FAF71BFEEF
:10594000E7E7019800280ED002980CAB6843801D51
:1059500081B22A46079809F0DDFC0CAA29463320BB
:10596000FFF7B2FA0AE00798009002982B466843C6
:10597000801CC2B22188022000F044FB0298401C27
:1059800080B20290B842BAD33820484F064207D0BE
:105990006946A089898A00E077E0884204D86EE0F1
:1059A0006846808AB8426AD02069410606D5F10669
:1059B00004D401218902084320616CE0218820225F
:1059C000002009F0E7FC050011D00521F2070120B5
:1059D000C902002A0DD06A4611800490908A3B4685
:1059E000401C82B22946204609F0C8FE37E0452017
:1059F00001E7B20713D5207901280ED01020A26844
:105A00000290019200916846808A3B46401C82B217
:105A10002946204609F023FE21E00220EFE7710726
:105A200001D5234A04E00399890F0DD0204A521C66
:105A300069460A800490888AA389401C82B229465C
:105A4000204609F0D6FE0AE0B0060AD56846808AEC
:105A5000A389401C82B22946204609F043FE6428EF
:105A600008D0284600F0CCFD22883046079900F087
:105A70007CFB10E00021284609F0E8FCB7E722880B
:105A80003046079900F071FB00E76846027E2188E6
:105A9000022000F035FB0121E06909F0D7FC00206D
:105AA000E061A8E600C0FFFF84A10510FFFF000031
:105AB00002280000F0B58BB00D4604460020694670
:105AC00008710490E669002E16D0A806800F03D056
:105AD0002088FFF7D7FA049001AB31462046049A9C
