:020000041004E6
:1000000000600020BD1104106B1104106D1104106C
:10001000AA5555AA45554C420000000000000000BA
:100020000000000000000000000000006F1104103C
:10003000000000000000000071110410653E041073
:10004000753E041073110410000000000000000051
:100050006D3E0410493F04105D3E04107D110410F4
:100060000000000000000000000000000000000090
:10007000000000007F110410ED3E041081110410F7
:10008000000000007511041077110410791104109C
:10009000E53E04107B11041067110410691104106F
:1000A0000000000000000000000000000000000050
:1000B0000000000000000000000000000000000040
:1000C000F0B543464C4655465E466746F8B40E4C7E
:1000D0006B4623600D4C20680D4C20600D4C206851
:1000E0000D4C20600D4C20680D4C2060BFF34F8FED
:1000F00030BF054C2468A546F8BC9846A146AA46E0
:10010000B346BC46F0BDC0460800002004ED00E048
:100110008813002024ED00E07C13002000E200E0C2
:100120008C13002002780B78002A03D001300131B3
:100130009A42F7D0D01A70470023C25C0133002ADC
:10014000FBD1581E7047000002B4714649084900AF
:10015000095C49008E4402BC7047C0460022430837
:100160008B4274D303098B425FD3030A8B4244D37F
:10017000030B8B4228D3030C8B420DD3FF220902C1
:1001800012BA030C8B4202D31212090265D0030B80
:100190008B4219D300E0090AC30B8B4201D3CB0376
:1001A000C01A5241830B8B4201D38B03C01A5241B8
:1001B000430B8B4201D34B03C01A5241030B8B42BA
:1001C00001D30B03C01A5241C30A8B4201D3CB02A5
:1001D000C01A5241830A8B4201D38B02C01A52418A
:1001E000430A8B4201D34B02C01A5241030A8B428D
:1001F00001D30B02C01A5241CDD2C3098B4201D3A5
:10020000CB01C01A524183098B4201D38B01C01A22
:10021000524143098B4201D34B01C01A5241030999
:100220008B4201D30B01C01A5241C3088B4201D348
:10023000CB00C01A524183088B4201D38B00C01AF5
:10024000524143088B4201D34B00C01A5241411A1C
:1002500000D20146524110467047FFE701B5002029
:1002600000F0F0F802BDC0460029F7D076E77047ED
:1002700003460B437FD4002243088B4274D3030907
:100280008B425FD3030A8B4244D3030B8B4228D3A8
:10029000030C8B420DD3FF22090212BA030C8B42CE
:1002A00002D31212090265D0030B8B4219D300E06E
:1002B000090AC30B8B4201D3CB03C01A5241830BF3
:1002C0008B4201D38B03C01A5241430B8B4201D3A3
:1002D0004B03C01A5241030B8B4201D30B03C01ACC
:1002E0005241C30A8B4201D3CB02C01A5241830A46
:1002F0008B4201D38B02C01A5241430A8B4201D375
:100300004B02C01A5241030A8B4201D30B02C01A9E
:100310005241CDD2C3098B4201D3CB01C01A524105
:1003200083098B4201D38B01C01A524143098B428E
:1003300001D34B01C01A524103098B4201D30B0177
:10034000C01A5241C3088B4201D3CB00C01A52419C
:1003500083088B4201D38B00C01A524143088B4261
:1003600001D34B00C01A5241411A00D201465241FA
:10037000104670475DE0CA0F00D04942031000D319
:100380004042534000229C4603098B422DD3030A6E
:100390008B4212D3FC22890112BA030A8B420CD37E
:1003A000890192118B4208D3890192118B4204D3A7
:1003B00089013AD0921100E08909C3098B4201D327
:1003C000CB01C01A524183098B4201D38B01C01A61
:1003D000524143098B4201D34B01C01A52410309D8
:1003E0008B4201D30B01C01A5241C3088B4201D387
:1003F000CB00C01A524183088B4201D38B00C01A34
:100400005241D9D243088B4201D34B00C01A52410A
:10041000411A00D20146634652415B10104601D397
:100420004042002B00D54942704763465B1000D321
:10043000404201B5002000F005F802BD0029F8D0C7
:1004400016E770477047C046437802781B021A438C
:100450008378C0781B041343000618437047C046D6
:10046000030A4B70030C8B70030E0870CB7070473F
:1004700003005A7800781202024398781979000430
:100480000243D878000610435A7912020A43997938
:1004900009040A43D979090611437047030A5370C6
:1004A000030C9370030ED3700B0A53710B0C9371F2
:1004B0000B0E10701171D3717047C046024A136859
:1004C000013313607047C04610030020C021074A63
:1004D000074B08485360036A09061B021B0A0B43BB
:1004E00003620023936007331360704710E000E05D
:1004F0007E3E000000ED00E00E4AD3691B061B0F94
:100500004370D9B2D3690C4A1B071B0F83700B4B86
:100510001B68436093420BD102230370002901D171
:1005200001234370064B9B8A01339B008360704715
:100530000123F2E70000904041A000022800904013
:1005400000001040F0B5070085B001AC0E0020009F
:100550001500FFF7D1FF23783B7063783370A378E1
:100560002B7005B0F0BD10B504F02DFB10BD10B51B
:1005700004F044FB10BD10B504F016FB10BD00687C
:1005800070470078C0B270470022014B1A60704774
:1005900014000020014A024B1A607047CCBCECFCEE
:1005A00014000020024A138ADB07FCD57047C046BE
:1005B00000001040084B10B51A68084B9A4209D148
:1005C0003F22074B40061A81000C2E3A98611A8090
:1005D000FFF7E8FF10BDC04614000020CCBCECFCC7
:1005E00000001040084B10B51A68084B9A4209D118
:1005F0003F22074B80081A810C3A986119641A80CF
:10060000FFF7D0FF10BDC04614000020CCBCECFCAE
:1006100000001040034B1B8A1840431E9841C0B293
:100620007047C046000010400379F7B50168002B01
:1006300030D18022D20553688B435360202580221D
:10064000002106686D42D20533000124CB402342CD
:100650000DD00379CCB20193072924D80F238F0042
:10066000BB40D46A9C43019BBB401C43D462013114
:1006700004351A29E8D180234279DB05012A39D1D2
:10068000DA683243DA608279012A36D19A681643F1
:100690009E60F7BD062BD1D1002380220371D205C5
:1006A00053680B43C9E72700083F072F08D80F27D7
:1006B000019BAF40AB40146BBC4323431363D6E7AD
:1006C000103C072C0AD82F000F23203FBB40546B4F
:1006D0009C43019BBB401C435463C8E72F000F237E
:1006E000403FBB40148F9C43019BBB401C43A4B2C2
:1006F0001487BCE7DA68B243C4E79A68B2439A60E9
:10070000C7E78023DB05D86370478023DB051864C7
:1007100070478022D20513685840106070478023CC
:100720004268DB050168012A0FD11A690A431A6180
:1007300080238168DB050268012909D19969114389
:10074000996159699143596170471A698A43EEE783
:10075000002907D1D24399691140996159690A402A
:100760005A61F1E759690A43FAE78023DB05DA6940
:10077000002902D01043D86170478243DA61FBE759
:100780008022D205936A1843906270478023DB056C
:100790005B6A1840431E9841C0B27047012270B591
:1007A00003880D00934303804979040008002388DF
:1007B0000232274E10404003334003432380254B31
:1007C0004900C85A2968244B4843181A234B9942B8
:1007D00029D84900FFF7C2FC3022238893432380A5
:1007E000C023626892B29B02134363606368EA8825
:1007F0009B0A9B0213430322062180B2636020857B
:100800002B791A40238852008B43134323802A7A82
:100810000823012A18D12288134323800123228828
:100820001343238070BD0E4B9942DFD85143FFF72D
:1008300095FC3022238893431A001023134323800E
:100840006268802392B2CEE722889A432280E5E74D
:10085000FF9FFFFFC62900200024F400A0860100AE
:10086000801A060001230288002902D01343038066
:1008700070479A430280FBE78A880B881343CA8833
:1008800013430A8913434A8849895200C9030A431A
:100890001343C3607047C36A002A02D01943C16280
:1008A00070478B43C362FBE701747047007EC0B2A0
:1008B0007047802302881343038070478023028897
:1008C0005B00134303807047406B0840411E884122
:1008D000C0B27047816370471022038B30B59343D9
:1008E0000383038B921893430383037D193A934345
:1008F0000375037D3132934303750A780324038B18
:10090000802A23D1A34303838023028B5B001343FC
:10091000802207250383CB780374038B134303835F
:100920008B888380CB880381038B934303834B782D
:10093000047D2B40AC431C4304758A783821037D29
:100940002A40D2008B431343037530BD2240A3439A
:1009500013430383038B014A1340D9E7FFFEFFFFD4
:100960008023028B012902D11343038370479A43EA
:100970000283FBE7002908D10123018B1A400F33C2
:10098000120199430A43028370470129FCD1038B6A
:100990000A401F3152018B431A43F4E70901037FD8
:1009A000012A03D11943C9B2017770478B430377FA
:1009B000FBE70130C37F1943C1777047C023802212
:1009C0001B06197852420A437F211A701A780A408E
:1009D0001A707047C02301211B061A780A431A7047
:1009E0001A788A431A707047C0231B06186880075C
:1009F000C00F7047024B1868431E9841C0B2704741
:100A0000000400C030B50300012811D0022811D025
:100A10000120032B0BD1084A08000B0020301D6871
:100A20005C1A0433A5508342F9D10020106230BD16
:100A3000024AF1E7024AEFE7B40400C06C0400C0C8
:100A4000900400C0030001280FD002280FD001201D
:100A5000032B09D1074B1A00C91A20321878C85441
:100A600001339342FAD100207047034BF3E7034B65
:100A7000F1E7C046B40400C06C0400C0900400C09C
:100A8000410010B50D48FFF769FB0D4B421E9A421D
:100A900011D80223FF280AD80138C0B2094A0A49EE
:100AA0001374136800020B401843106010BD5B0004
:100AB000DBB24008EEE702230120EFE70024F40058
:100AC000FFFD000000004040FF00FFFF70B5040084
:100AD00001264068FFF7D4FF0420104B21785A68A4
:100AE0003140890082430A435A604022A578186841
:100AF0003540AD019043284318608020E1781A68A2
:100B00003140C90182430A431A6061781A6861382A
:100B1000014082430A431A6070BDC0460000404055
:100B2000054B02225968002802D00A435A607047D8
:100B300091435960FBE7C04600004040044B1A7DDA
:100B4000002902D010431875704782431A75FBE7DD
:100B500000004040014B98607047C0460000404094
:100B60000322044902400B68034852051840104311
:100B70000860704700004040FFFF9FFF024AD37F9C
:100B80008343D3777047C0460100404003220449A5
:100B900002400B680348D2051840104308607047B4
:100BA00000004040FFFF7FFE014B18867047C046A3
:100BB00000004040064B002804D01A6805490A404E
:100BC0001A60704780221968D2040A43F8E7C046C9
:100BD00000004040FFFFFFFB044B1A6A012902D1CD
:100BE00010431862704782431A62FBE7000090408E
:100BF000054B0122196B002802D00A431A63704783
:100C000091431963FBE7C04600003040F8B54A4CF9
:100C10000500236B01681B0700D56DE009014748FB
:100C2000FFF79CFAC3099AB2A284454ADB0101305E
:100C30001340C01A400880B23F2802D93F233F38F2
:100C40001840032760263F4BC0B218703E4B2A79EC
:100C500018783A405201B043104318700120697966
:100C6000227F39404901B2430A432277AA79197891
:100C70000240BA400730814311431970217F8143FC
:100C80000A432277EA79002A38D102211A788A4366
:100C90001A70227F8A43012022772A7A216B16005C
:100CA000C2402A4F06407602394031432163216B0E
:100CB000274E0240314012020A432263697A226BB6
:100CC0000E00C140234F06403A40B6033243226330
:100CD000226B214E01403240C90311432163AA7A9D
:100CE000197802400F301201814311431970237F9C
:100CF00083431A432277F8BDC90090E7022A0CD13A
:100D00000420197811431970197881431970217FD3
:100D10000A432277227F8243BDE702211A780A43E1
:100D20001A700422187810431870207F014321772D
:100D3000217F0A43AFE7C046000030400000127A2E
:100D400080FF7F00280030402C003040FFFDFFFF77
:100D5000FFFEFFFFFFBFFFFFFF7FFFFF044B1A8F68
:100D6000002902D010431887704782431A87FBE797
:100D700000003040024BC005C00D18807047C046CF
:100D800000003040014B1888C0B27047000030406E
:100D9000054B002805DA5B681840431E9841C0B235
:100DA00070471B8BF8E7C04600003040034B9B8F19
:100DB0001840431E9841C0B27047C0460000304002
:100DC0000722024038200449D2000B7883431800E0
:100DD000104308707047C04634003040F0B5837847
:100DE0000178002B33D040784AB28001002A1BDA08
:100DF0000F230B40083B1B4A9B089B009B18FF22BC
:100E0000032517000D40ED00AF400240AA40DE6907
:100E1000BE433243DA611F224B0911401E3A8A4019
:100E200011499B00CA50F0BDFF270F4B920892005A
:100E3000D21803233C00C0250B40DB009C40384007
:100E40009840AD005659A64330435051E3E71F2365
:100E50004A090B40012199401300034A20339B00AB
:100E6000D150E0E700ED00E000E100E070B50121C5
:100E700086B006000920FFF7AFFE00F083F81C4B98
:100E800001388000C3580024019300F07BF8194B0F
:100E90000138800001ADC35828002B71AC716C7112
:100EA000FFF7C2FB00F06EF8134B01388000C35807
:100EB000019300F067F8114B01388000C3582800F7
:100EC0002B71FFF7B1FB0125032303A803714371C5
:100ED00003728471C471447285720396FFF796FEA3
:100EE0002000FFF76DFF2800FFF782FE06B070BDFF
:100EF000F0A00510ECA00510E8A00510E4A0051076
:100F0000042313B5040001A80370013B43708470EF
:100F1000FFF764FF21001020FFF720FF13BD000042
:100F20000B4A10B513680B49002B00D111608024C7
:100F30001368640118180919884205D90C22012088
:100F4000054B40421A6010BD10601800FBE7C04618
:100F500014130020140300206429002010B503F0AE
:100F600032FE10BD10B503F02EFE10BD10B50A0004
:100F7000002103F043FE10BD0122014B1A7070479F
:100F800018130020014B1878C0B2704718130020C6
:100F900010B50CF0DFF810BD10B50BF0F5FC10BD6E
:100FA00010B50BF0ABFF10BD7FB50BAE368808ACAB
:100FB00009AD2D88248803960A9E01950296009417
:100FC0000CF0B8F97FBD7FB508AC20CC0AAE247810
:100FD00036780194029600950CF0EEF804B070BDDE
:100FE00010B505F0B1F810BD10B50DF0E3FD10BD62
:100FF00001207047F0B58DB012AC247809930A94A3
:1010000013AC248818AB1B880B9415AD14AC16AE2A
:1010100017AF24882D8836883F8806930B9B059749
:1010200001930A9B0496009303950294099B04F094
:1010300071FA0DB0F0BD10B504F025FB10BD10B570
:1010400004F038FE10BD10B504F0B2FF10BD10B5AD
:1010500010F004F810BD10B50DF0ACFC10BD10B5CB
:101060000CF0B4FF10BD10B505F044F810BD10B57C
:1010700005F048F810BD10B509F004FD10BD10B51D
:1010800012F024FF10BD10B512F008FD10BD10B510
:1010900013F016F810BD10B512F028FD10BD10B5F4
:1010A0000CF086FA10BD10B509F0C2FA10BD10B5EB
:1010B0000CF09CFC10BD10B50CF0CAFA10BD10B5B8
:1010C0000CF0DEFB10BD0120704710B508F040FBAE
:1010D00010BD10B515F002F810BD10B514F0D0FF1A
:1010E00010BD10B514F0B2FF10BD10B515F0BCF96D
:1010F00010BD0120704710B515F010FA10BD10B5E5
:1011000015F0F6F910BD10B513F0BEFC10BD10B50A
:1011100013F0DAFC10BD10B513F068FD10BD10B56A
:1011200013F02EFC10BD10B513F04AFC10BD10B525
:1011300013F070FC10BD10B513F0DCFC10BD10B541
:1011400013F0FAFC10BD10B512F006FD10BD10B57D
:1011500012F0D5FC10BD10B512F0DCFF10BD10B5BB
:1011600012F0F0FE10BD704770477047704770472F
:1011700070477047704770477047704770477047B7
:1011800070470000002210B5084B1A60084B1B7A0C
:10119000934209D1074B1B89052B05D9064B013218
:1011A0001A70FEF7A6FFFEE7012010BD1400002014
:1011B00000009040000010480C00002070B5FFF7C0
:1011C000E1FF012817D1002314481549154C1A18BE
:1011D0008A4216D3002314481449154C1A188A421F
:1011E00013D30021134B144A934212D30021134B03
:1011F000134A93420FD3134B83F3088802F0F2F99A
:1012000070BDE55804331560E1E7E5580433156017
:10121000E4E702C3E8E702C3EBE7C0467429002015
:101220005C30002094B60510080000203400002037
:1012300068B60510C0000020CC020020CC020020BF
:101240007429002000600020002210B5104B995C2A
:10125000C9B2002917D11C2A14DC02202124985479
:10126000501C1C54901C193C1C54901D19549B1864
:10127000802290219BB252021343C905CB60CB68F8
:101280001342FCD110BD995C01315218D2B2DEE795
:10129000191300200023F0B5144AD45CE4B2002CEA
:1012A0001ED1192B0FDC02253B275E1CD554975508
:1012B0005E199055DE1C955535261D1D56555D1D34
:1012C00006335155D45402223B24094B1A705C70EA
:1012D0009870DA7033321A71002259719A71F0BD28
:1012E000D45C01341B19DBB2D7E7C04619130020C8
:1012F0008013002070B58AB003AC06000D001922DF
:101300003D49200003F05FFC6846FFF7F5F8002E2A
:1013100059D04023A3732C33E372113B2375374B11
:10132000374A1B68190C914208D17020E17D1B01DE
:101330008143E175E17D03400B43E375314B1B684D
:10134000190C914208D1302061791B0181436171F0
:10135000617903400B4363712B4B1B68190C91425D
:1013600007D10321E27D0B408A43E275E27D1343FE
:10137000E3750422E37A69469343E3726B465B7834
:10138000897893400B43112B08DDE37D1A43E27506
:10139000E07AE17DC0B2C9B2FFF77CFF80239022E2
:1013A0002404240C5B021C43D205D460D16819428A
:1013B000FCD16B466A465B7892781B011343112B74
:1013C00001DDFFF741FF114B1A8B002AFCD00122EF
:1013D0001A8316329A8100221A61954207D090230F
:1013E0001021DB0518691A6942400A42FBD0084AFD
:1013F000084B1A600AB070BD94A00510E8070010F1
:1014000055AA0000E4070010B007001000001048C3
:10141000CCBCECFC140000200822C021F8B53F4BE6
:101420003F4D9A803F4A0904136AFF202B400B432B
:10143000C0211362136A09061B021B0A0B431362C5
:10144000C02292009446384B64469A58374E8243E5
:101450003F38024360461A501A58C02032400002FA
:1014600002431A51C122FF2792009C58BC433F3FC0
:101470003C439C509C583F37344004439C509C58FC
:101480002C409C509C582402240A0C439C50083247
:10149000944664469A58324002431A511A59C0245D
:1014A0002A402404224364461A511A591202120A8D
:1014B0000A431A51C4229200944664469A58324014
:1014C00002431A511A59C0242A4024042243644674
:1014D0001A511A591202120A0A431A51C5229200CD
:1014E0009C58BC432700C0242743C0249F509F58CA
:1014F00024043E4030439850985805402C439C505B
:1015000098580002000A0143995001210800FFF792
:10151000F1FE074A074B1A6262B6F8BD00001040A0
:10152000FFFF00FF00ED00E000E100E0FF00FFFF33
:1015300066000E000000904000B50300032923D888
:101540000800C522FEF700FE022123251B21197089
:1015500000215A70D5225971B43199711A39D97153
:1015600047311972D0395972293199729531D9722E
:101570004F399A701973303A1239DA705973A33AA5
:1015800038391A719973DA7300BD3B21DFE73C21CA
:10159000DDE73D21DBE700002A23F0B58BB006AC88
:1015A00023709B336370D523A370A523E3700023BE
:1015B0006371B433A3719A23E371E123237211237E
:1015C00063723A23A372CF23E372802323736E23C3
:1015D000022563733623764E102221003000A37358
:1015E0002571E573FEF7BFFF724A734B31001B781C
:1015F00028000092012204F080F8071E06D0022085
:101600006E4900F019FB47200BB0F0BD2B2323706F
:101610009A336370D523A370A523E370B423A37119
:101620009A23E371E1232372112363723A23A37295
:10163000CF23E372802323736E2363733623604EBC
:101640006071102221003000A3732571E573FEF74D
:101650008AFF584B320018885A4B04970593102381
:1016600002970393019700950F3B290004F026F899
:10167000071EC4D12C23237099336370D523A37024
:10168000A523E370B423A3719A23E371E1232372AA
:10169000112363723A23A372CF23E372802323734F
:1016A0006E23637336236071102221003000A37310
:1016B0002571E573FEF757FF3E4B32001888424B09
:1016C00004970593102302970393019700950C3B11
:1016D000290003F0F3FF071E00D090E72D232370AD
:1016E00098336370D523A370A523E370B423A3714B
:1016F0009A23E371E1232372112363723A23A372C5
:10170000CF23E372802323736E23637336236071C8
:10171000102221003000A3732571E573FEF723FF2B
:10172000244B32001888294B049705931023029705
:101730000393019700950F3B290003F0BFFF071E9D
:1017400000D05CE72E23237097336370D523A370FA
:10175000A523E370B423A3719A23E371E1232372D9
:10176000112363723A23A372CF23E372802323737E
:101770006E23637336236071102221003000A3733F
:101780002571E573FEF7EFFE0A4B32001888104B07
:1017900004970593102302970393019700950F3B3D
:1017A000290003F08BFF002800D028E72CE7C04673
:1017B0003C190020FE140020CE29002021A1051094
:1017C000041500201419002018190020021500200B
:1017D0004C1900201A23F0B58BB006AC2370BB3334
:1017E000A370A523E37000236371B433A3719A231C
:1017F000E371E1232372112363723A23A372CF238F
:10180000E372802323736E2302256373C527362377
:10181000284E102221003000A37367702571E573F4
:10182000FEF7A1FE244A254B31005B782800009288
:10183000012203F062FF061E06D00220204900F0BC
:10184000FBF947200BB0F0BD1B232370BA33A37004
:10185000A523E370B423A3719A23E371E1232372D8
:10186000112363723A23A372CF23E372802323737D
:101870006E23637336236770124F6071102221004C
:101880003800A3732571E573FEF76DFE0A4B3A002D
:1018900018880D4B04960593102303930F3B029376
:1018A0001D33009301960B3B290003F007FF00282E
:1018B000C3D1C7E73C19002090130020CE29002097
:1018C000F4A0051004150020161500203A23F0B5E9
:1018D0008BB006AC2370C5236370D523A370A523FA
:1018E000E37000236371B433A3719A23E371E1239E
:1018F0002372112363723A23A372CF23E3728023EE
:1019000023736E230225637336235F4E102221005A
:101910003000A3732571E573FEF725FE5B4A5C4B2F
:1019200031009B7828000092012203F0E6FE061E9B
:1019300006D00220574900F07FF947200BB0F0BDD8
:101940003B2323708A336370D523A370A523E370F0
:10195000B423A3719A23E371E123237211236372E9
:101960003A23A372CF23E372802323736E2363731E
:101970003623494F6071102221003800A37325716E
:10198000E573FEF7F0FD414B3A001888434B04968F
:101990000593102303930F3B02931D33019600938D
:1019A00029000B3B03F08AFE061EC2D13C232370A4
:1019B00089336370D523A370A523E370B423A37187
:1019C0009A23E371E1232372112363723A23A372F2
:1019D000CF23E372802323736E23637336236071F6
:1019E000102221003800A3732571E573FEF7BBFDBB
:1019F000264B3A0018882A4B04960593102303932C
:101A00000F3B02930D33019600932900053303F039
:101A100055FE061E00D08CE73D232370883363708B
:101A2000D523A370A523E370B423A3719A23E37194
:101A3000E1232372112363723A23A372CF23E3724B
:101A4000802323736E236373362360711022210079
:101A50003800A3732571E573FEF785FD0B4B3A0043
:101A60001888104B04960593102303930F3B0293A1
:101A70000D33009301960633290003F01FFE002862
:101A800000D056E75AE7C0463C1900201C19002038
:101A9000CE29002009A105100415002016190020E8
:101AA000641400206C1400201FB504000D4800F0E1
:101AB000DBF80D4B1A880D4B19880D4B1888132332
:101AC00003940024029300930194123B03F058FE08
:101AD000A04204D00220074900F0AEF8472004B02D
:101AE00010BDC046F6A10510161900201C190020D3
:101AF0004013002016A205107FB500221D4B1E4D7D
:101B000003AC1988227028880123009403F02EFE6C
:101B10001A49061E28D11A49200003F077F8194BFC
:101B20002888198832000094042303F01FFE164908
:101B3000021E19D1154B28881B782370144B198865
:101B40000094012303F012FE1249021E0CD1124B25
:101B500028881B782370114B19880094012303F007
:101B600005FE002804D00E49022000F065F8472049
:101B700004B070BD14190020FE14002037A1051018
:101B800061A105101819002066A105101415002088
:101B90000215002095A105101E1900204C190020E7
:101BA000C4A1051000230B4A13600B4A13700B4AA3
:101BB00013700B4A13700B4B0B4A5A600B4A9A6016
:101BC0000B4ADA600B4A1A610B4A5A610B4A9A6156
:101BD0007047C04668140020FC1400200015002047
:101BE0006E1400207014002040A205104FA20510B2
:101BF0005FA205106EA205107EA205108CA2051032
:101C0000094B01201B68002B0CD1084B1B78002BC3
:101C100008D1074B1B78002B04D1064B1878431EC4
:101C20009841C0B27047C04668140020FC140020E0
:101C3000001500206E14002010B50C00074B80002A
:101C4000C05800F011F8064800F00EF8200000F02F
:101C50000BF8044800F008F810BDC04670140020CE
:101C6000FBAE051040A4051010B501F098FC10BDA6
:101C7000F7B50500134801F092FC05240F262B5DF3
:101C80001A0911003731092A01D8303211003340C6
:101C90001A0001A801703732092B01D830331A001D
:101CA000002342708370671E01F079FC002C05D080
:101CB000054801F074FC3C007B1CE0D1034801F0B6
:101CC0006EFCF7BD4DAC0510FAAE051040A4051032
:101CD000F0B50E0085B001AF04000B2211493800A9
:101CE00002F071FF3500002C03DA2D23751C3370D0
:101CF000644220000A210135FEF7BAFA0028F9D122
:101D0000287020000A21FEF799FB7B5C013D200032
:101D10002B700A21FEF7ACFA041EF2D1300005B098
:101D2000F0BDC0467EA505101FB501A9FFF7D0FF85
:101D300001A801F034FC05B000BD000070B504003E
:101D4000134801F02CFC134801F029FC2078FFF720
:101D5000EBFF114801F023FC6078FFF7E5FF0F4827
:101D600001F01DFC6068FFF7DFFF25000C4801F063
:101D700016FC08351B340B4801F011FC287801359E
:101D8000FFF7D2FFA542F6D1074801F008FC70BD6D
:101D900089A5051092A5051097A505109CA505100D
:101DA000A3A50510ADA30510ADA5051070B50400E1
:101DB000104801F0F4FB104801F0F1FB2078FFF728
:101DC000B3FF0E4801F0EBFB6078FFF7ADFF0C4866
:101DD00001F0E5FBA51C15340A4801F0E0FB28786A
:101DE0000135FFF7A1FFA542F6D1074801F0D7FB67
:101DF00070BDC046FCA50510BDA5051005A60510C3
:101E000011A60510ADA30510AEA50510F8B5050087
:101E10001B4801F0C4FB1B4801F0C1FB6878FFF7C9
:101E200083FF194801F0BBFBA878FFF77DFF2F0067
:101E3000164801F0B4FBEC1C1637154E300001F0CB
:101E4000AEFB20780134FFF76FFFBC42F5D111489B
:101E50002F0001F0A4FB2937300001F0A0FB20780F
:101E60000134FFF761FFA742F6D10B4801F097FB61
:101E70002878FFF759FF094801F091FBF8BDC046EB
:101E8000B1A50510B8A50510C3A5051011A605102C
:101E9000ADA30510D4A50510E6A5051040A40510B6
:101EA000F0B5CD4C8DB000AF210002F0B7FECB49AC
:101EB0000600FEF737F9002809D1C94801F06FFB89
:101EC000C84801F06CFBC84801F069FB48E0C7490D
:101ED0003000FEF727F9002801D1C548F4E7C549CD
:101EE0003000FEF71FF9002816D1012302003B75D0
:101EF0007875B8611423FB181B1801301A72132867
:101F0000F8D143233B77BC337B77EF3BBB7704337C
:101F1000F81801F0CBFC23E0B7493000FEF702F9D6
:101F2000051E20D101F09EF8B44801F038FBB448FA
:101F300001F035FB0626B34801F031FB2800FFF71E
:101F4000F3FEB148092D00DD200001F028FB300030
:101F50006843AE4B0135C018FFF78AFE202DEAD149
:101F6000BD460DB0F0BDAA493000FEF7DBF80028F1
:101F700038D1092302003B75063B7B75B8611423F9
:101F8000FB181B1801301A721328F8D12100002009
:101F900002F044FE002801D19E4895E702F0FEFDC4
:101FA00021003877002002F039FE0028F4D09A4D45
:101FB0000124290002F032FE002801D11423A7E7F2
:101FC000072C0DD01022002102F006FF1423FB186D
:101FD0001B19187229000020013402F01FFEEBE7E4
:101FE0008E4871E78E493000FEF79CF8051E75D1CA
:101FF0006B462100FB6002F011FE002803D18948E6
:1020000001F0CDFA57E002F0C9FDC3B206008648E0
:102010001F2BF5D82100280002F000FE0028EED08A
:1020200002F0BCFDB8603B7A210028007B6002F022
:10203000F5FD041EE3D07D4801F0B1FAFF231E40F8
:102040003000FFF771FE7A4801F0A9FA06235E43DB
:102050006E4BF6183000FFF70BFE764801F09FFA42
:10206000FF23B8681840FFF75FFE734801F097FA46
:10207000200001F094FA5C4801F091FA1423796889
:10208000F818FFF759FA2000FEF756F86B4640089B
:102090000730C008C0001B1A9D46BB602000FEF739
:1020A0004BF8A8420AD814234008C1B2FB18BA68FA
:1020B000300000F0E9FAFB689D4651E7102200214C
:1020C000635DB8183B7463195B78B9747B7402F074
:1020D00083FEBA686B10D0540235DFE757493000F1
:1020E000FEF720F8051E00D0B6E06B462100FB602D
:1020F000B86102F093FD002801D1514880E70A221F
:10210000290002F069FEC0B238750B2801D94D488C
:1021100076E72100280002F081FD0028EDD00A2298
:10212000002102F059FE21007875002002F076FDB2
:10213000041EE2D0444801F032FA387DFFF7F4FD86
:10214000424801F02CFA787DFFF7EEFD404801F09F
:1021500026FA200001F023FA234801F020FA20009B
:10216000FDF7EAFF6A464608F31DDB08DB00D31AD9
:102170009D462000BB60FDF7DFFF272810D93548BA
:102180003EE710220021635DB8183B7463195B7849
:10219000B9747B7402F020FEBA686B10D05402351B
:1021A0002000FDF7C9FFA842EBD8002319009E428A
:1021B0000BD81422BA18D21811720133132BF6D18E
:1021C0000133F81801F072FB75E7BA68D05C14228D
:1021D000BA18D2181072F0E7ADA3051099A2051035
:1021E000A1A2051061A1051040A40510BBA2051015
:1021F000C0A2051080A3051087A3051090A30510A9
:102200009EA30510D8A40510ACA30510E826002055
:10221000AFA30510B7A305109AA50510D2A305100A
:10222000DFA30510E6A305102FA4051042A4051096
:102230005FA4051067A4051072A405107EA4051004
:1022400086A40510B1A40510C4A40510DDA40510D2
:10225000EAA40510F4A4051030493000FDF762FF30
:10226000051E25D12E4801F09AF92E4801F097F964
:102270002D4801F094F92D48FFF756FD2C4801F048
:102280008EF91C262B4801F08AF92800FFF74CFD37
:102290002948092D00DD200001F081F93000684354
:1022A000264B0135C018FFF749FD202DEAD157E62E
:1022B00023493000FDF736FF051E25D1214801F0E6
:1022C0006EF9184801F06BF9174801F068F91E48DB
:1022D000FFF72AFD164801F062F92926154801F09A
:1022E0005EF92800FFF720FD1348092D00DD2000CE
:1022F00001F055F930006843144B0135C018FFF761
:1023000085FD202DEAD12BE611493000FDF70AFFAB
:10231000002801D10F48D7E50F48D5E502A50510E3
:102320000EA505109EA305101DA5051000E00710C1
:1023300040A40510D8A40510ACA30510741E0020FD
:102340002FA5051039A5051000D007105019002041
:1023500046A5051067A505106BA5051010B5FEF77D
:102360000BFEE1204002FEF781FD0120FEF7C8FDD3
:102370000148FFF779FC10BD1CA6051070B5434A53
:1023800086B00621002003F022FA002803D040493D
:102390000220FFF751FC0521012003F014FA03F09D
:1023A000E1F93C49041E25D13B4B3C4D3C4E019389
:1023B000010000962B001022052003F0D8F8041E1F
:1023C00009D002203749FFF737FC2000FFF7ACFCAB
:1023D000200006B070BD32881026334B2988039345
:1023E000029601900096030003F0CAF90400051E4E
:1023F00004D02E490220FFF71FFCE9E72C4B0121F6
:1024000003930723049002900093020003000196B7
:10241000080003F0C5F82749041EEBD12648FFF752
:1024200023FCFFF7B9F8041E08D12448FFF71CFC71
:10243000FFF7D0F9041E03D02149DBE72149D9E792
:102440002148FFF711FCFFF741FA041E01D01F4994
:10245000D0E71F48FFF708FC1E4B1C78002CB7D0B4
:102460001D4800F0DBFE8021C9012B002A00080076
:10247000FEF7E1FD041E05D018490220FFF7DCFB42
:102480002C00A5E71648FFF7EFFBA1E7E0290020A5
:102490002FA8051052A80510F828002014290020A4
:1024A000FE28002069A80510262900207FA8051015
:1024B00040E20100A7A80510D7A80510FBA8051049
:1024C00059A905101CA9051039A9051098A90510CE
:1024D00075A90510FC250020D2290020B7A90510F8
:1024E000E5A9051010B51148FFF7BEFB1048FFF72E
:1024F000BFFB104803F0B4F9002806D00E490220B3
:10250000FFF79AFB01220D4B1A70FFF737FF0028E7
:1025100007D00B490220FFF78FFB0122074B1A70EF
:1025200010BD0848FFF7A0FBFAE7C046B9A70510A1
:10253000E029002038A60510D2A7051000150020BC
:10254000FAA7051010A80510092330B501248FB093
:1025500009AD134A2B70631ED35C2B550134112C2B
:10256000F9D10021080007F08BFA0020F022C821E1
:10257000069005900490039002950194009003004A
:10258000D200C90003F054F8002805D00549022004
:10259000FFF752FB0FB030BD0348FFF765FBF9E7CB
:1025A00026290020FBAA05101DAB051010B503F06D
:1025B00060F8041E05D005490220FFF73DFB20000E
:1025C00010BD0348FFF750FBF9E7C04645AB0510C7
:1025D0006BAB0510FA2210B5D20088B02821069204
:1025E00005923C2202910191802104920022C901AE
:1025F0000300039200920800FEF7FCFC041E06D0C4
:102600000D490220FFF718FB200008B010BD0B4851
:10261000FFF72AFB0A4C0B4B1B68002B07D1002C41
:1026200001D1FF34F0E703F0D7F8013CF3E7634250
:102630005C416442E4B2E7E719AA05103AAA051022
:10264000A08601003C13002070B50C4D47242B6878
:10265000002B11D00A4B1321188880B203F017F811
:10266000041E06D007490220FFF7E6FA04E003F053
:10267000B3F82B68002BFAD1200070BD3C1300206A
:102680004013002097AB0510F0B5060089B0524802
:102690001C0002910392FFF7E7FA504F3B68002BB2
:1026A00000D17DE04E48FFF7DFFA4E4D3B68002B2E
:1026B00008D0002D02D1FFF7C7FF05E003F08CF82A
:1026C000013DF3E7002DF6D03000FFF783FF051E34
:1026D00000D076E004AE102221003000FDF743FF69
:1026E00027004148FFF7C0FA10372078FFF71CFB9E
:1026F00001343E48FFF7B8FABC42F6D13C4F3800EF
:10270000FFF7B2FA3B4B3C4A1888012180B2009691
:10271000022303F013F8394C2388002B43D03848A8
:10272000FFF7A2FA3748FFF79FFA208880B2FFF739
:10273000FBFA3548FFF798FA0298FFF7F5FA3348A5
:10274000FFF792FA039E039B029AF31A9A422DDC3A
:102750003800FFF789FA274B029A1888218880B23F
:10276000013189B2039B03F02AF8061E09D02849DB
:102770000220FFF761FA3000FFF7D6FA3800FFF7C2
:1027800073FA244A1378002B18D000231370238087
:10279000FFF75AFF2048FFF767FA280009B0F0BD9D
:1027A000FFF704FF90E703F017F8B4E73078FFF77E
:1027B000BBFA0E48FFF758FA0136C4E703F00CF8ED
:1027C000DFE7FFF7C1FE15490220FFF735FA3000B9
:1027D000FFF74EFA0125E0E750AA05103C13002050
:1027E00063AA0510A08601007EAA0510ADA30510FE
:1027F00040A4051040130020FFFF000044130020F8
:1028000088AA051007A7051093AA051076A405103D
:10281000A2AA051042130020C7AA0510DFAA0510BE
:1028200010B50248FFF720FA10BDC04678A6051083
:1028300010B50248FFF718FA10BDC0466CA6051087
:1028400001220A4B10B51A60094B0A481980FFF79C
:102850000BFA0298FFF70CFA0023074A0299C95CA9
:10286000D1540133062BF9D110BDC0463C130020D2
:1028700040130020A9A705103019002000230121D2
:10288000054A10B51360054A05481170054A1380C2
:10289000FFF7EAF910BDC0463C130020D129002003
:1028A00070A705104013002010B504000348FFF77F
:1028B000DBF9200002F03CFF10BDC0464FA7051019
:1028C000F7B50400074816001F000D00FFF7CCF90C
:1028D00000230197009629001A00200002F061FFF2
:1028E000F7BDC04658A7051070B53B4888B01D001D
:1028F0000E000C9CFFF7B8F9384B1B8801339E4241
:1029000006D122001321012001F082FA08B070BD27
:10291000334B1B8801339E4244D12278637801A84F
:1029200002704370092A15D0E278A37812021A4384
:1029300023791B041A4363791B0613434360002366
:10294000284CE15CC21801331172132BF9D100F04D
:10295000ADFFDBE700224260012B0CD1A278224BB5
:102960001A70E278214B1A702279214B1A70627921
:10297000204B1A70E3E7022BE1D1A27963791202AE
:102980001A43E3791B041A43237A1B0613431A4A9A
:102990001360A278144B1A70E278184B1A702279DF
:1029A000174BE6E7174B1B8801339E4207D10023E4
:1029B0000C4AAB42AADAE15CD1540133F9E7124B7D
:1029C0001B8801339E42A1D10023104AAB429DDAFD
:1029D000E15CD1540133F9E7A7A6051016150020D4
:1029E0006C140020E4280020162900201329002060
:1029F000FA280020FB28002018290020FC280020AD
:102A0000FD28002016190020641400200029002051
:102A100010B50C1E0CD00A490220FFF70DF9094829
:102A2000FFF722F92000FFF77FF90748FFF71CF9AD
:102A30000648FFF719F90122054B1A7010BDC04670
:102A400011A7051030A7051040A405103DA70510DB
:102A500042130020F8B516001F0013480D00FFF7C1
:102A600003F91248FFF700F93000FFF75DF93C0069
:102A7000E31B9E420FDC0E4C2000FFF7F5F80D48DB
:102A8000FFF7F2F82800FFF74FF92000FFF7ECF806
:102A9000094B1D80F8BD0948FFF7E6F82078FFF7DD
:102AA00043F90134E4E7C046B9A60510F8A60510BD
:102AB00040A4051005A7051044130020ADA3051080
:102AC00010B50248FFF7D0F810BDC04662A7051048
:102AD000F7B514240E000D0044430C19A54200D193
:102AE000F7BD2B78002B17D1B11C06226846FDF7E5
:102AF0003AFD0A48FFF7B8F86846FFF7B9F8084FFB
:102B00006846390000F0A8FB002805D00548FFF70B
:102B1000ABF8380000F082FB1435DFE77EA7051024
:102B2000D229002085A7051070B586B0022842D1B1
:102B30002248FFF799F80622214904A802F043F839
:102B4000204E04A8310000F087FB041E33D11E483C
:102B5000FFF78AF83000FFF78BF81C4D335D2B55DB
:102B60000134062CFAD100F015FB2A0021000020C8
:102B700002F02DFE002803D015490220FFF75CF873
:102B8000144B00201A88144B1988144B019003939E
:102B9000102302930093030002F0F2FD002803D0FB
:102BA0000F490220FFF748F80021280000F0D0FA72
:102BB00000220C4B1A7006B070BDC04687A60510E7
:102BC000ADA00510D229002096A60510E02900200E
:102BD0002FA80510FE2800201429002026290020F7
:102BE0007FA80510FC250020012110B50800FDF785
:102BF000F3FF10BD07B506236A461371002300904A
:102C0000684693715371FDF70FFD07BD30B5002481
:102C1000050087B001A80471847144710195FDF726
:102C200003FD03A8039504940594FDF778FD0121A5
:102C30002800FDF79AFD07B030BD07B504236A46AA
:102C4000137100230090684693715371FDF7ECFCFB
:102C500007BD07B501236A4613710023009068463B
:102C600093715371FDF7E0FC07BD07B505236A4674
:102C7000137100230090684693715371FDF7D4FCE3
:102C800007BD00000023802030B5184A85B01370BE
:102C9000174A0121C0001370FDF79EFF1020FFF7B7
:102CA000CCFF2020FFF7C9FF1248FEF7DDFF01A986
:102CB0000A00114B31CB31C2104C01252000FDF729
:102CC0006DFD01212000FDF7CDFD6A460E2368460B
:102CD00013700B3B53709570FEF780F82A0008497B
:102CE0002000FDF7D8FD05B030BDC04624290020E6
:102CF0001D290020BBAB0510B4A005100000A040AA
:102D000020809F53F0B50E0087B0009001931B48C0
:102D10000CAB17001D783400FDF7CBFDA31B9F42C1
:102D200024DC6A46128803AC6280802200235201B0
:102D30002380E280A3809D421ED08023DB0123817B
:102D40008021012209030D486781FDF7A4FD2100C0
:102D50000A48FDF791FD0122094B1A70019A012AD8
:102D600002D11A78002AFCD107B0F0BD21780348BF
:102D7000FDF79AFD0134D1E72581E1E70000A0408D
:102D800024290020F0B5070089B008000F21029324
:102D90000026012369440870140038001A000096C8
:102DA000FFF7B0FF802305A95B01CB8080230125BD
:102DB000DB010A480B810D804F808E804C81FDF72E
:102DC0005BFD074A0299074B1160074A1D7014709A
:102DD0001A78002AFCD109B0F0BDC0460000A0401E
:102DE000202900201D2900201C29002070B5002466
:102DF000094B1C70094B1B789C4203DB0848FDF70C
:102E00005DFD70BD074B06481D68FDF74FFD2D1990
:102E100028700134EEE7C0461D2900201C2900203F
:102E20000000A040202900208021002210B5034B83
:102E3000090303481A70FDF72EFD10BD2429002058
:102E40000000A04010B51B48FDF79BFB1A4C2070FA
:102E50001A48FDF796FB1A4B18701A48FDF791FBBC
:102E6000194B18701948FEF7FFFE2078FEF75CFF3B
:102E70001748FEF7F9FE174B174AFF21136000238E
:102E80001648890004338B420ED10023144915489B
:102E90001A1DA42A0AD100F0FDF9FFF723FBFFF762
:102EA000F1FE00F08FFA10BDD050EBE7C8501300D0
:102EB000EEE7C04680EF07101E19002081EF0710D3
:102EC0001415002082EF07101A190020C8AB051056
:102ED00040A405103819002018150020681400209F
:102EE000C4130020FC140020024B8000C1500020BD
:102EF0007047C04618150020024B8000C1500020CA
:102F00007047C046C4130020024B8000C3581868A5
:102F10007047C04618150020014B185C7047C0462A
:102F2000D8290020F7B53F4F3B78282B04D9FF2242
:102F30003D4B1A7028233B703C48FEF795FE012458
:102F40003B4D2800FDF71DFB0600FEF7EDFE394B5B
:102F5000B600F25813681460374A93422CD120000F
:102F6000FFF748FE354B013564009D42E9D13448F6
:102F7000FEF77AFE00210120FDF7F7FB0021022079
:102F8000FDF7F3FB002301A8037003334370023BFA
:102F900083700E24FDF722FF2A4BE018FDF7F1FAAB
:102FA000244B80001B581C6001341E2CF4D10025DA
:102FB0003B789D421BDBF7BD002B03D12000FFF7C0
:102FC00025FECFE7204A934203D12000FFF735FECC
:102FD000C8E71E4A934203D12000FFF73AFEC1E73B
:102FE0001B4A9342BED12000FFF73FFEBAE7194BC0
:102FF000EC1864002000FDF7C4FA0600601CFDF721
:10300000C0FA272E05D8144BB600F35818700135B6
:10301000CEE7FF22114B124906201A70FEF70CFE74
:10302000F5E7C0461A190020FC140020D0AB0510AB
:1030300090EF071018150020FFFF00009EEF07100B
:1030400040A4051092EF0710F0FF0000F1FF000010
:10305000F2FF0000D8F70308C41300206E1400200C
:10306000DDAB051070B5104D104C601EFDF789FAF0
:1030700028702000FDF785FA6870601CFDF781FA62
:10308000A870A01CFDF77DFAE870E01CFDF779FA46
:103090002871201DFDF775FA054B08346871063557
:1030A0009C42E2D170BDC046E826002001C0071056
:1030B00001C10710062242430F4B13B5D21800235B
:1030C0006C46D15C19550133062BF9D10B4B009995
:1030D000C018C4002000FDF785FA6B46201D9988B2
:1030E000FDF780FA0120FDF795FA012800D113BD04
:1030F00002F072FBF6E7C046E826002000F8000266
:10310000104810B5FEF7B0FDFDF744FA7820FDF742
:1031100051FA0120FDF77EFA012810D10A48FEF786
:10312000A3FD002420000134E4B2FFF7C3FF202CEC
:10313000F8D1FDF729FA0548FEF796FD10BD02F01B
:103140004BFBE6E753AC05106BAC051083AC0510E8
:1031500070B50D0004000C48FEF786FD2800FEF750
:10316000E3FD0A48FEF780FD2000FEF781FD062101
:103170006943074BC9180023E25CCA540133062B8C
:10318000FAD1FFF7BDFF70BD46AC0510ADA3051029
:10319000E82600206223F7B51C4C1D4E23700A332D
:1031A0006370043BA37001AD0633E37030780633DF
:1031B00029002371FEF78CFD32782B78092A21D85B
:1031C00030226271A371752302220F26E371114927
:1031D0000C3B114D2372535D18090700373709283E
:1031E00001D830300700334018000F703730092BFA
:1031F00001D83033180048700231013AEBD2642311
:10320000E373F7BD63716B78DCE7C04626290020C5
:103210001E1900202F290020E029002013B50400EA
:10322000684606F0A5FB002803D00A490220FEF7F5
:1032300003FD6B461B7823706B46DB7863706B462F
:103240009B79A370E123E370613B23717E3B637143
:1032500013BDC046F4AB051010B50A7804780023FE
:10326000944215D144784A78944211D184788A786E
:1032700094420DD1C478CA78944209D104790A796C
:10328000944205D1437948791B1A58424341DBB235
:10329000180010BD7FB5002358211C4AD1540133BA
:1032A000102BFBD1FFF7DEFE06221949684601F01C
:1032B0008AFC0622002102A801F0A0FC154E6946F6
:1032C0003000FFF7C9FF144D041E14D102A93000CD
:1032D000FFF7C2FF002810D0104AA35C2B55013421
:1032E000062CFAD101220E4B0E481A70FEF7BCFCD8
:1032F000FFF750FF7FBD0024EEE7335C2B54013015
:103300000628FAD10022064B1A70F1E72629002080
:10331000C0A00510E8260020E0290020E6290020B2
:10332000FC25002021AC0510F8B505000024062678
:10333000094F310061432800C919FFF78DFF0028AC
:1033400001D0E0B2F8BD0134202CF2D102200349B3
:10335000FEF772FCFF20F5E7E826002013AC05100D
:10336000202807D900230B704B708B70CB700B712A
:103370004B71704706225043064BC25C18180A7006
:1033800043784B7083788B70C378CB7003790B7163
:103390004379EDE7E826002070B501240600084DCA
:1033A00020002C70FDF700FC3000FDF7D3FB21005E
:1033B0002020FDF7C3FB2B78002BFCD170BDC0464D
:1033C000252900201FB501211020FDF705FC012053
:1033D000FFF733FC0420FFF730FC0220FFF72DFC41
:1033E0004D48FEF741FC02A802004C4B12CB12C222
:1033F000FDF76CFB0020FDF7B3FB0120FDF7C6FBDA
:103400000120FDF7D7FB0120FDF78AFB05230124EE
:1034100001A80370023B43708470FDF7DFFC0620B7
:10342000FFF7BAFF0820FF30FFF7B6FF0820FF3094
:10343000FFF7B2FF82204000FFF7AEFF1620FFF734
:10344000ABFF2000FFF7A8FF0420FF30FFF7A4FF29
:1034500080204000FFF7A0FF2C20FF30FFF79CFFEB
:103460002C20FF30FFF798FF0A20FF30FFF794FF72
:10347000FA240420FFF790FFA4002948013CFEF73E
:10348000F3FB002CF9D12000FFF786FFB020FF30BE
:10349000FFF782FF3020FFF77FFF9D204000FFF7FE
:1034A0007BFF6120FFF778FF80204000FFF774FF6B
:1034B000D8204000FFF770FF0220FF30FFF76CFFBD
:1034C00084204000FFF768FF8220FFF765FF892016
:1034D0004000FFF761FF5020FFF75EFF8820FF30BC
:1034E000FFF75AFF1020FFF757FF0E4C0220013C58
:1034F000FF30FFF751FF002CF8D11320FFF74CFFEE
:10350000084C1020013CFF30FFF746FF002CF8D19B
:103510001220FFF741FF1FBD89AC0510C8A00510A0
:1035200041A4051080B50000002110B5024B2020F9
:103530001970FDF703FB10BD2529002010B51020E0
:10354000FDF734FC002400280AD104000C4A0D4980
:103550001378CC540133137011E0FDF713FCC4B29F
:103560001020FDF715FC0028F7D00D2CEED100221D
:10357000034B044819781A704254FEF791FC10BDB1
:10358000E12600208028002010B504002020FDF74F
:10359000FFFB0128FAD0A0B2FDF7ECFB10BD10B57F
:1035A00004002078002800D110BDFFF7EDFF0134A2
:1035B000F7E7000070B5094C2378002B06D0084BC4
:1035C0001D78002D02D1FEF7BFFF257000F032FC00
:1035D00000F0E6FB00F0DEF970BDC046D129002006
:1035E000FC25002010B5FDF717FFFEF7B7FEFCF72E
:1035F0006DFFFEF7D7FAFFF725FCFFF7F5FA00F0AD
:10360000EDF900F0EDFDFFF78DFC00F0FBFDFEF79E
:1036100073FAFEF7F5FA002807D10748FEF724FBF6
:1036200002F0DAF8FFF7C6FFFAE70448FEF71CFBE2
:103630000348FEF719FBFEE796AC0510B6AC051083
:10364000D0AC051010B502490420FEF7F5FA10BD04
:1036500006AD051010B503200249FEF7EDFAFF2074
:1036600010BDC04622AD051010B503200249FEF77B
:10367000E3FAFF2010BDC0468CAD051010B513282D
:1036800005D903200449FEF7D7FAFF2010BD034BEC
:103690001B6818184078F9E73DAD0510E4260020B6
:1036A000F8B5134C2000FCF76CFF124E124BA51915
:1036B000EB181870601CFCF764FF104B2700EB1828
:1036C0001870201DFCF75BFF0D4B1B37ED182860B1
:1036D000250008352800FCF754FF074BEB1801358F
:1036E000F054BD42F6D1074B1C349C42DAD1F8BDF0
:1036F00004E00710741E0020FC1FF8EFFD1FF8EF18
:103700000020F8EF84E3071000231900124A10B5D7
:103710001360124A12481370124A13701A181C339D
:103720001170E02BFAD1104B104A1148136001239D
:10373000104C9900132B0DDC54500133FF2BF8D1A2
:1037400000230D4A0D49D1500433302BFBD1FFF734
:10375000A7FF10BD5050F0E7F8250020701E002094
:1037600000260020F425002069360410F8210020EE
:10377000553604107D360410A82700204536041065
:1037800070B51C244443184D184B6619E018318855
:10379000FCF728FF164B7168E018FCF723FF2300A5
:1037A000002608335D19134BE4180023102E01D0B6
:1037B000EB781B06A9782A7809040B43697804364C
:1037C0000902114320001943F6B2FCF70BFF043540
:1037D0000434142EE9D10120FCF71CFF012800D18C
:1037E00070BD01F0F9FFF6E7741E002004E0071039
:1037F00008E007100CE00710104810B5FEF734FA87
:10380000FCF7C8FE7C20FCF7D5FE0120FCF702FF88
:10381000012810D10A48FEF727FA002420000134BD
:10382000E4B2FFF7ADFF202CF8D1FCF7ADFE054860
:10383000FEF71AFA10BD01F0CFFFE6E7CBAD051099
:10384000E6AD051083AC051070B50D0004001048FE
:10385000FEF70AFA2800FEF767FA0E48FEF704FAA8
:103860002000FEF76BFA1C2169430B4B60785A1855
:1038700050702078C854606808315060C818210022
:103880001322083101F09FF9FFF7B6FF70BDC04663
:10389000B2AD0510ADA30510741E0020024B8000D0
:1038A000C15000207047C046A8270020F7B51C274C
:1038B000134E144C337805007B431B5D0193002BA2
:1038C00004D011490120FEF7B7F9F7BD0F48FEF704
:1038D000CBF92800FEF732FA33785F43E4190ECDB6
:1038E0000EC40ECD0EC42B68236033780133DBB2D7
:1038F00033703378072BE8D96B461B793370E4E7D4
:10390000701E002000260020E1AC0510F6AC05106A
:1039100003001C2010B55843024BC018FFF7C6FF28
:1039200010BDC046741E002070B50500002401269D
:103930003300A3406A68E0B21A4205D0044AA300EB
:10394000D35898472B1918720134132CF0D170BD3D
:10395000F821002010B504000B48FEF785F920007F
:10396000FEF7ECF92000FFF7DFFF23780B2B05D8DB
:10397000064A9B009B582000984710BD044904202C
:10398000FEF75AF9F9E7C04662AD0510A8270020F6
:1039900074AD051070B51C250D4C0E4E23786B438D
:1039A000985D002813D020780B4B6843801918606D
:1039B000FFF7D0FF0022237801205D432378AA552A
:1039C0000133DBB223702378072B00D9227070BD3E
:1039D000F425002000260020F825002010B5FFF770
:1039E00093FE00F001FA00F049F810BDF8B500248C
:1039F000184BE018FCF7C5FD174E184BA519287099
:103A0000E018FCF7BEFD164B6870E018FCF7B9FD36
:103A1000144BA870E518144BE7182800FCF7B1FD0B
:103A2000124BEB180135F054BD42F6D1104BE5189E
:103A3000104BE7182800FCF7A4FD0F4BEB180135DD
:103A4000F054BD42F6D1A4232934DB009C42CFD1EF
:103A5000F8BDC04603D007105019002004D007104D
:103A600005D0071007D007101AD00710FC2FF8EF69
:103A70001BD007102ED00710FB2FF8EF10B5FFF763
:103A8000B5FF00231900064A06481360064A137062
:103A9000064A13701A1815331170A82BFAD110BDED
:103AA000E4260020D8270020F4210020E026002072
:103AB000F7B5292400264443274FE51C3B19997884
:103AC0005B7809041B021943E35DED191943234B8D
:103AD000E018FCF787FD224BE31801930023102E1A
:103AE00001D0EB781B06A9782A7809040B43697882
:103AF0000198090211431943FCF774FD019B043638
:103B00000433F6B204350193142EE7D123000025C7
:103B10001633FF18134BE4180023102D01D0FB7847
:103B20001B06B9783A7809040B4379780435090201
:103B3000114320001943EDB2FCF754FD043704345F
:103B4000142DE9D10120FCF765FD012800D1F7BD56
:103B500001F042FEF6E7C0465019002003D00710DE
:103B600007D007101BD00710104810B5FEF77CF8DF
:103B7000FCF710FD7A20FCF71DFD0120FCF74AFD43
:103B8000012810D10A48FEF76FF800242000013404
:103B9000E4B2FFF78DFF202CF8D1FCF7F5FC0548C7
:103BA000FEF762F810BD01F017FEE6E7B0AE0510B3
:103BB000C9AE051083AC0510F8B50C00050014481B
:103BC000FEF752F82000FEF7AFF81248FEF74CF867
:103BD0002800FEF71BF92920132644432B780E4FAB
:103BE000E01CE3556A783B195A70AA78E91C9A7070
:103BF000C019320000F0E7FF200029001630320023
:103C0000C019163100F0DFFFFFF7AEFFF8BDC04668
:103C100099AE0510ADA305105019002084B0F8B579
:103C20001527144C09932378134E7B439D5D069012
:103C300007910892002D07D010490120FDF7FCFFE5
:103C4000F8BC08BC04B018470D48FEF70DF806A8EC
:103C5000FEF7ACF820783A00784306A9301800F057
:103C6000B2FF23780133DBB223702378072BE7D927
:103C70002570E5E7F4210020D827002001AE0510CB
:103C800016AE0510F8B5070000253B4E72783B785C
:103C90009A4234D1B2787B789A4230D100243748A6
:103CA000FDF7E2FF2800FEF73FF8F31CBA1CD97CB1
:103CB000002955D0012927D11878117888424FD092
:103CC0002F48FDF7D1FFFF202040FEF72DF82D48AB
:103CD000FDF7CAFF3B199878FEF726F82A48FDF74A
:103CE000C3FF29236B43244AD3181C19E078FEF73D
:103CF0001BF82648FDF7B8FF2548FDF7B5FF01354D
:103D00002936202DC2D1F8BD022913D11878117897
:103D1000884225D31A48FDF7A7FFFF202040FEF771
:103D200003F81848FDF7A0FF3B199878FDF7FCFF52
:103D30001848D4E7032913D11878117888420FD88E
:103D40000F48FDF791FFFF202040FDF7EDFF0D48E4
:103D5000FDF78AFF3B199878FDF7E6FF0E48BEE7AE
:103D6000013401330132132CA1D10C48FDF77CFF43
:103D70003078FFF7CDFDC2E75019002026AE0510C0
:103D800044AE05104CAE051054AE05101EAC051027
:103D90008FAE051060AE051073AE051086AE05102F
:103DA00070B515250D4C0E4E23786B43985D002899
:103DB00013D020780B4B684380191860FFF762FF1F
:103DC0000022237801205D432378AA550133DBB21A
:103DD00023702378072B00D9227070BDE0260020C5
:103DE000D8270020E42600200023190003481A18D1
:103DF000013311700C2BFAD17047C046F01400202B
:103E0000024B8000C15000207047C0469413002030
:103E100070B504000D0016000448FDF725FF044BA3
:103E2000A40031002800E358984770BDECAE05109F
:103E30009413002010B50024074BE0B2E3181A7861
:103E4000012A04D1002119700A00FFF7E1FF0134B3
:103E50000C2CF1D110BDC046F014002010B506F0B6
:103E60007DFC10BD10B5FCF729FB10BD10B5FFF7A8
:103E700065FB10BDF8B51648FDF7F6FE0124E6B265
:103E80003000FFF741F8134B421E05009A421AD842
:103E90003000FFF741F8061E15D02800FCF776FC2D
:103EA000070001280FD12800FCF76AFC0A4B1A789A
:103EB000002A05D000221A700848FDF7D5FEF8BD8B
:103EC000074B9F55F8E70134092CD8D1F4E7C046D9
:103ED000E2AE0510EFFF00004613002040A40510DD
:103EE000F014002010B500F069FB10BD802110B562
:103EF00009031448FCF7E8FC00281AD0FEF794FFE9
:103F0000802110480903FCF7E5FC80210D48490594
:103F1000FCF7E0FC80210B480902FCF7D5FC0028E7
:103F200006D0FEF763FF802106480902FCF7D2FCA9
:103F300010BD802103484905FCF7C6FC0028DDD1EF
:103F4000E8E7C0460000A04010B5FFF7EDFA2020DA
:103F5000FCF714FE10BD000030B50F4889B00D000D
:103F6000FDF782FE012302AC0C482370FFF7DCF959
:103F700000236070E95CE21801339170132BF9D1D2
:103F80006B46069A009206AA12791A710FCCFFF7B7
:103F900045FE09B030BDC04610AF051030190020F5
:103FA00010B5040086B00E48FDF75EFE60786946E5
:103FB000FFF7D6F969460B48FFF74EF90834011EA2
:103FC00004D02000FDF770FD06B010BD02A8FDF77B
:103FD000B3FA02AB220013216846FEF755FBF3E764
:103FE000FEAE0510E029002010B504490120FFF7BE
:103FF00007FF03490120FFF751FC10BD593F041092
:10400000A13F041070B517488CB0FDF72DFE164D7A
:1040100003AE2878330002220021FEF7B3FE082306
:1040200006AC32782370073B6370A270727804A9E3
:10403000E2700E220A70F1324A708A70CA700A71F8
:104040002878FA3A0093FEF75DFE6B460A9A04342C
:1040500000920AAA12791A7106980ECCFFF7DEFDBB
:104060000CB070BD2FAF05103C290020F0B5002723
:10407000050085B02D48FDF7F7FD2D4B02AE02225D
:10408000002118783300FEF77DFE307803AC6070B5
:1040900027707378A370FDF747FE2648FDF7E4FD0F
:1040A0007078FDF741FE2448FDF7DEFD6A78012AAD
:1040B00016D12B7A032B0ED9043B9A4063785A40D1
:1040C00062701B4B03221878012321000093FEF736
:1040D00019FE05B0F0BD9A40A3785A40A270F0E7EF
:1040E0000123022A0ED12A7A032A05D9043A9340E1
:1040F000627813436370E4E793401A00A378134394
:10410000A370DEE7032A0CD12A7A032A05D9043AE0
:1041100093401A0063789343ECE79340A2789A4364
:10412000DCE7042ACDD16770A770CAE722AF05107B
:104130003C290020ADA3051040A405100023202237
:10414000084910B50B60084B08201A70FEF7CCFE2A
:1041500006490820FFF754FE05490820FFF79EFB9B
:1041600010BDC046402900203C2900200540041015
:104170006D40041070B5174B88B01B68002B27D01A
:104180000124154D0722290004A800F01CFD134E40
:1041900023003078072204A90094FEF7B3FDE91D3F
:1041A000072206A800F00FFD30782300072206A999
:1041B0000094FEF7A7FD290005220E3102A800F0A9
:1041C00002FD307823000094052202A9FEF79AFD33
:1041D00008B070BD40290020D0A005103C29002067
:1041E00010B5FFF701FF00F0ABFA00F0CBFB00F0D9
:1041F00089FA00F049FB00F099F900F097F8FFF711
:104200009DFF10BD10B500F0A3F900F07FFC00F099
:104210009DF8FFF7AFFF10BD70B53E4888B0FDF7C1
:1042200023FD03AE3C48FDF71FFD33000122B421FE
:104230002920FEF7A7FD0D2301226B44B52129207B
:10424000FEF7A0FD0E2301226B44B6212920FEF7C4
:1042500099FD0F2301226B44B7212920FEF792FD1F
:104260000024305DFDF760FD01342C48FDF7FCFCB7
:10427000042CF6D12A48FDF7F7FC2A48FDF7F4FC98
:10428000A42304AC237033780022132B01D9143BF0
:10429000DAB2012562702B0002222100292000954C
:1042A000FEF730FDA523237073780222637021008E
:1042B0002B0000952920FEF725FDA62332782370D8
:1042C0005933991A132902DD13001433DBB2012587
:1042D000637021002B00009502222920FEF712FDB9
:1042E000A723237073782100637002222B000095AE
:1042F0002920FEF707FD0C48FDF7B6FCE7232A004E
:104300002370210000952B002920FEF7FBFC08B04C
:1043100070BDC0468CAF05109AAF0510ADA3051057
:1043200040A40510B5AF0510CFAF0510002310B5A0
:10433000044907200B60FEF7D7FD03490B20FFF768
:104340005FFD10BD5C2900201942041070B54E4B72
:1043500088B01B68002B00D194E04C48FDF784FC2A
:10436000A023012504AC237049488D3B6370FDF701
:104370007BFC2B000222210000952920FEF7C2FCC5
:10438000AC23444823706570FDF76EFC2B000222BD
:10439000210000952920FEF7B5FC03AE3E48FDF74D
:1043A00063FC2A003300B4212920FEF7EBFC0D2327
:1043B0002A006B44B5212920FEF7E4FC0E232A00D5
:1043C0006B44B6212920FEF7DDFC0F232A006B4445
:1043D000B7212920FEF7D6FC0025705DFDF7A4FC6F
:1043E00001352E48FDF740FC042DF6D12C48FDF791
:1043F0003BFC2C48FDF738FCA423237033780022C3
:10440000132B01D9143BDAB2012562702B00022272
:10441000210029200095FEF775FCA52323707378F1
:104420000222637021002B0000952920FEF76AFC10
:10443000A623327823705933991A132902DD130009
:104440001433DBB20125637002222B0021002920E6
:104450000095FEF757FCA723237073780222637040
:1044600021002B0029200095FEF74CFC0E48FDF79B
:10447000FBFBE7232A002370210000952B00292055
:10448000FEF740FC08B070BD5C2900203CAF051071
:1044900054AF051074AF05109AAF0510ADA3051009
:1044A00040A40510B5AF0510CFAF051010B504003E
:1044B0001C48FDF7D9FB6278022A1CD0032A2BD0B6
:1044C000012A17D10720184B197D81430A431A7519
:1044D000217AFF22002901D00F224A439A801A81B3
:1044E0000122382152429A811A7D8A431100082202
:1044F0000A431A7510BD07220B490B7D93431A001E
:10450000012313430B75227AFF23002A01D00F23C6
:1045100053438B800B81EDE70721034A137D8B43C7
:104520001375E7E7E4AF05100000E04010B505495A
:10453000054B05200B60FEF7D7FC04490A20FFF766
:10454000ADF910BD38290020F1FF0000AD44041082
:104550001FB5174A174B12689A4228D880200121AC
:104560004001FCF739FB8023002402A9CB701248DC
:104570007F338B80CB800C704C708C70FCF7ACF967
:1045800001210D48FCF7ECF9210001220A48FCF753
:10459000F1F9142301A803700134113B43708470B6
:1045A000FCF71CFC220008210348FCF7F7F91FBDAB
:1045B00038290020FFEF00000000E040072210B57E
:1045C00005480821037D93430375037D31329343EE
:1045D0000375FCF7EEF910BD0000E04010B502488D
:1045E000FDF742FB10BDC04640B00510F0B5040019
:1045F0008DB03548FDF738FB6378022B23D0032BB1
:1046000039D0012B1DD13148FDF72EFB304B01ACC9
:104610001B78132223702F4B2F491B7863702F4B6D
:104620001B78A3706B46D81D00F0CDFA1A202C49D8
:104630001322684400F0C7FA2A4B20001978FFF7CC
:10464000BBFA0DB0F0BD2848FDF70EFB274B01ACBF
:104650001B7813226370264B1F491B7803A8237015
:10466000244B1B68029300F0AEFA194B2000197816
:10467000FFF7EAF8E5E70025277A002F01D1002DA2
:10468000DFD1052301AEE21A927B9A55013BFAD2A3
:104690001948FDF7E9FA1948FDF7E6FA3800FDF781
:1046A00043FB1748FDF7E0FA3000FDF7E1FA144844
:1046B000FDF7DAFA073539003000FEF749FD073417
:1046C000152DD9D1BDE7C046F3AF051000B00510D8
:1046D00016290020FA280020E4280020FB280020CA
:1046E000002900201329002015B00510FD28002006
:1046F000FC280020182900202CB00510D8A4051093
:1047000040A4051010B504490920FFF779FB0349BF
:104710000920FFF7C3F810BDDD450410ED45041076
:1047200010B50248FDF7A0FA10BDC04659B00510FB
:1047300010B50248FDF798FA10BDC0464DB00510FF
:1047400010B5094B094902200B60FEF7CDFB084963
:104750000220FEF7D1FB07490220FFF751FB064973
:104760000220FFF79BF810BDFFFF00004C2900203E
:1047700058290020214704103147041010B5024881
:10478000FDF772FA10BDC046ADB0051010B50400BB
:104790003348FDF769FA6378022B22D0032B3FD010
:1047A000012B17D1247A2F48FDF75EFA2000FDF780
:1047B000BBFA2D48FDF758FA032C0BD820002B4BE1
:1047C000FBF7C2FC02090B0D294A1068984201D080
:1047D000FBF79FFF10BD274AF7E7274AF5E7274A6F
:1047E000F3E7247A2648FDF73FFA2000FDF79CFA0C
:1047F0001D48FDF739FA032CECD820001B4BFBF7C2
:10480000A3FC02090B0D1A4A10689842E2D0FBF78C
:1048100078FFDFE7174AF7E7174AF5E7174AF3E7A4
:10482000247A1848FDF720FA2000FDF77DFA0E489B
:10483000FDF71AFA032CCDD820000C4BFBF784FCB3
:1048400002090B0D0A4A10689842C3D0FBF75DFFBE
:10485000C0E7084AF7E7084AF5E7084AF3E7C04621
:1048600065B0051073B0051040A40510FFFF0000EF
:1048700044290020602900205029002048290020D8
:1048800086B0051099B0051070B5104B104E114D43
:10489000114C124901200B6033602B602360FEF73E
:1048A00023FB31000220FEF71FFB29000320FEF747
:1048B0001BFB21000420FEF717FB09490720FFF727
:1048C0009FFA08490720FEF7E9FF70BDFFFF0000CF
:1048D0006029002050290020482900204429002078
:1048E0007D4704108D47041010B50248FDF7BCF950
:1048F00010BDC046AAB1051030B521488BB0FDF7F8
:10490000B3F9052303AD04AC237001222B00002171
:104910002B20FEF737FA01222B78110063702B2031
:104920002B00FEF72FFA2B780122A37002212B0017
:104930002B20FEF727FA2B780122E37003212B00AE
:104940002B20FEF71FFA2B780421237101222B0064
:104950002B20FEF717FA2B78002163710423E2184D
:1049600001339170132BFAD16B46089A009208AA72
:1049700012791A710FCCFFF751F90BB030BDC04658
:10498000BFB10510002310B5064906200B60FEF7E5
:10499000ABFA05490520FFF733FA04490520FEF775
:1049A0007DFF10BD54290020F9480410E948041087
:1049B0000D23F0B501258BB006AC274E0700237000
:1049C00026480333039163703570FDF74DF90222D9
:1049D00021002B002B200095FEF794F90E23204890
:1049E00023706770FDF740F92B000095022221002B
:1049F0002B20FEF787F900232370013303995A1EF9
:104A00008A5CE254082BF8D101251648FDF72CF9F1
:104A1000092221002B002B200095FEF773F90D23AE
:104A20002370002310486370FDF71EF92B200095BA
:104A30002B0002222100FEF765F90C48FDF714F95E
:104A40003178C9B20029FBD105AB01222B20FEF73A
:104A500099F90BB0F0BDC0464613002072B10510A5
:104A60007FB105108EB1051098B10510A5B10510E4
:104A70000D2370B5012588B004AC060023701E48D4
:104A80000B336370FDF7F0F82B0002222100009534
:104A90002B20FEF737F90E23184823706670FDF7B8
:104AA000E3F82B000222210000952B20FEF72AF9C3
:104AB00002AE1348FDF7D8F83300082200212B205E
:104AC000FEF760F90025705DFDF72EF901350D4800
:104AD000FDF7CAF8082DF6D10D23237000230A48EC
:104AE0006370FDF7C1F801230222009321002B20FF
:104AF000FEF708F908B070BD72B105107FB105105E
:104B0000D4B10510ADA30510DEB1051030B51B4BB7
:104B100085B01B68002B2ED01948FDF7A5F801AB16
:104B2000012200212B20FEF72DF900241548FDF766
:104B30009BF82000FDF7F8F8134D2800FDF794F8D6
:104B40001249E00009180134C0B2FFF731FF102C00
:104B5000ECD100240E48FDF787F82000FDF7E4F8BB
:104B60002800FDF781F8E000C0B202A90134FFF788
:104B70007FFF102CEED105B030BDC0465429002077
:104B80003BB1051053B1051040A40510BBB0051092
:104B900067B1051010B500F01FF810BD10B50A225E
:104BA000002100F019F910BD30B50024A24201D156
:104BB000002005E0035D651C0C5DA34201D0181BBD
:104BC00030BD2C00F2E7002310B59A4200D110BD91
:104BD000CC5CC4540133F8E710B5884202D98B1875
:104BE000984208D300239A4207D0CC5CC4540133C6
:104BF000F9E78B5C8354013AFBD210BD03008218A5
:104C0000934200D1704719700133F9E7031C0A7809
:104C100001311A700133002AF9D17047F8B5134BEE
:104C200006001D680F00E8352C68002C16D15020B6
:104C300000F0F4F92860046044608460C46004619A
:104C4000446184618462C462046344638463C463B2
:104C5000046444648464C464047744622A68390048
:104C60003000012300F004F8F8BDC046EC29002014
:104C7000F0B5002804D11068002801D1F0BD200053
:104C80000E000578441C3778002F04D1002D10D178
:104C900015602800F2E70136BD42F4D1002BEED1B9
:104CA00014600370EAE733000EE001351C00002FAA
:104CB00002D10D002678631C2F78BE42F5D1002E5C
:104CC000F1D00024591E0C701360D7E7F0B51F0017
:104CD0000E0087B00590039102920C98347800F092
:104CE00097F9082200194378751C13400CD12D2C1C
:104CF0000CD101332C780193B51C002F0CD0102F50
:104D000014D1302C0AD011E02E00E6E701932B2CB1
:104D1000F3D12C78B51CF0E7302C2FD120222B7842
:104D20009343582B51D110276C780235019B294AA7
:104D300039009E183000FBF797FA300004913900D3
:104D4000FBF70CFA01210023494202008C461800AF
:104D500021003039092913D80C00A7421CDD591C49
:104D600009D06346824206D302D10499A14202DBF4
:104D70000123784320182C780135E9E70A27D5E785
:104D800021004139192901D8373CE6E72100613972
:104D9000192901D8573CE0E75A1C08D1059A23335A
:104DA0001360029B3000002B0BD107B0F0BD019ABD
:104DB000002A00D04042029A002AF6D0039A002B23
:104DC00000D06A1E029B1A60EFE73024002FADD19D
:104DD0000837ABE7FFFFFF7F37B51300064A050032
:104DE0001068046A002C00D1044C0A0000942900C9
:104DF000FFF76CFF3EBDC046EC290020E02A0020F2
:104E0000F7B5254F0C00050000F028FB3800032201
:104E1000224E1138B368001B5B6839009343C018F9
:104E20000193FBF79BF9441E7C43BC4204DA280043
:104E300000F01CFB0020FEBD0021280000F01EFB3E
:104E4000B368019A9B189842F1D16142280000F0A2
:104E500015FB431C10D10021280000F00FFBB268A5
:104E6000811A0F29E3DD0E4B1B68C01A0D4B186029
:104E700001230B435360DAE7B2680126019B280047
:104E80001B1B33435360074B1A68141B1C6000F054
:104E9000EDFA3000CFE7C046800000004C2C002027
:104EA0005430002048130020F7B50D1E01902DD07E
:104EB00000F0D4FA012329009C4608394F68624665
:104EC0003B0066469343C8184568023295434A4AF8
:104ED00037409668B0421AD15B19002F06D1086896
:104EE000091A8D681B18C868E8608560012018439E
:104EF00048609160414A1268934204D3404B019844
:104F00001968FFF77DFF019800F0B0FAF7BD0026A1
:104F10004560B74209D10F683A4CC91BDB198F684D
:104F2000A7422BD0CC68FC60A76047197C6801279A
:104F30003C420BD15B198568002E21D1314CA54232
:104F40001ED13E0051611161CD608D6001200500D0
:104F50001D434D60CB50002ED5D12B4DAB4213D805
:104F6000DB089D10A8405468DB00204350609A186D
:104F70009368CA608B609160D960C4E76646D4E7E5
:104F8000C068E8608560E1E75D0A042D12D89809E1
:104F90003830C600B618B5680327AE4225D10123C4
:104FA00080108340506803435360CE608D60B160D1
:104FB000E960A8E7142D02D828005B30E9E7542DFA
:104FC00002D8180B6E30E4E7AA204000854202D8D0
:104FD000D80B7730DDE70D4E7E20B542D9D8980C3E
:104FE0007C30D6E7AD68AE4203D06A68BA439342DC
:104FF000F8D3EE68D9E7C0464C2C0020583000208A
:1050000078130020542C0020FF01000054050000FC
:10501000EC300068704770477047000010B5034BD4
:105020000100186800F004F810BDC046EC2900200B
:10503000F0B50D0085B00B350190162D08D907236A
:105040009D4306D50C23019A1360002005B0F0BDE6
:1050500010258D42F6D3019800F000FAF823FF33B3
:10506000BA489D421FD82A0008328218110054689D
:105070000839EB088C4203D1D4680233A24229D00C
:1050800003236268A1689A431300E268E318CA60C8
:105090009160012259680A435A60019800F0E6F9CC
:1050A00020000830D2E76A0A3F23002A03D0042AEE
:1050B00028D8AB09383303229446D9000918CC68A4
:1050C0008C4206D066466268B243571B0F2F31DD13
:1050D000013B01330100046908318C424ED00322A8
:1050E000666896433200761B0F2E31DD0127631967
:1050F0003D433743656043610361D96099605F60F8
:10510000A650CAE7142A02D813005B33D3E7542A07
:1051100002D82B0B6E33CEE7AA235B009A4202D84B
:10512000EB0B7733C7E78A497E238A42C3D8AB0C9F
:105130007C33C0E7E668002F08DBA368DE60B3605D
:105140000123A21851680B435360A6E73400B7E768
:1051500041610161002EF3DA7E498A4242D8D208C9
:10516000FF399610FF39B1404668D20031434160A3
:1051700010188268E060A2608460D46001229910F7
:105180008A4072494868824200D997E0104205D1AE
:105190000324A343520004331042FBD09C46D800A2
:1051A00008180290029CE468029EB44258D1340070
:1051B000083402940124A444644603263442F1D105
:1051C0000324234274D14B6893434B6048685200D8
:1051D000824273D8002A71D063461042DED1043374
:1051E0005200FAE7560A042E16D891093831CF003A
:1051F0003E1803270296BC46B668029FB74227D1E5
:10520000012289108A4041680A434260029AA660DE
:10521000E2609460F460B1E7142E02D831005B3193
:10522000E5E7542E02D8110B6E31E0E7AA214900C0
:105230008E4202D8D10B7731D9E7454F7E21BE424D
:10524000D5D8910C7C31D2E7B6680299B14204D02E
:105250006046716881438A42F6D3F2680292D5E7CC
:1052600003266768B74303977E1B0F2E11DD0122CB
:10527000631915436560E068A5680831E86032434A
:105280008560CB608B60D96099605A603B00E650C6
:1052900003E7E768002E09DB0122039BE318596846
:1052A0000A435A60A368DF60BB60F6E63C007BE718
:1052B00008388468013BA04282D087E703238F68C7
:1052C0007A689A430292954203D8521B0F2A00DD56
:1052D0009FE0029BFB1803931F4B1E681F4B103669
:1052E0001B687619013305D01D4B013B9E191C4BE1
:1052F0005B421E403100019800F0C0F80400431CDE
:105300005FD0039B834202D9104B9F4259D1154B6A
:105310001A68B1181960124B5A1E039BA34227D179
:10532000134225D1029A094B921901269B68164314
:105330005E600C4B0C4A1B6811688B4200D91360ED
:105340000A4A11688B423CD913603AE04C2C002089
:1053500054050000FF0100007813002054300020A5
:1053600080000000481300207013002074130020F8
:105370002D4B1868013032D11C600720204002D02C
:105380000823181A2418294BA61918181640861B2A
:105390003100019800F072F8431C01D12000002672
:1053A000234A001B13689B1913600123214A8619A5
:1053B0001E43946066609742BBD0029A0F2A14D8AD
:1053C000636003221B4B9B685B6893435A1B9D429F
:1053D00001D80F2A1DDC019800F048F835E6039B40
:1053E000E31A5B1812490B60C7E70722029E0C3EC6
:1053F00096437A681340052233437B60BB195A6099
:105400009A600F2E95D9390001980831FFF74CFDAD
:105410008FE701231800074928438C681343651957
:1054200060608D606B6038E65430002080000000C2
:10543000481300204C2C002082B0002900D101A983
:10544000101E06D0002B06D013780B601078431E78
:10545000984102B0704702204042FAE710B5024876
:10546000FFF7D9FD10BDC0466C29002010B50248D9
:10547000FFF7D2FD10BDC0466C290020002370B597
:10548000064C050008002360FBF74AFD431C03D1CE
:105490002368002B00D02B6070BDC046642900201B
:1054A0000B1E04D0FF2A04D98A2303608B3B18000B
:1054B00070470A700123FAE7F0B5054600200F4651
:1054C000079E059C174309D0202905D30127BF0358
:1054D000BA4201D8914201D94220F0BD1946214378
:1054E0000AD09C42F8D309498C4203D00849A41F32
:1054F0008C42F1D2062BEFD3002D03D0022D01D028
:10550000032DE9D1032EE7D8F0BD0000FFFF000016
:105510007B0C0000FFB58DB0144618AAECCA0497A6
:105520006F466CC70A46014605A8179B04F0B4FAFB
:1055300000280AD108A84471012C08D0002C06D0FC
:10554000022C04D0032C02D0422011B0F0BD09A8D7
:10555000062202301099FBF706F808A9169808737E
:10556000C0B20328F0D805A800F072FBEDE77CB5C7
:10557000069D079C002805D0860705D1460703D461
:10558000060701D442207CBD002903D0012901D0A7
:105590000229F7D10095019400F0B0FB7CBD00001A
:1055A000FFB58DB0179F169D1446060004D0012E3E
:1055B00002D0422011B0F0BD0E98002801D0012881
:1055C000F7D1E81F0A28F4D2102FF2D8AF42F0D357
:1055D0001898002801D00128EBD114491998884265
:1055E000E7D81A98002801D00128E2D1FBF781FD05
:1055F000012804D01098204306D01120DAE7022CAD
:10560000D7D810980128D4D8684686700E99C170F2
:10561000047310994173057147711899C1711998F4
:10562000029068461A990FF053FEC3E73F420F00FD
:10563000FFB587B0109D159E169C019302950094AE
:1056400007A807C81F463346FFF736FF00280ED1CC
:105650001398149903AA069443C2119812990190C1
:105660000095029107A807C83B4600F0D7FC0BB095
:10567000F0BD10B500F0EEFC040002D101200BF0EB
:10568000C1FA204610BD10B500F0FAFC10BD10B5EF
:105690000BF048FB10BD70B51C4613460D46012C9F
:1056A00003D0022C03D0422070BD022200E0102261
:1056B0001946FAF758FF2C70002070BDF0B587B07E
:1056C0001C460B46054600A9023101A80C9F0D9E01
:1056D000FFF7E1FF00280ED16846058084828775B8
:1056E000C6750E9901760F994176109981766946B3
:1056F000119802F087F807B0F0BD70B586B0144677
:105700001D460A4603466946881C0A9EFFF7C3FFEA
:10571000002804D1012C04D0022C02D0422006B073
:1057200070BD23462A466946304602F0B1FAF6E7D4
:1057300010B50022114602F05BFB10BD70B586B0BB
:105740000D46144606466946881C0A9AFFF7A3FFD1
:10575000002805D16B4622462946304600F09CFFC2
:1057600006B070BD10B502F06DFE10BD38B56D46C7
:10577000049C2A806B8023466A4603F007F938BDF3
:10578000F0B585B084460AA8F0C868468581C68110
:1057900003A8019002970094604603F02BF905B02E
:1057A000F0BDFEB56C46099E089D20806180227187
:1057B0006371E5806846029602F092FBFEBD10B56B
:1057C00001F05EFA10BD10B503F044FE10BD10B537
:1057D00003F062FE10BD000010B504F091FA1E4CFB
:1057E0004721206849014118097A002909D1A030D0
:1057F0000079C00729D004F00BF803F061FF10F026
:10580000D1FE00F003F92068014640310A78C979D9
:105810008A4319D13E21095C002915D10F490A8814
:10582000120711D50922D2061269497A836AC90082
:10583000591809231B02C018406D801A000200127B
:10584000814201DA0CF084FE10BD00F0C7FB02F0CB
:1058500093FC0DF00FFED0E7C0290020C00000200F
:1058600010B5837F0122002492024168082B03D9DE
:105870004224914202D310E0914201D242240CE032
:10588000014634220648FAF76EFE00F07FF8002841
:1058900001DA482401E000F029F9204610BD00009B
:1058A000DC0200203EB5174D15482968827F084666
:1058B000A0310A7300246030047644768476E122B5
:1058C000C2768022027702224277302008704C7024
:1058D00002AA01A96846FAF735FE68460078A222B6
:1058E00001016846007A891C00020143684600797C
:1058F0000003014328681152A03004713EBD00002E
:10590000DC020020C029002070B504F0DDF90CF0A5
:10591000D3F80AF083FD11F059FC04F0ABFB184CEE
:1059200018492068184D4018811001202A68C002CB
:105930001018816661688908C166A16889080167D5
:105940000FF054FC1D2029688001228B0818028763
:10595000628B4287A28B4286628C828620462030F0
:1059600002783B204001081882750021017000F088
:10597000C3FA03F0B3FE03F03BFE10F099FE70BDD6
:10598000DC0200200000FCEFC029002070B50025DB
:10599000ED43FBF798FB01282ED000231849032282
:1059A000888BFF24401E10438A7F4D346243821847
:1059B000088B282460431218488B30246043121847
:1059C0000846203040782C24604310180D4A1818DF
:1059D00084184869A0420DD10B4884420AD90D6948
:1059E000FBF771FBC1B2284609F076F909F0A4FA79
:1059F000401B251A284670BDFF23B533CEE70000B3
:105A0000DC02002035190000540A0000F8B52C4FC4
:105A10003C68206E5C34401C002814D000252948C6
:105A20000023C07B00283ED00926F6062648002D1C
:105A30001CD000210A460B464169521C994204D1F0
:105A4000002902D004E00125E9E7204B9A42F2D375
:105A50002160006960603069A1680002090E000AD7
:105A600009060143A16000F033F81DE03169A26826
:105A70000902090A150E08D0018BC90712D0416925
:105A8000216000696060E37210E0881A00027D23E3
:105A900000121B03984205DD100E00060843A060AB
:105AA00000F016F8F8BD6360002DFBD003CC0CF0BD
:105AB00079FCFA200CF066FC39688862F8BD0000B9
:105AC000C0290020FC0200200000104888130000BC
:105AD0000449002008610448012100686030C17158
