:020000041004E6
:10000000006000205D0E0410050E0410070E0410A1
:10001000AA5555AA45554C420000000000000000BA
:10002000000000000000000000000000090E0410A5
:1000300000000000000000000B0E04104B1E041016
:100040005D1E04100D0E04100000000000000000F2
:10005000531E04100F0E0410431E04101B0E041038
:100060000000000000000000000000000000000090
:10007000000000001D0E04101F0E0410210E0410BD
:1000800000000000110E0410130E0410150E0410D1
:10009000170E0410190E0410010E0410030E0410A4
:1000A0000000000000000000000000000000000050
:1000B0000000000000000000000000000000000040
:1000C000F0B543464C4655465E466746F8B40E4C7E
:1000D0006B4623600D4C20680D4C20600D4C206851
:1000E0000D4C20600D4C20680D4C2060BFF34F8FED
:1000F00030BF054C2468A546F8BC9846A146AA46E0
:10010000B346BC46F0BDC0460800002004ED00E048
:100110004C03002024ED00E04003002000E200E05A
:100120005003002002780B78002A03D001300131FF
:100130009A42F7D0D01A7047002243088B4274D3FA
:1001400003098B425FD3030A8B4244D3030B8B42D8
:1001500028D3030C8B420DD3FF22090212BA030CE1
:100160008B4202D31212090265D0030B8B4219D3C2
:1001700000E0090AC30B8B4201D3CB03C01A5241E2
:10018000830B8B4201D38B03C01A5241430B8B422A
:1001900001D34B03C01A5241030B8B4201D30B0313
:1001A000C01A5241C30A8B4201D3CB02C01A52413A
:1001B000830A8B4201D38B02C01A5241430A8B42FD
:1001C00001D34B02C01A5241030A8B4201D30B02E6
:1001D000C01A5241CDD2C3098B4201D3CB01C01A00
:1001E000524183098B4201D38B01C01A524143090A
:1001F0008B4201D34B01C01A524103098B4201D3F8
:100200000B01C01A5241C3088B4201D3CB00C01A64
:10021000524183088B4201D38B00C01A52414308DC
:100220008B4201D34B00C01A5241411A00D2014601
:10023000524110467047FFE701B5002000F0F0F88A
:1002400002BDC0460029F7D076E7704703460B434E
:100250007FD4002243088B4274D303098B425FD3BF
:10026000030A8B4244D3030B8B4228D3030C8B42EB
:100270000DD3FF22090212BA030C8B4202D31212D1
:10028000090265D0030B8B4219D300E0090AC30BA6
:100290008B4201D3CB03C01A5241830B8B4201D353
:1002A0008B03C01A5241430B8B4201D34B03C01A3C
:1002B0005241030B8B4201D30B03C01A5241C30AB4
:1002C0008B4201D3CB02C01A5241830A8B4201D325
:1002D0008B02C01A5241430A8B4201D34B02C01A0F
:1002E0005241030A8B4201D30B02C01A5241CDD2B4
:1002F000C3098B4201D3CB01C01A524183098B42FF
:1003000001D38B01C01A524143098B4201D34B01E7
:10031000C01A524103098B4201D30B01C01A52414A
:10032000C3088B4201D3CB00C01A524183088B42D1
:1003300001D38B00C01A524143088B4201D34B00BA
:10034000C01A5241411A00D201465241104670472C
:100350005DE0CA0F00D04942031000D34042534031
:1003600000229C4603098B422DD3030A8B4212D3F1
:10037000FC22890112BA030A8B420CD38901921123
:100380008B4208D3890192118B4204D389013AD060
:10039000921100E08909C3098B4201D3CB01C01A35
:1003A000524183098B4201D38B01C01A5241430948
:1003B0008B4201D34B01C01A524103098B4201D336
:1003C0000B01C01A5241C3088B4201D3CB00C01AA3
:1003D000524183088B4201D38B00C01A5241D9D2BB
:1003E00043088B4201D34B00C01A5241411A00D23C
:1003F0000146634652415B10104601D34042002B38
:1004000000D54942704763465B1000D3404201B5B6
:10041000002000F005F802BD0029F8D016E770476B
:100420007047C046437802781B021A438378C0782D
:100430001B041343000618437047C046030A4B7061
:10044000030C8B70030E0870CB70704703005A7852
:100450000078120202439878197900040243D87890
:10046000000610435A7912020A43997909040A4393
:10047000D979090611437047030A5370030C93702E
:10048000030ED3700B0A53710B0C93710B0E10708B
:100490001171D3717047C046024A1368013313606B
:1004A0007047C04610030020C021074A074B084888
:1004B0005360036A09061B021B0A0B4303620023F5
:1004C000936007331360704710E000E0FE7C00008B
:1004D00000ED00E00E4AD3691B061B0F4370D9B232
:1004E000D3690C4A1B071B0F83700B4B1B684360BF
:1004F00093420BD102230370002901D101234370E1
:10050000064B9B8A01339B00836070470123F2E70F
:100510000000904041A000022800904000001040E0
:10052000F0B5070085B001AC0E0020001500FFF704
:10053000D1FF23783B7063783370A3782B7005B0BC
:10054000F0BD10B501F091FD10BD10B501F0A8FD92
:1005500010BD10B501F07AFD10BD0078C0B2704733
:10056000024A138ADB07FCD57047C04600001040E2
:10057000084B10B51A68084B9A4209D13F22074B25
:1005800040061A81000C2E3A98611A80FFF7E8FFA6
:1005900010BDC04614000020CCBCECFC0000104094
:1005A000084B10B51A68084B9A4209D13F22074BF5
:1005B00080081A810C3A986119641A80FFF7D0FFFD
:1005C00010BDC04614000020CCBCECFC0000104064
:1005D0000379F7B50168002B30D18022D20553682A
:1005E0008B43536020258022002106686D42D2058E
:1005F00033000124CB4023420DD00379CCB20193C8
:10060000072924D80F238F00BB40D46A9C43019B49
:10061000BB401C43D462013104351A29E8D1802340
:100620004279DB05012A39D1DA683243DA6082790E
:10063000012A36D19A6816439E60F7BD062BD1D1A8
:10064000002380220371D20553680B43C9E72700BA
:10065000083F072F08D80F27019BAF40AB40146B12
:10066000BC4323431363D6E7103C072C0AD82F0062
:100670000F23203FBB40546B9C43019BBB401C435A
:100680005463C8E72F000F23403FBB40148F9C43A7
:10069000019BBB401C43A4B21487BCE7DA68B24399
:1006A000C4E79A68B2439A60C7E78023DB05012953
:1006B00001D1D86370471864FCE780234268DB05EA
:1006C0000168012A0FD11A690A431A6180238168DF
:1006D000DB050268012909D19969114399615969BA
:1006E0009143596170471A698A43EEE7002907D19F
:1006F000D24399691140996159690A405A61F1E7F9
:1007000059690A43FAE78023DB05DA69002902D038
:100710001043D86170478243DA61FBE78022D2053B
:10072000936A1843906270478023DB055B6A184028
:10073000431E9841C0B27047C02380221B0619781F
:1007400052420A437F211A701A780A401A70704781
:10075000C02301211B061A780A431A701A788A43AB
:100760001A707047C0231B0618688007C00F7047B7
:10077000024B1868431E9841C0B27047000400C085
:1007800030B50300012811D0022811D00120032B1D
:100790000BD1084A08000B0020301D685C1A043396
:1007A000A5508342F9D10020106230BD024AF1E722
:1007B000024AEFE7B40400C06C0400C0900400C01B
:1007C000030001280FD002280FD00120032B09D1EC
:1007D000074B1A00C91A20321878C85401339342C3
:1007E000FAD100207047034BF3E7034BF1E7C04613
:1007F000B40400C06C0400C0900400C0044B1A6A2A
:10080000012902D110431862704782431A62FBE744
:1008100000009040054B0122196B002802D00A43CA
:100820001A63704791431963FBE7C04600003040EC
:10083000F8B54A4C0500236B01681B0700D56DE035
:1008400009014748FFF778FCC3099AB2A284454AD8
:10085000DB0101301340C01A400880B23F2802D9A2
:100860003F233F381840032760263F4BC0B2187023
:100870003E4B2A7918783A405201B0431043187021
:1008800001206979227F39404901B2430A43227726
:10089000AA7919780240BA40073081431143197090
:1008A000217F81430A432277EA79002A38D1022145
:1008B0001A788A431A70227F8A43012022772A7A83
:1008C000216B1600C2402A4F064076023940314360
:1008D0002163216B274E0240314012020A432263FA
:1008E000697A226B0E00C140234F06403A40B6039E
:1008F00032432263226B214E01403240C90311432F
:100900002163AA7A197802400F3012018143114302
:100910001970237F83431A432277F8BDC90090E7FB
:10092000022A0CD1042019781143197019788143D7
:100930001970217F0A432277227F8243BDE702217B
:100940001A780A431A700422187810431870207F0E
:1009500001432177217F0A43AFE7C04600003040C2
:100960000000127A80FF7F00280030402C003040C9
:10097000FFFDFFFFFFFEFFFFFFBFFFFFFF7FFFFF4A
:10098000044B1A8F002902D0104318877047824306
:100990001A87FBE700003040024BC005C00D1880ED
:1009A0007047C04600003040014B1888C0B2704705
:1009B00000003040054B002805DA5B681840431EF4
:1009C0009841C0B270471B8BF8E7C046000030402A
:1009D000034B9B8F1840431E9841C0B27047C046DE
:1009E000000030400722024038200449D2000B7832
:1009F00083431800104308707047C04634003040ED
:100A0000F0B583780178002B33D040784AB280016A
:100A1000002A1BDA0F230B40083B1B4A9B089B0054
:100A20009B18FF22032517000D40ED00AF40024048
:100A3000AA40DE69BE433243DA611F224B091140EE
:100A40001E3A8A4011499B00CA50F0BDFF270F4B48
:100A500092089200D21803233C00C0250B40DB0013
:100A60009C4038409840AD005659A6433043505101
:100A7000E3E71F234A090B40012199401300034A71
:100A800020339B00D150E0E700ED00E000E100E002
:100A900010B5094C002801D0012805D000F07CF8E1
:100AA0000138C000205805E000F076F80138C00099
:100AB0002018406810BDC0465860051070B501216F
:100AC00086B006000920FFF799FE00F065F81C4B80
:100AD00001388000C3580024019300F05DF8194BE1
:100AE0000138800001ADC35828002B71AC716C71C6
:100AF000FFF76EFD00F050F8134B01388000C3582B
:100B0000019300F049F8114B01388000C3582800C8
:100B10002B71FFF75DFD0125032303A803714371CA
:100B200003728471C471447285720396FFF780FE6C
:100B30002000FFF757FF2800FFF76CFE06B070BDDE
:100B400054600510506005104C6005104860051099
:100B5000042313B5040001A80370013B43708470A3
:100B6000FFF74EFF21001020FFF70AFF13BD10B55D
:100B700001F07BFA10BD10B501F077FA10BD10B589
:100B80000A00002101F08CFA10BD00000122014B87
:100B90001A70704714030020014B1878C0B27047D8
:100BA0001403002010B50F4C01280AD0002801D0F2
:100BB00002280ED0FFF7F0FF431E0C2058432058A8
:100BC00006E0FFF7E9FF431E0C2058432018406859
:100BD00010BDFFF7E1FF431E0C205843201880682A
:100BE000F6E7C0466060051010B5FFF7DBFF012196
:100BF000FFF75BFD10BD10B5FFF7D4FF0021FFF735
:100C000054FD10BD13B5012104000800FFF7F6FDE7
:100C10002000FFF7C7FF6A4606230090137168465D
:100C2000053B93715371FFF7D3FC2000FFF7E3FFFF
:100C300013BD10B508F08EFB10BD10B507F0A4FF72
:100C400010BD10B508F05AFA10BD7FB50BAE36884E
:100C500008AC09AD2D88248803960A9E019502965A
:100C6000009408F067FC7FBD7FB508AC20CC0AAECD
:100C70002478367801940296009508F09DFB04B024
:100C800070BD10B502F00CF810BD10B50AF07AF87E
:100C900010BD01207047F0B58DB012AC24780993D7
:100CA0000A9413AC248818AB1B880B9415AD14ACB4
:100CB00016AE17AF24882D8836883F8806930B9B85
:100CC000059701930A9B0496009303950294099B50
:100CD00001F024FA0DB0F0BD10B501F0BBFD10BD60
:100CE00010B501F035FF10BD10B50CF0A7F910BD1F
:100CF00010B509F047FF10BD10B509F04FFA10BD4F
:100D000010B501F0A3FF10BD10B501F0A7FF10BD95
:100D100010B505F0B7FF10BD10B50FF08FF810BD7E
:100D200010B50EF073FE10BD10B50FF081F910BDB7
:100D300010B50EF093FE10BD10B508F039FD10BDD2
:100D400010B505F075FD10BD10B508F037FF10BDEA
:100D500010B508F07DFD10BD10B508F079FE10BD8E
:100D60000120704710B504F0F7FD10BD10B511F06B
:100D70006DF910BD10B511F03BF910BD10B511F0B3
:100D80001DF910BD10B511F027FB10BD01207047F3
:100D900010B511F07BFB10BD10B511F061FB10BD5B
:100DA00010B50FF029FE10BD10B50FF045FE10BDB7
:100DB00010B50FF0D3FE10BD10B50FF099FD10BDAA
:100DC00010B50FF0B5FD10BD10B50FF0DBFD10BD77
:100DD00010B50FF047FE10BD10B50FF065FE10BD49
:100DE00010B50EF071FE10BD10B50EF040FE10BD36
:100DF00010B50FF047F910BD10B50FF05BF810BD3E
:100E0000704770477047704770477047704770472A
:100E1000704770477047704770477047704770471A
:100E200070470000002210B5084B1A60084B1B7A6F
:100E3000934209D1074B1B89052B05D9064B01327B
:100E40001A70FFF756F9FEE7012010BD14000020CC
:100E500000009040000010480C00002070B5FFF723
:100E6000E1FF012817D1002314481549154C1A1821
:100E70008A4216D3002314481449154C1A188A4282
:100E800013D30021134B144A934212D30021134B66
:100E9000134A93420FD3134B83F3088800F0B4FF37
:100EA00070BDE55804331560E1E7E558043315607B
:100EB000E4E702C3E8E702C3EBE7C046D01F002027
:100EC00024200020B868051008000020340000200D
:100ED0008C680510C0000020CC020020CC0200204D
:100EE000D01F002000600020002210B5104B995C3C
:100EF000C9B2002917D11C2A14DC022021249854DD
:100F0000501C1C54901C193C1C54901D19549B18C7
:100F1000802290219BB252021343C905CB60CB685B
:100F20001342FCD110BD995C01315218D2B2DEE7F8
:100F3000150300200023F0B5144AD45CE4B2002C61
:100F40001ED1192B0FDC02253B275E1CD55497556B
:100F50005E199055DE1C955535261D1D56555D1D97
:100F600006335155D45402223B24094B1A705C704D
:100F70009870DA7033321A71002259719A71F0BD8B
:100F8000D45C01341B19DBB2D7E7C046150300203F
:100F90004403002070B58AB003AC05000E0019228E
:100FA0004449200001F061F86846FFF793FA002DEC
:100FB00062D04423404AA373117A433B0B4313721C
:100FC0004C23E3722C3B237292336374573B23759B
:100FD0003A4B3B4A1B68190C914208D17020E17DC5
:100FE0001B018143E175E17D03400B43E375354B04
:100FF0001B68190C914208D1302061791B01814393
:101000006171617903400B4363712F4B1B68190CAD
:10101000914207D10321E27D0B408A43E275E27DD4
:101020001343E3750422E37A69469343E3726B4604
:101030005B78897893400B43112B08DDE37D1A43DD
:10104000E275E07AE17DC0B2C9B2FFF773FF802399
:1010500090222404240C5B021C43D205D460D16886
:101060001942FCD16B466A465B7892781B011343A8
:10107000112B01DDFFF738FF144B1A8B002AFCD02F
:1010800001221A8316329A8100221A61964207D0F1
:1010900090231021DB0518691A6942400A42FBD0EF
:1010A000002D02D015220A4B1A700A4A0A4B1A6008
:1010B0000AB070BD1460051000002040E807001061
:1010C00055AA0000E4070010B00700100000104807
:1010D0000000C040CCBCECFC140000200822C02161
:1010E000F8B53F4B3F4D9A803F4A0904136AFF20F1
:1010F0002B400B43C0211362136A09061B021B0A13
:101100000B431362C02292009446384B64469A58AF
:10111000374E82433F38024360461A501A58C02067
:101120003240000202431A51C122FF2792009C580C
:10113000BC433F3F3C439C509C583F3734400443A2
:101140009C509C582C409C509C582402240A0C43D0
:101150009C500832944664469A58324002431A51D1
:101160001A59C0242A402404224364461A511A59A9
:101170001202120A0A431A51C4229200944664468B
:101180009A58324002431A511A59C0242A40240462
:10119000224364461A511A591202120A0A431A517A
:1011A000C52292009C58BC432700C0242743C0247A
:1011B0009F509F5824043E40304398509858054013
:1011C0002C439C5098580002000A01439950012179
:1011D0000800FFF7DFFE074A074B1A6262B6F8BD48
:1011E00000001040FFFF00FF00ED00E000E100E024
:1011F000FF00FFFF66000E00000090402A23F0B5BC
:101200008BB006AC23709B336370D523A370A523EA
:10121000E37000236371B433A3719A23E371E12374
:101220002372112363723A23A372CF23E3728023C4
:1012300023736E23022563733623764E102221001A
:101240003000A3732571E573FFF77BF9724A734B86
:1012500031001B7828000092012201F04AF8071E95
:1012600006D002206E4900F02DFA47200BB0F0BDE9
:101270002B2323709A336370D523A370A523E370C7
:10128000B423A3719A23E371E123237211236372C0
:101290003A23A372CF23E372802323736E236373F5
:1012A0003623604E6071102221003000A373257137
:1012B000E573FFF746F9584B320018885A4B0497EC
:1012C0000593102302970393019700950F3B290084
:1012D00000F0F0FF071EC4D12C23237099336370F4
:1012E000D523A370A523E370B423A3719A23E371DC
:1012F000E1232372112363723A23A372CF23E37293
:10130000802323736E2363733623607110222100C0
:101310003000A3732571E573FFF713F93E4B3200DC
:101320001888424B04970593102302970393019763
:1013300000950C3B290000F0BDFF071E00D090E790
:101340002D23237098336370D523A370A523E370F6
:10135000B423A3719A23E371E123237211236372EF
:101360003A23A372CF23E372802323736E23637324
:1013700036236071102221003000A3732571E573BC
:10138000FFF7DFF8244B32001888294B04970593A8
:10139000102302970393019700950F3B290000F05B
:1013A00089FF071E00D05CE72E23237097336370FC
:1013B000D523A370A523E370B423A3719A23E3710B
:1013C000E1232372112363723A23A372CF23E372C2
:1013D000802323736E2363733623607110222100F0
:1013E0003000A3732571E573FFF7ABF80A4B3200A9
:1013F0001888104B049705931023029703930197C5
:1014000000950F3B290000F055FF002800D028E789
:101410002CE7C046BC0800208204002021200020C8
:1014200085600510880400209C0800209E0800208C
:1014300086040020CC0800201A23F0B58BB006AC3F
:101440002370C5236370D523A370A523E370002305
:101450006371B433A3719A23E371E12323721123DF
:1014600063723A23A372CF23E372802323736E2324
:10147000022563733623464E102221003000A373E9
:101480002571E573FFF75DF8424A434B31005B7805
:1014900028000092012200F02CFF4049071E6CD169
:1014A0001B232370AA336370D523A370A523E37095
:1014B000B423A3719A23E371E1232372112363728E
:1014C0003A23A372CF23E372802323736E236373C3
:1014D0003623334E6071102221003000A373257132
:1014E000E573FFF72EF82B4B290018882D4B049736
:1014F0000593102303930F3B029319330197009335
:101500003200023B00F0D6FE2749071E35D11C23CE
:101510002370A9336370D523A370A523E370B4238C
:10152000A3719A23E371E1232372112363723A2397
:10153000A372CF23E372802323736E236373362356
:101540006071102221003000A3732571E573FEF74E
:10155000F8FF104B32001888144B049705931023A2
:1015600003930C3B02930E3300930197063329003B
:1015700000F0A0FE002808D00D49280000F0A2F8D5
:1015800002200C4900F09EF847200BB0F0BDC04689
:10159000BC0800205403002021200020C860051052
:1015A000880400209C0400206C600510CE080020F8
:1015B0006E600510706005107FB500221D4B1E4D3A
:1015C00003AC1988227028880123009400F0B0FE33
:1015D0001A49061E28D11A49200000F069FD194B4E
:1015E0002888198832000094042300F0A1FE1649CF
:1015F000021E19D1154B28881B782370144B1988AB
:101600000094012300F094FE1249021E0CD1124BEB
:1016100028881B782370114B19880094012300F04F
:1016200087FE002804D00E49022000F04BF8472026
:1016300004B070BD9C080020820400209B6005104F
:10164000C56005109E080020CA600510980400209F
:1016500086040020F9600510A1080020CC080020B5
:10166000286105100023064A1360064A1370064AD3
:101670001370064B064A5A60064A9A607047C04685
:10168000F8030020800400208404002000040020CF
:101690005A61051069610510074B01201B68002B7A
:1016A00008D1064B1B78002B04D1054B1878431E3C
:1016B0009841C0B27047C046F80300208004002063
:1016C0008404002010B50C00074B8000C05800F0C7
:1016D00051F8064800F04EF8200000F04BF804489E
:1016E00000F048F810BDC046000400202A6505102F
:1016F0006A65051030B5194991B00400FEF712FD76
:10170000002809D1164800F068FB164800F065FB78
:10171000154800F062FB1CE014492000FEF702FDB2
:10172000002818D164236A4607AC6370613B2372BA
:1017300040336372BC33A372EF3BE3720BAB23CB3A
:1017400023C203CB03C207980899099A0A9B00F0A9
:101750005BFC11B030BD0648D8E7C0467961051082
:1017600081610510C56005106A6505109B61051053
:10177000A261051010B500F030FB10BDF0B50E00F1
:1017800085B001AF04000B221149380000F06DFC58
:101790003500002C03DA2D23751C337064422000C1
:1017A0000A210135FEF752FD0028F9D128702000EA
:1017B0000A21FEF731FE7B5C013D20002B700A21DF
:1017C000FEF744FD041EF2D1300005B0F0BDC04666
:1017D000B46105101FB501A9FFF7D0FF01A800F003
:1017E000FCFA05B000BD000010B5FFF7CFF90020EE
:1017F000FFF708FA0120FFF705FA0220FFF702FAC7
:101800000020FFF7F8F90120FFF7F5F90220FFF7B4
:10181000F2F9E1204002FFF751F90120FFF798F9B2
:101820000148FFF7A7FF10BDBF610510012130B5CA
:10183000080087B0FEF7E2FF0020FFF729F9002437
:1018400001AB019018001C719C715C71FEF7C0FE29
:101850006B466A4601251C700323684653709570D9
:10186000FFF7CEF82000FFF713F9039003A80494C4
:101870000595FEF722FF2000FFF70AF9FEF74EFF5D
:101880002000FFF705F92900FEF73DFF07B030BD46
:10189000F0B50725354C8DB02100062208A800F0D0
:1018A000E4FBA11D2A000AA800F0DFFB062108AA1C
:1018B000002000F05CFD2E49041E52D104210120BD
:1018C00000F051FD00F030FD2A49041E49D11A26CE
:1018D0001E236E446B4407AF019301000097330051
:1018E0002A00052000F047FC041E09D002202249EE
:1018F000FFF7E8FE2000FFF76DFF20000DB0F0BD00
:101900000AAB31883A880393029501900095030051
:1019100000F018FD1949041E23D1194B012103932E
:101920001023049002900193020003000095080028
:1019300000F03AFC1349041E13D11348FFF71AFFB5
:10194000FFF75CFC041E0BD11048FFF713FFFFF7F5
:1019500073FD0F49041E04D10E48FFF70BFFCCE7BF
:101960000D490220FFF7AEFEC7E7C0462D60051007
:10197000A9630510CC630510E3630510F963051036
:1019800040E20100216405105164051075640510E2
:10199000D3640510B36405109664051010B50F48A4
:1019A000FFF7E8FE0E4800F02BFD002806D00D4999
:1019B0000220FFF787FE01220B4B1A70FFF768FF2A
:1019C000002807D009490220FFF77CFE0122064BC0
:1019D0001A7010BD0648FFF7CDFEFAE751620510F8
:1019E000DC6105106A620510840400209262051013
:1019F000A862051030B508248BB0124908AD22004A
:101A00000D31280000F031FB0021080004F038F906
:101A100080220020D2010690059004900390029548
:101A2000019400900123110000F006FC002805D06D
:101A300005490220FFF746FE0BB030BD0348FFF713
:101A400099FEF9E72D6005105F63051081630510AD
:101A500070B527488CB0FFF78DFE00F00EFC2549CD
:101A6000041E1ED12448FFF785FE244D06222900BE
:101A700008A8153100F0F9FAFA23DB000693059364
:101A800080213C23C9010493143B039402930193E6
:101A90000094220008AB0800FFF7FDF8041E06D0F2
:101AA00017490220FFF70EFE20000CB070BD290080
:101AB00008250AAE0D312A00300000F0D6FA802247
:101AC000D20106940594049403940094110020001C
:101AD00002960195012300F0AFFB0A49041EE0D1F4
:101AE0000948FFF747FE0948FFF744FEDCE7C04618
:101AF000C7620510DA620510006305102D6005103D
:101B00002C6305105F630510816305104D6305109C
:101B10000122134B10B5029C1A60124B1248198017
:101B2000FFF728FE207800F04DF9607800F04AF9C0
:101B3000A07800F047F9E07800F044F9207900F04F
:101B400041F9607900F03EF90D2000F03BF90023E7
:101B5000064AE15CD1540133062BFAD110BDC046D0
:101B6000380300203C03002047620510B208002023
:101B700000230121054A10B51360054A054811707C
:101B8000054A1380FFF7F6FD10BDC046380300205C
:101B900023200020396205103C03002010B50248C4
:101BA000FFF7E8FD10BDC0462262051010B51C000D
:101BB0000348FFF7DFFDE0B2029900F007FA10BD1D
:101BC0001062051010B50248FFF7D4FD10BDC046E5
:101BD0002B62051000230F4A10B513700E4A0F49EF
:101BE00013700F4A0F4813700F4A1160FF218900CC
:101BF00004338B4208D100230C490D481A1DA42A36
:101C000004D1FFF7CBFE10BDD050F1E7C850130050
:101C1000F4E7C046A108002098040020B80800207E
:101C2000A0080020F8030020A00400205803002092
:101C300080040020F8B52248FEF78FFC214B187075
:101C40002148FEF78AFC214B18702148FEF785FCDD
:101C5000204E3070282804D9FF221F4B1A702823E9
:101C6000337001271D4C2000FEF777FC1C4D8000CF
:101C7000435901341F601B4B7F009C42F3D10E245B
:101C8000194BE018FEF769FC80002B581C600134EA
:101C90001E2CF5D1002533789D4200DBF8BD134B97
:101CA000EC1864002000FEF758FC0700601CFEF7EB
:101CB00054FC0F4BBF00FB5801351870EBE7C046D2
:101CC00080EF0710A108002081EF07109804002082
:101CD00082EF0710A00800208004002090EF07107A
:101CE000A00400209EEF071092EF0710D8F703081A
:101CF00058030020002230B5104B01781C788C422C
:101D000015D145785C78A54211D185789C78A5429B
:101D10000DD1C578DC78A54209D105791C79A54299
:101D200005D145795C79A54201D1D0B230BD0132EF
:101D30000633322AE2D1FF20F8E7C04635090020F9
:101D4000322807D900230B704B708B70CB700B714E
:101D50004B71704706225043064BC25C18180A703C
:101D600043784B7083788B70C378CB7003790B7199
:101D70004379EDE73509002010B51020FEF728FE65
:101D8000002400280AD104000C4A0D491378CC54D1
:101D90000133137011E0FEF707FEC4B21020FEF706
:101DA00009FE0028F7D00D2CEED10022034B044889
:101DB00019781A704254FFF79DFC10BDD00800201E
:101DC000D108002010B504002020FEF7F3FD012803
:101DD000FAD0A0B2FEF7E0FD10BD10B504002078E7
:101DE000002800D110BDFFF7EDFF0134F7E7000038
:101DF00010B5044C2378002B03D0FFF7FBFD002324
:101E0000237010BD2320002010B5FFF767F9FFF7FE
:101E1000EBFCFFF70BFDFEF747FBFFF723FCFFF79B
:101E2000D9FEFFF707FFFFF7C7FBFFF735FC0028D8
:101E300002D10230FEF7D8FE00F09EFAFFF7D8FF7D
:101E4000FAE710B504F08AFD10BD10B5FEF724FBCB
:101E500010BD10B5FFF790FF10BD000070B5144D18
:101E6000144C2868A0420FD0C0B2FEF711FEFEF756
:101E70005BFC012808D12868C0B2FEF709FEFEF716
:101E80004DFC00F0DDF870BD0B4D2868A042FAD083
:101E9000C0B2FEF7FDFDFEF747FC0128F3D128682C
:101EA000C0B2FEF7F5FDFEF739FC00F0CAF8EAE72C
:101EB000C41F0020FFFF0000C81F002084B070B5C1
:101EC00007931B23254D06922A78254E53439C5D8C
:101ED00004900591002C07D022490120FFF7F2FB66
:101EE00070BC08BC04B018471F48FFF743FC1F48EC
:101EF000FFF740FC04AB1878FFF76CFC1C48FFF7B9
:101F000039FC04AB5878FFF765FC1A48FFF732FC40
:101F10001948FFF72FFC04AB9B789C4213DB174852
:101F2000FFF728FC1B22287804A95043301800F042
:101F30009CF82B780133DBB22B702B78092BCFD98F
:101F400000232B70CCE704AB1B19D878FFF742FCB9
:101F50000B48FFF70FFC0134DDE7C046610A0020A3
:101F6000630A0020EF640510046505101465051070
:101F7000216505102D6505103765051039650510BB
:101F80002B650510F0B5040089B00E480D00160051
:101F9000FFF7F0FB0C48FFF7ADFE002301A9AB42B1
:101FA0000ADB012348700B708D701B22200000F0AB
:101FB0005CF8200009B0F0BDF75CCA18D770013397
:101FC000EDE7C0463C650510B208002030B50D00B5
:101FD00004008DB00B48FFF7CDFB210005A82A00B7
:101FE000FFF7D0FF6A4609AB03CB03C21988118003
:101FF0009B78937005980699079A089BFFF75EFFF8
:102000000DB030BD5065051084B007B504900B4885
:10201000069205910793FFF7ADFB04AB587869462C
:10202000FFF78EFE192204AB197A6A446846FFF75F
:102030000FFD03B008BC04B01847C0466C6505101E
:102040007047704710B500F019F810BD30B5002486
:10205000A24201D1002005E0035D651C0C5DA34296
:1020600001D0181B30BD2C00F2E7002310B59A42B6
:1020700000D110BDCC5CC4540133F8E710B58842E0
:1020800002D98B18984208D300239A4207D0CC5C1F
:10209000C4540133F9E78B5C8354013AFBD210BD81
:1020A00003008218934200D1704719700133F9E799
:1020B000031C0A7801311A700133002AF9D17047E4
:1020C000F0B5054600200F46079E059C174309D032
:1020D000202905D30127BF03BA4201D8914201D973
:1020E0004220F0BD194621430AD09C42F8D3094949
:1020F0008C4203D00849A41F8C42F1D2062BEFD3A7
:10210000002D03D0022D01D0032DE9D1032EE7D8F5
:10211000F0BD0000FFFF00007B0C0000FFB58DB09C
:10212000144618AAECCA04976F466CC70A460146C3
:1021300005A8179B03F0B0FD00280AD108A8447138
:10214000012C08D0002C06D0022C04D0032C02D085
:10215000422011B0F0BD09A8062202301099FEF706
:10216000F0F908A916980873C0B20328F0D805A89A
:1021700000F03EFBEDE77CB5069D079C002805D0EE
:10218000860705D1460703D4060701D442207CBD4B
:10219000002903D0012901D00229F7D1009501942B
:1021A00000F07CFB7CBD0000FFB58DB0179F169D35
:1021B0001446060004D0012E02D0422011B0F0BD1A
:1021C0000E98002801D00128F7D1E81F0A28F4D280
:1021D000102FF2D8AF42F0D31898002801D0012870
:1021E000EBD1144919988842E7D81A98002801D0F1
:1021F0000128E2D1FEF7CAFD012804D0109820433F
:1022000006D01120DAE7022CD7D810980128D4D8AC
:10221000684686700E99C1700473109941730571F8
:1022200047711899C1711998029068461A990FF070
:1022300007F8C3E73F420F00FFB587B0109D159E1A
:10224000169C01930295009407A807C81F463346C1
:10225000FFF736FF00280ED11398149903AA0694AD
:1022600043C21198129901900095029107A807C8DE
:102270003B4600F0A3FC0BB0F0BD10B500F0BAFC7B
:10228000040002D101200AF0B1FC204610BD70B557
:102290001C4613460D46012C03D0022C03D04220CD
:1022A00070BD022200E010221946FEF74AF92C7098
:1022B000002070BDF0B587B01C460B46054600A94E
:1022C000023101A80C9F0D9EFFF7E1FF00280ED1FF
:1022D0006846058084828775C6750E9901760F99C8
:1022E0004176109981766946119801F0E3FC07B0B8
:1022F000F0BD70B586B014461D460A4603466946D1
:10230000881C0A9EFFF7C3FF002804D1012C04D0CB
:10231000022C02D0422006B070BD23462A466946F0
:10232000304601F00DFFF6E710B502F08FF910BD51
:1023300038B56D46049C2A806B8023466A4602F0BD
:1023400029FC38BDF0B585B084460AA8F0C86846B7
:102350008581C68103A8019002970094604602F02F
:102360004DFC05B0F0BD10B503F078F910BD10B507
:1023700003F096F910BD000010B503F0C1FD1E4C2E
:102380004721206849014118097A002909D1A03064
:102390000079C00729D003F03FFB03F095FA10F055
:1023A000B9F800F003F92068014640310A78C9798C
:1023B0008A4319D13E21095C002915D10F490A88A9
:1023C000120711D50922D2061269497A836AC90017
:1023D000591809231B02C018406D801A0002001210
:1023E000814201DA0CF06CF810BD00F0C7FB01F07F
:1023F000C7FF0CF0F7FFD0E71C200020C000002032
:1024000010B5837F0122002492024168082B03D972
:102410004224914202D310E0914201D242240CE0C6
:10242000014634220648FEF78CF800F07FF80028B9
:1024300001DA482401E000F029F9204610BD00002F
:10244000DC0200203EB5174D15482968827F0846FA
:10245000A0310A7300246030047644768476E12249
:10246000C2768022027702224277302008704C70B8
:1024700002AA01A96846FEF753F868460078A2222E
:1024800001016846007A891C000201436846007910
:102490000003014328681152A03004713EBD0000C2
:1024A000DC0200201C20002070B503F00DFD0BF0B5
:1024B000F3FA0AF09BF810F049FE03F0DBFE184C2B
:1024C00018492068184D4018811001202A68C00260
:1024D0001018816661688908C166A168890801676A
:1024E0000EF03CFE1D2029688001228B081802870F
:1024F000628B4287A28B4286628C82862046203085
:1025000002783B204001081882750021017000F01C
:10251000C3FA03F0E7F903F06FF910F081F870BD2A
:10252000DC0200200000FCEF1C20002070B500251C
:10253000ED43FEF715FC01282ED000231849032295
:10254000888BFF24401E10438A7F4D3462438218DB
:10255000088B282460431218488B302460431218DB
:102560000846203040782C24604310180D4A181873
:1025700084184869A0420DD10B4884420AD90D69DC
:10258000FEF7EEFBC1B2284608F08EFC08F0BCFD59
:10259000401B251A284670BDFF23B533CEE7000047
:1025A000DC02002035190000540A0000F8B52C4F59
:1025B0003C68206E5C34401C002814D0002529485B
:1025C0000023C07B00283ED00926F6062648002DB1
:1025D0001CD000210A460B464169521C994204D185
:1025E000002902D004E00125E9E7204B9A42F2D30A
:1025F0002160006960603069A1680002090E000A6C
:1026000009060143A16000F033F81DE03169A268BA
:102610000902090A150E08D0018BC90712D04169B9
:10262000216000696060E37210E0881A00027D2377
:1026300000121B03984205DD100E00060843A0603F
:1026400000F016F8F8BD6360002DFBD003CC0BF052
:1026500061FEFA200BF04EFE39688862F8BD00007A
:102660001C200020FC0200200000104888130000FD
:102670000449002008610448012100686030C171EC
:1026800070470000000010481C200020F8B5062606
:10269000374840250560374800270780A9050920ED
:1026A000C0064160344A91600168016033490C6999
:1026B0004A690321601E08430021401CFDF745FFC5
:1026C000FEF74EFBC1B2204608F0EEFB08F01CFD01
:1026D00008F026FDFEF71CFB294917208881294CAC
:1026E000FA2220680146403047708A622821017032
:1026F000FEF7CFFA012805D120681022403001787A
:1027000011430170FEF742FB012805D120688022A9
:1027100040300178114301702068A421095CC90789
:1027200004D0014640310A782A4303E00146403193
:102730000A7832430A700021C9430166FDF7FCFFA5
:10274000FFF780FEFFF7B0FE2068012120300177FF
:1027500007214177012002F081FF06F03FF9FFF7E2
:1027600025FF03488038056002210160F8BD0000A4
:1027700080E100E0C000002040000048DC020020B2
:10278000000010481C20002038B5184A1468224662
:10279000BA32AE34A378DD0701D001290AD05B0735
:1027A0000CD501290AD0217949070BD5E17A0029F6
:1027B00005D007E0E07880210843E07038BD0121B2
:1027C000E172508020794106090FF7D07821084046
:1027D00069460870002048706A460221422000F0D5
:1027E00095FB207987210840207138BD1C200020EE
:1027F000F8B5054600276846077015484626046860
:10280000AE3420798006800F03D00021084607F0FF
:1028100087FBA078400718D520794C21084214D1B5
:102820000023287E6A4619460AF082F800280DD156
:102830006846007828762F74284607F039FA060093
:1028400003D120794021084320713046F8BD0000B3
:102850001C20002038B51048002104680846AE341A
:1028600007F05EFB694648702079C10704D001215A
:102870006A46117088432071C0B2810705D50221D4
:102880006A461170FD210840207102216A460846FF
:1028900000F03CFB38BD00001C200020FFB50C46BA
:1028A00078A103C995B001910090002108A8017397
:1028B0000321C90268464186012108A8734E0174AC
:1028C00035681746AE3512F0A5FC002808D17049CE
:1028D000306840180AF022FAA878002802D0462072
:1028E00019B0F0BD0BA81599FEF70AFA0028F7D128
:1028F000072010A90871012C05D0022C0AD0002C49
:102900000ED04220ECE708A8017B1020014308A864
:10291000017305E011A90BA8FEF7B3F90028DFD178
:1029200010A8027901230CA9284601F009FC00280F
:102930007ED1022229461898FDF703FE29886846B1
:1029400081811521490201820784012686734E2167
:1029500008A881700024C470067107214171867136
:1029600003A902A801F0A6F9002861D1022202A958
:102970001E98FDF7E6FD082F02D26846478502E063
:1029800008206946488569460C850B4628880AAAAE
:10299000098902F0FFF800286DD13E49684601829E
:1029A0000227078408A8847103A902A801F082F90C
:1029B000002860D1022202A91F98FDF7C2FD6846D7
:1029C0000470694644704F850B4628880AAA098915
:1029D00002F0E0F800284ED108A8007BC00723D001
:1029E0002C496846C91C01820821018408A8877007
:1029F000047103A902A801F05DF900283BD1FF2171
:102A00006846C1718171C1708170417001704471FB
:102A100004716946082048850B4628880AAA098956
:102A200002F0B8F8002826D108A8007B800600E054
:102A300021E022D52988684681811649A531018285
:102A40000684867308A88770C470047107214171D9
:102A5000847103A902A801F02DF900280BD1694661
:102A60000E700C854E850B4628880AAA098902F04B
:102A700091F8002801D0472032E708A8007BA87011
:102A800000202DE7626C75656E7267211C200020A6
:102A9000DE060000012A0000034800210068AE3075
:102AA000C1708170704700001C20002070B50D4B74
:102AB0001C68AE342379DD0612D45B0710D53328A9
:102AC0000ED1E07A02280BD1042010700020507043
:102AD000C9B2022000F01AFA2079FB2108402071C7
:102AE00070BD00001C20002038B5024617480124A4
:102AF0000068AE30022A1FD0052A03D0072A07D06B
:102B00000B2A20D1084609794088FFF73DFE1AE0DC
:102B100000790024020600D50124820703D1C206F1
:102B200001D480060FD5084600216A461170694617
:102B300000F0D8F8044606E08178490703D501790A
:102B4000FB2211400171204638BD00001C200020EE
:102B500010B509480468AE34E07880070BD5002032
:102B60000AF0F6FD022000F0A9F9E07801210843FF
:102B7000FD210840E07010BD1C2000201FB50E484C
:102B80000468AE34E078010612D5A178C9070CD0EC
:102B9000800708D5042069460873684603F08CFA5C
:102BA000022000F08BF90020E0704006400EE0703B
:102BB000FEF7AAF81FBD00001C200020F0B58DB064
:102BC0000C4616A9E0C90021089109910A910B91C0
:102BD0001599049105A9E0C112A962C90093019158
:102BE00013460146039602952246012000F0ACF8F8
:102BF0000DB0F0BD002000B58DB00A900B9008908C
:102C00000990059006900790049000900190029022
:102C1000034602460146039000F096F80DB000BD51
:102C20000949B22209681423525CBA311A4208D009
:102C3000498800050905090D000D814201D10120D7
:102C400070470020704700001C2000200278090710
:102C5000090F0A43027000207047000030B50E488B
:102C600085B005682C46AE352879BA34400711D5B1
:102C7000E87A01280ED115214902684641800121D8
:102C8000017060886B46054A00F0A2FA002801D165
:102C90000220E87205B030BD1C200020FFFF0000BC
:102CA0007CB50446E1200D46800005F0B5FC0BA183
:102CB00003C900900191684602F0C2FF01200BF0A9
:102CC000FBFB002801D047207CBD20782021084351
:102CD00020700920287000207CBD00001F02000029
:102CE0000000000030B5174B047A1B68C268AE3391
:102CF0001B799D06AD0F04D10078042801D0002077
:102D00000BE0012030BD401CC0B2155C012D08D085
:102D10001518203DED7F2818C0B2A042F3D30878E3
:102D200030BD401CDD070124C0B2002D02D0105C74
:102D3000C00703E09B07F2D5105C80070028EED0A7
:102D40000C70ECE71C200020FFB595B00E46054640
:102D500020210CA8FDF713FF0020049056480027FF
:102D60000468681EAE34042802D8A078C0070BD0CF
:102D7000062D02D0002D0AD002E0A078800703D5EE
:102D8000E0784006800E0AD0462019B0F0BDA07849
:102D90008007F9D0E0784006800EF5D00FE0002DD6
:102DA0000DD0012D20D0022D28D0062D33D0032D9B
:102DB00033D0042D37D0002E3BD04220E5E7002051
:102DC0000AF0C6FC0028E0D1E078800708D504208E
:102DD00069460873684603F06FF9022000F06EF848
:102DE0000120E0700020D0E7012EE6D0042EE4D0D0
:102DF0001F980028E1D10627042008E0012EDCD02E
:102E0000042EDAD01F980028D7D105270220E070C1
:102E10000120049010E040200DE0022E01D0032E8E
:102E2000CBD1082007E0012E01D0042EC5D11020FF
:102E300001E004272020E07000230BAA19461E9809
:102E400009F076FD030002D000F0E4F832E0102231
:102E5000002107A8FDF779FB07A86C46279B269A57
:102E60001F990FC42B463046189A179900F088F81E
:102E70000300E9D108A8017BC170259803AC049B2D
:102E8000289A29990FC422AB07CB02920091019096
:102E900039460CA8209B219A00F0C6F80300D3D134
:102EA00007A80AF087FF0300CED101200AF050FCEA
:102EB0000300C9D1184668E71C20002010B504465D
:102EC000C1061148006803D51522BF210C4006E059
:102ED0001B2189014118497EC90710D01222210700
:102EE000890E08181121C9014018806F002321465E
:102EF0000FF0E2FB010004D020460FF0C9FB0020D8
:102F000010BD072010BD00001C200020F8B5891E50
:102F1000CDB20646A81C03210843401C830817486D
:102F200017460068F10603D51C22BF210E4008E0B9
:102F30001B2189014118497E090601D40020F8BDF2
:102F400019223107890E08181121C9014018806F14
:102F500031460FF0B1FB04000ED039782171797839
:102F60006171A5712A46B91CE01DFDF7EAFA2146F8
:102F700030460FF08DFBE1E70720F8BD1C20002054
:102F8000F8B5224B224D1B68069C5B190093012368
:102F90009B03002814D0042812D0022814D0032840
:102FA00012D006239C461E461D460F46174310D0DE
:102FB000914203D8A94201D39A420ED94220F8BDCA
:102FC0003025AC46602602E0A025AC46F026202540
:102FD000EBE761462180668001E0218062802071FC
:102FE0000798A071089820720998002805D001461A
:102FF000204606220930FDF7A4FA072060710098E8
:103000002030807B60710020F8BD00001C20002073
:1030100004090000034881220068A030417C11406F
:10302000417470471C200020F8B505463D481E46F7
:103030000068079F0024AE301346002905D0022205
:103040002A7001226A70A9700324002E10D08078A3
:103050008006800F0CD13019401C1F2852D82E55E5
:10306000641C281932461946FDF76BFAA019C4B240
:10307000002F0DD03819401C1F2843D82F55641C31
:10308000E4B228193A460699FDF75BFAE019C4B292
:103090006846008C00281BD06846808C002817D01A
:1030A000601D1F282ED805202855641CE0B212216F
:1030B0002954401CC4B228190646022208A9FDF76B
:1030C00040FAB01C022209A9FDF73BFA241DE4B224
:1030D0000C98002810D0E01C1F2813D80220285577
:1030E000641CE0B20A212954401CC0B22918401CBB
:1030F000C4B208460BF0C4F80B9800280CD0001995
:103100001F2801D94220F8BD28190B9A0A99FDF70A
:1031100018FA0B982018C4B2214628460AF0A6FDDA
:10312000F8BD00001C20002000B500F009F80028C0
:1031300005D0852201699201114200D0002000BD16
:1031400010B50D4900050B680521490259184A6957
:103150000021000DA0331B7B0AE04C01145B240509
:10316000240D844202D14801801810BD491CC9B207
:103170008B42F2D8002010BD1C200020FEB58C68C8
:10318000CD88267B012E01D00020FEBD4126052DD5
:1031900001D01E7019E0247C0A2C00D01E70002A79
:1031A0000DD08968052268460C31FDF7CAF96D1EFD
:1031B00000AAA9B232200132FFF778FC05E00088AE
:1031C0000A460146022000F0FDF94120FEBD000044
:1031D000FFB589B0074646251E781022991C05A820
:1031E000FDF7C5FC012E04D0022E02D042200DB006
:1031F000F0BD3846FFF798FF040024D0202239465E
:10320000002009F0D1F907001CD005AD04960FCDC0
:103210006D460FC5394620460B9B0A9A09F04DFBB7
:10322000050004D00021384609F01AFA0BE001210C
:1032300020694903084320610448A061384600F032
:1032400059FC00E064252846D1E700005132041003
:1032500010B5502100F001F810BDF0B58BB00D464F
:1032600004460020694608710490E669002E16D0D5
:10327000A806800F03D02088FFF7D2FC049001AB92
:1032800031462046049AFFF779FF412865D0E807C8
:1032900008D021883246022000F018F95DE0412074
:1032A0000BB0F0BD680705D521883246022000F03A
:1032B000D3F852E0A80739D5F0886188814205D952
:1032C00021883246022000F08DF846E02069410650
:1032D00004D5012189020843206180E02188202251
:1032E000002009F061F905001ED021883246022035
:1032F00000F078F8A068801C00F0D0F96188401ECA
:10330000401886B2A06800F0C9F902463346294643
:10331000204609F0AEFA284600F0ECFBA0683146E2
:10332000801C00F0B7F954E04520B9E7E80614D551
:10333000F088412702280ED9B168801E4D7B80B2EB
:10334000854201D9012016E0002D04D02946FCF762
:1033500079FF00290FD068460771012021694003D9
:1033600081432161049800282DD001AA0121312038
:10337000FFF79CFB2DE002900220002703901EE047
:10338000049800280DD0039805AB001D81B22A4691
:10339000304609F0C9F805AA29463320FFF786FB15
:1033A00007E003980096C2B22B462188022000F065
:1033B000C7F80398401980B27F1CBFB203900298EF
:1033C0008742DDD3C9E7684602792188022000F0F0
:1033D00035F90121E06909F043F90020E06100209E
:1033E0005EE70000F7B5064690790321401EC5B29E
:1033F000E81C0843401C8308164817460068F1067D
:1034000003D52C22BF210E4008E01B218901411861
:10341000C97E090601D40020FEBD29223107890E8C
:1034200008181121C9014018806F31460FF044F986
:1034300004000DD00198A080A5712A4605213846C8
:10344000E31D09F071F8214630460FF021F9E2E75B
:103450000720FEBD1C200020F7B506469079032109
:10346000401EC5B2E81C0843401C83081648174696
:103470000068F10603D52D22BF210E4006E01B2176
:1034800089014118097FC90719D02A223107890EFD
:1034900008181121C9014018806F31460FF00CF94E
:1034A00004000ED00198A080A5712A460521384657
:1034B000E31D09F039F8214630460FF0E9F8002005
:1034C000FEBD0720FEBD00001C200020F7B506460B
:1034D00090790321401EC5B2E81C0843401C8308B4
:1034E000164817460068F10603D52B22BF210E406F
:1034F00008E01B2189014118C97E490601D400203A
:10350000FEBD28223107890E08181121C901401873
:10351000806F31460FF0D0F804000DD00198A080E4
:10352000A5712A4605213846E31D08F0FDFF214616
:1035300030460FF0ADF8E2E70720FEBD1C2000206A
:10354000FFB59B1E0646DDB2681D03210843401CE3
:1035500083081B4881B000681746F10603D5362260
:10356000BF210E4009E01B2189014118497F8907CD
:1035700002D4002005B0F0BD33223107890E0818AF
:103580001121C9014018806F31460FF095F80400F1
:1035900014D00298A0800A98234680682A460830F2
:1035A000C0190079E0802572B91D09330A9808F026
:1035B000BBFF214630460FF06BF8DAE70720D9E76A
:1035C0001C200020F8B5044690680F4601461546B9
:1035D000467B0E3102226846FCF7B3FFA86802233F
:1035E000057C1548E10603D53522BF210C4009E0D2
:1035F0001B22016892018918097F090601D4002065
:10360000F8BD322221070068890E08181121C9016E
:103610004018806F21460FF04FF8010009D08F80CD
:103620008E716A4612880A818D7220460FF030F83A
:10363000E5E70720F8BD00001C20002070B50E460D
:1036400001230446C10612481546006803D53422FA
:10365000BF210C4006E01B2189014118497FC907A1
:1036600011D031222107890E08181121C9014018F3
:10367000806F21460FF020F8010006D08E808D71FA
:1036800020460FF005F8002070BD072070BD000037
:103690001C2000200170090A4170704701784078B1
:1036A000000208437047F8B5069C1F4615460646BB
:1036B000002C13D0A06802220D30FCF742FFE81E58
:1036C00082B23B460721204609F01EF8E580A0683B
:1036D000012E05D01D2101730020F8BD4720F8BD43
:1036E0001B21F8E7F1B5FFB08BB001246002059013
:1036F0000027CC4807970168E320C0000818039012
:103700008A98C74D0005000D0AAA05A90BF049FBD0
:103710000690002872D104260AA805994218203A7A
:10372000D27F0B2A23D00026002004900AA88119FA
:10373000022201A80291FCF704FF6846818809ABC8
:1037400008AA039801F020FC012817D002287DD098
:1037500068468088854200D30546844200D92046C9
:10376000044602988078012871D013363BE1491E47
:10377000761E36040591360CCFD1D5E70898009017
:10378000002F79D10099022228310298FCF7E1FE3E
:1037900000281ED100982030017B02988078814259
:1037A00017D1012808D10098029902220830C91CBB
:1037B000FCF7CFFE002815D002988078022808D1A7
:1037C0000098029910220830C91CFCF7C2FE00289C
:1037D00008D00098008DA84200D80546A04200D22B
:1037E0002046044602990AA88978012907D0133691
:1037F0000599B6B28E4204D3012707E005E1761D94
:10380000F6E78119022201A8FCF79BFE03990098B4
:1038100008318E462EE084466946026A8B88203045
:103820000DE0918B994203D3012F7DD199427BD931
:10383000A94200D80D46A14200D30C46126882422C
:10384000EFD10498002817D1604601E015E0BFE0F1
:10385000006870450ED0018D994203D3012F09D124
:10386000994207D98D4200D30D468C4200D80C46B0
:10387000012F59D17045CED1BAE008980090002FA1
:1038800072D1009902221C310298FCF762FE0028D6
:103890001ED100982030C17802988078814217D1DB
:1038A000012808D10098029902220830C91CFCF7AF
:1038B00050FE00281AD002988078022808D100987B
:1038C000029910220830C91CFCF743FE00280DD0D5
:1038D0000098808BA84200D80546A04200D220461E
:1038E000044602988078012826D003E00298807868
:1038F000012805D013360798B6B201281ED021E062
:10390000009849490089884216D18A98FFF718FC27
:103910000146009800F08AF80099098C4843009904
:1039200089694018022200E038E00299491DFCF73D
:1039300008FE01200790D4E7761DDCE7B61C0020C6
:10394000B6B207900598864201D3012705E00AA880
:103950008119022201A8FCF7F4FD039A00990832AC
:1039600009980968944630E01AE086466A469388CA
:1039700020300DE08A8B9A4203D3012F0ED19A4258
:103980000CD9AA4200D81546A24200D314460968B1
:103990008142EFD1049800282AD102E0012004904E
:1039A00026E07046006860450FD0028D016A9A4299
:1039B00003D3012F09D19A4207D9954200D3154666
:1039C000944200D81446012FE8D16045CDD10FE0D4
:1039D0000298C078022805D102980079292801D1DF
:1039E000B61CB6B2761D0598B6B2864200D3012742
:1039F0000598811B042902D3864200D294E60498DC
:103A00000028FBD1A54203D906987FB00CB0F0BDC9
:103A1000224629468A9801F0FBFA0690F5E7000055
:103A2000FFFF00001C2000200229000030B50246E4
:103A300023239B5C0020012B1AD112890D4B9A4243
:103A400016D10D4A052312685B02D318A0325B69B8
:103A5000127B0AE045010C885D5B24052D05240DD1
:103A60002D0DAC4204D0401CC0B28242F2D80020DE
:103A700030BD0000022900001C200020830810B582
:103A80000A4800210268052040021018A03240694F
:103A9000127B07E04C01045B002C01D0994204D05A
:103AA000491CC9B28A42F5D8002010BD1C20002054
:103AB00010B50446022000F033F80D4800210268DA
:103AC000052040021018A0324369107B05E04A012E
:103AD0009A5A002A04D0491CC9B28842F7D810BDAE
:103AE00048011C52C018026904210A43026110BD3A
:103AF0001C20002010B504460146042002F0DCFC26
:103B0000002809D00548E3210068C9004018214673
:103B10003C300FF035FC432010BD00001C2000207D
:103B200004490A683B21490151180A7802430A7086
:103B3000704700001C20002000B51138C0B2FFF70C
:103B40009DFF002804D00122016952051143016143
:103B500000BD0000F3B597B00D8848880590081D9A
:103B60001DC80DAE1DC68C8ACE8A087E1390C8690A
:103B7000203101900878009048780490887803906C
:103B8000C87802900F7900F047FD002817D1012076
:103B9000400284425FD8B4425DD8002F01D1B442C4
:103BA00059D114A9284601F01DFA002806D115AAFA
:103BB0001499059801F006FA002802D0602019B087
:103BC000F0BD149D11A92846183009F0FBF810A883
:103BD0008088002810D0284612A9203009F0F2F879
:103BE00010A8838800892A8D1818696A10188A8B92
:103BF000904203D16120E2E74820E0E715982C4B82
:103C000002899A4227D12322125C012A23D100681B
:103C100000681690139801281FD16846808E2922CB
:103C20001202801A030001F0D2FC060418040407F3
:103C30000A18022C0FD110E0072C0CD10DE0042C37
:103C400009D3E00707D1012F07D1A64203D3042EE1
:103C500001D3F00701D04220B1E702980B90039BFB
:103C6000049A0A9309920098019A0C970890069674
:103C7000059407920DA81DC8019002A81CC01398B6
:103C80000B4600902A461699179800F0AFF90028C5
:103C900095D168460649808EFF31884205D0179835
:103CA000018800200A4601F0B3F9002087E70000F0
:103CB00003280000F3B5A5B008881A9088780C4650
:103CC00011901022091D13A8FCF751FFA08A109033
:103CD000A17D68460172E07D0F90207E2090677E76
:103CE000A07E1F90002006460146129020A8018168
:103CF0000F20BB4C2390E3212068C9004018199085
:103D000000F08AFC00280BD101211098490288425A
:103D10005FD821A91A9801F065F9002802D0602027
:103D200027B0F0BD2198179008F0F0FF1A9988424B
:103D30000CD102A801901698009013AD0ECD1198E9
:103D400008F0ACFF002801D06320E9E76846017A5B
:103D50008806800F05D0012012902068A030007BDB
:103D60004600C80703D01298401CB61C12900806E3
:103D700003D51298401CB61C129017980DA9183044
:103D80001D9009F01FF86846129C808EA41CA0426A
:103D900037D317980EA92030019009F013F8684620
:103DA000018F00290DD01798179A6B46406A9B8E99
:103DB000128D5918808B5118081AA04201D2612027
:103DC000AEE71798846911982568012803D0022866
:103DD00003D04220A4E7052000E01320E0832A4618
:103DE00039460F9808F0A4FF422899D0199FE28B1A
:103DF0004037788B398B411A1098101880198142FE
:103E000001DA48208CE70EA9019808F0DBFF68462C
:103E1000008F0028179802D0406A808B00E0008D48
:103E20002599401C0880259801210088A0832598A9
:103E300002220088401CA8836A4820812046203046
:103E40001790C1700021817081711998398B406D74
:103E500040186946A061097A0170A06929461C31A1
:103E6000401CFCF76EFB11980128A0697ED010223F
:103E700013A9C01CFCF765FB2846102213A90830C3
:103E8000FCF75FFB388B133038832E4620361198B1
:103E9000F0701098E8831F98B070109820841098E4
:103EA00028841998398B406D4018A8610021109A18
:103EB000FCF74BFB398B10980818388317990120B1
:103EC000087117990020487130716846007A81079F
:103ED00001D50121317101070227002902DA317968
:103EE00039433171410703D53179042211433171CE
:103EF000400603D530790821084330710F9870715E
:103F00002098B07121461D9808F085FF2146019840
:103F100008F062FF29461D9808F07DFF29460198A8
:103F200008F05AFF1298002841D068461A998181FA
:103F3000A18BC18107844784012408A8047122A8A9
:103F40000A9008A88473239941730F99382001407F
:103F500008A801730721C173002505746846007A1B
:103F6000C00708D020486946088200E02AE003A97B
:103F700024A8FFF7EFFD6846007A8006800F07D07F
:103F800019486946401E088203A924A8FFF7E2FDEC
:103F90006846007A00060AD529210902684601828E
:103FA00008A84473057303A924A8FFF7D3FD259837
:103FB00001881298401C081882B2002001F028F8ED
:103FC0000020ADE6022213A9C01CFCF7BAFA28466D
:103FD000022213A90830FCF7B4FA388B401D53E7CE
:103FE0001C2000200328000003290000FFB55248D0
:103FF000E322006887B0D2008218069210AA109BB4
:104000000126169F9288012B04D14C4B9A4201D174
:10401000A030067B069D34464035688B2B8B7C4355
:10402000C31A099820300390A34222DA48200BB02B
:10403000F0BD2320405C012819D108896C462080FE
:1040400098420CD03D4C641EA04208D0641CA04293
:1040500005D0641CA04202D0A41CA04207D1374C5A
:10406000FF3CA04201D0904201D16220DFE7096805
:1040700001E029231B0203988142DAD109981B9998
:1040800084691898224608F053FE4228CFD01C9825
:10409000012804D11598874201D24220C7E715981C
:1040A000E083204620301C990590817027840A986F
:1040B000808B401CA0831098012814D02046102229
:1040C00011A90830FCF73DFA05991098C8700698B8
:1040D000298B406D4018A061298B38467043081821
:1040E000288300250FE011A80FC808340FC4183C1E
:1040F000EAE72846A16978430818159A1799FCF74A
:1041000020FA6D1CEDB2B542F3D3059918984871A9
:1041100005991998087105991A9888710998214686
:10412000183008F078FE2146039808F055FE0798ED
:10413000A18B018000207AE71C20002002290000CA
:10414000FFB58FB014460E78102205A8891CFCF725
:104150000EFD5048E3210068C900451800F05CFAE4
:1041600000281ED1002C57D0012E09D16846808A24
:104170004949884204D12846A968083081424BD178
:104180002846103029690390814209D00AA928469F
:1041900008F018FE6846018D601E0D90814202D223
:1041A000482013B0F0BD284608300CA9049008F050
:1041B00009FE6846008E002814D0EF680AA9384628
:1041C000183008F0FFFD384620300CA908F0FAFD41
:1041D0006846398D008D09186846008E401C081805
:1041E00087B200E0012701200004C01BA04201D2D9
:1041F0006120D6E72C69286801901298012802D026
:10420000022803D008E00520C00200E023486085B2
:10421000012E03D0022E05D04220C2E720460830EE
:10422000022202E020460830102205A9FCF789F995
:10423000204631462030064601730F9821460780FC
:104240002785039808F0E7FD2146049808F0C4FD8F
:1042500027461837E7616662A76126620D9884B227
:104260000BE02846019908F0D6FD3846019908F080
:10427000B3FD2868641EA4B20190002CF1D10F9800
:1042800001880D98081882B2002000F0C1FE0020BD
:1042900087E700001C200020011800000128000012
:1042A00002460948E3210068C900411888680831BE
:1042B00003E0038D934202D200688842F9D188421C
:1042C00000D10020704700001C200020034610B5DC
:1042D0000F48E3210068C90041188868083103E0ED
:1042E000148D9C4203D8104602688A42F8D18A4253
:1042F0000CD1018D994209D20146026A20318A42CD
:1043000003D0416A898B994200D2002010BD000081
:104310001C200020024610B50B481205016805203C
:104320004002081843690020120DA031097B07E004
:1043300044011C5B2405240D944203D0401CC0B2F0
:104340008142F5D810BD00001C200020F7B50546BD
:10435000174601980EF0E4FF2E050446360D0CE0DA
:10436000A0882568B04207D1214601980FF025F8B2
:104370003946204608F074F92C46002CF0D1FEBDD9
:10438000F0B58BB0002064490290E3200A68C000B9
:10439000141872B610464030C57902231D43C5710A
:1043A00062B625464035287AC0077DD005204002F8
:1043B0001018002647694AE071017A5A002A44D051
:1043C000C919069109694A021FD48A0227D5022118
:1043D00004910699012309880905090D03911B2100
:1043E00089014118C97E89070FD51121C9010830FB
:1043F00040182322806F02210EF05EF9010004D0E4
:10440000039A8A8004980EF043F906980088009079
:10441000069800F083F800980CF091FE15E048072C
:1044200013D5069800880005000D0CF064FE0028E6
:1044300005D1069800880005000DFFF753F906998D
:1044400004200969814306980161761CF6B232485E
:10445000AC210068095CB142AED800F001FF2046F3
:10446000243006460EF0A2FF012802D0012000F001
:10447000F9FD204618300EF099FF012802D00020E7
:1044800000F0F0FD3C3420460EF090FF01280FD0E4
:1044900002A920460EF0B3FF0420029902F00CF8A6
:1044A0000028F0D0204600E034E002990EF055FFDD
:1044B000287A00062ED530460EF078FF012829D143
:1044C000002008F04DF8A98B23314909491CC9B2D5
:1044D000FBF7B8FE00281DD00F4D044628681121B7
:1044E000C90108304018422601233822806F314626
:1044F0000EF0E2F801000DD000228A80CC80304618
:104500000EF0C6F83B212A68490151180A7880202C
:1045100082430A700BB0F0BD1C200020F0B50446A9
:104520003C48E3210068C9004518218A85B0890408
:104530001AD5022104911B2189014118497F412686
:1045400027880123C9070FD01121C901083040185D
:104550003122806F02210EF0AFF8010004D08F806D
:104560008E7104980EF094F82946208801221831A3
:10457000FFF7ECFE2946208801223031FFF7E6FEE6
:104580002946208801222431FFF7E0FE29462088B1
:1045900000223C31FFF7DAFE20880005000DFFF70E
:1045A000B9FE8500294611316846017301F084FD8A
:1045B000294612316846017301F07EFD2946133108
:1045C0006846017301F078FD68461435057301F003
:1045D00073FD208800F028FA208801050D48090D98
:1045E0000268052040021018028F914201D100217B
:1045F0000187E069002802D0012108F031F820226B
:1046000000212046A568FBF7A0FF1720A560608069
:1046100005B0F0BD1C20002010B50B48E321006858
:10462000C90044184034207AC00709D0002007F0A0
:1046300097FF217A890701D5002803D0002010BDFB
:10464000472010BD642010BD1C200020F0B55FA0E5
:1046500099B000685E491590E3220868D20084187A
:1046600005225202821852692546403514922A7A50
:10467000D20702D0622019B0F0BDAA8B01235B02E1
:104680009A4201D9AB8303E0172A01D21722AA83E9
:10469000149AA0301392067B0DE0761EF6B21398A2
:1046A00071010F18B8680F90384620220021FBF7DF
:1046B0004CFF0F98B860002EEFD120460830E06024
:1046C0006460A06024600830139060612061FF2264
:1046D000002108300EF039FE2046FF220021243050
:1046E0000EF033FE2046AA7F002130300EF02DFE62
:1046F0002046FF2200213C300EF027FE00222A72C5
:1047000010461721324B05E0149E4701BE19401C8C
:104710007180C0B21E68A036367B8642F4D8002075
:1047200028832F8C688C0026149008E02820E16CE8
:1047300070430918204608F04FFB761CB6B2BE4203
:10474000F4D3002608E03020216D70430918139837
:1047500008F042FB761CB6B214988642F3D30120CF
:10476000FFF7DEF90124684604701A4941802346A8
:10477000042269460CA8FFF7E3FC002822D1684612
:10478000018E8182144901830426068584752021C7
:1047900008A881720024C4720473072141738473D2
:1047A00005A90DA8FFF786FA00280BD168460487F3
:1047B0004687818E15AB0EAA008E00F0EBF900281B
:1047C00000D158E700202872472054E70000FFFF7F
:1047D0001C20002001180000052A0000F8B504463E
:1047E0007D480E460068E321C90047184820C05D97
:1047F000C0077BD0B088FEF7A3FC0546012C02D091
:10480000002C75D0E6E0002D0CD0286941074AD471
:10481000B268F188147B0029F4D062060CD5688850
:10482000884201D20121B2E0D22C01D0522CF9D120
:104830003846314618303FE0A106890E1E293ED881
:104840001E2C21D101071FD5082188432861298802
:10485000012008F0A9FA0121304607F001FF5E4867
:1048600011210068C9010830401842242D88012315
:104870003922806F21460DF01FFF010003D08D808B
:1048800020460DF005FFA5E0E1070AD01D2C10D051
:104890001B2C0ED0410529D4012189020843EE6169
:1048A00092E0C00601D54520F8BD2988002008F017
:1048B00069FA3846314624300EF062FD8AE02988D4
:1048C0002022002007F070FE05000FD001213046A5
:1048D00007F0C6FE2B460022214606200FF020F9E5
:1048E0002846FFF707F975E000E001E04120F8BD38
:1048F000B068047B1D2C3AD01B2C41D000213046DF
:1049000007F0AEFE032C46D0052C44D0072C42D035
:10491000092C40D00B2C3ED00D2C3CD00F2C3AD083
:10492000112C38D0132C36D0172C34D0192C32D06F
:10493000012C30D0022C35D0042C33D0062C31D0B1
:10494000082C2FD00A2C2DD00C2C2BD00E2C29D09B
:10495000102C27D0122C25D0162C23D0182C21D087
:10496000522C1FD0D22C1DD01E2C2FD032E0002D67
:1049700003D02988012008F005FA3146022001E021
:104980003146012000F05EFD002823D00021304692
:1049900007F066FE1EE029691020814329612988FD
:1049A000002015E02869402188432861010511D5C0
:1049B000FF210131084328612988022008F0E2F92B
:1049C00001212869C9028843286103E0298803205E
:1049D00008F0EAF90020F8BD1C20002010B5114AAB
:1049E000E3231268DB00D2184032127AD20706D0D5
:1049F00002280AD0052804D00B2810D101E041205C
:104A000010BD4888FFF754F809E04888FEF798FB86
:104A1000002804D0012201699205114301610020A0
:104A200010BD00001C200020F1B5FFB085B047206C
:104A300001900020694608805348E3210068C900BE
:104A400047188498FEF77CFB0290002874D0B96860
:104A500008374FE0684600880D4604AC20186B46C6
:104A60000222283100F0A4FD68460088294620185B
:104A70006B4601222C3100F09BFD2E462036307B08
:104A800069460128098804A809D040186B461022FD
:104A90002946083100F08CFD01902C6A27E040186F
:104AA0006B460222F4E76946098804A840182146AB
:104AB0006B4602221C3100F07BFD6946098804A880
:104AC000401821466B460122233100F071FD23205E
:104AD000005D69460128098804A830D040182146A5
:104AE0006B461022083100F063FD01902468B44247
:104AF000D9D12968B942ADD1019800281CD16846A6
:104B0000008881070AD0214A011D11406A461180A0
:104B10000A1A04A908180B21FBF717FD0298008850
:104B20000CF0E9FA002807D1849869460005000DC9
:104B300004AA09880AF066F87FB006B0F0BD4018F4
:104B400021466B460222083100F032FD0190208997
:104B50000F498842CAD120460299FEF767FF4000FC
:104B6000A16903906A460918128804A880186B4648
:104B7000022200F01DFD0190A1690398022208188D
:104B80000021FBF7E2FCB1E71C200020FCFF000045
:104B900002290000F0B5074617480E4600683B2181
:104BA00049014018007885B01D461446C00706D05C
:104BB00003A9384600F016FA00280AD102E047207F
:104BC00005B0F0BD04AA3046039900F0FBF90028B7
:104BD00001D06020F4E70499228860880968002ADF
:104BE00000D0088C32466E4631C603233946002079
:104BF00000F004F8E4E700001C200020FFB50020CE
:104C000099B0239A0B901290054614900646159081
:104C10001C46DB480B460068E321C900411803919C
:104C20000021229F089109915188069111880A91CB
:104C30003B21490140180078C00706D00FA918464B
:104C400000F0D0F900280AD102E047201DB0F0BDE5
:104C500010AA0F991B9800F0B5F9002801D0602028
:104C6000F4E71998002803D0600701D5012000E07F
:104C700000201390A007800F1C90109817902030F0
:104C8000C078012840D11798BE4B01899942F9D1CB
:104C90001798069904680A98228C4118914233D8D3
:104CA0002046203016908078012816D0E08B0490A2
:104CB0001798806900788006800F7DD00398403077
:104CC0001890007A800777D51C980028F5D0AD4F52
:104CD0000F99FF372031206814E0BA4214D3B9424B
:104CE000DDD80497E4E70389A64A934203D123223F
:104CF000125C012A08D0BB4203D12322125C012A94
:104D000003D000688842EED134E105900028FBD042
:104D10009B48052102684902511849690027009102
:104D200062E0780100990390085A01055AD0199958
:104D3000002901D0884255D105997A008B69511C10
:104D4000595C9A5C0902891889B20D91890749D08A
:104D5000022205990EF062FF002804D0199800285D
:104D600040D0652072E7002008A9C8551C98C007EC
:104D700018D0179880690078C00613D50D98C00721
:104D800010D00120C8550543009A03988018408828
:104D9000159A904206D91590009A0398105A00056A
:104DA000000D14901C9880071CD517988069007816
:104DB000800617D50D9800E084E0800712D5022008
:104DC000CA5D05430243CA550099039840184088BC
:104DD0001599884206D9159000990398085A00053C
:104DE000000D14907F1CFFB265480068A030037B63
:104DF000BB4296D8002D65D01898007A00065FD483
:104E00005F480168052040020818416900201BE046
:104E100042018E5A360515D0AE070BD556183669A5
:104E2000B7070DD408AF3F5CBF0703D5360701D5E0
:104E300046200BE7EE0705D05218127CD20701D0AE
:104E4000432003E7401CC0B28342E1D81598C01E3E
:104E500086B20498864200D90646A8070FD52022BC
:104E60000020149907F0A0FB129000287DD0F01CC0
:104E700082B20021129800F0EDF8002811D1E80765
:104E800020D020220020149907F08EFB0B900028E0
:104E900007D0F01C82B200210B9800F0DBF800284C
:104EA00010D08020FEF73CFE1298002802D000218E
:104EB00007F0D6FB0B98002802D0002107F0D0FBAA
:104EC0006420C3E6A1690A98069A08182499FBF79A
:104ED00038FB16988078012801D10498E083002DD2
:104EE00046D0274B05201968400208184169002068
:104EF00008AA0CE04301CF5A3F0506D05F18BC4614
:104F00003B69175C3B4367463B61401CC0B21C4B8E
:104F10001B68A0331B7B8342ECD8A8070DD51298E1
:104F20000090F01C82B221461C310220A369FEF7DA
:104F3000BAFB0220129900F085FAE80718D00B9806
:104F40000090F61C2146B2B21C310120A369FEF785
:104F5000AAFB1398002805D00B988021C07C084339
:104F60000B99C87401200B9900E005E000F06AFA83
:104F700000206BE6422069E68020FEF7D1FD9FE726
:104F80001C20002003280000F0B58468083015E0DC
:104F9000258D8D4203D1146018600120F0BD264696
:104FA0001C602036256A06E0AF8B8F4202D10220BA
:104FB0001560F0BD2D68B542F6D124688442E7D172
:104FC0000020F0BD10B50B6A203106E09C8B8442B6
:104FD00002D10020136010BD1B688B42F6D1412026
:104FE00010BD000010B5094AE3231268DB00D21897
:104FF0009368083206E01C8D844202D100200B60C9
:1050000010BD1B689342F6D1412010BD1C2000202A
:1050100030B50F4BE3251B68ED005B1940330446A8
:105020001B7A412085B09B0710D56B469981DA81A8
:10503000002018820420588203AA04A96D4607C5DF
:1050400002231A4601212046FFF7D8FD05B030BDE6
:105050001C20002010B5121D806892B207F01EFBC4
:1050600010BD0000F0B57D49E3220968D2008E181A
:1050700085B0012806D03046183000900EF050F967
:105080000446E7E03046243003900EF049F9054627
:10509000BCE0A8682F68007B0290A888FEF750F853
:1050A000040073D021882022002007F07DFA0190AF
:1050B00000286CD0E8886188884204D90022042046
:1050C000019B029920E04620009002980E284ED0C5
:1050D0000ADC801E030000F07AFA0B1C132213294D
:1050E000132F13381341130016285AD004DC10284C
:1050F00046D0122804D14BE018285BD01D2874D06C
:1051000000220620019B02990EF00AFD002000906B
:105110005CE029462046019A0EF00EFE4FE02A463A
:1051200021463046019B0FF035F848E029462046DD
:10513000019A0EF039FF42E02069000355D4294658
:105140002046019A0FF070FB39E0206900034CD42F
:1051500029462046019A0FF099FD30E020690003AE
:1051600043D429462046019A0FF0CCF927E0206964
:1051700000033AD429462046019A0FF0BDFC1EE0F8
:1051800029462046019A0FF05DFA18E035E040E02C
:105190002069800329D429462046019A0FF0A1FEF8
:1051A0000DE02069800320D429462046019A0FF0A3
:1051B000EDF804E029462046019A0EF017FE009013
:1051C000452812D0692810D046280ED00121206928
:1051D000090688431021084320610198FEF78AFCE4
:1051E0000098002809D010E0FFE70021019807F09F
:1051F00037FA009845280CD0F2E7294603980EF0BC
:10520000DCF80121284607F02BFA3D46002D00D09E
:105210003FE705B0F0BDA0682668077BA088FDF7D2
:105220008FFF05000DD0522F01D0D22F06D1286953
:1052300040030ED4214628460FF0BDFD28694003E7
:1052400007D4214600980EF0B8F80121204607F057
:1052500007FA3446002CDED1DBE700001C200020DA
:10526000F0B56348E3220168D2008DB08A180C9231
:1052700005225202891800274D69AFE07E01A85B24
:10528000002872D070190A90C069002866D00A9967
:105290000969CA0532D54A0530D580680124A402BF
:1052A000007BA1430A9A1D28116154D01B2852D0BB
:1052B0000A9A927B824202D0012802D04BE0012858
:1052C00006D10A98C0698068407B401C82424CD15C
:1052D000C80509D5A95B022007F066FD0A98FF22E0
:1052E00001690132914301610A9881698847452823
:1052F00031D10A980169214301612CE0012107F0B5
:10530000AFF90A990020C8610A980121026989024F
:105310008A430261422001900220089005900A9879
:10532000069020681121C90108304018012321226C
:10533000806F01990DF0C0F904000CD0089921711B
:1053400005996171A01D059A0699FBF7FAF82146A7
:1053500001980DF09DF9A85B00283DD00C982430F1
:1053600004900DF0DDFF044634E035E0206808903D
:10537000A068A388017BA85B0205120D84469342B6
:1053800016D11D2914D10A9800698646C0040FD48D
:105390000122120371460A9811430161A95B03209F
:1053A00007F0F0FCA95B2246022000F071F808E04B
:1053B00093420ED11B290CD122466146022000F0F7
:1053C000AFF8214604980DF0F8FF0121204607F0C0
:1053D00047F9089C002CC9D17F1CFFB2044C2068FF
:1053E000A030007BB84200D948E70DB0F0BD000006
:1053F0001C200020F0B5944600220A806346104C21
:105400001A60052322685B028646D2184120526941
:1054100000230FE05D01AD182F697646374207D0B3
:105420006F880E88B74203D90F8060460560002060
:105430005B1CDBB22568A0352D7B9D42EAD8F0BD10
:105440001C2000207CB50C4605466A4601A9FFF7E2
:10545000D1FF002801D041207CBD6846E1888088CA
:10546000814200D9E08000980088A0802046FEF7A5
:1054700041FB0098012D07D0016908221143022247
:105480009143016100207CBD016949084900F8E7AA
:10549000F7B5064690799168C01E82B01746C5B22E
:1054A000022268460D31FBF74CF8681D03210843C2
:1054B000401C83081948F10603D53222BF210E4053
:1054C0000AE01B22016892018918097F890602D42B
:1054D000002005B0F0BD2F2231070068890E0818A2
:1054E0001121C9014018806F31460DF0E5F8040024
:1054F00011D00398A08068460088E080234625727A
:105500002A4607213846093307F00EF8214630466F
:105510000DF0BEF8DCE70720DBE700001C200020D0
:10552000F7B5064690799168C01E82B01746C5B29D
:10553000022268460D31FBF704F8681D0321084379
:10554000401C83081948F10603D53322BF210E40C1
:105550000AE01B22016892018918097F490602D4DA
:10556000002005B0F0BD302231070068890E081810
:105570001121C9014018806F31460DF09DF80400DB
:1055800011D00398A08068460088E08023462572E9
:105590002A4607213846093306F0C6FF2146304621
:1055A0000DF076F8DCE70720DBE700001C20002088
:1055B00010B51C88A418A4B21C8001235B029C4275
:1055C00003D8FAF7BEFF002010BD412010BD30B453
:1055D0007446641E2578641CAB4200D21D46635D90
:1055E0005B00E31830BC1847F7B5164600241CE0F2
:1055F0000098114900194018810801988900001984
:1056000042780578120215438278C07812040006A9
:1056100002430948154340420F1829463846FAF715
:10562000BFFF3868854204D1241DB442E0D3002076
:10563000FEBDFB20FEBD00000000FCEFF0B50E46F5
:105640000746002407E03D1900F0B0F82870000A72
:105650006870A41CE4B2B442F5D3F0BD10B50128C3
:1056600018D8072916D80C4A126813462033187721
:1056700059778007C906000E090E01430020074B29
:10568000A03204E08401E418A172401CC0B2147B73
:105690008442F7D8002010BD1C200020000100200B
:1056A0007FB504463F48164600680D467830002C0A
:1056B00019D0062C11D0082C0CD0182C0AD0282C6C
:1056C0000BD02A2C09D02C2C0AD02E2C0BD0D02C6D
:1056D0003AD03BE0102D08D038E0022D05D035E05F
:1056E000012D02D032E0062D30D10A460019314694
:1056F000FAF727FF2C2C20D1307800281DD0FBF79B
:105700002FFB01281CD01B201F304009401C4100EA
:105710004118012006F012FFFBF722FB012811D0EF
:105720001B201F304009410041181F484078401A93
:10573000C01EC1B2002006F001FF002004B070BD01
:10574000FB20E1E7FB20ECE7012D04D0FBF708FB91
:10575000012804D007E010780CF072FEEEE7D12C9F
:1057600001D1082D01D01220E8E702223146684617
:10577000FAF7E7FE0222B11C01A8FAF7E2FE0222C4
:10578000311D02A8FAF7DDFE0222B11D03A8FAF7C7
:10579000D8FE68468389028981880088FBF7D4FA9D
:1057A000CCE700001C200020FC02002000210B2080
:1057B0000007026852070DD5026804239A4302606D
:1057C000026808231A43026004E0491C052901DD30
:1057D0000020704742689207F7D54168C907FCD09E
:1057E000806880B2704710B5FFF7E0FF0446FFF70E
:1057F000DDFF0004201810BD10B505486F230068B8
:105800001B0104220021C018FAF79FFE10BD000002
:105810001C20002004E003780B70401C491C521E21
:10582000002AF8D1704700003EB50B4801AA046871
:10583000694602A8683400F01FF800280BD06846BB
:10584000007AE18801228240114204D06946097839
:10585000019AFCF7B7F93EBD1C2000200548002145
:1058600000686830017141710268D208D20002609C
:10587000C18070471C20002070B514460D4A136883
:1058800072B668331A79002A01D0012500E000259C
:1058900000221A715A79027018784007400F087078
:1058A00018684001000A00F033FC206062B6284608
:1058B00070BD00001C20002003E00870000A491C95
:1058C000521E002AF9D1704710B5FBF7BAF9FBF761
:1058D00049FAFBF745FA012801D1FBF72DFA03F04D
:1058E00093FF10BD70B51A4C1B252068AD014119FE
:1058F0000026184B0E720622FF21C018FAF725FE6B
:10590000206820214019C6730174FBF729FA012889
:105910001CD01F2021680F4B491948742068093397
:1059200007220021C018FAF710FE0A4B2068103336
:105930000522FF21C018FAF708FE064B20681B332A
:10594000FF220021C0180DF000FD70BD5F20E1E7CF
:105950001C200020C9060000F0B52D4C1B26206835
:10596000B6018019007A91B0800747D5FAF7FAFEA0
:1059700001284BD1002506F051FD0746FAF7F8FE45
:10598000012800D10325380032D00227012802D097
:1059900002282DD11BE069460220FAF711FF0320EF
:1059A00008A9FAF70DFF1B49206841180120FAF7F2
:1059B00007FF2068A0300079C00701D0002000E078
:1059C000102038436A46294600F006F910E069467F
:1059D0000220FAF7F5FE2068A0300079C00701D058
:1059E000002000E0102038436A46294600F090F875
:1059F0002068FD228019017A1140017272B6206878
:105A000080224030C1791143C17162B611B0F0BD3E
:105A10001C2000207408000070B5154D154E286834
:105A200080190DF0C3FC002812D1286880190DF0F0
:105A300077FC04460AE020460DF0B6FB002807D1AB
:105A40002868214680190DF0B8FC2468002CF2D19A
:105A5000286880190DF0AAFC012807D172B62868C1
:105A600040224030C1791143C17162B670BD00005F
:105A70001C200020E4060000F1B5234C1B25206803
:105A8000AD014119097A0C278907022690B0002937
:105A90000DDB1E494218202100200CF02CFD0028AF
:105AA00005D14021109A0CF026FD002811D02021AC
:105AB0006846FBF764F82068A0300079C00701D081
:105AC000002000E0102030436A46394600F020F8FC
:105AD00017E0206841190A7A32430A7272B64030E0
