:020000041004E6
:10000000006000205D0E0410050E0410070E0410A1
:10001000AA5555AA45554C420000000000000000BA
:10002000000000000000000000000000090E0410A5
:1000300000000000000000000B0E0410B71F0410A9
:10004000C91F04100D0E0410000000000000000085
:10005000BF1F04100F0E0410AF1F04101B0E04105E
:100060000000000000000000000000000000000090
:10007000000000001D0E04101F0E0410210E0410BD
:1000800000000000110E0410130E0410150E0410D1
:10009000170E0410190E0410010E0410030E0410A4
:1000A0000000000000000000000000000000000050
:1000B0000000000000000000000000000000000040
:1000C000F0B543464C4655465E466746F8B40E4C7E
:1000D0006B4623600D4C20680D4C20600D4C206851
:1000E0000D4C20600D4C20680D4C2060BFF34F8FED
:1000F00030BF054C2468A546F8BC9846A146AA46E0
:10010000B346BC46F0BDC0460800002004ED00E048
:100110005403002024ED00E04803002000E200E04A
:100120005803002002780B78002A03D001300131F7
:100130009A42F7D0D01A7047002243088B4274D3FA
:1001400003098B425FD3030A8B4244D3030B8B42D8
:1001500028D3030C8B420DD3FF22090212BA030CE1
:100160008B4202D31212090265D0030B8B4219D3C2
:1001700000E0090AC30B8B4201D3CB03C01A5241E2
:10018000830B8B4201D38B03C01A5241430B8B422A
:1001900001D34B03C01A5241030B8B4201D30B0313
:1001A000C01A5241C30A8B4201D3CB02C01A52413A
:1001B000830A8B4201D38B02C01A5241430A8B42FD
:1001C00001D34B02C01A5241030A8B4201D30B02E6
:1001D000C01A5241CDD2C3098B4201D3CB01C01A00
:1001E000524183098B4201D38B01C01A524143090A
:1001F0008B4201D34B01C01A524103098B4201D3F8
:100200000B01C01A5241C3088B4201D3CB00C01A64
:10021000524183088B4201D38B00C01A52414308DC
:100220008B4201D34B00C01A5241411A00D2014601
:10023000524110467047FFE701B5002000F0F0F88A
:1002400002BDC0460029F7D076E7704703460B434E
:100250007FD4002243088B4274D303098B425FD3BF
:10026000030A8B4244D3030B8B4228D3030C8B42EB
:100270000DD3FF22090212BA030C8B4202D31212D1
:10028000090265D0030B8B4219D300E0090AC30BA6
:100290008B4201D3CB03C01A5241830B8B4201D353
:1002A0008B03C01A5241430B8B4201D34B03C01A3C
:1002B0005241030B8B4201D30B03C01A5241C30AB4
:1002C0008B4201D3CB02C01A5241830A8B4201D325
:1002D0008B02C01A5241430A8B4201D34B02C01A0F
:1002E0005241030A8B4201D30B02C01A5241CDD2B4
:1002F000C3098B4201D3CB01C01A524183098B42FF
:1003000001D38B01C01A524143098B4201D34B01E7
:10031000C01A524103098B4201D30B01C01A52414A
:10032000C3088B4201D3CB00C01A524183088B42D1
:1003300001D38B00C01A524143088B4201D34B00BA
:10034000C01A5241411A00D201465241104670472C
:100350005DE0CA0F00D04942031000D34042534031
:1003600000229C4603098B422DD3030A8B4212D3F1
:10037000FC22890112BA030A8B420CD38901921123
:100380008B4208D3890192118B4204D389013AD060
:10039000921100E08909C3098B4201D3CB01C01A35
:1003A000524183098B4201D38B01C01A5241430948
:1003B0008B4201D34B01C01A524103098B4201D336
:1003C0000B01C01A5241C3088B4201D3CB00C01AA3
:1003D000524183088B4201D38B00C01A5241D9D2BB
:1003E00043088B4201D34B00C01A5241411A00D23C
:1003F0000146634652415B10104601D34042002B38
:1004000000D54942704763465B1000D3404201B5B6
:10041000002000F005F802BD0029F8D016E770476B
:100420007047C046437802781B021A438378C0782D
:100430001B041343000618437047C046030A4B7061
:10044000030C8B70030E0870CB70704703005A7852
:100450000078120202439878197900040243D87890
:10046000000610435A7912020A43997909040A4393
:10047000D979090611437047030A5370030C93702E
:10048000030ED3700B0A53710B0C93710B0E10708B
:100490001171D3717047C046024A1368013313606B
:1004A0007047C04610030020C021074A074B084888
:1004B0005360036A09061B021B0A0B4303620023F5
:1004C000936007331360704710E000E0FE7C00008B
:1004D00000ED00E00E4AD3691B061B0F4370D9B232
:1004E000D3690C4A1B071B0F83700B4B1B684360BF
:1004F00093420BD102230370002901D101234370E1
:10050000064B9B8A01339B00836070470123F2E70F
:100510000000904041A000022800904000001040E0
:10052000F0B5070085B001AC0E0020001500FFF704
:10053000D1FF23783B7063783370A3782B7005B0BC
:10054000F0BD10B501F04DFE10BD10B501F064FE18
:1005500010BD10B501F036FE10BD0078C0B2704776
:10056000024A138ADB07FCD57047C04600001040E2
:10057000084B10B51A68084B9A4209D13F22074B25
:1005800040061A81000C2E3A98611A80FFF7E8FFA6
:1005900010BDC04614000020CCBCECFC0000104094
:1005A000084B10B51A68084B9A4209D13F22074BF5
:1005B00080081A810C3A986119641A80FFF7D0FFFD
:1005C00010BDC04614000020CCBCECFC0000104064
:1005D0000379F7B50168002B30D18022D20553682A
:1005E0008B43536020258022002106686D42D2058E
:1005F00033000124CB4023420DD00379CCB20193C8
:10060000072924D80F238F00BB40D46A9C43019B49
:10061000BB401C43D462013104351A29E8D1802340
:100620004279DB05012A39D1DA683243DA6082790E
:10063000012A36D19A6816439E60F7BD062BD1D1A8
:10064000002380220371D20553680B43C9E72700BA
:10065000083F072F08D80F27019BAF40AB40146B12
:10066000BC4323431363D6E7103C072C0AD82F0062
:100670000F23203FBB40546B9C43019BBB401C435A
:100680005463C8E72F000F23403FBB40148F9C43A7
:10069000019BBB401C43A4B21487BCE7DA68B24399
:1006A000C4E79A68B2439A60C7E78023DB05012953
:1006B00001D1D86370471864FCE780234268DB05EA
:1006C0000168012A0FD11A690A431A6180238168DF
:1006D000DB050268012909D19969114399615969BA
:1006E0009143596170471A698A43EEE7002907D19F
:1006F000D24399691140996159690A405A61F1E7F9
:1007000059690A43FAE78023DB05DA69002902D038
:100710001043D86170478243DA61FBE78022D2053B
:10072000936A1843906270478023DB055B6A184028
:10073000431E9841C0B27047C02380221B0619781F
:1007400052420A437F211A701A780A401A70704781
:10075000C02301211B061A780A431A701A788A43AB
:100760001A707047C0231B0618688007C00F7047B7
:10077000024B1868431E9841C0B27047000400C085
:1007800030B50300012811D0022811D00120032B1D
:100790000BD1084A08000B0020301D685C1A043396
:1007A000A5508342F9D10020106230BD024AF1E722
:1007B000024AEFE7B40400C06C0400C0900400C01B
:1007C000030001280FD002280FD00120032B09D1EC
:1007D000074B1A00C91A20321878C85401339342C3
:1007E000FAD100207047034BF3E7034BF1E7C04613
:1007F000B40400C06C0400C0900400C0044B1A6A2A
:10080000012902D110431862704782431A62FBE744
:1008100000009040054B0122196B002802D00A43CA
:100820001A63704791431963FBE7C04600003040EC
:10083000F8B54A4C0500236B01681B0700D56DE035
:1008400009014748FFF778FCC3099AB2A284454AD8
:10085000DB0101301340C01A400880B23F2802D9A2
:100860003F233F381840032760263F4BC0B2187023
:100870003E4B2A7918783A405201B0431043187021
:1008800001206979227F39404901B2430A43227726
:10089000AA7919780240BA40073081431143197090
:1008A000217F81430A432277EA79002A38D1022145
:1008B0001A788A431A70227F8A43012022772A7A83
:1008C000216B1600C2402A4F064076023940314360
:1008D0002163216B274E0240314012020A432263FA
:1008E000697A226B0E00C140234F06403A40B6039E
:1008F00032432263226B214E01403240C90311432F
:100900002163AA7A197802400F3012018143114302
:100910001970237F83431A432277F8BDC90090E7FB
:10092000022A0CD1042019781143197019788143D7
:100930001970217F0A432277227F8243BDE702217B
:100940001A780A431A700422187810431870207F0E
:1009500001432177217F0A43AFE7C04600003040C2
:100960000000127A80FF7F00280030402C003040C9
:10097000FFFDFFFFFFFEFFFFFFBFFFFFFF7FFFFF4A
:10098000044B1A8F002902D0104318877047824306
:100990001A87FBE700003040024BC005C00D1880ED
:1009A0007047C04600003040014B1888C0B2704705
:1009B00000003040054B002805DA5B681840431EF4
:1009C0009841C0B270471B8BF8E7C046000030402A
:1009D000034B9B8F1840431E9841C0B27047C046DE
:1009E000000030400722024038200449D2000B7832
:1009F00083431800104308707047C04634003040ED
:100A0000F0B583780178002B33D040784AB280016A
:100A1000002A1BDA0F230B40083B1B4A9B089B0054
:100A20009B18FF22032517000D40ED00AF40024048
:100A3000AA40DE69BE433243DA611F224B091140EE
:100A40001E3A8A4011499B00CA50F0BDFF270F4B48
:100A500092089200D21803233C00C0250B40DB0013
:100A60009C4038409840AD005659A6433043505101
:100A7000E3E71F234A090B40012199401300034A71
:100A800020339B00D150E0E700ED00E000E100E002
:100A900010B5094C002801D0012805D000F07CF8E1
:100AA0000138C000205805E000F076F80138C00099
:100AB0002018406810BDC046806A051070B501213D
:100AC00086B006000920FFF799FE00F065F81C4B80
:100AD00001388000C3580024019300F05DF8194BE1
:100AE0000138800001ADC35828002B71AC716C71C6
:100AF000FFF76EFD00F050F8134B01388000C3582B
:100B0000019300F049F8114B01388000C3582800C8
:100B10002B71FFF75DFD0125032303A803714371CA
:100B200003728471C471447285720396FFF780FE6C
:100B30002000FFF757FF2800FFF76CFE06B070BDDE
:100B40007C6A0510786A0510746A0510706A0510D1
:100B5000042313B5040001A80370013B43708470A3
:100B6000FFF74EFF21001020FFF70AFF13BD10B55D
:100B700001F037FB10BD10B501F033FB10BD10B50F
:100B80000A00002101F048FB10BD00000122014BCA
:100B90001A70704714030020014B1878C0B27047D8
:100BA0001403002010B50F4C01280AD0002801D0F2
:100BB00002280ED0FFF7F0FF431E0C2058432058A8
:100BC00006E0FFF7E9FF431E0C2058432018406859
:100BD00010BDFFF7E1FF431E0C205843201880682A
:100BE000F6E7C046886A051010B5FFF7DBFF012164
:100BF000FFF75BFD10BD10B5FFF7D4FF0021FFF735
:100C000054FD10BD13B5012104000800FFF7F6FDE7
:100C10002000FFF7C7FF6A4606230090137168465D
:100C2000053B93715371FFF7D3FC2000FFF7E3FFFF
:100C300013BD10B508F0AAFF10BD10B508F0C0FB39
:100C400010BD10B508F076FE10BD7FB50BAE36882E
:100C500008AC09AD2D88248803960A9E019502965A
:100C6000009409F083F87FBD7FB508AC20CC0AAEB4
:100C70002478367801940296009508F0B9FF04B004
:100C800070BD10B502F0E4F810BD10B50AF0AEFC6E
:100C900010BD01207047F0B58DB012AC24780993D7
:100CA0000A9413AC248818AB1B880B9415AD14ACB4
:100CB00016AE17AF24882D8836883F8806930B9B85
:100CC000059701930A9B0496009303950294099B50
:100CD00001F0E0FA0DB0F0BD10B501F093FE10BDCB
:100CE00010B502F00DF810BD10B50CF0BFFE10BD30
:100CF00010B50AF07BFB10BD10B509F083FE10BDE6
:100D000010B502F07BF810BD10B502F07FF810BDF1
:100D100010B506F0D3FB10BD10B50FF0A7FD10BD48
:100D200010B50FF08BFB10BD10B50FF099FE10BD84
:100D300010B50FF0ABFB10BD10B509F055F910BDA3
:100D400010B506F091F910BD10B509F06BFB10BDA0
:100D500010B509F099F910BD10B509F0ADFA10BD44
:100D60000120704710B505F013FA10BD10B511F051
:100D700085FE10BD10B511F053FE10BD10B511F079
:100D800035FE10BD10B512F03FF810BD01207047C0
:100D900010B512F093F810BD10B512F079F810BD2F
:100DA00010B510F041FB10BD10B510F05DFB10BD8B
:100DB00010B510F0EBFB10BD10B510F0B1FA10BD7E
:100DC00010B510F0CDFA10BD10B510F0F3FA10BD4B
:100DD00010B510F05FFB10BD10B510F07DFB10BD1D
:100DE00010B50FF089FB10BD10B50FF058FB10BD0A
:100DF00010B50FF05FFE10BD10B50FF073FD10BD04
:100E0000704770477047704770477047704770472A
:100E1000704770477047704770477047704770471A
:100E200070470000002210B5084B1A60084B1B7A6F
:100E3000934209D1074B1B89052B05D9064B01327B
:100E40001A70FFF756F9FEE7012010BD14000020CC
:100E500000009040000010480C00002070B5FFF723
:100E6000E1FF012817D1002314481549154C1A1821
:100E70008A4216D3002314481449154C1A188A4282
:100E800013D30021134B144A934212D30021134B66
:100E9000134A93420FD3134B83F3088801F06AF887
:100EA00070BDE55804331560E1E7E558043315607B
:100EB000E4E702C3E8E702C3EBE7C046FC1F0020FB
:100EC0006020002008740510080000203400002075
:100ED000DC730510C0000020CC020020CC020020F2
:100EE000FC1F002000600020002210B5104B995C10
:100EF000C9B2002917D11C2A14DC022021249854DD
:100F0000501C1C54901C193C1C54901D19549B18C7
:100F1000802290219BB252021343C905CB60CB685B
:100F20001342FCD110BD995C01315218D2B2DEE7F8
:100F3000150300200023F0B5144AD45CE4B2002C61
:100F40001ED1192B0FDC02253B275E1CD55497556B
:100F50005E199055DE1C955535261D1D56555D1D97
:100F600006335155D45402223B24094B1A705C704D
:100F70009870DA7033321A71002259719A71F0BD8B
:100F8000D45C01341B19DBB2D7E7C046150300203F
:100F90004C03002070B58AB003AC05000E00192286
:100FA0004449200001F01DF96846FFF793FA002D2F
:100FB00062D04423404AA373117A433B0B4313721C
:100FC0004C23E3722C3B237292336374573B23759B
:100FD0003A4B3B4A1B68190C914208D17020E17DC5
:100FE0001B018143E175E17D03400B43E375354B04
:100FF0001B68190C914208D1302061791B01814393
:101000006171617903400B4363712F4B1B68190CAD
:10101000914207D10321E27D0B408A43E275E27DD4
:101020001343E3750422E37A69469343E3726B4604
:101030005B78897893400B43112B08DDE37D1A43DD
:10104000E275E07AE17DC0B2C9B2FFF773FF802399
:1010500090222404240C5B021C43D205D460D16886
:101060001942FCD16B466A465B7892781B011343A8
:10107000112B01DDFFF738FF144B1A8B002AFCD02F
:1010800001221A8316329A8100221A61964207D0F1
:1010900090231021DB0518691A6942400A42FBD0EF
:1010A000002D02D015220A4B1A700A4A0A4B1A6008
:1010B0000AB070BD406A051000002040E80700102B
:1010C00055AA0000E4070010B00700100000104807
:1010D0000000C040CCBCECFC140000200822C02161
:1010E000F8B53F4B3F4D9A803F4A0904136AFF20F1
:1010F0002B400B43C0211362136A09061B021B0A13
:101100000B431362C02292009446384B64469A58AF
:10111000374E82433F38024360461A501A58C02067
:101120003240000202431A51C122FF2792009C580C
:10113000BC433F3F3C439C509C583F3734400443A2
:101140009C509C582C409C509C582402240A0C43D0
:101150009C500832944664469A58324002431A51D1
:101160001A59C0242A402404224364461A511A59A9
:101170001202120A0A431A51C4229200944664468B
:101180009A58324002431A511A59C0242A40240462
:10119000224364461A511A591202120A0A431A517A
:1011A000C52292009C58BC432700C0242743C0247A
:1011B0009F509F5824043E40304398509858054013
:1011C0002C439C5098580002000A01439950012179
:1011D0000800FFF7DFFE074A074B1A6262B6F8BD48
:1011E00000001040FFFF00FF00ED00E000E100E024
:1011F000FF00FFFF66000E00000090402A23F0B5BC
:101200008BB006AC23709B336370D523A370A523EA
:10121000E37000236371B433A3719A23E371E12374
:101220002372112363723A23A372CF23E3728023C4
:1012300023736E23022563733623764E102221001A
:101240003000A3732571E573FFF77BF9724A734B86
:1012500031001B7828000092012201F00AF9071ED4
:1012600006D002206E4900F02DFA47200BB0F0BDE9
:101270002B2323709A336370D523A370A523E370C7
:10128000B423A3719A23E371E123237211236372C0
:101290003A23A372CF23E372802323736E236373F5
:1012A0003623604E6071102221003000A373257137
:1012B000E573FFF746F9584B320018885A4B0497EC
:1012C0000593102302970393019700950F3B290084
:1012D00001F0B0F8071EC4D12C232370993363703A
:1012E000D523A370A523E370B423A3719A23E371DC
:1012F000E1232372112363723A23A372CF23E37293
:10130000802323736E2363733623607110222100C0
:101310003000A3732571E573FFF713F93E4B3200DC
:101320001888424B04970593102302970393019763
:1013300000950C3B290001F07DF8071E00D090E7D6
:101340002D23237098336370D523A370A523E370F6
:10135000B423A3719A23E371E123237211236372EF
:101360003A23A372CF23E372802323736E23637324
:1013700036236071102221003000A3732571E573BC
:10138000FFF7DFF8244B32001888294B04970593A8
:10139000102302970393019700950F3B290001F05A
:1013A00049F8071E00D05CE72E2323709733637043
:1013B000D523A370A523E370B423A3719A23E3710B
:1013C000E1232372112363723A23A372CF23E372C2
:1013D000802323736E2363733623607110222100F0
:1013E0003000A3732571E573FFF7ABF80A4B3200A9
:1013F0001888104B049705931023029703930197C5
:1014000000950F3B290001F015F8002800D028E7CF
:101410002CE7C046C40800208A0400204D2000208C
:10142000AD6A051090040020A4080020A608002042
:101430008E040020D40800201A23F0B58BB006AC2F
:101440002370C5236370D523A370A523E370002305
:101450006371B433A3719A23E371E12323721123DF
:1014600063723A23A372CF23E372802323736E2324
:10147000022563733623464E102221003000A373E9
:101480002571E573FFF75DF8424A434B31005B7805
:1014900028000092012200F0ECFF4049071E6CD1A9
:1014A0001B232370AA336370D523A370A523E37095
:1014B000B423A3719A23E371E1232372112363728E
:1014C0003A23A372CF23E372802323736E236373C3
:1014D0003623334E6071102221003000A373257132
:1014E000E573FFF72EF82B4B290018882D4B049736
:1014F0000593102303930F3B029319330197009335
:101500003200023B00F096FF2749071E35D11C230D
:101510002370A9336370D523A370A523E370B4238C
:10152000A3719A23E371E1232372112363723A2397
:10153000A372CF23E372802323736E236373362356
:101540006071102221003000A3732571E573FEF74E
:10155000F8FF104B32001888144B049705931023A2
:1015600003930C3B02930E3300930197063329003B
:1015700000F060FF002808D00D49280000F0A2F814
:1015800002200C4900F09EF847200BB0F0BDC04689
:10159000C40800205C0300204D200020F06A0510E4
:1015A00090040020A4040020946A0510D6080020AE
:1015B000966A0510986A05107FB500221D4B1E4DD6
:1015C00003AC1988227028880123009400F084FF5E
:1015D0001A49061E28D11A49200000F025FE194B91
:1015E0002888198832000094042300F075FF1649FA
:1015F000021E19D1154B28881B782370144B1988AB
:101600000094012300F068FF1249021E0CD1124B16
:1016100028881B782370114B19880094012300F04F
:101620005BFF002804D00E49022000F04BF8472051
:1016300004B070BDA40800208A040020C36A05100D
:10164000ED6A0510A6080020F26A0510A00400202B
:101650008E040020216B0510A9080020D40800206A
:10166000506B05100023064A1360064A1370064AA1
:101670001370064B064A5A60064A9A607047C04685
:1016800000040020880400208C04002008040020AE
:10169000826B0510916B0510074B01201B68002B16
:1016A00008D1064B1B78002B04D1054B1878431E3C
:1016B0009841C0B27047C046000400208804002052
:1016C0008C04002010B50C00074B8000C05800F0BF
:1016D00051F8064800F04EF8200000F04BF804489E
:1016E00000F048F810BDC04608040020ED6B05105E
:1016F0001D6E051030B5194991B00400FEF712FDBA
:10170000002809D1164800F01EFC164800F01BFC0A
:10171000154800F018FC1CE014492000FEF702FDFB
:10172000002818D164236A4607AC6370613B2372BA
:1017300040336372BC33A372EF3BE3720BAB23CB3A
:1017400023C203CB03C207980899099A0A9B00F0A9
:1017500011FD11B030BD0648D8E7C046A16B051099
:10176000A96B0510ED6A05101D6E0510C36B051001
:10177000CA6B051010B500F0E6FB10BDF0B50E0009
:1017800085B001AF04000B221149380000F029FD9B
:101790003500002C03DA2D23751C337064422000C1
:1017A0000A210135FEF752FD0028F9D128702000EA
:1017B0000A21FEF731FE7B5C013D20002B700A21DF
:1017C000FEF744FD041EF2D1300005B0F0BDC04666
:1017D000F06B05101FB501A9FFF7D0FF01A800F0BD
:1017E000B2FB05B000BD000070B50600094800F06E
:1017F000AAFB0024305DFFF7EDFF651C052C05D02A
:10180000054800F0A0FB2C00062DF3D1034800F0A2
:101810009AFB70BDDC6B0510EC6B05101D6E05109E
:1018200010B5FFF7B3F90020FFF7ECF90120FFF73F
:10183000E9F90220FFF7E6F90020FFF7DCF90120C3
:10184000FFF7D9F90220FFF7D6F9E1204002FFF7B0
:1018500035F90120FFF77CF90148FFF78BFF10BD38
:10186000FB6B0510012130B5080087B0FEF7C6FFFD
:101870000020FFF70DF9002401AB019018001C7146
:101880009C715C71FEF7A4FE6B466A4601251C70D4
:101890000323684653709570FFF7B2F82000FFF7F6
:1018A000F7F8039003A804940595FEF706FF2000BF
:1018B000FFF7EEF8FEF732FF2000FFF7E9F8290006
:1018C000FEF721FF07B030BD70B5324A88B006215F
:1018D000002000F024FE002803D02F490220FFF74B
:1018E000F1FE0421012000F016FE00F0F1FD2B496D
:1018F000041E4AD11A251E236D446B4407AE019382
:10190000010000962B000722052000F0F0FC041EC9
:1019100009D002202249FFF7D5FE2000FFF75AFF29
:10192000200008B070BD298807251E4B328803931C
:10193000029501900095030000F0D8FD1A49041E9D
:1019400023D11A4B01210393102304900290019399
:10195000020003000095080000F0E2FC1449041E98
:1019600013D11448FFF706FFFFF748FC041E0BD104
:101970001148FFF7FFFEFFF75FFD1049041E04D179
:101980000F48FFF7F7FECBE70E490220FFF79AFE5C
:10199000C6E7C0464F200020F76E05101A6F0510ED
:1019A000316F051055200020476F051040E20100FF
:1019B0006F6F05109F6F0510C36F05102170051024
:1019C00001700510E46F051010B51148FFF7D2FE45
:1019D0001048FFF709FF104800F0EAFD002806D084
:1019E0000E490220FFF76EFE01220D4B1A70FFF721
:1019F0006BFF002807D00B490220FFF763FE01228E
:101A0000074B1A7010BD0848FFF7B4FEFAE7C0464E
:101A1000F86C05104F200020186C0510116D051092
:101A20008C040020396D05104F6D0510092330B569
:101A300001248BB008AD134A2B70631ED35C2B5569
:101A40000134082CF9D10021080004F035FD0020F4
:101A5000F022C8210690059004900390029501940D
:101A600000900300D200C90000F0A2FC002805D0BD
:101A700005490220FFF726FE0BB030BD0348FFF7F3
:101A800079FEF9E755200020376E0510596E0510D4
:101A900010B500F0AEFC041E05D005490220FFF78A
:101AA00011FE200010BD0348FFF764FEF9E7C046B1
:101AB000816E0510A76E0510FA2210B5D20088B00D
:101AC0002821069205923C220291019180210492E4
:101AD0000022C9010300039200920800FFF7DBF81F
:101AE000041E06D008490220FFF7ECFD200008B0D4
:101AF00010BD0648FFF73EFE054B1B68002BF5D1D5
:101B000000F012FDF8E7C0466E6D05108F6D0510F0
:101B10003803002070B50C4D47242B68002B10D0E3
:101B20000A4B1321188800F06EFC041E06D00849E9
:101B30000220FFF7C7FD04E000F0F6FC2B68002B45
:101B4000FAD1200070BDC046380300203C030020BD
:101B5000D36E0510F0B5050089B034480391170025
:101B6000FFF708FE324E3368002B40D03148FFF7B4
:101B700001FE314C3368002B08D0002C02D1FFF756
:101B8000C9FF05E000F0D0FC013CF3E7002CF6D0E3
:101B90002800FFF791FF00283ED11022274904A812
:101BA00000F01FFB264D102204A92800FEF7C9FCF7
:101BB0002448FFF7DFFD244C02232088234A0095A8
:101BC000012100F071FC224B1A88002A12D01988DA
:101BD000208889B23B00039A00F099FC041E0ED0C5
:101BE0001C490220FFF76EFD200009B0F0BDFFF791
:101BF0004FFFCDE700F098FCE5E700F095FC164BB1
:101C00001A68002AF9D000221A60FFF783FF1348F0
:101C1000FFF7B0FD0024E7E7FFF708FF10490220B7
:101C2000FFF750FD2800FFF7DFFDF0E7A46D05107A
:101C300038030020B76D0510A0860100596A051011
:101C400052090020D26D05103C030020FFFF000068
:101C500044030020DC6D0510400300201F6E0510BA
:101C6000016E05100122134B10B5029C1A60124B35
:101C700012481980FFF77EFD207800F059F960784E
:101C800000F056F9A07800F053F9E07800F050F930
:101C9000207900F04DF9607900F04AF90D2000F04C
:101CA00047F90023064AE15CD1540133062BFAD1EF
:101CB00010BDC046380300203C030020EE6C051028
:101CC000BA08002000230121054A10B51360054A17
:101CD00005481170054A1380FFF74CFD10BDC04642
:101CE000380300205C200020E06C05103C0300203D
:101CF00010B50248FFF73EFD10BDC046C96C051087
:101D000010B51C000348FFF735FDE0B2029900F062
:101D100013FA10BD4C6C051010B50C1E0CD0084900
:101D20000220FFF7CFFC0748FFF724FD2000FFF754
:101D300051FD0548FFF71EFD0122044B1A6010BD3E
:101D40009D6C0510BC6C05101D6E05104003002035
:101D500010B50C000248FFF70DFD024B1C8010BDB2
:101D60005E6C05104403002010B50248FFF702FD29
:101D700010BDC046D26C051000230F4A10B5137079
:101D80000E4A0F4913700F4A0F4813700F4A116023
:101D9000FF21890004338B4208D100230C490D48F0
:101DA0001A1DA42A04D1FFF70FFE10BDD050F1E791
:101DB000C8501300F4E7C046A9080020A004002082
:101DC000C0080020A808002000040020A80400206B
:101DD0006003002088040020F8B52248FEF7BDFB10
:101DE000214B18702148FEF7B8FB214B1870214891
:101DF000FEF7B3FB204E3070282804D9FF221F4B7A
:101E00001A702823337001271D4C2000FEF7A5FB14
:101E10001C4D8000435901341F601B4B7F009C42C6
:101E2000F3D10E24194BE018FEF797FB80002B58D6
:101E30001C6001341E2CF5D1002533789D4200DB57
:101E4000F8BD134BEC1864002000FEF786FB07007A
:101E5000601CFEF782FB0F4BBF00FB58013518706A
:101E6000EBE7C04680EF0710A908002081EF0710BC
:101E7000A004002082EF0710A8080020880400209A
:101E800090EF0710A80400209EEF071092EF0710B4
:101E9000D8F7030860030020002230B5104B01780A
:101EA0001C788C4215D145785C78A54211D1857893
:101EB0009C78A5420DD1C578DC78A54209D1057979
:101EC0001C79A54205D145795C79A54201D1D0B2F2
:101ED00030BD01320633322AE2D1FF20F8E7C04696
:101EE0006209002010B51020FEF772FD00240028C2
:101EF0000AD104000C4A0D491378CC5401331370F5
:101F000011E0FEF751FDC4B21020FEF753FD00288A
:101F1000F7D00D2CEED10022034B044819781A702B
:101F20004254FFF7E7FB10BDD8080020D908002075
:101F300010B504002020FEF73DFD0128FAD0A0B224
:101F4000FEF72AFD10BD10B504002078002800D14E
:101F500010BDFFF7EDFF0134F7E7000010B5044CAA
:101F60002378002B03D0FFF761FD0023237010BD01
:101F70005C20002010B5FFF7B1F8FFF751FCFFF728
:101F800071FCFEF791FAFFF76DFBFFF7F5FEFFF727
:101F900023FFFFF711FBFFF77FFB002802D1023080
:101FA000FEF722FE00F0C0FAFFF7D8FFFAE710B5FF
:101FB00005F0F0F810BD10B5FEF76EFA10BD10B5C3
:101FC000FFF790FF10BD000070B5144D144C286849
:101FD000A0420FD0C0B2FEF75BFDFEF7A5FB0128C3
:101FE00008D12868C0B2FEF753FDFEF797FB00F05A
:101FF000E3F870BD0B4D2868A042FAD0C0B2FEF7DE
:1020000047FDFEF791FB0128F3D12868C0B2FEF727
:102010003FFDFEF783FB00F0D0F8EAE7F01F002059
:10202000FFFF0000F41F002084B070B507931B234E
:10203000254D06922A78254E53439C5D04900591C8
:10204000002C07D022490120FFF73CFB70BC08BCE4
:1020500004B018471F48FFF78DFB1F48FFF78AFBA6
:1020600004AB1878FFF7B6FB1C48FFF783FB04AB03
:102070005878FFF7AFFB1A48FFF77CFB1948FFF7CA
:1020800079FB04AB9B789C4213DB1748FFF772FB8C
:102090001B22287804A95043301800F0A2F82B78AE
:1020A0000133DBB22B702B78092BCFD900232B7097
:1020B000CCE704AB1B19D878FFF78CFB0B48FFF774
:1020C00059FB0134DDE7C0468E0A0020900A00204B
:1020D0003D70051052700510627005106F7005108C
:1020E0007B7005108570051087700510EE6B05106C
:1020F000F0B5040089B00E480D001600FFF73AFB5A
:102100000C48FFF7C9FE002301A9AB420ADB0123FB
:1021100048700B708D701B22200000F062F82000C8
:1021200009B0F0BDF75CCA18D7700133EDE7C046BF
:102130008A700510BA08002030B50D0004008DB07B
:102140000B48FFF717FB210005A82A00FFF7D0FF77
:102150006A4609AB03CB03C2198811809B78937040
:1021600005980699079A089BFFF75EFF0DB030BDF2
:102170009E70051084B007B504900C480793059134
:102180000692FFF7F7FA06220949684600F029F897
:1021900004AA117A1922074B6A441B886846FFF784
:1021A000D9FC03B008BC04B01847C046BA7005108B
:1021B000696A0510A40400207047704710B500F04C
:1021C00019F810BD30B50024A24201D1002005E06D
:1021D000035D651C0C5DA34201D0181B30BD2C00B3
:1021E000F2E7002310B59A4200D110BDCC5CC45474
:1021F0000133F8E710B5884202D98B18984208D30A
:1022000000239A4207D0CC5CC4540133F9E78B5CBD
:102210008354013AFBD210BD03008218934200D1CF
:10222000704719700133F9E7031C0A7801311A70FD
:102230000133002AF9D17047F0B5054600200F465A
:10224000079E059C174309D0202905D30127BF030A
:10225000BA4201D8914201D94220F0BD194621432A
:102260000AD09C42F8D309498C4203D00849A41FE4
:102270008C42F1D2062BEFD3002D03D0022D01D0DA
:10228000032DE9D1032EE7D8F0BD0000FFFF0000C9
:102290007B0C0000FFB58DB0144618AAECCA049759
:1022A0006F466CC70A46014605A8179B04F010F953
:1022B00000280AD108A84471012C08D0002C06D0AF
:1022C000022C04D0032C02D0422011B0F0BD09A88A
:1022D000062202301099FEF734F908A916980873FF
:1022E000C0B20328F0D805A800F05AFBEDE77CB592
:1022F000069D079C002805D0860705D1460703D414
:10230000060701D442207CBD002903D0012901D059
:102310000229F7D10095019400F098FB7CBD0000E4
:10232000FFB58DB0179F169D1446060004D0012EF0
:1023300002D0422011B0F0BD0E98002801D0012833
:10234000F7D1E81F0A28F4D2102FF2D8AF42F0D309
:102350001898002801D00128EBD114491998884217
:10236000E7D81A98002801D00128E2D1FEF70EFD27
:10237000012804D01098204306D01120DAE7022C5F
:10238000D7D810980128D4D8684686700E99C170A5
:10239000047310994173057147711899C1711998A7
:1023A000029068461A990FF063FCC3E73F420F00A2
:1023B000FFB587B0109D159E169C01930295009461
:1023C00007A807C81F463346FFF736FF00280ED17F
:1023D0001398149903AA069443C211981299019074
:1023E0000095029107A807C83B4600F0BFFC0BB060
:1023F000F0BD10B500F0D6FC040002D101200BF0B6
:1024000009F9204610BD10B50BF094F910BD70B558
:102410001C4613460D46012C03D0022C03D042204B
:1024200070BD022200E010221946FEF78AF82C70D7
:10243000002070BDF0B587B01C460B46054600A9CC
:10244000023101A80C9F0D9EFFF7E1FF00280ED17D
:102450006846058084828775C6750E9901760F9946
:102460004176109981766946119802F03FF807B0DD
:10247000F0BD70B586B014461D460A46034669464F
:10248000881C0A9EFFF7C3FF002804D1012C04D04A
:10249000022C02D0422006B070BD23462A4669466F
:1024A000304602F069FAF6E770B586B00D4614467C
:1024B00006466946881C0A9AFFF7A9FF002805D13D
:1024C0006B4622462946304600F05EFF06B070BDDE
:1024D00010B502F0D7FC10BD38B56D46049C2A80BB
:1024E0006B8023466A4602F071FF38BDF0B585B0B7
:1024F00084460AA8F0C868468581C68103A8019071
:1025000002970094604602F095FF05B0F0BD10B54B
:1025100001F063FA10BD10B503F0BCFC10BD10B59E
:1025200003F0DAFC10BD000010B504F005F91E4CF4
:102530004721206849014118097A002909D1A030B2
:102540000079C00729D003F083FE03F0D9FD10F015
:10255000F9FC00F003F92068014640310A78C97996
:102560008A4319D13E21095C002915D10F490A88F7
:10257000120711D50922D2061269497A836AC90065
:10258000591809231B02C018406D801A000200125E
:10259000814201DA0CF0ACFC10BD00F0C7FB02F088
:1025A0000BFB0DF037FCD0E748200020C0000020D6
:1025B00010B5837F0122002492024168082B03D9C1
:1025C0004224914202D310E0914201D242240CE015
:1025D000014634220648FDF7B4FF00F07FF80028DA
:1025E00001DA482401E000F029F9204610BD00007E
:1025F000DC0200203EB5174D15482968827F084649
:10260000A0310A7300246030047644768476E12297
:10261000C2768022027702224277302008704C7006
:1026200002AA01A96846FDF77BFF68460078A2224E
:1026300001016846007A891C00020143684600795E
:102640000003014328681152A03004713EBD000010
:10265000DC0200204820002070B504F051F80BF097
:1026600033FF0AF0F7FB11F087FA04F01FFA184C59
:1026700018492068184D4018811001202A68C002AE
:102680001018816661688908C166A16889080167B8
:102690000FF07CFA1D2029688001228B0818028720
:1026A000628B4287A28B4286628C828620462030D3
:1026B00002783B204001081882750021017000F06B
:1026C000C3FA03F02BFD03F0B3FC10F0C1FC70BDA6
:1026D000DC0200200000FCEF4820002070B500253F
:1026E000ED43FEF73DFB01282ED0002318490322BD
:1026F000888BFF24401E10438A7F4D34624382182A
:10270000088B282460431218488B30246043121829
:102710000846203040782C24604310180D4A1818C1
:1027200084184869A0420DD10B4884420AD90D692A
:10273000FEF716FBC1B2284608F0EAFF09F018F9C7
:10274000401B251A284670BDFF23B533CEE7000095
:10275000DC02002035190000540A0000F8B52C4FA7
:102760003C68206E5C34401C002814D000252948A9
:102770000023C07B00283ED00926F6062648002DFF
:102780001CD000210A460B464169521C994204D1D3
:10279000002902D004E00125E9E7204B9A42F2D358
:1027A0002160006960603069A1680002090E000ABA
:1027B00009060143A16000F033F81DE03169A26809
:1027C0000902090A150E08D0018BC90712D0416908
:1027D000216000696060E37210E0881A00027D23C6
:1027E00000121B03984205DD100E00060843A0608E
:1027F00000F016F8F8BD6360002DFBD003CC0CF0A0
:10280000A1FAFA200CF08EFA39688862F8BD00004F
:1028100048200020FC02002000001048881300001F
:102820000449002008610448012100686030C1713A
:10283000704700000000104848200020F8B5062628
:10284000374840250560374800270780A90509203B
:10285000C0064160344A91600168016033490C69E7
:102860004A690321601E08430021401CFDF76DFEEC
:10287000FEF776FAC1B2204608F04AFF09F078F870
:1028800009F082F8FEF744FA294917208881294C7B
:10289000FA2220680146403047708A622821017080
:1028A000FEF7F7F9012805D12068102240300178A1
:1028B00011430170FEF76AFA012805D120688022D1
:1028C00040300178114301702068A421095CC907D8
:1028D00004D0014640310A782A4303E001464031E2
:1028E0000A7832430A700021C9430166FDF724FFCC
:1028F000FFF780FEFFF7B0FE20680121203001774E
:1029000007214177012003F0C5FA06F083FCFFF7A9
:1029100025FF03488038056002210160F8BD0000F2
:1029200080E100E0C000002040000048DC02002000
:10293000000010484820002038B5184A1468224684
:10294000BA32AE34A378DD0701D001290AD05B0783
:102950000CD501290AD0217949070BD5E17A002944
:1029600005D007E0E07880210843E07038BD012100
:10297000E172508020794106090FF7D07821084094
:1029800069460870002048706A460221422000F023
:1029900095FB207987210840207138BD4820002010
:1029A000F8B50546002768460770154846260468AE
:1029B000AE3420798006800F03D00021084607F04E
:1029C000E3FEA078400718D520794C21084214D1A5
:1029D0000023287E6A4619460AF0BEFC00280DD165
:1029E0006846007828762F74284607F095FD060083
:1029F00003D120794021084320713046F8BD000002
:102A00004820002038B51048002104680846AE343C
:102A100007F0BAFE694648702079C10704D0012149
:102A20006A46117088432071C0B2810705D5022122
:102A30006A461170FD210840207102216A4608464D
:102A400000F03CFB38BD000048200020FFB50C46DC
:102A500078A103C995B001910090002108A80173E5
:102A60000321C90268464186012108A8734E0174FA
:102A700035681746AE3513F0E3F8002808D17049E1
:102A8000306840180AF062FEA878002802D046207C
:102A900019B0F0BD0BA81599FEF732F90028F7D14F
:102AA000072010A90871012C05D0022C0AD0002C97
:102AB0000ED04220ECE708A8017B1020014308A8B3
:102AC000017305E011A90BA8FEF7DBF80028DFD1A0
:102AD00010A8027901230CA9284601F04DFF002817
:102AE0007ED1022229461898FDF72BFD29886846D9
:102AF00081811521490201820784012686734E21B6
:102B000008A881700024C470067107214171867184
:102B100003A902A801F0EAFC002861D1022202A95F
:102B20001E98FDF70EFD082F02D26846478502E089
:102B300008206946488569460C850B4628880AAAFC
:102B4000098902F043FC00286DD13E4968460182A4
:102B50000227078408A8847103A902A801F0C6FC13
:102B6000002860D1022202A91F98FDF7EAFC6846FE
:102B70000470694644704F850B4628880AAA098963
:102B800002F024FC00284ED108A8007BC00723D007
:102B90002C496846C91C01820821018408A8877055
:102BA000047103A902A801F0A1FC00283BD1FF2178
:102BB0006846C1718171C17081704170017044714A
:102BC00004716946082048850B4628880AAA0989A5
:102BD00002F0FCFB002826D108A8007B800600E05C
:102BE00021E022D52988684681811649A5310182D4
:102BF0000684867308A88770C47004710721417128
:102C0000847103A902A801F071FC00280BD1694668
:102C10000E700C854E850B4628880AAA098902F099
:102C2000D5FB002801D0472032E708A8007BA87018
:102C300000202DE7626C75656E72672148200020C8
:102C4000DE060000012A0000034800210068AE30C3
:102C5000C1708170704700004820002070B50D4B96
:102C60001C68AE342379DD0612D45B0710D53328F7
:102C70000ED1E07A02280BD1042010700020507091
:102C8000C9B2022000F01AFA2079FB210840207115
:102C900070BD00004820002038B5024617480124C6
:102CA0000068AE30022A1FD0052A03D0072A07D0B9
:102CB0000B2A20D1084609794088FFF73DFE1AE02B
:102CC00000790024020600D50124820703D1C20640
:102CD00001D480060FD5084600216A461170694666
:102CE00000F0D8F8044606E08178490703D5017959
:102CF000FB2211400171204638BD00004820002011
:102D000010B509480468AE34E07880070BD5002080
:102D10000BF036FA022000F0A9F9E078012108430F
:102D2000FD210840E07010BD482000201FB50E486E
:102D30000468AE34E078010612D5A178C9070CD03A
:102D4000800708D5042069460873684603F0D0FD63
:102D5000022000F08BF90020E0704006400EE07089
:102D6000FDF7D2FF1FBD000048200020F0B58DB058
:102D70000C4616A9E0C90021089109910A910B910E
:102D80001599049105A9E0C112A962C900930191A6
:102D900013460146039602952246012000F0ACF846
:102DA0000DB0F0BD002000B58DB00A900B900890DA
:102DB0000990059006900790049000900190029071
:102DC000034602460146039000F096F80DB000BDA0
:102DD0000949B22209681423525CBA311A4208D058
:102DE000498800050905090D000D814201D1012026
:102DF0007047002070470000482000200278090733
:102E0000090F0A43027000207047000030B50E48D9
:102E100085B005682C46AE352879BA34400711D5FF
:102E2000E87A01280ED11521490268464180012126
:102E3000017060886B46054A00F0FCFA002801D159
:102E40000220E87205B030BD48200020FFFF0000DE
:102E50007CB50446E1200D46800005F0F9FF0BA18A
:102E600003C900900191684603F006FB01200CF0B5
:102E70003BF8002801D047207CBD20782021084362
:102E800020700920287000207CBD00001F02000077
:102E90000000000030B5174B047A1B68C268AE33DF
:102EA0001B799D06AD0F04D10078042801D00020C5
:102EB0000BE0012030BD401CC0B2155C012D08D0D4
:102EC0001518203DED7F2818C0B2A042F3D3087832
:102ED00030BD401CDD070124C0B2002D02D0105CC3
:102EE000C00703E09B07F2D5105C80070028EED0F6
:102EF0000C70ECE748200020FFB595B00E46054663
:102F000020210CA8FDF73BFE002004905648002726
:102F10000468681EAE34042802D8A078C0070BD01D
:102F2000062D02D0002D0AD002E0A078800703D53C
:102F3000E0784006800E0AD0462019B0F0BDA07897
:102F40008007F9D0E0784006800EF5D00FE0002D24
:102F50000DD0012D20D0022D28D0062D33D0032DE9
:102F600033D0042D37D0002E3BD04220E5E700209F
:102F70000BF006F90028E0D1E078800708D504209E
:102F800069460873684603F0B3FC022000F06EF84F
:102F90000120E0700020D0E7012EE6D0042EE4D01E
:102FA0001F980028E1D10627042008E0012EDCD07C
:102FB000042EDAD01F980028D7D105270220E07010
:102FC0000120049010E040200DE0022E01D0032EDD
:102FD000CBD1082007E0012E01D0042EC5D110204E
:102FE00001E004272020E07000230BAA19461E9858
:102FF0000AF0B2F9030002D000F0E4F832E0102247
:10300000002107A8FDF7A1FA07A86C46279B269A7E
:103010001F990FC42B463046189A179900F088F86C
:103020000300E9D108A8017BC170259803AC049B7B
:10303000289A29990FC422AB07CB029200910190E4
:1030400039460CA8209B219A00F0C6F80300D3D182
:1030500007A80BF0C7FB0300CED101200BF090F8BE
:103060000300C9D1184668E74820002010B504467F
:10307000C1061148006803D51522BF210C4006E0A7
:103080001B2189014118497EC90710D0122221074E
:10309000890E08181121C9014018806F00232146AC
:1030A00010F022F8010004D0204610F009F80020AA
:1030B00010BD072010BD000048200020F8B5891E73
:1030C000CDB20646A81C03210843401C83081748BC
:1030D00017460068F10603D51C22BF210E4008E008
:1030E0001B2189014118497E090601D40020F8BD41
:1030F00019223107890E08181121C9014018806F63
:1031000031460FF0F1FF04000ED039782171797843
:103110006171A5712A46B91CE01DFDF712FA21461E
:1031200030460FF0CDFFE1E70720F8BD4820002032
:10313000F8B5224B224D1B68069C5B1900930123B6
:103140009B03002814D0042812D0022814D003288E
:1031500012D006239C461E461D460F46174310D02C
:10316000914203D8A94201D39A420ED94220F8BD18
:103170003025AC46602602E0A025AC46F02620258E
:10318000EBE761462180668001E02180628020714A
:103190000798A071089820720998002805D0014668
:1031A000204606220930FDF7CCF90720607100980F
:1031B0002030807B60710020F8BD00004820002096
:1031C00004090000034881220068A030417C1140BE
:1031D0004174704748200020F8B505463D481E461A
:1031E0000068079F0024AE301346002905D0022254
:1031F0002A7001226A70A9700324002E10D08078F2
:103200008006800F0CD13019401C1F2852D82E5533
:10321000641C281932461946FDF793F9A019C4B267
:10322000002F0DD03819401C1F2843D82F55641C7F
:10323000E4B228193A460699FDF783F9E019C4B2B9
:103240006846008C00281BD06846808C002817D068
:10325000601D1F282ED805202855641CE0B21221BD
:103260002954401CC4B228190646022208A9FDF7B9
:1032700068F9B01C022209A9FDF763F9241DE4B224
:103280000C98002810D0E01C1F2813D802202855C5
:10329000641CE0B20A212954401CC0B22918401C09
:1032A000C4B208460BF004FD0B9800280CD000199E
:1032B0001F2801D94220F8BD28190B9A0A99FDF759
:1032C00040F90B982018C4B2214628460BF0E6F9C5
:1032D000F8BD00004820002000B500F009F80028E3
:1032E00005D0852201699201114200D0002000BD65
:1032F00010B50D4900050B680521490259184A69A6
:103300000021000DA0331B7B0AE04C01145B240557
:10331000240D844202D14801801810BD491CC9B255
:103320008B42F2D8002010BD48200020FEB58C68EA
:10333000CD88267B012E01D00020FEBD4126052D23
:1033400001D01E7019E0247C0A2C00D01E70002AC7
:103350000DD08968052268460C31FDF7F2F86D1E24
:1033600000AAA9B232200132FFF778FC05E00088FC
:103370000A460146022000F01DFD4120FEBD10B5A9
:10338000102100F09DF810BDFFB589B00746462614
:103390001D781022991C05A8FDF7E9FB012D04D02A
:1033A000022D02D042200DB0F0BD3846FFF794FF49
:1033B000040037D020223946002009F029FD0700FB
:1033C0002FD01948694608800120049039462046CC
:1033D0000B9B0A9A09F04BFF060004D000213846E7
:1033E00009F072FD1EE00B98A081A068012D0FD09E
:1033F000102205A9FDF7A5F82571012120694903CF
:10340000084320610948A061384600F08FFF09E0B9
:1034100010220749FDF795F8A068022205A90C3093
:10342000E8E764263046BEE7032800007F33041037
:10343000A4720510FFB589B0074646251E781022F4
:10344000991C05A8FDF793FB012E04D0022E02D093
:1034500042200DB0F0BD3846FFF73EFF040024D0F7
:1034600020223946002009F0D3FC07001CD005AD0E
:1034700004960FCD6D460FC5394620460B9B0A9A20
:1034800009F0F5FE050004D00021384609F01CFDC6
:103490000BE0012120694903084320610448A06131
:1034A000384600F043FF00E064252846D1E70000DD
:1034B000B534041010B5502100F096F910BD00008D
:1034C000F0B593B00E460446002069460876019098
:1034D000E0690790002827D0C788002F7DD0B0066C
:1034E000800F03D02088FFF773FC019006AB2046C5
:1034F000019A0799FFF71AFF412861D0B81E80B2E0
:10350000009007988068457B002D56D0F006F107A3
:10351000039000290FD0022F0DD329460098FCF705
:1035200091FE002903D006E0412013B0F0BD062D26
:1035300017D0142D15D0B00708D5052F06D30321B9
:10354000B8078907C84201D1022048E070070ED5AC
:10355000022F0CD329460098FCF774FE002902D0F4
:1035600005E001203BE0082D0DD0062D0BD003987F
:10357000800F0ED0022F0CD329460098FCF762FE74
:10358000002902D005E0042029E0072D08D0152DE0
:1035900006D0B00611D5012D04D0022D04D00CE0C8
:1035A00008201CE0042500E01225022F05D9294639
:1035B0000098FCF747FE002910D0412069460876A4
:1035C00001212069490388432061019800287DD0AA
:1035D00006AA01213120FFF741FBF6E01020810708
:1035E00006D57D49B8034018070CB800C01C0EE092
:1035F000C0060098294604D5401CFCF723FE87B27C
:1036000002E0FCF71FFE0746781E6843801D81B26A
:1036100005AB0222079809F0BBFBF0064ED56946C0
:10362000A089898A884202D9206941065BD400209A
:1036300041E0072D0AD068430B3082B21023A16805
:10364000079809F03BFC002815D031E010226349AF
:1036500008A8FCF776FF02980BABC100081A0B30E4
:1036600081B20222079809F093FB102208A8A168F2
:10367000FCF76FFFE7E7019800280ED002980CAB2B
:103680006843801D81B22A46079809F081FB0CAA85
:1036900029463320FFF7E2FA0AE0079800900298E3
:1036A0002B466843801CC2B22188022000F040FBF8
:1036B0000298401C80B20290B842BAD33820484FDA
:1036C000064207D06946A089898A00E077E08842EF
:1036D00004D86EE06846808AB8426AD02069410604
:1036E00006D5F10604D401218902084320616CE06B
:1036F00021882022002009F08BFB050011D0052134
:10370000F2070120C902002A0DD06A4611800490F8
:10371000908A3B46401C82B22946204609F06CFD47
:1037200037E0452001E7B20713D5207901280ED0F4
:103730001020A2680290019200916846808A3B4660
:10374000401C82B22946204609F0C7FC21E0022035
:10375000EFE7710701D5234A04E00399890F0DD0E3
:10376000204A521C69460A800490888AA389401C1A
:1037700082B22946204609F07AFD0AE0B0060AD551
:103780006846808AA389401C82B22946204609F0F7
:10379000E7FC642808D0284600F0C8FD228830469F
:1037A000079900F078FB10E00021284609F08CFB17
:1037B000B7E722883046079900F06DFB00E76846BE
:1037C000027E2188022000F031FB0121E06909F02E
:1037D0007BFB0020E061A8E600C0FFFFA47205109B
:1037E000FFFF000002280000F0B58BB00D46044634
:1037F0000020694608710490E669002E16D0A806DC
:10380000800F03D02088FFF7E3FA049001AB314624
:103810002046049AFFF78AFD412865D0E80708D0C2
:1038200021883246022000F049FA5DE041200BB0C9
:10383000F0BD680705D521883246022000F004FA61
:1038400052E0A80739D5F0886188814205D92188DE
:103850003246022000F042F946E02069410604D5D4
:10386000012189020843206180E021882022002074
:1038700009F0CEFA05001ED021883246022000F061
:103880002DF9A068801C00F001FB6188401E4018E3
:1038900086B2A06800F0FAFA02463346294620466E
:1038A00009F086FC284600F041FDA0683146801CE6
:1038B00000F0E8FA54E04520B9E7E80614D5F088AE
:1038C000412702280ED9B168801E4D7B80B2854207
:1038D00001D9012016E0002D04D02946FCF7B2FCE6
:1038E00000290FD0684607710120216940038143F8
:1038F0002161049800282DD001AA01213120FFF771
:10390000ADF92DE002900220002703901EE00498FC
:1039100000280DD0039805AB001D81B22A46304621
:1039200009F036FA05AA29463320FFF797F907E090
:1039300003980096C2B22B462188022000F0F8F9C5
:103940000398401980B27F1CBFB20390029887424F
:10395000DDD3C9E7684602792188022000F066FAC3
:103960000121E06909F0B0FA0020E06100205EE783
:10397000FFB581B01F4606464625FFF7ADFC0400A3
:1039800020D020223146002009F042FA060018D04B
:10399000014600972046039B029A09F0A3FC05000C
:1039A00004D00021304609F08FFA0BE00121206994
:1039B0004903084320610548A061304600F0B6FC89
:1039C00000E06425284605B0F0BD0000D1390410A0
:1039D00010B56021FFF708FF10BD10B51C46134657
:1039E0002246FFF7C5FF10BDF7B5064690790321C3
:1039F000401EC5B2E81C0843401C83081748174600
:103A00000068F10603D52922BF210E4008E01B21E2
:103A100089014118C97EC90601D40020FEBD2622B5
:103A20003107890E08181121C9014018806F3146ED
:103A30000FF05AFB04000FD00198A080A808A071D5
:103A400023462A4605213846083309F0A1F92146C4
:103A500030460FF035FBE0E70720FEBD4820002090
:103A6000F7B5064690790321801EC5B2E81C0843CD
:103A7000401C8308184817460068F10603D5282221
:103A8000BF210E4008E01B2189014118C97E0907AA
:103A900001D40020FEBD25223107890E081811210E
:103AA000C9014018806F31460FF01EFB040011D091
:103AB0000198A080B8682346407BA071E5712A4632
:103AC00006213846083309F063F9214630460FF0E5
:103AD000F7FADEE70720FEBD48200020F7B50646CE
:103AE00090790321401EC5B2E81C0843401C83089E
:103AF000164817460068F10603D52C22BF210E4058
:103B000008E01B2189014118C97E090601D4002063
:103B1000FEBD29223107890E08181121C90140185C
:103B2000806F31460FF0E0FA04000DD00198A080BC
:103B3000A5712A4605213846E31D09F029F92146D9
:103B400030460FF0BDFAE2E70720FEBD4820002016
:103B5000F7B5064690790321801EC5B2E81C0843DC
:103B6000401C8308184817460068F10603D52E222A
:103B7000BF210E4008E01B2189014118097F8907F8
:103B800001D40020FEBD2B223107890E0818112117
:103B9000C9014018806F31460FF0A6FA040011D019
:103BA0000198A080B8682346407BA071E5712A4641
:103BB00006213846083309F0EBF8214630460FF06D
:103BC0007FFADEE70720FEBD48200020F7B5064655
:103BD00090790321801EC5B2281D0843401C83082C
:103BE000184817460068F10603D52A22BF210E4067
:103BF00008E01B2189014118C97E890601D40020F3
:103C0000FEBD27223107890E08181121C90140186D
:103C1000806F31460FF068FA040011D00198A0803F
:103C2000B8682346407BA071E5712A4606213846D4
:103C3000083309F0ADF8214630460FF041FADEE7CF
:103C40000720FEBD48200020F7B5064690790321E5
:103C5000401EC5B2E81C0843401C8308164817469E
:103C60000068F10603D52D22BF210E4006E01B217E
:103C700089014118097FC90719D02A223107890E05
:103C800008181121C9014018806F31460FF02CFA35
:103C900004000ED00198A080A5712A46052138465F
:103CA000E31D09F075F8214630460FF009FA0020AF
:103CB000FEBD0720FEBD000048200020F7B50646E7
:103CC00090790321401EC5B2E81C0843401C8308BC
:103CD000164817460068F10603D52B22BF210E4077
:103CE00008E01B2189014118C97E490601D4002042
:103CF000FEBD28223107890E08181121C90140187C
:103D0000806F31460FF0F0F904000DD00198A080CB
:103D1000A5712A4605213846E31D09F039F82146E8
:103D200030460FF0CDF9E2E70720FEBD4820002025
:103D3000FFB59B1E0646DDB2681D03210843401CEB
:103D400083081B4881B000681746F10603D5362268
:103D5000BF210E4009E01B2189014118497F8907D5
:103D600002D4002005B0F0BD33223107890E0818B7
:103D70001121C9014018806F31460FF0B5F90400D8
:103D800014D00298A0800A98234680682A460830FA
:103D9000C0190079E0802572B91D09330A9808F02E
:103DA000F7FF214630460FF08BF9DAE70720D9E715
:103DB00048200020F8B5044690680F460146154695
:103DC000467B0E3102226846FCF7BBFBA868022343
:103DD000057C1548E10603D53522BF210C4009E0DA
:103DE0001B22016892018918097F090601D400206D
:103DF000F8BD322221070068890E08181121C90177
:103E00004018806F21460FF06FF9010009D08F80B4
:103E10008E716A4612880A818D7220460FF050F921
:103E2000E5E70720F8BD00004820002070B50E46E9
:103E300001230446C10612481546006803D5342202
:103E4000BF210C4006E01B2189014118497FC907A9
:103E500011D031222107890E08181121C9014018FB
:103E6000806F21460FF040F9010006D08E808D71E1
:103E700020460FF025F9002070BD072070BD00001E
:103E8000482000200170090A41707047017840788D
:103E9000000208437047134610B50207920F05D081
:103EA0000A4619460220FFF791FE10BD820605D58D
:103EB0000A4619460220FFF7D3FD10BD820705D53B
:103EC0000A4619460220FFF78FFD10BDC007FCD03F
:103ED0000A4619460220FFF73BFE10BDF8B5069CC6
:103EE0001F4615460646002C13D0A06802220D304E
:103EF000FCF727FBE81E82B23B460721204609F06B
:103F000037F8E580A068012E05D01D21017300203F
:103F1000F8BD4720F8BD1B21F8E70000F1B5FFB060
:103F20008BB00124600205900027CC4807970168F8
:103F3000E320C000081803908A98C74D0005000DC3
:103F40000AAA05A90BF045FC0690002872D10426A8
:103F50000AA805994218203AD27F0B2A23D00026BE
:103F6000002004900AA88119022201A80291FCF7FE
:103F7000E8FA6846818809AB08AA039801F020FC9A
:103F8000012817D002287DD068468088854200D35A
:103F90000546844200D920460446029880780128CC
:103FA00071D013363BE1491E761E36040591360C5E
:103FB000CFD1D5E708980090002F79D1009902223F
:103FC00028310298FCF7C5FA00281ED1009820304D
:103FD000017B02988078814217D1012808D100988E
:103FE000029902220830C91CFCF7B3FA002815D048
:103FF00002988078022808D100980299102208308F
:10400000C91CFCF7A6FA002808D00098008DA84229
:1040100000D80546A04200D22046044602990AA8CC
:104020008978012907D013360599B6B28E4204D398
:10403000012707E005E1761DF6E78119022201A8B4
:10404000FCF77FFA0399009808318E462EE08446EB
:104050006946026A8B8820300DE0918B994203D328
:10406000012F7DD199427BD9A94200D80D46A142AA
:1040700000D30C4612688242EFD10498002817D171
:10408000604601E015E0BFE0006870450ED0018D8C
:10409000994203D3012F09D1994207D98D4200D308
:1040A0000D468C4200D80C46012F59D17045CED117
:1040B000BAE008980090002F72D1009902221C31BA
:1040C0000298FCF746FA00281ED100982030C178EB
:1040D00002988078814217D1012808D1009802996E
:1040E00002220830C91CFCF734FA00281AD00298C2
:1040F0008078022808D10098029910220830C91C43
:10410000FCF727FA00280DD00098808BA84200D831
:104110000546A04200D22046044602988078012835
:1041200026D003E002988078012805D0133607983E
:10413000B6B201281ED021E0009849490089884282
:1041400016D18A98FFF7D4F80146009800F08AF853
:104150000099098C4843009989694018022200E0BF
:1041600038E00299491DFCF7ECF901200790D4E7EB
:10417000761DDCE7B61C0020B6B207900598864293
:1041800001D3012705E00AA88119022201A8FCF742
:10419000D8F9039A0099083209980968944630E0E2
:1041A0001AE086466A46938820300DE08A8B9A4250
:1041B00003D3012F0ED19A420CD9AA4200D815463A
:1041C000A24200D3144609688142EFD10498002826
:1041D0002AD102E00120049026E070460068604584
:1041E0000FD0028D016A9A4203D3012F09D19A425E
:1041F00007D9954200D31546944200D81446012FA2
:10420000E8D16045CDD10FE00298C078022805D1F1
:1042100002980079292801D1B61CB6B2761D0598FE
:10422000B6B2864200D301270598811B042902D328
:10423000864200D294E604980028FBD1A54203D917
:1042400006987FB00CB0F0BD224629468A9801F04E
:10425000FBFA0690F5E70000FFFF00004820002071
:104260000229000030B5024623239B5C0020012B6D
:104270001AD112890D4B9A4216D10D4A05231268A4
:104280005B02D318A0325B69127B0AE045010C88FF
:104290005D5B24052D05240D2D0DAC4204D0401C82
:1042A000C0B28242F2D8002030BD000002290000D6
:1042B00048200020830810B50A4800210268052024
:1042C00040021018A0324069127B07E04C01045BE9
:1042D000002C01D0994204D0491CC9B28A42F5D8B9
:1042E000002010BD4820002010B50446022000F038
:1042F00033F80D4800210268052040021018A03252
:104300004369107B05E04A019A5A002A04D0491CEF
:10431000C9B28842F7D810BD48011C52C0180269C2
:1043200004210A43026110BD4820002010B5044654
:104330000146042002F0DCFC002809D00548E321F6
:104340000068C900401821463C300FF02FFD432083
:1043500010BD00004820002004490A683B214901A3
:1043600051180A7802430A70704700004820002064
:1043700000B51138C0B2FFF79DFF002804D001221C
:10438000016952051143016100BD0000F3B597B00A
:104390000D8848880590081D1DC80DAE1DC68C8A65
:1043A000CE8A087E1390C869203101900878009069
:1043B0004878049088780390C87802900F7900F0CC
:1043C00047FD002817D10120400284425FD8B44243
:1043D0005DD8002F01D1B44259D114A9284601F06B
:1043E0001DFA002806D115AA1499059801F006FABD
:1043F000002802D0602019B0F0BD149D11A92846F4
:10440000183009F0F7F910A88088002810D0284645
:1044100012A9203009F0EEF910A8838800892A8DAE
:104420001818696A10188A8B904203D16120E2E75C
:104430004820E0E715982C4B02899A4227D1232285
:10444000125C012A23D10068006816901398012895
:104450001FD16846808E29221202801A030001F0C3
:10446000D2FC0604180404070A18022C0FD110E02D
:10447000072C0CD10DE0042C09D3E00707D1012F44
:1044800007D1A64203D3042E01D3F00701D0422066
:10449000B1E702980B90039B049A0A930992009843
:1044A000019A0C9708900696059407920DA81DC8CE
:1044B000019002A81CC013980B4600902A4616993A
:1044C000179800F0AFF9002895D168460649808E0C
:1044D000FF31884205D01798018800200A4601F074
:1044E000B3F9002087E7000003280000F3B5A5B06A
:1044F00008881A9088780C4611901022091D13A87C
:10450000FCF735FBA08A1090A17D68460172E07D22
:104510000F90207E2090677EA07E1F900020064690
:104520000146129020A801810F20BB4C2390E3216B
:104530002068C9004018199000F08AFC00280BD1AF
:1045400001211098490288425FD821A91A9801F0E8
:1045500065F9002802D0602027B0F0BD219817909F
:1045600009F0ECF81A9988420CD102A8019016982B
:10457000009013AD0ECD119809F0A4F8002801D0D9
:104580006320E9E76846017A8806800F05D001209C
:1045900012902068A030007B4600C80703D0129814
:1045A000401CB61C1290080603D51298401CB61C7D
:1045B000129017980DA918301D9009F01BF9684644
:1045C000129C808EA41CA04237D317980EA92030CD
:1045D000019009F00FF96846018F00290DD0179856
:1045E000179A6B46406A9B8E128D5918808B511812
:1045F000081AA04201D26120AEE717988469119889
:104600002568012803D0022803D04220A4E7052012
:1046100000E01320E0832A4639460F9809F0A0F8FD
:10462000422899D0199FE28B4037788B398B411AF9
:10463000109810188019814201DA48208CE70EA9E1
:10464000019809F0D7F86846008F0028179802D023
:10465000406A808B00E0008D2599401C08802598D9
:1046600001210088A083259802220088401CA8838D
:104670006A482081204620301790C1700021817047
:1046800081711998398B406D40186946A061097A8B
:104690000170A06929461C31401CFBF752FF11989C
:1046A0000128A0697ED0102213A9C01CFBF749FF86
:1046B0002846102213A90830FBF743FF388B13302C
:1046C00038832E4620361198F0701098E8831F9892
:1046D000B07010982084109828841998398B406DF8
:1046E0004018A8610021109AFBF72FFF398B109812
:1046F000081838831799012008711799002048710C
:1047000030716846007A810701D5012131710107B6
:104710000227002902DA317939433171410703D583
:104720003179042211433171400603D530790821D3
:10473000084330710F9870712098B07121461D9810
:1047400009F081F82146019809F05EF829461D9884
:1047500009F079F82946019809F056F812980028CE
:1047600041D068461A998181A18BC1810784478411
:10477000012408A8047122A80A9008A88473239928
:1047800041730F993820014008A801730721C173B4
:10479000002505746846007AC00708D0204869469D
:1047A000088200E02AE003A924A8FFF7EFFD68468D
:1047B000007A8006800F07D019486946401E08829B
:1047C00003A924A8FFF7E2FD6846007A00060AD58F
:1047D000292109026846018208A84473057303A9C8
:1047E00024A8FFF7D3FD259801881298401C0818CB
:1047F00082B2002001F028F80020ADE6022213A9C1
:10480000C01CFBF79EFE2846022213A90830FBF7C6
:1048100098FE388B401D53E74820002003280000F5
:1048200003290000FFB55248E322006887B0D20098
:104830008218069210AA109B0126169F9288012BBF
:1048400004D14C4B9A4201D1A030067B069D3446E0
:104850004035688B2B8B7C43C31A0998203003901A
:10486000A34222DA48200BB0F0BD2320405C01288F
:1048700019D108896C46208098420CD03D4C641EAA
:10488000A04208D0641CA04205D0641CA04202D003
:10489000A41CA04207D1374CFF3CA04201D090425B
:1048A00001D16220DFE7096801E029231B02039898
:1048B0008142DAD109981B9984691898224608F038
:1048C0004FFF4228CFD01C98012804D11598874269
:1048D00001D24220C7E71598E083204620301C997A
:1048E0000590817027840A98808B401CA0831098C3
:1048F000012814D02046102211A90830FBF721FE10
:1049000005991098C8700698298B406D4018A061D1
:10491000298B384670430818288300250FE011A81A
:104920000FC808340FC4183CEAE72846A169784349
:104930000818159A1799FBF704FE6D1CEDB2B542E5
:10494000F3D3059918984871059919980871059934
:104950001A98887109982146183008F074FF21468A
:10496000039808F051FF0798A18B018000207AE797
:104970004820002002290000FFB58FB014460E78B1
:10498000102205A8891CFCF7F2F85048E3210068C2
:10499000C900451800F05CFA00281ED1002C57D041
:1049A000012E09D16846808A4949884204D12846A7
:1049B000A968083081424BD12846103029690390FC
:1049C000814209D00AA9284608F014FF6846018DE3
:1049D000601E0D90814202D2482013B0F0BD2846DF
:1049E00008300CA9049008F005FF6846008E0028E6
:1049F00014D0EF680AA93846183008F0FBFE384694
:104A000020300CA908F0F6FE6846398D008D091893
:104A10006846008E401C081887B200E0012701207C
:104A20000004C01BA04201D26120D6E72C6928688F
:104A300001901298012802D0022803D008E0052036
:104A4000C00200E023486085012E03D0022E05D06D
:104A50004220C2E720460830022202E02046083009
:104A6000102205A9FBF76DFD204631462030064691
:104A700001730F98214607802785039808F0E3FE0D
:104A80002146049808F0C0FE27461837E7616662A1
:104A9000A76126620D9884B20BE02846019908F0C0
:104AA000D2FE3846019908F0AFFE2868641EA4B211
:104AB0000190002CF1D10F9801880D98081882B24E
:104AC000002000F0C1FE002087E700004820002001
:104AD000011800000128000002460948E32100688F
:104AE000C90041188868083103E0038D934202D25F
:104AF00000688842F9D1884200D100207047000048
:104B000048200020034610B50F48E3210068C90083
:104B100041188868083103E0148D9C4203D8104680
:104B200002688A42F8D18A420CD1018D994209D299
:104B30000146026A20318A4203D0416A898B994238
:104B400000D2002010BD000048200020024610B511
:104B50000B4812050168052040020818436900202F
:104B6000120DA031097B07E044011C5B2405240DD4
:104B7000944203D0401CC0B28142F5D810BD000061
:104B800048200020F7B50546174601980FF0DEF8DB
:104B90002E050446360D0CE0A0882568B04207D1EA
:104BA000214601980FF01FF93946204608F08CF98C
:104BB0002C46002CF0D1FEBDF0B58BB0002064492E
:104BC0000290E3200A68C000141872B61046403004
:104BD000C57902231D43C57162B625464035287A42
:104BE000C0077DD0052040021018002647694AE022
:104BF00071017A5A002A44D0C919069109694A02FA
:104C00001FD48A0227D5022104910699012309881D
:104C10000905090D03911B2189014118C97E8907E6
:104C20000FD51121C901083040182322806F0221BD
:104C30000EF05AFA010004D0039A8A8004980EF00C
:104C40003FFA069800880090069800F083F80098D4
:104C50000CF08DFF15E0480713D506980088000575
:104C6000000D0CF060FF002805D1069800880005B3
:104C7000000DFFF753F9069904200969814306984E
:104C80000161761CF6B23248AC210068095CB14281
:104C9000AED800F001FF2046243006460FF09CF805
:104CA000012802D0012000F0F9FD204618300FF055
:104CB00093F8012802D0002000F0F0FD3C3420469B
:104CC0000FF08AF801280FD002A920460FF0ADF8A6
:104CD0000420029902F00CF80028F0D0204600E0F1
:104CE00034E002990FF04FF8287A00062ED53046AE
:104CF0000FF072F8012829D1002008F065F8A98B7F
:104D000023314909491CC9B2FBF79CFA00281DD080
:104D10000F4D044628681121C90108304018422669
:104D200001233822806F31460EF0DEF901000DD0EC
:104D300000228A80CC8030460EF0C2F93B212A68DE
:104D4000490151180A78802082430A700BB0F0BDE7
:104D500048200020F0B504463C48E3210068C90023
:104D60004518218A85B089041AD5022104911B2196
:104D700089014118497F412627880123C9070FD09F
:104D80001121C901083040183122806F02210EF034
:104D9000ABF9010004D08F808E7104980EF090F969
:104DA0002946208801221831FFF7ECFE2946208889
:104DB00001223031FFF7E6FE294620880122243106
:104DC000FFF7E0FE2946208800223C31FFF7DAFE9B
:104DD00020880005000DFFF7B9FE85002946113136
:104DE0006846017301F084FD29461231684601735B
:104DF00001F07EFD294613316846017301F078FD0C
:104E000068461435057301F073FD208800F028FA18
:104E1000208801050D48090D026805204002101880
:104E2000028F914201D100210187E069002802D060
:104E3000012108F049F8202200212046A568FBF74F
:104E400084FB1720A560608005B0F0BD48200020DD
:104E500010B50B48E3210068C90044184034207A9B
:104E6000C00709D0002007F0AFFF217A890701D5DC
:104E7000002803D0002010BD472010BD642010BDC5
:104E800048200020F0B55FA099B000685E491590F9
:104E9000E3220868D200841805225202821852695F
:104EA0002546403514922A7AD20702D0622019B0E2
:104EB000F0BDAA8B01235B029A4201D9AB8303E0C8
:104EC000172A01D21722AA83149AA0301392067BC4
:104ED0000DE0761EF6B2139871010F18B8680F90A6
:104EE000384620220021FBF730FB0F98B860002ED7
:104EF000EFD120460830E0606460A0602460083094
:104F0000139060612061FF22002108300EF033FF12
:104F10002046FF22002124300EF02DFF2046AA7FDC
:104F2000002130300EF027FF2046FF2200213C30C8
:104F30000EF021FF00222A7210461721324B05E0A5
:104F4000149E4701BE19401C7180C0B21E68A03675
:104F5000367B8642F4D8002028832F8C688C00266C
:104F6000149008E02820E16C70430918204608F0EE
:104F70004BFC761CB6B2BE42F4D3002608E03020CB
:104F8000216D70430918139808F03EFC761CB6B2E8
:104F900014988642F3D30120FFF7DEF90124684616
:104FA00004701A4941802346042269460CA8FFF781
:104FB000E3FC002822D16846018E818214490183D6
:104FC000042606858475202108A881720024C472F5
:104FD000047307214173847305A90DA8FFF786FAAE
:104FE00000280BD1684604874687818E15AB0EAA30
:104FF000008E00F0EBF9002800D158E7002028725D
:10500000472054E70000FFFF48200020011800005F
:10501000052A0000F8B504467D480E460068E321E5
:10502000C90047184820C05DC0077BD0B088FEF794
:105030005FF90546012C02D0002C75D0E6E0002D6A
:105040000CD0286941074AD4B268F188147B002942
:10505000F4D062060CD56888884201D20121B2E002
:10506000D22C01D0522CF9D13846314618303FE0CD
:10507000A106890E1E293ED81E2C21D101071FD55D
:105080000821884328612988012008F0A5FB012117
:10509000304607F019FF5E4811210068C901083049
:1050A000401842242D8801233922806F21460EF0BA
:1050B0001BF8010003D08D8020460EF001F8A5E01A
:1050C000E1070AD01D2C10D01B2C0ED0410529D48D
:1050D000012189020843EE6192E0C00601D5452016
:1050E000F8BD2988002008F065FB38463146243099
:1050F0000EF05CFE8AE029882022002007F088FE5E
:1051000005000FD00121304607F0DEFE2B460022BD
:10511000214606200FF01AFA2846FFF707F975E036
:1051200000E001E04120F8BDB068047B1D2C3AD0BE
:105130001B2C41D00021304607F0C6FE032C46D080
:10514000052C44D0072C42D0092C40D00B2C3ED04B
:105150000D2C3CD00F2C3AD0112C38D0132C36D03B
:10516000172C34D0192C32D0012C30D0022C35D051
:10517000042C33D0062C31D0082C2FD00A2C2DD063
:105180000C2C2BD00E2C29D0102C27D0122C25D053
:10519000162C23D0182C21D0522C1FD0D22C1DD04D
:1051A0001E2C2FD032E0002D03D02988012008F0DA
:1051B00001FB3146022001E03146012000F05EFD96
:1051C000002823D00021304607F07EFE1EE029692A
:1051D0001020814329612988002015E02869402199
:1051E00088432861010511D5FF2101310843286159
:1051F0002988022008F0DEFA01212869C9028843C3
:10520000286103E02988032008F0E6FA0020F8BDB1
:105210004820002010B5114AE3231268DB00D218A1
:105220004032127AD20706D002280AD0052804D0CC
:105230000B2810D101E0412010BD4888FFF754F839
:1052400009E04888FEF754F8002804D001220169DB
:10525000920511430161002010BD0000482000208C
:10526000F1B5FFB085B04720019000206946088065
:105270005348E3210068C90047188498FEF738F8BE
:105280000290002874D0B96808374FE0684600885B
:105290000D4604AC20186B460222283100F0A4FD14
:1052A00068460088294620186B4601222C3100F000
:1052B0009BFD2E462036307B69460128098804A8CC
:1052C00009D040186B4610222946083100F08CFDA9
:1052D00001902C6A27E040186B460222F4E76946E9
:1052E000098804A8401821466B4602221C3100F0B0
:1052F0007BFD6946098804A8401821466B460122B7
:10530000233100F071FD2320005D694601280988E2
:1053100004A830D0401821466B461022083100F016
:1053200063FD01902468B442D9D12968B942ADD156
:10533000019800281CD16846008881070AD0214ABC
:10534000011D11406A4611800A1A04A908180B2190
:10535000FBF7FBF8029800880CF0E5FB002807D16A
:10536000849869460005000D04AA09880AF062F9CC
:105370007FB006B0F0BD401821466B4602220831CE
:1053800000F032FD019020890F498842CAD12046A1
:105390000299FEF767FF4000A16903906A46091869
:1053A000128804A880186B46022200F01DFD0190AF
:1053B000A1690398022208180021FBF7C6F8B1E79B
:1053C00048200020FCFF000002290000F0B507463D
:1053D00017480E4600683B2149014018007885B007
:1053E0001D461446C00706D003A9384600F016FA39
:1053F00000280AD102E0472005B0F0BD04AA3046DB
:10540000039900F0FBF9002801D06020F4E704992B
:10541000228860880968002A00D0088C32466E46CF
:1054200031C603233946002000F004F8E4E7000009
:1054300048200020FFB5002099B0239A0B901290CD
:1054400005461490064615901C46DB480B4600683E
:10545000E321C900411803910021229F089109917D
:105460005188069111880A913B2149014018007822
:10547000C00706D00FA9184600F0D0F900280AD1BD
:1054800002E047201DB0F0BD10AA0F991B9800F054
:10549000B5F9002801D06020F4E71998002803D05E
:1054A000600701D5012000E000201390A007800FC5
:1054B0001C90109817902030C078012840D1179880
:1054C000BE4B01899942F9D11798069904680A9848
:1054D000228C4118914233D8204620301690807893
:1054E000012816D0E08B0490179880690078800618
:1054F000800F7DD0039840301890007A800777D5D0
:105500001C980028F5D0AD4F0F99FF372031206847
:1055100014E0BA4214D3B942DDD80497E4E7038912
:10552000A64A934203D12322125C012A08D0BB422F
:1055300003D12322125C012A03D000688842EED1F5
:1055400034E105900028FBD09B4805210268490200
:10555000511849690027009162E078010099039091
:10556000085A01055AD01999002901D0884255D10D
:1055700005997A008B69511C595C9A5C090289185B
:1055800089B20D91890749D0022205990FF05CF884
:10559000002804D01998002840D0652072E7002028
:1055A00008A9C8551C98C00718D0179880690078BA
:1055B000C00613D50D98C00710D00120C85505436B
:1055C000009A039880184088159A904206D9159041
:1055D000009A0398105A0005000D14901C9880073B
:1055E0001CD5179880690078800617D50D9800E0C3
:1055F00084E0800712D50220CA5D05430243CA55E4
:1056000000990398401840881599884206D915904A
:1056100000990398085A0005000D14907F1CFFB2F2
:1056200065480068A030037BBB4296D8002D65D04A
:105630001898007A00065FD45F4801680520400290
:105640000818416900201BE042018E5A360515D02A
:10565000AE070BD556183669B7070DD408AF3F5CB7
:10566000BF0703D5360701D546200BE7EE0705D067
:105670005218127CD20701D0432003E7401CC0B26D
:105680008342E1D81598C01E86B20498864200D99C
:105690000646A8070FD520220020149907F0B8FB72
:1056A000129000287DD0F01C82B20021129800F0E8
:1056B000EDF8002811D1E80720D02022002014990D
:1056C00007F0A6FB0B90002807D0F01C82B2002147
:1056D0000B9800F0DBF8002810D08020FEF73CFE8D
:1056E0001298002802D0002107F0EEFB0B9800284A
:1056F00002D0002107F0E8FB6420C3E6A1690A9804
:10570000069A08182499FAF71CFF16988078012841
:1057100001D10498E083002D46D0274B052019685D
:10572000400208184169002008AA0CE04301CF5A42
:105730003F0506D05F18BC463B69175C3B43674694
:105740003B61401CC0B21C4B1B68A0331B7B8342D7
:10575000ECD8A8070DD512980090F01C82B2214613
:105760001C310220A369FEF7B9FB0220129900F058
:1057700085FAE80718D00B980090F61C2146B2B2C3
:105780001C310120A369FEF7A9FB1398002805D05E
:105790000B988021C07C08430B99C87401200B9999
:1057A00000E005E000F06AFA00206BE6422069E6BE
:1057B0008020FEF7D1FD9FE748200020032800004D
:1057C000F0B58468083015E0258D8D4203D1146052
:1057D00018600120F0BD26461C602036256A06E0D0
:1057E000AF8B8F4202D102201560F0BD2D68B5420B
:1057F000F6D124688442E7D10020F0BD10B50B6AD1
:10580000203106E09C8B844202D10020136010BD41
:105810001B688B42F6D1412010BD000010B5094A2B
:10582000E3231268DB00D2189368083206E01C8D6F
:10583000844202D100200B6010BD1B689342F6D158
:10584000412010BD4820002030B50F4BE3251B68D8
:10585000ED005B19403304461B7A412085B09B075D
:1058600010D56B469981DA81002018820420588275
:1058700003AA04A96D4607C502231A460121204642
:10588000FFF7D8FD05B030BD4820002010B5121D2F
:10589000806892B207F036FB10BD0000F0B57D497C
:1058A000E3220968D2008E1885B0012806D0304660
:1058B000183000900EF04AFA0446E7E030462430F3
:1058C00003900EF043FA0546BCE0A8682F68007B01
:1058D0000290A888FDF70CFD040073D021882022D7
:1058E000002007F095FA019000286CD0E8886188C4
:1058F000884204D900220420019B029920E046201E
:10590000009002980E284ED00ADC801E030000F0A2
:105910007AFA0B1C13221329132F13381341130087
:1059200016285AD004DC102846D0122804D14BE0A7
:1059300018285BD01D2874D000220620019B0299F4
:105940000EF004FE002000905CE029462046019AFB
:105950000EF008FF4FE02A4621463046019B0FF02B
:105960002FF948E029462046019A0FF033F842E02B
:105970002069000355D429462046019A0FF06AFC9D
:1059800039E0206900034CD429462046019A0FF0E3
:1059900093FE30E02069000343D429462046019A53
:1059A0000FF0C6FA27E0206900033AD429462046C2
:1059B000019A0FF0B7FD1EE029462046019A0FF02C
:1059C00057FB18E035E040E02069800329D42946E0
:1059D0002046019A0FF09BFF0DE02069800320D440
:1059E00029462046019A0FF0E7F904E029462046AF
:1059F000019A0EF011FF0090452812D0692810D0AE
:105A000046280ED001212069090688431021084349
:105A100020610198FEF78AFC0098002809D010E068
:105A2000FFE70021019807F04FFA009845280CD0B5
:105A3000F2E7294603980EF0D6F90121284607F02F
:105A400043FA3D46002D00D03FE705B0F0BDA06809
:105A50002668077BA088FDF74BFC05000DD0522F70
:105A600001D0D22F06D1286940030ED42146284602
:105A70000FF0B7FE2869400307D4214600980EF0C6
:105A8000B2F90121204607F01FFA3446002CDED17E
:105A9000DBE7000048200020F0B56348E3220168FE
:105AA000D2008DB08A180C92052252028918002764
:105AB0004D69AFE07E01A85B002872D070190A9092
:105AC000C069002866D00A990969CA0532D54A0515
:105AD00030D580680124A402007BA1430A9A1D28C6
