:020000041004E6
:1000000000600020650E04100D0E04100F0E041089
:10001000AA5555AA45554C420000000000000000BA
:10002000000000000000000000000000110E04109D
:100030000000000000000000130E0410A12C0410AA
:10004000B12C0410150E0410000000000000000088
:10005000A92C0410170E0410992C0410230E041060
:100060000000000000000000000000000000000090
:1000700000000000250E0410270E0410290E0410A5
:1000800000000000190E04101B0E04101D0E0410B9
:100090001F0E0410210E0410090E04100B0E041084
:1000A0000000000000000000000000000000000050
:1000B0000000000000000000000000000000000040
:1000C000F0B543464C4655465E466746F8B40E4C7E
:1000D0006B4623600D4C20680D4C20600D4C206851
:1000E0000D4C20600D4C20680D4C2060BFF34F8FED
:1000F00030BF054C2468A546F8BC9846A146AA46E0
:10010000B346BC46F0BDC0460800002004ED00E048
:100110005003002024ED00E04403002000E200E052
:100120005403002002780B78002A03D001300131FB
:100130009A42F7D0D01A7047002243088B4274D3FA
:1001400003098B425FD3030A8B4244D3030B8B42D8
:1001500028D3030C8B420DD3FF22090212BA030CE1
:100160008B4202D31212090265D0030B8B4219D3C2
:1001700000E0090AC30B8B4201D3CB03C01A5241E2
:10018000830B8B4201D38B03C01A5241430B8B422A
:1001900001D34B03C01A5241030B8B4201D30B0313
:1001A000C01A5241C30A8B4201D3CB02C01A52413A
:1001B000830A8B4201D38B02C01A5241430A8B42FD
:1001C00001D34B02C01A5241030A8B4201D30B02E6
:1001D000C01A5241CDD2C3098B4201D3CB01C01A00
:1001E000524183098B4201D38B01C01A524143090A
:1001F0008B4201D34B01C01A524103098B4201D3F8
:100200000B01C01A5241C3088B4201D3CB00C01A64
:10021000524183088B4201D38B00C01A52414308DC
:100220008B4201D34B00C01A5241411A00D2014601
:10023000524110467047FFE701B5002000F0F0F88A
:1002400002BDC0460029F7D076E7704703460B434E
:100250007FD4002243088B4274D303098B425FD3BF
:10026000030A8B4244D3030B8B4228D3030C8B42EB
:100270000DD3FF22090212BA030C8B4202D31212D1
:10028000090265D0030B8B4219D300E0090AC30BA6
:100290008B4201D3CB03C01A5241830B8B4201D353
:1002A0008B03C01A5241430B8B4201D34B03C01A3C
:1002B0005241030B8B4201D30B03C01A5241C30AB4
:1002C0008B4201D3CB02C01A5241830A8B4201D325
:1002D0008B02C01A5241430A8B4201D34B02C01A0F
:1002E0005241030A8B4201D30B02C01A5241CDD2B4
:1002F000C3098B4201D3CB01C01A524183098B42FF
:1003000001D38B01C01A524143098B4201D34B01E7
:10031000C01A524103098B4201D30B01C01A52414A
:10032000C3088B4201D3CB00C01A524183088B42D1
:1003300001D38B00C01A524143088B4201D34B00BA
:10034000C01A5241411A00D201465241104670472C
:100350005DE0CA0F00D04942031000D34042534031
:1003600000229C4603098B422DD3030A8B4212D3F1
:10037000FC22890112BA030A8B420CD38901921123
:100380008B4208D3890192118B4204D389013AD060
:10039000921100E08909C3098B4201D3CB01C01A35
:1003A000524183098B4201D38B01C01A5241430948
:1003B0008B4201D34B01C01A524103098B4201D336
:1003C0000B01C01A5241C3088B4201D3CB00C01AA3
:1003D000524183088B4201D38B00C01A5241D9D2BB
:1003E00043088B4201D34B00C01A5241411A00D23C
:1003F0000146634652415B10104601D34042002B38
:1004000000D54942704763465B1000D3404201B5B6
:10041000002000F005F802BD0029F8D016E770476B
:100420007047C046437802781B021A438378C0782D
:100430001B041343000618437047C046030A4B7061
:10044000030C8B70030E0870CB70704703005A7852
:100450000078120202439878197900040243D87890
:10046000000610435A7912020A43997909040A4393
:10047000D979090611437047030A5370030C93702E
:10048000030ED3700B0A53710B0C93710B0E10708B
:100490001171D3717047C046024A1368013313606B
:1004A0007047C04610030020C021074A074B084888
:1004B0005360036A09061B021B0A0B4303620023F5
:1004C000936007331360704710E000E0FE7C00008B
:1004D00000ED00E00E4AD3691B061B0F4370D9B232
:1004E000D3690C4A1B071B0F83700B4B1B684360BF
:1004F00093420BD102230370002901D101234370E1
:10050000064B9B8A01339B00836070470123F2E70F
:100510000000904041A000022800904000001040E0
:10052000F0B5070085B001AC0E0020001500FFF704
:10053000D1FF23783B7063783370A3782B7005B0BC
:10054000F0BD10B502F093FC10BD10B502F0AAFC8E
:1005500010BD10B502F07CFC10BD0078C0B2704731
:10056000024A138ADB07FCD57047C04600001040E2
:10057000084B10B51A68084B9A4209D13F22074B25
:1005800040061A81000C2E3A98611A80FFF7E8FFA6
:1005900010BDC04614000020CCBCECFC0000104094
:1005A000084B10B51A68084B9A4209D13F22074BF5
:1005B00080081A810C3A986119641A80FFF7D0FFFD
:1005C00010BDC04614000020CCBCECFC0000104064
:1005D0000379F7B50168002B30D18022D20553682A
:1005E0008B43536020258022002106686D42D2058E
:1005F00033000124CB4023420DD00379CCB20193C8
:10060000072924D80F238F00BB40D46A9C43019B49
:10061000BB401C43D462013104351A29E8D1802340
:100620004279DB05012A39D1DA683243DA6082790E
:10063000012A36D19A6816439E60F7BD062BD1D1A8
:10064000002380220371D20553680B43C9E72700BA
:10065000083F072F08D80F27019BAF40AB40146B12
:10066000BC4323431363D6E7103C072C0AD82F0062
:100670000F23203FBB40546B9C43019BBB401C435A
:100680005463C8E72F000F23403FBB40148F9C43A7
:10069000019BBB401C43A4B21487BCE7DA68B24399
:1006A000C4E79A68B2439A60C7E78023DB05012953
:1006B00001D1D86370471864FCE780234268DB05EA
:1006C0000168012A0FD11A690A431A6180238168DF
:1006D000DB050268012909D19969114399615969BA
:1006E0009143596170471A698A43EEE7002907D19F
:1006F000D24399691140996159690A405A61F1E7F9
:1007000059690A43FAE78023DB05DA69002902D038
:100710001043D86170478243DA61FBE78022D2053B
:10072000936A1843906270478023DB055B6A184028
:10073000431E9841C0B27047C02380221B0619781F
:1007400052420A437F211A701A780A401A70704781
:10075000C02301211B061A780A431A701A788A43AB
:100760001A707047C0231B0618688007C00F7047B7
:10077000024B1868431E9841C0B27047000400C085
:1007800030B50300012811D0022811D00120032B1D
:100790000BD1084A08000B0020301D685C1A043396
:1007A000A5508342F9D10020106230BD024AF1E722
:1007B000024AEFE7B40400C06C0400C0900400C01B
:1007C000030001280FD002280FD00120032B09D1EC
:1007D000074B1A00C91A20321878C85401339342C3
:1007E000FAD100207047034BF3E7034BF1E7C04613
:1007F000B40400C06C0400C0900400C0044B1A6A2A
:10080000012902D110431862704782431A62FBE744
:1008100000009040054B0122196B002802D00A43CA
:100820001A63704791431963FBE7C04600003040EC
:10083000F8B54A4C0500236B01681B0700D56DE035
:1008400009014748FFF778FCC3099AB2A284454AD8
:10085000DB0101301340C01A400880B23F2802D9A2
:100860003F233F381840032760263F4BC0B2187023
:100870003E4B2A7918783A405201B0431043187021
:1008800001206979227F39404901B2430A43227726
:10089000AA7919780240BA40073081431143197090
:1008A000217F81430A432277EA79002A38D1022145
:1008B0001A788A431A70227F8A43012022772A7A83
:1008C000216B1600C2402A4F064076023940314360
:1008D0002163216B274E0240314012020A432263FA
:1008E000697A226B0E00C140234F06403A40B6039E
:1008F00032432263226B214E01403240C90311432F
:100900002163AA7A197802400F3012018143114302
:100910001970237F83431A432277F8BDC90090E7FB
:10092000022A0CD1042019781143197019788143D7
:100930001970217F0A432277227F8243BDE702217B
:100940001A780A431A700422187810431870207F0E
:1009500001432177217F0A43AFE7C04600003040C2
:100960000000127A80FF7F00280030402C003040C9
:10097000FFFDFFFFFFFEFFFFFFBFFFFFFF7FFFFF4A
:10098000044B1A8F002902D0104318877047824306
:100990001A87FBE700003040024BC005C00D1880ED
:1009A0007047C04600003040014B1888C0B2704705
:1009B00000003040054B002805DA5B681840431EF4
:1009C0009841C0B270471B8BF8E7C046000030402A
:1009D000034B9B8F1840431E9841C0B27047C046DE
:1009E000000030400722024038200449D2000B7832
:1009F00083431800104308707047C04634003040ED
:100A0000F0B583780178002B33D040784AB280016A
:100A1000002A1BDA0F230B40083B1B4A9B089B0054
:100A20009B18FF22032517000D40ED00AF40024048
:100A3000AA40DE69BE433243DA611F224B091140EE
:100A40001E3A8A4011499B00CA50F0BDFF270F4B48
:100A500092089200D21803233C00C0250B40DB0013
:100A60009C4038409840AD005659A6433043505101
:100A7000E3E71F234A090B40012199401300034A71
:100A800020339B00D150E0E700ED00E000E100E002
:100A900010B5094C002801D0012805D000F07CF8E1
:100AA0000138C000205805E000F076F80138C00099
:100AB0002018406810BDC046E87A051070B50121C5
:100AC00086B006000920FFF799FE00F065F81C4B80
:100AD00001388000C3580024019300F05DF8194BE1
:100AE0000138800001ADC35828002B71AC716C71C6
:100AF000FFF76EFD00F050F8134B01388000C3582B
:100B0000019300F049F8114B01388000C3582800C8
:100B10002B71FFF75DFD0125032303A803714371CA
:100B200003728471C471447285720396FFF780FE6C
:100B30002000FFF757FF2800FFF76CFE06B070BDDE
:100B4000E47A0510E07A0510DC7A0510D87A0510F1
:100B5000042313B5040001A80370013B43708470A3
:100B6000FFF74EFF21001020FFF70AFF13BD10B55D
:100B700002F07DF910BD10B502F079F910BD10B585
:100B80000A00002102F08EF910BD00000122014B85
:100B90001A70704714030020014B1878C0B27047D8
:100BA0001403002010B50F4C01280AD0002801D0F2
:100BB00002280ED0FFF7F0FF431E0C2058432058A8
:100BC00006E0FFF7E9FF431E0C2058432018406859
:100BD00010BDFFF7E1FF431E0C205843201880682A
:100BE000F6E7C046F07A051010B5FFF7DBFF0121EC
:100BF000FFF75BFD10BD10B5FFF7D4FF0021FFF735
:100C000054FD10BD13B5012104000800FFF7F6FDE7
:100C10002000FFF7C7FF6A4606230090137168465D
:100C2000053B93715371FFF7D3FC2000FFF7E3FFFF
:100C300013BD10B509F094FF10BD10B509F0AAFB63
:100C400010BD10B509F060FE10BD7FB50BAE368843
:100C500008AC09AD2D88248803960A9E019502965A
:100C600000940AF06DF87FBD7FB508AC20CC0AAEC9
:100C70002478367801940296009509F0A3FF04B019
:100C800070BD10B502F066FF10BD10B50BF098FCFA
:100C900010BD01207047F0B58DB012AC24780993D7
:100CA0000A9413AC248818AB1B880B9415AD14ACB4
:100CB00016AE17AF24882D8836883F8806930B9B85
:100CC000059701930A9B0496009303950294099B50
:100CD00002F026F90DB0F0BD10B502F0DAF910BD42
:100CE00010B502F0EDFC10BD10B502F067FE10BDAE
:100CF00010B50DF0B9FE10BD10B50BF061FB10BDC5
:100D000010B50AF069FE10BD10B502F0F9FE10BD75
:100D100010B502F0FDFE10BD10B507F0B9FB10BD17
:100D200010B510F0D9FD10BD10B510F0BDFB10BD11
:100D300010B510F0CBFE10BD10B510F0DDFB10BDEE
:100D400010B50AF03BF910BD10B507F077F910BDEA
:100D500010B50AF051FB10BD10B50AF07FF910BDB7
:100D600010B50AF093FA10BD0120704710B506F0D7
:100D7000F5F910BD10B512F0B7FE10BD10B512F0A8
:100D800085FE10BD10B512F067FE10BD10B513F052
:100D900071F810BD0120704710B513F0C5F810BDF3
:100DA00010B513F0ABF810BD10B511F073FB10BD0A
:100DB00010B511F08FFB10BD10B511F01DFC10BD6A
:100DC00010B511F0E3FA10BD10B511F0FFFA10BD27
:100DD00010B511F025FB10BD10B511F091FB10BD41
:100DE00010B511F0AFFB10BD10B510F0BBFB10BD7E
:100DF00010B510F08AFB10BD10B510F091FE10BDBB
:100E000010B510F0A5FD10BD7047704770477047D2
:100E1000704770477047704770477047704770471A
:100E2000704770477047704770470000002210B548
:100E3000084B1A60084B1B7A934209D1074B1B8958
:100E4000052B05D9064B01321A70FFF752F9FEE760
:100E5000012010BD14000020000090400000104848
:100E60000C00002070B5FFF7E1FF012817D1002327
:100E700014481549154C1A188A4216D300231448F1
:100E80001449154C1A188A4213D30021134B144AE3
:100E9000934212D30021134B134A93420FD3134BA7
:100EA00083F3088801F0ACFC70BDE558043315608D
:100EB000E1E7E55804331560E4E702C3E8E702C35D
:100EC000EBE7C046342400209C24002058870510FE
:100ED00008000020340000202C870510C0000020EE
:100EE000CC020020CC02002034240020006000202E
:100EF000002210B5104B995CC9B2002917D11C2AE9
:100F000014DC022021249854501C1C54901C193CC1
:100F10001C54901D19549B18802290219BB25202A0
:100F20001343C905CB60CB681342FCD110BD995C5B
:100F300001315218D2B2DEE7150300200023F0B5CC
:100F4000144AD45CE4B2002C1ED1192B0FDC02250C
:100F50003B275E1CD55497555E199055DE1C955560
:100F600035261D1D56555D1D06335155D45402229C
:100F70003B24094B1A705C709870DA7033321A7126
:100F8000002259719A71F0BDD45C01341B19DBB297
:100F9000D7E7C046150300204803002070B58AB08B
:100FA00003AC05000E0019224449200001F05FFF48
:100FB0006846FFF78FFA002D62D04423404AA3739E
:100FC000117A433B0B4313724C23E3722C3B237285
:100FD00092336374573B23753A4B3B4A1B68190C99
:100FE000914208D17020E17D1B018143E175E17DD3
:100FF00003400B43E375354B1B68190C914208D134
:10100000302061791B0181436171617903400B4399
:1010100063712F4B1B68190C914207D10321E27DAC
:101020000B408A43E275E27D1343E3750422E37AC1
:1010300069469343E3726B465B78897893400B4330
:10104000112B08DDE37D1A43E275E07AE17DC0B241
:10105000C9B2FFF773FF802390222404240C5B02A3
:101060001C43D205D460D1681942FCD16B466A4654
:101070005B7892781B011343112B01DDFFF738FFDA
:10108000144B1A8B002AFCD001221A8316329A8143
:1010900000221A61964207D090231021DB051869BF
:1010A0001A6942400A42FBD0002D02D015220A4B99
:1010B0001A700A4A0A4B1A600AB070BDA07A05106D
:1010C00000002040E807001055AA0000E4070010C7
:1010D000B0070010000010480000C040CCBCECFC81
:1010E000140000200822C021F8B53F4B3F4D9A80E4
:1010F0003F4A0904136AFF202B400B43C0211362AF
:10110000136A09061B021B0A0B431362C0229200DA
:101110009446384B64469A58374E82433F380243D0
:1011200060461A501A58C0203240000202431A5139
:10113000C122FF2792009C58BC433F3F3C439C5038
:101140009C583F37344004439C509C582C409C5042
:101150009C582402240A0C439C500832944664464E
:101160009A58324002431A511A59C0242A40240482
:10117000224364461A511A591202120A0A431A519A
:10118000C4229200944664469A58324002431A514F
:101190001A59C0242A402404224364461A511A5979
:1011A0001202120A0A431A51C52292009C58BC43EB
:1011B0002700C0242743C0249F509F5824043E404A
:1011C00030439850985805402C439C509858000242
:1011D000000A0143995001210800FFF7DFFE074A8A
:1011E000074B1A6262B6F8BD00001040FFFF00FF17
:1011F00000ED00E000E100E0FF00FFFF66000E00F0
:10120000000090402A23F0B58BB006AC23709B33CE
:101210006370D523A370A523E37000236371B433F7
:10122000A3719A23E371E1232372112363723A239A
:10123000A372CF23E372802323736E23022563738B
:101240003623764E102221003000A3732571E573FA
:10125000FFF777F9724A734B31001B782800009230
:10126000012201F050FF071E06D002206E4900F057
:10127000DBFA47200BB0F0BD2B2323709A33637049
:10128000D523A370A523E370B423A3719A23E3713C
:10129000E1232372112363723A23A372CF23E372F3
:1012A000802323736E2363733623604E6071102294
:1012B00021003000A3732571E573FFF742F9584B05
:1012C000320018885A4B0497059310230297039312
:1012D000019700950F3B290001F0F6FE071EC4D1CF
:1012E0002C23237099336370D523A370A523E37057
:1012F000B423A3719A23E371E12323721123637250
:101300003A23A372CF23E372802323736E23637384
:1013100036236071102221003000A3732571E5731C
:10132000FFF70FF93E4B32001888424B04970593A4
:10133000102302970393019700950C3B290001F0BD
:10134000C3FE071E00D090E72D23237098336370EF
:10135000D523A370A523E370B423A3719A23E3716B
:10136000E1232372112363723A23A372CF23E37222
:10137000802323736E236373362360711022210050
:101380003000A3732571E573FFF7DBF8244B3200BF
:101390001888294B0497059310230297039301970C
:1013A00000950F3B290001F08FFE071E00D05CE77F
:1013B0002E23237097336370D523A370A523E37086
:1013C000B423A3719A23E371E1232372112363727F
:1013D0003A23A372CF23E372802323736E236373B4
:1013E00036236071102221003000A3732571E5734C
:1013F000FFF7A7F80A4B32001888104B04970593A3
:10140000102302970393019700950F3B290001F0E9
:101410005BFE002800D028E72CE7C046F00800203B
:10142000B204002085240020297B0510B804002088
:10143000C8080020CC080020B604002000090020C5
:101440001A23F0B58BB006AC2370BB33A370A52371
:10145000E37000236371B433A3719A23E371E12332
:101460002372112363723A23A372CF23E372802382
:1014700023736E2302256373C5273623284E10225B
:1014800021003000A37367702571E573FFF759F8E9
:10149000244A254B31005B7828000092012201F09C
:1014A00032FE061E06D00220204900F0BDF947207A
:1014B0000BB0F0BD1B232370BA33A370A523E370D8
:1014C000B423A3719A23E371E1232372112363727E
:1014D0003A23A372CF23E372802323736E236373B3
:1014E00036236770124F6071102221003800A373F9
:1014F0002571E573FFF725F80A4B3A0018880D4B64
:1015000004960593102303930F3B02931D3300931E
:1015100001960B3B290001F0D7FD0028C3D1C7E796
:10152000F00800205803002085240020FC7A0510D4
:10153000B8040020CA0400203A23F0B58BB006ACF2
:101540002370C5236370D523A370A523E370002304
:101550006371B433A3719A23E371E12323721123DE
:1015600063723A23A372CF23E372802323736E2323
:101570000225637336235F4E102221003000A373CF
:101580002571E573FEF7DDFF5B4A5C4B31009B780C
:1015900028000092012201F0B6FD061E06D00220AE
:1015A000574900F041F947200BB0F0BD3B232370B1
:1015B0008A336370D523A370A523E370B423A3718A
:1015C0009A23E371E1232372112363723A23A372F6
:1015D000CF23E372802323736E2363733623494F33
:1015E0006071102221003800A3732571E573FEF7A6
:1015F000A8FF414B3A001888434B049605931023EB
:1016000003930F3B02931D330196009329000B3B7C
:1016100001F05AFD061EC2D13C232370893363704A
:10162000D523A370A523E370B423A3719A23E37198
:10163000E1232372112363723A23A372CF23E3724F
:10164000802323736E23637336236071102221007D
:101650003800A3732571E573FEF773FF264B3A003C
:1016600018882A4B04960593102303930F3B02938B
:101670000D33019600932900053301F025FD061E68
:1016800000D08CE73D23237088336370D523A3708B
:10169000A523E370B423A3719A23E371E12323729A
:1016A000112363723A23A372CF23E372802323733F
:1016B0006E23637336236071102221003800A373F8
:1016C0002571E573FEF73DFF0B4B3A001888104B70
:1016D00004960593102303930F3B02930D3300935D
:1016E00001960633290001F0EFFC002800D056E7F0
:1016F0005AE7C046F0080020D008002085240020CA
:10170000117B0510B8040020CA0800202404002022
:101710002C0400207FB500221D4B1E4D03AC198800
:10172000227028880123009401F026FD1A49061E24
:1017300028D11A49200001F0BDFB194B28881988CF
:1017400032000094042301F017FD1649021E19D13E
:10175000154B28881B782370144B1988009401239B
:1017600001F00AFD1249021E0CD1124B28881B7889
:101770002370114B19880094012301F0FDFC00280F
:1017800004D00E49022000F04FF8472004B070BD8D
:10179000C8080020B20400203F7B0510697B0510BB
:1017A000CC0800206E7B0510C8040020B604002081
:1017B0009D7B0510D208002000090020CC7B05107D
:1017C0000023074A1360074A1370074A1370074B38
:1017D000074A5A60074A9A60074ADA607047C0466B
:1017E00028040020B0040020B404002030040020AD
:1017F000FE7B05100D7C05101D7C0510074B01209C
:101800001B68002B08D1064B1B78002B04D1054B1D
:101810001878431E9841C0B27047C0462804002083
:10182000B0040020B404002010B50C00074B800069
:10183000C05800F053F8064800F050F8200000F0BF
:101840004DF8044800F04AF810BDC04630040020AE
:10185000A27C05105583051030B51A498DB00400DF
:10186000FEF760FC002809D1174800F0A8FF1748D0
:1018700000F0A5FF164800F0A2FF1EE01549200069
:10188000FEF750FC00281AD10122694604AB1A70F9
:1018900063325A70613A1A7240325A72BC329A728A
:1018A000EF3ADA7208AA31CA31C112680A600498A4
:1018B0000599069A079B01F06DF80DB030BD0648FA
:1018C000D6E7C0462D7C0510357C0510697B0510D8
:1018D000558305104F7C0510567C051010B500F09F
:1018E0006EFF10BDF7B50500134800F068FF052432
:1018F0000F262B5D1A0911003731092A01D8303221
:10190000110033401A0001A801703732092B01D8A9
:1019100030331A00002342708370671E00F04FFFBF
:10192000002C05D0054800F04AFF3C007B1CE0D1AC
:10193000034800F044FFF7BD9B7C0510A17C051017
:1019400055830510F0B50E0085B001AF04000B22E1
:101950001149380001F08BFA3500002C03DA2D23F1
:10196000751C3370644220000A210135FEF76EFCBD
:101970000028F9D1287020000A21FEF74DFD7B5C7C
:10198000013D20002B700A21FEF760FC041EF2D1FD
:10199000300005B0F0BDC046687C05101FB501A938
:1019A000FFF7D0FF01A800F00AFF05B000BD00005E
:1019B00070B50400144800F002FF144800F0FFFE68
:1019C0002078FFF7EBFF124800F0F9FE6078FFF790
:1019D000E5FF104800F0F3FE6068FFF7DFFF0E48F8
:1019E00000F0EDFE0025237A9D4203DB0B4800F05A
:1019F000E6FE70BD0A4800F0E2FE6319587AFFF770
:101A0000CDFF0135EFE7C046737C05107C7C0510E7
:101A1000817C0510867C05108D7C0510977C051057
:101A20009383051070B50500114800F0C8FE1148F9
:101A300000F0C5FE2878FFF7B1FF0F4800F0BFFEA9
:101A40006878FFF7ABFF0D4800F0B9FE0024AB78D3
:101A50009C4203DB0A4800F0B2FE70BD094800F06A
:101A6000AEFE2B19D878FFF799FF0134EFE7C04697
:101A7000A57C0510AE7C0510B47C0510C07C05105B
:101A8000987C05109383051010B5FFF77FF80020B0
:101A9000FFF7B8F80120FFF7B5F80220FFF7B2F81A
:101AA0000020FFF7A8F80120FFF7A5F80220FFF7B4
:101AB000A2F8E1204002FFF701F80120FFF748F803
:101AC0000148FFF70BFF10BDCA7C0510012130B59E
:101AD000080087B0FEF792FE0020FEF7D9FF002431
:101AE00001AB019018001C719C715C71FEF770FDD8
:101AF0006B466A4601251C70032368465370957037
:101B0000FEF77EFF2000FEF7C3FF039003A80494B6
:101B10000595FEF7D2FD2000FEF7BAFFFEF7FEFDA9
:101B20002000FEF7B5FF2900FEF7EDFD07B030BD40
:101B300070B5434A86B00621002001F04EFB002814
:101B400003D040490220FFF76FFE0421012001F07D
:101B500040FB01F00DFB3C49041E25D13B4B3C4DA5
:101B60003C4E0193010000962B001022052001F04D
:101B700004FA041E09D002203749FFF755FE200061
:101B8000FFF70CFF200006B070BD32881026334BE3
:101B900029880393029601900096030001F0F6FA5B
:101BA0000400051E04D02E490220FFF73DFEE9E7A0
:101BB0002C4B012103930723049002900093020011
:101BC00003000196080001F0F1F92749041EEBD14A
:101BD0002648FFF783FEFFF715FB041E08D12448B3
:101BE000FFF77CFEFFF72CFC041E03D02149DBE746
:101BF0002149D9E72148FFF771FEFFF79DFC041E3C
:101C000001D01F49D0E71F48FFF768FE1E4B1C7824
:101C1000002CB7D01D4800F0B7FC8021C9012B0073
:101C20002A000800FFF758F8041E05D018490220C2
:101C3000FFF7FAFD2C00A5E71648FFF74FFEA1E7D6
:101C40008F2400207280051095800510B0160020AA
:101C50004E180020B8160020AC800510581800203F
:101C6000C280051040E20100EA8005101A810510CB
:101C70003E8105109C8105105F8105107C81051057
:101C8000DB810510B8810510B416002089240020DE
:101C9000FA8105102882051010B51148FFF71EFEC5
:101CA0001048FFF71FFE104801F0E0FA002806D0A8
:101CB0000E490220FFF7B8FD01220D4B1A70FFF705
:101CC00037FF002807D00B490220FFF7ADFD0122A6
:101CD000074B1A7010BD0848FFF700FEFAE7C04630
:101CE000727E05108F240020E87C05108B7E051085
:101CF000B4040020B37E0510C97E0510092330B559
:101D000001248FB009AD134A2B70631ED35C2B5591
:101D10000134112CF9D10021080005F0B7FB002097
:101D2000F022C8210690059004900390029501943A
:101D300000900300D200C90001F080F9002805D00E
:101D400005490220FFF770FD0FB030BD0348FFF7D3
:101D5000C5FDF9E758180020B27F0510D47F0510A3
:101D600010B501F08CF9041E05D005490220FFF7DB
:101D70005BFD200010BD0348FFF7B0FDF9E7C0464A
:101D8000FC7F051022800510FA2210B5D20088B021
:101D90002821069205923C22029101918021049211
:101DA0000022C9010300039200920800FEF773FFAE
:101DB000041E06D00D490220FFF736FD200008B0B2
:101DC00010BD0B48FFF78AFD0A4C0B4B1B68002B1C
:101DD00007D1002C01D1FF34F0E701F003FA013CF8
:101DE000F3E763425C416442E4B2E7E7E87E051052
:101DF000097F0510A08601003803002070B50C4D46
:101E000047242B68002B11D00A4B1321188880B26D
:101E100001F043F9041E06D007490220FFF704FD34
:101E200004E001F0DFF92B68002BFAD1200070BD2F
:101E3000380300203C0300204E800510F0B505005B
:101E40008DB0394803911700FFF748FD374E3368CE
:101E5000002B56D03648FFF741FD364C3368002B37
:101E600008D0002C02D1FFF7C9FF05E001F0BAF954
:101E7000013CF3E7002CF6D02800FFF785FF00288F
:101E800048D110222C4904AD08A800F0F0FF102220
:101E900008A92800FEF755FB2848FFF71FFD284C2E
:101EA00002232088274A80B20095012101F04CF9D5
:101EB000254B1A88002A27D000221A8020881988EA
:101EC00080B2013189B23B00039A01F07EF9041E11
:101ED00009D01E490220FFF7A7FC2000FFF75EFD96
:101EE0001B48FFF7FBFC1B4B1A78002A0FD000227F
:101EF0001A70FFF783FF1848FFF7F0FC00200DB0C1
:101F0000F0BDFFF72DFFB7E701F06CF9D0E701F066
:101F100069F9E8E7FFF7F2FE10490220FFF784FCB9
:101F20002800FFF7DFFCE6E71F7F051038030020DD
:101F3000327F0510A0860100B97A05104D7F05108B
:101F40003C030020FFFF000040030020577F0510E6
:101F5000558305103E0300209A7F05107C7F0510F5
:101F600010B50248FFF7BAFC10BDC046287D051029
:101F700010B50248FFF7B2FC10BDC0461C7D05102D
:101F800001220A4B10B51A60094B0A481980FFF765
:101F9000A5FC0298FFF7A6FC0023074A0299C95C3A
:101FA000D1540133062BF9D110BDC04638030020AF
:101FB0003C030020627E0510E4080020002301217C
:101FC000054A10B51360054A05481170054A13808B
:101FD000FFF784FC10BDC046380300208824002091
:101FE000297E05103C03002010B504000348FFF7CC
:101FF00075FC200001F0A2F810BDC046087E051057
:10200000F7B50400074816001F000D00FFF766FC37
:1020100000230197009629001A00200001F0C7F85C
:10202000F7BDC046117E0510F0B550488FB01D00B9
:102030000F00149CFFF752FC4D4B1B8801339F424D
:1020400011D121782200132909D91321012000F090
:1020500011FE48490120FFF7E7FB0FB0F0BD01205A
:1020600000F008FEF9E7444B1B8801339F4260D122
:1020700023786778059306AD092B27D0E278A378FB
:1020800012021A4323791B041A4363791B06134374
:102090006B60A679132E04D936490120FFF7C4FBE3
:1020A00013260023354AB3423EDB6B466A461B7D4E
:1020B0006F702B702E720AAB13CB13C21B680435E2
:1020C000136006980ECD00F065FCC6E700236B6038
:1020D000012F0CD1A2782A4B1A70E278294B1A7082
:1020E0002279294B1A706279284B1A70D1E7022F96
:1020F00016D1A279637912021A43E379667A1B0436
:102100001A43237A1B061343214A1360A2781C4BFF
:102110001A70E2781F4B1A7022791F4B1A70B9E7B8
:10212000032FB7D1A678B5E7D05CE9184872013320
:10213000B9E71A4B1B8801339F4208D100230F4A8D
:10214000AB4200DB89E7E15CD1540133F8E7144B83
:102150001B8801339F4200D07FE70023114AAB4226
:1021600000DB7AE7E15CD1540133F8E7577D0510D5
:10217000CA040020697D05102C0400209C16002054
:10218000501800204D180020B2160020B316002071
:1021900054180020B5160020B6160020CA080020EA
:1021A00024040020BA16002010B50C1E0CD00A49D9
:1021B0000220FFF739FB0948FFF790FB2000FFF7EB
:1021C000EDFB0748FFF78AFB0648FFF787FB012274
:1021D000054B1A7010BDC046CA7D0510E97D05107B
:1021E00055830510F67D05103E030020F8B5150057
:1021F0001E000E480F00FFF771FB0D48FFF76EFB46
:102200002800FFF7CBFB3400A31B9D4205DC0948E7
:10221000FFF764FB084B1F80F8BD0848FFF75EFB23
:102220002078FFF7BBFB0134EEE7C0467E7D05104A
:10223000BD7D0510558305104003002093830510D4
:1022400010B50248FFF74AFB10BDC0461B7E0510C3
:10225000F7B514240E000D0044430C19A54200D11B
:10226000F7BD2B78002B17D1B11C06226846FEF76C
:1022700068F90A48FFF732FB6846FFF733FB084F5F
:102280006846390000F09EF9002805D00548FFF7A0
:1022900025FB380000F078F91435DFE7377E0510AC
:1022A000892400203E7E051070B586B0022841D1F9
:1022B0002148FFF713FB21490622103104A800F042
:1022C000D6FD1F4D04A8290000F07CF9041E31D171
:1022D0001C48FFF703FB2800FFF704FB1A4E2B5D99
:1022E00033550134062CFAD100F00AF932002100EE
:1022F000002000F072FF002803D014490220FFF7ED
:1023000093FA134B00201A88124B1988124B019034
:102310000393102302930093030000F037FF00287B
:1023200003D00E490220FFF77FFA00F0C3F8002225
:102330000B4B1A7006B070BD377D0510B97A0510C9
:1023400089240020467D05108F240020728005100E
:10235000B81600204E18002058180020C280051022
:10236000B416002010B51448FEF7F7F8134B187098
:102370001348FEF7F2F8134B18701348FEF7EDF808
:10238000124B134A1870134BFF211360002312489D
:10239000890004338B420AD10023104910481A1DCA
:1023A000A42A06D100F02CF9FFF776FC10BDD0501E
:1023B000EFE7C8501300F2E780EF0710D2080020C3
:1023C00081EF0710C804002082EF0710CE0800201C
:1023D000CC040020EC080020280400208403002006
:1023E000B0040020024B8000C15000207047C0465E
:1023F000CC040020024B8000C15000207047C04632
:1024000084030020044B8000C3581868034B1B68EA
:10241000984200D102487047CC04002028040020D4
:10242000FFFF0000F8B51B4E3378282B04D9FF229C
:10243000194B1A70282333700127184C2000FEF71F
:102440008CF8174D8000435901341F60154B7F00F5
:102450009C42F3D10E24144BE018FEF77EF8800066
:102460002B581C6001341E2CF5D1002533789D4279
:1024700000DBF8BD0D4BEC1864002000FEF76DF892
:102480000700601CFEF769F8094BBF00FB580135D7
:102490001870EBE7CE080020B004002090EF071082
:1024A000CC0400209EEF071092EF0710D8F7030826
:1024B00084030020002337B50D4968465A5C1A543E
:1024C0000133062BF9D10B4B00990B48DC799D7930
:1024D000FEF766F86B462D0421061C79294321433B
:1024E0005C79064824022143FEF75AF837BDC046FE
:1024F0008F240020CD16002080BA071084BA071060
:102500006223F7B51C4C1D4E23700A336370043BE5
:10251000A37001AD0633E3703078063329002371D0
:10252000FFF710FA32782B78092A21D8302262710D
:10253000A371752302220F26E37111490C3B114D43
:102540002372535D180907003737092801D8303046
:102550000700334018000F703730092B01D8303393
:10256000180048700231013AEBD26423E373F7BDDF
:1025700063716B78DCE7C04658180020D208002051
:10258000611800208F24002013B50400684604F071
:10259000F5FE002803D00A490220FFF745F96B46F3
:1025A0001B7823706B46DB7863706B469B79A37056
:1025B000E123E370613B23717E3B637113BDC04631
:1025C0005C82051010B50A7804780023944215D176
:1025D00044784A78944211D184788A7894420DD113
:1025E000C478CA78944209D104790A79944205D111
:1025F000437948791B1A58424341DBB2180010BD99
:1026000073B5002358212A4AD1540133102BFBD132
:10261000284C2000FDF7A1FF274D284B6619F31821
:102620001870601CFDF799FF254BF3181870A01C5B
:10263000FDF793FF234BF3181870E01CFDF78DFF97
:10264000214BF3181870201DFDF787FF1F4BF3185F
:102650001870601DFDF781FF1D4B0634F6181D4BE9
:1026600030709C42D5D106221B49684600F0FFFB22
:1026700069462800FFF7A6FF184A00280FD000235C
:102680001748195CD1540133062BFAD10122154B9E
:1026900015481A70FFF722F9FFF732FF73BD2B5C64
:1026A000135401300628FAD100220E4B1A70F3E7BA
:1026B0005818002080BA0710CD1600208045F8EF8A
:1026C0008145F8EF8245F8EF8345F8EF8445F8EF50
:1026D0008545F8EF00BC0710CF7A05108F24002045
:1026E00095240020B416002089820510F8B5050055
:1026F00000240626094F310061432800C919FFF75D
:1027000061FF002801D0E0B2F8BD0134402CF2D1C5
:1027100002200349FFF788F8FF20F5E7CD160020D7
:102720007B820510402807D900230B704B708B70FB
:10273000CB700B714B71704706225043064BC25C45
:1027400018180A7043784B7083788B70C378CB70FD
:1027500003790B714379EDE7CD16002010B51020F9
:10276000FEF736F9002400280AD104000C4A0D496E
:102770001378CC540133137011E0FEF715F9C4B28D
:102780001020FEF717F90028F7D00D2CEED100220B
:10279000034B044819781A704254FFF75DF810BDD6
:1027A0000C1600203816002010B504002020FEF77B
:1027B00001F90128FAD0A0B2FEF7EEF810BD10B56D
:1027C00004002078002800D110BDFFF7EDFF013490
:1027D000F7E7000070B5084C2378002B06D0074BB4
:1027E0001D78002D02D1FFF789FA257000F09EF9BF
:1027F00000F070F970BDC04688240020B416002097
:1028000010B5FEF76FFCFFF73FF9FFF75FF9FDF733
:102810004BFEFEF7D5FFFFF7A5FD00F07FF900F0B6
:10282000B1FAFFF7FFFDFEF775FFFEF7E7FF00289F
:1028300002D10230FEF7D8F900F0D4FCFFF7CAFF4E
:10284000FAE7000010B502490320FEF7EDFF10BDC6
:10285000E982051010B503200249FEF7E5FFFF20CD
:1028600010BDC0460583051010B503200249FEF7D0
:10287000DBFFFF2010BDC0466F83051010B5132885
:1028800005D903200449FEF7CFFFFF2010BD034BFD
:102890001B6818188078F9E7208305106C23002046
:1028A000F8B5134C2000FDF758FE124E124BA51937
:1028B000EB181870601CFDF750FE104B2700EB184A
:1028C0001870A01CFDF749FE0D4B1637ED18287047
:1028D000E51C2800FDF741FE074BEB18F318013506
:1028E0009871BD42F5D1074B20349C42DAD1F8BD36
:1028F00080E4071008090020801BF8EF811BF8EF27
:10290000881BF8EF80EC07100023144A10B5136001
:10291000134A18001370134A134C1370802252008C
:102920001919203308709342FAD1104B104A1148FC
:1029300013600123104C9900132B0DDC545001330C
:10294000FF2BF8D100230D4A0D49D1500433282B19
:10295000FBD1FFF7A5FF10BD5050F0E70815002090
:1029600004090020041500200C150020692804101B
:1029700008110020552804107D280410101600208E
:1029800045280410024B8000C15000207047C0460B
:102990001016002084B070B5274D07932B78274C74
:1029A0005B011E5D049005910692002E07D024491C
:1029B0000120FEF739FF70BC08BC04B0184721485D
:1029C000FEF78CFF2048FEF789FF04AB1878FEF76E
:1029D000E5FF1E48FEF782FF04AB5878FEF7DEFFE6
:1029E0001B48FEF77BFF1B48FEF778FF04AB1B7A02
:1029F0009E4216DB1848FEF771FF2B7804AA5B0194
:102A0000E31813CA13C313CA13C303CA03C32B782F
:102A10000133DBB22B702B78072BCCD900232B7022
:102A2000C9E704AB9B19587AFEF7B8FF0B48FEF7CD
:102A300055FF0136DAE7C046040900200C150020D6
:102A4000AE820510C3820510AE7C0510D38205103E
:102A5000DF820510C87C0510987C05109383051053
:102A600070B50500002401262B7AA34200D870BD62
:102A70003300A3406A681A4206D0054BA200D3581F
:102A8000200098472B1958720134E4B2ECE7C04695
:102A90000811002010B504000B48FEF71FFF2000AE
:102AA000FEF786FF2000FFF7DBFF2378092B05D810
:102AB000064A9B009B582000984710BD04490320FC
:102AC000FEF7B2FEF9E7C046458305101016002058
:102AD0005783051070B50E4C0E4D23785B01585D81
:102AE000002813D020780C4B400140191860FFF7E4
:102AF000D1FF0022237801205B015A55237801334E
:102B0000DBB223702378072B00D9227070BDC0463A
:102B1000041500200C1500200815002010B5FFF743
:102B2000F3FE00F09DF800F04DF810BD0020704756
:102B3000F8B51C4C2000FDF710FD1B4E1B4BA519D2
:102B4000EB181870601CFDF708FD194B2700EB18F7
:102B50001870A01CFDF701FD164B1737EB18187005
:102B6000E01CFDF7FAFC144BED182870251D280019
:102B7000FDF7F3FC0D4BEB180135F054BD42F6D1D7
:102B8000250027001C352F372800FDF7E6FC0B4BEE
:102B9000EB180135F054BD42F6D1094B2C349C4260
:102BA000C8D1F8BD80C4071068180020803BF8EF3A
:102BB000813BF8EF823BF8EF833BF8EF7C3BF8EF8B
:102BC00080CF071010B5FFF7B3FF00231900064AA6
:102BD00006481360064A1370064A13701A18173312
:102BE0001170B82BFAD110BD6C2300207023002087
:102BF000682300206923002084B0F8B51727144CFF
:102C000009932378134E7B439D5D069007910892AC
:102C1000002D07D010490120FEF706FEF8BC08BCC5
:102C200004B018470D48FEF759FE06A8FEF7FAFE55
:102C300020783A00784306A9301800F018F9237874
:102C40000133DBB223702378072BE7D92570E5E742
:102C5000682300207023002095830510AA830510A7
:102C600070470000024B8000C15000207047C046F2
:102C70005C03002070B504000D0016000448FEF748
:102C80002DFE044BA40031002800E358984770BD86
:102C9000BA8305105C03002010B505F065FA10BD7D
:102CA00010B5FDF7F9FB10BD10B5FFF757FD10BDCE
:102CB00070B50024E6B23000FFF7A4FB094B050015
:102CC00098420BD0FDF730FD012807D12800FDF711
:102CD00025FD002230001100FFF7CCFF01340A2C43
:102CE000E8D170BDFFFF000070B5050088B0114845
:102CF0000E00FEF7F3FD012302AC0F482370FFF72F
:102D0000F5FC00236070AB420FDB6B46A5700699A3
:102D100006AA009191880434998092799A71029858
:102D20000ECCFFF769FF08B070BDF15CE218D170FE
:102D30000133E8E7DD830510E408002013B5040043
:102D40000748FEF7CBFD60786946FFF7EBFC2200F1
:102D5000044B09321B88217A6846FFF76FF813BDD0
:102D6000CB830510CA04002010B504490120FFF7E9
:102D700079FF03490120FFF705FE10BDE92C04107F
:102D80003D2D041010B5FFF7EFFF00F033F800F011
:102D90004FF800F011F810BD10B50248FEF79EFD87
:102DA00010BDC046FC83051010B50248FEF796FD25
:102DB00010BDC046EF83051010B504490920FFF788
:102DC00051FF03490920FFF7DDFD10BD992D0410C7
:102DD000A92D041010B50248FEF780FD10BDC046B5
:102DE0001584051010B50248FEF778FD10BDC046E9
:102DF0000984051010B5094B094902200B60FFF743
:102E0000F1FA08490220FFF7F5FA07490220FFF717
:102E100029FF06490220FFF7B5FD10BDFFFF0000A6
:102E20002824002030240020D52D0410E52D041086
:102E300010B50349034B05200B60FFF7D3FA10BD13
:102E40002C240020FFFF000010B500F019F810BD81
:102E500030B50024A24201D1002005E0035D651CCD
:102E60000C5DA34201D0181B30BD2C00F2E70023FB
:102E700010B59A4200D110BDCC5CC4540133F8E7C0
:102E800010B5884202D98B18984208D300239A4281
:102E900007D0CC5CC4540133F9E78B5C8354013A0E
:102EA000FBD210BD03008218934200D17047197005
:102EB0000133F9E7031C0A7801311A700133002A43
:102EC000F9D17047F0B5054600200F46079E059CD6
:102ED000174309D0202905D30127BF03BA4201D8DF
:102EE000914201D94220F0BD194621430AD09C42AB
:102EF000F8D309498C4203D00849A41F8C42F1D26F
:102F0000062BEFD3002D03D0022D01D0032DE9D1E4
:102F1000032EE7D8F0BD0000FFFF00007B0C00008F
:102F2000FFB58DB0144618AAECCA04976F466CC75B
:102F30000A46014605A8179B04F0B4FA00280AD1F6
:102F400008A84471012C08D0002C06D0022C04D013
:102F5000032C02D0422011B0F0BD09A80622023095
:102F60001099FDF7EEFA08A916980873C0B2032865
:102F7000F0D805A800F072FBEDE77CB5069D079C34
:102F8000002805D0860705D1460703D4060701D4DB
:102F900042207CBD002903D0012901D00229F7D1AC
:102FA0000095019400F0B0FB7CBD0000FFB58DB032
:102FB000179F169D1446060004D0012E02D0422011
:102FC00011B0F0BD0E98002801D00128F7D1E81FFC
:102FD0000A28F4D2102FF2D8AF42F0D31898002864
:102FE00001D00128EBD1144919988842E7D81A98E2
:102FF000002801D00128E2D1FDF7CCFE012804D041
:103000001098204306D01120DAE7022CD7D8109868
:103010000128D4D8684686700E99C170047310993F
:103020004173057147711899C171199802906846EA
:103030001A990FF053FEC3E73F420F00FFB587B068
:10304000109D159E169C01930295009407A807C831
:103050001F463346FFF736FF00280ED11398149908
:1030600003AA069443C21198129901900095029107
:1030700007A807C83B4600F0D7FC0BB0F0BD10B561
:1030800000F0EEFC040002D101200BF0C1FA204652
:1030900010BD10B500F0FAFC10BD10B50BF048FBE8
:1030A00010BD70B51C4613460D46012C03D0022CF2
:1030B00003D0422070BD022200E010221946FDF725
:1030C00040FA2C70002070BDF0B587B01C460B464E
:1030D000054600A9023101A80C9F0D9EFFF7E1FFF4
:1030E00000280ED16846058084828775C6750E99C2
:1030F00001760F994176109981766946119802F010
:1031000087F807B0F0BD70B586B014461D460A4674
:1031100003466946881C0A9EFFF7C3FF002804D1B6
:10312000012C04D0022C02D0422006B070BD2346F0
:103130002A466946304602F0B1FAF6E710B5002299
:10314000114602F05BFB10BD70B586B00D4614460B
:1031500006466946881C0A9AFFF7A3FF002805D196
:103160006B4622462946304600F09CFF06B070BDF3
:1031700010B502F06DFE10BD38B56D46049C2A8076
:103180006B8023466A4603F007F938BDF0B585B079
:1031900084460AA8F0C868468581C68103A80190C4
:1031A00002970094604603F02BF905B0F0BDFEB520
:1031B0006C46099E089D2080618022716371E580C4
:1031C0006846029602F092FBFEBD10B501F05EFA71
:1031D00010BD10B503F044FE10BD10B503F062FE43
:1031E00010BD000010B504F091FA1E4C4721206874
:1031F00049014118097A002909D1A0300079C00796
:1032000029D004F00BF803F061FF10F0D1FE00F0BC
:1032100003F92068014640310A78C9798A4319D1F7
:103220003E21095C002915D10F490A88120711D5E2
:103230000922D2061269497A836AC90059180923FA
:103240001B02C018406D801A00020012814201DA90
:103250000CF084FE10BD00F0C7FB02F093FC0DF0F3
:103260000FFED0E780240020C000002010B5837F2F
:103270000122002492024168082B03D94224914282
:1032800002D310E0914201D242240CE001463422E4
:103290000648FDF756F900F07FF8002801DA4824C7
:1032A00001E000F029F9204610BD0000DC020020FA
:1032B0003EB5174D15482968827F0846A0310A732C
:1032C00000246030047644768476E122C27680223F
:1032D000027702224277302008704C7002AA01A9BE
:1032E0006846FDF71DF968460078A222010168468C
:1032F000007A891C000201436846007900030143FB
:1033000028681152A03004713EBD0000DC0200208C
:103310008024002070B504F0DDF90CF0D3F80AF039
:1033200083FD11F059FC04F0ABFB184C18492068E0
:10333000184D4018811001202A68C00210188166BB
:1033400061688908C166A168890801670FF054FCAB
:103350001D2029688001228B08180287628B428712
:10336000A28B4286628C82862046203002783B20E7
:103370004001081882750021017000F0C3FA03F0C3
:10338000B3FE03F03BFE10F099FE70BDDC0200209E
:103390000000FCEF8024002070B50025ED43FDF710
:1033A000E3FC01282ED0002318490322888BFF2438
:1033B000401E10438A7F4D3462438218088B2824B4
:1033C00060431218488B302460431218084620309E
:1033D00040782C24604310180D4A18188418486946
:1033E000A0420DD10B4884420AD90D69FDF7BCFCFF
:1033F000C1B2284609F076F909F0A4FA401B251A53
:10340000284670BDFF23B533CEE70000DC02002064
:1034100035190000540A0000F8B52C4F3C68206EA6
:103420005C34401C002814D0002529480023C07BB0
:1034300000283ED00926F6062648002D1CD0002183
:103440000A460B464169521C994204D1002902D018
:1034500004E00125E9E7204B9A42F2D3216000699C
:1034600060603069A1680002090E000A0906014384
:10347000A16000F033F81DE03169A2680902090A71
:10348000150E08D0018BC90712D04169216000696F
:103490006060E37210E0881A00027D2300121B03B3
:1034A000984205DD100E00060843A06000F016F8F3
:1034B000F8BD6360002DFBD003CC0CF079FCFA2042
:1034C0000CF066FC39688862F8BD0000802400209A
:1034D000FC0200200000104888130000044900206E
:1034E00008610448012100686030C1717047000024
:1034F0000000104880240020F8B5062637484025F3
:103500000560374800270780A9050920C0064160EB
:10351000344A91600168016033490C694A690321AA
:10352000601E08430021401CFDF70FF8FDF71CFC4E
:10353000C1B2204609F0D6F809F004FA09F00EFAF3
:10354000FDF7EAFB294917208881294CFA222068D7
:103550000146403047708A6228210170FDF799FBCF
:10356000012805D1206810224030017811430170F4
:10357000FDF710FC012805D1206880224030017839
:10358000114301702068A421095CC90704D00146D9
:1035900040310A782A4303E0014640310A78324339
:1035A0000A700021C9430166FDF7C6F8FFF780FEE7
:1035B000FFF7B0FE20680121203001770721417715
:1035C000012003F04DFC06F00FFEFFF725FF034836
:1035D0008038056002210160F8BD000080E100E054
:1035E000C000002040000048DC020020000010481D
:1035F0008024002038B5184A14682246BA32AE3406
:10360000A378DD0701D001290AD05B070CD5012979
:103610000AD0217949070BD5E17A002905D007E0C6
:10362000E07880210843E07038BD0121E1725080CC
:1036300020794106090FF7D07821084069460870C3
:10364000002048706A460221422000F0B9FB207930
:1036500087210840207138BD80240020F8B5054638
:10366000002768460770154846260468AE3420795E
:103670008006800F03D00021084608F06FF8A0787C
:10368000400718D520794C21084214D10023287E08
:103690006A4619460AF030FE00280DD168460078C7
:1036A00028762F74284607F021FF060003D12079E1
:1036B0004021084320713046F8BD000080240020DE
:1036C00038B51048002104680846AE3408F046F8C2
:1036D000694648702079C10704D001216A461170FB
:1036E00088432071C0B2810705D502216A46117056
:1036F000FD210840207102216A46084600F060FB67
:1037000038BD000080240020FFB50C4678A103C915
:1037100095B001910090002108A801730321C9020E
:1037200068464186012108A8734E01743568174622
:10373000AE3513F0B5FA002808D17049306840184A
:103740000BF002F8A878002802D0462019B0F0BD8E
:103750000BA81599FDF7D8FA0028F7D1072010A972
:103760000871012C05D0022C0AD0002C0ED042206A
:10377000ECE708A8017B1020014308A8017305E0CD
:1037800011A90BA8FDF77DFA0028DFD110A8027956
:1037900001230CA9284601F081FF00287ED10222D6
:1037A00029461898FCF7CDFE2988684681811521A5
:1037B000490201820784012686734E2108A8817080
:1037C0000024C470067107214171867103A902A803
:1037D00001F01EFD002861D1022202A91E98FCF70B
:1037E000B0FE082F02D26846478502E008206946ED
:1037F000488569460C850B4628880AAA098902F083
:10380000CBFD00286DD13E4968460182022707841E
:1038100008A8847103A902A801F0FAFC002860D16D
:10382000022202A91F98FCF78CFE684604706946C4
:1038300044704F850B4628880AAA098902F0ACFD1E
:1038400000284ED108A8007BC00723D02C49684629
:10385000C91C01820821018408A88770047103A98A
:1038600002A801F0D5FC00283BD1FF216846C171B8
:103870008171C17081704170017044710471694639
:10388000082048850B4628880AAA098902F084FD89
:10389000002826D108A8007B800600E021E022D580
:1038A0002988684681811649A5310182068486737C
:1038B00008A88770C470047107214171847103A93D
:1038C00002A801F0A5FC00280BD169460E700C85FA
:1038D0004E850B4628880AAA098902F05DFD00285A
:1038E00001D0472032E708A8007BA87000202DE710
:1038F000626C75656E72672180240020DE06000010
:10390000012A0000034800210068AE30C1708170B8
:10391000704700008024002070B50D4B1C68AE3449
:103920002379DD0612D45B0710D533280ED1E07A57
:1039300002280BD10420107000205070C9B2022060
:1039400000F03EFA2079FB210840207170BD000094
:103950008024002038B50246174801240068AE30A4
:10396000022A1FD0052A03D0072A07D00B2A20D10C
:10397000084609794088FFF73DFE1AE000790024E7
:10398000020600D50124820703D1C20601D48006B5
:103990000FD5084600216A461170694600F0FCF810
:1039A000044606E08178490703D50179FB221140DE
:1039B0000171204638BD00008024002010B5094860
:1039C0000468AE34E07880070BD500200BF0D6FBFE
:1039D000022000F0CDF9E07801210843FD210840E4
:1039E000E07010BD802400201FB50E480468AE347E
:1039F000E078010612D5A178C9070CD0800708D558
:103A0000042069460873684603F05CFF022000F05A
:103A1000AFF90020E0704006400EE070FDF778F945
:103A20001FBD000080240020F0B58DB00C4616A903
:103A3000E0C90021089109910A910B91159904910F
:103A400005A9E0C112A962C900930191134601467C
:103A5000039602952246012000F0D0F80DB0F0BD8B
:103A6000002000B58DB00A900B9008900990059049
:103A70000690079004900090019002900346024641
:103A80000146039000F0BAF80DB000BDF0B5104C3F
:103A90004625246885B0AE34A678760714D52679F5
:103AA000B3273E4210D10AF037FD05000CD1207932
:103AB0000221084320710620694608730520C002D0
:103AC0000290684603F0B0FE284605B0F0BD000045
:103AD000802400200949B22209681423525CBA31BB
:103AE0001A4208D0498800050905090D000D8142D8
:103AF00001D1012070470020704700008024002081
:103B000002780907090F0A4302700020704700007D
:103B100030B50E4885B005682C46AE352879BA34E4
:103B2000400711D5E87A01280ED1152149026846CF
:103B300041800121017060886B46054A00F008FB56
:103B4000002801D10220E87205B030BD8024002099
:103B5000FFFF00007CB50446E1200D46800006F022
:103B600061F90BA103C900900191684603F06EFC56
:103B700001200CF0EFF9002801D047207CBD20780F
:103B80002021084320700920287000207CBD0000FF
:103B90001F0200000000000030B5174B047A1B68BC
:103BA000C268AE331B799D06AD0F04D1007804289E
:103BB00001D000200BE0012030BD401CC0B2155CDC
:103BC000012D08D01518203DED7F2818C0B2A04265
:103BD000F3D3087830BD401CDD070124C0B2002DAE
:103BE00002D0105CC00703E09B07F2D5105C800791
:103BF0000028EED00C70ECE780240020FFB595B0D3
:103C00000E46054620210CA8FCF7B9FF00200490C1
:103C1000564800270468681EAE34042802D8A078ED
:103C2000C0070BD0062D02D0002D0AD002E0A078EC
:103C3000800703D5E0784006800E0AD0462019B0F0
:103C4000F0BDA0788007F9D0E0784006800EF5D06E
:103C50000FE0002D0DD0012D20D0022D28D0062DF3
:103C600033D0032D33D0042D37D0002E3BD042204B
:103C7000E5E700200BF082FA0028E0D1E078800729
:103C800008D5042069460873684603F01BFE02202D
:103C900000F06EF80120E0700020D0E7012EE6D0A1
:103CA000042EE4D01F980028E1D10627042008E064
:103CB000012EDCD0042EDAD01F980028D7D105279A
:103CC0000220E0700120049010E040200DE0022E60
:103CD00001D0032ECBD1082007E0012E01D0042E05
:103CE000C5D1102001E004272020E07000230BAA9A
:103CF00019461E980AF000FB030002D000F0E4F819
:103D000032E01022002107A8FCF71FFC07A86C4630
:103D1000279B269A1F990FC42B463046189A17994D
:103D200000F088F80300E9D108A8017BC17025984C
:103D300003AC049B289A29990FC422AB07CB0292AB
:103D40000091019039460CA8209B219A00F0C6F8FA
:103D50000300D3D107A80BF043FD0300CED101200F
:103D60000BF00CFA0300C9D1184668E78024002044
:103D700010B50446C1061148006803D51522BF21BD
:103D80000C4006E01B2189014118497EC90710D06B
:103D900012222107890E08181121C9014018806FCD
:103DA0000023214610F0D4F9010004D0204610F081
:103DB000BBF9002010BD072010BD000080240020AA
:103DC000F8B5891ECDB20646A81C03210843401C45
:103DD0008308174817460068F10603D51C22BF2147
:103DE0000E4008E01B2189014118497E090601D4D3
:103DF0000020F8BD19223107890E08181121C901C8
:103E00004018806F314610F0A3F904000ED03978C5
:103E1000217179786171A5712A46B91CE01DFCF702
:103E200090FB2146304610F07FF9E1E70720F8BD0E
:103E300080240020F8B5224B224D1B68069C5B199C
:103E4000009301239B03002814D0042812D00228D9
:103E500014D0032812D006239C461E461D460F464A
:103E6000174310D0914203D8A94201D39A420ED9E8
:103E70004220F8BD3025AC46602602E0A025AC46C5
:103E8000F0262025EBE761462180668001E0218055
:103E9000628020710798A071089820720998002804
:103EA00005D00146204606220930FCF74AFB0720D0
:103EB000607100982030807B60710020F8BD0000A8
:103EC0008024002004090000034881220068A030FB
:103ED000417C11404174704780240020F8B50546AC
:103EE0003D481E460068079F0024AE301346002957
:103EF00005D002222A7001226A70A9700324002EC4
:103F000010D080788006800F0CD13019401C1F28FB
:103F100052D82E55641C281932461946FCF711FB5D
:103F2000A019C4B2002F0DD03819401C1F2843D847
:103F30002F55641CE4B228193A460699FCF701FB98
:103F4000E019C4B26846008C00281BD06846808CFB
:103F5000002817D0601D1F282ED805202855641C66
:103F6000E0B212212954401CC4B22819064602228C
:103F700008A9FCF7E6FAB01C022209A9FCF7E1FA4D
:103F8000241DE4B20C98002810D0E01C1F2813D880
:103F900002202855641CE0B20A212954401CC0B2FA
:103FA0002918401CC4B208460BF0AAFE0B98002842
:103FB0000CD000191F2801D94220F8BD28190B9AEE
:103FC0000A99FCF7BEFA0B982018C4B2214628467D
:103FD0000BF062FBF8BD00008024002000B500F06B
:103FE00009F8002805D0852201699201114200D00C
:103FF000002000BD10B50D4900050B6805214902E0
:1040000059184A690021000DA0331B7B0AE04C01BE
:10401000145B2405240D844202D14801801810BD90
:10402000491CC9B28B42F2D8002010BD8024002068
:1040300004490A683B21490151180A7802430A7071
:104040007047000080240020FEB58C68CD88267B58
:10405000012E01D00020FEBD4126052D01D01E708D
:1040600019E0247C0A2C00D01E70002A0DD089682B
:10407000052268460C31FCF764FA6D1E00AAA9B24D
:1040800032200132FFF748FC05E000880A4601466D
:10409000022000F021FD4120FEBD10B5102100F0EE
:1040A0009DF810BDFFB589B0074646261D78102241
:1040B000991C05A8FCF75BFD012D04D0022D02D050
:1040C00042200DB0F0BD3846FFF788FF040037D01E
:1040D00020223946002009F085FE07002FD019481C
:1040E0006946088001200490394620460B9B0A9AB5
:1040F0000AF0A7F8060004D00021384609F0CEFEE9
:104100001EE00B98A081A068012D0FD0102205A9F8
:10411000FCF717FA25710121206949030843206142
:104120000948A061384600F093FF09E010220749D2
:10413000FCF707FAA068022205A90C30E8E764261C
:104140003046BEE7032800009B400410F4850510AC
:10415000FFB589B0074646251E781022991C05A890
:10416000FCF705FD012E04D0022E02D042200DB036
:10417000F0BD3846FFF732FF040024D02022394634
:10418000002009F02FFE07001CD005AD04960FCDCE
:104190006D460FC5394620460B9B0A9A0AF051F826
:1041A000050004D00021384609F078FE0BE001211B
:1041B00020694903084320610448A061384600F0A3
:1041C00047FF00E064252846D1E70000D1410410F4
:1041D00010B5502100F096F910BD0000F0B593B075
:1041E0000E4604460020694608760190E069079073
:1041F000002827D0C788002F7DD0B006800F03D0BD
:104200002088FFF767FC019006AB2046019A0799CA
:10421000FFF71AFF412861D0B81E80B200900798BE
:104220008068457B002D56D0F006F10703900029E9
:104230000FD0022F0DD329460098FCF703F8002970
:1042400003D006E0412013B0F0BD062D17D0142D89
:1042500015D0B00708D5052F06D30321B807890765
:10426000C84201D1022048E070070ED5022F0CD3BE
:1042700029460098FBF7E6FF002902D005E001205F
:104280003BE0082D0DD0062D0BD00398800F0ED0EB
:10429000022F0CD329460098FBF7D4FF002902D047
:1042A00005E0042029E0072D08D0152D06D0B00622
:1042B00011D5012D04D0022D04D00CE008201CE003
:1042C000042500E01225022F05D929460098FBF7A6
:1042D000B9FF002910D041206946087601212069E4
:1042E000490388432061019800287DD006AA012156
:1042F0003120FFF711FBF6E01020810706D57D493C
:10430000B8034018070CB800C01C0EE0C0060098A7
:10431000294604D5401CFBF795FF87B202E0FBF766
:1043200091FF0746781E6843801D81B205AB0222CB
:10433000079809F017FDF0064ED56946A089898ACD
:10434000884202D9206941065BD4002041E0072D54
:104350000AD068430B3082B21023A168079809F095
:1043600097FD002815D031E01022634908A8FCF71A
:10437000E8F802980BABC100081A0B3081B2022298
:10438000079809F0EFFC102208A8A168FCF7E1F8F3
:10439000E7E7019800280ED002980CAB6843801D17
:1043A00081B22A46079809F0DDFC0CAA2946332081
:1043B000FFF7B2FA0AE00798009002982B4668438C
:1043C000801CC2B22188022000F044FB0298401CED
:1043D00080B20290B842BAD33820484F064207D084
:1043E0006946A089898A00E077E0884204D86EE0B7
:1043F0006846808AB8426AD02069410606D5F1062F
:1044000004D401218902084320616CE02188202224
:10441000002009F0E7FC050011D00521F20701207A
:10442000C902002A0DD06A4611800490908A3B464A
:10443000401C82B22946204609F0C8FE37E04520DC
:1044400001E7B20713D5207901280ED01020A26809
:104450000290019200916846808A3B46401C82B2DD
:104460002946204609F023FE21E00220EFE77107EC
:1044700001D5234A04E00399890F0DD0204A521C2C
:1044800069460A800490888AA389401C82B2294622
:10449000204609F0D6FE0AE0B0060AD56846808AB2
:1044A000A389401C82B22946204609F043FE6428B5
:1044B00008D0284600F0CCFD22883046079900F04D
:1044C0007CFB10E00021284609F0E8FCB7E72288D1
:1044D0003046079900F071FB00E76846027E2188AC
:1044E000022000F035FB0121E06909F0D7FC002033
:1044F000E061A8E600C0FFFFF4850510FFFF0000A3
:1045000002280000F0B58BB00D4604460020694635
:1045100008710490E669002E16D0A806800F03D01B
:104520002088FFF7D7FA049001AB31462046049A61
:10453000FFF78AFD412865D0E80708D02188324678
:10454000022000F04DFA5DE041200BB0F0BD68079D
:1045500005D521883246022000F008FA52E0A8076B
:1045600039D5F0886188814205D9218832460220F8
:1045700000F046F946E02069410604D50121890290
:104580000843206180E021882022002009F02AFCD5
:1045900005001ED021883246022000F031F9A068C3
:1045A000801C00F005FB6188401E401886B2A068A0
:1045B00000F0FEFA024633462946204609F0E2FDA5
:1045C000284600F045FDA0683146801C00F0ECFA5A
:1045D00054E04520B9E7E80614D5F08841270228C1
:1045E0000ED9B168801E4D7B80B2854201D9012071
:1045F00016E0002D04D02946FBF724FE00290FD039
:1046000068460771012021694003814321610498B4
:1046100000282DD001AA01213120FFF77DF92DE0DE
:1046200002900220002703901EE0049800280DD07D
:10463000039805AB001D81B22A46304609F092FB73
:1046400005AA29463320FFF767F907E0039800968B
:10465000C2B22B462188022000F0FCF903984019D1
:1046600080B27F1CBFB2039002988742DDD3C9E7B6
:10467000684602792188022000F06AFA0121E06987
:1046800009F00CFC0020E06100205EE7FFB581B07E
:10469000154607464624FFF7ADFC060028D00298D1
:1046A000002803D07088C01EA84201D242241FE017
:1046B00015483B210068490140180078000602D5E2
:1046C000642005B0F0BDE81C82B23946002009F034
:1046D00089FB07000ED0014600953046049B029AE4
:1046E00009F0EAFD04000AD00021384609F0D6FBA3
:1046F0002046E6E764248020FFF79AFCF8E7384676
:1047000000F0A6FCF4E7000080240020F7B5064680
:1047100090790321401EC5B2E81C0843401C830861
:10472000174817460068F10603D52922BF210E401D
:1047300008E01B2189014118C97EC90601D4002067
:10474000FEBD26223107890E08181121C901401823
:10475000806F31460FF0FCFC04000FD00198A08060
:10476000A808A07123462A4605213846083309F0D7
:10477000F9FA214630460FF0D7FCE0E70720FEBDEE
:1047800080240020F7B5064690790321801EC5B22B
:10479000E81C0843401C8308184817460068F106C7
:1047A00003D52822BF210E4008E01B2189014118B2
:1047B000C97E090701D40020FEBD25223107890EDC
:1047C00008181121C9014018806F31460FF0C0FC54
:1047D000040011D00198A080B8682346407BA071E6
:1047E000E5712A4606213846083309F0BBFA21460E
:1047F00030460FF099FCDEE70720FEBD8024002044
:10480000F7B5064690790321401EC5B2E81C08435F
:10481000401C8308164817460068F10603D52C2271
:10482000BF210E4008E01B2189014118C97E0906FD
:1048300001D40020FEBD29223107890E081811215C
:10484000C9014018806F31460FF082FC04000DD082
:104850000198A080A5712A4605213846E31D09F07C
:1048600081FA214630460FF05FFCE2E70720FEBDEB
:1048700080240020F7B5064690790321801EC5B23A
:10488000E81C0843401C8308184817460068F106D6
:1048900003D52E22BF210E4008E01B2189014118BB
:1048A000097F890701D40020FEBD2B223107890E24
:1048B00008181121C9014018806F31460FF048FCDB
:1048C000040011D00198A080B8682346407BA071F5
:1048D000E5712A4606213846083309F043FA214695
:1048E00030460FF021FCDEE70720FEBD80240020CB
:1048F000F7B5064690790321801EC5B2281D0843EE
:10490000401C8308184817460068F10603D52A2280
:10491000BF210E4008E01B2189014118C97E89068C
:1049200001D40020FEBD27223107890E081811216D
:10493000C9014018806F31460FF00AFC040011D005
:104940000198A080B8682346407BA071E5712A4693
:1049500006213846083309F005FA214630460FF0A3
:10496000E3FBDEE70720FEBD80240020F7B5064606
:1049700090790321401EC5B2E81C0843401C8308FF
:10498000164817460068F10603D52D22BF210E40B8
:1049900006E01B2189014118097FC90719D02A2285
:1049A0003107890E08181121C9014018806F31465E
:1049B0000FF0CEFB04000ED00198A080A5712A460E
:1049C00005213846E31D09F0CDF9214630460FF0A8
:1049D000ABFB0020FEBD0720FEBD000080240020B0
:1049E000F7B5064690790321401EC5B2E81C08437E
:1049F000401C8308164817460068F10603D52B2291
:104A0000BF210E4008E01B2189014118C97E4906DB
:104A100001D40020FEBD28223107890E081811217B
:104A2000C9014018806F31460FF092FB04000DD091
:104A30000198A080A5712A4605213846E31D09F09A
:104A400091F9214630460FF06FFBE2E70720FEBDEB
:104A500080240020FFB59B1E0646DDB2681D0321A1
:104A60000843401C83081B4881B000681746F106C4
:104A700003D53622BF210E4009E01B2189014118D0
:104A8000497F890702D4002005B0F0BD33223107E9
:104A9000890E08181121C9014018806F31460FF0A6
:104AA00057FB040014D00298A0800A98234680681F
:104AB0002A460830C0190079E0802572B91D0933F3
:104AC0000A9809F04FF9214630460FF02DFBDAE73E
:104AD0000720D9E780240020F8B5044690680F46E7
:104AE00001461546467B0E3102226846FBF729FD3A
:104AF000A8680223057C1548E10603D53522BF21AD
:104B00000C4009E01B22016892018918097F0906FF
:104B100001D40020F8BD322221070068890E081850
:104B20001121C9014018806F21460FF011FB0100CF
:104B300009D08F808E716A4612880A818D72204654
:104B40000FF0F2FAE5E70720F8BD0000802400200E
:104B500070B50E4601230446C1061248154600688A
:104B600003D53422BF210C4006E01B2189014118E6
:104B7000497FC90711D031222107890E0818112158
:104B8000C9014018806F21460FF0E2FA010006D0FB
:104B90008E808D7120460FF0C7FA002070BD07206F
:104BA00070BD0000802400200170090A4170704728
:104BB00001784078000208437047134610B5020799
:104BC000920F05D00A4619460220FFF791FE10BD4C
:104BD000820605D50A4619460220FFF7D3FD10BD0F
:104BE000820705D50A4619460220FFF78FFD10BD42
:104BF000C007FCD00A4619460220FFF73BFE10BD55
:104C0000F8B5069C1F4615460646002C13D0A06832
:104C100002220D30FBF795FCE81E82B23B460721CD
:104C2000204609F08FF9E580A068012E05D01D21EE
:104C300001730020F8BD4720F8BD1B21F8E70000F4
:104C4000F1B5FFB08BB00124600205900027CC487D
:104C500007970168E320C000081803908A98C74DA1
:104C60000005000D0AAA05A90BF0E9FD0690002831
:104C700072D104260AA805994218203AD27F0B2A3D
:104C800023D00026002004900AA88119022201A83E
:104C90000291FBF756FC6846818809AB08AA039885
:104CA00001F074FD012817D002287DD06846808865
:104CB000854200D30546844200D920460446029826
:104CC0008078012871D013363BE1491E761E3604E8
:104CD0000591360CCFD1D5E708980090002F79D1F7
:104CE0000099022228310298FBF733FC00281ED1DC
:104CF00000982030017B02988078814217D10128EA
:104D000008D10098029902220830C91CFBF721FC47
:104D1000002815D002988078022808D100980299BE
:104D200010220830C91CFBF714FC002808D000989A
:104D3000008DA84200D80546A04200D22046044675
:104D400002990AA88978012907D013360599B6B2C5
:104D50008E4204D3012707E005E1761DF6E78119AD
:104D6000022201A8FBF7EDFB0399009808318E465B
:104D70002EE084466946026A8B8820300DE0918BD4
:104D8000994203D3012F7DD199427BD9A94200D802
:104D90000D46A14200D30C4612688242EFD104981E
:104DA000002817D1604601E015E0BFE000687045BB
:104DB0000ED0018D994203D3012F09D1994207D911
:104DC0008D4200D30D468C4200D80C46012F59D19C
:104DD0007045CED1BAE008980090002F72D10099AA
:104DE00002221C310298FBF7B4FB00281ED1009868
:104DF0002030C17802988078814217D1012808D1EB
:104E00000098029902220830C91CFBF7A2FB002877
:104E10001AD002988078022808D1009802991022AE
:104E20000830C91CFBF795FB00280DD00098808B3B
:104E3000A84200D80546A04200D220460446029867
:104E40008078012826D003E002988078012805D0D8
:104E500013360798B6B201281ED021E000984949C0
:104E60000089884216D18A98FFF7C4F80146009855
:104E700000F08AF80099098C484300998969401824
:104E8000022200E038E00299491DFBF75AFB01209D
:104E90000790D4E7761DDCE7B61C0020B6B2079079
:104EA0000598864201D3012705E00AA8811902224C
:104EB00001A8FBF746FB039A009908320998096894
:104EC000944630E01AE086466A46938820300DE02A
:104ED0008A8B9A4203D3012F0ED19A420CD9AA424F
:104EE00000D81546A24200D3144609688142EFD18A
:104EF000049800282AD102E00120049026E07046A0
:104F0000006860450FD0028D016A9A4203D3012FD9
:104F100009D19A4207D9954200D31546944200D848
:104F20001446012FE8D16045CDD10FE00298C0783A
:104F3000022805D102980079292801D1B61CB6B201
:104F4000761D0598B6B2864200D301270598811BCD
:104F5000042902D3864200D294E604980028FBD1AB
:104F6000A54203D906987FB00CB0F0BD2246294671
:104F70008A9801F04FFC0690F5E70000FFFF000063
:104F8000802400200229000030B5024623239B5CC8
:104F90000020012B1AD112890D4B9A4216D10D4ACD
:104FA000052312685B02D318A0325B69127B0AE00A
:104FB00045010C885D5B24052D05240D2D0DAC42AB
:104FC00004D0401CC0B28242F2D8002030BD0000A4
:104FD0000229000080240020830810B50A4800211F
:104FE0000268052040021018A0324069127B07E0D9
:104FF0004C01045B002C01D0994204D0491CC9B279
:105000008A42F5D8002010BD8024002010B5044647
:10501000022000F033F80D4800210268052040020C
:105020001018A0324369107B05E04A019A5A002A01
:1050300004D0491CC9B28842F7D810BD48011C529F
:10504000C018026904210A43026110BD80240020B7
:1050500010B504460146042002F034FE002809D0B1
:105060000548E3210068C900401821463C300FF094
:10507000CDFE432010BD00008024002004490A68B2
:105080003B21490151180A7802430A707047000019
:105090008024002000B51138C0B2FFF79DFF002822
:1050A00004D00122016952051143016100BD0000D5
:1050B000F3B597B00D8848880590081D1DC80DAE42
:1050C0001DC68C8ACE8A087E1390C8692031019053
:1050D000087800904878049088780390C878029007
:1050E0000F7900F09BFE002817D101204002844276
:1050F0005FD8B4425DD8002F01D1B44259D114A970
:10510000284601F071FB002806D115AA14990598CC
:1051100001F05AFB002802D0602019B0F0BD149DA8
:1051200011A92846183009F063FB10A880880028D0
:1051300010D0284612A9203009F05AFB10A8838805
:1051400000892A8D1818696A10188A8B904203D139
:105150006120E2E74820E0E715982C4B02899A424B
:1051600027D12322125C012A23D1006800681690FF
:10517000139801281FD16846808E29221202801AB6
:10518000030001F026FE0604180404070A18022C86
:105190000FD110E0072C0CD10DE0042C09D3E0074F
:1051A00007D1012F07D1A64203D3042E01D3F00764
:1051B00001D04220B1E702980B90039B049A0A9316
:1051C00009920098019A0C97089006960594079208
:1051D0000DA81DC8019002A81CC013980B46009092
:1051E0002A461699179800F0AFF9002895D168461D
:1051F0000649808EFF31884205D01798018800202B
:105200000A4601F007FB002087E7000003280000A2
:10521000F3B5A5B008881A9088780C461190102232
:10522000091D13A8FBF7A3FCA08A1090A17D684676
:105230000172E07D0F90207E2090677EA07E1F90FF
:10524000002006460146129020A801810F20BB4C89
:105250002390E3212068C9004018199000F0DEFD7A
:1052600000280BD101211098490288425FD821A95A
:105270001A9801F0B9FA002802D0602027B0F0BDDA
:105280002198179009F058FA1A9988420CD102A86F
:1052900001901698009013AD0ECD119809F010FAF8
:1052A000002801D06320E9E76846017A8806800F6C
:1052B00005D0012012902068A030007B4600C8076E
:1052C00003D01298401CB61C1290080603D5129801
:1052D000401CB61C129017980DA918301D9009F0AB
:1052E00087FA6846129C808EA41CA04237D3179878
:1052F0000EA92030019009F07BFA6846018F002941
:105300000DD01798179A6B46406A9B8E128D5918CC
:10531000808B5118081AA04201D26120AEE717987D
:10532000846911982568012803D0022803D04220FF
:10533000A4E7052000E01320E0832A4639460F98B1
:1053400009F00CFA422899D0199FE28B4037788BEC
:10535000398B411A109810188019814201DA4820BF
:105360008CE70EA9019809F043FA6846008F0028DF
:10537000179802D0406A808B00E0008D2599401C70
:105380000880259801210088A083259802220088A2
:10539000401CA8836A482081204620301790C170A5
:1053A0000021817081711998398B406D40186946D0
:1053B000A061097A0170A06929461C31401CFBF7E5
:1053C000C0F811980128A0697ED0102213A9C01C32
:1053D000FBF7B7F82846102213A90830FBF7B1F8FD
:1053E000388B133038832E4620361198F070109881
:1053F000E8831F98B070109820841098288419981A
:10540000398B406D4018A8610021109AFBF79DF878
:10541000398B10980818388317990120087117994B
:105420000020487130716846007A810701D501215A
:10543000317101070227002902DA317939433171CC
:10544000410703D53179042211433171400603D558
:1054500030790821084330710F9870712098B0712D
:1054600021461D9809F0EDF92146019809F0CAF985
:1054700029461D9809F0E5F92946019809F0C2F975
:105480001298002841D068461A998181A18BC18168
:1054900007844784012408A8047122A80A9008A858
:1054A0008473239941730F993820014008A8017330
:1054B0000721C173002505746846007AC00708D02B
:1054C00020486946088200E02AE003A924A8FFF7E3
:1054D000EFFD6846007A8006800F07D019486946BC
:1054E000401E088203A924A8FFF7E2FD6846007A5F
:1054F00000060AD5292109026846018208A84473DA
:10550000057303A924A8FFF7D3FD259801881298F5
:10551000401C081882B2002001F07CF90020ADE6A2
:10552000022213A9C01CFBF70CF82846022213A97B
:105530000830FBF706F8388B401D53E78024002025
:105540000328000003290000FFB55248E322006849
:1055500087B0D2008218069210AA109B0126169FCF
:105560009288012B04D14C4B9A4201D1A030067B8A
:10557000069D34464035688B2B8B7C43C31A0998B3
:1055800020300390A34222DA48200BB0F0BD232044
:10559000405C012819D108896C46208098420CD0C3
:1055A0003D4C641EA04208D0641CA04205D0641C7F
:1055B000A04202D0A41CA04207D1374CFF3CA0421D
:1055C00001D0904201D16220DFE7096801E0292380
:1055D0001B0203988142DAD109981B9984691898B3
:1055E000224609F0BBF84228CFD01C98012804D1EC
:1055F0001598874201D24220C7E71598E0832046DC
:1056000020301C990590817027840A98808B401C5B
:10561000A0831098012814D02046102211A9083028
:10562000FAF78FFF05991098C8700698298B406D7E
:105630004018A061298B384670430818288300253C
:105640000FE011A80FC808340FC4183CEAE7284639
:10565000A16978430818159A1799FAF772FF6D1C1B
:10566000EDB2B542F3D30599189848710599199888
:10567000087105991A98887109982146183009F01F
:10568000E0F82146039809F0BDF80798A18B018046
:1056900000207AE78024002002290000FFB58FB0A7
:1056A00014460E78102205A8891CFBF760FA5048B2
:1056B000E3210068C900451800F0B0FB00281ED1A6
:1056C000002C57D0012E09D16846808A494988426A
:1056D00004D12846A968083081424BD128461030B1
:1056E00029690390814209D00AA9284609F080F867
:1056F0006846018D601E0D90814202D2482013B091
:10570000F0BD284608300CA9049009F071F86846ED
:10571000008E002814D0EF680AA93846183009F026
:1057200067F8384620300CA909F062F86846398DD0
:10573000008D09186846008E401C081887B200E0EA
:10574000012701200004C01BA04201D26120D6E73E
:105750002C69286801901298012802D0022803D0F1
:1057600008E00520C00200E023486085012E03D038
:10577000022E05D04220C2E720460830022202E075
:1057800020460830102205A9FAF7DBFE20463146F4
:105790002030064601730F9821460780278503981D
:1057A00009F04FF82146049809F02CF827461837DD
:1057B000E7616662A76126620D9884B20BE0284615
:1057C000019909F03EF83846019909F01BF828685C
:1057D000641EA4B20190002CF1D10F9801880D989D
:1057E000081882B2002001F015F8002087E70000B9
:1057F000802400200118000001280000F7B50646AB
:1058000039480F460068E321C900441882B0304689
:10581000FEF7F0FB050064D02046243000900FF026
:105820000BFB00285DD1286900035AD500980FF0C2
:10583000BDFA044653E0A088B0424FD12022314641
:10584000002008F0CFFA06001CD0A068002F017BD2
:10585000427B19D0334604980FF0A8FE00200121A6
:105860002A69C9048A432A6100282ED0692806D0F3
:105870003046FFF7EDFB2969102001432961002024
:1058800005B0F0BD6420FBE70A2906D00C290AD038
:105890000E290ED0082912D023E032462146284690
:1058A00010F03AFFDBE732462146284610F070FB45
:1058B000D5E732462146284610F064FECFE732464F
:1058C0002146284610F0F6FCC9E7214600980FF063
:1058D000BAFA0121204608F0E1FAC9E72468002C51
:1058E000A9D14120CCE7000080240020F0B56C490C
:1058F00089B00A68E321C9005718068841886A46BA
:1059000011800179079141790491C18801918068E2
:1059100003903046FEF76EFB04003ED0384624303C
:1059200006900FF089FA002830D1206980032DD528
:1059300006980FF03BFA054626E0A8880005000D02
:10594000B04220D1A8680223007B0290032005907A
:1059500005226946284608F09BFA002813D10298D0
:10596000162801D105200590E9880598091A0198A3
:10597000814208D1059A03462846121D039908F072
:1059800087FA00280AD02D68002DD6D13846183065
:1059900007460FF051FA002840D065E0202231463A
:1059A000002008F01FFA060011D0012120694904E7
:1059B00088432061012707993F0600290AD06846DD
:1059C00002883346029904980FF0F0FD1DE0642030
:1059D00009B0F0BD384320610298324612282946AA
:1059E000204602D010F018FA01E010F0C0FF0028A5
:1059F0000BD0692807D020691021B84308432061E3
:105A00003046FFF725FB0020E2E7294606980FF015
:105A10001AFA0121284608F041FAECE72069400310
:105A200022D538460FF0C2F905461BE0A8880005CC
:105A3000000DB04215D1A868007B522801D0D228B1
:105A40000FD1022305226946284608F021FA0028D2
:105A500007D107222846019B039908F019FA00286C
:105A600004D02D68002DE1D14120B1E7079800282E
:105A700008D1012021698006014321612946204681
:105A800010F0DFFE01212069890488432061294646
:105A900038460FF0D8F90121284608F0FFF9B2E79F
:105AA0008024002002460948E3210068C90041180B
:105AB0008868083103E0038D934202D2006888426F
:105AC000F9D1884200D100207047000080240020D6
:105AD000034610B50F48E3210068C90041188868E3
