:020000041004E6
:100000000060002089110410371104103911041008
:10001000AA5555AA45554C420000000000000000BA
:100020000000000000000000000000003B11041070
:1000300000000000000000003D110410D53804103D
:10004000E53804103F11041000000000000000001B
:10005000DD380410B9390410CD38041049110410EA
:100060000000000000000000000000000000000090
:10007000000000004B1104105D3904104D110410F4
:100080000000000041110410431104104511041038
:1000900055390410471104103311041035110410A0
:1000A0000000000000000000000000000000000050
:1000B0000000000000000000000000000000000040
:1000C000F0B543464C4655465E466746F8B40E4C7E
:1000D0006B4623600D4C20680D4C20600D4C206851
:1000E0000D4C20600D4C20680D4C2060BFF34F8FED
:1000F00030BF054C2468A546F8BC9846A146AA46E0
:10010000B346BC46F0BDC0460800002004ED00E048
:100110008813002024ED00E07C13002000E200E0C2
:100120008C13002002780B78002A03D001300131B3
:100130009A42F7D0D01A70470023C25C0133002ADC
:10014000FBD1581E7047000002B4714649084900AF
:10015000095C49008E4402BC7047C0460022430837
:100160008B4274D303098B425FD3030A8B4244D37F
:10017000030B8B4228D3030C8B420DD3FF220902C1
:1001800012BA030C8B4202D31212090265D0030B80
:100190008B4219D300E0090AC30B8B4201D3CB0376
:1001A000C01A5241830B8B4201D38B03C01A5241B8
:1001B000430B8B4201D34B03C01A5241030B8B42BA
:1001C00001D30B03C01A5241C30A8B4201D3CB02A5
:1001D000C01A5241830A8B4201D38B02C01A52418A
:1001E000430A8B4201D34B02C01A5241030A8B428D
:1001F00001D30B02C01A5241CDD2C3098B4201D3A5
:10020000CB01C01A524183098B4201D38B01C01A22
:10021000524143098B4201D34B01C01A5241030999
:100220008B4201D30B01C01A5241C3088B4201D348
:10023000CB00C01A524183088B4201D38B00C01AF5
:10024000524143088B4201D34B00C01A5241411A1C
:1002500000D20146524110467047FFE701B5002029
:1002600000F0F0F802BDC0460029F7D076E77047ED
:1002700003460B437FD4002243088B4274D3030907
:100280008B425FD3030A8B4244D3030B8B4228D3A8
:10029000030C8B420DD3FF22090212BA030C8B42CE
:1002A00002D31212090265D0030B8B4219D300E06E
:1002B000090AC30B8B4201D3CB03C01A5241830BF3
:1002C0008B4201D38B03C01A5241430B8B4201D3A3
:1002D0004B03C01A5241030B8B4201D30B03C01ACC
:1002E0005241C30A8B4201D3CB02C01A5241830A46
:1002F0008B4201D38B02C01A5241430A8B4201D375
:100300004B02C01A5241030A8B4201D30B02C01A9E
:100310005241CDD2C3098B4201D3CB01C01A524105
:1003200083098B4201D38B01C01A524143098B428E
:1003300001D34B01C01A524103098B4201D30B0177
:10034000C01A5241C3088B4201D3CB00C01A52419C
:1003500083088B4201D38B00C01A524143088B4261
:1003600001D34B00C01A5241411A00D201465241FA
:10037000104670475DE0CA0F00D04942031000D319
:100380004042534000229C4603098B422DD3030A6E
:100390008B4212D3FC22890112BA030A8B420CD37E
:1003A000890192118B4208D3890192118B4204D3A7
:1003B00089013AD0921100E08909C3098B4201D327
:1003C000CB01C01A524183098B4201D38B01C01A61
:1003D000524143098B4201D34B01C01A52410309D8
:1003E0008B4201D30B01C01A5241C3088B4201D387
:1003F000CB00C01A524183088B4201D38B00C01A34
:100400005241D9D243088B4201D34B00C01A52410A
:10041000411A00D20146634652415B10104601D397
:100420004042002B00D54942704763465B1000D321
:10043000404201B5002000F005F802BD0029F8D0C7
:1004400016E770477047C046437802781B021A438C
:100450008378C0781B041343000618437047C046D6
:10046000030A4B70030C8B70030E0870CB7070473F
:1004700003005A7800781202024398781979000430
:100480000243D878000610435A7912020A43997938
:1004900009040A43D979090611437047030A5370C6
:1004A000030C9370030ED3700B0A53710B0C9371F2
:1004B0000B0E10701171D3717047C046024A136859
:1004C000013313607047C04610030020C021074A63
:1004D000074B08485360036A09061B021B0A0B43BB
:1004E00003620023936007331360704710E000E05D
:1004F0007E3E000000ED00E00E4AD3691B061B0F94
:100500004370D9B2D3690C4A1B071B0F83700B4B86
:100510001B68436093420BD102230370002901D171
:1005200001234370064B9B8A01339B008360704715
:100530000123F2E70000904041A000022800904013
:1005400000001040F0B5070085B001AC0E0020009F
:100550001500FFF7D1FF23783B7063783370A378E1
:100560002B7005B0F0BD10B503F0FDFF10BD10B548
:1005700004F014F810BD10B503F0E6FF10BD0078CC
:10058000C0B27047024A138ADB07FCD57047C046E9
:1005900000001040084B10B51A68084B9A4209D168
:1005A0003F22074B40061A81000C2E3A98611A80B0
:1005B000FFF7E8FF10BDC04614000020CCBCECFCE7
:1005C00000001040084B10B51A68084B9A4209D138
:1005D0003F22074B80081A810C3A986119641A80EF
:1005E000FFF7D0FF10BDC04614000020CCBCECFCCF
:1005F000000010400379F7B50168002B30D180224C
:10060000D20553688B435360202580220021066861
:100610006D42D20533000124CB4023420DD0037933
:10062000CCB20193072924D80F238F00BB40D46A92
:100630009C43019BBB401C43D462013104351A2901
:10064000E8D180234279DB05012A39D1DA683243C7
:10065000DA608279012A36D19A6816439E60F7BD26
:10066000062BD1D1002380220371D20553680B439E
:10067000C9E72700083F072F08D80F27019BAF4085
:10068000AB40146BBC4323431363D6E7103C072CE9
:100690000AD82F000F23203FBB40546B9C43019B83
:1006A000BB401C435463C8E72F000F23403FBB40AF
:1006B000148F9C43019BBB401C43A4B21487BCE72E
:1006C000DA68B243C4E79A68B2439A60C7E7802306
:1006D000DB05D86370478023DB05186470478022F0
:1006E000D205136858401060704780234268DB05CC
:1006F0000168012A0FD11A690A431A6180238168AF
:10070000DB050268012909D1996911439961596989
:100710009143596170471A698A43EEE7002907D16E
:10072000D24399691140996159690A405A61F1E7C8
:1007300059690A43FAE78023DB05DA69002902D008
:100740001043D86170478243DA61FBE78022D2050B
:10075000936A1843906270478023DB055B6A1840F8
:10076000431E9841C0B27047012270B503880D0046
:100770009343038049790400080023880232274EFE
:1007800010404003334003432380254B4900C85A9F
:100790002968244B4843181A234B994229D8490009
:1007A000FFF7DCFC3022238893432380C023626858
:1007B00092B29B02134363606368EA889B0A9B02C0
:1007C00013430322062180B2636020852B791A40EF
:1007D000238852008B43134323802A7A0823012A5B
:1007E00018D12288134323800123228813432380B6
:1007F00070BD0E4B9942DFD85143FFF7AFFC30225A
:10080000238893431A0010231343238062688023B4
:1008100092B2CEE722889A432280E5E7FF9FFFFF4E
:10082000C62900200024F400A0860100801A0600DA
:1008300001230288002902D01343038070479A43A2
:100840000280FBE78A880B881343CA8813430A890E
:1008500013434A8849895200C9030A431343C360BA
:100860007047C36A002A02D01943C16270478B43A4
:10087000C362FBE701747047007EC0B270478023FB
:100880000288134303807047802302885B00134370
:1008900003807047406B0840411E8841C0B27047DA
:1008A000816370471022038B30B593430383038B1E
:1008B000921893430383037D193A93430375037D91
:1008C0003132934303750A780324038B802A23D1A2
:1008D000A34303838023028B5B00134380220725FD
:1008E0000383CB780374038B134303838B88838048
:1008F000CB880381038B934303834B78047D2B4088
:10090000AC431C4304758A783821037D2A40D20009
:100910008B431343037530BD2240A343134303832A
:10092000038B014A1340D9E7FFFEFFFF8023028BB0
:10093000012902D11343038370479A430283FBE7E3
:10094000002908D10123018B1A400F33120199436A
:100950000A43028370470129FCD1038B0A401F31EF
:1009600052018B431A43F4E70901037F012A03D1A3
:100970001943C9B2017770478B430377FBE7013016
:10098000C37F1943C1777047C02380221B061978A3
:1009900052420A437F211A701A780A401A7070472F
:1009A000C02301211B061A780A431A701A788A4359
:1009B0001A707047C0231B0618688007C00F704765
:1009C000024B1868431E9841C0B27047000400C033
:1009D00030B50300012811D0022811D00120032BCB
:1009E0000BD1084A08000B0020301D685C1A043344
:1009F000A5508342F9D10020106230BD024AF1E7D0
:100A0000024AEFE7B40400C06C0400C0900400C0C8
:100A1000030001280FD002280FD00120032B09D199
:100A2000074B1A00C91A20321878C8540133934270
:100A3000FAD100207047034BF3E7034BF1E7C046C0
:100A4000B40400C06C0400C0900400C0410010B5A4
:100A50000D48FFF783FB0D4B421E9A4211D802232B
:100A6000FF280AD80138C0B2094A0A49137413682A
:100A700000020B401843106010BD5B00DBB2400861
:100A8000EEE702230120EFE70024F400FFFD000061
:100A900000004040FF00FFFF70B5040001264068E1
:100AA000FFF7D4FF0420104B21785A6831408900A9
:100AB00082430A435A604022A57818683540AD0148
:100AC0009043284318608020E1781A683140C901BA
:100AD00082430A431A6061781A6861380140824390
:100AE0000A431A6070BDC04600004040054B022218
:100AF0005968002802D00A435A60704791435960F0
:100B0000FBE7C04600004040044B1A7D002902D09C
:100B100010431875704782431A75FBE70000404088
:100B2000014B98607047C0460000404003220449D2
:100B300002400B6803485205184010430860704794
:100B400000004040FFFF9FFF024AD37F8343D377DB
:100B50007047C046010040400322044902400B6830
:100B60000348D20518401043086070470000404019
:100B7000FFFF7FFE014B18867047C04600004040D3
:100B8000064B002804D01A6805490A401A607047CD
:100B900080221968D2040A43F8E7C04600004040AA
:100BA000FFFFFFFB044B1A6A012902D110431862B0
:100BB000704782431A62FBE700009040054B012218
:100BC000196B002802D00A431A63704791431963D6
:100BD000FBE7C04600003040F8B54A4C0500236BE7
:100BE00001681B0700D56DE009014748FFF7B6FA19
:100BF000C3099AB2A284454ADB0101301340C01AEE
:100C0000400880B23F2802D93F233F3818400327CD
:100C100060263F4BC0B218703E4B2A7918783A4094
:100C20005201B0431043187001206979227F394086
:100C30004901B2430A432277AA7919780240BA409F
:100C40000730814311431970217F81430A43227782
:100C5000EA79002A38D102211A788A431A70227F51
:100C60008A43012022772A7A216B1600C2402A4F3C
:100C700006407602394031432163216B274E024002
:100C8000314012020A432263697A226B0E00C1408E
:100C9000234F06403A40B60332432263226B214E73
:100CA00001403240C90311432163AA7A19780240F6
:100CB0000F301201814311431970237F83431A437C
:100CC0002277F8BDC90090E7022A0CD104201978D8
:100CD00011431970197881431970217F0A432277D3
:100CE000227F8243BDE702211A780A431A70042248
:100CF000187810431870207F01432177217F0A4321
:100D0000AFE7C046000030400000127A80FF7F004D
:100D1000280030402C003040FFFDFFFFFFFEFFFFAA
:100D2000FFBFFFFFFF7FFFFF044B1A8F002902D098
:100D300010431887704782431A87FBE70000304052
:100D4000024BC005C00D18807047C04600003040FF
:100D5000014B1888C0B2704700003040054B002896
:100D600005DA5B681840431E9841C0B270471B8B80
:100D7000F8E7C04600003040034B9B8F1840431EED
:100D80009841C0B27047C046000030400722024080
:100D900038200449D2000B788343180010430870B0
:100DA0007047C04634003040F0B583780178002B9E
:100DB00033D040784AB28001002A1BDA0F230B405F
:100DC000083B1B4A9B089B009B18FF22032517002A
:100DD0000D40ED00AF400240AA40DE69BE43324301
:100DE000DA611F224B0911401E3A8A4011499B00CB
:100DF000CA50F0BDFF270F4B92089200D218032370
:100E00003C00C0250B40DB009C4038409840AD00C2
:100E10005659A64330435051E3E71F234A090B407C
:100E2000012199401300034A20339B00D150E0E791
:100E300000ED00E000E100E070B5012186B00600A1
:100E40000920FFF7AFFE00F083F81C4B013880004B
:100E5000C3580024019300F07BF8194B013880003F
:100E600001ADC35828002B71AC716C71FFF7C2FB48
:100E700000F06EF8134B01388000C358019300F066
:100E800067F8114B01388000C35828002B71FFF719
:100E9000B1FB0125032303A803714371037284711D
:100EA000C471447285720396FFF796FE2000FFF727
:100EB0006DFF2800FFF782FE06B070BD909A051006
:100EC0008C9A0510889A0510849A0510042313B58E
:100ED000040001A80370013B43708470FFF764FFB6
:100EE00021001020FFF720FF13BD00000B4A10B5B2
:100EF00013680B49002B00D1116080241368640132
:100F000018180919884205D90C220120054B4042C6
:100F10001A6010BD10601800FBE7C04614130020D3
:100F2000140300206429002010B503F01CFB10BD41
:100F300010B503F018FB10BD10B50A00002103F036
:100F40002DFB10BD0122014B1A70704718130020B1
:100F5000014B1878C0B270471813002010B50BF081
:100F6000C9FD10BD10B50BF0DFF910BD10B50BF0C9
:100F700095FC10BD7FB50BAE368808AC09AD2D8849
:100F8000248803960A9E0195029600940BF0A2FE17
:100F90007FBD7FB508AC20CC0AAE247836780194AA
:100FA000029600950BF0D8FD04B070BD10B504F0AA
:100FB0009BFD10BD10B50DF0CDFA10BD012070479E
:100FC000F0B58DB012AC247809930A9413AC248840
:100FD00018AB1B880B9415AD14AC16AE17AF248854
:100FE0002D8836883F8806930B9B059701930A9BB3
:100FF0000496009303950294099B03F05BFF0DB0E8
:10100000F0BD10B504F00FF810BD10B504F022FBD0
:1010100010BD10B504F09CFC10BD10B50FF0EEFC37
:1010200010BD10B50DF096F910BD10B50CF09EFC7A
:1010300010BD10B504F02EFD10BD10B504F032FD4A
:1010400010BD10B509F0EEF910BD10B512F00EFC90
:1010500010BD10B512F0F2F910BD10B512F000FD80
:1010600010BD10B512F012FA10BD10B50BF070FFE4
:1010700010BD10B508F0ACFF10BD10B50CF086F92E
:1010800010BD10B50BF0B4FF10BD10B50CF0C8F8D2
:1010900010BD0120704710B508F02AF810BD10B53A
:1010A00014F0ECFC10BD10B514F0BAFC10BD10B576
:1010B00014F09CFC10BD10B514F0A6FE10BD01206C
:1010C000704710B514F0FAFE10BD10B514F0E0FE34
:1010D00010BD10B513F0A8F910BD10B513F0C4F988
:1010E00010BD10B513F052FA10BD10B513F018F979
:1010F00010BD10B513F034F910BD10B513F05AF946
:1011000010BD10B513F0C6F910BD10B513F0E4F919
:1011100010BD10B512F0F0F910BD10B512F0BFF906
:1011200010BD10B512F0C6FC10BD10B512F0DAFB00
:1011300010BD7047704770477047704770477047E1
:10114000704770477047704770477047704700009E
:10115000002210B5084B1A60084B1B7A934209D144
:10116000074B1B89052B05D9064B01321A70FEF778
:10117000C0FFFEE7012010BD1400002000009040D9
:10118000000010480C00002070B5FFF7E1FF0128B7
:1011900017D1002314481549154C1A188A4216D342
:1011A000002314481449154C1A188A4213D30021FD
:1011B000134B144A934212D30021134B134A934208
:1011C0000FD3134B83F3088802F0E0F870BDE558A5
:1011D00004331560E1E7E55804331560E4E702C322
:1011E000E8E702C3EBE7C046742900205C3000202A
:1011F00030AE0510080000203400002004AE0510B9
:10120000C0000020CC020020CC0200207429002065
:1012100000600020002210B5104B995CC9B2002973
:1012200017D11C2A14DC022021249854501C1C5471
:10123000901C193C1C54901D19549B18802290211D
:101240009BB252021343C905CB60CB681342FCD159
:1012500010BD995C01315218D2B2DEE7191300209B
:101260000023F0B5144AD45CE4B2002C1ED1192B33
:101270000FDC02253B275E1CD55497555E1990550F
:10128000DE1C955535261D1D56555D1D06335155E1
:10129000D45402223B24094B1A705C709870DA70A7
:1012A00033321A71002259719A71F0BDD45C013445
:1012B0001B19DBB2D7E7C0461913002080130020AA
:1012C00070B58AB003AC06000D0019223D4920001C
:1012D00003F049F96846FFF70FF9002E59D0402373
:1012E000A3732C33E372113B2375374B374A1B68CA
:1012F000190C914208D17020E17D1B018143E175F9
:10130000E17D03400B43E375314B1B68190C91429F
:1013100008D1302061791B018143617161790340FB
:101320000B4363712B4B1B68190C914207D10321AE
:10133000E27D0B408A43E275E27D1343E3750422AC
:10134000E37A69469343E3726B465B78897893400E
:101350000B43112B08DDE37D1A43E275E07AE17D52
:10136000C0B2C9B2FFF77CFF802390222404240C72
:101370005B021C43D205D460D1681942FCD16B4694
:101380006A465B7892781B011343112B01DDFFF74E
:1013900041FF114B1A8B002AFCD001221A8316320E
:1013A0009A8100221A61954207D090231021DB0513
:1013B00018691A6942400A42FBD0084A084B1A6071
:1013C0000AB070BD349A0510E807001055AA000055
:1013D000E4070010B007001000001048CCBCECFC83
:1013E000140000200822C021F8B53F4B3F4D9A80E1
:1013F0003F4A0904136AFF202B400B43C0211362AC
:10140000136A09061B021B0A0B431362C0229200D7
:101410009446384B64469A58374E82433F380243CD
:1014200060461A501A58C0203240000202431A5136
:10143000C122FF2792009C58BC433F3F3C439C5035
:101440009C583F37344004439C509C582C409C503F
:101450009C582402240A0C439C500832944664464B
:101460009A58324002431A511A59C0242A4024047F
:10147000224364461A511A591202120A0A431A5197
:10148000C4229200944664469A58324002431A514C
:101490001A59C0242A402404224364461A511A5976
:1014A0001202120A0A431A51C52292009C58BC43E8
:1014B0002700C0242743C0249F509F5824043E4047
:1014C00030439850985805402C439C50985800023F
:1014D000000A0143995001210800FFF7F1FE074A75
:1014E000074B1A6262B6F8BD00001040FFFF00FF14
:1014F00000ED00E000E100E0FF00FFFF66000E00ED
:101500000000904000B50300032923D80800C5223D
:10151000FEF71AFE022123251B21197000215A70A3
:10152000D5225971B43199711A39D971473119726B
:10153000D0395972293199729531D9724F399A70CF
:101540001973303A1239DA705973A33A38391A716B
:101550009973DA7300BD3B21DFE73C21DDE73D21D4
:10156000DBE700002A23F0B58BB006AC23709B3379
:101570006370D523A370A523E37000236371B43394
:10158000A3719A23E371E1232372112363723A2337
:10159000A372CF23E372802323736E230225637328
:1015A0003623764E102221003000A3732571E57397
:1015B000FEF7D9FF724A734B31001B782800009266
:1015C000012203F06AFD071E06D002206E4900F0DA
:1015D00019FB47200BB0F0BD2B2323709A336370A7
:1015E000D523A370A523E370B423A3719A23E371D9
:1015F000E1232372112363723A23A372CF23E37290
:10160000802323736E2363733623604E6071102230
:1016100021003000A3732571E573FEF7A4FF584B3A
:10162000320018885A4B04970593102302970393AE
:10163000019700950F3B290003F010FD071EC4D150
:101640002C23237099336370D523A370A523E370F3
:10165000B423A3719A23E371E123237211236372EC
:101660003A23A372CF23E372802323736E23637321
:1016700036236071102221003000A3732571E573B9
:10168000FEF771FF3E4B32001888424B04970593DA
:10169000102302970393019700950C3B290003F058
:1016A000DDFC071E00D090E72D2323709833637074
:1016B000D523A370A523E370B423A3719A23E37108
:1016C000E1232372112363723A23A372CF23E372BF
:1016D000802323736E2363733623607110222100ED
:1016E0003000A3732571E573FEF73DFF244B3200F4
:1016F0001888294B049705931023029703930197A9
:1017000000950F3B290003F0A9FC071E00D05CE701
:101710002E23237097336370D523A370A523E37022
:10172000B423A3719A23E371E1232372112363721B
:101730003A23A372CF23E372802323736E23637350
:1017400036236071102221003000A3732571E573E8
:10175000FEF709FF0A4B32001888104B04970593D7
:10176000102302970393019700950F3B290003F084
:1017700075FC002800D028E72CE7C0463C19002063
:10178000FE140020CE290020C19A05100415002067
:101790001419002018190020021500204C190020EF
:1017A0001A23F0B58BB006AC2370BB33A370A5230E
:1017B000E37000236371B433A3719A23E371E123CF
:1017C0002372112363723A23A372CF23E37280231F
:1017D00023736E2302256373C5273623284E1022F8
:1017E00021003000A37367702571E573FEF7BBFE1F
:1017F000244A254B31005B7828000092012203F037
:101800004CFC061E06D00220204900F0FBF94720C0
:101810000BB0F0BD1B232370BA33A370A523E37074
:10182000B423A3719A23E371E1232372112363721A
:101830003A23A372CF23E372802323736E2363734F
:1018400036236770124F6071102221003800A37395
:101850002571E573FEF787FE0A4B3A0018880D4B99
:1018600004960593102303930F3B02931D330093BB
:1018700001960B3B290003F0F1FB0028C3D1C7E719
:101880003C19002090130020CE290020949A0510C6
:1018900004150020161500203A23F0B58BB006ACD5
:1018A0002370C5236370D523A370A523E3700023A1
:1018B0006371B433A3719A23E371E123237211237B
:1018C00063723A23A372CF23E372802323736E23C0
:1018D0000225637336235F4E102221003000A3736C
:1018E0002571E573FEF73FFE5B4A5C4B31009B7848
:1018F00028000092012203F0D0FB061E06D0022031
:10190000574900F07FF947200BB0F0BD3B2323700F
:101910008A336370D523A370A523E370B423A37126
:101920009A23E371E1232372112363723A23A37292
:10193000CF23E372802323736E2363733623494FCF
:101940006071102221003800A3732571E573FEF742
:101950000AFE414B3A001888434B04960593102326
:1019600003930F3B02931D330196009329000B3B19
:1019700003F074FB061EC2D13C23237089336370CD
:10198000D523A370A523E370B423A3719A23E37135
:10199000E1232372112363723A23A372CF23E372EC
:1019A000802323736E23637336236071102221001A
:1019B0003800A3732571E573FEF7D5FD264B3A0079
:1019C00018882A4B04960593102303930F3B029328
:1019D0000D33019600932900053303F03FFB061EEB
:1019E00000D08CE73D23237088336370D523A37028
:1019F000A523E370B423A3719A23E371E123237237
:101A0000112363723A23A372CF23E37280232373DB
:101A10006E23637336236071102221003800A37394
:101A20002571E573FEF79FFD0B4B3A001888104BAC
:101A300004960593102303930F3B02930D330093F9
:101A400001960633290003F009FB002800D056E771
:101A50005AE7C0463C1900201C190020CE2900205E
:101A6000A99A0510041500201619002064140020FE
:101A70006C1400201FB504000D4800F0DBF80D4B7E
:101A80001A880D4B19880D4B1888132303940024D2
:101A9000029300930194123B03F042FBA04204D056
:101AA0000220074900F0AEF8472004B010BDC04640
:101AB000969B0510161900201C19002040130020C9
:101AC000B69B05107FB500221D4B1E4D03AC198837
:101AD000227028880123009403F018FB1A49061E7F
:101AE00028D11A49200002F061FD194B2888198875
:101AF00032000094042303F009FB1649021E19D199
:101B0000154B28881B782370144B198800940123E7
:101B100003F0FCFA1249021E0CD1124B28881B78E4
:101B20002370114B19880094012303F0EFFA002869
:101B300004D00E49022000F065F8472004B070BDC3
:101B400014190020FE140020D79A0510019B0510DF
:101B500018190020069B05101415002002150020FE
:101B6000359B05101E1900204C190020649B0510A0
:101B700000230B4A13600B4A13700B4A13700B4A75
:101B800013700B4B0B4A5A600B4A9A600B4ADA608F
:101B90000B4A1A610B4A5A610B4A9A617047C04658
:101BA00068140020FC140020001500206E14002092
:101BB00070140020E09B0510EF9B0510FF9B0510A3
:101BC0000E9C05101E9C05102C9C0510094B012035
:101BD0001B68002B0CD1084B1B78002B08D1074B3E
:101BE0001B78002B04D1064B1878431E9841C0B2D5
:101BF0007047C04668140020FC1400200015002027
:101C00006E14002010B50C00074B8000C05800F087
:101C100011F8064800F00EF8200000F00BF8044818
:101C200000F008F810BDC0467014002097A60510FB
:101C3000C89D051010B501F086FB10BDF7B5050075
:101C4000134801F080FB05240F262B5D1A091100B3
:101C50003731092A01D83032110033401A0001A867
:101C600001703732092B01D830331A00002342703B
:101C70008370671E01F067FB002C05D0054801F05A
:101C800062FB3C007B1CE0D1034801F05CFBF7BD2C
:101C9000D09E051096A60510C89D0510F0B50E0043
:101CA00085B001AF04000B221149380002F05BFC43
:101CB0003500002C03DA2D23751C3370644220009C
:101CC0000A210135FEF7D4FA0028F9D12870200046
:101CD0000A21FEF7B3FB7B5C013D20002B700A213B
:101CE000FEF7C6FA041EF2D1300005B0F0BDC046C2
:101CF0009D9E05101FB501A9FFF7D0FF01A801F0B7
:101D000022FB05B000BD0000F0B5CD4C8DB000AF9A
:101D1000210002F053FCCB490600FEF703FA00282D
:101D200009D1C94801F00FFBC84801F00CFBC848B5
:101D300001F009FB48E0C7493000FEF7F3F900283D
:101D400001D1C548F4E7C5493000FEF7EBF900289A
:101D500016D1012302003B757875B8611423FB1876
:101D60001B1801301A721328F8D143233B77BC3378
:101D70007B77EF3BBB770433F81801F0D7FB23E008
:101D8000B7493000FEF7CEF9051E20D101F07CF8EE
:101D9000B44801F0D8FAB44801F0D5FA0626B348A1
:101DA00001F0D1FA2800FFF7A5FFB148092D00DDA9
:101DB000200001F0C8FA30006843AE4B0135C0186E
:101DC000FFF73CFF202DEAD1BD460DB0F0BDAA497A
:101DD0003000FEF7A7F9002838D1092302003B752F
:101DE000063B7B75B8611423FB181B1801301A726F
:101DF0001328F8D12100002002F0E0FB002801D1D7
:101E00009E4895E702F09AFB21003877002002F007
:101E1000D5FB0028F4D09A4D0124290002F0CEFB16
:101E2000002801D11423A7E7072C0DD01022002190
:101E300002F0A2FC1423FB181B19187229000020C1
:101E4000013402F0BBFBEBE78E4871E78E493000AE
:101E5000FEF768F9051E75D16B462100FB6002F0A4
:101E6000ADFB002803D1894801F06DFA57E002F07C
:101E700065FBC3B2060086481F2BF5D82100280059
:101E800002F09CFB0028EED002F058FBB8603B7AD1
:101E9000210028007B6002F091FB041EE3D07D4806
:101EA00001F051FAFF231E403000FFF723FF7A486C
:101EB00001F049FA06235E436E4BF6183000FFF737
:101EC000BDFE764801F03FFAFF23B8681840FFF7DF
:101ED00011FF734801F037FA200001F034FA5C4832
:101EE00001F031FA14237968F818FFF70BFB200092
:101EF000FEF722F96B4640080730C008C0001B1AE5
:101F00009D46BB602000FEF717F9A8420AD81423AB
:101F10004008C1B2FB18BA68300000F0D3FAFB6881
:101F20009D4651E710220021635DB8183B74631988
:101F30005B78B9747B7402F01FFCBA686B10D054E4
:101F40000235DFE757493000FEF7ECF8051E00D0F8
:101F5000B6E06B462100FB60B86102F02FFB002861
:101F600001D1514880E70A22290002F005FCC0B2E5
:101F700038750B2801D94D4876E72100280002F07A
:101F80001DFB0028EDD00A22002102F0F5FB210004
:101F90007875002002F012FB041EE2D0444801F0E4
:101FA000D2F9387DFFF7A6FE424801F0CCF9787DE2
:101FB000FFF7A0FE404801F0C6F9200001F0C3F988
:101FC000234801F0C0F92000FEF7B6F86A4646083B
:101FD000F31DDB08DB00D31A9D462000BB60FEF733
:101FE000ABF8272810D935483EE710220021635D61
:101FF000B8183B7463195B78B9747B7402F0BCFB4E
:10200000BA686B10D05402352000FEF795F8A8424C
:10201000EBD8002319009E420BD81422BA18D2180C
:1020200011720133132BF6D10133F81801F07EFA47
:1020300075E7BA68D05C1422BA18D2181072F0E7AB
:10204000359D0510399C0510419C0510019B05101C
:10205000C89D05105B9C0510609C0510089D05102F
:102060000F9D0510189D0510269D0510609E0510FA
:10207000349D0510BD210020379D05103F9D0510A2
:10208000B99E05105A9D0510679D05106E9D05109F
:10209000B79D0510CA9D0510E79D0510EF9D051021
:1020A000FA9D0510069E05100E9E0510399E05101E
:1020B0004C9E0510659E0510729E05107C9E0510B5
:1020C000004835E68A9E051070B50400134801F0FB
:1020D0003AF9134801F037F92078FFF70BFE114861
:1020E00001F031F96078FFF705FE0F4801F02BF998
:1020F0006068FFF7FFFD25000C4801F024F9083562
:102100001B340B4801F01FF928780135FFF7F2FD69
:10211000A542F6D1074801F016F970BDA89E05103A
:10212000B19E0510B69E0510BB9E0510C29E0510FF
:10213000359D0510CC9E051070B50400104801F0C7
:1021400002F9104801F0FFF82078FFF7D3FD0E48A0
:1021500001F0F9F86078FFF7CDFD0C4801F0F3F8D5
:10216000A51C15340A4801F0EEF828780135FFF770
:10217000C1FDA542F6D1074801F0E5F870BDC046A3
:10218000D69E0510DF9E0510E59E0510F19E0510F8
:10219000359D0510CD9E051010B5FEF7D3FEE1204C
:1021A0004002FEF749FE0120FEF790FE0148FFF7CE
:1021B00041FD10BDFC9E051070B5434A86B0062156
:1021C000002002F0D4FF002803D040490220FFF78E
:1021D00019FD0521012002F0C6FF02F093FF3C49E2
:1021E000041E25D13B4B3C4D3C4E01930100009613
:1021F0002B001022052002F08AFE041E09D00220C6
:102200003749FFF7FFFC2000FFF774FD200006B000
:1022100070BD32881026334B2988039302960190B3
:102220000096030002F07CFF0400051E04D02E4936
:102230000220FFF7E7FCE9E72C4B0121039307237A
:10224000049002900093020003000196080002F03F
:1022500077FE2749041EEBD12648FFF7EBFCFFF77A
:1022600081F9041E08D12448FFF7E4FCFFF798FA2F
:10227000041E03D02149DBE72149D9E72148FFF7B4
:10228000D9FCFFF709FB041E01D01F49D0E71F4806
:10229000FFF7D0FC1E4B1C78002CB7D01D4800F077
:1022A00091FE8021C9012B002A000800FEF7A9FE3B
:1022B000041E05D018490220FFF7A4FC2C00A5E756
:1022C0001648FFF7B7FCA1E7E02900200FA1051091
:1022D00032A1051028230020442300202E230020B3
:1022E00049A10510562300205FA1051040E201001E
:1022F00087A10510B7A10510DBA1051039A20510B3
:10230000FCA1051019A2051078A2051055A2051010
:10231000D8200020D229002097A20510C5A20510C0
:1023200010B51148FFF786FC1048FFF787FC1048EE
:1023300002F066FF002806D00E490220FFF762FC7B
:1023400001220D4B1A70FFF737FF002807D00B4909
:102350000220FFF757FC0122074B1A7010BD0848F6
:10236000FFF768FCFAE7C04699A00510E0290020B5
:10237000189F0510B2A0051000150020DAA0051066
:10238000F0A00510092330B501248FB009AD134A20
:102390002B70631ED35C2B550134112CF9D1002115
:1023A000080007F03DF80020F022C82106900590B3
:1023B000049003900295019400900300D200C9009C
:1023C00002F006FE002805D005490220FFF71AFC9E
:1023D0000FB030BD0348FFF72DFCF9E7562300206E
:1023E000DBA30510FDA3051010B502F012FE041EBC
:1023F00005D005490220FFF705FC200010BD034869
:10240000FFF718FCF9E7C04625A405104BA40510FA
:10241000FA2210B5D20088B02821069205923C22FB
:1024200002910191802104920022C90103000392CC
:1024300000920800FEF7C4FD041E06D00D490220DC
:10244000FFF7E0FB200008B010BD0B48FFF7F2FBE0
:102450000A4C0B4B1B68002B07D1002C01D1FF3419
:10246000F0E702F089FE013CF3E763425C4164421D
:10247000E4B2E7E7F9A205101AA30510A08601004F
:102480003C13002070B50C4D47242B68002B11D055
:102490000A4B1321188880B202F0C9FD041E06D031
:1024A00007490220FFF7AEFB04E002F065FE2B684F
:1024B000002BFAD1200070BD3C13002040130020F7
:1024C00077A40510F0B5060089B052481C000291AF
:1024D0000392FFF7AFFB504F3B68002B00D17DE02C
:1024E0004E48FFF7A7FB4E4D3B68002B08D0002D50
:1024F00002D1FFF7C7FF05E002F03EFE013DF3E722
:10250000002DF6D03000FFF783FF051E00D076E0E7
:1025100004AE102221003000FEF725F827004148C4
:10252000FFF788FB10372078FFF7E4FB01343E48C3
:10253000FFF780FBBC42F6D13C4F3800FFF77AFB37
:102540003B4B3C4A1888012180B20096022302F0DE
:10255000C5FD394C2388002B43D03848FFF76AFB70
:102560003748FFF767FB208880B2FFF7C3FB354889
:10257000FFF760FB0298FFF7BDFB3348FFF75AFBFC
:10258000039E039B029AF31A9A422DDC3800FFF750
:1025900051FB274B029A1888218880B2013189B2F9
:1025A000039B02F0DCFD061E09D028490220FFF73C
:1025B00029FB3000FFF79EFB3800FFF73BFB244A66
:1025C0001378002B18D0002313702380FFF75AFFD5
:1025D0002048FFF72FFB280009B0F0BDFFF704FFEC
:1025E00090E702F0C9FDB4E73078FFF783FB0E48AF
:1025F000FFF720FB0136C4E702F0BEFDDFE7FFF77F
:10260000C1FE15490220FFF7FDFA3000FFF716FB67
:102610000125E0E730A305103C13002043A305107B
:10262000A08601005EA30510359D0510C89D05100C
:1026300040130020FFFF00004413002068A3051092
:10264000E79F051073A30510FE9D051082A30510DA
:1026500042130020A7A30510BFA3051010B5024820
:10266000FFF7E8FA10BDC046589F051010B50248A4
:10267000FFF7E0FA10BDC0464C9F051001220A4B3F
:1026800010B51A60094B0A481980FFF7D3FA02986F
:10269000FFF7D4FA0023074A0299C95CD1540133E9
:1026A000062BF9D110BDC0463C130020401300207A
:1026B00089A005103019002000230121054A10B51A
:1026C0001360054A05481170054A1380FFF7B2FAF6
:1026D00010BDC0463C130020D129002050A0051099
:1026E0004013002010B504000348FFF7A3FA2000B0
:1026F00002F0EEFC10BDC0462FA00510F7B5040097
:10270000074816001F000D00FFF794FA00230197F9
:10271000009629001A00200002F013FDF7BDC04604
:1027200038A0051070B53B4888B01D000E000C9C09
:10273000FFF780FA384B1B8801339E4206D12200F6
:102740001321012001F09CF808B070BD334B1B88A9
:1027500001339E4244D12278637801A8027043700D
:10276000092A15D0E278A37812021A4323791B04B0
:102770001A4363791B06134343600023284CE15C32
:10278000C21801331172132BF9D100F0CFFEDBE731
:1027900000224260012B0CD1A278224B1A70E27801
:1027A000214B1A702279214B1A706279204B1A70D2
:1027B000E3E7022BE1D1A279637912021A43E379AC
:1027C0001B041A43237A1B0613431A4A1360A27888
:1027D000144B1A70E278184B1A702279174BE6E7FF
:1027E000174B1B8801339E4207D100230C4AAB4292
:1027F000AADAE15CD1540133F9E7124B1B880133AB
:102800009E42A1D10023104AAB429DDAE15CD15433
:102810000133F9E7879F0510161500206C1400207E
:102820001423002046230020432300202A230020D5
:102830002B230020482300202C2300202D230020C0
:1028400016190020641400203023002010B50C1E3F
:102850000CD00A490220FFF7D5F90948FFF7EAF939
:102860002000FFF747FA0748FFF7E4F90648FFF7AB
:10287000E1F90122054B1A7010BDC046F19F051009
:1028800010A00510C89D05101DA0051042130020C2
:10289000F8B516001F0013480D00FFF7CBF91248DA
:1028A000FFF7C8F93000FFF725FA3C00E31B9E4212
:1028B0000FDC0E4C2000FFF7BDF90D48FFF7BAF909
:1028C0002800FFF717FA2000FFF7B4F9094B1D8025
:1028D000F8BD0948FFF7AEF92078FFF70BFA01348D
:1028E000E4E7C046999F0510D89F0510C89D0510C4
:1028F000E59F051044130020359D051010B50248D2
:10290000FFF798F910BDC04642A00510F7B5142492
:102910000E000D0044430C19A54200D1F7BD2B78E1
:10292000002B17D1B11C06226846FDF71CFE0A4891
:10293000FFF780F96846FFF781F9084F68463900CC
:1029400000F05EFB002805D00548FFF773F938005A
:1029500000F038FB1435DFE75EA00510D229002017
:1029600065A0051070B586B0022840D12148FFF758
:1029700061F90622204904A801F0F5FD1F4D04A8C5
:10298000290000F03DFB041E31D11D48FFF752F92C
:102990002800FFF753F91B4E2B5D33550134062CED
:1029A000FAD100F0CBFA32002100002002F0DFFB68
:1029B000002803D014490220FFF724F9134B00200C
:1029C0001A88134B1988134B019003931023029319
:1029D0000093030002F0A4FB002803D00E4902205C
:1029E000FFF710F900F0A2FA00220C4B1A7006B0A3
:1029F00070BDC046679F05104D9A0510D229002072
:102A0000769F0510E02900200FA105102E2300203D
:102A100044230020562300205FA10510D820002069
:102A2000012110B50800FEF7BDF810BD07B506235B
:102A30006A46137100230090684693715371FDF745
:102A4000D9FD07BD30B50024050087B001A8047189
:102A5000847144710195FDF7CDFD03A8039504949D
:102A60000594FDF742FE01212800FDF764FE07B042
:102A700030BD07B504236A461371002300906846F1
:102A800093715371FDF7B6FD07BD07B501236A4683
:102A9000137100230090684693715371FDF7AAFDEE
:102AA00007BD07B505236A461371002300906846E9
:102AB00093715371FDF79EFD07BD00000023802038
:102AC00030B5184A85B01370174A0121C000137041
:102AD000FEF768F81020FFF7CCFF2020FFF7C9FFB2
:102AE0001248FFF7A7F801A90A00114B31CB31C2F8
:102AF000104C01252000FDF737FE01212000FDF7D5
:102B000097FE6A460E23684613700B3B5370957010
:102B1000FEF74AF92A0008492000FDF7A2FE05B099
:102B200030BDC046542300204D2300209BA4051037
:102B3000549A05100000A04020809F53F0B50E006D
:102B400087B0009001931B480CAB17001D78340030
:102B5000FDF795FEA31B9F4224DC6A46128803AC56
:102B600062808022002352012380E280A3809D4264
:102B70001ED08023DB0123818021012209030D481F
:102B80006781FDF76EFE21000A48FDF75BFE01221A
:102B9000094B1A70019A012A02D11A78002AFCD135
:102BA00007B0F0BD21780348FDF764FE0134D1E79A
:102BB0002581E1E70000A04054230020F0B5070084
:102BC00089B008000F210293002601236944087090
:102BD000140038001A000096FFF7B0FF802305A903
:102BE0005B01CB8080230125DB010A480B810D802E
:102BF0004F808E804C81FDF725FE074A0299074BD6
:102C00001160074A1D7014701A78002AFCD109B0AF
:102C1000F0BDC0460000A040502300204D230020FE
:102C20004C23002070B50024094B1C70094B1B7805
:102C30009C4203DB0848FDF727FE70BD074B0648A2
:102C40001D68FDF719FE2D1928700134EEE7C04606
:102C50004D2300204C2300200000A04050230020E2
:102C60008021002210B5034B090303481A70FDF7B9
:102C7000F8FD10BD542300200000A04010B51B48F3
:102C8000FDF77DFC1A4C20701A48FDF778FC1A4BB2
:102C900018701A48FDF773FC194B18701948FEF7A5
:102CA000C9FF2078FFF726F81748FEF7C3FF174B38
:102CB000174AFF21136000231648890004338B4212
:102CC0000ED10023144915481A1DA42A0AD100F078
:102CD000B5F9FFF725FBFFF7F1FE00F047FA10BD4D
:102CE000D050EBE7C8501300EEE7C04680EF071066
:102CF0001E19002081EF07101415002082EF071025
:102D00001A190020A8A40510C89D05103819002024
:102D10001815002068140020C4130020FC140020A3
:102D2000024B8000C15000207047C046181500209B
:102D3000024B8000C15000207047C046C4130020E1
:102D4000024B8000C35818687047C0461815002011
:102D5000014B185C7047C046D8290020F7B53C4F9E
:102D60003B78282B04D9FF223A4B1A7028233B705A
:102D70000124394D2800FDF702FC0600FEF7BAFFDA
:102D8000364BB600F25813681460354A934229D185
:102D90002000FFF74BFE334B013564009D42E9D123
:102DA00000210120FDF7C7FC00210220FDF7C3FC34
:102DB000002301A8037003334370023B83700E2489
:102DC000FDF7F2FF284BE018FDF7D9FB234B8000FD
:102DD0001B581C6001341E2CF4D100253B789D4209
:102DE0001BDBF7BD002B03D12000FFF72BFED2E742
:102DF0001E4A934203D12000FFF73BFECBE71C4A5B
:102E0000934203D12000FFF740FEC4E7194A9342E2
:102E1000C1D12000FFF745FEBDE7174BEC18640059
:102E20002000FDF7ACFB0600601CFDF7A8FB272E79
:102E300005D8124BB600F35818700135CEE7FF22C3
:102E40000F4B104906201A70FEF7DCFEF5E7C0466E
:102E50001A190020FC14002090EF0710181500200C
:102E6000FFFF00009EEF071092EF0710F0FF000039
:102E7000F1FF0000F2FF0000D8F70308C4130020A0
:102E80006E140020B0A4051070B5104D104C601EDB
:102E9000FDF775FB28702000FDF771FB6870601C62
:102EA000FDF76DFBA870A01CFDF769FBE870E01C46
:102EB000FDF765FB2871201DFDF761FB054B08340C
:102EC000687106359C42E2D170BDC046BD2100202C
:102ED00081BA071081BB071073B5114E0500300091
:102EE0000C00FEF7A7FE062262430E4BD218002309
:102EF0006846E95C1954D1540133062BF8D13000EF
:102F0000009DFEF797FE084B2900E418E40020001E
:102F1000FDF758FB6B46201D9988FDF753FB73BDE9
:102F200019A50510BD21002050F7000210B50021A1
:102F30000148FFF7D1FF10BDE02900206223F7B55B
:102F40001C4C1D4E23700A336370043BA37001AD0B
:102F50000633E3703078063329002371FEF79EFEB6
:102F600032782B78092A21D830226271A371752317
:102F700002220F26E37111490C3B114D2372535D60
:102F8000180907003737092801D8303007003340C7
:102F900018000F703730092B01D8303318004870F3
:102FA0000231013AEBD26423E373F7BD63716B78AE
:102FB000DCE7C046562300201E1900205F230020B6
:102FC000E029002013B50400684606F0A1F90028A6
:102FD00003D00A490220FEF715FE6B461B782370CA
:102FE0006B46DB7863706B469B79A370E123E370DB
:102FF000613B23717E3B637113BDC046C7A40510BE
:1030000010B50A7804780023944215D144784A78A0
:10301000944211D184788A7894420DD1C478CA78C8
:10302000944209D104790A79944205D143794879C7
:103030001B1A58424341DBB2180010BD7FB5002374
:1030400058211C4AD1540133102BFBD1FFF71CFF30
:1030500006221949684601F086FA0622002102A8D4
:1030600001F09CFA154E69463000FFF7C9FF144D78
:10307000041E14D102A93000FFF7C2FF002810D0AF
:10308000104AA35C2B550134062CFAD101220E4BB9
:103090000E481A70FEF7CEFDFFF750FF7FBD0024EB
:1030A000EEE7335C2B5401300628FAD10022064BA0
:1030B0001A70F1E756230020609A0510BD21002008
:1030C000E0290020E6290020D8200020F4A40510E3
:1030D000F8B5050000240626094F31006143280099
:1030E000C919FFF78DFF002801D0E0B2F8BD013407
:1030F000202CF2D102200349FEF784FDFF20F5E7E2
:10310000BD210020E6A40510202807D900230B705C
:103110004B708B70CB700B714B7170470622504314
:10312000064BC25C18180A7043784B7083788B701A
:10313000C378CB7003790B714379EDE7BD21002093
:1031400070B501240600084D20002C70FDF712FD1B
:103150003000FDF7E5FC21002020FDF7D5FC2B78A1
:10316000002BFCD170BDC046552300201FB50121A6
:103170001020FDF717FD0120FFF77BFC0420FFF76F
:1031800078FC0220FFF775FC4D48FEF753FD02A8BE
:1031900002004C4B12CB12C2FDF77EFC0020FDF763
:1031A000C5FC0120FDF7D8FC0120FDF7E9FC01205A
:1031B000FDF79CFC0523012401A80370023B43702A
:1031C0008470FDF7F1FD0620FFF7BAFF0820FF30FD
:1031D000FFF7B6FF0820FF30FFF7B2FF8220400064
:1031E000FFF7AEFF1620FFF7ABFF2000FFF7A8FFA9
:1031F0000420FF30FFF7A4FF80204000FFF7A0FF6E
:103200002C20FF30FFF79CFF2C20FF30FFF798FFAA
:103210000A20FF30FFF794FFFA240420FFF790FF05
:10322000A4002948013CFEF705FD002CF9D120003F
:10323000FFF786FFB020FF30FFF782FF3020FFF757
:103240007FFF9D204000FFF77BFF6120FFF778FFA5
:1032500080204000FFF774FFD8204000FFF770FF88
:103260000220FF30FFF76CFF84204000FFF768FF6B
:103270008220FFF765FF89204000FFF761FF5020A3
:10328000FFF75EFF8820FF30FFF75AFF1020FFF79F
:1032900057FF0E4C0220013CFF30FFF751FF002C7E
:1032A000F8D11320FFF74CFF084C1020013CFF30F1
:1032B000FFF746FF002CF8D11220FFF741FF1FBD9A
:1032C00030A50510689A0510C99D051080B500004D
:1032D000002110B5024B20201970FDF715FC10BD20
:1032E0005523002010B51020FDF746FD00240028CE
:1032F0000AD104000C4A0D491378CC5401331370E1
:1033000011E0FDF725FDC4B21020FDF727FD0028D0
:10331000F7D00D2CEED10022034B044819781A7017
:103320004254FEF7F1FC10BDBC210020B022002069
:1033300010B504002020FDF711FD0128FAD0A0B23D
:10334000FDF7FEFC10BD10B504002078002800D168
:1033500010BDFFF7EDFF0134F7E7000070B5094C31
:103360002378002B06D0084B1D78002D02D1FFF7E3
:1033700009F8257000F096FA00F04AFA00F04AF9D0
:1033800070BDC046D1290020D820002010B5FEF71E
:1033900029F8FEF701FFFDF799F8FEF7E9FBFFF7C3
:1033A0006DFCFFF73DFB00F059F900F02DFCFFF735
:1033B000D5FC00F03BFCFEF785FBFEF707FC002880
:1033C00007D10748FEF736FC01F0D6FEFFF7C6FF2F
:1033D000FAE70448FEF72EFC0348FEF72BFCFEE755
:1033E0003DA505105DA5051077A5051010B502498E
:1033F0000420FEF707FC10BDADA5051010B5032095
:103400000249FEF7FFFBFF2010BDC046C9A505100D
:1034100010B503200249FEF7F5FBFF2010BDC046A2
:1034200033A6051010B5132805D903200449FEF76B
:10343000E9FBFF2010BD034B1B6818184078F9E723
:10344000E4A505108C280020F8B500240F4BE018E7
:10345000FDF795F80E4E0F4BA5192870E018FDF7F3
:103460008EF80D4B6870E5180C4BE7182800FDF737
:1034700086F80B4BEB180135F054BD42F6D1E02332
:103480001C349B009C42E1D1F8BDC04680E407108B
:103490005419002081E4071083E4071096E4071014
:1034A000851BF8EF00231900124A10B51360124A69
:1034B00012481370124A13701A181C331170E02B43
:1034C000FAD1104B104A114813600123104C990097
:1034D000132B0DDC54500133FF2BF8D100230D4A80
:1034E0000D49D1500433302BFBD1FFF7ADFF10BD98
:1034F0005050F0E7D420002050190020DC2000209C
:10350000D020002011340410D41C0020FD330410FE
:103510002534041080220020ED330410024B80007B
:10352000C15000207047C04680220020F7B51C27FC
:10353000134E144C337805007B431B5D0193002B25
:1035400004D011490120FEF75DFBF7BD0F48FEF7DF
:1035500071FB2800FEF7B8FD33785F43E4190ECD08
:103560000EC40ECD0EC42B68236033780133DBB25A
:1035700033703378072BE8D96B461B793370E4E757
:1035800050190020DC20002088A505109DA50510FD
:1035900003001C2010B55843024BC018FFF7C6FFAC
:1035A00010BDC0465419002070B505000024012646
:1035B0003300A3406A68E0B21A4205D0044AA3006F
:1035C000D35898472B1918720134132CF0D170BDC1
:1035D000D41C002010B504000B48FEF72BFB200084
:1035E000FEF772FD2000FFF7DFFF23780B2B05D8D5
:1035F000064A9B009B582000984710BD04490420B0
:10360000FEF700FBF9E7C04609A60510802200205E
:103610001BA6051070B51C250D4C0E4E23786B4370
:10362000985D002813D020780B4B684380191860F0
:10363000FFF7D0FF0022237801205D432378AA55AD
:103640000133DBB223702378072B00D9227070BDC1
:10365000D0200020DC200020D420002010B5FFF76F
:1036600021FF00F0F9F800F049F810BDF8B500248A
:10367000184BE018FCF783FF174E184BA51928705C
:10368000E018FCF77CFF164B6870E018FCF777FF3A
:10369000144BA870E518144BE7182800FCF76FFFCF
:1036A000124BEB180135F054BD42F6D1104BE51822
:1036B000104BE7182800FCF762FF0F4BEB180135A1
:1036C000F054BD42F6D1A4232934DB009C42CFD173
:1036D000F8BDC04680C407106823002081C40710CD
:1036E00082C4071084C4071097C407107F3BF8EF0B
:1036F0009CC40710AFC407107A3BF8EF10B5FFF772
:10370000B5FF00231900064A06481360064A1370E5
:10371000064A13701A1815331170A82BFAD110BD70
:103720008C2800209028002088280020892800204C
:1037300084B0F8B51527144C09932378134E7B43B6
:103740009D5D069007910892002D07D01049012039
:10375000FEF758FAF8BC08BC04B018470D48FEF74D
:1037600069FA06A8FEF7E8FC20783A00784306A933
:10377000301800F0F8FE23780133DBB22370237891
:10378000072BE7D92570E5E788280020902800203E
:1037900059A605106EA60510F8B5A426050000244C
:1037A000F60019482A7823185978914211D19A784D
:1037B0006B789A420DD12F00144AAB1C1537D17C7F
:1037C000002911D0012908D111788C4619788C452F
:1037D0000AD02934B442E4D1F8BD02290CD11178C1
:1037E0008C4619788C45F4D901330132BB42E6D1BD
:1037F000005DFFF7CDFEECE70329F5D111788C468B
:1038000019788C45F0D3E4E7682300206B2300206F
:1038100070B515250D4C0E4E23786B43985D00282E
:1038200013D020780B4B684380191860FFF7B4FF62
:103830000022237801205D432378AA550133DBB2AF
:1038400023702378072B00D9227070BD89280020AF
:10385000902800208C2800200023190003481A1803
:10386000013311700C2BFAD17047C046F0140020C0
:10387000024B8000C15000207047C04694130020C6
:1038800070B504000D0016000448FEF7D3F9044B90
:10389000A40031002800E358984770BD88A60510A1
:1038A0009413002010B50024074BE0B2E3181A78F7
:1038B000012A04D1002119700A00FFF7E1FF013449
:1038C0000C2CF1D110BDC046F014002010B506F04C
:1038D00015FC10BD10B5FCF7F1FD10BD10B5FFF7DC
:1038E00001FD10BDF8B51648FEF7A4F90124E6B2B3
:1038F0003000FFF725FA134B421E05009A421AD8F2
:103900003000FFF725FA061E15D02800FCF724FF2B
:10391000070001280FD12800FCF718FF0A4B1A787E
:10392000002A05D000221A700848FEF783F9F8BD76
:10393000074B9F55F8E70134092CD8D1F4E7C0466E
:103940007EA60510EFFF000046130020C89D05105D
:10395000F014002010B500F045FB10BD802110B51B
:1039600009031448FCF796FF00281AD0FFF778F9EE
:10397000802110480903FCF793FF80210D48490579
:10398000FCF78EFF80210B480902FCF783FF00281B
:1039900006D0FFF747F9802106480902FCF780FFAF
:1039A00010BD802103484905FCF774FF0028DDD1D4
:1039B000E8E7C0460000A04010B5FFF789FC2020D2
:1039C000FDF7C2F810BD000030B50F4889B00D00FA
:1039D000FEF730F9012302AC0C482370FFF778FBA7
:1039E00000236070E95CE21801339170132BF9D168
:1039F0006B46069A009206AA12791A710FCCFFF74D
:103A000097FE09B030BDC046ACA6051030190020A5
:103A100010B5040086B00E48FEF70CF96078002857
:103A200005D120000830FEF725F806B010BD0128AA
:103A3000FBD16946FFF768FB02A80021FDF762FD94
:103A4000220002AB083213216846FEF73BFDECE78B
:103A50009AA6051010B504490120FFF709FF034994
:103A60000120FFF75BFD10BDC9390410113A0410A5
:103A700030B5040085B01F48FEF7DCF8002303A929
:103A80000B7002AB1D784D70587888706278012AEF
:103A900013D1237A032B0CD9043B9A406A404A7015
:103AA000154B0322187801230093FFF747F805B060
:103AB00030BD9A4042408A70F2E70123022A0BD1BE
:103AC000227A032A04D9043A93401A002A43E6E7EB
:103AD00093401A000243EEE7032AE1D1227A032A37
:103AE00004D9043A93409D434D70D9E793409843DD
:103AF0008870D5E7BEA605103C29002070B5174890
:103B00008CB0FEF797F8164D03AE287833000222EA
:103B10000021FFF753F8082306AC32782370073BE7
:103B20006370A270727804A9E2700E220A70F132FA
:103B30004A708A70CA700A712878FA3A0093FEF7C0
:103B4000FDFF6B460A9A043400920AAA12791A7190
:103B500006980ECCFFF7ECFD0CB070BDCBA605109F
:103B60003C29002000232022084910B50B60084B97
:103B700008201A70FFF7D4F806490820FFF778FEEE
:103B800005490820FFF7CAFC10BDC04640290020A7
:103B90003C290020FD3A0410713A041070B5174B0F
:103BA00088B01B68002B27D00124154D072229005F
:103BB00004A800F0D8FC134E23003078072204A993
:103BC0000094FEF7BBFFE91D072206A800F0CBFC1E
:103BD00030782300072206A90094FEF7AFFF2900E2
:103BE00005220E3102A800F0BEFC307823000094BC
:103BF000052202A9FEF7A2FF08B070BD40290020EF
:103C0000709A05103C29002010B5FFF723FF00F043
:103C100067FA00F087FB00F045FA00F005FB00F0C2
:103C200099F900F097F8FFF79DFF10BD10B500F06F
:103C3000A3F900F03BFC00F09DF8FFF7AFFF10BDCB
:103C400070B53E4888B0FDF7F5FF03AE3C48FDF780
:103C5000F1FF33000122B4212920FEF7AFFF0D232D
:103C600001226B44B5212920FEF7A8FF0E23012273
:103C70006B44B6212920FEF7A1FF0F2301226B44DC
:103C8000B7212920FEF79AFF0024305DFEF732F8B5
:103C900001342C48FDF7CEFF042CF6D12A48FDF75D
:103CA000C9FF2A48FDF7C6FFA42304AC237033786C
:103CB0000022132B01D9143BDAB2012562702B00CC
:103CC0000222210029200095FEF738FFA52323704A
:103CD00073780222637021002B0000952920FEF7E3
:103CE0002DFFA623327823705933991A132902DD48
:103CF00013001433DBB20125637021002B00009503
:103D000002222920FEF71AFFA723237073782100CF
:103D1000637002222B0000952920FEF70FFF0C484C
:103D2000FDF788FFE7232A002370210000952B0070
:103D30002920FEF703FF08B070BDC04628A7051074
:103D400036A70510359D0510C89D051051A7051013
:103D50006BA70510002310B5044907200B60FEF780
:103D6000DFFF03490B20FFF783FD10BD5C29002016
:103D7000413C041070B54E4B88B01B68002B00D13D
:103D800094E04C48FDF756FFA023012504AC2370B6
:103D900049488D3B6370FDF74DFF2B000222210047
:103DA00000952920FEF7CAFEAC23444823706570B5
:103DB000FDF740FF2B000222210000952920FEF78D
:103DC000BDFE03AE3E48FDF735FF2A003300B421A7
:103DD0002920FEF7F3FE0D232A006B44B52129208C
:103DE000FEF7ECFE0E232A006B44B6212920FEF7D5
:103DF000E5FE0F232A006B44B7212920FEF7DEFEE3
:103E00000025705DFDF776FF01352E48FDF712FFA6
:103E1000042DF6D12C48FDF70DFF2C48FDF70AFFC5
:103E2000A423237033780022132B01D9143BDAB278
:103E3000012562702B000222210029200095FEF747
:103E40007DFEA523237073780222637021002B006E
:103E500000952920FEF772FEA6233278237059338D
:103E6000991A132902DD13001433DBB201256370A4
:103E700002222B00210029200095FEF75FFEA723D8
:103E8000237073780222637021002B002920009593
:103E9000FEF754FE0E48FDF7CDFEE7232A002370FF
:103EA000210000952B002920FEF748FE08B070BDC8
:103EB0005C290020D8A60510F0A6051010A7051053
:103EC00036A70510359D0510C89D051051A7051092
:103ED0006BA7051010B504001C48FDF7ABFE627817
:103EE000022A1CD0032A2BD0012A17D10720184BF5
:103EF000197D81430A431A75217AFF22002901D0D6
:103F00000F224A439A801A810122382152429A8113
:103F10001A7D8A43110008220A431A7510BD072230
:103F20000B490B7D93431A00012313430B75227A2F
:103F3000FF23002A01D00F2353438B800B81EDE731
:103F40000721034A137D8B431375E7E780A705100C
:103F50000000E04010B50549054B05200B60FEF759
:103F6000DFFE04490A20FFF7D9FA10BD38290020E6
:103F7000F1FF0000D53E04101FB5174A174B126819
:103F80009A4228D8802001214001FCF70BFE8023B3
:103F9000002402A9CB7012487F338B80CB800C7039
:103FA0004C708C70FCF77EFC01210D48FCF7BEFCC8
:103FB000210001220A48FCF7C3FC142301A8037066
:103FC0000134113B43708470FCF7EEFE220008219F
:103FD0000348FCF7C9FC1FBD38290020FFEF000093
:103FE0000000E040072210B505480821037D9343F7
:103FF0000375037D313293430375FCF7C0FC10BD9C
:104000000000E04010B50248FDF714FE10BDC046A8
:10401000DCA70510F7B504001C48FDF70BFE63781C
:10402000022B30D0032B05D0012B2BD11848FDF7E4
:1040300001FE27E00025267A002E01D1002D21D196
:1040400005236946E21A927B5A54013BF9D2114882
:10405000FDF7F0FD1048FDF7EDFD3000FDF74AFEDD
:104060000E4F07353800FDF7E5FD6846FDF7E6FD24
:104070003800FDF7DFFD31006846FEF72DFF0734FD
:10408000152DD8D1F7BD0648D1E7C0468FA705103A
:10409000B0A705109CA70510609E0510C89D0510CF
:1040A000C5A7051010B504490920FFF7E1FB034936
:1040B0000920FFF733FA10BD054004101540041025
:1040C00010B50248FDF7B6FD10BDC046F5A70510B6
:1040D00010B50248FDF7AEFD10BDC046E9A70510BA
:1040E00010B5094B094902200B60FEF719FE08497B
:1040F0000220FEF71DFE07490220FFF7B9FB064923
:104100000220FFF70BFA10BDFFFF00004C29002032
:1041100058290020C1400410D140041010B50248B5
:10412000FDF788FD10BDC04649A8051010B5040074
:104130003348FDF77FFD6378022B22D0032B3FD05D
:10414000012B17D1247A2F48FDF774FD2000FDF7CD
:10415000D1FD2D48FDF76EFD032C0BD820002B4B15
:10416000FBF7F2FF02090B0D294A1068984201D0B3
:10417000FCF7B5FA10BD274AF7E7274AF5E7274AC3
:10418000F3E7247A2648FDF755FD2000FDF7B2FD40
:104190001D48FDF74FFD032CECD820001B4BFBF70F
:1041A000D3FF02090B0D1A4A10689842E2D0FCF7BF
:1041B0008EFADFE7174AF7E7174AF5E7174AF3E7FA
:1041C000247A1848FDF736FD2000FDF793FD0E48D0
:1041D000FDF730FD032CCDD820000C4BFBF7B4FFCE
:1041E00002090B0D0A4A10689842C3D0FCF773FA13
:1041F000C0E7084AF7E7084AF5E7084AF3E7C04688
:1042000001A805100FA80510C89D0510FFFF0000AC
:10421000442900206029002050290020482900203E
:1042200022A8051035A8051070B5104B104E114D81
:10423000114C124901200B6033602B602360FEF7A4
:104240006FFD31000220FEF76BFD29000320FEF711
:1042500067FD21000420FEF763FD09490720FFF7F1
:1042600007FB08490720FFF759F970BDFFFF000061
:1042700060290020502900204829002044290020DE
:104280001D4104102D41041010B50248FDF7D2FC69
:1042900010BDC04646A9051030B521488BB0FDF7CA
:1042A000C9FC052303AD04AC237001222B000021BF
:1042B0002B20FEF783FC01222B78110063702B204A
:1042C0002B00FEF77BFC2B780122A37002212B0030
:1042D0002B20FEF773FC2B780122E37003212B00C7
:1042E0002B20FEF76BFC2B780421237101222B007D
:1042F0002B20FEF763FC2B78002163710423E21866
:1043000001339170132BFAD16B46089A009208AAD8
:1043100012791A710FCCFFF70BFA0BB030BDC04603
:104320005BA90510002310B5064906200B60FEF7B7
:10433000F7FC05490520FFF79BFA04490520FFF724
:10434000EDF810BD54290020994204108942041050
:104350000D23F0B501258BB006AC274E0700237066
:1043600026480333039163703570FDF763FC022226
:1043700021002B002B200095FEF7E0FB0E232048A8
:1043800023706770FDF756FC2B0000950222210078
:104390002B20FEF7D3FB00232370013303995A1E11
:1043A0008A5CE254082BF8D101251648FDF742FC3F
:1043B000092221002B002B200095FEF7BFFB0D23C7
:1043C0002370002310486370FDF734FC2B20009508
:1043D0002B0002222100FEF7B1FB0C48FDF72AFC5E
:1043E0003178C9B20029FBD105AB01222B20FEF7A1
:1043F000E5FB0BB0F0BDC046461300200EA905102A
:104400001BA905102AA9051034A9051041A90510FA
:104410000D2370B5012588B004AC060023701E483A
:104420000B336370FDF706FC2B0002222100009580
:104430002B20FEF783FB0E23184823706670FDF7D0
:10444000F9FB2B000222210000952B20FEF776FBC2
:1044500002AE1348FDF7EEFB3300082200212B20AB
:10446000FEF7ACFB0025705DFDF744FC01350D48FF
:10447000FDF7E0FB082DF6D10D23237000230A4839
:104480006370FDF7D7FB01230222009321002B204C
:10449000FEF754FB08B070BD0EA905101BA905104E
:1044A00070A90510359D05107AA9051030B51B4B74
:1044B00085B01B68002B2ED01948FDF7BBFB01AB64
:1044C000012200212B20FEF779FB00241548FDF77F
:1044D000B1FB2000FDF70EFC134D2800FDF7AAFBF1
:1044E0001249E00009180134C0B2FFF731FF102C67
:1044F000ECD100240E48FDF79DFB2000FDF7FAFBF0
:104500002800FDF797FBE000C0B202A90134FFF7D5
:104510007FFF102CEED105B030BDC04654290020DD
:10452000D7A80510EFA80510C89D051057A80510BD
:1045300003A9051010B500F01FF810BD10B50A2230
:10454000002100F019F910BD30B50024A24201D1BC
:10455000002005E0035D651C0C5DA34201D0181B23
:1045600030BD2C00F2E7002310B59A4200D110BDF7
:10457000CC5CC4540133F8E710B5884202D98B18DB
:10458000984208D300239A4207D0CC5CC45401332C
:10459000F9E78B5C8354013AFBD210BD030082180B
:1045A000934200D1704719700133F9E7031C0A7870
:1045B00001311A700133002AF9D17047F8B5134B55
:1045C00006001D680F00E8352C68002C16D150201D
:1045D00000F0F4F92860046044608460C460046101
:1045E000446184618462C462046344638463C46319
:1045F000046444648464C464047744622A683900AF
:104600003000012300F004F8F8BDC046EC2900207A
:10461000F0B5002804D11068002801D1F0BD2000B9
:104620000E000578441C3778002F04D1002D10D1DE
:1046300015602800F2E70136BD42F4D1002BEED11F
:1046400014600370EAE733000EE001351C00002F10
:1046500002D10D002678631C2F78BE42F5D1002EC2
:10466000F1D00024591E0C701360D7E7F0B51F007D
:104670000E0087B00590039102920C98347800F0F8
:1046800097F9082200194378751C13400CD12D2C82
:104690000CD101332C780193B51C002F0CD0102FB6
:1046A00014D1302C0AD011E02E00E6E701932B2C18
:1046B000F3D12C78B51CF0E7302C2FD120222B78A9
:1046C0009343582B51D110276C780235019B294A0E
:1046D00039009E183000FBF7C7FD30000491390007
:1046E000FBF73CFD01210023494202008C461800E3
:1046F00021003039092913D80C00A7421CDD591CB0
:1047000009D06346824206D302D10499A14202DB5A
:104710000123784320182C780135E9E70A27D5E7EB
:1047200021004139192901D8373CE6E721006139D8
:10473000192901D8573CE0E75A1C08D1059A2333C0
:104740001360029B3000002B0BD107B0F0BD019A23
:10475000002A00D04042029A002AF6D0039A002B89
:1047600000D06A1E029B1A60EFE73024002FADD103
:104770000837ABE7FFFFFF7F37B51300064A050098
:104780001068046A002C00D1044C0A00009429002F
:10479000FFF76CFF3EBDC046EC290020E02A002058
:1047A000F7B5254F0C00050000F028FB3800032268
:1047B000224E1138B368001B5B6839009343C01860
:1047C0000193FBF7CBFC441E7C43BC4204DA280077
:1047D00000F01CFB0020FEBD0021280000F01EFBA5
:1047E000B368019A9B189842F1D16142280000F009
:1047F00015FB431C10D10021280000F00FFBB2680C
:10480000811A0F29E3DD0E4B1B68C01A0D4B18608F
:1048100001230B435360DAE7B2680126019B2800AD
:104820001B1B33435360074B1A68141B1C6000F0BA
:10483000EDFA3000CFE7C046800000004C2C00208D
:104840005430002048130020F7B50D1E01902DD0E4
:1048500000F0D4FA012329009C4608394F686246CB
:104860003B0066469343C8184568023295434A4A5E
:1048700037409668B0421AD15B19002F06D10868FC
:10488000091A8D681B18C868E86085600120184304
:1048900048609160414A1268934204D3404B0198AA
:1048A0001968FFF77DFF019800F0B0FAF7BD002608
:1048B0004560B74209D10F683A4CC91BDB198F68B4
:1048C000A7422BD0CC68FC60A76047197C68012701
:1048D0003C420BD15B198568002E21D1314CA54299
:1048E0001ED13E0051611161CD608D600120050037
:1048F0001D434D60CB50002ED5D12B4DAB4213D86C
:10490000DB089D10A8405468DB00204350609A18D3
:104910009368CA608B609160D960C4E76646D4E74B
:10492000C068E8608560E1E75D0A042D12D8980947
:104930003830C600B618B5680327AE4225D101232A
:1049400080108340506803435360CE608D60B16037
:10495000E960A8E7142D02D828005B30E9E7542D60
:1049600002D8180B6E30E4E7AA204000854202D836
:10497000D80B7730DDE70D4E7E20B542D9D8980CA4
:104980007C30D6E7AD68AE4203D06A68BA43934242
:10499000F8D3EE68D9E7C0464C2C002058300020F0
:1049A00078130020542C0020FF0100005405000063
:1049B000EC300068704770477047000010B5034B3B
:1049C0000100186800F004F810BDC046EC29002072
:1049D000F0B50D0085B00B350190162D08D90723D1
:1049E0009D4306D50C23019A1360002005B0F0BD4D
:1049F00010258D42F6D3019800F000FAF823FF331A
:104A0000BA489D421FD82A00083282181100546803
:104A10000839EB088C4203D1D4680233A24229D072
:104A200003236268A1689A431300E268E318CA602E
:104A30009160012259680A435A60019800F0E6F932
:104A400020000830D2E76A0A3F23002A03D0042A54
:104A500028D8AB09383303229446D9000918CC680A
:104A60008C4206D066466268B243571B0F2F31DD79
:104A7000013B01330100046908318C424ED003220E
:104A8000666896433200761B0F2E31DD01276319CD
:104A90003D433743656043610361D96099605F605E
:104AA000A650CAE7142A02D813005B33D3E7542A6E
:104AB00002D82B0B6E33CEE7AA235B009A4202D8B2
:104AC000EB0B7733C7E78A497E238A42C3D8AB0C06
:104AD0007C33C0E7E668002F08DBA368DE60B360C4
:104AE0000123A21851680B435360A6E73400B7E7CF
:104AF00041610161002EF3DA7E498A4242D8D20830
:104B0000FF399610FF39B1404668D2003143416009
:104B100010188268E060A2608460D460012299105D
:104B20008A4072494868824200D997E0104205D114
:104B30000324A343520004331042FBD09C46D80008
:104B400008180290029CE468029EB44258D13400D6
:104B5000083402940124A444644603263442F1D16B
:104B60000324234274D14B6893434B60486852003E
:104B7000824273D8002A71D063461042DED10433DA
:104B80005200FAE7560A042E16D891093831CF00A0
:104B90003E1803270296BC46B668029FB74227D14B
:104BA000012289108A4041680A434260029AA66045
:104BB000E2609460F460B1E7142E02D831005B31FA
:104BC000E5E7542E02D8110B6E31E0E7AA21490027
:104BD0008E4202D8D10B7731D9E7454F7E21BE42B4
:104BE000D5D8910C7C31D2E7B6680299B14204D095
:104BF0006046716881438A42F6D3F2680292D5E733
:104C000003266768B74303977E1B0F2E11DD012231
:104C1000631915436560E068A5680831E8603243B0
:104C20008560CB608B60D96099605A603B00E6502C
:104C300003E7E768002E09DB0122039BE3185968AC
:104C40000A435A60A368DF60BB60F6E63C007BE77E
:104C500008388468013BA04282D087E703238F682D
:104C60007A689A430292954203D8521B0F2A00DDBC
:104C70009FE0029BFB1803931F4B1E681F4B1036CF
:104C80001B687619013305D01D4B013B9E191C4B47
:104C90005B421E403100019800F0C0F80400431C44
:104CA0005FD0039B834202D9104B9F4259D1154BD1
:104CB0001A68B1181960124B5A1E039BA34227D1E0
:104CC000134225D1029A094B921901269B6816437B
:104CD0005E600C4B0C4A1B6811688B4200D9136054
:104CE0000A4A11688B423CD913603AE04C2C0020F0
:104CF00054050000FF01000078130020543000200C
:104D0000800000004813002070130020741300205E
:104D10002D4B1868013032D11C600720204002D092
:104D20000823181A2418294BA61918181640861B90
:104D30003100019800F072F8431C01D120000026D8
:104D4000234A001B13689B1913600123214A86190B
:104D50001E43946066609742BBD0029A0F2A14D813
:104D6000636003221B4B9B685B6893435A1B9D4205
:104D700001D80F2A1DDC019800F048F835E6039BA6
:104D8000E31A5B1812490B60C7E70722029E0C3E2C
:104D900096437A681340052233437B60BB195A60FF
:104DA0009A600F2E95D9390001980831FFF74CFD14
:104DB0008FE701231800074928438C6813436519BE
:104DC00060608D606B6038E6543000208000000029
:104DD000481300204C2C002082B0002900D101A9EA
:104DE000101E06D0002B06D013780B601078431EDF
:104DF000984102B0704702204042FAE710B50248DD
:104E0000FFF7D9FD10BDC0466C29002010B502483F
:104E1000FFF7D2FD10BDC0466C290020002370B5FD
:104E2000064C050008002360FCF760F8431C03D122
:104E30002368002B00D02B6070BDC0466429002081
:104E40000B1E04D0FF2A04D98A2303608B3B180071
:104E500070470A700123FAE7F0B5054600200F46B7
:104E6000079E059C174309D0202905D30127BF03BE
:104E7000BA4201D8914201D94220F0BD19462143DE
:104E80000AD09C42F8D309498C4203D00849A41F98
:104E90008C42F1D2062BEFD3002D03D0022D01D08E
:104EA000032DE9D1032EE7D8F0BD0000FFFF00007D
:104EB0007B0C0000FFB58DB0144618AAECCA04970D
:104EC0006F466CC70A46014605A8179B04F0B4FA62
:104ED00000280AD108A84471012C08D0002C06D063
:104EE000022C04D0032C02D0422011B0F0BD09A83E
:104EF000062202301099FBF736FB08A916980873B2
:104F0000C0B20328F0D805A800F072FBEDE77CB52D
:104F1000069D079C002805D0860705D1460703D4C7
:104F2000060701D442207CBD002903D0012901D00D
:104F30000229F7D10095019400F0B0FB7CBD000080
:104F4000FFB58DB0179F169D1446060004D0012EA4
:104F500002D0422011B0F0BD0E98002801D00128E7
:104F6000F7D1E81F0A28F4D2102FF2D8AF42F0D3BD
:104F70001898002801D00128EBD1144919988842CB
:104F8000E7D81A98002801D00128E2D1FCF797F859
:104F9000012804D01098204306D01120DAE7022C13
:104FA000D7D810980128D4D8684686700E99C17059
:104FB000047310994173057147711899C17119985B
:104FC000029068461A990FF053FEC3E73F420F0064
:104FD000FFB587B0109D159E169C01930295009415
:104FE00007A807C81F463346FFF736FF00280ED133
:104FF0001398149903AA069443C211981299019028
:105000000095029107A807C83B4600F0D7FC0BB0FB
:10501000F0BD10B500F0EEFC040002D101200BF051
:10502000C1FA204610BD10B500F0FAFC10BD10B555
:105030000BF048FB10BD70B51C4613460D46012C05
:1050400003D0022C03D0422070BD022200E01022C7
:105050001946FBF788FA2C70002070BDF0B587B0B8
:105060001C460B46054600A9023101A80C9F0D9E67
:10507000FFF7E1FF00280ED168460580848287751E
:10508000C6750E9901760F99417610998176694619
:10509000119802F087F807B0F0BD70B586B01446DD
:1050A0001D460A4603466946881C0A9EFFF7C3FF51
:1050B000002804D1012C04D0022C02D0422006B0DA
:1050C00070BD23462A466946304602F0B1FAF6E73B
:1050D00010B50022114602F05BFB10BD70B586B022
:1050E0000D46144606466946881C0A9AFFF7A3FF38
:1050F000002805D16B4622462946304600F09CFF29
:1051000006B070BD10B502F06DFE10BD38B56D462D
:10511000049C2A806B8023466A4603F007F938BD59
:10512000F0B585B084460AA8F0C868468581C68176
:1051300003A8019002970094604603F02BF905B094
:10514000F0BDFEB56C46099E089D208061802271ED
:105150006371E5806846029602F092FBFEBD10B5D1
:1051600001F05EFA10BD10B503F044FE10BD10B59D
:1051700003F062FE10BD000010B504F091FA1E4C61
:105180004721206849014118097A002909D1A03036
:105190000079C00729D004F00BF803F061FF10F08C
:1051A000D1FE00F003F92068014640310A78C97940
:1051B0008A4319D13E21095C002915D10F490A887B
:1051C000120711D50922D2061269497A836AC900E9
:1051D000591809231B02C018406D801A00020012E2
:1051E000814201DA0CF084FE10BD00F0C7FB02F032
:1051F00093FC0DF00FFED0E7C0290020C000002076
:1052000010B5837F0122002492024168082B03D944
:105210004224914202D310E0914201D242240CE098
:10522000014634220648FBF79EF900F07FF800287B
:1052300001DA482401E000F029F9204610BD000001
:10524000DC0200203EB5174D15482968827F0846CC
:10525000A0310A7300246030047644768476E1221B
:10526000C2768022027702224277302008704C708A
:1052700002AA01A96846FBF765F968460078A222F0
:1052800001016846007A891C0002014368460079E2
:105290000003014328681152A03004713EBD000094
:1052A000DC020020C029002070B504F0DDF90CF00C
:1052B000D3F80AF083FD11F059FC04F0ABFB184C55
:1052C00018492068184D4018811001202A68C00232
:1052D0001018816661688908C166A168890801673C
:1052E0000FF054FC1D2029688001228B08180287CA
:1052F000628B4287A28B4286628C82862046203057
:1053000002783B204001081882750021017000F0EE
:10531000C3FA03F0B3FE03F03BFE10F099FE70BD3C
:10532000DC0200200000FCEFC029002070B5002541
:10533000ED43FBF7AEFE01282ED0002318490322CF
:10534000888BFF24401E10438A7F4D3462438218AD
:10535000088B282460431218488B302460431218AD
:105360000846203040782C24604310180D4A181845
:1053700084184869A0420DD10B4884420AD90D69AE
:10538000FBF787FEC1B2284609F076F909F0A4FAC6
:10539000401B251A284670BDFF23B533CEE7000019
:1053A000DC02002035190000540A0000F8B52C4F2B
:1053B0003C68206E5C34401C002814D0002529482D
:1053C0000023C07B00283ED00926F6062648002D83
:1053D0001CD000210A460B464169521C994204D157
:1053E000002902D004E00125E9E7204B9A42F2D3DC
:1053F0002160006960603069A1680002090E000A3E
:1054000009060143A16000F033F81DE03169A2688C
:105410000902090A150E08D0018BC90712D041698B
:10542000216000696060E37210E0881A00027D2349
:1054300000121B03984205DD100E00060843A06011
:1054400000F016F8F8BD6360002DFBD003CC0CF023
:1054500079FCFA200CF066FC39688862F8BD00001F
:10546000C0290020FC020020000010488813000022
:105470000449002008610448012100686030C171BE
:105480007047000000001048C0290020F8B506262B
:10549000374840250560374800270780A9050920BF
:1054A000C0064160344A91600168016033490C696B
:1054B0004A690321601E08430021401CFBF757F88E
:1054C000FBF7E7FDC1B2204609F0D6F809F004FA6F
:1054D00009F00EFAFBF7B5FD294917208881294C00
:1054E000FA2220680146403047708A622821017004
:1054F000FBF764FD012805D12068102240300178B7
:1055000011430170FBF7DBFD012805D120688022E3
:1055100040300178114301702068A421095CC9075B
:1055200004D0014640310A782A4303E00146403165
:105530000A7832430A700021C9430166FBF724FA56
:10554000FFF780FEFFF7B0FE2068012120300177D1
:1055500007214177012003F04DFC06F00FFEFFF715
:1055600025FF03488038056002210160F8BD000076
:1055700080E100E0C000002040000048DC02002084
:1055800000001048C029002038B5184A1468224687
:10559000BA32AE34A378DD0701D001290AD05B0707
:1055A0000CD501290AD0217949070BD5E17A0029C8
:1055B00005D007E0E07880210843E07038BD012184
:1055C000E172508020794106090FF7D07821084018
:1055D00069460870002048706A460221422000F0A7
:1055E000B9FB207987210840207138BDC0290020EF
:1055F000F8B5054600276846077015484626046832
:10560000AE3420798006800F03D00021084608F0D0
:105610006FF8A078400718D520794C21084214D1A2
:105620000023287E6A4619460AF030FE00280DD174
:105630006846007828762F74284607F021FF060078
:1056400003D120794021084320713046F8BD000085
:10565000C029002038B51048002104680846AE343F
:1056600008F046F8694648702079C10704D0012146
:105670006A46117088432071C0B2810705D50221A6
:105680006A461170FD210840207102216A460846D1
:1056900000F060FB38BD0000C0290020FFB50C46BB
:1056A00078A103C995B001910090002108A8017369
:1056B0000321C90268464186012108A8734E01747E
:1056C00035681746AE3513F0B5FA002808D1704991
:1056D000306840180BF002F8A878002802D0462065
:1056E00019B0F0BD0BA81599FBF7A3FC0028F7D162
:1056F000072010A90871012C05D0022C0AD0002C1B
:105700000ED04220ECE708A8017B1020014308A836
:10571000017305E011A90BA8FBF748FC0028DFD1B5
:1057200010A8027901230CA9284601F081FF002866
:105730007ED1022229461898FAF715FF2988684673
:1057400081811521490201820784012686734E2139
:1057500008A881700024C470067107214171867108
:1057600003A902A801F01EFD002861D1022202A9AE
:105770001E98FAF7F8FE082F02D26846478502E025
:1057800008206946488569460C850B4628880AAA80
:10579000098902F0CBFD00286DD13E49684601829F
:1057A0000227078408A8847103A902A801F0FAFC63
:1057B000002860D1022202A91F98FAF7D4FE684699
:1057C0000470694644704F850B4628880AAA0989E7
:1057D00002F0ACFD00284ED108A8007BC00723D002
:1057E0002C496846C91C01820821018408A88770D9
:1057F000047103A902A801F0D5FC00283BD1FF21C8
:105800006846C1718171C1708170417001704471CD
:1058100004716946082048850B4628880AAA098928
:1058200002F084FD002826D108A8007B800600E055
:1058300021E022D52988684681811649A531018257
:105840000684867308A88770C470047107214171AB
:10585000847103A902A801F0A5FC00280BD16946B8
:105860000E700C854E850B4628880AAA098902F01D
:105870005DFD002801D0472032E708A8007BA87012
:1058800000202DE7626C75656E726721C0290020CB
:10589000DE060000012A0000034800210068AE3047
:1058A000C170817070470000C029002070B50D4B99
:1058B0001C68AE342379DD0612D45B0710D533287B
:1058C0000ED1E07A02280BD1042010700020507015
:1058D000C9B2022000F03EFA2079FB210840207175
:1058E00070BD0000C029002038B5024617480124C9
:1058F0000068AE30022A1FD0052A03D0072A07D03D
:105900000B2A20D1084609794088FFF73DFE1AE0AE
:1059100000790024020600D50124820703D1C206C3
:1059200001D480060FD5084600216A4611706946E9
:1059300000F0FCF8044606E08178490703D50179B8
:10594000FB2211400171204638BD0000C029002013
:1059500010B509480468AE34E07880070BD5002004
:105960000BF0D6FB022000F0CDF9E07801210843CE
:10597000FD210840E07010BDC02900201FB50E4871
:105980000468AE34E078010612D5A178C9070CD0BE
:10599000800708D5042069460873684603F05CFF59
:1059A000022000F0AFF90020E0704006400EE070E9
:1059B000FBF743FB1FBD0000C0290020F0B58DB0F0
:1059C0000C4616A9E0C90021089109910A910B9192
:1059D0001599049105A9E0C112A962C9009301912A
:1059E00013460146039602952246012000F0D0F8A6
:1059F0000DB0F0BD002000B58DB00A900B9008905E
:105A000009900590069007900490009001900290F4
:105A1000034602460146039000F0BAF80DB000BDFF
:105A2000F0B5104C4625246885B0AE34A6787607CC
:105A300014D52679B3273E4210D10AF037FD050070
:105A40000CD1207902210843207106206946087391
:105A50000520C0020290684603F0B0FE284605B05B
:105A6000F0BD0000C02900200949B22209681423B2
:105A7000525CBA311A4208D0498800050905090D5F
:105A8000000D814201D101207047002070470000C5
:105A9000C029002002780907090F0A43027000207C
:105AA0007047000030B50E4885B005682C46AE350D
:105AB0002879BA34400711D5E87A01280ED115218A
:105AC0004902684641800121017060886B46054AA1
:105AD00000F008FB002801D10220E87205B030BDBB
