:020000041004E6
:1000000000600020150E0410C10D0410C30D041073
:10001000AA5555AA45554C420000000000000000BA
:10002000000000000000000000000000C50D0410EA
:100030000000000000000000C70D04101D30041077
:100040002D300410C90D0410000000000000000055
:1000500025300410CB0D041015300410D70D0410FA
:100060000000000000000000000000000000000090
:1000700000000000D90D0410653004107530041024
:1000800000000000CD0D0410CF0D0410D10D0410A0
:10009000D30D0410D50D0410BD0D0410BF0D0410B8
:1000A0000000000000000000000000000000000050
:1000B0000000000000000000000000000000000040
:1000C000F0B543464C4655465E466746F8B40E4C7E
:1000D0006B4623600D4C20680D4C20600D4C206851
:1000E0000D4C20600D4C20680D4C2060BFF34F8FED
:1000F00030BF054C2468A546F8BC9846A146AA46E0
:10010000B346BC46F0BDC0460800002004ED00E048
:100110008813002024ED00E07C13002000E200E0C2
:100120008C13002002780B78002A03D001300131B3
:100130009A42F7D0D01A70470023C25C0133002ADC
:10014000FBD1581E7047000002B4714649084900AF
:10015000095C49008E4402BC7047C0460022430837
:100160008B4274D303098B425FD3030A8B4244D37F
:10017000030B8B4228D3030C8B420DD3FF220902C1
:1001800012BA030C8B4202D31212090265D0030B80
:100190008B4219D300E0090AC30B8B4201D3CB0376
:1001A000C01A5241830B8B4201D38B03C01A5241B8
:1001B000430B8B4201D34B03C01A5241030B8B42BA
:1001C00001D30B03C01A5241C30A8B4201D3CB02A5
:1001D000C01A5241830A8B4201D38B02C01A52418A
:1001E000430A8B4201D34B02C01A5241030A8B428D
:1001F00001D30B02C01A5241CDD2C3098B4201D3A5
:10020000CB01C01A524183098B4201D38B01C01A22
:10021000524143098B4201D34B01C01A5241030999
:100220008B4201D30B01C01A5241C3088B4201D348
:10023000CB00C01A524183088B4201D38B00C01AF5
:10024000524143088B4201D34B00C01A5241411A1C
:1002500000D20146524110467047FFE701B5002029
:1002600000F0F0F802BDC0460029F7D076E77047ED
:1002700003460B437FD4002243088B4274D3030907
:100280008B425FD3030A8B4244D3030B8B4228D3A8
:10029000030C8B420DD3FF22090212BA030C8B42CE
:1002A00002D31212090265D0030B8B4219D300E06E
:1002B000090AC30B8B4201D3CB03C01A5241830BF3
:1002C0008B4201D38B03C01A5241430B8B4201D3A3
:1002D0004B03C01A5241030B8B4201D30B03C01ACC
:1002E0005241C30A8B4201D3CB02C01A5241830A46
:1002F0008B4201D38B02C01A5241430A8B4201D375
:100300004B02C01A5241030A8B4201D30B02C01A9E
:100310005241CDD2C3098B4201D3CB01C01A524105
:1003200083098B4201D38B01C01A524143098B428E
:1003300001D34B01C01A524103098B4201D30B0177
:10034000C01A5241C3088B4201D3CB00C01A52419C
:1003500083088B4201D38B00C01A524143088B4261
:1003600001D34B00C01A5241411A00D201465241FA
:10037000104670475DE0CA0F00D04942031000D319
:100380004042534000229C4603098B422DD3030A6E
:100390008B4212D3FC22890112BA030A8B420CD37E
:1003A000890192118B4208D3890192118B4204D3A7
:1003B00089013AD0921100E08909C3098B4201D327
:1003C000CB01C01A524183098B4201D38B01C01A61
:1003D000524143098B4201D34B01C01A52410309D8
:1003E0008B4201D30B01C01A5241C3088B4201D387
:1003F000CB00C01A524183088B4201D38B00C01A34
:100400005241D9D243088B4201D34B00C01A52410A
:10041000411A00D20146634652415B10104601D397
:100420004042002B00D54942704763465B1000D321
:10043000404201B5002000F005F802BD0029F8D0C7
:1004400016E770477047C046437802781B021A438C
:100450008378C0781B041343000618437047C046D6
:10046000030A4B70030C8B70030E0870CB7070473F
:1004700003005A7800781202024398781979000430
:100480000243D878000610435A7912020A43997938
:1004900009040A43D979090611437047030A5370C6
:1004A000030C9370030ED3700B0A53710B0C9371F2
:1004B0000B0E10701171D3717047C046024A136859
:1004C000013313607047C04610030020C021074A63
:1004D000074B08485360036A09061B021B0A0B43BB
:1004E00003620023936007331360704710E000E05D
:1004F0007E3E000000ED00E00E4AD3691B061B0F94
:100500004370D9B2D3690C4A1B071B0F83700B4B86
:100510001B68436093420BD102230370002901D171
:1005200001234370064B9B8A01339B008360704715
:100530000123F2E70000904041A000022800904013
:1005400000001040F0B5070085B001AC0E0020009F
:100550001500FFF7D1FF23783B7063783370A378E1
:100560002B7005B0F0BD10B502F07DFF10BD10B5C9
:1005700002F094FF10BD10B502F066FF10BD0078C8
:10058000C0B27047024A138ADB07FCD57047C046E9
:1005900000001040084B10B51A68084B9A4209D168
:1005A0003F22074B40061A81000C2E3A98611A80B0
:1005B000FFF7E8FF10BDC04614000020CCBCECFCE7
:1005C00000001040084B10B51A68084B9A4209D138
:1005D0003F22074B80081A810C3A986119641A80EF
:1005E000FFF7D0FF10BDC04614000020CCBCECFCCF
:1005F000000010400379F7B50168002B30D180224C
:10060000D20553688B435360202580220021066861
:100610006D42D20533000124CB4023420DD0037933
:10062000CCB20193072924D80F238F00BB40D46A92
:100630009C43019BBB401C43D462013104351A2901
:10064000E8D180234279DB05012A39D1DA683243C7
:10065000DA608279012A36D19A6816439E60F7BD26
:10066000062BD1D1002380220371D20553680B439E
:10067000C9E72700083F072F08D80F27019BAF4085
:10068000AB40146BBC4323431363D6E7103C072CE9
:100690000AD82F000F23203FBB40546B9C43019B83
:1006A000BB401C435463C8E72F000F23403FBB40AF
:1006B000148F9C43019BBB401C43A4B21487BCE72E
:1006C000DA68B243C4E79A68B2439A60C7E7802306
:1006D000DB05D86370478023DB05186470478023EF
:1006E000DB05012901D1D86370471864FCE780223B
:1006F000D20513685840106070478022D205936A73
:100700001843906270478023DB055B6A1840431EE4
:100710009841C0B27047C02380221B06197852420C
:100720000A437F211A701A780A401A707047C02352
:1007300001211B061A780A431A701A788A431A7024
:100740007047C0231B0618688007C00F7047000061
:10075000024B1868431E9841C0B27047000400C0A5
:1007600030B50300012811D0022811D00120032B3D
:100770000BD1084A08000B0020301D685C1A0433B6
:10078000A5508342F9D10020106230BD024AF1E742
:10079000024AEFE7B40400C06C0400C0900400C03B
:1007A000030001280FD002280FD00120032B09D10C
:1007B000074B1A00C91A20321878C85401339342E3
:1007C000FAD100207047034BF3E7034BF1E7C04633
:1007D000B40400C06C0400C0900400C0044B1A6A4A
:1007E000012902D110431862704782431A62FBE765
:1007F00000009040054B0122196B002802D00A43EB
:100800001A63704791431963FBE7C046000030400C
:10081000F8B54A4C0500236B01681B0700D56DE055
:1008200009014748FFF79AFCC3099AB2A284454AD6
:10083000DB0101301340C01A400880B23F2802D9C2
:100840003F233F381840032760263F4BC0B2187043
:100850003E4B2A7918783A405201B0431043187041
:1008600001206979227F39404901B2430A43227746
:10087000AA7919780240BA400730814311431970B0
:10088000217F81430A432277EA79002A38D1022165
:100890001A788A431A70227F8A43012022772A7AA3
:1008A000216B1600C2402A4F064076023940314380
:1008B0002163216B274E0240314012020A4322631A
:1008C000697A226B0E00C140234F06403A40B603BE
:1008D00032432263226B214E01403240C90311434F
:1008E0002163AA7A197802400F3012018143114323
:1008F0001970237F83431A432277F8BDC90090E71C
:10090000022A0CD1042019781143197019788143F7
:100910001970217F0A432277227F8243BDE702219B
:100920001A780A431A700422187810431870207F2E
:1009300001432177217F0A43AFE7C04600003040E2
:100940000000127A80FF7F00280030402C003040E9
:10095000FFFDFFFFFFFEFFFFFFBFFFFFFF7FFFFF6A
:10096000044B1A8F002902D0104318877047824326
:100970001A87FBE700003040024BC005C00D18800D
:100980007047C04600003040014B1888C0B2704725
:1009900000003040054B002805DA5B681840431E14
:1009A0009841C0B270471B8BF8E7C046000030404A
:1009B000034B9B8F1840431E9841C0B27047C046FE
:1009C000000030400722024038200449D2000B7852
:1009D00083431800104308707047C046340030400D
:1009E000F0B583780178002B33D040784AB280018B
:1009F000002A1BDA0F230B40083B1B4A9B089B0075
:100A00009B18FF22032517000D40ED00AF40024068
:100A1000AA40DE69BE433243DA611F224B0911400E
:100A20001E3A8A4011499B00CA50F0BDFF270F4B68
:100A300092089200D21803233C00C0250B40DB0033
:100A40009C4038409840AD005659A6433043505121
:100A5000E3E71F234A090B40012199401300034A91
:100A600020339B00D150E0E700ED00E000E100E022
:100A700070B5012186B006000920FFF7AFFE00F037
:100A800083F81C4B01388000C3580024019300F008
:100A90007BF8194B0138800001ADC35828002B7139
:100AA000AC716C71FFF7A6FD00F06EF8134B0138C6
:100AB0008000C358019300F067F8114B01388000A3
:100AC000C35828002B71FFF795FD0125032303A8C8
:100AD0000371437103728471C47144728572039609
:100AE000FFF796FE2000FFF76DFF2800FFF782FE5C
:100AF00006B070BD6889051064890510608905100D
:100B00005C890510042313B5040001A80370013BA0
:100B100043708470FFF764FF21001020FFF720FF6F
:100B200013BD00000B4A10B513680B49002B00D110
:100B3000116080241368640118180919884205D9C6
:100B40000C220120054B40421A6010BD10601800B5
:100B5000FBE7C046141300201403002038290020AE
:100B600010B502F080FC10BD10B502F07CFC10BD89
:100B700010B50A00002102F091FC10BD0122014BCA
:100B80001A70704718130020014B1878C0B27047D4
:100B90001813002010B50F4C01280AD0002801D0EE
:100BA00002280ED0FFF7F0FF431E0C2058432058B8
:100BB00006E0FFF7E9FF431E0C2058432018406869
:100BC00010BDFFF7E1FF431E0C205843201880683A
:100BD000F6E7C0466C89051010B5FFF7DBFF012171
:100BE000FFF77DFD10BD10B50AF004FF10BD10B574
:100BF0000AF01AFB10BD10B50AF0D0FD10BD7FB58C
:100C00000BAE368808AC09AD2D88248803960A9E61
:100C10000195029600940AF0DDFF7FBD7FB508AC18
:100C200020CC0AAE247836780194029600950AF01A
:100C300013FF04B070BD10B503F0D6FE10BD10B5A3
:100C40000CF008FC10BD01207047F0B58DB012AC5F
:100C5000247809930A9413AC248818AB1B880B944E
:100C600015AD14AC16AE17AF24882D8836883F8892
:100C700006930B9B059701930A9B0496009303959B
:100C80000294099B03F096F80DB0F0BD10B503F087
:100C90004AF910BD10B503F05DFC10BD10B503F0AE
:100CA000D7FD10BD10B50EF029FE10BD10B50CF02B
:100CB000D1FA10BD10B50BF0D9FD10BD10B503F081
:100CC00069FE10BD10B503F06DFE10BD10B508F043
:100CD00029FB10BD10B511F049FD10BD10B511F084
:100CE0002DFB10BD10B511F03BFE10BD10B511F07D
:100CF0004DFB10BD10B50BF0ABF810BD10B508F0F2
:100D0000E7F810BD10B50BF0C1FA10BD10B50BF02F
:100D1000EFF810BD10B50BF003FA10BD01207047BD
:100D200010B507F065F910BD10B513F027FE10BD22
:100D300010B513F0F5FD10BD10B513F0D7FD10BDC3
:100D400010B513F0E1FF10BD0120704710B514F08D
:100D500035F810BD10B514F01BF810BD10B512F029
:100D6000E3FA10BD10B512F0FFFA10BD10B512F085
:100D70008DFB10BD10B512F053FA10BD10B512F076
:100D80006FFA10BD10B512F095FA10BD10B512F043
:100D900001FB10BD10B512F01FFB10BD10B511F016
:100DA0002BFB10BD10B511F0FAFA10BD10B511F003
:100DB00001FE10BD10B511F015FD10BD7047704754
:100DC000704770477047704770477047704770476B
:100DD000704770477047704770470000002210B599
:100DE000084B1A60084B1B7A934209D1074B1B89A9
:100DF000052B05D9064B01321A70FFF77AF9FEE789
:100E0000012010BD14000020000090400000104898
:100E10000C00002070B5FFF7E1FF012817D1002377
:100E200014481549154C1A188A4216D30023144841
:100E30001449154C1A188A4213D30021134B144A33
:100E4000934212D30021134B134A93420FD3134BF7
:100E500083F3088801F06AFE70BDE558043315601D
:100E6000E1E7E55804331560E4E702C3E8E702C3AD
:100E7000EBE7C0464829002020300020809A05106A
:100E80000800002034000020549A0510C000002003
:100E9000CC020020CC020020482900200060002065
:100EA000002210B5104B995CC9B2002917D11C2A39
:100EB00014DC022021249854501C1C54901C193C12
:100EC0001C54901D19549B18802290219BB25202F1
:100ED0001343C905CB60CB681342FCD110BD995CAC
:100EE00001315218D2B2DEE7191300200023F0B509
:100EF000144AD45CE4B2002C1ED1192B0FDC02255D
:100F00003B275E1CD55497555E199055DE1C9555B0
:100F100035261D1D56555D1D06335155D4540222EC
:100F20003B24094B1A705C709870DA7033321A7176
:100F3000002259719A71F0BDD45C01341B19DBB2E7
:100F4000D7E7C046191300208013002070B58AB07F
:100F500003AC06000D0019223D49200002F083FA7F
:100F60006846FFF7C9FA002E59D04023A3732C33EB
:100F7000E372113B2375374B374A1B68190C9142BA
:100F800008D17020E17D1B018143E175E17D0340C3
:100F90000B43E375314B1B68190C914208D130208B
:100FA00061791B0181436171617903400B43637176
:100FB0002B4B1B68190C914207D10321E27D0B409A
:100FC0008A43E275E27D1343E3750422E37A6946BE
:100FD0009343E3726B465B78897893400B43112B04
:100FE00008DDE37D1A43E275E07AE17DC0B2C9B263
:100FF000FFF77CFF802390222404240C5B021C4317
:10100000D205D460D1681942FCD16B466A465B7840
:1010100092781B011343112B01DDFFF741FF114BA8
:101020001A8B002AFCD001221A8316329A810022E0
:101030001A61954207D090231021DB0518691A69BF
:1010400042400A42FBD0084A084B1A600AB070BD01
:1010500034890510E807001055AA0000E4070010C5
:10106000B007001000001048CCBCECFC14000020BD
:101070000822C021F8B53F4B3F4D9A803F4A0904F2
:10108000136AFF202B400B43C0211362136A090629
:101090001B021B0A0B431362C02292009446384B7A
:1010A00064469A58374E82433F38024360461A508E
:1010B0001A58C0203240000202431A51C122FF27B1
:1010C00092009C58BC433F3F3C439C509C583F3748
:1010D000344004439C509C582C409C509C58240203
:1010E000240A0C439C500832944664469A58324075
:1010F00002431A511A59C0242A4024042243644648
:101100001A511A591202120A0A431A51C4229200A1
:10111000944664469A58324002431A511A59C024E0
:101120002A402404224364461A511A591202120A10
:101130000A431A51C52292009C58BC432700C02480
:101140002743C0249F509F5824043E40304398506A
:10115000985805402C439C5098580002000A0143BF
:10116000995001210800FFF7F1FE074A074B1A6268
:1011700062B6F8BD00001040FFFF00FF00ED00E088
:1011800000E100E0FF00FFFF66000E00000090405D
:1011900000B50300032923D80800C522FEF7D4FFB9
:1011A000022123251B21197000215A70D522597163
:1011B000B43199711A39D97147311972D0395972CC
:1011C000293199729531D9724F399A701973303A21
:1011D0001239DA705973A33A38391A719973DA737C
:1011E00000BD3B21DFE73C21DDE73D21DBE70000DF
:1011F0002A23F0B58BB006AC23709B336370D523E4
:10120000A370A523E37000236371B433A3719A2301
:10121000E371E1232372112363723A23A372CF2374
:10122000E372802323736E23022563733623764E85
:10123000102221003000A3732571E573FFF793F9A5
:10124000724A734B31001B7828000092012202F091
:10125000A4FE071E06D002206E4900F00BFB4720BB
:101260000BB0F0BD2B2323709A336370D523A3708A
:10127000A523E370B423A3719A23E371E1232372BE
:10128000112363723A23A372CF23E3728023237363
:101290006E2363733623604E60711022210030008C
:1012A000A3732571E573FFF75EF9584B3200188878
:1012B0005A4B0497059310230297039301970095C7
:1012C0000F3B290002F04AFE071EC4D12C232370D5
:1012D00099336370D523A370A523E370B423A3715E
:1012E0009A23E371E1232372112363723A23A372D9
:1012F000CF23E372802323736E23637336236071DD
:10130000102221003000A3732571E573FFF72BF93C
:101310003E4B32001888424B0497059310230297E6
:101320000393019700950C3B290002F017FE071E5E
:1013300000D090E72D23237098336370D523A370DA
:10134000A523E370B423A3719A23E371E1232372ED
:10135000112363723A23A372CF23E3728023237392
:101360006E23637336236071102221003000A37353
:101370002571E573FFF7F7F8244B32001888294BE5
:1013800004970593102302970393019700950F3B51
:10139000290002F0E3FD071E00D05CE72E23237036
:1013A00097336370D523A370A523E370B423A3718F
:1013B0009A23E371E1232372112363723A23A37208
:1013C000CF23E372802323736E236373362360710C
:1013D000102221003000A3732571E573FFF7C3F8D5
:1013E0000A4B32001888104B04970593102302977C
:1013F0000393019700950F3B290002F0AFFD0028F1
:1014000000D028E72CE7C0462C190020EE1400205D
:1014100099290020A5890510F41400200419002042
:1014200008190020F21400203C1900201A23F0B5FE
:101430008BB006AC2370BB33A370A523E3700023ED
:101440006371B433A3719A23E371E12323721123EF
:1014500063723A23A372CF23E372802323736E2334
:1014600002256373C5273623284E10222100300041
:10147000A37367702571E573FFF775F8244A254B50
:1014800031005B7828000092012202F086FD061EE2
:1014900006D00220204900F0EDF947200BB0F0BD46
:1014A0001B232370BA33A370A523E370B423A37165
:1014B0009A23E371E1232372112363723A23A37207
:1014C000CF23E372802323736E2363733623677005
:1014D000124F6071102221003800A3732571E5734B
:1014E000FFF741F80A4B3A0018880D4B0496059314
:1014F000102303930F3B02931D33009301960B3B84
:10150000290002F02BFD0028C3D1C7E72C190020C9
:10151000901300209929002078890510F4140020E8
:10152000061500203A23F0B58BB006AC2370C52316
:101530006370D523A370A523E37000236371B433D4
:10154000A3719A23E371E1232372112363723A2377
:10155000A372CF23E372802323736E230225637368
:1015600036235F4E102221003000A3732571E573EE
:10157000FEF7F9FF5B4A5C4B31009B782800009234
:10158000012202F00AFD061E06D00220574900F093
:1015900071F947200BB0F0BD3B2323708A33637091
:1015A000D523A370A523E370B423A3719A23E37119
:1015B000E1232372112363723A23A372CF23E372D0
:1015C000802323736E2363733623494F6071102287
:1015D00021003800A3732571E573FEF7C4FF414B6A
:1015E0003A001888434B04960593102303930F3B4E
:1015F00002931D330196009329000B3B02F0AEFCD1
:10160000061EC2D13C23237089336370D523A37097
:10161000A523E370B423A3719A23E371E12323721A
:10162000112363723A23A372CF23E37280232373BF
:101630006E23637336236071102221003800A37378
:101640002571E573FEF78FFF264B3A0018882A4B69
:1016500004960593102303930F3B02930D330196D9
:1016600000932900053302F079FC061E00D08CE7B8
:101670003D23237088336370D523A370A523E370C3
:10168000B423A3719A23E371E123237211236372BC
:101690003A23A372CF23E372802323736E236373F1
:1016A00036236071102221003800A3732571E57381
:1016B000FEF759FF0B4B3A001888104B0496059320
:1016C000102303930F3B02930D33009301960633CF
:1016D000290002F043FC002800D056E75AE7C04634
:1016E0002C1900200C190020992900208D89051043
:1016F000F414002006190020601400206814002053
:101700001FB504000D4800F0CDF80D4B1A880D4BA5
:1017100019880D4B18881323039400240293009317
:101720000194123B02F07CFCA04204D00220074945
:1017300000F0A0F8472004B010BDC0467A8A05101A
:10174000061900200C190020401300209A8A051069
:101750007FB500221D4B1E4D03AC198822702888CE
:101760000123009402F052FC1A49061E28D11A499E
:10177000200001F09BFE194B288819883200009444
:10178000042302F043FC1649021E19D1154B288888
:101790001B782370144B19880094012302F036FC47
:1017A0001249021E0CD1124B28881B782370114B52
:1017B00019880094012302F029FC002804D00E4966
:1017C000022000F057F8472004B070BD0419002033
:1017D000EE140020BB890510E589051008190020CA
:1017E000EA89051004150020F2140020198A05105A
:1017F0000E1900203C190020488A05100023094AD0
:101800001360094A1370094A1370094B094A5A6058
:10181000094A9A60094ADA60094A1A61094A5A6112
:101820007047C04664140020EC140020F01400201F
:101830006C140020C48A0510D38A0510E38A0510B1
:10184000F28A0510028B0510074B01201B68002B44
:1018500008D1064B1B78002B04D1054B1878431E8A
:101860009841C0B27047C04664140020EC140020B8
:10187000F014002010B50C00074B8000C05800F099
:1018800011F8064800F00EF8200000F00BF80448AC
:1018900000F008F810BDC0466C140020AE8D051095
:1018A0009F8C051010B501F020F910BDF7B50500AB
:1018B000134801F01AF905240F262B5D1A091100AF
:1018C0003731092A01D83032110033401A0001A8FB
:1018D00001703732092B01D830331A0000234270CF
:1018E0008370671E01F001F9002C05D0054801F056
:1018F000FCF83C007B1CE0D1034801F0F6F8F7BD92
:10190000A78D0510AD8D05109F8C0510F0B50E004C
:1019100085B001AF04000B221149380001F0A3FD8E
:101920003500002C03DA2D23751C3370644220002F
:101930000A210135FEF79CFC0028F9D1287020000F
:101940000A21FEF77BFD7B5C013D20002B700A2104
:10195000FEF78EFC041EF2D1300005B0F0BDC0468B
:10196000748D05101FB501A9FFF7D0FF01A801F084
:10197000BCF805B000BD0000F0B5CD4C8DB000AF97
:10198000210001F09BFDCB490600FEF7CBFB0028B0
:1019900009D1C94801F0A9F8C84801F0A6F8C8481B
:1019A00001F0A3F848E0C7493000FEF7BBFB002870
:1019B00001D1C548F4E7C5493000FEF7B3FB002864
:1019C00016D1012302003B757875B8611423FB180A
:1019D0001B1801301A721328F8D143233B77BC330C
:1019E0007B77EF3BBB770433F81801F061F923E014
:1019F000B7493000FEF796FB051E20D100F0E8FE47
:101A0000B44801F072F8B44801F06FF80626B34804
:101A100001F06BF82800FFF7A5FFB148092D00DDA4
:101A2000200001F062F830006843AE4B0135C01869
:101A3000FFF73CFF202DEAD1BD460DB0F0BDAA490D
:101A40003000FEF76FFB002838D1092302003B75F8
:101A5000063B7B75B8611423FB181B1801301A7202
:101A60001328F8D12100002001F028FD002801D121
:101A70009E4895E701F0E2FC21003877002001F054
:101A80001DFD0028F4D09A4D0124290001F016FD17
:101A9000002801D11423A7E7072C0DD01022002124
:101AA00001F0EAFD1423FB181B191872290000200D
:101AB000013401F003FDEBE78E4871E78E493000F9
:101AC000FEF730FB051E75D16B462100FB6001F06F
:101AD000F5FC002803D1894801F007F857E001F030
:101AE000ADFCC3B2060086481F2BF5D821002800A4
:101AF00001F0E4FC0028EED001F0A0FCB8603B7AD5
:101B0000210028007B6001F0D9FC041EE3D07D4851
:101B100000F0EBFFFF231E403000FFF723FF7A4861
:101B200000F0E3FF06235E436E4BF6183000FFF72C
:101B3000BDFE764800F0D9FFFF23B8681840FFF7D4
:101B400011FF734800F0D1FF200000F0CEFF5C4889
:101B500000F0CBFF14237968F818FFF719FB200079
:101B6000FEF7EAFA6B4640080730C008C0001B1AAF
:101B70009D46BB602000FEF7DFFAA8420AD8142376
:101B80004008C1B2FB18BA68300000F0D3FAFB6815
:101B90009D4651E710220021635DB8183B7463191C
:101BA0005B78B9747B7401F067FDBA686B10D05430
:101BB0000235DFE757493000FEF7B4FA051E00D0C2
:101BC000B6E06B462100FB60B86101F077FC0028AD
:101BD00001D1514880E70A22290001F04DFDC0B231
:101BE00038750A2801D94D4876E72100280001F010
:101BF00065FC0028EDD00A22002101F03DFD210006
:101C00007875002001F05AFC041EE2D0444800F030
:101C10006CFF387DFFF7A6FE424800F066FF787D36
:101C2000FFF7A0FE404800F060FF200000F05DFFDD
:101C3000234800F05AFF2000FEF77EFA6A46460865
:101C4000F31DDB08DB00D31A9D462000BB60FEF7C6
:101C500073FA272810D935483EE710220021635D2A
:101C6000B8183B7463195B78B9747B7401F004FD98
:101C7000BA686B10D05402352000FEF75DFAA84216
:101C8000EBD8002319009E420BD81422BA18D218A0
:101C900011720133132BF6D10133F81801F008F853
:101CA00075E7BA68D05C1422BA18D2181072F0E73F
:101CB0000C8C0510108B0510188B0510E58905108C
:101CC0009F8C0510328B0510378B0510DF8B0510AC
:101CD000E68B0510EF8B0510FD8B0510378D051079
:101CE0000B8C0510AD2100200E8C0510168C0510F4
:101CF000DD940510318C05103E8C0510458C0510C7
:101D00008E8C0510A18C0510BE8C0510C68C05109C
:101D1000D18C0510DD8C0510E58C0510108D05109B
:101D2000238D05103C8D0510498D0510538D051030
:101D3000004835E6618D051070B50400134800F0C9
:101D4000D4FE134800F0D1FE2078FFF70BFE1148B7
:101D500000F0CBFE6078FFF705FE0F4800F0C5FEEF
:101D60006068FFF7FFFD25000C4800F0BEFE083557
:101D70001B340B4800F0B9FE28780135FFF7F2FD5F
:101D8000A542F6D1074800F0B0FE70BD7F8D05106A
:101D9000888D05108D8D0510928D0510998D05107B
:101DA0000C8C0510A38D051070B50400104800F0D0
:101DB0009CFE104800F099FE2078FFF7D3FD0E48F6
:101DC00000F093FE6078FFF7CDFD0C4800F08DFE2B
:101DD000A51C15340A4800F088FE28780135FFF765
:101DE000C1FDA542F6D1074800F07FFE70BDC04698
:101DF000B18D0510BA8D0510C08D0510CC8D051064
:101E00000C8C0510A48D051010B5FEF7B7FEE1206F
:101E10004002FEF72DFE0120FEF774FE0148FFF799
:101E200041FD10BDD78D051070B5434A86B006211F
:101E3000002002F01CF9002803D040490220FFF7DF
:101E400019FD0521012002F00EF902F0DBF83C49F2
:101E5000041E25D13B4B3C4D3C4E019301000096A6
:101E60002B001022052001F0D2FF041E09D0022011
:101E70003749FFF7FFFC2000FFF774FD200006B094
:101E800070BD32881026334B298803930296019047
:101E90000096030002F0C4F80400051E04D02E4989
:101EA0000220FFF7E7FCE9E72C4B0121039307230E
:101EB000049002900093020003000196080001F0D4
:101EC000BFFF2749041EEBD12648FFF7EBFCFFF7C5
:101ED0008FF9041E08D12448FFF7E4FCFFF7A6FAA7
:101EE000041E03D02149DBE72149D9E72148FFF748
:101EF000D9FCFFF717FB041E01D01F49D0E71F488C
:101F0000FFF7D0FC1E4B1C78002CB7D01D4800F00A
:101F1000FDFC8021C9012B002A000800FEF7B6FE57
:101F2000041E05D018490220FFF7A4FC2C00A5E7E9
:101F30001648FFF7B7FCA1E7A3290020DF8F0510A3
:101F40000290051014230020302300201A230020C3
:101F500019900510382300202F90051040E2010051
:101F60005790051087900510AB900510099105104A
:101F7000CC900510E99005104891051025910510A9
:101F8000C82000209D29002067910510959105101B
:101F900010B51148FFF786FC1048FFF787FC104882
:101FA00002F0AEF8002806D00E490220FFF762FCCE
:101FB00001220D4B1A70FFF737FF002807D00B499D
:101FC0000220FFF757FC0122074B1A7010BD08488A
:101FD000FFF768FCFAE7C046698F0510A3290020C7
:101FE000F48D0510828F0510F0140020AA8F0510C3
:101FF000C08F0510092330B501248FB009AD134AF5
:102000002B70631ED35C2B550134112CF9D10021A8
:10201000080006F085F90020F022C82106900590FE
:10202000049003900295019400900300D200C9002F
:1020300001F04EFF002805D005490220FFF71AFCE9
:102040000FB030BD0348FFF72DFCF9E7382300201F
:1020500091920510B392051010B501F05AFF041EBD
:1020600005D005490220FFF705FC200010BD0348FC
:10207000FFF718FCF9E7C046DB9205100193051045
:10208000FA2210B5D20088B02821069205923C228F
:1020900002910191802104920022C9010300039260
:1020A00000920800FEF7D1FD041E06D00D49022063
:1020B000FFF7E0FB200008B010BD0B48FFF7F2FB74
:1020C0000A4C0B4B1B68002B07D1002C01D1FF34AD
:1020D000F0E701F0D1FF013CF3E763425C41644269
:1020E000E4B2E7E7C9910510EA910510A086010066
:1020F0003C13002070B50C4D47242B68002B11D0E9
:102100000A4B1321188880B201F011FF041E06D07B
:1021100007490220FFF7AEFB04E001F0ADFF2B689A
:10212000002BFAD1200070BD3C130020401300208A
:102130002D930510F0B5060089B03F481C000291B0
:102140000392FFF7AFFB3D4F3B68002B60D03C484C
:10215000FFF7A8FB3B4D3B68002B08D0002D02D1B8
:10216000FFF7C8FF05E001F087FF013DF3E7002D11
:10217000F6D03000FFF784FF002852D104AD1022C2
:1021800021002800FEF7EFF926002F48FFF78AFB11
:1021900010362078FFF7E6FB01342C48FFF782FB6E
:1021A000B442F6D12A4C2000FFF77CFB294E0223D3
:1021B0003088294A80B20095012101F00FFF274B9A
:1021C0001A88002A27D000221A803088198880B205
:1021D000013189B2039B029A01F041FF051E09D02B
:1021E0001F490220FFF746FB2800FFF7BBFB20003A
:1021F000FFF758FB1B4B1A78002A0FD000221A70E9
:10220000FFF778FF1848FFF74DFB002009B0F0BD3D
:10221000FFF722FFADE701F02FFFD0E701F02CFF21
:10222000E8E7FFF7E7FE11490220FFF723FB300044
:10223000FFF73CFBE6E7C046009205103C13002088
:1022400013920510A08601002E9205100C8C05102B
:102250009F8C051040130020FFFF00004413002056
:102260003892051042130020799205105D920510F6
:1022700010B50248FFF716FB10BDC046348E05109E
:1022800010B50248FFF70EFB10BDC046288E0510A2
:1022900001220A4B10B51A60094B0A481980FFF752
:1022A00001FB0298FFF702FB0023074A0299C95C71
:1022B000D1540133062BF9D110BDC0463C13002088
:1022C00040130020598F0510201900200023012100
:1022D000054A10B51360054A05481170054A138078
:1022E000FFF7E0FA10BDC0463C1300209C290020F7
:1022F000208F05104013002010B504000348FFF79D
:10230000D1FA200001F064FE10BDC046FF8E05101A
:10231000F7B50400074816001F000D00FFF7C2FACA
:1023200000230197009629001A00200001F089FE81
:10233000F7BDC046088F051070B53B4888B01D003A
:102340000E000C9CFFF7AEFA384B1B8801339E42FF
:1023500006D122001321012000F04AFE08B070BD12
:10236000334B1B8801339E4244D12278637801A805
:1023700002704370092A15D0E278A37812021A433A
:1023800023791B041A4363791B061343436000231C
:10239000284CE15CC21801331172132BF9D100F003
:1023A00087FCDBE700224260012B0CD1A278224B94
:1023B0001A70E278214B1A702279214B1A706279D7
:1023C000204B1A70E3E7022BE1D1A2796379120264
:1023D0001A43E3791B041A43237A1B0613431A4A50
:1023E0001360A278144B1A70E278184B1A70227995
:1023F000174BE6E7174B1B8801339E4207D100239A
:102400000C4AAB42AADAE15CD1540133F9E7124B32
:102410001B8801339E42A1D10023104AAB429DDAB2
:10242000E15CD1540133F9E7638E051006150020F5
:102430006814002000230020322300202F230020D6
:102440001623002017230020342300201823002007
:102450001923002006190020601400201C230020EE
:1024600010B50C1E0CD00A490220FFF703FA0948E8
:10247000FFF718FA2000FFF775FA0748FFF712FA7E
:102480000648FFF70FFA0122054B1A7010BDC0462F
:10249000C18E0510E08E05109F8C0510ED8E051085
:1024A00042130020F8B515001E000E480F00FFF77C
:1024B000F9F90D48FFF7F6F92800FFF753FA340051
:1024C000A31B9D4205DC0948FFF7ECF9084B1F8070
:1024D000F8BD0848FFF7E6F92078FFF743FA013422
:1024E000EEE7C046758E0510B48E05109F8C051062
:1024F000441300200C8C051010B50248FFF7D2F9E8
:1025000010BDC046128F0510F7B514240E000D0043
:1025100044430C19A54200D1F7BD2B78002B17D1ED
:10252000B11C06226846FEF71EF80A48FFF7BAF902
:102530006846FFF7BBF9084F6846390000F004FA17
:10254000002805D00548FFF7ADF9380000F0DEF9A6
:102550001435DFE72E8F05109D290020358F0510DB
:1025600070B586B0022840D12148FFF79BF90622BA
:10257000204904A800F077FF1F4D04A8290000F0AF
:10258000E3F9041E31D11D48FFF78CF92800FFF74D
:102590008DF91B4E2B5D33550134062CFAD100F01A
:1025A00071F932002100002001F061FD002803D004
:1025B00014490220FFF75EF9134B00201A88134BD1
:1025C0001988134B01900393102302930093030087
:1025D00001F026FD002803D00E490220FFF74AF93A
:1025E00000F048F900220C4B1A7006B070BDC046CE
:1025F000438E05104D8905109D290020528E05102F
:10260000A3290020DF8F05101A230020302300208B
:10261000382300202F900510C8200020012110B57C
:102620000800FEF7DBF810BD07B506236A461371F4
:1026300000230090684693715371FDF7DBFF07BDDF
:1026400010B51948FDF79BFF184C20701848FDF78E
:1026500096FF184B18701848FDF791FF174B18702C
:102660001748FFF71FF92078FFF77CF91548FFF7A7
:1026700019F9154B154AFF211360002314488900EE
:1026800004338B420AD10023124913481A1DA42A8D
:1026900006D100F077F9FFF77BFC10BDD050EFE7D3
:1026A000C8501300F2E7C04680EF07100E19002053
:1026B00081EF07100415002082EF07100A1900208F
:1026C000519305109F8C0510281900200815002033
:1026D00064140020C0130020EC140020024B800082
:1026E000C15000207047C04608150020024B8000F2
:1026F000C15000207047C046C0130020044B80002A
:10270000C3581868034B1B68984200D102487047B1
:102710000815002064140020FFFF0000F8B5234BCB
:102720001B78282B05D9FF22214B1A7028231F4A1A
:10273000137001261F4D2800FDF721FF0400FFF74D
:1027400011F91D4FA400E2591C4B12689A4202D1A4
:102750003000FFF769FF3B5901351E60184B7600CA
:102760009D42E8D10E24174BE018FDF708FF8000CA
:102770003B581C6001341E2CF5D100250B4B1B78F7
:102780009D4200DBF8BD104BEC1864002000FDF703
:10279000F6FE0600601CFDF7F2FE272E03D80B4B59
:1027A000B600F35818700135E8E7C0460A19002052
:1027B000EC14002090EF071008150020FFFF000028
:1027C0009EEF071092EF0710D8F70308C013002000
:1027D00070B5104D104C601EFDF7D1FE2870200022
:1027E000FDF7CDFE6870601CFDF7C9FEA870A01C47
:1027F000FDF7C5FEE870E01CFDF7C1FE2871201D45
:10280000FDF7BDFE054B0834687106359C42E2D1E8
:1028100070BDC046AD21002081BA071081BB0710F2
:1028200073B5114E050030000C00FFF73BF806228F
:1028300062430E4BD21800236846E95C1954D15408
:102840000133062BF8D13000009DFFF72BF8084B21
:102850002900E418E4002000FDF7B4FE6B46201DBB
:102860009988FDF7AFFE73BDAB930510AD21002035
:1028700050F7000210B500210148FFF7D1FF10BD4D
:10288000A32900206223F7B51C4C1D4E23700A3388
:102890006370043BA37001AD0633E37030780633F8
:1028A00029002371FFF732F832782B78092A21D8D2
:1028B00030226271A371752302220F26E371114940
:1028C0000C3B114D2372535D180907003737092857
:1028D00001D830300700334018000F703730092B13
:1028E00001D83033180048700231013AEBD264232A
:1028F000E373F7BD63716B78DCE7C04638230020D3
:102900000E19002041230020A329002013B5040044
:10291000684605F07DFC002803D00A490220FEF736
:10292000A9FF6B461B7823706B46DB7863706B46A0
:102930009B79A370E123E370613B23717E3B63715C
:1029400013BDC0465993051010B50A7804780023CA
:10295000944215D144784A78944211D184788A7887
:1029600094420DD1C478CA78944209D104790A7985
:10297000944205D1437948791B1A58424341DBB24E
:10298000180010BD7FB5002358211C4AD1540133D3
:10299000102BFBD1FFF71CFF06221949684600F0F7
:1029A00062FD0622002102A800F078FD154E69465E
:1029B0003000FFF7C9FF144D041E14D102A93000E6
:1029C000FFF7C2FF002810D0104AA35C2B5501343A
:1029D000062CFAD101220E4B0E481A70FEF762FF48
:1029E000FFF750FF7FBD0024EEE7335C2B5401302E
:1029F0000628FAD10022064B1A70F1E7382300208E
:102A000053890510AD210020A3290020A929002009
:102A1000C820002086930510F8B50500002406267E
:102A2000094F310061432800C919FFF78DFF0028C5
:102A300001D0E0B2F8BD0134202CF2D102200349CC
:102A4000FEF718FFFF20F5E7AD2100207893051071
:102A5000202807D900230B704B708B70CB700B7143
:102A60004B71704706225043064BC25C18180A701F
:102A700043784B7083788B70C378CB7003790B717C
:102A80004379EDE7AD21002010B51020FDF790FF50
:102A9000002400280AD104000C4A0D491378CC54B4
:102AA0000133137011E0FDF76FFFC4B21020FDF782
:102AB00071FF0028F7D00D2CEED10022034B044803
:102AC00019781A704254FEF757FF10BDAC21002050
:102AD0009C22002010B504002020FDF75BFF012898
:102AE000FAD0A0B2FDF748FF10BD10B50400207861
:102AF000002800D110BDFFF7EDFF0134F7E700001B
:102B000070B5084C2378002B06D0074B1D78002D9C
:102B100002D1FFF76FFA257000F03CFA00F03CF9A3
:102B200070BDC0469C290020C820002010B5FEF7CB
:102B30009FFAFFF769F9FDF7C9FCFEF75FFEFFF7A3
:102B40007FFDFFF76BFD00F04BF900F0EDFAFFF7AA
:102B5000E5FDFEF7FDFDFEF777FE002802D102300D
:102B6000FEF73AF801F088FAFFF7CAFFFAE700002B
:102B700010B502490420FEF77DFE10BDE793051055
:102B800010B503200249FEF775FEFF2010BDC046B8
:102B90000394051010B503200249FEF76BFEFF20D9
:102BA00010BDC0466D94051010B5132805D903203B
:102BB0000449FEF75FFEFF2010BD034B1B68181889
:102BC0004078F9E71E9405106C280020F8B5002421
:102BD0000F4BE018FDF7D3FC0E4E0F4BA5192870D4
:102BE000E018FDF7CCFC0D4B6870E5180C4BE718AE
:102BF0002800FDF7C4FC0B4BEB180135F054BD4227
:102C0000F6D1E0231C349B009C42E1D1F8BDC046C4
:102C100080E407104419002081E4071083E40710C2
:102C200096E40710851BF8EF00231900124A10B52F
:102C30001360124A12481370124A13701A181C3388
:102C40001170E02BFAD1104B104A11481360012388
:102C5000104C9900132B0DDC54500133FF2BF8D18D
:102C600000230D4A0D49D15004332C2BFBD1FFF723
:102C7000ADFF10BD5050F0E7C420002040190020E7
:102C8000CC200020C0200020952B0410C41C002064
:102C9000812B0410A92B041070220020712B04102A
:102CA000024B8000C15000207047C04670220020B7
:102CB000F7B51C27134E144C337805007B431B5D7E
:102CC0000193002B04D011490120FEF7D3FDF7BD7D
:102CD0000F48FEF7E7FD2800FFF72EF833785F4333
:102CE000E4190ECD0EC40ECD0EC42B6823603378CC
:102CF0000133DBB233703378072BE8D96B461B798D
:102D00003370E4E740190020CC200020C293051066
:102D1000D793051003001C2010B55843024BC01870
:102D2000FFF7C6FF10BDC0464419002070B505006E
:102D3000002401263300A3406A68E0B21A4205D09D
:102D4000044AA300D35898472B1918720134132C46
:102D5000F0D170BDC41C002010B504000B48FEF774
:102D6000A1FD2000FEF7E8FF2000FFF7DFFF23783A
:102D70000A2B05D8064A9B009B582000984710BD97
:102D800004490420FEF776FDF9E7C0464394051098
:102D9000702200205594051070B51C250D4C0E4E68
:102DA00023786B43985D002813D020780B4B684341
:102DB00080191860FFF7D0FF0022237801205D43BF
:102DC0002378AA550133DBB223702378072B00D96F
:102DD000227070BDC0200020CC200020C420002024
:102DE00010B5FFF721FF00F0F9F800F049F810BD29
:102DF000F8B50024184BE018FDF7C1FB174E184B2F
:102E0000A5192870E018FDF7BAFB164B6870E0189A
:102E1000FDF7B5FB144BA870E518144BE718280014
:102E2000FDF7ADFB124BEB180135F054BD42F6D166
:102E3000104BE518104BE7182800FDF7A0FB0F4BCF
:102E4000EB180135F054BD42F6D1A4232934DB0040
:102E50009C42CFD1F8BDC04680C407104823002053
:102E600081C4071082C4071084C4071097C40710D8
:102E70007F3BF8EF9CC40710AFC407107A3BF8EF14
:102E800010B5FFF7B5FF00231900064A0648136086
:102E9000064A1370064A13701A1815331170A82BBE
:102EA000FAD110BD6C28002070280020682800206E
:102EB0006928002084B0F8B51527144C09932378AD
:102EC000134E7B439D5D069007910892002D07D01D
:102ED00010490120FEF7CEFCF8BC08BC04B018472E
:102EE0000D48FEF7DFFC06A8FEF75EFF20783A00EB
:102EF000784306A9301800F0B6FA23780133DBB224
:102F000023702378072BE7D92570E5E76828002090
:102F10007028002093940510A8940510F8B5A426F5
:102F200005000024F60019482A78231859789142A0
:102F300011D19A786B789A420DD12F00144AAB1CAC
:102F40001537D17C002911D0012908D111788C4680
:102F500019788C450AD02934B442E4D1F8BD02294D
:102F60000CD111788C4619788C45F4D90133013293
:102F7000BB42E6D1005DFFF7CDFEECE70329F5D1BA
:102F800011788C4619788C45F0D3E4E7482300206B
:102F90004B23002070B515250D4C0E4E23786B4346
:102FA000985D002813D020780B4B68438019186077
:102FB000FFF7B4FF0022237801205D432378AA5550
:102FC0000133DBB223702378072B00D9227070BD48
:102FD00069280020702800206C280020704700001D
:102FE000024B8000C15000207047C046941300205F
:102FF00070B504000D0016000448FEF753FC044BA6
:10300000A40031002800E358984770BDCE94051005
:103010009413002010B505F0F1FF10BD10B5FDF7B9
:103020004DFA10BD10B5FFF72FFD10BD70B500248F
:10303000E6B23000FFF762FB094B050098420BD067
:10304000FDF761FB012807D12800FDF756FB0022A0
:1030500030001100FFF7CCFF01340B2CE8D170BD1C
:10306000FFFF000010B50248FEF71CFC10BDC04673
:10307000C394051010B50248FEF714FC10BDC046FD
:10308000B894051030B50F4889B00D00FEF70AFC62
:10309000012302AC0C482370FFF7BEFC00236070D4
:1030A000E95CE21801339170132BF9D16B46069A53
:1030B000009206AA12791A710FCCFFF7FBFE09B035
:1030C00030BDC046F19405102019002010B5040051
:1030D00086B00D48FEF7E6FB60780834002804D17E
:1030E0002000FEF70DFB06B010BD6946FFF7B0FCEF
:1030F00002A80021FEF74CF802AB2200132168461B
:10310000FFF718F8EFE7C046DF94051010B5044943
:103110000120FFF765FF03490120FFF7C1FD10BD46
:1031200085300410CD30041010B5FFF7EFFF00F02C
:10313000A1F800F073F900F07FF800F03FF900F01B
:1031400019F810BD10B504000748FEF7ABFB637813
:10315000012B07D1054C064B013C1868FDF7C7FA57
:10316000002CF8D110BDC0460395051010270000B3
:103170003029002010B50549054B05200B60FFF7ED
:10318000ADFA04490A20FFF78BFD10BD302900205D
:10319000FFFF00004531041010B50248FEF782FB26
:1031A00010BDC0465F950510F7B504001C48FEF73A
:1031B00079FB6378022B30D0032B05D0012B2BD168
:1031C0001848FEF76FFB27E00025267A002E01D174
:1031D000002D21D105236946E21A927B5A54013B06
:1031E000F9D21148FEF75EFB1048FEF75BFB30009A
:1031F000FEF7B8FB0E4F07353800FEF753FB684665
:10320000FEF754FB3800FEF74DFB31006846FFF730
:1032100007FB0734152DD8D1F7BD0648D1E7C046C6
:1032200012950510339505101F950510378D051063
:103230009F8C05104895051010B504490920FFF72B
:10324000CFFE03490920FFF72BFD10BD9931041073
:10325000A931041010B50248FEF724FB10BDC0468A
:103260007895051010B50248FEF71CFB10BDC0464E
:103270006C95051010B5094B094902200B60FFF74A
:103280002DFA08490220FFF731FA07490220FFF71B
:10329000A7FE06490220FFF703FD10BDFFFF000057
:1032A000202900202C2900205532041065320410FA
:1032B00010B50248FEF7F6FA10BDC046CC950510D1
:1032C00010B504003348FEF7EDFA6378022B22D0E4
:1032D000032B3FD0012B17D1247A2F48FEF7E2FAB7
:1032E0002000FEF73FFB2D48FEF7DCFA032C0BD83D
:1032F00020002B4BFCF728FF02090B0D294A106810
:10330000984201D0FDF7F3F910BD274AF7E7274AA5
:10331000F5E7274AF3E7247A2648FEF7C3FA2000A8
:10332000FEF720FB1D48FEF7BDFA032CECD8200069
:103330001B4BFCF709FF02090B0D1A4A1068984253
:10334000E2D0FDF7C4F9DFE7174AF7E7174AF5E7D8
:10335000174AF3E7247A1848FEF7A4FA2000FEF78C
:1033600001FB0E48FEF79EFA032CCDD820000C4B33
:10337000FCF7EAFE02090B0D0A4A10689842C3D016
:10338000FDF7A9F9C0E7084AF7E7084AF5E7084A50
:10339000F3E7C04684950510929505109F8C0510A3
:1033A000FFFF0000182900203429002024290020D4
:1033B0001C290020A5950510B895051070B5104B77
:1033C000104E114D114C124901200B6033602B60DF
:1033D0002360FFF783F931000220FFF77FF929000E
:1033E0000320FFF77BF921000420FFF777F9094953
:1033F0000720FFF7F5FD08490720FFF751FC70BDD6
:10340000FFFF000034290020242900201C2900206F
:1034100018290020B1320410C132041010B503493C
:10342000034B05200B60FFF759F910BD2829002038
:10343000FFFF000010B500F01FF810BD10B50A2204
:10344000002100F019F910BD30B50024A24201D1CD
:10345000002005E0035D651C0C5DA34201D0181B34
:1034600030BD2C00F2E7002310B59A4200D110BD08
:10347000CC5CC4540133F8E710B5884202D98B18EC
:10348000984208D300239A4207D0CC5CC45401333D
:10349000F9E78B5C8354013AFBD210BD030082181C
:1034A000934200D1704719700133F9E7031C0A7881
:1034B00001311A700133002AF9D17047F8B5134B66
:1034C00006001D680F00E8352C68002C16D150202E
:1034D00000F0F4F92860046044608460C460046112
:1034E000446184618462C462046344638463C4632A
:1034F000046444648464C464047744622A683900C0
:103500003000012300F004F8F8BDC046B0290020C7
:10351000F0B5002804D11068002801D1F0BD2000CA
:103520000E000578441C3778002F04D1002D10D1EF
:1035300015602800F2E70136BD42F4D1002BEED130
:1035400014600370EAE733000EE001351C00002F21
:1035500002D10D002678631C2F78BE42F5D1002ED3
:10356000F1D00024591E0C701360D7E7F0B51F008E
:103570000E0087B00590039102920C98347800F009
:1035800097F9082200194378751C13400CD12D2C93
:103590000CD101332C780193B51C002F0CD0102FC7
:1035A00014D1302C0AD011E02E00E6E701932B2C29
:1035B000F3D12C78B51CF0E7302C2FD120222B78BA
:1035C0009343582B51D110276C780235019B294A1F
:1035D00039009E183000FCF747FE30000491390096
:1035E000FCF7BCFD01210023494202008C46180073
:1035F00021003039092913D80C00A7421CDD591CC1
:1036000009D06346824206D302D10499A14202DB6B
:103610000123784320182C780135E9E70A27D5E7FC
:1036200021004139192901D8373CE6E721006139E9
:10363000192901D8573CE0E75A1C08D1059A2333D1
:103640001360029B3000002B0BD107B0F0BD019A34
:10365000002A00D04042029A002AF6D0039A002B9A
:1036600000D06A1E029B1A60EFE73024002FADD114
:103670000837ABE7FFFFFF7F37B51300064A0500A9
:103680001068046A002C00D1044C0A000094290040
:10369000FFF76CFF3EBDC046B0290020A42A0020E1
:1036A000F7B5254F0C00050000F028FB3800032279
:1036B000224E1138B368001B5B6839009343C01871
:1036C0000193FCF74BFD441E7C43BC4204DA280006
:1036D00000F01CFB0020FEBD0021280000F01EFBB6
:1036E000B368019A9B189842F1D16142280000F01A
:1036F00015FB431C10D10021280000F00FFBB2681D
:10370000811A0F29E3DD0E4B1B68C01A0D4B1860A0
:1037100001230B435360DAE7B2680126019B2800BE
:103720001B1B33435360074B1A68141B1C6000F0CB
:10373000EDFA3000CFE7C04680000000102C0020DA
:103740001830002048130020F7B50D1E01902DD031
:1037500000F0D4FA012329009C4608394F686246DC
:103760003B0066469343C8184568023295434A4A6F
:1037700037409668B0421AD15B19002F06D108680D
:10378000091A8D681B18C868E86085600120184315
:1037900048609160414A1268934204D3404B0198BB
:1037A0001968FFF77DFF019800F0B0FAF7BD002619
:1037B0004560B74209D10F683A4CC91BDB198F68C5
:1037C000A7422BD0CC68FC60A76047197C68012712
:1037D0003C420BD15B198568002E21D1314CA542AA
:1037E0001ED13E0051611161CD608D600120050048
:1037F0001D434D60CB50002ED5D12B4DAB4213D87D
:10380000DB089D10A8405468DB00204350609A18E4
:103810009368CA608B609160D960C4E76646D4E75C
:10382000C068E8608560E1E75D0A042D12D8980958
:103830003830C600B618B5680327AE4225D101233B
:1038400080108340506803435360CE608D60B16048
:10385000E960A8E7142D02D828005B30E9E7542D71
:1038600002D8180B6E30E4E7AA204000854202D847
:10387000D80B7730DDE70D4E7E20B542D9D8980CB5
:103880007C30D6E7AD68AE4203D06A68BA43934253
:10389000F8D3EE68D9E7C046102C00201C30002079
:1038A00078130020182C0020FF01000054050000B0
:1038B000EC300068704770477047000010B5034B4C
:1038C0000100186800F004F810BDC046B0290020BF
:1038D000F0B50D0085B00B350190162D08D90723E2
:1038E0009D4306D50C23019A1360002005B0F0BD5E
:1038F00010258D42F6D3019800F000FAF823FF332B
:10390000BA489D421FD82A00083282181100546814
:103910000839EB088C4203D1D4680233A24229D083
:1039200003236268A1689A431300E268E318CA603F
:103930009160012259680A435A60019800F0E6F943
:1039400020000830D2E76A0A3F23002A03D0042A65
:1039500028D8AB09383303229446D9000918CC681B
:103960008C4206D066466268B243571B0F2F31DD8A
:10397000013B01330100046908318C424ED003221F
:10398000666896433200761B0F2E31DD01276319DE
:103990003D433743656043610361D96099605F606F
:1039A000A650CAE7142A02D813005B33D3E7542A7F
:1039B00002D82B0B6E33CEE7AA235B009A4202D8C3
:1039C000EB0B7733C7E78A497E238A42C3D8AB0C17
:1039D0007C33C0E7E668002F08DBA368DE60B360D5
:1039E0000123A21851680B435360A6E73400B7E7E0
:1039F00041610161002EF3DA7E498A4242D8D20841
:103A0000FF399610FF39B1404668D200314341601A
:103A100010188268E060A2608460D460012299106E
:103A20008A4072494868824200D997E0104205D125
:103A30000324A343520004331042FBD09C46D80019
:103A400008180290029CE468029EB44258D13400E7
:103A5000083402940124A444644603263442F1D17C
:103A60000324234274D14B6893434B60486852004F
:103A7000824273D8002A71D063461042DED10433EB
:103A80005200FAE7560A042E16D891093831CF00B1
:103A90003E1803270296BC46B668029FB74227D15C
:103AA000012289108A4041680A434260029AA66056
:103AB000E2609460F460B1E7142E02D831005B310B
:103AC000E5E7542E02D8110B6E31E0E7AA21490038
:103AD0008E4202D8D10B7731D9E7454F7E21BE42C5
:103AE000D5D8910C7C31D2E7B6680299B14204D0A6
:103AF0006046716881438A42F6D3F2680292D5E744
:103B000003266768B74303977E1B0F2E11DD012242
:103B1000631915436560E068A5680831E8603243C1
:103B20008560CB608B60D96099605A603B00E6503D
:103B300003E7E768002E09DB0122039BE3185968BD
:103B40000A435A60A368DF60BB60F6E63C007BE78F
:103B500008388468013BA04282D087E703238F683E
:103B60007A689A430292954203D8521B0F2A00DDCD
:103B70009FE0029BFB1803931F4B1E681F4B1036E0
:103B80001B687619013305D01D4B013B9E191C4B58
:103B90005B421E403100019800F0C0F80400431C55
:103BA0005FD0039B834202D9104B9F4259D1154BE2
:103BB0001A68B1181960124B5A1E039BA34227D1F1
:103BC000134225D1029A094B921901269B6816438C
:103BD0005E600C4B0C4A1B6811688B4200D9136065
:103BE0000A4A11688B423CD913603AE0102C00203D
:103BF00054050000FF010000781300201830002059
:103C0000800000004813002070130020741300206F
:103C10002D4B1868013032D11C600720204002D0A3
:103C20000823181A2418294BA61918181640861BA1
:103C30003100019800F072F8431C01D120000026E9
:103C4000234A001B13689B1913600123214A86191C
:103C50001E43946066609742BBD0029A0F2A14D824
:103C6000636003221B4B9B685B6893435A1B9D4216
:103C700001D80F2A1DDC019800F048F835E6039BB7
:103C8000E31A5B1812490B60C7E70722029E0C3E3D
:103C900096437A681340052233437B60BB195A6010
:103CA0009A600F2E95D9390001980831FFF74CFD25
:103CB0008FE701231800074928438C6813436519CF
:103CC00060608D606B6038E6183000208000000076
:103CD00048130020102C002082B0002900D101A937
:103CE000101E06D0002B06D013780B601078431EF0
:103CF000984102B0704702204042FAE710B50248EE
:103D0000FFF7D9FD10BDC0464029002010B502487C
:103D1000FFF7D2FD10BDC04640290020002370B53A
:103D2000064C050008002360FCF7FCFE431C03D191
:103D30002368002B00D02B6070BDC04638290020BE
:103D40000B1E04D0FF2A04D98A2303608B3B180082
:103D500070470A700123FAE7F0B5054600200F46C8
:103D6000079E059C174309D0202905D30127BF03CF
:103D7000BA4201D8914201D94220F0BD19462143EF
:103D80000AD09C42F8D309498C4203D00849A41FA9
:103D90008C42F1D2062BEFD3002D03D0022D01D09F
:103DA000032DE9D1032EE7D8F0BD0000FFFF00008E
:103DB0007B0C0000FFB58DB0144618AAECCA04971E
:103DC0006F466CC70A46014605A8179B04F0B4FA73
:103DD00000280AD108A84471012C08D0002C06D074
:103DE000022C04D0032C02D0422011B0F0BD09A84F
:103DF000062202301099FCF7B6FB08A91698087342
:103E0000C0B20328F0D805A800F072FBEDE77CB53E
:103E1000069D079C002805D0860705D1460703D4D8
:103E2000060701D442207CBD002903D0012901D01E
:103E30000229F7D10095019400F0B0FB7CBD000091
:103E4000FFB58DB0179F169D1446060004D0012EB5
:103E500002D0422011B0F0BD0E98002801D00128F8
:103E6000F7D1E81F0A28F4D2102FF2D8AF42F0D3CE
:103E70001898002801D00128EBD1144919988842DC
:103E8000E7D81A98002801D00128E2D1FCF75CFF9E
:103E9000012804D01098204306D01120DAE7022C24
:103EA000D7D810980128D4D8684686700E99C1706A
:103EB000047310994173057147711899C17119986C
:103EC000029068461A990FF053FEC3E73F420F0075
:103ED000FFB587B0109D159E169C01930295009426
:103EE00007A807C81F463346FFF736FF00280ED144
:103EF0001398149903AA069443C211981299019039
:103F00000095029107A807C83B4600F0D7FC0BB00C
:103F1000F0BD10B500F0EEFC040002D101200BF062
:103F2000C1FA204610BD10B500F0FAFC10BD10B566
:103F30000BF048FB10BD70B51C4613460D46012C16
:103F400003D0022C03D0422070BD022200E01022D8
:103F50001946FCF708FB2C70002070BDF0B587B047
:103F60001C460B46054600A9023101A80C9F0D9E78
:103F7000FFF7E1FF00280ED168460580848287752F
:103F8000C6750E9901760F9941761099817669462A
:103F9000119802F087F807B0F0BD70B586B01446EE
:103FA0001D460A4603466946881C0A9EFFF7C3FF62
:103FB000002804D1012C04D0022C02D0422006B0EB
:103FC00070BD23462A466946304602F0B1FAF6E74C
:103FD00010B50022114602F05BFB10BD70B586B033
:103FE0000D46144606466946881C0A9AFFF7A3FF49
:103FF000002805D16B4622462946304600F09CFF3A
:1040000006B070BD10B502F06DFE10BD38B56D463E
:10401000049C2A806B8023466A4603F007F938BD6A
:10402000F0B585B084460AA8F0C868468581C68187
:1040300003A8019002970094604603F02BF905B0A5
:10404000F0BDFEB56C46099E089D208061802271FE
:104050006371E5806846029602F092FBFEBD10B5E2
:1040600001F05EFA10BD10B503F044FE10BD10B5AE
:1040700003F062FE10BD000010B504F091FA1E4C72
:104080004721206849014118097A002909D1A03047
:104090000079C00729D004F00BF803F061FF10F09D
:1040A000D1FE00F003F92068014640310A78C97951
:1040B0008A4319D13E21095C002915D10F490A888C
:1040C000120711D50922D2061269497A836AC900FA
:1040D000591809231B02C018406D801A00020012F3
:1040E000814201DA0CF084FE10BD00F0C7FB02F043
:1040F00093FC0DF00FFED0E794290020C0000020B3
:1041000010B5837F0122002492024168082B03D955
:104110004224914202D310E0914201D242240CE0A9
:10412000014634220648FCF71EFA00F07FF800280A
:1041300001DA482401E000F029F9204610BD000012
:10414000DC0200203EB5174D15482968827F0846DD
:10415000A0310A7300246030047644768476E1222C
:10416000C2768022027702224277302008704C709B
:1041700002AA01A96846FCF7E5F968460078A22280
:1041800001016846007A891C0002014368460079F3
:104190000003014328681152A03004713EBD0000A5
:1041A000DC0200209429002070B504F0DDF90CF049
:1041B000D3F80AF083FD11F059FC04F0ABFB184C66
:1041C00018492068184D4018811001202A68C00243
:1041D0001018816661688908C166A168890801674D
:1041E0000FF054FC1D2029688001228B08180287DB
:1041F000628B4287A28B4286628C82862046203068
:1042000002783B204001081882750021017000F0FF
:10421000C3FA03F0B3FE03F03BFE10F099FE70BD4D
:10422000DC0200200000FCEF9429002070B500257E
:10423000ED43FCF773FD01282ED00023184903221B
:10424000888BFF24401E10438A7F4D3462438218BE
:10425000088B282460431218488B302460431218BE
:104260000846203040782C24604310180D4A181856
:1042700084184869A0420DD10B4884420AD90D69BF
:10428000FCF74CFDC1B2284609F076F909F0A4FA12
:10429000401B251A284670BDFF23B533CEE700002A
:1042A000DC02002035190000540A0000F8B52C4F3C
:1042B0003C68206E5C34401C002814D0002529483E
:1042C0000023C07B00283ED00926F6062648002D94
:1042D0001CD000210A460B464169521C994204D168
:1042E000002902D004E00125E9E7204B9A42F2D3ED
:1042F0002160006960603069A1680002090E000A4F
:1043000009060143A16000F033F81DE03169A2689D
:104310000902090A150E08D0018BC90712D041699C
:10432000216000696060E37210E0881A00027D235A
:1043300000121B03984205DD100E00060843A06022
:1043400000F016F8F8BD6360002DFBD003CC0CF034
:1043500079FCFA200CF066FC39688862F8BD000030
:1043600094290020FC02002000001048881300005F
:104370000449002008610448012100686030C171CF
:10438000704700000000104894290020F8B5062668
:10439000374840250560374800270780A9050920D0
:1043A000C0064160344A91600168016033490C697C
:1043B0004A690321601E08430021401CFCF7D7F81E
:1043C000FCF7ACFCC1B2204609F0D6F809F004FABB
:1043D00009F00EFAFCF77AFC294917208881294C4C
:1043E000FA2220680146403047708A622821017015
:1043F000FCF729FC012805D1206810224030017803
:1044000011430170FCF7A0FC012805D1206880222F
:1044100040300178114301702068A421095CC9076C
:1044200004D0014640310A782A4303E00146403176
:104430000A7832430A700021C9430166FCF76BF920
:10444000FFF780FEFFF7B0FE2068012120300177E2
:1044500007214177012003F04DFC06F00FFEFFF726
:1044600025FF03488038056002210160F8BD000087
:1044700080E100E0C000002040000048DC02002095
:10448000000010489429002038B5184A14682246C4
:10449000BA32AE34A378DD0701D001290AD05B0718
:1044A0000CD501290AD0217949070BD5E17A0029D9
:1044B00005D007E0E07880210843E07038BD012195
:1044C000E172508020794106090FF7D07821084029
:1044D00069460870002048706A460221422000F0B8
:1044E000B9FB207987210840207138BD942900202C
:1044F000F8B5054600276846077015484626046843
:10450000AE3420798006800F03D00021084608F0E1
:104510006FF8A078400718D520794C21084214D1B3
:104520000023287E6A4619460AF030FE00280DD185
:104530006846007828762F74284607F021FF060089
:1045400003D120794021084320713046F8BD000096
:104550009429002038B51048002104680846AE347C
:1045600008F046F8694648702079C10704D0012157
:104570006A46117088432071C0B2810705D50221B7
:104580006A461170FD210840207102216A460846E2
:1045900000F060FB38BD000094290020FFB50C46F8
:1045A00078A103C995B001910090002108A801737A
:1045B0000321C90268464186012108A8734E01748F
:1045C00035681746AE3513F0B5FA002808D17049A2
:1045D000306840180BF002F8A878002802D0462076
:1045E00019B0F0BD0BA81599FCF768FB0028F7D1AE
:1045F000072010A90871012C05D0022C0AD0002C2C
:104600000ED04220ECE708A8017B1020014308A847
:10461000017305E011A90BA8FCF70DFB0028DFD101
:1046200010A8027901230CA9284601F081FF002877
:104630007ED1022229461898FBF795FF2988684603
:1046400081811521490201820784012686734E214A
:1046500008A881700024C470067107214171867119
:1046600003A902A801F01EFD002861D1022202A9BF
:104670001E98FBF778FF082F02D26846478502E0B4
:1046800008206946488569460C850B4628880AAA91
:10469000098902F0CBFD00286DD13E4968460182B0
:1046A0000227078408A8847103A902A801F0FAFC74
:1046B000002860D1022202A91F98FBF754FF684628
:1046C0000470694644704F850B4628880AAA0989F8
:1046D00002F0ACFD00284ED108A8007BC00723D013
:1046E0002C496846C91C01820821018408A88770EA
:1046F000047103A902A801F0D5FC00283BD1FF21D9
:104700006846C1718171C1708170417001704471DE
:1047100004716946082048850B4628880AAA098939
:1047200002F084FD002826D108A8007B800600E066
:1047300021E022D52988684681811649A531018268
:104740000684867308A88770C470047107214171BC
:10475000847103A902A801F0A5FC00280BD16946C9
:104760000E700C854E850B4628880AAA098902F02E
:104770005DFD002801D0472032E708A8007BA87023
:1047800000202DE7626C75656E7267219429002008
:10479000DE060000012A0000034800210068AE3058
:1047A000C1708170704700009429002070B50D4BD6
:1047B0001C68AE342379DD0612D45B0710D533288C
:1047C0000ED1E07A02280BD1042010700020507026
:1047D000C9B2022000F03EFA2079FB210840207186
:1047E00070BD00009429002038B502461748012406
:1047F0000068AE30022A1FD0052A03D0072A07D04E
:104800000B2A20D1084609794088FFF73DFE1AE0BF
:1048100000790024020600D50124820703D1C206D4
:1048200001D480060FD5084600216A4611706946FA
:1048300000F0FCF8044606E08178490703D50179C9
:10484000FB2211400171204638BD00009429002050
:1048500010B509480468AE34E07880070BD5002015
:104860000BF0D6FB022000F0CDF9E07801210843DF
:10487000FD210840E07010BD942900201FB50E48AE
:104880000468AE34E078010612D5A178C9070CD0CF
:10489000800708D5042069460873684603F05CFF6A
:1048A000022000F0AFF90020E0704006400EE070FA
:1048B000FCF708FA1FBD000094290020F0B58DB068
:1048C0000C4616A9E0C90021089109910A910B91A3
:1048D0001599049105A9E0C112A962C9009301913B
:1048E00013460146039602952246012000F0D0F8B7
:1048F0000DB0F0BD002000B58DB00A900B9008906F
:104900000990059006900790049000900190029005
:10491000034602460146039000F0BAF80DB000BD10
:10492000F0B5104C4625246885B0AE34A6787607DD
:1049300014D52679B3273E4210D10AF037FD050081
:104940000CD12079022108432071062069460873A2
:104950000520C0020290684603F0B0FE284605B06C
:10496000F0BD0000942900200949B22209681423EF
:10497000525CBA311A4208D0498800050905090D70
:10498000000D814201D101207047002070470000D6
:104990009429002002780907090F0A4302700020B9
:1049A0007047000030B50E4885B005682C46AE351E
:1049B0002879BA34400711D5E87A01280ED115219B
:1049C0004902684641800121017060886B46054AB2
:1049D00000F008FB002801D10220E87205B030BDCC
:1049E00094290020FFFF00007CB50446E1200D461D
:1049F000800006F061F90BA103C90090019168469F
:104A000003F06EFC01200CF0EFF9002801D04720E4
:104A10007CBD2078202108432070092028700020C8
:104A20007CBD00001F0200000000000030B5174BE5
:104A3000047A1B68C268AE331B799D06AD0F04D1A2
:104A40000078042801D000200BE0012030BD401C7C
:104A5000C0B2155C012D08D01518203DED7F281837
:104A6000C0B2A042F3D3087830BD401CDD0701245A
:104A7000C0B2002D02D0105CC00703E09B07F2D546
:104A8000105C80070028EED00C70ECE79429002021
:104A9000FFB595B00E46054620210CA8FCF768F836
:104AA00000200490564800270468681EAE3404288D
:104AB00002D8A078C0070BD0062D02D0002D0AD056
:104AC00002E0A078800703D5E0784006800E0AD087
:104AD000462019B0F0BDA0788007F9D0E0784006F4
:104AE000800EF5D00FE0002D0DD0012D20D0022D2D
:104AF00028D0062D33D0032D33D0042D37D0002EEF
:104B00003BD04220E5E700200BF082FA0028E0D1FC
:104B1000E078800708D5042069460873684603F0EA
:104B20001BFE022000F06EF80120E0700020D0E7AC
:104B3000012EE6D0042EE4D01F980028E1D10627EC
:104B4000042008E0012EDCD0042EDAD01F980028C3
:104B5000D7D105270220E0700120049010E040200A
:104B60000DE0022E01D0032ECBD1082007E0012E4C
:104B700001D0042EC5D1102001E004272020E070D0
:104B800000230BAA19461E980AF000FB030002D06E
:104B900000F0E4F832E01022002107A8FBF7E7FC60
:104BA00007A86C46279B269A1F990FC42B463046B0
:104BB000189A179900F088F80300E9D108A8017B3A
:104BC000C170259803AC049B289A29990FC422AB85
:104BD00007CB02920091019039460CA8209B219AA4
:104BE00000F0C6F80300D3D107A80BF043FD030083
:104BF000CED101200BF00CFA0300C9D1184668E7AA
:104C00009429002010B50446C1061148006803D558
:104C10001522BF210C4006E01B2189014118497E65
:104C2000C90710D012222107890E08181121C901C5
:104C30004018806F0023214610F0D4F9010004D001
:104C4000204610F0BBF9002010BD072010BD000069
:104C500094290020F8B5891ECDB20646A81C032170
:104C60000843401C8308174817460068F10603D51F
:104C70001C22BF210E4008E01B2189014118497EFA
:104C8000090601D40020F8BD19223107890E081841
:104C90001121C9014018806F314610F0A3F90400BA
:104CA0000ED03978217179786171A5712A46B91CC5
:104CB000E01DFBF758FC2146304610F07FF9E1E794
:104CC0000720F8BD94290020F8B5224B224D1B681F
:104CD000069C5B19009301239B03002814D0042831
:104CE00012D0022814D0032812D006239C461E4658
:104CF0001D460F46174310D0914203D8A94201D355
:104D00009A420ED94220F8BD3025AC46602602E01A
:104D1000A025AC46F0262025EBE761462180668081
:104D200001E02180628020710798A07108982072AC
:104D30000998002805D00146204606220930FBF7D5
:104D400012FC0720607100982030807B6071002089
:104D5000F8BD0000942900200409000003488122C6
:104D60000068A030417C11404174704794290020B4
:104D7000F8B505463D481E460068079F0024AE3042
:104D80001346002905D002222A7001226A70A970F8
:104D90000324002E10D080788006800F0CD13019AB
:104DA000401C1F2852D82E55641C2819324619461B
:104DB000FBF7D9FBA019C4B2002F0DD03819401C45
:104DC0001F2843D82F55641CE4B228193A46069987
:104DD000FBF7C9FBE019C4B26846008C00281BD061
:104DE0006846808C002817D0601D1F282ED805200B
:104DF0002855641CE0B212212954401CC4B2281961
:104E00000646022208A9FBF7AEFBB01C022209A944
:104E1000FBF7A9FB241DE4B20C98002810D0E01C7D
:104E20001F2813D802202855641CE0B20A212954F7
:104E3000401CC0B22918401CC4B208460BF0AAFEA0
:104E40000B9800280CD000191F2801D94220F8BD6A
:104E500028190B9A0A99FBF786FB0B982018C4B205
:104E6000214628460BF062FBF8BD00009429002083
:104E700000B500F009F8002805D0852201699201EB
:104E8000114200D0002000BD10B50D4900050B688F
:104E90000521490259184A690021000DA0331B7BE6
:104EA0000AE04C01145B2405240D844202D1480120
:104EB000801810BD491CC9B28B42F2D8002010BD29
:104EC0009429002004490A683B21490151180A78B5
:104ED00002430A707047000094290020FEB58C68D8
:104EE000CD88267B012E01D00020FEBD4126052D58
:104EF00001D01E7019E0247C0A2C00D01E70002AFC
:104F00000DD08968052268460C31FBF72CFB6D1E1D
:104F100000AAA9B232200132FFF748FC05E0008860
:104F20000A460146022000F021FD4120FEBD10B5D9
:104F3000102100F09DF810BDFFB589B00746462648
:104F40001D781022991C05A8FBF70AFE012D04D03C
:104F5000022D02D042200DB0F0BD3846FFF788FF89
:104F6000040037D020223946002009F085FE0700D2
:104F70002FD0194869460880012004903946204600
:104F80000B9B0A9A0AF0A7F8060004D000213846C5
:104F900009F0CEFE1EE00B98A081A068012D0FD075
:104FA000102205A9FBF7DFFA2571012120694903C9
:104FB000084320610948A061384600F093FF09E0EA
:104FC00010220749FBF7CFFAA068022205A90C308E
:104FD000E8E764263046BEE7032800002F4F0410A0
:104FE0001C990510FFB589B0074646251E7810228A
:104FF000991C05A8FBF7B4FD012E04D0022E02D0A7
:1050000042200DB0F0BD3846FFF732FF040024D037
:1050100020223946002009F02FFE07001CD005ADE4
:1050200004960FCD6D460FC5394620460B9B0A9A54
:105030000AF051F8050004D00021384609F078FE46
:105040000BE0012120694903084320610448A06165
:10505000384600F047FF00E064252846D1E700000D
:105060006550041010B5502100F096F910BD0000F5
:10507000F0B593B00E4604460020694608760190CC
:10508000E0690790002827D0C788002F7DD0B006A0
:10509000800F03D02088FFF767FC019006AB204605
:1050A000019A0799FFF71AFF412861D0B81E80B214
:1050B000009007988068457B002D56D0F006F107D8
:1050C000039000290FD0022F0DD329460098FBF73B
:1050D000CBF8002903D006E0412013B0F0BD062D27
:1050E00017D0142D15D0B00708D5052F06D30321EE
:1050F000B8078907C84201D1022048E070070ED5E1
:10510000022F0CD329460098FBF7AEF8002902D0F5
:1051100005E001203BE0082D0DD0062D0BD00398B3
:10512000800F0ED0022F0CD329460098FBF79CF875
:10513000002902D005E0042029E0072D08D0152D14
:1051400006D0B00611D5012D04D0022D04D00CE0FC
:1051500008201CE0042500E01225022F05D929466D
:105160000098FBF781F8002910D0412069460876A5
:1051700001212069490388432061019800287DD0DE
:1051800006AA01213120FFF711FBF6E0102081076C
:1051900006D57D49B8034018070CB800C01C0EE0C6
:1051A000C0060098294604D5401CFBF75DF887B27D
:1051B00002E0FBF759F80746781E6843801D81B26C
:1051C00005AB0222079809F017FDF0064ED5694697
:1051D000A089898A884202D9206941065BD40020CF
:1051E00041E0072D0AD068430B3082B21023A1683A
:1051F000079809F097FD002815D031E01022634987
:1052000008A8FBF7B0F902980BABC100081A0B30E5
:1052100081B20222079809F0EFFC102208A8A168C9
:10522000FBF7A9F9E7E7019800280ED002980CAB2C
:105230006843801D81B22A46079809F0DDFC0CAA5C
:1052400029463320FFF7B2FA0AE007980090029847
:105250002B466843801CC2B22188022000F044FB28
:105260000298401C80B20290B842BAD33820484F0E
:10527000064207D06946A089898A00E077E0884223
:1052800004D86EE06846808AB8426AD02069410638
:1052900006D5F10604D401218902084320616CE09F
:1052A00021882022002009F0E7FC050011D005210B
:1052B000F2070120C902002A0DD06A46118004902D
:1052C000908A3B46401C82B22946204609F0C8FE1F
:1052D00037E0452001E7B20713D5207901280ED029
:1052E0001020A2680290019200916846808A3B4695
:1052F000401C82B22946204609F023FE21E002200C
:10530000EFE7710701D5234A04E00399890F0DD017
:10531000204A521C69460A800490888AA389401C4E
:1053200082B22946204609F0D6FE0AE0B0060AD528
:105330006846808AA389401C82B22946204609F02B
:1053400043FE642808D0284600F0CCFD2288304671
:10535000079900F07CFB10E00021284609F0E8FCEA
:10536000B7E722883046079900F071FB00E76846EE
:10537000027E2188022000F035FB0121E06909F05E
:10538000D7FC0020E061A8E600C0FFFF1C990510D3
:10539000FFFF000002280000F0B58BB00D46044668
:1053A0000020694608710490E669002E16D0A80610
:1053B000800F03D02088FFF7D7FA049001AB314665
:1053C0002046049AFFF78AFD412865D0E80708D0F7
:1053D00021883246022000F04DFA5DE041200BB0FA
:1053E000F0BD680705D521883246022000F008FA92
:1053F00052E0A80739D5F0886188814205D9218813
:105400003246022000F046F946E02069410604D504
:10541000012189020843206180E0218820220020A8
:1054200009F02AFC05001ED021883246022000F037
:1054300031F9A068801C00F005FB6188401E40180F
:1054400086B2A06800F0FEFA02463346294620469E
:1054500009F0E2FD284600F045FDA0683146801CB9
:1054600000F0ECFA54E04520B9E7E80614D5F088DE
:10547000412702280ED9B168801E4D7B80B285423B
:1054800001D9012016E0002D04D02946FAF7ECFEE0
:1054900000290FD06846077101202169400381432C
:1054A0002161049800282DD001AA01213120FFF7A5
:1054B0007DF92DE002900220002703901EE0049861
:1054C00000280DD0039805AB001D81B22A46304656
:1054D00009F092FB05AA29463320FFF767F907E098
:1054E00003980096C2B22B462188022000F0FCF9F6
:1054F0000398401980B27F1CBFB203900298874284
:10550000DDD3C9E7684602792188022000F06AFAF3
:105510000121E06909F00CFC0020E06100205EE759
:10552000FFB581B0154607464624FFF7ADFC0600DF
:1055300028D00298002803D07088C01EA84201D24B
:1055400042241FE015483B210068490140180078BB
:10555000000602D5642005B0F0BDE81C82B23946D1
:10556000002009F089FB07000ED001460095304667
:10557000049B029A09F0EAFD04000AD00021384693
:1055800009F0D6FB2046E6E764248020FFF79AFC6A
:10559000F8E7384600F0A6FCF4E700009429002064
:1055A000F7B5064690790321401EC5B2E81C0843B2
:1055B000401C8308174817460068F10603D52922C6
:1055C000BF210E4008E01B2189014118C97EC90690
:1055D00001D40020FEBD26223107890E08181121B2
:1055E000C9014018806F31460FF0FCFC04000FD059
:1055F0000198A080A808A07123462A4605213846B4
:10560000083309F0F9FA214630460FF0D7FCE0E7FD
:105610000720FEBD94290020F7B5064690790321A6
:10562000801EC5B2E81C0843401C83081848174672
:105630000068F10603D52822BF210E4008E01B2197
:1056400089014118C97E090701D40020FEBD252229
:105650003107890E08181121C9014018806F3146A1
:105660000FF0C0FC040011D00198A080B868234658
:10567000407BA071E5712A4606213846083309F0BF
:10568000BBFA214630460FF099FCDEE70720FEBD4D
:1056900094290020F7B5064690790321401EC5B233
:1056A000E81C0843401C8308164817460068F106AA
:1056B00003D52C22BF210E4008E01B21890141188F
:1056C000C97E090601D40020FEBD29223107890EBA
:1056D00008181121C9014018806F31460FF082FC73
:1056E00004000DD00198A080A5712A4605213846F6
:1056F000E31D09F081FA214630460FF05FFCE2E736
:105700000720FEBD94290020F7B5064690790321B5
:10571000801EC5B2E81C0843401C83081848174681
:105720000068F10603D52E22BF210E4008E01B21A0
:1057300089014118097F890701D40020FEBD2B2271
:105740003107890E08181121C9014018806F3146B0
:105750000FF048FC040011D00198A080B8682346DF
:10576000407BA071E5712A4606213846083309F0CE
:1057700043FA214630460FF021FCDEE70720FEBD4C
:1057800094290020F7B5064690790321801EC5B202
:10579000281D0843401C8308184817460068F10676
:1057A00003D52A22BF210E4008E01B2189014118A0
:1057B000C97E890601D40020FEBD27223107890E4B
:1057C00008181121C9014018806F31460FF00AFCFA
:1057D000040011D00198A080B8682346407BA071D6
:1057E000E5712A4606213846083309F005FA2146B4
:1057F00030460FF0E3FBDEE70720FEBD94290020D2
:10580000F7B5064690790321401EC5B2E81C08434F
:10581000401C8308164817460068F10603D52D2260
:10582000BF210E4006E01B2189014118097FC907ED
:1058300019D02A223107890E08181121C9014018F0
:10584000806F31460FF0CEFB04000ED00198A0808F
:10585000A5712A4605213846E31D09F0CDF92146F8
:1058600030460FF0ABFB0020FEBD0720FEBD000060
:1058700094290020F7B5064690790321401EC5B251
:10588000E81C0843401C8308164817460068F106C8
:1058900003D52B22BF210E4008E01B2189014118AE
:1058A000C97E490601D40020FEBD28223107890E99
:1058B00008181121C9014018806F31460FF092FB82
:1058C00004000DD00198A080A5712A460521384614
:1058D000E31D09F091F9214630460FF06FFBE2E736
:1058E0000720FEBD94290020FFB59B1E0646DDB2B1
:1058F000681D03210843401C83081B4881B00068D1
:105900001746F10603D53622BF210E4009E01B21C0
:1059100089014118497F890702D4002005B0F0BDF4
:1059200033223107890E08181121C9014018806FF0
:1059300031460FF057FB040014D00298A0800A985B
:10594000234680682A460830C0190079E080257215
:10595000B91D09330A9809F04FF9214630460FF076
:105960002DFBDAE70720D9E794290020F8B5044693
:1059700090680F4601461546467B0E310222684666
:10598000FAF7F1FDA8680223057C1548E10603D566
:105990003522BF210C4009E01B22016892018918C1
:1059A000097F090601D40020F8BD322221070068D2
:1059B000890E08181121C9014018806F21460FF087
:1059C00011FB010009D08F808E716A4612880A810E
:1059D0008D7220460FF0F2FAE5E70720F8BD0000CF
:1059E0009429002070B50E4601230446C1061248D2
:1059F0001546006803D53422BF210C4006E01B2168
:105A000089014118497FC90711D031222107890E28
:105A100008181121C9014018806F21460FF0E2FAE1
:105A2000010006D08E808D7120460FF0C7FA00204D
:105A300070BD072070BD0000942900200170090A84
:105A40004170704701784078000208437047134660
:105A500010B50207920F05D00A4619460220FFF73B
:105A600091FE10BD820605D50A4619460220FFF7B1
:105A7000D3FD10BD820705D50A4619460220FFF75F
:105A80008FFD10BDC007FCD00A4619460220FFF763
:105A90003BFE10BDF8B5069C1F4615460646002C79
:105AA00013D0A06802220D30FAF75DFDE81E82B225
:105AB0003B460721204609F08FF9E580A068012EBA
:105AC00005D01D2101730020F8BD4720F8BD1B2122
:105AD000F8E70000F1B5FFB08BB00124600205903B
